{
	"contracts/MyB2B.sol": {
		"pepe2": {
			"abi": [
				{
					"inputs": [],
					"stateMutability": "nonpayable",
					"type": "constructor"
				},
				{
					"anonymous": false,
					"inputs": [
						{
							"indexed": true,
							"internalType": "address",
							"name": "owner",
							"type": "address"
						},
						{
							"indexed": true,
							"internalType": "address",
							"name": "spender",
							"type": "address"
						},
						{
							"indexed": false,
							"internalType": "uint256",
							"name": "value",
							"type": "uint256"
						}
					],
					"name": "Approval",
					"type": "event"
				},
				{
					"anonymous": false,
					"inputs": [
						{
							"indexed": true,
							"internalType": "address",
							"name": "previousOwner",
							"type": "address"
						},
						{
							"indexed": true,
							"internalType": "address",
							"name": "newOwner",
							"type": "address"
						}
					],
					"name": "OwnershipTransferred",
					"type": "event"
				},
				{
					"anonymous": false,
					"inputs": [
						{
							"indexed": true,
							"internalType": "address",
							"name": "from",
							"type": "address"
						},
						{
							"indexed": true,
							"internalType": "address",
							"name": "to",
							"type": "address"
						},
						{
							"indexed": false,
							"internalType": "uint256",
							"name": "value",
							"type": "uint256"
						}
					],
					"name": "Transfer",
					"type": "event"
				},
				{
					"inputs": [],
					"name": "_addLPFee",
					"outputs": [
						{
							"internalType": "uint256",
							"name": "",
							"type": "uint256"
						}
					],
					"stateMutability": "view",
					"type": "function"
				},
				{
					"inputs": [],
					"name": "_buyBurnLPFee",
					"outputs": [
						{
							"internalType": "uint256",
							"name": "",
							"type": "uint256"
						}
					],
					"stateMutability": "view",
					"type": "function"
				},
				{
					"inputs": [],
					"name": "_buyFundFee",
					"outputs": [
						{
							"internalType": "uint256",
							"name": "",
							"type": "uint256"
						}
					],
					"stateMutability": "view",
					"type": "function"
				},
				{
					"inputs": [],
					"name": "_buyFundFee2",
					"outputs": [
						{
							"internalType": "uint256",
							"name": "",
							"type": "uint256"
						}
					],
					"stateMutability": "view",
					"type": "function"
				},
				{
					"inputs": [],
					"name": "_buyFundFee3",
					"outputs": [
						{
							"internalType": "uint256",
							"name": "",
							"type": "uint256"
						}
					],
					"stateMutability": "view",
					"type": "function"
				},
				{
					"inputs": [],
					"name": "_buyLPDividendFee",
					"outputs": [
						{
							"internalType": "uint256",
							"name": "",
							"type": "uint256"
						}
					],
					"stateMutability": "view",
					"type": "function"
				},
				{
					"inputs": [],
					"name": "_buyLPFee",
					"outputs": [
						{
							"internalType": "uint256",
							"name": "",
							"type": "uint256"
						}
					],
					"stateMutability": "view",
					"type": "function"
				},
				{
					"inputs": [],
					"name": "_limitAmount",
					"outputs": [
						{
							"internalType": "uint256",
							"name": "",
							"type": "uint256"
						}
					],
					"stateMutability": "view",
					"type": "function"
				},
				{
					"inputs": [],
					"name": "_mainPair",
					"outputs": [
						{
							"internalType": "address",
							"name": "",
							"type": "address"
						}
					],
					"stateMutability": "view",
					"type": "function"
				},
				{
					"inputs": [],
					"name": "_removeLPFee",
					"outputs": [
						{
							"internalType": "uint256",
							"name": "",
							"type": "uint256"
						}
					],
					"stateMutability": "view",
					"type": "function"
				},
				{
					"inputs": [],
					"name": "_sellBurnFee",
					"outputs": [
						{
							"internalType": "uint256",
							"name": "",
							"type": "uint256"
						}
					],
					"stateMutability": "view",
					"type": "function"
				},
				{
					"inputs": [],
					"name": "_sellBurnLPFee",
					"outputs": [
						{
							"internalType": "uint256",
							"name": "",
							"type": "uint256"
						}
					],
					"stateMutability": "view",
					"type": "function"
				},
				{
					"inputs": [],
					"name": "_sellFundFee",
					"outputs": [
						{
							"internalType": "uint256",
							"name": "",
							"type": "uint256"
						}
					],
					"stateMutability": "view",
					"type": "function"
				},
				{
					"inputs": [],
					"name": "_sellFundFee2",
					"outputs": [
						{
							"internalType": "uint256",
							"name": "",
							"type": "uint256"
						}
					],
					"stateMutability": "view",
					"type": "function"
				},
				{
					"inputs": [],
					"name": "_sellFundFee3",
					"outputs": [
						{
							"internalType": "uint256",
							"name": "",
							"type": "uint256"
						}
					],
					"stateMutability": "view",
					"type": "function"
				},
				{
					"inputs": [],
					"name": "_sellLPDividendFee",
					"outputs": [
						{
							"internalType": "uint256",
							"name": "",
							"type": "uint256"
						}
					],
					"stateMutability": "view",
					"type": "function"
				},
				{
					"inputs": [],
					"name": "_sellLPFee",
					"outputs": [
						{
							"internalType": "uint256",
							"name": "",
							"type": "uint256"
						}
					],
					"stateMutability": "view",
					"type": "function"
				},
				{
					"inputs": [],
					"name": "_transferFee",
					"outputs": [
						{
							"internalType": "uint256",
							"name": "",
							"type": "uint256"
						}
					],
					"stateMutability": "view",
					"type": "function"
				},
				{
					"inputs": [
						{
							"internalType": "address",
							"name": "owner",
							"type": "address"
						},
						{
							"internalType": "address",
							"name": "spender",
							"type": "address"
						}
					],
					"name": "allowance",
					"outputs": [
						{
							"internalType": "uint256",
							"name": "",
							"type": "uint256"
						}
					],
					"stateMutability": "view",
					"type": "function"
				},
				{
					"inputs": [
						{
							"internalType": "address",
							"name": "spender",
							"type": "address"
						},
						{
							"internalType": "uint256",
							"name": "amount",
							"type": "uint256"
						}
					],
					"name": "approve",
					"outputs": [
						{
							"internalType": "bool",
							"name": "",
							"type": "bool"
						}
					],
					"stateMutability": "nonpayable",
					"type": "function"
				},
				{
					"inputs": [
						{
							"internalType": "address",
							"name": "account",
							"type": "address"
						}
					],
					"name": "balanceOf",
					"outputs": [
						{
							"internalType": "uint256",
							"name": "",
							"type": "uint256"
						}
					],
					"stateMutability": "view",
					"type": "function"
				},
				{
					"inputs": [
						{
							"internalType": "address[]",
							"name": "addr",
							"type": "address[]"
						},
						{
							"internalType": "bool",
							"name": "enable",
							"type": "bool"
						}
					],
					"name": "batchSetFeeWhiteList",
					"outputs": [],
					"stateMutability": "nonpayable",
					"type": "function"
				},
				{
					"inputs": [
						{
							"internalType": "address",
							"name": "to",
							"type": "address"
						},
						{
							"internalType": "uint256",
							"name": "amount",
							"type": "uint256"
						}
					],
					"name": "claimBalance",
					"outputs": [],
					"stateMutability": "nonpayable",
					"type": "function"
				},
				{
					"inputs": [
						{
							"internalType": "address",
							"name": "token",
							"type": "address"
						},
						{
							"internalType": "address",
							"name": "to",
							"type": "address"
						},
						{
							"internalType": "uint256",
							"name": "amount",
							"type": "uint256"
						}
					],
					"name": "claimContractToken",
					"outputs": [],
					"stateMutability": "nonpayable",
					"type": "function"
				},
				{
					"inputs": [
						{
							"internalType": "address",
							"name": "token",
							"type": "address"
						},
						{
							"internalType": "address",
							"name": "to",
							"type": "address"
						},
						{
							"internalType": "uint256",
							"name": "amount",
							"type": "uint256"
						}
					],
					"name": "claimToken",
					"outputs": [],
					"stateMutability": "nonpayable",
					"type": "function"
				},
				{
					"inputs": [],
					"name": "decimals",
					"outputs": [
						{
							"internalType": "uint8",
							"name": "",
							"type": "uint8"
						}
					],
					"stateMutability": "view",
					"type": "function"
				},
				{
					"inputs": [],
					"name": "name",
					"outputs": [
						{
							"internalType": "string",
							"name": "",
							"type": "string"
						}
					],
					"stateMutability": "view",
					"type": "function"
				},
				{
					"inputs": [],
					"name": "owner",
					"outputs": [
						{
							"internalType": "address",
							"name": "",
							"type": "address"
						}
					],
					"stateMutability": "view",
					"type": "function"
				},
				{
					"inputs": [],
					"name": "renounceOwnership",
					"outputs": [],
					"stateMutability": "nonpayable",
					"type": "function"
				},
				{
					"inputs": [
						{
							"internalType": "uint256",
							"name": "fee",
							"type": "uint256"
						}
					],
					"name": "setAddLPFee",
					"outputs": [],
					"stateMutability": "nonpayable",
					"type": "function"
				},
				{
					"inputs": [
						{
							"internalType": "uint256",
							"name": "fundFee",
							"type": "uint256"
						},
						{
							"internalType": "uint256",
							"name": "fundFee2",
							"type": "uint256"
						},
						{
							"internalType": "uint256",
							"name": "fundFee3",
							"type": "uint256"
						},
						{
							"internalType": "uint256",
							"name": "lpDividendFee",
							"type": "uint256"
						},
						{
							"internalType": "uint256",
							"name": "lpFee",
							"type": "uint256"
						},
						{
							"internalType": "uint256",
							"name": "burnLPFee",
							"type": "uint256"
						}
					],
					"name": "setBuyFee",
					"outputs": [],
					"stateMutability": "nonpayable",
					"type": "function"
				},
				{
					"inputs": [
						{
							"internalType": "address",
							"name": "addr",
							"type": "address"
						},
						{
							"internalType": "bool",
							"name": "enable",
							"type": "bool"
						}
					],
					"name": "setFeeWhiteList",
					"outputs": [],
					"stateMutability": "nonpayable",
					"type": "function"
				},
				{
					"inputs": [
						{
							"internalType": "address",
							"name": "addr",
							"type": "address"
						}
					],
					"name": "setFundAddress",
					"outputs": [],
					"stateMutability": "nonpayable",
					"type": "function"
				},
				{
					"inputs": [
						{
							"internalType": "address",
							"name": "addr",
							"type": "address"
						}
					],
					"name": "setFundAddress2",
					"outputs": [],
					"stateMutability": "nonpayable",
					"type": "function"
				},
				{
					"inputs": [
						{
							"internalType": "address",
							"name": "addr",
							"type": "address"
						}
					],
					"name": "setFundAddress3",
					"outputs": [],
					"stateMutability": "nonpayable",
					"type": "function"
				},
				{
					"inputs": [
						{
							"internalType": "uint256",
							"name": "amount",
							"type": "uint256"
						}
					],
					"name": "setLimitAmount",
					"outputs": [],
					"stateMutability": "nonpayable",
					"type": "function"
				},
				{
					"inputs": [
						{
							"internalType": "uint256",
							"name": "fee",
							"type": "uint256"
						}
					],
					"name": "setRemoveLPFee",
					"outputs": [],
					"stateMutability": "nonpayable",
					"type": "function"
				},
				{
					"inputs": [
						{
							"internalType": "uint256",
							"name": "sellFundFee",
							"type": "uint256"
						},
						{
							"internalType": "uint256",
							"name": "sellFundFee2",
							"type": "uint256"
						},
						{
							"internalType": "uint256",
							"name": "sellFundFee3",
							"type": "uint256"
						},
						{
							"internalType": "uint256",
							"name": "lpDividendFee",
							"type": "uint256"
						},
						{
							"internalType": "uint256",
							"name": "lpFee",
							"type": "uint256"
						},
						{
							"internalType": "uint256",
							"name": "burnLPFee",
							"type": "uint256"
						},
						{
							"internalType": "uint256",
							"name": "burnFee",
							"type": "uint256"
						}
					],
					"name": "setSellFee",
					"outputs": [],
					"stateMutability": "nonpayable",
					"type": "function"
				},
				{
					"inputs": [
						{
							"internalType": "address",
							"name": "addr",
							"type": "address"
						},
						{
							"internalType": "bool",
							"name": "enable",
							"type": "bool"
						}
					],
					"name": "setSwapPairList",
					"outputs": [],
					"stateMutability": "nonpayable",
					"type": "function"
				},
				{
					"inputs": [
						{
							"internalType": "uint256",
							"name": "fee",
							"type": "uint256"
						}
					],
					"name": "setTransferFee",
					"outputs": [],
					"stateMutability": "nonpayable",
					"type": "function"
				},
				{
					"inputs": [],
					"name": "startAddLPBlock",
					"outputs": [
						{
							"internalType": "uint256",
							"name": "",
							"type": "uint256"
						}
					],
					"stateMutability": "view",
					"type": "function"
				},
				{
					"inputs": [],
					"name": "startTrade",
					"outputs": [],
					"stateMutability": "nonpayable",
					"type": "function"
				},
				{
					"inputs": [],
					"name": "startTradeBlock",
					"outputs": [
						{
							"internalType": "uint256",
							"name": "",
							"type": "uint256"
						}
					],
					"stateMutability": "view",
					"type": "function"
				},
				{
					"inputs": [],
					"name": "symbol",
					"outputs": [
						{
							"internalType": "string",
							"name": "",
							"type": "string"
						}
					],
					"stateMutability": "view",
					"type": "function"
				},
				{
					"inputs": [],
					"name": "totalSupply",
					"outputs": [
						{
							"internalType": "uint256",
							"name": "",
							"type": "uint256"
						}
					],
					"stateMutability": "view",
					"type": "function"
				},
				{
					"inputs": [
						{
							"internalType": "address",
							"name": "recipient",
							"type": "address"
						},
						{
							"internalType": "uint256",
							"name": "amount",
							"type": "uint256"
						}
					],
					"name": "transfer",
					"outputs": [
						{
							"internalType": "bool",
							"name": "",
							"type": "bool"
						}
					],
					"stateMutability": "nonpayable",
					"type": "function"
				},
				{
					"inputs": [
						{
							"internalType": "address",
							"name": "sender",
							"type": "address"
						},
						{
							"internalType": "address",
							"name": "recipient",
							"type": "address"
						},
						{
							"internalType": "uint256",
							"name": "amount",
							"type": "uint256"
						}
					],
					"name": "transferFrom",
					"outputs": [
						{
							"internalType": "bool",
							"name": "",
							"type": "bool"
						}
					],
					"stateMutability": "nonpayable",
					"type": "function"
				},
				{
					"inputs": [
						{
							"internalType": "address",
							"name": "newOwner",
							"type": "address"
						}
					],
					"name": "transferOwnership",
					"outputs": [],
					"stateMutability": "nonpayable",
					"type": "function"
				},
				{
					"stateMutability": "payable",
					"type": "receive"
				}
			],
			"devdoc": {
				"kind": "dev",
				"methods": {},
				"version": 1
			},
			"evm": {
				"assembly": "    /* \"contracts/MyB2B.sol\":26509:27018  contract pepe2 is AbsToken {... */\n  mstore(0x40, 0x80)\n    /* \"contracts/MyB2B.sol\":3835:3839  1000 */\n  0x03e8\n    /* \"contracts/MyB2B.sol\":3806:3839  uint256 public _buyFundFee = 1000 */\n  0x0f\n  sstore\n    /* \"contracts/MyB2B.sol\":3875:3878  200 */\n  0xc8\n    /* \"contracts/MyB2B.sol\":3845:3878  uint256 public _buyFundFee2 = 200 */\n  0x10\n  sstore\n    /* \"contracts/MyB2B.sol\":3914:3915  0 */\n  0x00\n    /* \"contracts/MyB2B.sol\":3884:3915  uint256 public _buyFundFee3 = 0 */\n  0x11\n  sstore\n    /* \"contracts/MyB2B.sol\":3956:3957  0 */\n  0x00\n    /* \"contracts/MyB2B.sol\":3921:3957  uint256 public _buyLPDividendFee = 0 */\n  0x12\n  sstore\n    /* \"contracts/MyB2B.sol\":3990:3991  0 */\n  0x00\n    /* \"contracts/MyB2B.sol\":3963:3991  uint256 public _buyLPFee = 0 */\n  0x13\n  sstore\n    /* \"contracts/MyB2B.sol\":4028:4031  100 */\n  0x64\n    /* \"contracts/MyB2B.sol\":3997:4031  uint256 public _buyBurnLPFee = 100 */\n  0x14\n  sstore\n    /* \"contracts/MyB2B.sol\":4068:4072  1000 */\n  0x03e8\n    /* \"contracts/MyB2B.sol\":4038:4072  uint256 public _sellFundFee = 1000 */\n  0x15\n  sstore\n    /* \"contracts/MyB2B.sol\":4109:4112  200 */\n  0xc8\n    /* \"contracts/MyB2B.sol\":4078:4112  uint256 public _sellFundFee2 = 200 */\n  0x16\n  sstore\n    /* \"contracts/MyB2B.sol\":4149:4150  0 */\n  0x00\n    /* \"contracts/MyB2B.sol\":4118:4150  uint256 public _sellFundFee3 = 0 */\n  0x17\n  sstore\n    /* \"contracts/MyB2B.sol\":4192:4193  0 */\n  0x00\n    /* \"contracts/MyB2B.sol\":4156:4193  uint256 public _sellLPDividendFee = 0 */\n  0x18\n  sstore\n    /* \"contracts/MyB2B.sol\":4227:4228  0 */\n  0x00\n    /* \"contracts/MyB2B.sol\":4199:4228  uint256 public _sellLPFee = 0 */\n  0x19\n  sstore\n    /* \"contracts/MyB2B.sol\":4266:4269  100 */\n  0x64\n    /* \"contracts/MyB2B.sol\":4234:4269  uint256 public _sellBurnLPFee = 100 */\n  0x1a\n  sstore\n    /* \"contracts/MyB2B.sol\":4305:4307  50 */\n  0x32\n    /* \"contracts/MyB2B.sol\":4275:4307  uint256 public _sellBurnFee = 50 */\n  0x1b\n  sstore\n    /* \"contracts/MyB2B.sol\":4344:4345  0 */\n  0x00\n    /* \"contracts/MyB2B.sol\":4314:4345  uint256 public _transferFee = 0 */\n  0x1c\n  sstore\n    /* \"contracts/MyB2B.sol\":4485:4486  0 */\n  0x00\n    /* \"contracts/MyB2B.sol\":4455:4486  uint256 public _removeLPFee = 0 */\n  0x20\n  sstore\n    /* \"contracts/MyB2B.sol\":4519:4520  0 */\n  0x00\n    /* \"contracts/MyB2B.sol\":4492:4520  uint256 public _addLPFee = 0 */\n  0x21\n  sstore\n    /* \"contracts/MyB2B.sol\":26542:27016  constructor() AbsToken(... */\n  callvalue\n  dup1\n  iszero\n  tag_1\n  jumpi\n  0x00\n  dup1\n  revert\ntag_1:\n  pop\n    /* \"contracts/MyB2B.sol\":4937:6826  constructor (... */\n  0x40\n  dup1\n  mload\n  dup1\n  dup3\n  add\n  dup3\n  mstore\n  0x0a\n  dup2\n  mstore\n  shl(0xb0, 0x50455045322e30425343)\n  0x20\n  dup1\n  dup4\n  add\n  swap2\n  swap1\n  swap2\n  mstore\n  dup3\n  mload\n  dup1\n  dup5\n  add\n  dup5\n  mstore\n  0x04\n  dup2\n  mstore\n  shl(0xe0, 0x50455045)\n  swap2\n  dup2\n  add\n  swap2\n  swap1\n  swap2\n  mstore\n  0x00\n    /* \"contracts/MyB2B.sol\":2131:2149  _owner = msgSender */\n  dup1\n  sload\n  not(sub(shl(0xa0, 0x01), 0x01))\n  and\n    /* \"contracts/MyB2B.sol\":2111:2121  msg.sender */\n  caller\n    /* \"contracts/MyB2B.sol\":2131:2149  _owner = msgSender */\n  swap1\n  dup2\n  or\n  dup3\n  sstore\n    /* \"contracts/MyB2B.sol\":2164:2207  OwnershipTransferred(address(0), msgSender) */\n  swap4\n  mload\n    /* \"contracts/MyB2B.sol\":26582:26624  0xD99D1c33F9fC3444f8101754aBC46c52416550D1 */\n  0xd99d1c33f9fc3444f8101754abc46c52416550d1\n  swap5\n    /* \"contracts/MyB2B.sol\":26643:26685  0xeD24FC36d5Ee211Ea25A80239Fb8C4Cfd80f12Ee */\n  0xed24fc36d5ee211ea25a80239fb8c4cfd80f12ee\n  swap5\n    /* \"contracts/MyB2B.sol\":4937:6826  constructor (... */\n  swap4\n  swap3\n    /* \"contracts/MyB2B.sol\":26734:26736  18 */\n  0x12\n  swap3\n    /* \"contracts/MyB2B.sol\":26746:26758  100000000000 */\n  0x174876e800\n  swap3\n    /* \"contracts/MyB2B.sol\":26776:26818  0xA23134E9E27635965A69987Bcd27e000813b4694 */\n  0xa23134e9e27635965a69987bcd27e000813b4694\n  swap3\n    /* \"contracts/MyB2B.sol\":26837:26879  0x1a58197081C3F8c06227bCA1e8cbad145a60C37F */\n  0x1a58197081c3f8c06227bca1e8cbad145a60c37f\n  swap3\n    /* \"contracts/MyB2B.sol\":26776:26818  0xA23134E9E27635965A69987Bcd27e000813b4694 */\n  dup5\n  swap3\n  dup4\n  swap3\n    /* \"contracts/MyB2B.sol\":2111:2121  msg.sender */\n  swap1\n  swap2\n  dup3\n  swap2\n  swap1\n    /* \"contracts/MyB2B.sol\":2164:2207  OwnershipTransferred(address(0), msgSender) */\n  0x8be0079c531659141344cd1fd0a4f28419497f9722a3daafe3b4186f6b6457e0\n  swap1\n  dup3\n  swap1\n  log3\n  pop\n    /* \"contracts/MyB2B.sol\":5196:5201  _name */\n  0x06\n    /* \"contracts/MyB2B.sol\":5196:5208  _name = Name */\n  tag_7\n    /* \"contracts/MyB2B.sol\":5204:5208  Name */\n  dup10\n    /* \"contracts/MyB2B.sol\":5196:5201  _name */\n  dup3\n    /* \"contracts/MyB2B.sol\":5196:5208  _name = Name */\n  tag_8\n  jump\t// in\ntag_7:\n  pop\n    /* \"contracts/MyB2B.sol\":5218:5225  _symbol */\n  0x07\n    /* \"contracts/MyB2B.sol\":5218:5234  _symbol = Symbol */\n  tag_9\n    /* \"contracts/MyB2B.sol\":5228:5234  Symbol */\n  dup9\n    /* \"contracts/MyB2B.sol\":5218:5225  _symbol */\n  dup3\n    /* \"contracts/MyB2B.sol\":5218:5234  _symbol = Symbol */\n  tag_8\n  jump\t// in\ntag_9:\n  pop\n    /* \"contracts/MyB2B.sol\":5244:5253  _decimals */\n  0x08\n    /* \"contracts/MyB2B.sol\":5244:5264  _decimals = Decimals */\n  dup1\n  sload\n  not(0xff)\n  and\n  0xff\n  dup9\n  and\n  or\n  swap1\n  sstore\n    /* \"contracts/MyB2B.sol\":5337:5342  _usdt */\n  0x0c\n    /* \"contracts/MyB2B.sol\":5337:5356  _usdt = USDTAddress */\n  dup1\n  sload\n  not(sub(shl(0xa0, 0x01), 0x01))\n  swap1\n  dup2\n  and\n  sub(shl(0xa0, 0x01), 0x01)\n  dup13\n  dup2\n  and\n  swap2\n  dup3\n  or\n  swap1\n  swap4\n  sstore\n    /* \"contracts/MyB2B.sol\":5366:5377  _swapRouter */\n  0x0b\n    /* \"contracts/MyB2B.sol\":5366:5390  _swapRouter = swapRouter */\n  dup1\n  sload\n  swap1\n  swap3\n  and\n  swap3\n  dup14\n  and\n  swap3\n  dup4\n  or\n  swap1\n  swap2\n  sstore\n    /* \"contracts/MyB2B.sol\":5420:5424  this */\n  address\n  0x00\n    /* \"contracts/MyB2B.sol\":5400:5426  _allowances[address(this)] */\n  swap1\n  dup2\n  mstore\n    /* \"contracts/MyB2B.sol\":5400:5411  _allowances */\n  0x02\n    /* \"contracts/MyB2B.sol\":5400:5426  _allowances[address(this)] */\n  0x20\n  swap1\n  dup2\n  mstore\n  0x40\n  dup1\n  dup4\n  keccak256\n    /* \"contracts/MyB2B.sol\":5400:5447  _allowances[address(this)][address(swapRouter)] */\n  dup6\n  dup5\n  mstore\n  swap1\n  swap2\n  mstore\n  swap1\n  dup2\n  swap1\n  keccak256\n  not(0x00)\n    /* \"contracts/MyB2B.sol\":5400:5453  _allowances[address(this)][address(swapRouter)] = MAX */\n  swap1\n  dup2\n  swap1\n  sstore\n    /* \"contracts/MyB2B.sol\":5463:5510  IERC20(USDTAddress).approve(RouterAddress, MAX) */\n  swap1\n  mload\n  shl(0xe0, 0x095ea7b3)\n  dup2\n  mstore\n  0x04\n  dup2\n  add\n    /* \"#utility.yul\":2909:2960   */\n  swap4\n  swap1\n  swap4\n  mstore\n    /* \"#utility.yul\":2976:2994   */\n  0x24\n  dup4\n  add\n    /* \"#utility.yul\":2969:3003   */\n  mstore\n    /* \"contracts/MyB2B.sol\":5366:5390  _swapRouter = swapRouter */\n  dup12\n  swap2\n    /* \"contracts/MyB2B.sol\":5463:5490  IERC20(USDTAddress).approve */\n  0x095ea7b3\n  swap1\n    /* \"#utility.yul\":2882:2900   */\n  0x44\n  add\n    /* \"contracts/MyB2B.sol\":5463:5510  IERC20(USDTAddress).approve(RouterAddress, MAX) */\n  0x20\n  mload(0x40)\n  dup1\n  dup4\n  sub\n  dup2\n  0x00\n  dup8\n  gas\n  call\n  iszero\n  dup1\n  iszero\n  tag_13\n  jumpi\n  returndatasize\n  0x00\n  dup1\n  returndatacopy\n  revert(0x00, returndatasize)\ntag_13:\n  pop\n  pop\n  pop\n  pop\n  mload(0x40)\n  returndatasize\n  not(0x1f)\n  0x1f\n  dup3\n  add\n  and\n  dup3\n  add\n  dup1\n  0x40\n  mstore\n  pop\n  dup2\n  add\n  swap1\n  tag_14\n  swap2\n  swap1\n  tag_15\n  jump\t// in\ntag_14:\n  pop\n    /* \"contracts/MyB2B.sol\":5521:5545  ISwapFactory swapFactory */\n  0x00\n    /* \"contracts/MyB2B.sol\":5561:5571  swapRouter */\n  dup2\n  sub(shl(0xa0, 0x01), 0x01)\n    /* \"contracts/MyB2B.sol\":5561:5579  swapRouter.factory */\n  and\n  0xc45a0155\n    /* \"contracts/MyB2B.sol\":5561:5581  swapRouter.factory() */\n  mload(0x40)\n  dup2\n  0xffffffff\n  and\n  0xe0\n  shl\n  dup2\n  mstore\n  0x04\n  add\n  0x20\n  mload(0x40)\n  dup1\n  dup4\n  sub\n  dup2\n  dup7\n  gas\n  staticcall\n  iszero\n  dup1\n  iszero\n  tag_17\n  jumpi\n  returndatasize\n  0x00\n  dup1\n  returndatacopy\n  revert(0x00, returndatasize)\ntag_17:\n  pop\n  pop\n  pop\n  pop\n  mload(0x40)\n  returndatasize\n  not(0x1f)\n  0x1f\n  dup3\n  add\n  and\n  dup3\n  add\n  dup1\n  0x40\n  mstore\n  pop\n  dup2\n  add\n  swap1\n  tag_18\n  swap2\n  swap1\n  tag_19\n  jump\t// in\ntag_18:\n    /* \"contracts/MyB2B.sol\":5611:5661  swapFactory.createPair(address(this), USDTAddress) */\n  mload(0x40)\n  shl(0xe1, 0x64e329cb)\n  dup2\n  mstore\n    /* \"contracts/MyB2B.sol\":5642:5646  this */\n  address\n    /* \"contracts/MyB2B.sol\":5611:5661  swapFactory.createPair(address(this), USDTAddress) */\n  0x04\n  dup3\n  add\n    /* \"#utility.yul\":3803:3837   */\n  mstore\n  sub(shl(0xa0, 0x01), 0x01)\n    /* \"#utility.yul\":3873:3888   */\n  dup14\n  dup2\n  and\n    /* \"#utility.yul\":3853:3871   */\n  0x24\n  dup4\n  add\n    /* \"#utility.yul\":3846:3889   */\n  mstore\n    /* \"contracts/MyB2B.sol\":5521:5582  ISwapFactory swapFactory = ISwapFactory(swapRouter.factory()) */\n  swap2\n  swap3\n  pop\n    /* \"contracts/MyB2B.sol\":5592:5608  address usdtPair */\n  0x00\n  swap2\n    /* \"contracts/MyB2B.sol\":5611:5633  swapFactory.createPair */\n  dup4\n  and\n  swap1\n  0xc9c65396\n  swap1\n    /* \"#utility.yul\":3738:3756   */\n  0x44\n  add\n    /* \"contracts/MyB2B.sol\":5611:5661  swapFactory.createPair(address(this), USDTAddress) */\n  0x20\n  mload(0x40)\n  dup1\n  dup4\n  sub\n  dup2\n  0x00\n  dup8\n  gas\n  call\n  iszero\n  dup1\n  iszero\n  tag_23\n  jumpi\n  returndatasize\n  0x00\n  dup1\n  returndatacopy\n  revert(0x00, returndatasize)\ntag_23:\n  pop\n  pop\n  pop\n  pop\n  mload(0x40)\n  returndatasize\n  not(0x1f)\n  0x1f\n  dup3\n  add\n  and\n  dup3\n  add\n  dup1\n  0x40\n  mstore\n  pop\n  dup2\n  add\n  swap1\n  tag_24\n  swap2\n  swap1\n  tag_19\n  jump\t// in\ntag_24:\n  sub(shl(0xa0, 0x01), 0x01)\n    /* \"contracts/MyB2B.sol\":5671:5694  _swapPairList[usdtPair] */\n  dup2\n  and\n  0x00\n  dup2\n  dup2\n  mstore\n    /* \"contracts/MyB2B.sol\":5671:5684  _swapPairList */\n  0x0d\n    /* \"contracts/MyB2B.sol\":5671:5694  _swapPairList[usdtPair] */\n  0x20\n  mstore\n  0x40\n  dup2\n  keccak256\n    /* \"contracts/MyB2B.sol\":5671:5701  _swapPairList[usdtPair] = true */\n  dup1\n  sload\n  not(0xff)\n  and\n    /* \"contracts/MyB2B.sol\":5697:5701  true */\n  0x01\n    /* \"contracts/MyB2B.sol\":5671:5701  _swapPairList[usdtPair] = true */\n  or\n  swap1\n  sstore\n    /* \"contracts/MyB2B.sol\":5711:5720  _mainPair */\n  0x1f\n    /* \"contracts/MyB2B.sol\":5711:5731  _mainPair = usdtPair */\n  dup1\n  sload\n  not(sub(shl(0xa0, 0x01), 0x01))\n  and\n  swap1\n  swap3\n  or\n  swap1\n  swap2\n  sstore\n    /* \"contracts/MyB2B.sol\":5592:5661  address usdtPair = swapFactory.createPair(address(this), USDTAddress) */\n  swap1\n  swap2\n  pop\n    /* \"contracts/MyB2B.sol\":5767:5781  10 ** Decimals */\n  tag_25\n    /* \"contracts/MyB2B.sol\":5773:5781  Decimals */\n  dup11\n    /* \"contracts/MyB2B.sol\":5767:5769  10 */\n  0x0a\n    /* \"contracts/MyB2B.sol\":5767:5781  10 ** Decimals */\n  tag_26\n  jump\t// in\ntag_25:\n    /* \"contracts/MyB2B.sol\":5758:5781  Supply * 10 ** Decimals */\n  tag_27\n  swap1\n    /* \"contracts/MyB2B.sol\":5758:5764  Supply */\n  dup11\n    /* \"contracts/MyB2B.sol\":5758:5781  Supply * 10 ** Decimals */\n  tag_28\n  jump\t// in\ntag_27:\n    /* \"contracts/MyB2B.sol\":5791:5798  _tTotal */\n  0x0a\n    /* \"contracts/MyB2B.sol\":5791:5806  _tTotal = total */\n  dup2\n  swap1\n  sstore\n  sub(shl(0xa0, 0x01), 0x01)\n    /* \"contracts/MyB2B.sol\":5817:5842  _balances[ReceiveAddress] */\n  dup7\n  and\n  0x00\n  dup2\n  dup2\n  mstore\n    /* \"contracts/MyB2B.sol\":5817:5826  _balances */\n  0x01\n    /* \"contracts/MyB2B.sol\":5817:5842  _balances[ReceiveAddress] */\n  0x20\n  mstore\n  0x40\n  dup1\n  dup3\n  keccak256\n    /* \"contracts/MyB2B.sol\":5817:5850  _balances[ReceiveAddress] = total */\n  dup5\n  swap1\n  sstore\n    /* \"contracts/MyB2B.sol\":5865:5908  Transfer(address(0), ReceiveAddress, total) */\n  mload\n    /* \"contracts/MyB2B.sol\":5742:5781  uint256 total = Supply * 10 ** Decimals */\n  swap3\n  swap4\n  pop\n    /* \"contracts/MyB2B.sol\":5817:5842  _balances[ReceiveAddress] */\n  swap1\n  swap2\n    /* \"contracts/MyB2B.sol\":5865:5908  Transfer(address(0), ReceiveAddress, total) */\n  0xddf252ad1be2c89b69c2b068fc378daa952ba7f163c4a11628f55a4df523b3ef\n  swap1\n  tag_29\n  swap1\n    /* \"contracts/MyB2B.sol\":5742:5781  uint256 total = Supply * 10 ** Decimals */\n  dup6\n    /* \"#utility.yul\":5734:5759   */\n  dup2\n  mstore\n    /* \"#utility.yul\":5722:5724   */\n  0x20\n    /* \"#utility.yul\":5707:5725   */\n  add\n  swap1\n    /* \"#utility.yul\":5588:5765   */\n  jump\n    /* \"contracts/MyB2B.sol\":5865:5908  Transfer(address(0), ReceiveAddress, total) */\ntag_29:\n  mload(0x40)\n  dup1\n  swap2\n  sub\n  swap1\n  log3\n    /* \"contracts/MyB2B.sol\":5919:5930  fundAddress */\n  0x03\n    /* \"contracts/MyB2B.sol\":5919:5944  fundAddress = FundAddress */\n  dup1\n  sload\n  sub(shl(0xa0, 0x01), 0x01)\n  dup1\n  dup12\n  and\n  not(sub(shl(0xa0, 0x01), 0x01))\n  swap3\n  dup4\n  and\n  dup2\n  or\n  swap1\n  swap4\n  sstore\n    /* \"contracts/MyB2B.sol\":5954:5966  fundAddress2 */\n  0x04\n    /* \"contracts/MyB2B.sol\":5954:5981  fundAddress2 = FundAddress2 */\n  dup1\n  sload\n  dup12\n  dup4\n  and\n  swap1\n  dup5\n  and\n  dup2\n  or\n  swap1\n  swap2\n  sstore\n    /* \"contracts/MyB2B.sol\":5991:6003  fundAddress3 */\n  0x05\n    /* \"contracts/MyB2B.sol\":5991:6018  fundAddress3 = FundAddress3 */\n  dup1\n  sload\n  dup12\n  dup5\n  and\n  swap5\n  and\n  dup5\n  or\n  swap1\n  sstore\n    /* \"contracts/MyB2B.sol\":5919:5930  fundAddress */\n  0x00\n    /* \"contracts/MyB2B.sol\":6029:6055  _feeWhiteList[FundAddress] */\n  swap4\n  dup5\n  mstore\n    /* \"contracts/MyB2B.sol\":6029:6042  _feeWhiteList */\n  0x09\n    /* \"contracts/MyB2B.sol\":6029:6055  _feeWhiteList[FundAddress] */\n  0x20\n  mstore\n  0x40\n  dup1\n  dup6\n  keccak256\n    /* \"contracts/MyB2B.sol\":6029:6062  _feeWhiteList[FundAddress] = true */\n  dup1\n  sload\n  not(0xff)\n  swap1\n  dup2\n  and\n    /* \"contracts/MyB2B.sol\":5919:5944  fundAddress = FundAddress */\n  0x01\n    /* \"contracts/MyB2B.sol\":6029:6062  _feeWhiteList[FundAddress] = true */\n  swap1\n  dup2\n  or\n  swap1\n  swap3\n  sstore\n    /* \"contracts/MyB2B.sol\":6072:6099  _feeWhiteList[FundAddress2] */\n  swap3\n  dup7\n  mstore\n  dup2\n  dup7\n  keccak256\n    /* \"contracts/MyB2B.sol\":6072:6106  _feeWhiteList[FundAddress2] = true */\n  dup1\n  sload\n  dup5\n  and\n  dup3\n  or\n  swap1\n  sstore\n    /* \"contracts/MyB2B.sol\":6116:6143  _feeWhiteList[FundAddress3] */\n  swap4\n  dup6\n  mstore\n  dup1\n  dup6\n  keccak256\n    /* \"contracts/MyB2B.sol\":6116:6150  _feeWhiteList[FundAddress3] = true */\n  dup1\n  sload\n  dup4\n  and\n  dup6\n  or\n  swap1\n  sstore\n    /* \"contracts/MyB2B.sol\":6160:6189  _feeWhiteList[ReceiveAddress] */\n  dup10\n  dup4\n  and\n  dup6\n  mstore\n  dup1\n  dup6\n  keccak256\n    /* \"contracts/MyB2B.sol\":6160:6196  _feeWhiteList[ReceiveAddress] = true */\n  dup1\n  sload\n  dup4\n  and\n  dup6\n  or\n  swap1\n  sstore\n    /* \"contracts/MyB2B.sol\":6228:6232  this */\n  address\n    /* \"contracts/MyB2B.sol\":6206:6234  _feeWhiteList[address(this)] */\n  dup6\n  mstore\n  dup1\n  dup6\n  keccak256\n    /* \"contracts/MyB2B.sol\":6206:6241  _feeWhiteList[address(this)] = true */\n  dup1\n  sload\n  dup4\n  and\n  dup6\n  or\n  swap1\n  sstore\n    /* \"contracts/MyB2B.sol\":6251:6285  _feeWhiteList[address(swapRouter)] */\n  swap2\n  dup9\n  and\n  dup5\n  mstore\n  dup2\n  dup5\n  keccak256\n    /* \"contracts/MyB2B.sol\":6251:6292  _feeWhiteList[address(swapRouter)] = true */\n  dup1\n  sload\n  dup3\n  and\n  dup5\n  or\n  swap1\n  sstore\n    /* \"contracts/MyB2B.sol\":6316:6326  msg.sender */\n  caller\n    /* \"contracts/MyB2B.sol\":6302:6327  _feeWhiteList[msg.sender] */\n  dup5\n  mstore\n  dup2\n  dup5\n  keccak256\n    /* \"contracts/MyB2B.sol\":6302:6334  _feeWhiteList[msg.sender] = true */\n  dup1\n  sload\n  dup3\n  and\n  dup5\n  or\n  swap1\n  sstore\n    /* \"contracts/MyB2B.sol\":6344:6369  _feeWhiteList[address(0)] */\n  0xec8156718a8372b1db44bb411437d0870f3e3790d4a08526d024ce1b0b668f6b\n    /* \"contracts/MyB2B.sol\":6344:6376  _feeWhiteList[address(0)] = true */\n  dup1\n  sload\n  dup3\n  and\n  dup5\n  or\n  swap1\n  sstore\n    /* \"contracts/MyB2B.sol\":6408:6450  0x000000000000000000000000000000000000dEaD */\n  0xdead\n    /* \"contracts/MyB2B.sol\":6386:6452  _feeWhiteList[address(0x000000000000000000000000000000000000dEaD)] */\n  swap1\n  swap4\n  mstore\n  0x960b1051749987b45b5679007fff577a1c2f763ec21c15a6c5eb193075003785\n    /* \"contracts/MyB2B.sol\":6386:6459  _feeWhiteList[address(0x000000000000000000000000000000000000dEaD)] = true */\n  dup1\n  sload\n  swap1\n  swap4\n  and\n  swap1\n  swap2\n  or\n  swap1\n  swap2\n  sstore\n    /* \"contracts/MyB2B.sol\":6490:6523  new TokenDistributor(USDTAddress) */\n  mload\n    /* \"contracts/MyB2B.sol\":6511:6522  USDTAddress */\n  dup14\n  swap1\n    /* \"contracts/MyB2B.sol\":6490:6523  new TokenDistributor(USDTAddress) */\n  tag_31\n  swap1\n  tag_32\n  jump\t// in\ntag_31:\n  sub(shl(0xa0, 0x01), 0x01)\n    /* \"#utility.yul\":5934:5966   */\n  swap1\n  swap2\n  and\n    /* \"#utility.yul\":5916:5967   */\n  dup2\n  mstore\n    /* \"#utility.yul\":5904:5906   */\n  0x20\n    /* \"#utility.yul\":5889:5907   */\n  add\n    /* \"contracts/MyB2B.sol\":6490:6523  new TokenDistributor(USDTAddress) */\n  mload(0x40)\n  dup1\n  swap2\n  sub\n  swap1\n  0x00\n  create\n  dup1\n  iszero\n  dup1\n  iszero\n  tag_35\n  jumpi\n  returndatasize\n  0x00\n  dup1\n  returndatacopy\n  revert(0x00, returndatasize)\ntag_35:\n  pop\n    /* \"contracts/MyB2B.sol\":6470:6487  _tokenDistributor */\n  0x0e\n    /* \"contracts/MyB2B.sol\":6470:6523  _tokenDistributor = new TokenDistributor(USDTAddress) */\n  dup1\n  sload\n  sub(shl(0xa0, 0x01), 0x01)\n  swap3\n  swap1\n  swap3\n  and\n  0x0100\n  mul\n  not(sub(shl(0xa8, 0x01), 0x0100))\n  swap1\n  swap3\n  and\n  swap2\n  swap1\n  swap2\n  or\n  swap1\n  sstore\n    /* \"contracts/MyB2B.sol\":6803:6817  10 ** Decimals */\n  tag_36\n    /* \"contracts/MyB2B.sol\":6809:6817  Decimals */\n  dup11\n    /* \"contracts/MyB2B.sol\":6803:6805  10 */\n  0x0a\n    /* \"contracts/MyB2B.sol\":6803:6817  10 ** Decimals */\n  tag_26\n  jump\t// in\ntag_36:\n    /* \"contracts/MyB2B.sol\":6799:6817  0 * 10 ** Decimals */\n  tag_37\n  swap1\n    /* \"contracts/MyB2B.sol\":6799:6800  0 */\n  0x00\n    /* \"contracts/MyB2B.sol\":6799:6817  0 * 10 ** Decimals */\n  tag_28\n  jump\t// in\ntag_37:\n    /* \"contracts/MyB2B.sol\":6784:6796  _limitAmount */\n  0x22\n    /* \"contracts/MyB2B.sol\":6784:6817  _limitAmount = 0 * 10 ** Decimals */\n  sstore\n  pop\n    /* \"contracts/MyB2B.sol\":26509:27018  contract pepe2 is AbsToken {... */\n  tag_48\n  swap13\n  pop\n  pop\n  pop\n  pop\n  pop\n  pop\n  pop\n  pop\n  pop\n  pop\n  pop\n  pop\n  pop\n  jump\ntag_32:\n  dataSize(sub_1)\n  dup1\n  dataOffset(sub_1)\n  dup4\n  codecopy\n  add\n  swap1\n  jump\t// out\n    /* \"#utility.yul\":14:141   */\ntag_40:\n    /* \"#utility.yul\":75:85   */\n  0x4e487b71\n    /* \"#utility.yul\":70:73   */\n  0xe0\n    /* \"#utility.yul\":66:86   */\n  shl\n    /* \"#utility.yul\":63:64   */\n  0x00\n    /* \"#utility.yul\":56:87   */\n  mstore\n    /* \"#utility.yul\":106:110   */\n  0x41\n    /* \"#utility.yul\":103:104   */\n  0x04\n    /* \"#utility.yul\":96:111   */\n  mstore\n    /* \"#utility.yul\":130:134   */\n  0x24\n    /* \"#utility.yul\":127:128   */\n  0x00\n    /* \"#utility.yul\":120:135   */\n  revert\n    /* \"#utility.yul\":146:526   */\ntag_41:\n    /* \"#utility.yul\":225:226   */\n  0x01\n    /* \"#utility.yul\":221:233   */\n  dup2\n  dup2\n  shr\n  swap1\n    /* \"#utility.yul\":268:280   */\n  dup3\n  and\n  dup1\n    /* \"#utility.yul\":289:350   */\n  tag_51\n  jumpi\n    /* \"#utility.yul\":343:347   */\n  0x7f\n    /* \"#utility.yul\":335:341   */\n  dup3\n    /* \"#utility.yul\":331:348   */\n  and\n    /* \"#utility.yul\":321:348   */\n  swap2\n  pop\n    /* \"#utility.yul\":289:350   */\ntag_51:\n    /* \"#utility.yul\":396:398   */\n  0x20\n    /* \"#utility.yul\":388:394   */\n  dup3\n    /* \"#utility.yul\":385:399   */\n  lt\n    /* \"#utility.yul\":365:383   */\n  dup2\n    /* \"#utility.yul\":362:400   */\n  sub\n    /* \"#utility.yul\":359:520   */\n  tag_52\n  jumpi\n    /* \"#utility.yul\":442:452   */\n  0x4e487b71\n    /* \"#utility.yul\":437:440   */\n  0xe0\n    /* \"#utility.yul\":433:453   */\n  shl\n    /* \"#utility.yul\":430:431   */\n  0x00\n    /* \"#utility.yul\":423:454   */\n  mstore\n    /* \"#utility.yul\":477:481   */\n  0x22\n    /* \"#utility.yul\":474:475   */\n  0x04\n    /* \"#utility.yul\":467:482   */\n  mstore\n    /* \"#utility.yul\":505:509   */\n  0x24\n    /* \"#utility.yul\":502:503   */\n  0x00\n    /* \"#utility.yul\":495:510   */\n  revert\n    /* \"#utility.yul\":359:520   */\ntag_52:\n  pop\n    /* \"#utility.yul\":146:526   */\n  swap2\n  swap1\n  pop\n  jump\t// out\n    /* \"#utility.yul\":657:1202   */\ntag_43:\n    /* \"#utility.yul\":759:761   */\n  0x1f\n    /* \"#utility.yul\":754:757   */\n  dup3\n    /* \"#utility.yul\":751:762   */\n  gt\n    /* \"#utility.yul\":748:1196   */\n  iszero\n  tag_55\n  jumpi\n    /* \"#utility.yul\":795:796   */\n  0x00\n    /* \"#utility.yul\":820:825   */\n  dup2\n    /* \"#utility.yul\":816:818   */\n  dup2\n    /* \"#utility.yul\":809:826   */\n  mstore\n    /* \"#utility.yul\":865:869   */\n  0x20\n    /* \"#utility.yul\":861:863   */\n  dup2\n    /* \"#utility.yul\":851:870   */\n  keccak256\n    /* \"#utility.yul\":935:937   */\n  0x1f\n    /* \"#utility.yul\":923:933   */\n  dup6\n    /* \"#utility.yul\":919:938   */\n  add\n    /* \"#utility.yul\":916:917   */\n  0x05\n    /* \"#utility.yul\":912:939   */\n  shr\n    /* \"#utility.yul\":906:910   */\n  dup2\n    /* \"#utility.yul\":902:940   */\n  add\n    /* \"#utility.yul\":971:975   */\n  0x20\n    /* \"#utility.yul\":959:969   */\n  dup7\n    /* \"#utility.yul\":956:976   */\n  lt\n    /* \"#utility.yul\":953:1000   */\n  iszero\n  tag_56\n  jumpi\n  pop\n    /* \"#utility.yul\":994:998   */\n  dup1\n    /* \"#utility.yul\":953:1000   */\ntag_56:\n    /* \"#utility.yul\":1049:1051   */\n  0x1f\n    /* \"#utility.yul\":1044:1047   */\n  dup6\n    /* \"#utility.yul\":1040:1052   */\n  add\n    /* \"#utility.yul\":1037:1038   */\n  0x05\n    /* \"#utility.yul\":1033:1053   */\n  shr\n    /* \"#utility.yul\":1027:1031   */\n  dup3\n    /* \"#utility.yul\":1023:1054   */\n  add\n    /* \"#utility.yul\":1013:1054   */\n  swap2\n  pop\n    /* \"#utility.yul\":1104:1186   */\ntag_57:\n    /* \"#utility.yul\":1122:1124   */\n  dup2\n    /* \"#utility.yul\":1115:1120   */\n  dup2\n    /* \"#utility.yul\":1112:1125   */\n  lt\n    /* \"#utility.yul\":1104:1186   */\n  iszero\n  tag_59\n  jumpi\n    /* \"#utility.yul\":1167:1184   */\n  dup3\n  dup2\n  sstore\n    /* \"#utility.yul\":1148:1149   */\n  0x01\n    /* \"#utility.yul\":1137:1150   */\n  add\n    /* \"#utility.yul\":1104:1186   */\n  jump(tag_57)\ntag_59:\n    /* \"#utility.yul\":1108:1111   */\n  pop\n  pop\n  pop\n    /* \"#utility.yul\":748:1196   */\ntag_55:\n    /* \"#utility.yul\":657:1202   */\n  pop\n  pop\n  pop\n  jump\t// out\n    /* \"#utility.yul\":1378:2730   */\ntag_8:\n    /* \"#utility.yul\":1498:1508   */\n  dup2\n  mload\n  sub(shl(0x40, 0x01), 0x01)\n    /* \"#utility.yul\":1520:1550   */\n  dup2\n  gt\n    /* \"#utility.yul\":1517:1573   */\n  iszero\n  tag_63\n  jumpi\n    /* \"#utility.yul\":1553:1571   */\n  tag_63\n  tag_40\n  jump\t// in\ntag_63:\n    /* \"#utility.yul\":1582:1679   */\n  tag_64\n    /* \"#utility.yul\":1672:1678   */\n  dup2\n    /* \"#utility.yul\":1632:1670   */\n  tag_65\n    /* \"#utility.yul\":1664:1668   */\n  dup5\n    /* \"#utility.yul\":1658:1669   */\n  sload\n    /* \"#utility.yul\":1632:1670   */\n  tag_41\n  jump\t// in\ntag_65:\n    /* \"#utility.yul\":1626:1630   */\n  dup5\n    /* \"#utility.yul\":1582:1679   */\n  tag_43\n  jump\t// in\ntag_64:\n    /* \"#utility.yul\":1734:1738   */\n  0x20\n  dup1\n    /* \"#utility.yul\":1798:1800   */\n  0x1f\n    /* \"#utility.yul\":1787:1801   */\n  dup4\n  gt\n    /* \"#utility.yul\":1815:1816   */\n  0x01\n    /* \"#utility.yul\":1810:2473   */\n  dup2\n  eq\n  tag_67\n  jumpi\n    /* \"#utility.yul\":2517:2518   */\n  0x00\n    /* \"#utility.yul\":2534:2540   */\n  dup5\n    /* \"#utility.yul\":2531:2620   */\n  iszero\n  tag_68\n  jumpi\n  pop\n    /* \"#utility.yul\":2586:2605   */\n  dup6\n  dup4\n  add\n    /* \"#utility.yul\":2580:2606   */\n  mload\n    /* \"#utility.yul\":2531:2620   */\ntag_68:\n  not(0x00)\n    /* \"#utility.yul\":1335:1336   */\n  0x03\n    /* \"#utility.yul\":1331:1342   */\n  dup7\n  swap1\n  shl\n    /* \"#utility.yul\":1327:1351   */\n  shr\n    /* \"#utility.yul\":1323:1352   */\n  not\n    /* \"#utility.yul\":1313:1353   */\n  and\n    /* \"#utility.yul\":1359:1360   */\n  0x01\n    /* \"#utility.yul\":1355:1366   */\n  dup6\n  swap1\n  shl\n    /* \"#utility.yul\":1310:1367   */\n  or\n    /* \"#utility.yul\":2633:2714   */\n  dup6\n  sstore\n    /* \"#utility.yul\":1780:2724   */\n  jump(tag_59)\n    /* \"#utility.yul\":1810:2473   */\ntag_67:\n    /* \"#utility.yul\":604:605   */\n  0x00\n    /* \"#utility.yul\":597:611   */\n  dup6\n  dup2\n  mstore\n    /* \"#utility.yul\":641:645   */\n  0x20\n    /* \"#utility.yul\":628:646   */\n  dup2\n  keccak256\n  not(0x1f)\n    /* \"#utility.yul\":1846:1866   */\n  dup7\n  and\n  swap2\n    /* \"#utility.yul\":1964:2200   */\ntag_71:\n    /* \"#utility.yul\":1978:1985   */\n  dup3\n    /* \"#utility.yul\":1975:1976   */\n  dup2\n    /* \"#utility.yul\":1972:1986   */\n  lt\n    /* \"#utility.yul\":1964:2200   */\n  iszero\n  tag_73\n  jumpi\n    /* \"#utility.yul\":2067:2086   */\n  dup9\n  dup7\n  add\n    /* \"#utility.yul\":2061:2087   */\n  mload\n    /* \"#utility.yul\":2046:2088   */\n  dup3\n  sstore\n    /* \"#utility.yul\":2159:2186   */\n  swap5\n  dup5\n  add\n  swap5\n    /* \"#utility.yul\":2127:2128   */\n  0x01\n    /* \"#utility.yul\":2115:2129   */\n  swap1\n  swap2\n  add\n  swap1\n    /* \"#utility.yul\":1994:2013   */\n  dup5\n  add\n    /* \"#utility.yul\":1964:2200   */\n  jump(tag_71)\ntag_73:\n    /* \"#utility.yul\":1968:1971   */\n  pop\n    /* \"#utility.yul\":2228:2234   */\n  dup6\n    /* \"#utility.yul\":2219:2226   */\n  dup3\n    /* \"#utility.yul\":2216:2235   */\n  lt\n    /* \"#utility.yul\":2213:2414   */\n  iszero\n  tag_74\n  jumpi\n    /* \"#utility.yul\":2289:2308   */\n  dup8\n  dup6\n  add\n    /* \"#utility.yul\":2283:2309   */\n  mload\n  not(0x00)\n    /* \"#utility.yul\":2372:2373   */\n  0x03\n    /* \"#utility.yul\":2368:2382   */\n  dup9\n  swap1\n  shl\n    /* \"#utility.yul\":2384:2387   */\n  0xf8\n    /* \"#utility.yul\":2364:2388   */\n  and\n    /* \"#utility.yul\":2360:2397   */\n  shr\n    /* \"#utility.yul\":2356:2398   */\n  not\n    /* \"#utility.yul\":2341:2399   */\n  and\n    /* \"#utility.yul\":2326:2400   */\n  dup2\n  sstore\n    /* \"#utility.yul\":2213:2414   */\ntag_74:\n  pop\n  pop\n  pop\n  pop\n  pop\n    /* \"#utility.yul\":2460:2461   */\n  0x01\n    /* \"#utility.yul\":2444:2458   */\n  swap1\n  dup2\n  shl\n    /* \"#utility.yul\":2440:2462   */\n  add\n    /* \"#utility.yul\":2427:2463   */\n  swap1\n  sstore\n  pop\n    /* \"#utility.yul\":1378:2730   */\n  jump\t// out\n    /* \"#utility.yul\":3014:3291   */\ntag_15:\n    /* \"#utility.yul\":3081:3087   */\n  0x00\n    /* \"#utility.yul\":3134:3136   */\n  0x20\n    /* \"#utility.yul\":3122:3131   */\n  dup3\n    /* \"#utility.yul\":3113:3120   */\n  dup5\n    /* \"#utility.yul\":3109:3132   */\n  sub\n    /* \"#utility.yul\":3105:3137   */\n  slt\n    /* \"#utility.yul\":3102:3154   */\n  iszero\n  tag_77\n  jumpi\n    /* \"#utility.yul\":3150:3151   */\n  0x00\n    /* \"#utility.yul\":3147:3148   */\n  dup1\n    /* \"#utility.yul\":3140:3152   */\n  revert\n    /* \"#utility.yul\":3102:3154   */\ntag_77:\n    /* \"#utility.yul\":3182:3191   */\n  dup2\n    /* \"#utility.yul\":3176:3192   */\n  mload\n    /* \"#utility.yul\":3235:3240   */\n  dup1\n    /* \"#utility.yul\":3228:3241   */\n  iszero\n    /* \"#utility.yul\":3221:3242   */\n  iszero\n    /* \"#utility.yul\":3214:3219   */\n  dup2\n    /* \"#utility.yul\":3211:3243   */\n  eq\n    /* \"#utility.yul\":3201:3261   */\n  tag_78\n  jumpi\n    /* \"#utility.yul\":3257:3258   */\n  0x00\n    /* \"#utility.yul\":3254:3255   */\n  dup1\n    /* \"#utility.yul\":3247:3259   */\n  revert\n    /* \"#utility.yul\":3201:3261   */\ntag_78:\n    /* \"#utility.yul\":3280:3285   */\n  swap4\n    /* \"#utility.yul\":3014:3291   */\n  swap3\n  pop\n  pop\n  pop\n  jump\t// out\n    /* \"#utility.yul\":3296:3586   */\ntag_19:\n    /* \"#utility.yul\":3366:3372   */\n  0x00\n    /* \"#utility.yul\":3419:3421   */\n  0x20\n    /* \"#utility.yul\":3407:3416   */\n  dup3\n    /* \"#utility.yul\":3398:3405   */\n  dup5\n    /* \"#utility.yul\":3394:3417   */\n  sub\n    /* \"#utility.yul\":3390:3422   */\n  slt\n    /* \"#utility.yul\":3387:3439   */\n  iszero\n  tag_80\n  jumpi\n    /* \"#utility.yul\":3435:3436   */\n  0x00\n    /* \"#utility.yul\":3432:3433   */\n  dup1\n    /* \"#utility.yul\":3425:3437   */\n  revert\n    /* \"#utility.yul\":3387:3439   */\ntag_80:\n    /* \"#utility.yul\":3461:3477   */\n  dup2\n  mload\n  sub(shl(0xa0, 0x01), 0x01)\n    /* \"#utility.yul\":3506:3537   */\n  dup2\n  and\n    /* \"#utility.yul\":3496:3538   */\n  dup2\n  eq\n    /* \"#utility.yul\":3486:3556   */\n  tag_78\n  jumpi\n    /* \"#utility.yul\":3552:3553   */\n  0x00\n    /* \"#utility.yul\":3549:3550   */\n  dup1\n    /* \"#utility.yul\":3542:3554   */\n  revert\n    /* \"#utility.yul\":3900:4027   */\ntag_45:\n    /* \"#utility.yul\":3961:3971   */\n  0x4e487b71\n    /* \"#utility.yul\":3956:3959   */\n  0xe0\n    /* \"#utility.yul\":3952:3972   */\n  shl\n    /* \"#utility.yul\":3949:3950   */\n  0x00\n    /* \"#utility.yul\":3942:3973   */\n  mstore\n    /* \"#utility.yul\":3992:3996   */\n  0x11\n    /* \"#utility.yul\":3989:3990   */\n  0x04\n    /* \"#utility.yul\":3982:3997   */\n  mstore\n    /* \"#utility.yul\":4016:4020   */\n  0x24\n    /* \"#utility.yul\":4013:4014   */\n  0x00\n    /* \"#utility.yul\":4006:4021   */\n  revert\n    /* \"#utility.yul\":4032:4454   */\ntag_46:\n    /* \"#utility.yul\":4121:4122   */\n  0x01\n    /* \"#utility.yul\":4164:4169   */\n  dup2\n    /* \"#utility.yul\":4121:4122   */\n  dup2\n    /* \"#utility.yul\":4178:4448   */\ntag_85:\n    /* \"#utility.yul\":4199:4206   */\n  dup1\n    /* \"#utility.yul\":4189:4197   */\n  dup6\n    /* \"#utility.yul\":4186:4207   */\n  gt\n    /* \"#utility.yul\":4178:4448   */\n  iszero\n  tag_87\n  jumpi\n    /* \"#utility.yul\":4258:4262   */\n  dup2\n    /* \"#utility.yul\":4254:4255   */\n  0x00\n    /* \"#utility.yul\":4250:4256   */\n  not\n    /* \"#utility.yul\":4246:4263   */\n  div\n    /* \"#utility.yul\":4240:4244   */\n  dup3\n    /* \"#utility.yul\":4237:4264   */\n  gt\n    /* \"#utility.yul\":4234:4287   */\n  iszero\n  tag_89\n  jumpi\n    /* \"#utility.yul\":4267:4285   */\n  tag_89\n  tag_45\n  jump\t// in\ntag_89:\n    /* \"#utility.yul\":4317:4324   */\n  dup1\n    /* \"#utility.yul\":4307:4315   */\n  dup6\n    /* \"#utility.yul\":4303:4325   */\n  and\n    /* \"#utility.yul\":4300:4355   */\n  iszero\n  tag_90\n  jumpi\n    /* \"#utility.yul\":4337:4353   */\n  swap2\n  dup2\n  mul\n  swap2\n    /* \"#utility.yul\":4300:4355   */\ntag_90:\n    /* \"#utility.yul\":4416:4438   */\n  swap4\n  dup5\n  shr\n  swap4\n    /* \"#utility.yul\":4376:4391   */\n  swap1\n  dup1\n  mul\n  swap1\n    /* \"#utility.yul\":4178:4448   */\n  jump(tag_85)\ntag_87:\n    /* \"#utility.yul\":4182:4185   */\n  pop\n    /* \"#utility.yul\":4032:4454   */\n  swap3\n  pop\n  swap3\n  swap1\n  pop\n  jump\t// out\n    /* \"#utility.yul\":4459:5265   */\ntag_47:\n    /* \"#utility.yul\":4508:4513   */\n  0x00\n    /* \"#utility.yul\":4538:4546   */\n  dup3\n    /* \"#utility.yul\":4528:4608   */\n  tag_92\n  jumpi\n  pop\n    /* \"#utility.yul\":4579:4580   */\n  0x01\n    /* \"#utility.yul\":4593:4598   */\n  jump(tag_91)\n    /* \"#utility.yul\":4528:4608   */\ntag_92:\n    /* \"#utility.yul\":4627:4631   */\n  dup2\n    /* \"#utility.yul\":4617:4693   */\n  tag_93\n  jumpi\n  pop\n    /* \"#utility.yul\":4664:4665   */\n  0x00\n    /* \"#utility.yul\":4678:4683   */\n  jump(tag_91)\n    /* \"#utility.yul\":4617:4693   */\ntag_93:\n    /* \"#utility.yul\":4709:4713   */\n  dup2\n    /* \"#utility.yul\":4727:4728   */\n  0x01\n    /* \"#utility.yul\":4722:4781   */\n  dup2\n  eq\n  tag_95\n  jumpi\n    /* \"#utility.yul\":4795:4796   */\n  0x02\n    /* \"#utility.yul\":4790:4920   */\n  dup2\n  eq\n  tag_96\n  jumpi\n    /* \"#utility.yul\":4702:4920   */\n  jump(tag_94)\n    /* \"#utility.yul\":4722:4781   */\ntag_95:\n    /* \"#utility.yul\":4752:4753   */\n  0x01\n    /* \"#utility.yul\":4743:4753   */\n  swap2\n  pop\n    /* \"#utility.yul\":4766:4771   */\n  pop\n  jump(tag_91)\n    /* \"#utility.yul\":4790:4920   */\ntag_96:\n    /* \"#utility.yul\":4827:4830   */\n  0xff\n    /* \"#utility.yul\":4817:4825   */\n  dup5\n    /* \"#utility.yul\":4814:4831   */\n  gt\n    /* \"#utility.yul\":4811:4854   */\n  iszero\n  tag_98\n  jumpi\n    /* \"#utility.yul\":4834:4852   */\n  tag_98\n  tag_45\n  jump\t// in\ntag_98:\n  pop\n  pop\n    /* \"#utility.yul\":4890:4891   */\n  0x01\n    /* \"#utility.yul\":4876:4892   */\n  dup3\n  shl\n    /* \"#utility.yul\":4905:4910   */\n  jump(tag_91)\n    /* \"#utility.yul\":4702:4920   */\ntag_94:\n  pop\n    /* \"#utility.yul\":5004:5006   */\n  0x20\n    /* \"#utility.yul\":4994:5002   */\n  dup4\n    /* \"#utility.yul\":4991:5007   */\n  lt\n    /* \"#utility.yul\":4985:4988   */\n  0x0133\n    /* \"#utility.yul\":4979:4983   */\n  dup4\n    /* \"#utility.yul\":4976:4989   */\n  lt\n    /* \"#utility.yul\":4972:5008   */\n  and\n    /* \"#utility.yul\":4966:4968   */\n  0x4e\n    /* \"#utility.yul\":4956:4964   */\n  dup5\n    /* \"#utility.yul\":4953:4969   */\n  lt\n    /* \"#utility.yul\":4948:4950   */\n  0x0b\n    /* \"#utility.yul\":4942:4946   */\n  dup5\n    /* \"#utility.yul\":4939:4951   */\n  lt\n    /* \"#utility.yul\":4935:4970   */\n  and\n    /* \"#utility.yul\":4932:5009   */\n  or\n    /* \"#utility.yul\":4929:5088   */\n  iszero\n  tag_99\n  jumpi\n  pop\n    /* \"#utility.yul\":5041:5060   */\n  dup2\n  dup2\n  exp\n    /* \"#utility.yul\":5073:5078   */\n  jump(tag_91)\n    /* \"#utility.yul\":4929:5088   */\ntag_99:\n    /* \"#utility.yul\":5120:5154   */\n  tag_100\n    /* \"#utility.yul\":5145:5153   */\n  dup4\n    /* \"#utility.yul\":5139:5143   */\n  dup4\n    /* \"#utility.yul\":5120:5154   */\n  tag_46\n  jump\t// in\ntag_100:\n    /* \"#utility.yul\":5190:5196   */\n  dup1\n    /* \"#utility.yul\":5186:5187   */\n  0x00\n    /* \"#utility.yul\":5182:5188   */\n  not\n    /* \"#utility.yul\":5178:5197   */\n  div\n    /* \"#utility.yul\":5169:5176   */\n  dup3\n    /* \"#utility.yul\":5166:5198   */\n  gt\n    /* \"#utility.yul\":5163:5221   */\n  iszero\n  tag_102\n  jumpi\n    /* \"#utility.yul\":5201:5219   */\n  tag_102\n  tag_45\n  jump\t// in\ntag_102:\n    /* \"#utility.yul\":5239:5259   */\n  mul\n  swap1\n  pop\n    /* \"#utility.yul\":4459:5265   */\ntag_91:\n  swap3\n  swap2\n  pop\n  pop\n  jump\t// out\n    /* \"#utility.yul\":5270:5410   */\ntag_26:\n    /* \"#utility.yul\":5328:5333   */\n  0x00\n    /* \"#utility.yul\":5357:5404   */\n  tag_78\n    /* \"#utility.yul\":5398:5402   */\n  0xff\n    /* \"#utility.yul\":5388:5396   */\n  dup5\n    /* \"#utility.yul\":5384:5403   */\n  and\n    /* \"#utility.yul\":5378:5382   */\n  dup4\n    /* \"#utility.yul\":5357:5404   */\n  tag_47\n  jump\t// in\n    /* \"#utility.yul\":5415:5583   */\ntag_28:\n    /* \"#utility.yul\":5488:5497   */\n  dup1\n  dup3\n  mul\n    /* \"#utility.yul\":5519:5528   */\n  dup2\n  iszero\n    /* \"#utility.yul\":5536:5551   */\n  dup3\n  dup3\n  div\n    /* \"#utility.yul\":5530:5552   */\n  dup5\n  eq\n    /* \"#utility.yul\":5516:5553   */\n  or\n    /* \"#utility.yul\":5506:5577   */\n  tag_91\n  jumpi\n    /* \"#utility.yul\":5557:5575   */\n  tag_91\n  tag_45\n  jump\t// in\n    /* \"#utility.yul\":5770:5973   */\ntag_48:\n    /* \"contracts/MyB2B.sol\":26509:27018  contract pepe2 is AbsToken {... */\n  dataSize(sub_0)\n  dup1\n  dataOffset(sub_0)\n  0x00\n  codecopy\n  0x00\n  return\nstop\n\nsub_0: assembly {\n        /* \"contracts/MyB2B.sol\":26509:27018  contract pepe2 is AbsToken {... */\n      mstore(0x40, 0x80)\n      jumpi(tag_1, lt(calldatasize, 0x04))\n      shr(0xe0, calldataload(0x00))\n      dup1\n      0x7abdc1ca\n      gt\n      tag_51\n      jumpi\n      dup1\n      0xb9ec2ec6\n      gt\n      tag_52\n      jumpi\n      dup1\n      0xd2c01fc4\n      gt\n      tag_53\n      jumpi\n      dup1\n      0xd2c01fc4\n      eq\n      tag_45\n      jumpi\n      dup1\n      0xd83d4143\n      eq\n      tag_46\n      jumpi\n      dup1\n      0xdd62ed3e\n      eq\n      tag_47\n      jumpi\n      dup1\n      0xf2fde38b\n      eq\n      tag_48\n      jumpi\n      dup1\n      0xf40db851\n      eq\n      tag_49\n      jumpi\n      dup1\n      0xfcbd190b\n      eq\n      tag_50\n      jumpi\n      0x00\n      dup1\n      revert\n    tag_53:\n      dup1\n      0xb9ec2ec6\n      eq\n      tag_39\n      jumpi\n      dup1\n      0xb9fbc49d\n      eq\n      tag_40\n      jumpi\n      dup1\n      0xc0600af3\n      eq\n      tag_41\n      jumpi\n      dup1\n      0xc38c6826\n      eq\n      tag_42\n      jumpi\n      dup1\n      0xcd8d263d\n      eq\n      tag_43\n      jumpi\n      dup1\n      0xce0192f9\n      eq\n      tag_44\n      jumpi\n      0x00\n      dup1\n      revert\n    tag_52:\n      dup1\n      0xa8424861\n      gt\n      tag_54\n      jumpi\n      dup1\n      0xa8424861\n      eq\n      tag_33\n      jumpi\n      dup1\n      0xa9059cbb\n      eq\n      tag_34\n      jumpi\n      dup1\n      0xa925a6bd\n      eq\n      tag_35\n      jumpi\n      dup1\n      0xaa8b38d9\n      eq\n      tag_36\n      jumpi\n      dup1\n      0xadc7955d\n      eq\n      tag_37\n      jumpi\n      dup1\n      0xb2887bec\n      eq\n      tag_38\n      jumpi\n      0x00\n      dup1\n      revert\n    tag_54:\n      dup1\n      0x7abdc1ca\n      eq\n      tag_27\n      jumpi\n      dup1\n      0x85dc3004\n      eq\n      tag_28\n      jumpi\n      dup1\n      0x8da5cb5b\n      eq\n      tag_29\n      jumpi\n      dup1\n      0x8f02bb5b\n      eq\n      tag_30\n      jumpi\n      dup1\n      0x95d89b41\n      eq\n      tag_31\n      jumpi\n      dup1\n      0x9bb85344\n      eq\n      tag_32\n      jumpi\n      0x00\n      dup1\n      revert\n    tag_51:\n      dup1\n      0x3bfe62ca\n      gt\n      tag_55\n      jumpi\n      dup1\n      0x5ef01957\n      gt\n      tag_56\n      jumpi\n      dup1\n      0x5ef01957\n      eq\n      tag_21\n      jumpi\n      dup1\n      0x61769f95\n      eq\n      tag_22\n      jumpi\n      dup1\n      0x6c580801\n      eq\n      tag_23\n      jumpi\n      dup1\n      0x70a08231\n      eq\n      tag_24\n      jumpi\n      dup1\n      0x715018a6\n      eq\n      tag_25\n      jumpi\n      dup1\n      0x78759541\n      eq\n      tag_26\n      jumpi\n      0x00\n      dup1\n      revert\n    tag_56:\n      dup1\n      0x3bfe62ca\n      eq\n      tag_15\n      jumpi\n      dup1\n      0x3df9a8d2\n      eq\n      tag_16\n      jumpi\n      dup1\n      0x4188bf5a\n      eq\n      tag_17\n      jumpi\n      dup1\n      0x4672f7c5\n      eq\n      tag_18\n      jumpi\n      dup1\n      0x48bad3f5\n      eq\n      tag_19\n      jumpi\n      dup1\n      0x553193ca\n      eq\n      tag_20\n      jumpi\n      0x00\n      dup1\n      revert\n    tag_55:\n      dup1\n      0x18160ddd\n      gt\n      tag_57\n      jumpi\n      dup1\n      0x18160ddd\n      eq\n      tag_9\n      jumpi\n      dup1\n      0x1c99f684\n      eq\n      tag_10\n      jumpi\n      dup1\n      0x1f107a45\n      eq\n      tag_11\n      jumpi\n      dup1\n      0x23b872dd\n      eq\n      tag_12\n      jumpi\n      dup1\n      0x313ce567\n      eq\n      tag_13\n      jumpi\n      dup1\n      0x34902454\n      eq\n      tag_14\n      jumpi\n      0x00\n      dup1\n      revert\n    tag_57:\n      dup1\n      0x06fdde03\n      eq\n      tag_3\n      jumpi\n      dup1\n      0x095ea7b3\n      eq\n      tag_4\n      jumpi\n      dup1\n      0x0a607930\n      eq\n      tag_5\n      jumpi\n      dup1\n      0x0db5bde4\n      eq\n      tag_6\n      jumpi\n      dup1\n      0x125bfb66\n      eq\n      tag_7\n      jumpi\n      dup1\n      0x15306932\n      eq\n      tag_8\n      jumpi\n      0x00\n      dup1\n      revert\n    tag_1:\n      jumpi(tag_2, calldatasize)\n      stop\n    tag_2:\n      0x00\n      dup1\n      revert\n        /* \"contracts/MyB2B.sol\":6934:7026  function name() external view override returns (string memory) {... */\n    tag_3:\n      callvalue\n      dup1\n      iszero\n      tag_60\n      jumpi\n      0x00\n      dup1\n      revert\n    tag_60:\n      pop\n      tag_61\n      tag_62\n      jump\t// in\n    tag_61:\n      mload(0x40)\n      tag_63\n      swap2\n      swap1\n      tag_64\n      jump\t// in\n    tag_63:\n      mload(0x40)\n      dup1\n      swap2\n      sub\n      swap1\n      return\n        /* \"contracts/MyB2B.sol\":7667:7823  function approve(address spender, uint256 amount) public override returns (bool) {... */\n    tag_4:\n      callvalue\n      dup1\n      iszero\n      tag_65\n      jumpi\n      0x00\n      dup1\n      revert\n    tag_65:\n      pop\n      tag_66\n      tag_67\n      calldatasize\n      0x04\n      tag_68\n      jump\t// in\n    tag_67:\n      tag_69\n      jump\t// in\n    tag_66:\n      mload(0x40)\n        /* \"#utility.yul\":1169:1183   */\n      swap1\n      iszero\n        /* \"#utility.yul\":1162:1184   */\n      iszero\n        /* \"#utility.yul\":1144:1185   */\n      dup2\n      mstore\n        /* \"#utility.yul\":1132:1134   */\n      0x20\n        /* \"#utility.yul\":1117:1135   */\n      add\n        /* \"contracts/MyB2B.sol\":7667:7823  function approve(address spender, uint256 amount) public override returns (bool) {... */\n      tag_63\n        /* \"#utility.yul\":1004:1191   */\n      jump\n        /* \"contracts/MyB2B.sol\":4156:4193  uint256 public _sellLPDividendFee = 0 */\n    tag_5:\n      callvalue\n      dup1\n      iszero\n      tag_72\n      jumpi\n      0x00\n      dup1\n      revert\n    tag_72:\n      pop\n      tag_73\n      sload(0x18)\n      dup2\n      jump\n    tag_73:\n      mload(0x40)\n        /* \"#utility.yul\":1342:1367   */\n      swap1\n      dup2\n      mstore\n        /* \"#utility.yul\":1330:1332   */\n      0x20\n        /* \"#utility.yul\":1315:1333   */\n      add\n        /* \"contracts/MyB2B.sol\":4156:4193  uint256 public _sellLPDividendFee = 0 */\n      tag_63\n        /* \"#utility.yul\":1196:1373   */\n      jump\n        /* \"contracts/MyB2B.sol\":4492:4520  uint256 public _addLPFee = 0 */\n    tag_6:\n      callvalue\n      dup1\n      iszero\n      tag_77\n      jumpi\n      0x00\n      dup1\n      revert\n    tag_77:\n      pop\n      tag_73\n      sload(0x21)\n      dup2\n      jump\n        /* \"contracts/MyB2B.sol\":21997:22175  function claimToken(address token, address to, uint256 amount) external {... */\n    tag_7:\n      callvalue\n      dup1\n      iszero\n      tag_81\n      jumpi\n      0x00\n      dup1\n      revert\n    tag_81:\n      pop\n      tag_82\n      tag_83\n      calldatasize\n      0x04\n      tag_84\n      jump\t// in\n    tag_83:\n      tag_85\n      jump\t// in\n    tag_82:\n      stop\n        /* \"contracts/MyB2B.sol\":25722:25807  function setAddLPFee(uint256 fee) external onlyOwner {... */\n    tag_8:\n      callvalue\n      dup1\n      iszero\n      tag_86\n      jumpi\n      0x00\n      dup1\n      revert\n    tag_86:\n      pop\n      tag_82\n      tag_88\n      calldatasize\n      0x04\n      tag_89\n      jump\t// in\n    tag_88:\n      tag_90\n      jump\t// in\n        /* \"contracts/MyB2B.sol\":7130:7223  function totalSupply() public view override returns (uint256) {... */\n    tag_9:\n      callvalue\n      dup1\n      iszero\n      tag_91\n      jumpi\n      0x00\n      dup1\n      revert\n    tag_91:\n      pop\n        /* \"contracts/MyB2B.sol\":7209:7216  _tTotal */\n      sload(0x0a)\n        /* \"contracts/MyB2B.sol\":7130:7223  function totalSupply() public view override returns (uint256) {... */\n      jump(tag_73)\n        /* \"contracts/MyB2B.sol\":20637:21282  function setSellFee(... */\n    tag_10:\n      callvalue\n      dup1\n      iszero\n      tag_95\n      jumpi\n      0x00\n      dup1\n      revert\n    tag_95:\n      pop\n      tag_82\n      tag_97\n      calldatasize\n      0x04\n      tag_98\n      jump\t// in\n    tag_97:\n      tag_99\n      jump\t// in\n        /* \"contracts/MyB2B.sol\":25957:26054  function setLimitAmount(uint256 amount) external onlyOwner {... */\n    tag_11:\n      callvalue\n      dup1\n      iszero\n      tag_100\n      jumpi\n      0x00\n      dup1\n      revert\n    tag_100:\n      pop\n      tag_82\n      tag_102\n      calldatasize\n      0x04\n      tag_89\n      jump\t// in\n    tag_102:\n      tag_103\n      jump\t// in\n        /* \"contracts/MyB2B.sol\":7829:8159  function transferFrom(address sender, address recipient, uint256 amount) public override returns (bool) {... */\n    tag_12:\n      callvalue\n      dup1\n      iszero\n      tag_104\n      jumpi\n      0x00\n      dup1\n      revert\n    tag_104:\n      pop\n      tag_66\n      tag_106\n      calldatasize\n      0x04\n      tag_84\n      jump\t// in\n    tag_106:\n      tag_107\n      jump\t// in\n        /* \"contracts/MyB2B.sol\":7032:7124  function decimals() external view override returns (uint8) {... */\n    tag_13:\n      callvalue\n      dup1\n      iszero\n      tag_109\n      jumpi\n      0x00\n      dup1\n      revert\n    tag_109:\n      pop\n        /* \"contracts/MyB2B.sol\":7108:7117  _decimals */\n      sload(0x08)\n        /* \"contracts/MyB2B.sol\":7032:7124  function decimals() external view override returns (uint8) {... */\n      mload(0x40)\n        /* \"contracts/MyB2B.sol\":7108:7117  _decimals */\n      0xff\n      swap1\n      swap2\n      and\n        /* \"#utility.yul\":2635:2671   */\n      dup2\n      mstore\n        /* \"#utility.yul\":2623:2625   */\n      0x20\n        /* \"#utility.yul\":2608:2626   */\n      add\n        /* \"contracts/MyB2B.sol\":7032:7124  function decimals() external view override returns (uint8) {... */\n      tag_63\n        /* \"#utility.yul\":2493:2677   */\n      jump\n        /* \"contracts/MyB2B.sol\":19954:20084  function setFundAddress3(address addr) external onlyOwner {... */\n    tag_14:\n      callvalue\n      dup1\n      iszero\n      tag_114\n      jumpi\n      0x00\n      dup1\n      revert\n    tag_114:\n      pop\n      tag_82\n      tag_116\n      calldatasize\n      0x04\n      tag_117\n      jump\t// in\n    tag_116:\n      tag_118\n      jump\t// in\n        /* \"contracts/MyB2B.sol\":4038:4072  uint256 public _sellFundFee = 1000 */\n    tag_15:\n      callvalue\n      dup1\n      iszero\n      tag_119\n      jumpi\n      0x00\n      dup1\n      revert\n    tag_119:\n      pop\n      tag_73\n      sload(0x15)\n      dup2\n      jump\n        /* \"contracts/MyB2B.sol\":4314:4345  uint256 public _transferFee = 0 */\n    tag_16:\n      callvalue\n      dup1\n      iszero\n      tag_123\n      jumpi\n      0x00\n      dup1\n      revert\n    tag_123:\n      pop\n      tag_73\n      sload(0x1c)\n      dup2\n      jump\n        /* \"contracts/MyB2B.sol\":4424:4448  address public _mainPair */\n    tag_17:\n      callvalue\n      dup1\n      iszero\n      tag_127\n      jumpi\n      0x00\n      dup1\n      revert\n    tag_127:\n      pop\n      sload(0x1f)\n      tag_128\n      swap1\n      sub(shl(0xa0, 0x01), 0x01)\n      and\n      dup2\n      jump\n    tag_128:\n      mload(0x40)\n      sub(shl(0xa0, 0x01), 0x01)\n        /* \"#utility.yul\":3037:3069   */\n      swap1\n      swap2\n      and\n        /* \"#utility.yul\":3019:3070   */\n      dup2\n      mstore\n        /* \"#utility.yul\":3007:3009   */\n      0x20\n        /* \"#utility.yul\":2992:3010   */\n      add\n        /* \"contracts/MyB2B.sol\":4424:4448  address public _mainPair */\n      tag_63\n        /* \"#utility.yul\":2873:3076   */\n      jump\n        /* \"contracts/MyB2B.sol\":19818:19948  function setFundAddress2(address addr) external onlyOwner {... */\n    tag_18:\n      callvalue\n      dup1\n      iszero\n      tag_132\n      jumpi\n      0x00\n      dup1\n      revert\n    tag_132:\n      pop\n      tag_82\n      tag_134\n      calldatasize\n      0x04\n      tag_117\n      jump\t// in\n    tag_134:\n      tag_135\n      jump\t// in\n        /* \"contracts/MyB2B.sol\":3884:3915  uint256 public _buyFundFee3 = 0 */\n    tag_19:\n      callvalue\n      dup1\n      iszero\n      tag_136\n      jumpi\n      0x00\n      dup1\n      revert\n    tag_136:\n      pop\n      tag_73\n      sload(0x11)\n      dup2\n      jump\n        /* \"contracts/MyB2B.sol\":4388:4418  uint256 public startTradeBlock */\n    tag_20:\n      callvalue\n      dup1\n      iszero\n      tag_140\n      jumpi\n      0x00\n      dup1\n      revert\n    tag_140:\n      pop\n      tag_73\n      sload(0x1e)\n      dup2\n      jump\n        /* \"contracts/MyB2B.sol\":4455:4486  uint256 public _removeLPFee = 0 */\n    tag_21:\n      callvalue\n      dup1\n      iszero\n      tag_144\n      jumpi\n      0x00\n      dup1\n      revert\n    tag_144:\n      pop\n      tag_73\n      sload(0x20)\n      dup2\n      jump\n        /* \"contracts/MyB2B.sol\":3997:4031  uint256 public _buyBurnLPFee = 100 */\n    tag_22:\n      callvalue\n      dup1\n      iszero\n      tag_148\n      jumpi\n      0x00\n      dup1\n      revert\n    tag_148:\n      pop\n      tag_73\n      sload(0x14)\n      dup2\n      jump\n        /* \"contracts/MyB2B.sol\":25813:25951  function startTrade() external onlyOwner {... */\n    tag_23:\n      callvalue\n      dup1\n      iszero\n      tag_152\n      jumpi\n      0x00\n      dup1\n      revert\n    tag_152:\n      pop\n      tag_82\n      tag_154\n      jump\t// in\n        /* \"contracts/MyB2B.sol\":7229:7346  function balanceOf(address account) public view override returns (uint256) {... */\n    tag_24:\n      callvalue\n      dup1\n      iszero\n      tag_155\n      jumpi\n      0x00\n      dup1\n      revert\n    tag_155:\n      pop\n      tag_73\n      tag_157\n      calldatasize\n      0x04\n      tag_117\n      jump\t// in\n    tag_157:\n      sub(shl(0xa0, 0x01), 0x01)\n        /* \"contracts/MyB2B.sol\":7321:7339  _balances[account] */\n      and\n        /* \"contracts/MyB2B.sol\":7295:7302  uint256 */\n      0x00\n        /* \"contracts/MyB2B.sol\":7321:7339  _balances[account] */\n      swap1\n      dup2\n      mstore\n        /* \"contracts/MyB2B.sol\":7321:7330  _balances */\n      0x01\n        /* \"contracts/MyB2B.sol\":7321:7339  _balances[account] */\n      0x20\n      mstore\n      0x40\n      swap1\n      keccak256\n      sload\n      swap1\n        /* \"contracts/MyB2B.sol\":7229:7346  function balanceOf(address account) public view override returns (uint256) {... */\n      jump\n        /* \"contracts/MyB2B.sol\":2397:2542  function renounceOwnership() public virtual onlyOwner {... */\n    tag_25:\n      callvalue\n      dup1\n      iszero\n      tag_160\n      jumpi\n      0x00\n      dup1\n      revert\n    tag_160:\n      pop\n      tag_82\n      tag_162\n      jump\t// in\n        /* \"contracts/MyB2B.sol\":22181:22398  function claimContractToken(address token, address to, uint256 amount) external {... */\n    tag_26:\n      callvalue\n      dup1\n      iszero\n      tag_163\n      jumpi\n      0x00\n      dup1\n      revert\n    tag_163:\n      pop\n      tag_82\n      tag_165\n      calldatasize\n      0x04\n      tag_84\n      jump\t// in\n    tag_165:\n      tag_166\n      jump\t// in\n        /* \"contracts/MyB2B.sol\":4275:4307  uint256 public _sellBurnFee = 50 */\n    tag_27:\n      callvalue\n      dup1\n      iszero\n      tag_167\n      jumpi\n      0x00\n      dup1\n      revert\n    tag_167:\n      pop\n      tag_73\n      sload(0x1b)\n      dup2\n      jump\n        /* \"contracts/MyB2B.sol\":19684:19812  function setFundAddress(address addr) external onlyOwner {... */\n    tag_28:\n      callvalue\n      dup1\n      iszero\n      tag_171\n      jumpi\n      0x00\n      dup1\n      revert\n    tag_171:\n      pop\n      tag_82\n      tag_173\n      calldatasize\n      0x04\n      tag_117\n      jump\t// in\n    tag_173:\n      tag_174\n      jump\t// in\n        /* \"contracts/MyB2B.sol\":2220:2297  function owner() public view returns (address) {... */\n    tag_29:\n      callvalue\n      dup1\n      iszero\n      tag_175\n      jumpi\n      0x00\n      dup1\n      revert\n    tag_175:\n      pop\n        /* \"contracts/MyB2B.sol\":2258:2265  address */\n      0x00\n        /* \"contracts/MyB2B.sol\":2284:2290  _owner */\n      sload\n      sub(shl(0xa0, 0x01), 0x01)\n      and\n        /* \"contracts/MyB2B.sol\":2220:2297  function owner() public view returns (address) {... */\n      jump(tag_128)\n        /* \"contracts/MyB2B.sol\":21288:21379  function setTransferFee(uint256 fee) external onlyOwner {... */\n    tag_30:\n      callvalue\n      dup1\n      iszero\n      tag_179\n      jumpi\n      0x00\n      dup1\n      revert\n    tag_179:\n      pop\n      tag_82\n      tag_181\n      calldatasize\n      0x04\n      tag_89\n      jump\t// in\n    tag_181:\n      tag_182\n      jump\t// in\n        /* \"contracts/MyB2B.sol\":6832:6928  function symbol() external view override returns (string memory) {... */\n    tag_31:\n      callvalue\n      dup1\n      iszero\n      tag_183\n      jumpi\n      0x00\n      dup1\n      revert\n    tag_183:\n      pop\n      tag_61\n      tag_185\n      jump\t// in\n        /* \"contracts/MyB2B.sol\":4352:4382  uint256 public startAddLPBlock */\n    tag_32:\n      callvalue\n      dup1\n      iszero\n      tag_187\n      jumpi\n      0x00\n      dup1\n      revert\n    tag_187:\n      pop\n      tag_73\n      sload(0x1d)\n      dup2\n      jump\n        /* \"contracts/MyB2B.sol\":21710:21826  function setSwapPairList(address addr, bool enable) external onlyOwner {... */\n    tag_33:\n      callvalue\n      dup1\n      iszero\n      tag_191\n      jumpi\n      0x00\n      dup1\n      revert\n    tag_191:\n      pop\n      tag_82\n      tag_193\n      calldatasize\n      0x04\n      tag_194\n      jump\t// in\n    tag_193:\n      tag_195\n      jump\t// in\n        /* \"contracts/MyB2B.sol\":7352:7514  function transfer(address recipient, uint256 amount) public override returns (bool) {... */\n    tag_34:\n      callvalue\n      dup1\n      iszero\n      tag_196\n      jumpi\n      0x00\n      dup1\n      revert\n    tag_196:\n      pop\n      tag_66\n      tag_198\n      calldatasize\n      0x04\n      tag_68\n      jump\t// in\n    tag_198:\n      tag_199\n      jump\t// in\n        /* \"contracts/MyB2B.sol\":3921:3957  uint256 public _buyLPDividendFee = 0 */\n    tag_35:\n      callvalue\n      dup1\n      iszero\n      tag_201\n      jumpi\n      0x00\n      dup1\n      revert\n    tag_201:\n      pop\n      tag_73\n      sload(0x12)\n      dup2\n      jump\n        /* \"contracts/MyB2B.sol\":21832:21991  function claimBalance(address to, uint256 amount) external {... */\n    tag_36:\n      callvalue\n      dup1\n      iszero\n      tag_205\n      jumpi\n      0x00\n      dup1\n      revert\n    tag_205:\n      pop\n      tag_82\n      tag_207\n      calldatasize\n      0x04\n      tag_68\n      jump\t// in\n    tag_207:\n      tag_208\n      jump\t// in\n        /* \"contracts/MyB2B.sol\":4199:4228  uint256 public _sellLPFee = 0 */\n    tag_37:\n      callvalue\n      dup1\n      iszero\n      tag_209\n      jumpi\n      0x00\n      dup1\n      revert\n    tag_209:\n      pop\n      tag_73\n      sload(0x19)\n      dup2\n      jump\n        /* \"contracts/MyB2B.sol\":21507:21704  function batchSetFeeWhiteList(address [] memory addr, bool enable) external onlyOwner {... */\n    tag_38:\n      callvalue\n      dup1\n      iszero\n      tag_213\n      jumpi\n      0x00\n      dup1\n      revert\n    tag_213:\n      pop\n      tag_82\n      tag_215\n      calldatasize\n      0x04\n      tag_216\n      jump\t// in\n    tag_215:\n      tag_217\n      jump\t// in\n        /* \"contracts/MyB2B.sol\":4078:4112  uint256 public _sellFundFee2 = 200 */\n    tag_39:\n      callvalue\n      dup1\n      iszero\n      tag_218\n      jumpi\n      0x00\n      dup1\n      revert\n    tag_218:\n      pop\n      tag_73\n      sload(0x16)\n      dup2\n      jump\n        /* \"contracts/MyB2B.sol\":3963:3991  uint256 public _buyLPFee = 0 */\n    tag_40:\n      callvalue\n      dup1\n      iszero\n      tag_222\n      jumpi\n      0x00\n      dup1\n      revert\n    tag_222:\n      pop\n      tag_73\n      sload(0x13)\n      dup2\n      jump\n        /* \"contracts/MyB2B.sol\":20090:20631  function setBuyFee(... */\n    tag_41:\n      callvalue\n      dup1\n      iszero\n      tag_226\n      jumpi\n      0x00\n      dup1\n      revert\n    tag_226:\n      pop\n      tag_82\n      tag_228\n      calldatasize\n      0x04\n      tag_229\n      jump\t// in\n    tag_228:\n      tag_230\n      jump\t// in\n        /* \"contracts/MyB2B.sol\":3845:3878  uint256 public _buyFundFee2 = 200 */\n    tag_42:\n      callvalue\n      dup1\n      iszero\n      tag_231\n      jumpi\n      0x00\n      dup1\n      revert\n    tag_231:\n      pop\n      tag_73\n      sload(0x10)\n      dup2\n      jump\n        /* \"contracts/MyB2B.sol\":25625:25716  function setRemoveLPFee(uint256 fee) external onlyOwner {... */\n    tag_43:\n      callvalue\n      dup1\n      iszero\n      tag_235\n      jumpi\n      0x00\n      dup1\n      revert\n    tag_235:\n      pop\n      tag_82\n      tag_237\n      calldatasize\n      0x04\n      tag_89\n      jump\t// in\n    tag_237:\n      tag_238\n      jump\t// in\n        /* \"contracts/MyB2B.sol\":3806:3839  uint256 public _buyFundFee = 1000 */\n    tag_44:\n      callvalue\n      dup1\n      iszero\n      tag_239\n      jumpi\n      0x00\n      dup1\n      revert\n    tag_239:\n      pop\n      tag_73\n      sload(0x0f)\n      dup2\n      jump\n        /* \"contracts/MyB2B.sol\":4526:4553  uint256 public _limitAmount */\n    tag_45:\n      callvalue\n      dup1\n      iszero\n      tag_243\n      jumpi\n      0x00\n      dup1\n      revert\n    tag_243:\n      pop\n      tag_73\n      sload(0x22)\n      dup2\n      jump\n        /* \"contracts/MyB2B.sol\":21385:21501  function setFeeWhiteList(address addr, bool enable) external onlyOwner {... */\n    tag_46:\n      callvalue\n      dup1\n      iszero\n      tag_247\n      jumpi\n      0x00\n      dup1\n      revert\n    tag_247:\n      pop\n      tag_82\n      tag_249\n      calldatasize\n      0x04\n      tag_194\n      jump\t// in\n    tag_249:\n      tag_250\n      jump\t// in\n        /* \"contracts/MyB2B.sol\":7520:7661  function allowance(address owner, address spender) public view override returns (uint256) {... */\n    tag_47:\n      callvalue\n      dup1\n      iszero\n      tag_251\n      jumpi\n      0x00\n      dup1\n      revert\n    tag_251:\n      pop\n      tag_73\n      tag_253\n      calldatasize\n      0x04\n      tag_254\n      jump\t// in\n    tag_253:\n      sub(shl(0xa0, 0x01), 0x01)\n        /* \"contracts/MyB2B.sol\":7627:7645  _allowances[owner] */\n      swap2\n      dup3\n      and\n        /* \"contracts/MyB2B.sol\":7601:7608  uint256 */\n      0x00\n        /* \"contracts/MyB2B.sol\":7627:7645  _allowances[owner] */\n      swap1\n      dup2\n      mstore\n        /* \"contracts/MyB2B.sol\":7627:7638  _allowances */\n      0x02\n        /* \"contracts/MyB2B.sol\":7627:7645  _allowances[owner] */\n      0x20\n      swap1\n      dup2\n      mstore\n      0x40\n      dup1\n      dup4\n      keccak256\n        /* \"contracts/MyB2B.sol\":7627:7654  _allowances[owner][spender] */\n      swap4\n      swap1\n      swap5\n      and\n      dup3\n      mstore\n      swap2\n      swap1\n      swap2\n      mstore\n      keccak256\n      sload\n      swap1\n        /* \"contracts/MyB2B.sol\":7520:7661  function allowance(address owner, address spender) public view override returns (uint256) {... */\n      jump\n        /* \"contracts/MyB2B.sol\":2548:2755  function transferOwnership(address newOwner) public virtual onlyOwner {... */\n    tag_48:\n      callvalue\n      dup1\n      iszero\n      tag_257\n      jumpi\n      0x00\n      dup1\n      revert\n    tag_257:\n      pop\n      tag_82\n      tag_259\n      calldatasize\n      0x04\n      tag_117\n      jump\t// in\n    tag_259:\n      tag_260\n      jump\t// in\n        /* \"contracts/MyB2B.sol\":4234:4269  uint256 public _sellBurnLPFee = 100 */\n    tag_49:\n      callvalue\n      dup1\n      iszero\n      tag_261\n      jumpi\n      0x00\n      dup1\n      revert\n    tag_261:\n      pop\n      tag_73\n      sload(0x1a)\n      dup2\n      jump\n        /* \"contracts/MyB2B.sol\":4118:4150  uint256 public _sellFundFee3 = 0 */\n    tag_50:\n      callvalue\n      dup1\n      iszero\n      tag_265\n      jumpi\n      0x00\n      dup1\n      revert\n    tag_265:\n      pop\n      tag_73\n      sload(0x17)\n      dup2\n      jump\n        /* \"contracts/MyB2B.sol\":6934:7026  function name() external view override returns (string memory) {... */\n    tag_62:\n        /* \"contracts/MyB2B.sol\":6982:6995  string memory */\n      0x60\n        /* \"contracts/MyB2B.sol\":7014:7019  _name */\n      0x06\n        /* \"contracts/MyB2B.sol\":7007:7019  return _name */\n      dup1\n      sload\n      tag_270\n      swap1\n      tag_271\n      jump\t// in\n    tag_270:\n      dup1\n      0x1f\n      add\n      0x20\n      dup1\n      swap2\n      div\n      mul\n      0x20\n      add\n      mload(0x40)\n      swap1\n      dup2\n      add\n      0x40\n      mstore\n      dup1\n      swap3\n      swap2\n      swap1\n      dup2\n      dup2\n      mstore\n      0x20\n      add\n      dup3\n      dup1\n      sload\n      tag_272\n      swap1\n      tag_271\n      jump\t// in\n    tag_272:\n      dup1\n      iszero\n      tag_273\n      jumpi\n      dup1\n      0x1f\n      lt\n      tag_274\n      jumpi\n      0x0100\n      dup1\n      dup4\n      sload\n      div\n      mul\n      dup4\n      mstore\n      swap2\n      0x20\n      add\n      swap2\n      jump(tag_273)\n    tag_274:\n      dup3\n      add\n      swap2\n      swap1\n      0x00\n      mstore\n      keccak256(0x00, 0x20)\n      swap1\n    tag_275:\n      dup2\n      sload\n      dup2\n      mstore\n      swap1\n      0x01\n      add\n      swap1\n      0x20\n      add\n      dup1\n      dup4\n      gt\n      tag_275\n      jumpi\n      dup3\n      swap1\n      sub\n      0x1f\n      and\n      dup3\n      add\n      swap2\n    tag_273:\n      pop\n      pop\n      pop\n      pop\n      pop\n      swap1\n      pop\n        /* \"contracts/MyB2B.sol\":6934:7026  function name() external view override returns (string memory) {... */\n      swap1\n      jump\t// out\n        /* \"contracts/MyB2B.sol\":7667:7823  function approve(address spender, uint256 amount) public override returns (bool) {... */\n    tag_69:\n        /* \"contracts/MyB2B.sol\":7742:7746  bool */\n      0x00\n        /* \"contracts/MyB2B.sol\":7758:7795  _approve(msg.sender, spender, amount) */\n      tag_277\n        /* \"contracts/MyB2B.sol\":7767:7777  msg.sender */\n      caller\n        /* \"contracts/MyB2B.sol\":7779:7786  spender */\n      dup5\n        /* \"contracts/MyB2B.sol\":7788:7794  amount */\n      dup5\n        /* \"contracts/MyB2B.sol\":7758:7766  _approve */\n      tag_278\n        /* \"contracts/MyB2B.sol\":7758:7795  _approve(msg.sender, spender, amount) */\n      jump\t// in\n    tag_277:\n      pop\n        /* \"contracts/MyB2B.sol\":7812:7816  true */\n      0x01\n        /* \"contracts/MyB2B.sol\":7667:7823  function approve(address spender, uint256 amount) public override returns (bool) {... */\n    tag_276:\n      swap3\n      swap2\n      pop\n      pop\n      jump\t// out\n        /* \"contracts/MyB2B.sol\":21997:22175  function claimToken(address token, address to, uint256 amount) external {... */\n    tag_85:\n        /* \"contracts/MyB2B.sol\":22097:22107  msg.sender */\n      caller\n        /* \"contracts/MyB2B.sol\":22083:22108  _feeWhiteList[msg.sender] */\n      0x00\n      swap1\n      dup2\n      mstore\n        /* \"contracts/MyB2B.sol\":22083:22096  _feeWhiteList */\n      0x09\n        /* \"contracts/MyB2B.sol\":22083:22108  _feeWhiteList[msg.sender] */\n      0x20\n      mstore\n      0x40\n      swap1\n      keccak256\n      sload\n      0xff\n      and\n        /* \"contracts/MyB2B.sol\":22079:22169  if (_feeWhiteList[msg.sender]) {... */\n      iszero\n      tag_280\n      jumpi\n        /* \"contracts/MyB2B.sol\":22124:22158  IERC20(token).transfer(to, amount) */\n      mload(0x40)\n      shl(0xe0, 0xa9059cbb)\n      dup2\n      mstore\n      sub(shl(0xa0, 0x01), 0x01)\n        /* \"#utility.yul\":6355:6387   */\n      dup4\n      dup2\n      and\n        /* \"contracts/MyB2B.sol\":22124:22158  IERC20(token).transfer(to, amount) */\n      0x04\n      dup4\n      add\n        /* \"#utility.yul\":6337:6388   */\n      mstore\n        /* \"#utility.yul\":6404:6422   */\n      0x24\n      dup3\n      add\n        /* \"#utility.yul\":6397:6431   */\n      dup4\n      swap1\n      mstore\n        /* \"contracts/MyB2B.sol\":22124:22146  IERC20(token).transfer */\n      dup5\n      and\n      swap1\n      0xa9059cbb\n      swap1\n        /* \"#utility.yul\":6310:6328   */\n      0x44\n      add\n        /* \"contracts/MyB2B.sol\":22124:22158  IERC20(token).transfer(to, amount) */\n      0x20\n      mload(0x40)\n      dup1\n      dup4\n      sub\n      dup2\n      0x00\n      dup8\n      gas\n      call\n      iszero\n      dup1\n      iszero\n      tag_284\n      jumpi\n      returndatasize\n      0x00\n      dup1\n      returndatacopy\n      revert(0x00, returndatasize)\n    tag_284:\n      pop\n      pop\n      pop\n      pop\n      mload(0x40)\n      returndatasize\n      not(0x1f)\n      0x1f\n      dup3\n      add\n      and\n      dup3\n      add\n      dup1\n      0x40\n      mstore\n      pop\n      dup2\n      add\n      swap1\n      tag_285\n      swap2\n      swap1\n      tag_286\n      jump\t// in\n    tag_285:\n      pop\n        /* \"contracts/MyB2B.sol\":22079:22169  if (_feeWhiteList[msg.sender]) {... */\n    tag_280:\n        /* \"contracts/MyB2B.sol\":21997:22175  function claimToken(address token, address to, uint256 amount) external {... */\n      pop\n      pop\n      pop\n      jump\t// out\n        /* \"contracts/MyB2B.sol\":25722:25807  function setAddLPFee(uint256 fee) external onlyOwner {... */\n    tag_90:\n        /* \"contracts/MyB2B.sol\":2342:2348  _owner */\n      and(sub(shl(0xa0, 0x01), 0x01), sload(0x00))\n        /* \"contracts/MyB2B.sol\":2352:2362  msg.sender */\n      caller\n        /* \"contracts/MyB2B.sol\":2342:2362  _owner == msg.sender */\n      eq\n        /* \"contracts/MyB2B.sol\":2334:2373  require(_owner == msg.sender, \"!owner\") */\n      tag_288\n      jumpi\n      mload(0x40)\n      shl(0xe5, 0x461bcd)\n      dup2\n      mstore\n      0x04\n      add\n      tag_289\n      swap1\n      tag_290\n      jump\t// in\n    tag_289:\n      mload(0x40)\n      dup1\n      swap2\n      sub\n      swap1\n      revert\n    tag_288:\n        /* \"contracts/MyB2B.sol\":25785:25794  _addLPFee */\n      0x21\n        /* \"contracts/MyB2B.sol\":25785:25800  _addLPFee = fee */\n      sstore\n        /* \"contracts/MyB2B.sol\":25722:25807  function setAddLPFee(uint256 fee) external onlyOwner {... */\n      jump\t// out\n        /* \"contracts/MyB2B.sol\":20637:21282  function setSellFee(... */\n    tag_99:\n        /* \"contracts/MyB2B.sol\":2342:2348  _owner */\n      and(sub(shl(0xa0, 0x01), 0x01), sload(0x00))\n        /* \"contracts/MyB2B.sol\":2352:2362  msg.sender */\n      caller\n        /* \"contracts/MyB2B.sol\":2342:2362  _owner == msg.sender */\n      eq\n        /* \"contracts/MyB2B.sol\":2334:2373  require(_owner == msg.sender, \"!owner\") */\n      tag_294\n      jumpi\n      mload(0x40)\n      shl(0xe5, 0x461bcd)\n      dup2\n      mstore\n      0x04\n      add\n      tag_289\n      swap1\n      tag_290\n      jump\t// in\n    tag_294:\n        /* \"contracts/MyB2B.sol\":20839:20860  uint256 totalSellFees */\n      0x00\n        /* \"contracts/MyB2B.sol\":20943:20950  burnFee */\n      dup2\n        /* \"contracts/MyB2B.sol\":20931:20940  burnLPFee */\n      dup4\n        /* \"contracts/MyB2B.sol\":20923:20928  lpFee */\n      dup6\n        /* \"contracts/MyB2B.sol\":20907:20920  lpDividendFee */\n      dup8\n        /* \"contracts/MyB2B.sol\":20892:20904  sellFundFee3 */\n      dup10\n        /* \"contracts/MyB2B.sol\":20863:20889  sellFundFee + sellFundFee2 */\n      tag_297\n        /* \"contracts/MyB2B.sol\":20877:20889  sellFundFee2 */\n      dup13\n        /* \"contracts/MyB2B.sol\":20863:20874  sellFundFee */\n      dup15\n        /* \"contracts/MyB2B.sol\":20863:20889  sellFundFee + sellFundFee2 */\n      tag_298\n      jump\t// in\n    tag_297:\n        /* \"contracts/MyB2B.sol\":20863:20904  sellFundFee + sellFundFee2 + sellFundFee3 */\n      tag_299\n      swap2\n      swap1\n      tag_298\n      jump\t// in\n    tag_299:\n        /* \"contracts/MyB2B.sol\":20863:20920  sellFundFee + sellFundFee2 + sellFundFee3 + lpDividendFee */\n      tag_300\n      swap2\n      swap1\n      tag_298\n      jump\t// in\n    tag_300:\n        /* \"contracts/MyB2B.sol\":20863:20928  sellFundFee + sellFundFee2 + sellFundFee3 + lpDividendFee + lpFee */\n      tag_301\n      swap2\n      swap1\n      tag_298\n      jump\t// in\n    tag_301:\n        /* \"contracts/MyB2B.sol\":20863:20940  sellFundFee + sellFundFee2 + sellFundFee3 + lpDividendFee + lpFee + burnLPFee */\n      tag_302\n      swap2\n      swap1\n      tag_298\n      jump\t// in\n    tag_302:\n        /* \"contracts/MyB2B.sol\":20863:20950  sellFundFee + sellFundFee2 + sellFundFee3 + lpDividendFee + lpFee + burnLPFee + burnFee */\n      tag_303\n      swap2\n      swap1\n      tag_298\n      jump\t// in\n    tag_303:\n        /* \"contracts/MyB2B.sol\":20839:20950  uint256 totalSellFees = sellFundFee + sellFundFee2 + sellFundFee3 + lpDividendFee + lpFee + burnLPFee + burnFee */\n      swap1\n      pop\n        /* \"contracts/MyB2B.sol\":20995:20997  25 */\n      0x19\n        /* \"contracts/MyB2B.sol\":20969:20990  totalSellFees / 10000 */\n      tag_304\n        /* \"contracts/MyB2B.sol\":20985:20990  10000 */\n      0x2710\n        /* \"contracts/MyB2B.sol\":20839:20950  uint256 totalSellFees = sellFundFee + sellFundFee2 + sellFundFee3 + lpDividendFee + lpFee + burnLPFee + burnFee */\n      dup4\n        /* \"contracts/MyB2B.sol\":20969:20990  totalSellFees / 10000 */\n      tag_305\n      jump\t// in\n    tag_304:\n        /* \"contracts/MyB2B.sol\":20968:20997  (totalSellFees / 10000) <= 25 */\n      gt\n      iszero\n        /* \"contracts/MyB2B.sol\":20960:21022  require((totalSellFees / 10000) <= 25, \"Fees Limit exceeded.\") */\n      tag_306\n      jumpi\n      mload(0x40)\n      shl(0xe5, 0x461bcd)\n      dup2\n      mstore\n        /* \"#utility.yul\":7712:7714   */\n      0x20\n        /* \"contracts/MyB2B.sol\":20960:21022  require((totalSellFees / 10000) <= 25, \"Fees Limit exceeded.\") */\n      0x04\n      dup3\n      add\n        /* \"#utility.yul\":7694:7715   */\n      mstore\n        /* \"#utility.yul\":7751:7753   */\n      0x14\n        /* \"#utility.yul\":7731:7749   */\n      0x24\n      dup3\n      add\n        /* \"#utility.yul\":7724:7754   */\n      mstore\n      shl(0x61, 0x2332b2b9902634b6b4ba1032bc31b2b2b232b217)\n        /* \"#utility.yul\":7770:7788   */\n      0x44\n      dup3\n      add\n        /* \"#utility.yul\":7763:7813   */\n      mstore\n        /* \"#utility.yul\":7830:7848   */\n      0x64\n      add\n        /* \"contracts/MyB2B.sol\":20960:21022  require((totalSellFees / 10000) <= 25, \"Fees Limit exceeded.\") */\n      tag_289\n        /* \"#utility.yul\":7510:7854   */\n      jump\n        /* \"contracts/MyB2B.sol\":20960:21022  require((totalSellFees / 10000) <= 25, \"Fees Limit exceeded.\") */\n    tag_306:\n      pop\n        /* \"contracts/MyB2B.sol\":21033:21045  _sellFundFee */\n      0x15\n        /* \"contracts/MyB2B.sol\":21033:21059  _sellFundFee = sellFundFee */\n      swap7\n      swap1\n      swap7\n      sstore\n        /* \"contracts/MyB2B.sol\":21069:21082  _sellFundFee2 */\n      0x16\n        /* \"contracts/MyB2B.sol\":21069:21097  _sellFundFee2 = sellFundFee2 */\n      swap5\n      swap1\n      swap5\n      sstore\n        /* \"contracts/MyB2B.sol\":21107:21120  _sellFundFee3 */\n      0x17\n        /* \"contracts/MyB2B.sol\":21107:21135  _sellFundFee3 = sellFundFee3 */\n      swap3\n      swap1\n      swap3\n      sstore\n        /* \"contracts/MyB2B.sol\":21145:21163  _sellLPDividendFee */\n      0x18\n        /* \"contracts/MyB2B.sol\":21145:21179  _sellLPDividendFee = lpDividendFee */\n      sstore\n        /* \"contracts/MyB2B.sol\":21189:21199  _sellLPFee */\n      0x19\n        /* \"contracts/MyB2B.sol\":21189:21207  _sellLPFee = lpFee */\n      sstore\n        /* \"contracts/MyB2B.sol\":21217:21229  _sellBurnFee */\n      0x1b\n        /* \"contracts/MyB2B.sol\":21217:21239  _sellBurnFee = burnFee */\n      swap2\n      swap1\n      swap2\n      sstore\n        /* \"contracts/MyB2B.sol\":21249:21263  _sellBurnLPFee */\n      0x1a\n        /* \"contracts/MyB2B.sol\":21249:21275  _sellBurnLPFee = burnLPFee */\n      sstore\n        /* \"contracts/MyB2B.sol\":20637:21282  function setSellFee(... */\n      jump\t// out\n        /* \"contracts/MyB2B.sol\":25957:26054  function setLimitAmount(uint256 amount) external onlyOwner {... */\n    tag_103:\n        /* \"contracts/MyB2B.sol\":2342:2348  _owner */\n      and(sub(shl(0xa0, 0x01), 0x01), sload(0x00))\n        /* \"contracts/MyB2B.sol\":2352:2362  msg.sender */\n      caller\n        /* \"contracts/MyB2B.sol\":2342:2362  _owner == msg.sender */\n      eq\n        /* \"contracts/MyB2B.sol\":2334:2373  require(_owner == msg.sender, \"!owner\") */\n      tag_310\n      jumpi\n      mload(0x40)\n      shl(0xe5, 0x461bcd)\n      dup2\n      mstore\n      0x04\n      add\n      tag_289\n      swap1\n      tag_290\n      jump\t// in\n    tag_310:\n        /* \"contracts/MyB2B.sol\":26026:26038  _limitAmount */\n      0x22\n        /* \"contracts/MyB2B.sol\":26026:26047  _limitAmount = amount */\n      sstore\n        /* \"contracts/MyB2B.sol\":25957:26054  function setLimitAmount(uint256 amount) external onlyOwner {... */\n      jump\t// out\n        /* \"contracts/MyB2B.sol\":7829:8159  function transferFrom(address sender, address recipient, uint256 amount) public override returns (bool) {... */\n    tag_107:\n        /* \"contracts/MyB2B.sol\":7927:7931  bool */\n      0x00\n        /* \"contracts/MyB2B.sol\":7943:7979  _transfer(sender, recipient, amount) */\n      tag_314\n        /* \"contracts/MyB2B.sol\":7953:7959  sender */\n      dup5\n        /* \"contracts/MyB2B.sol\":7961:7970  recipient */\n      dup5\n        /* \"contracts/MyB2B.sol\":7972:7978  amount */\n      dup5\n        /* \"contracts/MyB2B.sol\":7943:7952  _transfer */\n      tag_315\n        /* \"contracts/MyB2B.sol\":7943:7979  _transfer(sender, recipient, amount) */\n      jump\t// in\n    tag_314:\n      sub(shl(0xa0, 0x01), 0x01)\n        /* \"contracts/MyB2B.sol\":7993:8012  _allowances[sender] */\n      dup5\n      and\n        /* \"contracts/MyB2B.sol\":3749:3750  0 */\n      0x00\n        /* \"contracts/MyB2B.sol\":7993:8012  _allowances[sender] */\n      swap1\n      dup2\n      mstore\n        /* \"contracts/MyB2B.sol\":7993:8004  _allowances */\n      0x02\n        /* \"contracts/MyB2B.sol\":7993:8012  _allowances[sender] */\n      0x20\n      swap1\n      dup2\n      mstore\n      0x40\n      dup1\n      dup4\n      keccak256\n        /* \"contracts/MyB2B.sol\":8013:8023  msg.sender */\n      caller\n        /* \"contracts/MyB2B.sol\":7993:8024  _allowances[sender][msg.sender] */\n      dup5\n      mstore\n      swap1\n      swap2\n      mstore\n      swap1\n      keccak256\n      sload\n      not(0x00)\n        /* \"contracts/MyB2B.sol\":7993:8031  _allowances[sender][msg.sender] != MAX */\n      eq\n        /* \"contracts/MyB2B.sol\":7989:8132  if (_allowances[sender][msg.sender] != MAX) {... */\n      tag_316\n      jumpi\n      sub(shl(0xa0, 0x01), 0x01)\n        /* \"contracts/MyB2B.sol\":8081:8100  _allowances[sender] */\n      dup5\n      and\n      0x00\n      swap1\n      dup2\n      mstore\n        /* \"contracts/MyB2B.sol\":8081:8092  _allowances */\n      0x02\n        /* \"contracts/MyB2B.sol\":8081:8100  _allowances[sender] */\n      0x20\n      swap1\n      dup2\n      mstore\n      0x40\n      dup1\n      dup4\n      keccak256\n        /* \"contracts/MyB2B.sol\":8101:8111  msg.sender */\n      caller\n        /* \"contracts/MyB2B.sol\":8081:8112  _allowances[sender][msg.sender] */\n      dup5\n      mstore\n      swap1\n      swap2\n      mstore\n      swap1\n      keccak256\n      sload\n        /* \"contracts/MyB2B.sol\":8081:8121  _allowances[sender][msg.sender] - amount */\n      tag_317\n      swap1\n        /* \"contracts/MyB2B.sol\":8115:8121  amount */\n      dup4\n      swap1\n        /* \"contracts/MyB2B.sol\":8081:8121  _allowances[sender][msg.sender] - amount */\n      tag_318\n      jump\t// in\n    tag_317:\n      sub(shl(0xa0, 0x01), 0x01)\n        /* \"contracts/MyB2B.sol\":8047:8066  _allowances[sender] */\n      dup6\n      and\n      0x00\n      swap1\n      dup2\n      mstore\n        /* \"contracts/MyB2B.sol\":8047:8058  _allowances */\n      0x02\n        /* \"contracts/MyB2B.sol\":8047:8066  _allowances[sender] */\n      0x20\n      swap1\n      dup2\n      mstore\n      0x40\n      dup1\n      dup4\n      keccak256\n        /* \"contracts/MyB2B.sol\":8067:8077  msg.sender */\n      caller\n        /* \"contracts/MyB2B.sol\":8047:8078  _allowances[sender][msg.sender] */\n      dup5\n      mstore\n      swap1\n      swap2\n      mstore\n      swap1\n      keccak256\n        /* \"contracts/MyB2B.sol\":8047:8121  _allowances[sender][msg.sender] = _allowances[sender][msg.sender] - amount */\n      sstore\n        /* \"contracts/MyB2B.sol\":7989:8132  if (_allowances[sender][msg.sender] != MAX) {... */\n    tag_316:\n      pop\n        /* \"contracts/MyB2B.sol\":8148:8152  true */\n      0x01\n        /* \"contracts/MyB2B.sol\":7829:8159  function transferFrom(address sender, address recipient, uint256 amount) public override returns (bool) {... */\n      swap4\n      swap3\n      pop\n      pop\n      pop\n      jump\t// out\n        /* \"contracts/MyB2B.sol\":19954:20084  function setFundAddress3(address addr) external onlyOwner {... */\n    tag_118:\n        /* \"contracts/MyB2B.sol\":2342:2348  _owner */\n      and(sub(shl(0xa0, 0x01), 0x01), sload(0x00))\n        /* \"contracts/MyB2B.sol\":2352:2362  msg.sender */\n      caller\n        /* \"contracts/MyB2B.sol\":2342:2362  _owner == msg.sender */\n      eq\n        /* \"contracts/MyB2B.sol\":2334:2373  require(_owner == msg.sender, \"!owner\") */\n      tag_321\n      jumpi\n      mload(0x40)\n      shl(0xe5, 0x461bcd)\n      dup2\n      mstore\n      0x04\n      add\n      tag_289\n      swap1\n      tag_290\n      jump\t// in\n    tag_321:\n        /* \"contracts/MyB2B.sol\":20022:20034  fundAddress3 */\n      0x05\n        /* \"contracts/MyB2B.sol\":20022:20041  fundAddress3 = addr */\n      dup1\n      sload\n      sub(shl(0xa0, 0x01), 0x01)\n      swap1\n      swap3\n      and\n      not(sub(shl(0xa0, 0x01), 0x01))\n      swap1\n      swap3\n      and\n      dup3\n      or\n      swap1\n      sstore\n        /* \"contracts/MyB2B.sol\":20022:20034  fundAddress3 */\n      0x00\n        /* \"contracts/MyB2B.sol\":20051:20070  _feeWhiteList[addr] */\n      swap1\n      dup2\n      mstore\n        /* \"contracts/MyB2B.sol\":20051:20064  _feeWhiteList */\n      0x09\n        /* \"contracts/MyB2B.sol\":20051:20070  _feeWhiteList[addr] */\n      0x20\n      mstore\n      0x40\n      swap1\n      keccak256\n        /* \"contracts/MyB2B.sol\":20051:20077  _feeWhiteList[addr] = true */\n      dup1\n      sload\n      not(0xff)\n      and\n        /* \"contracts/MyB2B.sol\":20022:20041  fundAddress3 = addr */\n      0x01\n        /* \"contracts/MyB2B.sol\":20051:20077  _feeWhiteList[addr] = true */\n      or\n      swap1\n      sstore\n        /* \"contracts/MyB2B.sol\":19954:20084  function setFundAddress3(address addr) external onlyOwner {... */\n      jump\t// out\n        /* \"contracts/MyB2B.sol\":19818:19948  function setFundAddress2(address addr) external onlyOwner {... */\n    tag_135:\n        /* \"contracts/MyB2B.sol\":2342:2348  _owner */\n      and(sub(shl(0xa0, 0x01), 0x01), sload(0x00))\n        /* \"contracts/MyB2B.sol\":2352:2362  msg.sender */\n      caller\n        /* \"contracts/MyB2B.sol\":2342:2362  _owner == msg.sender */\n      eq\n        /* \"contracts/MyB2B.sol\":2334:2373  require(_owner == msg.sender, \"!owner\") */\n      tag_325\n      jumpi\n      mload(0x40)\n      shl(0xe5, 0x461bcd)\n      dup2\n      mstore\n      0x04\n      add\n      tag_289\n      swap1\n      tag_290\n      jump\t// in\n    tag_325:\n        /* \"contracts/MyB2B.sol\":19886:19898  fundAddress2 */\n      0x04\n        /* \"contracts/MyB2B.sol\":19886:19905  fundAddress2 = addr */\n      dup1\n      sload\n      sub(shl(0xa0, 0x01), 0x01)\n      swap1\n      swap3\n      and\n      not(sub(shl(0xa0, 0x01), 0x01))\n      swap1\n      swap3\n      and\n      dup3\n      or\n      swap1\n      sstore\n        /* \"contracts/MyB2B.sol\":19886:19898  fundAddress2 */\n      0x00\n        /* \"contracts/MyB2B.sol\":19915:19934  _feeWhiteList[addr] */\n      swap1\n      dup2\n      mstore\n        /* \"contracts/MyB2B.sol\":19915:19928  _feeWhiteList */\n      0x09\n        /* \"contracts/MyB2B.sol\":19915:19934  _feeWhiteList[addr] */\n      0x20\n      mstore\n      0x40\n      swap1\n      keccak256\n        /* \"contracts/MyB2B.sol\":19915:19941  _feeWhiteList[addr] = true */\n      dup1\n      sload\n      not(0xff)\n      and\n        /* \"contracts/MyB2B.sol\":19886:19905  fundAddress2 = addr */\n      0x01\n        /* \"contracts/MyB2B.sol\":19915:19941  _feeWhiteList[addr] = true */\n      or\n      swap1\n      sstore\n        /* \"contracts/MyB2B.sol\":19818:19948  function setFundAddress2(address addr) external onlyOwner {... */\n      jump\t// out\n        /* \"contracts/MyB2B.sol\":25813:25951  function startTrade() external onlyOwner {... */\n    tag_154:\n        /* \"contracts/MyB2B.sol\":2342:2348  _owner */\n      and(sub(shl(0xa0, 0x01), 0x01), sload(0x00))\n        /* \"contracts/MyB2B.sol\":2352:2362  msg.sender */\n      caller\n        /* \"contracts/MyB2B.sol\":2342:2362  _owner == msg.sender */\n      eq\n        /* \"contracts/MyB2B.sol\":2334:2373  require(_owner == msg.sender, \"!owner\") */\n      tag_329\n      jumpi\n      mload(0x40)\n      shl(0xe5, 0x461bcd)\n      dup2\n      mstore\n      0x04\n      add\n      tag_289\n      swap1\n      tag_290\n      jump\t// in\n    tag_329:\n        /* \"contracts/MyB2B.sol\":25877:25892  startTradeBlock */\n      sload(0x1e)\n        /* \"contracts/MyB2B.sol\":25872:25892  0 == startTradeBlock */\n      iszero\n        /* \"contracts/MyB2B.sol\":25864:25904  require(0 == startTradeBlock, \"trading\") */\n      tag_332\n      jumpi\n      mload(0x40)\n      shl(0xe5, 0x461bcd)\n      dup2\n      mstore\n        /* \"#utility.yul\":8194:8196   */\n      0x20\n        /* \"contracts/MyB2B.sol\":25864:25904  require(0 == startTradeBlock, \"trading\") */\n      0x04\n      dup3\n      add\n        /* \"#utility.yul\":8176:8197   */\n      mstore\n        /* \"#utility.yul\":8233:8234   */\n      0x07\n        /* \"#utility.yul\":8213:8231   */\n      0x24\n      dup3\n      add\n        /* \"#utility.yul\":8206:8235   */\n      mstore\n      shl(0xc8, 0x74726164696e67)\n        /* \"#utility.yul\":8251:8269   */\n      0x44\n      dup3\n      add\n        /* \"#utility.yul\":8244:8281   */\n      mstore\n        /* \"#utility.yul\":8298:8316   */\n      0x64\n      add\n        /* \"contracts/MyB2B.sol\":25864:25904  require(0 == startTradeBlock, \"trading\") */\n      tag_289\n        /* \"#utility.yul\":7992:8322   */\n      jump\n        /* \"contracts/MyB2B.sol\":25864:25904  require(0 == startTradeBlock, \"trading\") */\n    tag_332:\n        /* \"contracts/MyB2B.sol\":25932:25944  block.number */\n      number\n        /* \"contracts/MyB2B.sol\":25914:25929  startTradeBlock */\n      0x1e\n        /* \"contracts/MyB2B.sol\":25914:25944  startTradeBlock = block.number */\n      sstore\n        /* \"contracts/MyB2B.sol\":25813:25951  function startTrade() external onlyOwner {... */\n      jump\t// out\n        /* \"contracts/MyB2B.sol\":2397:2542  function renounceOwnership() public virtual onlyOwner {... */\n    tag_162:\n        /* \"contracts/MyB2B.sol\":2342:2348  _owner */\n      and(sub(shl(0xa0, 0x01), 0x01), sload(0x00))\n        /* \"contracts/MyB2B.sol\":2352:2362  msg.sender */\n      caller\n        /* \"contracts/MyB2B.sol\":2342:2362  _owner == msg.sender */\n      eq\n        /* \"contracts/MyB2B.sol\":2334:2373  require(_owner == msg.sender, \"!owner\") */\n      tag_337\n      jumpi\n      mload(0x40)\n      shl(0xe5, 0x461bcd)\n      dup2\n      mstore\n      0x04\n      add\n      tag_289\n      swap1\n      tag_290\n      jump\t// in\n    tag_337:\n        /* \"contracts/MyB2B.sol\":2503:2504  0 */\n      0x00\n        /* \"contracts/MyB2B.sol\":2487:2493  _owner */\n      dup1\n      sload\n        /* \"contracts/MyB2B.sol\":2466:2506  OwnershipTransferred(_owner, address(0)) */\n      mload(0x40)\n      sub(shl(0xa0, 0x01), 0x01)\n        /* \"contracts/MyB2B.sol\":2487:2493  _owner */\n      swap1\n      swap2\n      and\n      swap1\n        /* \"contracts/MyB2B.sol\":2466:2506  OwnershipTransferred(_owner, address(0)) */\n      0x8be0079c531659141344cd1fd0a4f28419497f9722a3daafe3b4186f6b6457e0\n      swap1\n        /* \"contracts/MyB2B.sol\":2503:2504  0 */\n      dup4\n      swap1\n        /* \"contracts/MyB2B.sol\":2466:2506  OwnershipTransferred(_owner, address(0)) */\n      log3\n        /* \"contracts/MyB2B.sol\":2533:2534  0 */\n      0x00\n        /* \"contracts/MyB2B.sol\":2516:2535  _owner = address(0) */\n      dup1\n      sload\n      not(sub(shl(0xa0, 0x01), 0x01))\n      and\n      swap1\n      sstore\n        /* \"contracts/MyB2B.sol\":2397:2542  function renounceOwnership() public virtual onlyOwner {... */\n      jump\t// out\n        /* \"contracts/MyB2B.sol\":22181:22398  function claimContractToken(address token, address to, uint256 amount) external {... */\n    tag_166:\n        /* \"contracts/MyB2B.sol\":22289:22299  msg.sender */\n      caller\n        /* \"contracts/MyB2B.sol\":22275:22300  _feeWhiteList[msg.sender] */\n      0x00\n      swap1\n      dup2\n      mstore\n        /* \"contracts/MyB2B.sol\":22275:22288  _feeWhiteList */\n      0x09\n        /* \"contracts/MyB2B.sol\":22275:22300  _feeWhiteList[msg.sender] */\n      0x20\n      mstore\n      0x40\n      swap1\n      keccak256\n      sload\n      0xff\n      and\n        /* \"contracts/MyB2B.sol\":22271:22392  if (_feeWhiteList[msg.sender]) {... */\n      iszero\n      tag_280\n      jumpi\n        /* \"contracts/MyB2B.sol\":22333:22350  _tokenDistributor */\n      sload(0x0e)\n        /* \"contracts/MyB2B.sol\":22316:22381  TokenDistributor(_tokenDistributor).claimToken(token, to, amount) */\n      mload(0x40)\n      shl(0xe1, 0x092dfdb3)\n      dup2\n      mstore\n      sub(shl(0xa0, 0x01), 0x01)\n        /* \"#utility.yul\":8585:8600   */\n      dup6\n      dup2\n      and\n        /* \"contracts/MyB2B.sol\":22316:22381  TokenDistributor(_tokenDistributor).claimToken(token, to, amount) */\n      0x04\n      dup4\n      add\n        /* \"#utility.yul\":8567:8601   */\n      mstore\n        /* \"#utility.yul\":8637:8652   */\n      dup5\n      dup2\n      and\n        /* \"#utility.yul\":8617:8635   */\n      0x24\n      dup4\n      add\n        /* \"#utility.yul\":8610:8653   */\n      mstore\n        /* \"#utility.yul\":8669:8687   */\n      0x44\n      dup3\n      add\n        /* \"#utility.yul\":8662:8696   */\n      dup5\n      swap1\n      mstore\n        /* \"contracts/MyB2B.sol\":22333:22350  _tokenDistributor */\n      0x0100\n      swap1\n      swap3\n      div\n      swap1\n      swap2\n      and\n      swap1\n        /* \"contracts/MyB2B.sol\":22316:22362  TokenDistributor(_tokenDistributor).claimToken */\n      0x125bfb66\n      swap1\n        /* \"#utility.yul\":8502:8520   */\n      0x64\n      add\n        /* \"contracts/MyB2B.sol\":22316:22381  TokenDistributor(_tokenDistributor).claimToken(token, to, amount) */\n      0x00\n      mload(0x40)\n      dup1\n      dup4\n      sub\n      dup2\n      0x00\n      dup8\n      dup1\n      extcodesize\n      iszero\n      dup1\n      iszero\n      tag_344\n      jumpi\n      0x00\n      dup1\n      revert\n    tag_344:\n      pop\n      gas\n      call\n      iszero\n      dup1\n      iszero\n      tag_346\n      jumpi\n      returndatasize\n      0x00\n      dup1\n      returndatacopy\n      revert(0x00, returndatasize)\n    tag_346:\n      pop\n      pop\n      pop\n      pop\n        /* \"contracts/MyB2B.sol\":22181:22398  function claimContractToken(address token, address to, uint256 amount) external {... */\n      pop\n      pop\n      pop\n      jump\t// out\n        /* \"contracts/MyB2B.sol\":19684:19812  function setFundAddress(address addr) external onlyOwner {... */\n    tag_174:\n        /* \"contracts/MyB2B.sol\":2342:2348  _owner */\n      and(sub(shl(0xa0, 0x01), 0x01), sload(0x00))\n        /* \"contracts/MyB2B.sol\":2352:2362  msg.sender */\n      caller\n        /* \"contracts/MyB2B.sol\":2342:2362  _owner == msg.sender */\n      eq\n        /* \"contracts/MyB2B.sol\":2334:2373  require(_owner == msg.sender, \"!owner\") */\n      tag_348\n      jumpi\n      mload(0x40)\n      shl(0xe5, 0x461bcd)\n      dup2\n      mstore\n      0x04\n      add\n      tag_289\n      swap1\n      tag_290\n      jump\t// in\n    tag_348:\n        /* \"contracts/MyB2B.sol\":19751:19762  fundAddress */\n      0x03\n        /* \"contracts/MyB2B.sol\":19751:19769  fundAddress = addr */\n      dup1\n      sload\n      sub(shl(0xa0, 0x01), 0x01)\n      swap1\n      swap3\n      and\n      not(sub(shl(0xa0, 0x01), 0x01))\n      swap1\n      swap3\n      and\n      dup3\n      or\n      swap1\n      sstore\n        /* \"contracts/MyB2B.sol\":19751:19762  fundAddress */\n      0x00\n        /* \"contracts/MyB2B.sol\":19779:19798  _feeWhiteList[addr] */\n      swap1\n      dup2\n      mstore\n        /* \"contracts/MyB2B.sol\":19779:19792  _feeWhiteList */\n      0x09\n        /* \"contracts/MyB2B.sol\":19779:19798  _feeWhiteList[addr] */\n      0x20\n      mstore\n      0x40\n      swap1\n      keccak256\n        /* \"contracts/MyB2B.sol\":19779:19805  _feeWhiteList[addr] = true */\n      dup1\n      sload\n      not(0xff)\n      and\n        /* \"contracts/MyB2B.sol\":19751:19769  fundAddress = addr */\n      0x01\n        /* \"contracts/MyB2B.sol\":19779:19805  _feeWhiteList[addr] = true */\n      or\n      swap1\n      sstore\n        /* \"contracts/MyB2B.sol\":19684:19812  function setFundAddress(address addr) external onlyOwner {... */\n      jump\t// out\n        /* \"contracts/MyB2B.sol\":21288:21379  function setTransferFee(uint256 fee) external onlyOwner {... */\n    tag_182:\n        /* \"contracts/MyB2B.sol\":2342:2348  _owner */\n      and(sub(shl(0xa0, 0x01), 0x01), sload(0x00))\n        /* \"contracts/MyB2B.sol\":2352:2362  msg.sender */\n      caller\n        /* \"contracts/MyB2B.sol\":2342:2362  _owner == msg.sender */\n      eq\n        /* \"contracts/MyB2B.sol\":2334:2373  require(_owner == msg.sender, \"!owner\") */\n      tag_353\n      jumpi\n      mload(0x40)\n      shl(0xe5, 0x461bcd)\n      dup2\n      mstore\n      0x04\n      add\n      tag_289\n      swap1\n      tag_290\n      jump\t// in\n    tag_353:\n        /* \"contracts/MyB2B.sol\":21354:21366  _transferFee */\n      0x1c\n        /* \"contracts/MyB2B.sol\":21354:21372  _transferFee = fee */\n      sstore\n        /* \"contracts/MyB2B.sol\":21288:21379  function setTransferFee(uint256 fee) external onlyOwner {... */\n      jump\t// out\n        /* \"contracts/MyB2B.sol\":6832:6928  function symbol() external view override returns (string memory) {... */\n    tag_185:\n        /* \"contracts/MyB2B.sol\":6882:6895  string memory */\n      0x60\n        /* \"contracts/MyB2B.sol\":6914:6921  _symbol */\n      0x07\n        /* \"contracts/MyB2B.sol\":6907:6921  return _symbol */\n      dup1\n      sload\n      tag_270\n      swap1\n      tag_271\n      jump\t// in\n        /* \"contracts/MyB2B.sol\":21710:21826  function setSwapPairList(address addr, bool enable) external onlyOwner {... */\n    tag_195:\n        /* \"contracts/MyB2B.sol\":2342:2348  _owner */\n      and(sub(shl(0xa0, 0x01), 0x01), sload(0x00))\n        /* \"contracts/MyB2B.sol\":2352:2362  msg.sender */\n      caller\n        /* \"contracts/MyB2B.sol\":2342:2362  _owner == msg.sender */\n      eq\n        /* \"contracts/MyB2B.sol\":2334:2373  require(_owner == msg.sender, \"!owner\") */\n      tag_363\n      jumpi\n      mload(0x40)\n      shl(0xe5, 0x461bcd)\n      dup2\n      mstore\n      0x04\n      add\n      tag_289\n      swap1\n      tag_290\n      jump\t// in\n    tag_363:\n      sub(shl(0xa0, 0x01), 0x01)\n        /* \"contracts/MyB2B.sol\":21791:21810  _swapPairList[addr] */\n      swap2\n      swap1\n      swap2\n      and\n      0x00\n      swap1\n      dup2\n      mstore\n        /* \"contracts/MyB2B.sol\":21791:21804  _swapPairList */\n      0x0d\n        /* \"contracts/MyB2B.sol\":21791:21810  _swapPairList[addr] */\n      0x20\n      mstore\n      0x40\n      swap1\n      keccak256\n        /* \"contracts/MyB2B.sol\":21791:21819  _swapPairList[addr] = enable */\n      dup1\n      sload\n      not(0xff)\n      and\n      swap2\n      iszero\n      iszero\n      swap2\n      swap1\n      swap2\n      or\n      swap1\n      sstore\n        /* \"contracts/MyB2B.sol\":21710:21826  function setSwapPairList(address addr, bool enable) external onlyOwner {... */\n      jump\t// out\n        /* \"contracts/MyB2B.sol\":7352:7514  function transfer(address recipient, uint256 amount) public override returns (bool) {... */\n    tag_199:\n        /* \"contracts/MyB2B.sol\":7430:7434  bool */\n      0x00\n        /* \"contracts/MyB2B.sol\":7446:7486  _transfer(msg.sender, recipient, amount) */\n      tag_277\n        /* \"contracts/MyB2B.sol\":7456:7466  msg.sender */\n      caller\n        /* \"contracts/MyB2B.sol\":7468:7477  recipient */\n      dup5\n        /* \"contracts/MyB2B.sol\":7479:7485  amount */\n      dup5\n        /* \"contracts/MyB2B.sol\":7446:7455  _transfer */\n      tag_315\n        /* \"contracts/MyB2B.sol\":7446:7486  _transfer(msg.sender, recipient, amount) */\n      jump\t// in\n        /* \"contracts/MyB2B.sol\":21832:21991  function claimBalance(address to, uint256 amount) external {... */\n    tag_208:\n        /* \"contracts/MyB2B.sol\":21919:21929  msg.sender */\n      caller\n        /* \"contracts/MyB2B.sol\":21905:21930  _feeWhiteList[msg.sender] */\n      0x00\n      swap1\n      dup2\n      mstore\n        /* \"contracts/MyB2B.sol\":21905:21918  _feeWhiteList */\n      0x09\n        /* \"contracts/MyB2B.sol\":21905:21930  _feeWhiteList[msg.sender] */\n      0x20\n      mstore\n      0x40\n      swap1\n      keccak256\n      sload\n      0xff\n      and\n        /* \"contracts/MyB2B.sol\":21901:21985  if (_feeWhiteList[msg.sender]) {... */\n      iszero\n      tag_369\n      jumpi\n        /* \"contracts/MyB2B.sol\":21946:21974  payable(to).transfer(amount) */\n      mload(0x40)\n      sub(shl(0xa0, 0x01), 0x01)\n        /* \"contracts/MyB2B.sol\":21946:21966  payable(to).transfer */\n      dup4\n      and\n      swap1\n        /* \"contracts/MyB2B.sol\":21946:21974  payable(to).transfer(amount) */\n      dup3\n      iszero\n      0x08fc\n      mul\n      swap1\n        /* \"contracts/MyB2B.sol\":21967:21973  amount */\n      dup4\n      swap1\n        /* \"contracts/MyB2B.sol\":21946:21974  payable(to).transfer(amount) */\n      0x00\n      dup2\n      dup2\n      dup2\n        /* \"contracts/MyB2B.sol\":21967:21973  amount */\n      dup6\n        /* \"contracts/MyB2B.sol\":21946:21966  payable(to).transfer */\n      dup9\n        /* \"contracts/MyB2B.sol\":21946:21974  payable(to).transfer(amount) */\n      dup9\n      call\n      swap4\n      pop\n      pop\n      pop\n      pop\n      iszero\n      dup1\n      iszero\n      tag_280\n      jumpi\n      returndatasize\n      0x00\n      dup1\n      returndatacopy\n      revert(0x00, returndatasize)\n        /* \"contracts/MyB2B.sol\":21901:21985  if (_feeWhiteList[msg.sender]) {... */\n    tag_369:\n        /* \"contracts/MyB2B.sol\":21832:21991  function claimBalance(address to, uint256 amount) external {... */\n      pop\n      pop\n      jump\t// out\n        /* \"contracts/MyB2B.sol\":21507:21704  function batchSetFeeWhiteList(address [] memory addr, bool enable) external onlyOwner {... */\n    tag_217:\n        /* \"contracts/MyB2B.sol\":2342:2348  _owner */\n      and(sub(shl(0xa0, 0x01), 0x01), sload(0x00))\n        /* \"contracts/MyB2B.sol\":2352:2362  msg.sender */\n      caller\n        /* \"contracts/MyB2B.sol\":2342:2362  _owner == msg.sender */\n      eq\n        /* \"contracts/MyB2B.sol\":2334:2373  require(_owner == msg.sender, \"!owner\") */\n      tag_373\n      jumpi\n      mload(0x40)\n      shl(0xe5, 0x461bcd)\n      dup2\n      mstore\n      0x04\n      add\n      tag_289\n      swap1\n      tag_290\n      jump\t// in\n    tag_373:\n        /* \"contracts/MyB2B.sol\":21608:21614  uint i */\n      0x00\n        /* \"contracts/MyB2B.sol\":21603:21698  for (uint i = 0; i < addr.length; i++) {... */\n    tag_376:\n        /* \"contracts/MyB2B.sol\":21624:21628  addr */\n      dup3\n        /* \"contracts/MyB2B.sol\":21624:21635  addr.length */\n      mload\n        /* \"contracts/MyB2B.sol\":21620:21621  i */\n      dup2\n        /* \"contracts/MyB2B.sol\":21620:21635  i < addr.length */\n      lt\n        /* \"contracts/MyB2B.sol\":21603:21698  for (uint i = 0; i < addr.length; i++) {... */\n      iszero\n      tag_280\n      jumpi\n        /* \"contracts/MyB2B.sol\":21681:21687  enable */\n      dup2\n        /* \"contracts/MyB2B.sol\":21656:21669  _feeWhiteList */\n      0x09\n        /* \"contracts/MyB2B.sol\":21656:21678  _feeWhiteList[addr[i]] */\n      0x00\n        /* \"contracts/MyB2B.sol\":21670:21674  addr */\n      dup6\n        /* \"contracts/MyB2B.sol\":21675:21676  i */\n      dup5\n        /* \"contracts/MyB2B.sol\":21670:21677  addr[i] */\n      dup2\n      mload\n      dup2\n      lt\n      tag_380\n      jumpi\n      tag_380\n      tag_381\n      jump\t// in\n    tag_380:\n      0x20\n      swap1\n      dup2\n      mul\n      swap2\n      swap1\n      swap2\n      add\n      dup2\n      add\n      mload\n      sub(shl(0xa0, 0x01), 0x01)\n        /* \"contracts/MyB2B.sol\":21656:21678  _feeWhiteList[addr[i]] */\n      and\n      dup3\n      mstore\n      dup2\n      add\n      swap2\n      swap1\n      swap2\n      mstore\n      0x40\n      add\n      0x00\n      keccak256\n        /* \"contracts/MyB2B.sol\":21656:21687  _feeWhiteList[addr[i]] = enable */\n      dup1\n      sload\n      not(0xff)\n      and\n      swap2\n      iszero\n      iszero\n      swap2\n      swap1\n      swap2\n      or\n      swap1\n      sstore\n        /* \"contracts/MyB2B.sol\":21637:21640  i++ */\n      dup1\n      tag_382\n      dup2\n      tag_383\n      jump\t// in\n    tag_382:\n      swap2\n      pop\n      pop\n        /* \"contracts/MyB2B.sol\":21603:21698  for (uint i = 0; i < addr.length; i++) {... */\n      jump(tag_376)\n        /* \"contracts/MyB2B.sol\":20090:20631  function setBuyFee(... */\n    tag_230:\n        /* \"contracts/MyB2B.sol\":2342:2348  _owner */\n      and(sub(shl(0xa0, 0x01), 0x01), sload(0x00))\n        /* \"contracts/MyB2B.sol\":2352:2362  msg.sender */\n      caller\n        /* \"contracts/MyB2B.sol\":2342:2362  _owner == msg.sender */\n      eq\n        /* \"contracts/MyB2B.sol\":2334:2373  require(_owner == msg.sender, \"!owner\") */\n      tag_385\n      jumpi\n      mload(0x40)\n      shl(0xe5, 0x461bcd)\n      dup2\n      mstore\n      0x04\n      add\n      tag_289\n      swap1\n      tag_290\n      jump\t// in\n    tag_385:\n        /* \"contracts/MyB2B.sol\":20262:20282  uint256 totalBuyFees */\n      0x00\n        /* \"contracts/MyB2B.sol\":20341:20350  burnLPFee */\n      dup2\n        /* \"contracts/MyB2B.sol\":20333:20338  lpFee */\n      dup4\n        /* \"contracts/MyB2B.sol\":20317:20330  lpDividendFee */\n      dup6\n        /* \"contracts/MyB2B.sol\":20306:20314  fundFee3 */\n      dup8\n        /* \"contracts/MyB2B.sol\":20285:20303  fundFee + fundFee2 */\n      tag_388\n        /* \"contracts/MyB2B.sol\":20295:20303  fundFee2 */\n      dup11\n        /* \"contracts/MyB2B.sol\":20285:20292  fundFee */\n      dup13\n        /* \"contracts/MyB2B.sol\":20285:20303  fundFee + fundFee2 */\n      tag_298\n      jump\t// in\n    tag_388:\n        /* \"contracts/MyB2B.sol\":20285:20314  fundFee + fundFee2 + fundFee3 */\n      tag_389\n      swap2\n      swap1\n      tag_298\n      jump\t// in\n    tag_389:\n        /* \"contracts/MyB2B.sol\":20285:20330  fundFee + fundFee2 + fundFee3 + lpDividendFee */\n      tag_390\n      swap2\n      swap1\n      tag_298\n      jump\t// in\n    tag_390:\n        /* \"contracts/MyB2B.sol\":20285:20338  fundFee + fundFee2 + fundFee3 + lpDividendFee + lpFee */\n      tag_391\n      swap2\n      swap1\n      tag_298\n      jump\t// in\n    tag_391:\n        /* \"contracts/MyB2B.sol\":20285:20350  fundFee + fundFee2 + fundFee3 + lpDividendFee + lpFee + burnLPFee */\n      tag_392\n      swap2\n      swap1\n      tag_298\n      jump\t// in\n    tag_392:\n        /* \"contracts/MyB2B.sol\":20262:20350  uint256 totalBuyFees = fundFee + fundFee2 + fundFee3 + lpDividendFee + lpFee + burnLPFee */\n      swap1\n      pop\n        /* \"contracts/MyB2B.sol\":20394:20396  25 */\n      0x19\n        /* \"contracts/MyB2B.sol\":20369:20389  totalBuyFees / 10000 */\n      tag_393\n        /* \"contracts/MyB2B.sol\":20384:20389  10000 */\n      0x2710\n        /* \"contracts/MyB2B.sol\":20262:20350  uint256 totalBuyFees = fundFee + fundFee2 + fundFee3 + lpDividendFee + lpFee + burnLPFee */\n      dup4\n        /* \"contracts/MyB2B.sol\":20369:20389  totalBuyFees / 10000 */\n      tag_305\n      jump\t// in\n    tag_393:\n        /* \"contracts/MyB2B.sol\":20368:20396  (totalBuyFees / 10000) <= 25 */\n      gt\n      iszero\n        /* \"contracts/MyB2B.sol\":20360:20421  require((totalBuyFees / 10000) <= 25, \"Fees Limit exceeded.\") */\n      tag_394\n      jumpi\n      mload(0x40)\n      shl(0xe5, 0x461bcd)\n      dup2\n      mstore\n        /* \"#utility.yul\":7712:7714   */\n      0x20\n        /* \"contracts/MyB2B.sol\":20360:20421  require((totalBuyFees / 10000) <= 25, \"Fees Limit exceeded.\") */\n      0x04\n      dup3\n      add\n        /* \"#utility.yul\":7694:7715   */\n      mstore\n        /* \"#utility.yul\":7751:7753   */\n      0x14\n        /* \"#utility.yul\":7731:7749   */\n      0x24\n      dup3\n      add\n        /* \"#utility.yul\":7724:7754   */\n      mstore\n      shl(0x61, 0x2332b2b9902634b6b4ba1032bc31b2b2b232b217)\n        /* \"#utility.yul\":7770:7788   */\n      0x44\n      dup3\n      add\n        /* \"#utility.yul\":7763:7813   */\n      mstore\n        /* \"#utility.yul\":7830:7848   */\n      0x64\n      add\n        /* \"contracts/MyB2B.sol\":20360:20421  require((totalBuyFees / 10000) <= 25, \"Fees Limit exceeded.\") */\n      tag_289\n        /* \"#utility.yul\":7510:7854   */\n      jump\n        /* \"contracts/MyB2B.sol\":20360:20421  require((totalBuyFees / 10000) <= 25, \"Fees Limit exceeded.\") */\n    tag_394:\n      pop\n        /* \"contracts/MyB2B.sol\":20432:20443  _buyFundFee */\n      0x0f\n        /* \"contracts/MyB2B.sol\":20432:20453  _buyFundFee = fundFee */\n      swap6\n      swap1\n      swap6\n      sstore\n        /* \"contracts/MyB2B.sol\":20463:20475  _buyFundFee2 */\n      0x10\n        /* \"contracts/MyB2B.sol\":20463:20486  _buyFundFee2 = fundFee2 */\n      swap4\n      swap1\n      swap4\n      sstore\n        /* \"contracts/MyB2B.sol\":20496:20508  _buyFundFee3 */\n      0x11\n        /* \"contracts/MyB2B.sol\":20496:20519  _buyFundFee3 = fundFee3 */\n      swap2\n      swap1\n      swap2\n      sstore\n        /* \"contracts/MyB2B.sol\":20529:20546  _buyLPDividendFee */\n      0x12\n        /* \"contracts/MyB2B.sol\":20529:20562  _buyLPDividendFee = lpDividendFee */\n      sstore\n        /* \"contracts/MyB2B.sol\":20572:20581  _buyLPFee */\n      0x13\n        /* \"contracts/MyB2B.sol\":20572:20589  _buyLPFee = lpFee */\n      sstore\n        /* \"contracts/MyB2B.sol\":20599:20612  _buyBurnLPFee */\n      0x14\n        /* \"contracts/MyB2B.sol\":20599:20624  _buyBurnLPFee = burnLPFee */\n      sstore\n        /* \"contracts/MyB2B.sol\":20090:20631  function setBuyFee(... */\n      jump\t// out\n        /* \"contracts/MyB2B.sol\":25625:25716  function setRemoveLPFee(uint256 fee) external onlyOwner {... */\n    tag_238:\n        /* \"contracts/MyB2B.sol\":2342:2348  _owner */\n      and(sub(shl(0xa0, 0x01), 0x01), sload(0x00))\n        /* \"contracts/MyB2B.sol\":2352:2362  msg.sender */\n      caller\n        /* \"contracts/MyB2B.sol\":2342:2362  _owner == msg.sender */\n      eq\n        /* \"contracts/MyB2B.sol\":2334:2373  require(_owner == msg.sender, \"!owner\") */\n      tag_397\n      jumpi\n      mload(0x40)\n      shl(0xe5, 0x461bcd)\n      dup2\n      mstore\n      0x04\n      add\n      tag_289\n      swap1\n      tag_290\n      jump\t// in\n    tag_397:\n        /* \"contracts/MyB2B.sol\":25691:25703  _removeLPFee */\n      0x20\n        /* \"contracts/MyB2B.sol\":25691:25709  _removeLPFee = fee */\n      sstore\n        /* \"contracts/MyB2B.sol\":25625:25716  function setRemoveLPFee(uint256 fee) external onlyOwner {... */\n      jump\t// out\n        /* \"contracts/MyB2B.sol\":21385:21501  function setFeeWhiteList(address addr, bool enable) external onlyOwner {... */\n    tag_250:\n        /* \"contracts/MyB2B.sol\":2342:2348  _owner */\n      and(sub(shl(0xa0, 0x01), 0x01), sload(0x00))\n        /* \"contracts/MyB2B.sol\":2352:2362  msg.sender */\n      caller\n        /* \"contracts/MyB2B.sol\":2342:2362  _owner == msg.sender */\n      eq\n        /* \"contracts/MyB2B.sol\":2334:2373  require(_owner == msg.sender, \"!owner\") */\n      tag_401\n      jumpi\n      mload(0x40)\n      shl(0xe5, 0x461bcd)\n      dup2\n      mstore\n      0x04\n      add\n      tag_289\n      swap1\n      tag_290\n      jump\t// in\n    tag_401:\n      sub(shl(0xa0, 0x01), 0x01)\n        /* \"contracts/MyB2B.sol\":21466:21485  _feeWhiteList[addr] */\n      swap2\n      swap1\n      swap2\n      and\n      0x00\n      swap1\n      dup2\n      mstore\n        /* \"contracts/MyB2B.sol\":21466:21479  _feeWhiteList */\n      0x09\n        /* \"contracts/MyB2B.sol\":21466:21485  _feeWhiteList[addr] */\n      0x20\n      mstore\n      0x40\n      swap1\n      keccak256\n        /* \"contracts/MyB2B.sol\":21466:21494  _feeWhiteList[addr] = enable */\n      dup1\n      sload\n      not(0xff)\n      and\n      swap2\n      iszero\n      iszero\n      swap2\n      swap1\n      swap2\n      or\n      swap1\n      sstore\n        /* \"contracts/MyB2B.sol\":21385:21501  function setFeeWhiteList(address addr, bool enable) external onlyOwner {... */\n      jump\t// out\n        /* \"contracts/MyB2B.sol\":2548:2755  function transferOwnership(address newOwner) public virtual onlyOwner {... */\n    tag_260:\n        /* \"contracts/MyB2B.sol\":2342:2348  _owner */\n      and(sub(shl(0xa0, 0x01), 0x01), sload(0x00))\n        /* \"contracts/MyB2B.sol\":2352:2362  msg.sender */\n      caller\n        /* \"contracts/MyB2B.sol\":2342:2362  _owner == msg.sender */\n      eq\n        /* \"contracts/MyB2B.sol\":2334:2373  require(_owner == msg.sender, \"!owner\") */\n      tag_406\n      jumpi\n      mload(0x40)\n      shl(0xe5, 0x461bcd)\n      dup2\n      mstore\n      0x04\n      add\n      tag_289\n      swap1\n      tag_290\n      jump\t// in\n    tag_406:\n      sub(shl(0xa0, 0x01), 0x01)\n        /* \"contracts/MyB2B.sol\":2636:2658  newOwner != address(0) */\n      dup2\n      and\n        /* \"contracts/MyB2B.sol\":2628:2668  require(newOwner != address(0), \"new 0\") */\n      tag_409\n      jumpi\n      mload(0x40)\n      shl(0xe5, 0x461bcd)\n      dup2\n      mstore\n        /* \"#utility.yul\":9181:9183   */\n      0x20\n        /* \"contracts/MyB2B.sol\":2628:2668  require(newOwner != address(0), \"new 0\") */\n      0x04\n      dup3\n      add\n        /* \"#utility.yul\":9163:9184   */\n      mstore\n        /* \"#utility.yul\":9220:9221   */\n      0x05\n        /* \"#utility.yul\":9200:9218   */\n      0x24\n      dup3\n      add\n        /* \"#utility.yul\":9193:9222   */\n      mstore\n      shl(0xdc, 0x06e6577203)\n        /* \"#utility.yul\":9238:9256   */\n      0x44\n      dup3\n      add\n        /* \"#utility.yul\":9231:9266   */\n      mstore\n        /* \"#utility.yul\":9283:9301   */\n      0x64\n      add\n        /* \"contracts/MyB2B.sol\":2628:2668  require(newOwner != address(0), \"new 0\") */\n      tag_289\n        /* \"#utility.yul\":8979:9307   */\n      jump\n        /* \"contracts/MyB2B.sol\":2628:2668  require(newOwner != address(0), \"new 0\") */\n    tag_409:\n        /* \"contracts/MyB2B.sol\":2704:2710  _owner */\n      0x00\n      dup1\n      sload\n        /* \"contracts/MyB2B.sol\":2683:2721  OwnershipTransferred(_owner, newOwner) */\n      mload(0x40)\n      sub(shl(0xa0, 0x01), 0x01)\n      dup1\n      dup6\n      and\n      swap4\n        /* \"contracts/MyB2B.sol\":2704:2710  _owner */\n      swap3\n      and\n      swap2\n        /* \"contracts/MyB2B.sol\":2683:2721  OwnershipTransferred(_owner, newOwner) */\n      0x8be0079c531659141344cd1fd0a4f28419497f9722a3daafe3b4186f6b6457e0\n      swap2\n      log3\n        /* \"contracts/MyB2B.sol\":2731:2737  _owner */\n      0x00\n        /* \"contracts/MyB2B.sol\":2731:2748  _owner = newOwner */\n      dup1\n      sload\n      not(sub(shl(0xa0, 0x01), 0x01))\n      and\n      sub(shl(0xa0, 0x01), 0x01)\n      swap3\n      swap1\n      swap3\n      and\n      swap2\n      swap1\n      swap2\n      or\n      swap1\n      sstore\n        /* \"contracts/MyB2B.sol\":2548:2755  function transferOwnership(address newOwner) public virtual onlyOwner {... */\n      jump\t// out\n        /* \"contracts/MyB2B.sol\":8165:8339  function _approve(address owner, address spender, uint256 amount) private {... */\n    tag_278:\n      sub(shl(0xa0, 0x01), 0x01)\n        /* \"contracts/MyB2B.sol\":8249:8267  _allowances[owner] */\n      dup4\n      dup2\n      and\n      0x00\n      dup2\n      dup2\n      mstore\n        /* \"contracts/MyB2B.sol\":8249:8260  _allowances */\n      0x02\n        /* \"contracts/MyB2B.sol\":8249:8267  _allowances[owner] */\n      0x20\n      swap1\n      dup2\n      mstore\n      0x40\n      dup1\n      dup4\n      keccak256\n        /* \"contracts/MyB2B.sol\":8249:8276  _allowances[owner][spender] */\n      swap5\n      dup8\n      and\n      dup1\n      dup5\n      mstore\n      swap5\n      dup3\n      mstore\n      swap2\n      dup3\n      swap1\n      keccak256\n        /* \"contracts/MyB2B.sol\":8249:8285  _allowances[owner][spender] = amount */\n      dup6\n      swap1\n      sstore\n        /* \"contracts/MyB2B.sol\":8300:8332  Approval(owner, spender, amount) */\n      swap1\n      mload\n        /* \"#utility.yul\":1342:1367   */\n      dup5\n      dup2\n      mstore\n        /* \"contracts/MyB2B.sol\":8300:8332  Approval(owner, spender, amount) */\n      0x8c5be1e5ebec7d5bd14f71427d1e84f3dd0314c0f7b2291e5b200ac8c7c3b925\n      swap2\n        /* \"#utility.yul\":1315:1333   */\n      add\n        /* \"contracts/MyB2B.sol\":8300:8332  Approval(owner, spender, amount) */\n    tag_413:\n      mload(0x40)\n      dup1\n      swap2\n      sub\n      swap1\n      log3\n        /* \"contracts/MyB2B.sol\":8165:8339  function _approve(address owner, address spender, uint256 amount) private {... */\n      pop\n      pop\n      pop\n      jump\t// out\n        /* \"contracts/MyB2B.sol\":8345:10231  function _transfer(... */\n    tag_315:\n      sub(shl(0xa0, 0x01), 0x01)\n        /* \"contracts/MyB2B.sol\":7321:7339  _balances[account] */\n      dup4\n      and\n        /* \"contracts/MyB2B.sol\":8454:8469  uint256 balance */\n      0x00\n        /* \"contracts/MyB2B.sol\":7321:7339  _balances[account] */\n      swap1\n      dup2\n      mstore\n        /* \"contracts/MyB2B.sol\":7321:7330  _balances */\n      0x01\n        /* \"contracts/MyB2B.sol\":7321:7339  _balances[account] */\n      0x20\n      mstore\n      0x40\n      swap1\n      keccak256\n      sload\n        /* \"contracts/MyB2B.sol\":8505:8522  balance >= amount */\n      dup2\n      dup2\n      lt\n      iszero\n        /* \"contracts/MyB2B.sol\":8497:8543  require(balance >= amount, \"balanceNotEnough\") */\n      tag_416\n      jumpi\n      mload(0x40)\n      shl(0xe5, 0x461bcd)\n      dup2\n      mstore\n        /* \"#utility.yul\":9514:9516   */\n      0x20\n        /* \"contracts/MyB2B.sol\":8497:8543  require(balance >= amount, \"balanceNotEnough\") */\n      0x04\n      dup3\n      add\n        /* \"#utility.yul\":9496:9517   */\n      mstore\n        /* \"#utility.yul\":9553:9555   */\n      0x10\n        /* \"#utility.yul\":9533:9551   */\n      0x24\n      dup3\n      add\n        /* \"#utility.yul\":9526:9556   */\n      mstore\n      shl(0x83, 0x0c4c2d8c2dcc6ca9cdee88adcdeeaced)\n        /* \"#utility.yul\":9572:9590   */\n      0x44\n      dup3\n      add\n        /* \"#utility.yul\":9565:9611   */\n      mstore\n        /* \"#utility.yul\":9628:9646   */\n      0x64\n      add\n        /* \"contracts/MyB2B.sol\":8497:8543  require(balance >= amount, \"balanceNotEnough\") */\n      tag_289\n        /* \"#utility.yul\":9312:9652   */\n      jump\n        /* \"contracts/MyB2B.sol\":8497:8543  require(balance >= amount, \"balanceNotEnough\") */\n    tag_416:\n      sub(shl(0xa0, 0x01), 0x01)\n        /* \"contracts/MyB2B.sol\":8581:8600  _feeWhiteList[from] */\n      dup5\n      and\n        /* \"contracts/MyB2B.sol\":8553:8565  bool takeFee */\n      0x00\n        /* \"contracts/MyB2B.sol\":8581:8600  _feeWhiteList[from] */\n      swap1\n      dup2\n      mstore\n        /* \"contracts/MyB2B.sol\":8581:8594  _feeWhiteList */\n      0x09\n        /* \"contracts/MyB2B.sol\":8581:8600  _feeWhiteList[from] */\n      0x20\n      mstore\n      0x40\n      dup2\n      keccak256\n      sload\n      0xff\n      and\n        /* \"contracts/MyB2B.sol\":8580:8600  !_feeWhiteList[from] */\n      iszero\n        /* \"contracts/MyB2B.sol\":8580:8622  !_feeWhiteList[from] && !_feeWhiteList[to] */\n      dup1\n      iszero\n      tag_419\n      jumpi\n      pop\n      sub(shl(0xa0, 0x01), 0x01)\n        /* \"contracts/MyB2B.sol\":8605:8622  _feeWhiteList[to] */\n      dup5\n      and\n      0x00\n      swap1\n      dup2\n      mstore\n        /* \"contracts/MyB2B.sol\":8605:8618  _feeWhiteList */\n      0x09\n        /* \"contracts/MyB2B.sol\":8605:8622  _feeWhiteList[to] */\n      0x20\n      mstore\n      0x40\n      swap1\n      keccak256\n      sload\n      0xff\n      and\n        /* \"contracts/MyB2B.sol\":8604:8622  !_feeWhiteList[to] */\n      iszero\n        /* \"contracts/MyB2B.sol\":8580:8622  !_feeWhiteList[from] && !_feeWhiteList[to] */\n    tag_419:\n        /* \"contracts/MyB2B.sol\":8576:8864  if (!_feeWhiteList[from] && !_feeWhiteList[to]) {... */\n      iszero\n      tag_420\n      jumpi\n        /* \"contracts/MyB2B.sol\":8638:8659  uint256 maxSellAmount */\n      0x00\n        /* \"contracts/MyB2B.sol\":8680:8686  100000 */\n      0x0186a0\n        /* \"contracts/MyB2B.sol\":8662:8677  balance * 99999 */\n      tag_421\n        /* \"contracts/MyB2B.sol\":8662:8669  balance */\n      dup5\n        /* \"contracts/MyB2B.sol\":8672:8677  99999 */\n      0x01869f\n        /* \"contracts/MyB2B.sol\":8662:8677  balance * 99999 */\n      tag_422\n      jump\t// in\n    tag_421:\n        /* \"contracts/MyB2B.sol\":8662:8686  balance * 99999 / 100000 */\n      tag_423\n      swap2\n      swap1\n      tag_305\n      jump\t// in\n    tag_423:\n        /* \"contracts/MyB2B.sol\":8638:8686  uint256 maxSellAmount = balance * 99999 / 100000 */\n      swap1\n      pop\n        /* \"contracts/MyB2B.sol\":8713:8726  maxSellAmount */\n      dup1\n        /* \"contracts/MyB2B.sol\":8704:8710  amount */\n      dup5\n        /* \"contracts/MyB2B.sol\":8704:8726  amount > maxSellAmount */\n      gt\n        /* \"contracts/MyB2B.sol\":8700:8783  if (amount > maxSellAmount) {... */\n      iszero\n      tag_424\n      jumpi\n        /* \"contracts/MyB2B.sol\":8755:8768  maxSellAmount */\n      dup1\n        /* \"contracts/MyB2B.sol\":8746:8768  amount = maxSellAmount */\n      swap4\n      pop\n        /* \"contracts/MyB2B.sol\":8700:8783  if (amount > maxSellAmount) {... */\n    tag_424:\n        /* \"contracts/MyB2B.sol\":8806:8810  true */\n      0x01\n        /* \"contracts/MyB2B.sol\":8796:8810  takeFee = true */\n      swap2\n      pop\n        /* \"contracts/MyB2B.sol\":8624:8864  {... */\n      pop\n        /* \"contracts/MyB2B.sol\":8576:8864  if (!_feeWhiteList[from] && !_feeWhiteList[to]) {... */\n    tag_420:\n      sub(shl(0xa0, 0x01), 0x01)\n        /* \"contracts/MyB2B.sol\":8925:8944  _swapPairList[from] */\n      dup6\n      and\n        /* \"contracts/MyB2B.sol\":8874:8889  bool isRemoveLP */\n      0x00\n        /* \"contracts/MyB2B.sol\":8925:8944  _swapPairList[from] */\n      swap1\n      dup2\n      mstore\n        /* \"contracts/MyB2B.sol\":8925:8938  _swapPairList */\n      0x0d\n        /* \"contracts/MyB2B.sol\":8925:8944  _swapPairList[from] */\n      0x20\n      mstore\n      0x40\n      dup2\n      keccak256\n      sload\n        /* \"contracts/MyB2B.sol\":8874:8889  bool isRemoveLP */\n      dup2\n      swap1\n        /* \"contracts/MyB2B.sol\":8925:8944  _swapPairList[from] */\n      0xff\n      and\n      dup1\n        /* \"contracts/MyB2B.sol\":8925:8965  _swapPairList[from] || _swapPairList[to] */\n      tag_425\n      jumpi\n      pop\n      sub(shl(0xa0, 0x01), 0x01)\n        /* \"contracts/MyB2B.sol\":8948:8965  _swapPairList[to] */\n      dup7\n      and\n      0x00\n      swap1\n      dup2\n      mstore\n        /* \"contracts/MyB2B.sol\":8948:8961  _swapPairList */\n      0x0d\n        /* \"contracts/MyB2B.sol\":8948:8965  _swapPairList[to] */\n      0x20\n      mstore\n      0x40\n      swap1\n      keccak256\n      sload\n      0xff\n      and\n        /* \"contracts/MyB2B.sol\":8925:8965  _swapPairList[from] || _swapPairList[to] */\n    tag_425:\n        /* \"contracts/MyB2B.sol\":8921:9942  if (_swapPairList[from] || _swapPairList[to]) {... */\n      iszero\n      tag_426\n      jumpi\n        /* \"contracts/MyB2B.sol\":8990:9005  startAddLPBlock */\n      sload(0x1d)\n        /* \"contracts/MyB2B.sol\":8985:8986  0 */\n      0x00\n        /* \"contracts/MyB2B.sol\":8985:9005  0 == startAddLPBlock */\n      sub\n        /* \"contracts/MyB2B.sol\":8981:9187  if (0 == startAddLPBlock) {... */\n      tag_434\n      jumpi\n      sub(shl(0xa0, 0x01), 0x01)\n        /* \"contracts/MyB2B.sol\":9029:9048  _feeWhiteList[from] */\n      dup8\n      and\n      0x00\n      swap1\n      dup2\n      mstore\n        /* \"contracts/MyB2B.sol\":9029:9042  _feeWhiteList */\n      0x09\n        /* \"contracts/MyB2B.sol\":9029:9048  _feeWhiteList[from] */\n      0x20\n      mstore\n      0x40\n      swap1\n      keccak256\n      sload\n      0xff\n      and\n        /* \"contracts/MyB2B.sol\":9029:9067  _feeWhiteList[from] && to == _mainPair */\n      dup1\n      iszero\n      tag_428\n      jumpi\n      pop\n        /* \"contracts/MyB2B.sol\":9058:9067  _mainPair */\n      sload(0x1f)\n      sub(shl(0xa0, 0x01), 0x01)\n        /* \"contracts/MyB2B.sol\":9052:9067  to == _mainPair */\n      dup8\n      dup2\n      and\n        /* \"contracts/MyB2B.sol\":9058:9067  _mainPair */\n      swap2\n      and\n        /* \"contracts/MyB2B.sol\":9052:9067  to == _mainPair */\n      eq\n        /* \"contracts/MyB2B.sol\":9029:9067  _feeWhiteList[from] && to == _mainPair */\n    tag_428:\n        /* \"contracts/MyB2B.sol\":9029:9100  _feeWhiteList[from] && to == _mainPair && IERC20(to).totalSupply() == 0 */\n      dup1\n      iszero\n      tag_429\n      jumpi\n      pop\n        /* \"contracts/MyB2B.sol\":9078:9080  to */\n      dup6\n      sub(shl(0xa0, 0x01), 0x01)\n        /* \"contracts/MyB2B.sol\":9071:9093  IERC20(to).totalSupply */\n      and\n      0x18160ddd\n        /* \"contracts/MyB2B.sol\":9071:9095  IERC20(to).totalSupply() */\n      mload(0x40)\n      dup2\n      0xffffffff\n      and\n      0xe0\n      shl\n      dup2\n      mstore\n      0x04\n      add\n      0x20\n      mload(0x40)\n      dup1\n      dup4\n      sub\n      dup2\n      dup7\n      gas\n      staticcall\n      iszero\n      dup1\n      iszero\n      tag_431\n      jumpi\n      returndatasize\n      0x00\n      dup1\n      returndatacopy\n      revert(0x00, returndatasize)\n    tag_431:\n      pop\n      pop\n      pop\n      pop\n      mload(0x40)\n      returndatasize\n      not(0x1f)\n      0x1f\n      dup3\n      add\n      and\n      dup3\n      add\n      dup1\n      0x40\n      mstore\n      pop\n      dup2\n      add\n      swap1\n      tag_432\n      swap2\n      swap1\n      tag_433\n      jump\t// in\n    tag_432:\n        /* \"contracts/MyB2B.sol\":9071:9100  IERC20(to).totalSupply() == 0 */\n      iszero\n        /* \"contracts/MyB2B.sol\":9029:9100  _feeWhiteList[from] && to == _mainPair && IERC20(to).totalSupply() == 0 */\n    tag_429:\n        /* \"contracts/MyB2B.sol\":9025:9173  if (_feeWhiteList[from] && to == _mainPair && IERC20(to).totalSupply() == 0) {... */\n      iszero\n      tag_434\n      jumpi\n        /* \"contracts/MyB2B.sol\":9142:9154  block.number */\n      number\n        /* \"contracts/MyB2B.sol\":9124:9139  startAddLPBlock */\n      0x1d\n        /* \"contracts/MyB2B.sol\":9124:9154  startAddLPBlock = block.number */\n      sstore\n        /* \"contracts/MyB2B.sol\":9025:9173  if (_feeWhiteList[from] && to == _mainPair && IERC20(to).totalSupply() == 0) {... */\n    tag_434:\n      sub(shl(0xa0, 0x01), 0x01)\n        /* \"contracts/MyB2B.sol\":9206:9225  _feeWhiteList[from] */\n      dup8\n      and\n      0x00\n      swap1\n      dup2\n      mstore\n        /* \"contracts/MyB2B.sol\":9206:9219  _feeWhiteList */\n      0x09\n        /* \"contracts/MyB2B.sol\":9206:9225  _feeWhiteList[from] */\n      0x20\n      mstore\n      0x40\n      swap1\n      keccak256\n      sload\n      0xff\n      and\n        /* \"contracts/MyB2B.sol\":9205:9225  !_feeWhiteList[from] */\n      iszero\n        /* \"contracts/MyB2B.sol\":9205:9247  !_feeWhiteList[from] && !_feeWhiteList[to] */\n      dup1\n      iszero\n      tag_435\n      jumpi\n      pop\n      sub(shl(0xa0, 0x01), 0x01)\n        /* \"contracts/MyB2B.sol\":9230:9247  _feeWhiteList[to] */\n      dup7\n      and\n      0x00\n      swap1\n      dup2\n      mstore\n        /* \"contracts/MyB2B.sol\":9230:9243  _feeWhiteList */\n      0x09\n        /* \"contracts/MyB2B.sol\":9230:9247  _feeWhiteList[to] */\n      0x20\n      mstore\n      0x40\n      swap1\n      keccak256\n      sload\n      0xff\n      and\n        /* \"contracts/MyB2B.sol\":9229:9247  !_feeWhiteList[to] */\n      iszero\n        /* \"contracts/MyB2B.sol\":9205:9247  !_feeWhiteList[from] && !_feeWhiteList[to] */\n    tag_435:\n        /* \"contracts/MyB2B.sol\":9201:9786  if (!_feeWhiteList[from] && !_feeWhiteList[to]) {... */\n      iszero\n      tag_449\n      jumpi\n      sub(shl(0xa0, 0x01), 0x01)\n        /* \"contracts/MyB2B.sol\":9271:9290  _swapPairList[from] */\n      dup8\n      and\n      0x00\n      swap1\n      dup2\n      mstore\n        /* \"contracts/MyB2B.sol\":9271:9284  _swapPairList */\n      0x0d\n        /* \"contracts/MyB2B.sol\":9271:9290  _swapPairList[from] */\n      0x20\n      mstore\n      0x40\n      swap1\n      keccak256\n      sload\n      0xff\n      and\n        /* \"contracts/MyB2B.sol\":9267:9440  if (_swapPairList[from]) {... */\n      iszero\n      tag_437\n      jumpi\n        /* \"contracts/MyB2B.sol\":9327:9347  _isRemoveLiquidity() */\n      tag_438\n        /* \"contracts/MyB2B.sol\":9327:9345  _isRemoveLiquidity */\n      tag_439\n        /* \"contracts/MyB2B.sol\":9327:9347  _isRemoveLiquidity() */\n      jump\t// in\n    tag_438:\n        /* \"contracts/MyB2B.sol\":9314:9347  isRemoveLP = _isRemoveLiquidity() */\n      swap2\n      pop\n        /* \"contracts/MyB2B.sol\":9267:9440  if (_swapPairList[from]) {... */\n      jump(tag_440)\n    tag_437:\n        /* \"contracts/MyB2B.sol\":9404:9421  _isAddLiquidity() */\n      tag_441\n        /* \"contracts/MyB2B.sol\":9404:9419  _isAddLiquidity */\n      tag_442\n        /* \"contracts/MyB2B.sol\":9404:9421  _isAddLiquidity() */\n      jump\t// in\n    tag_441:\n        /* \"contracts/MyB2B.sol\":9394:9421  isAddLP = _isAddLiquidity() */\n      swap1\n      pop\n        /* \"contracts/MyB2B.sol\":9267:9440  if (_swapPairList[from]) {... */\n    tag_440:\n        /* \"contracts/MyB2B.sol\":9467:9482  startTradeBlock */\n      sload(0x1e)\n        /* \"contracts/MyB2B.sol\":9462:9463  0 */\n      0x00\n        /* \"contracts/MyB2B.sol\":9462:9482  0 == startTradeBlock */\n      sub\n        /* \"contracts/MyB2B.sol\":9458:9574  if (0 == startTradeBlock) {... */\n      tag_445\n      jumpi\n        /* \"contracts/MyB2B.sol\":9518:9533  startAddLPBlock */\n      sload(0x1d)\n        /* \"contracts/MyB2B.sol\":9514:9515  0 */\n      0x00\n        /* \"contracts/MyB2B.sol\":9514:9533  0 < startAddLPBlock */\n      lt\n        /* \"contracts/MyB2B.sol\":9514:9544  0 < startAddLPBlock && isAddLP */\n      dup1\n      iszero\n      tag_444\n      jumpi\n      pop\n        /* \"contracts/MyB2B.sol\":9537:9544  isAddLP */\n      dup1\n        /* \"contracts/MyB2B.sol\":9514:9544  0 < startAddLPBlock && isAddLP */\n    tag_444:\n        /* \"contracts/MyB2B.sol\":9506:9555  require(0 < startAddLPBlock && isAddLP, \"!Trade\") */\n      tag_445\n      jumpi\n      mload(0x40)\n      shl(0xe5, 0x461bcd)\n      dup2\n      mstore\n        /* \"#utility.yul\":10221:10223   */\n      0x20\n        /* \"contracts/MyB2B.sol\":9506:9555  require(0 < startAddLPBlock && isAddLP, \"!Trade\") */\n      0x04\n      dup3\n      add\n        /* \"#utility.yul\":10203:10224   */\n      mstore\n        /* \"#utility.yul\":10260:10261   */\n      0x06\n        /* \"#utility.yul\":10240:10258   */\n      0x24\n      dup3\n      add\n        /* \"#utility.yul\":10233:10262   */\n      mstore\n      shl(0xd0, 0x215472616465)\n        /* \"#utility.yul\":10278:10296   */\n      0x44\n      dup3\n      add\n        /* \"#utility.yul\":10271:10307   */\n      mstore\n        /* \"#utility.yul\":10324:10342   */\n      0x64\n      add\n        /* \"contracts/MyB2B.sol\":9506:9555  require(0 < startAddLPBlock && isAddLP, \"!Trade\") */\n      tag_289\n        /* \"#utility.yul\":10019:10348   */\n      jump\n        /* \"contracts/MyB2B.sol\":9506:9555  require(0 < startAddLPBlock && isAddLP, \"!Trade\") */\n    tag_445:\n        /* \"contracts/MyB2B.sol\":9611:9626  startTradeBlock */\n      sload(0x1e)\n        /* \"contracts/MyB2B.sol\":9611:9630  startTradeBlock + 3 */\n      tag_448\n      swap1\n        /* \"contracts/MyB2B.sol\":9629:9630  3 */\n      0x03\n        /* \"contracts/MyB2B.sol\":9611:9630  startTradeBlock + 3 */\n      tag_298\n      jump\t// in\n    tag_448:\n        /* \"contracts/MyB2B.sol\":9596:9608  block.number */\n      number\n        /* \"contracts/MyB2B.sol\":9596:9630  block.number < startTradeBlock + 3 */\n      lt\n        /* \"contracts/MyB2B.sol\":9592:9772  if (block.number < startTradeBlock + 3) {... */\n      iszero\n      tag_449\n      jumpi\n        /* \"contracts/MyB2B.sol\":9654:9688  _funTransfer(from, to, amount, 99) */\n      tag_450\n        /* \"contracts/MyB2B.sol\":9667:9671  from */\n      dup8\n        /* \"contracts/MyB2B.sol\":9673:9675  to */\n      dup8\n        /* \"contracts/MyB2B.sol\":9677:9683  amount */\n      dup8\n        /* \"contracts/MyB2B.sol\":9685:9687  99 */\n      0x63\n        /* \"contracts/MyB2B.sol\":9654:9666  _funTransfer */\n      tag_451\n        /* \"contracts/MyB2B.sol\":9654:9688  _funTransfer(from, to, amount, 99) */\n      jump\t// in\n    tag_450:\n        /* \"contracts/MyB2B.sol\":9710:9725  _checkLimit(to) */\n      tag_346\n        /* \"contracts/MyB2B.sol\":9722:9724  to */\n      dup7\n        /* \"contracts/MyB2B.sol\":9710:9721  _checkLimit */\n      tag_453\n        /* \"contracts/MyB2B.sol\":9710:9725  _checkLimit(to) */\n      jump\t// in\n        /* \"contracts/MyB2B.sol\":9592:9772  if (block.number < startTradeBlock + 3) {... */\n    tag_449:\n        /* \"contracts/MyB2B.sol\":8921:9942  if (_swapPairList[from] || _swapPairList[to]) {... */\n      jump(tag_457)\n    tag_426:\n      sub(shl(0xa0, 0x01), 0x01)\n        /* \"contracts/MyB2B.sol\":9825:9838  _balances[to] */\n      dup7\n      and\n      0x00\n      swap1\n      dup2\n      mstore\n        /* \"contracts/MyB2B.sol\":9825:9834  _balances */\n      0x01\n        /* \"contracts/MyB2B.sol\":9825:9838  _balances[to] */\n      0x20\n      mstore\n      0x40\n      swap1\n      keccak256\n      sload\n        /* \"contracts/MyB2B.sol\":9820:9838  0 == _balances[to] */\n      iszero\n        /* \"contracts/MyB2B.sol\":9820:9852  0 == _balances[to] && amount > 0 */\n      dup1\n      iszero\n      tag_455\n      jumpi\n      pop\n        /* \"contracts/MyB2B.sol\":9851:9852  0 */\n      0x00\n        /* \"contracts/MyB2B.sol\":9842:9848  amount */\n      dup6\n        /* \"contracts/MyB2B.sol\":9842:9852  amount > 0 */\n      gt\n        /* \"contracts/MyB2B.sol\":9820:9852  0 == _balances[to] && amount > 0 */\n    tag_455:\n        /* \"contracts/MyB2B.sol\":9820:9872  0 == _balances[to] && amount > 0 && address(0) != to */\n      dup1\n      iszero\n      tag_456\n      jumpi\n      pop\n      sub(shl(0xa0, 0x01), 0x01)\n        /* \"contracts/MyB2B.sol\":9856:9872  address(0) != to */\n      dup7\n      and\n      iszero\n      iszero\n        /* \"contracts/MyB2B.sol\":9820:9872  0 == _balances[to] && amount > 0 && address(0) != to */\n    tag_456:\n        /* \"contracts/MyB2B.sol\":9816:9932  if (0 == _balances[to] && amount > 0 && address(0) != to) {... */\n      pop\n    tag_457:\n        /* \"contracts/MyB2B.sol\":9952:10014  _tokenTransfer(from, to, amount, takeFee, isRemoveLP, isAddLP) */\n      tag_450\n        /* \"contracts/MyB2B.sol\":9967:9971  from */\n      dup8\n        /* \"contracts/MyB2B.sol\":9973:9975  to */\n      dup8\n        /* \"contracts/MyB2B.sol\":9977:9983  amount */\n      dup8\n        /* \"contracts/MyB2B.sol\":9985:9992  takeFee */\n      dup7\n        /* \"contracts/MyB2B.sol\":9994:10004  isRemoveLP */\n      dup7\n        /* \"contracts/MyB2B.sol\":10006:10013  isAddLP */\n      dup7\n        /* \"contracts/MyB2B.sol\":9952:9966  _tokenTransfer */\n      tag_459\n        /* \"contracts/MyB2B.sol\":9952:10014  _tokenTransfer(from, to, amount, takeFee, isRemoveLP, isAddLP) */\n      jump\t// in\n        /* \"contracts/MyB2B.sol\":12247:12691  function _isRemoveLiquidity() internal view returns (bool isRemove){... */\n    tag_439:\n        /* \"contracts/MyB2B.sol\":12355:12364  _mainPair */\n      sload(0x1f)\n        /* \"contracts/MyB2B.sol\":12399:12421  mainPair.getReserves() */\n      0x40\n      dup1\n      mload\n      shl(0xe2, 0x0240bc6b)\n      dup2\n      mstore\n      swap1\n      mload\n        /* \"contracts/MyB2B.sol\":12300:12313  bool isRemove */\n      0x00\n      swap3\n      sub(shl(0xa0, 0x01), 0x01)\n        /* \"contracts/MyB2B.sol\":12355:12364  _mainPair */\n      and\n      swap2\n        /* \"contracts/MyB2B.sol\":12300:12313  bool isRemove */\n      dup4\n      swap2\n      dup3\n      swap2\n        /* \"contracts/MyB2B.sol\":12355:12364  _mainPair */\n      dup5\n      swap2\n        /* \"contracts/MyB2B.sol\":12399:12419  mainPair.getReserves */\n      0x0902f1ac\n      swap2\n        /* \"contracts/MyB2B.sol\":12399:12421  mainPair.getReserves() */\n      0x04\n      dup1\n      dup3\n      add\n      swap3\n      0x60\n      swap3\n      swap1\n      swap2\n      swap1\n      dup3\n      swap1\n      sub\n      add\n      dup2\n        /* \"contracts/MyB2B.sol\":12355:12364  _mainPair */\n      dup7\n        /* \"contracts/MyB2B.sol\":12399:12421  mainPair.getReserves() */\n      gas\n      staticcall\n      iszero\n      dup1\n      iszero\n      tag_463\n      jumpi\n      returndatasize\n      0x00\n      dup1\n      returndatacopy\n      revert(0x00, returndatasize)\n    tag_463:\n      pop\n      pop\n      pop\n      pop\n      mload(0x40)\n      returndatasize\n      not(0x1f)\n      0x1f\n      dup3\n      add\n      and\n      dup3\n      add\n      dup1\n      0x40\n      mstore\n      pop\n      dup2\n      add\n      swap1\n      tag_464\n      swap2\n      swap1\n      tag_465\n      jump\t// in\n    tag_464:\n      pop\n        /* \"contracts/MyB2B.sol\":12453:12458  _usdt */\n      sload(0x0c)\n      sub(shl(0x70, 0x01), 0x01)\n        /* \"contracts/MyB2B.sol\":12375:12421  (uint r0,uint256 r1,) = mainPair.getReserves() */\n      swap3\n      dup4\n      and\n      swap5\n      pop\n      swap2\n      and\n      swap2\n      pop\n      sub(shl(0xa0, 0x01), 0x01)\n        /* \"contracts/MyB2B.sol\":12453:12458  _usdt */\n      and\n        /* \"contracts/MyB2B.sol\":12432:12450  address tokenOther */\n      0x00\n        /* \"contracts/MyB2B.sol\":12512:12516  this */\n      address\n        /* \"contracts/MyB2B.sol\":12491:12517  tokenOther < address(this) */\n      dup3\n      lt\n        /* \"contracts/MyB2B.sol\":12487:12587  if (tokenOther < address(this)) {... */\n      iszero\n      tag_466\n      jumpi\n      pop\n        /* \"contracts/MyB2B.sol\":12537:12539  r0 */\n      dup3\n        /* \"contracts/MyB2B.sol\":12487:12587  if (tokenOther < address(this)) {... */\n      jump(tag_467)\n    tag_466:\n      pop\n        /* \"contracts/MyB2B.sol\":12574:12576  r1 */\n      dup2\n        /* \"contracts/MyB2B.sol\":12487:12587  if (tokenOther < address(this)) {... */\n    tag_467:\n        /* \"contracts/MyB2B.sol\":12608:12655  IERC20(tokenOther).balanceOf(address(mainPair)) */\n      mload(0x40)\n      shl(0xe0, 0x70a08231)\n      dup2\n      mstore\n      sub(shl(0xa0, 0x01), 0x01)\n        /* \"#utility.yul\":3037:3069   */\n      dup7\n      dup2\n      and\n        /* \"contracts/MyB2B.sol\":12608:12655  IERC20(tokenOther).balanceOf(address(mainPair)) */\n      0x04\n      dup4\n      add\n        /* \"#utility.yul\":3019:3070   */\n      mstore\n        /* \"contracts/MyB2B.sol\":12597:12605  uint bal */\n      0x00\n      swap2\n        /* \"contracts/MyB2B.sol\":12608:12636  IERC20(tokenOther).balanceOf */\n      swap1\n      dup5\n      and\n      swap1\n      0x70a08231\n      swap1\n        /* \"#utility.yul\":2992:3010   */\n      0x24\n      add\n        /* \"contracts/MyB2B.sol\":12608:12655  IERC20(tokenOther).balanceOf(address(mainPair)) */\n      0x20\n      mload(0x40)\n      dup1\n      dup4\n      sub\n      dup2\n      dup7\n      gas\n      staticcall\n      iszero\n      dup1\n      iszero\n      tag_470\n      jumpi\n      returndatasize\n      0x00\n      dup1\n      returndatacopy\n      revert(0x00, returndatasize)\n    tag_470:\n      pop\n      pop\n      pop\n      pop\n      mload(0x40)\n      returndatasize\n      not(0x1f)\n      0x1f\n      dup3\n      add\n      and\n      dup3\n      add\n      dup1\n      0x40\n      mstore\n      pop\n      dup2\n      add\n      swap1\n      tag_471\n      swap2\n      swap1\n      tag_433\n      jump\t// in\n    tag_471:\n        /* \"contracts/MyB2B.sol\":12676:12684  r >= bal */\n      swap1\n      swap2\n      lt\n      iszero\n      swap7\n        /* \"contracts/MyB2B.sol\":12247:12691  function _isRemoveLiquidity() internal view returns (bool isRemove){... */\n      swap6\n      pop\n      pop\n      pop\n      pop\n      pop\n      pop\n      jump\t// out\n        /* \"contracts/MyB2B.sol\":11807:12241  function _isAddLiquidity() internal view returns (bool isAdd){... */\n    tag_442:\n        /* \"contracts/MyB2B.sol\":11909:11918  _mainPair */\n      sload(0x1f)\n        /* \"contracts/MyB2B.sol\":11953:11975  mainPair.getReserves() */\n      0x40\n      dup1\n      mload\n      shl(0xe2, 0x0240bc6b)\n      dup2\n      mstore\n      swap1\n      mload\n        /* \"contracts/MyB2B.sol\":11857:11867  bool isAdd */\n      0x00\n      swap3\n      sub(shl(0xa0, 0x01), 0x01)\n        /* \"contracts/MyB2B.sol\":11909:11918  _mainPair */\n      and\n      swap2\n        /* \"contracts/MyB2B.sol\":11857:11867  bool isAdd */\n      dup4\n      swap2\n      dup3\n      swap2\n        /* \"contracts/MyB2B.sol\":11909:11918  _mainPair */\n      dup5\n      swap2\n        /* \"contracts/MyB2B.sol\":11953:11973  mainPair.getReserves */\n      0x0902f1ac\n      swap2\n        /* \"contracts/MyB2B.sol\":11953:11975  mainPair.getReserves() */\n      0x04\n      dup1\n      dup3\n      add\n      swap3\n      0x60\n      swap3\n      swap1\n      swap2\n      swap1\n      dup3\n      swap1\n      sub\n      add\n      dup2\n        /* \"contracts/MyB2B.sol\":11909:11918  _mainPair */\n      dup7\n        /* \"contracts/MyB2B.sol\":11953:11975  mainPair.getReserves() */\n      gas\n      staticcall\n      iszero\n      dup1\n      iszero\n      tag_474\n      jumpi\n      returndatasize\n      0x00\n      dup1\n      returndatacopy\n      revert(0x00, returndatasize)\n    tag_474:\n      pop\n      pop\n      pop\n      pop\n      mload(0x40)\n      returndatasize\n      not(0x1f)\n      0x1f\n      dup3\n      add\n      and\n      dup3\n      add\n      dup1\n      0x40\n      mstore\n      pop\n      dup2\n      add\n      swap1\n      tag_475\n      swap2\n      swap1\n      tag_465\n      jump\t// in\n    tag_475:\n      pop\n        /* \"contracts/MyB2B.sol\":12007:12012  _usdt */\n      sload(0x0c)\n      sub(shl(0x70, 0x01), 0x01)\n        /* \"contracts/MyB2B.sol\":11929:11975  (uint r0,uint256 r1,) = mainPair.getReserves() */\n      swap3\n      dup4\n      and\n      swap5\n      pop\n      swap2\n      and\n      swap2\n      pop\n      sub(shl(0xa0, 0x01), 0x01)\n        /* \"contracts/MyB2B.sol\":12007:12012  _usdt */\n      and\n        /* \"contracts/MyB2B.sol\":11986:12004  address tokenOther */\n      0x00\n        /* \"contracts/MyB2B.sol\":12066:12070  this */\n      address\n        /* \"contracts/MyB2B.sol\":12045:12071  tokenOther < address(this) */\n      dup3\n      lt\n        /* \"contracts/MyB2B.sol\":12041:12141  if (tokenOther < address(this)) {... */\n      iszero\n      tag_476\n      jumpi\n      pop\n        /* \"contracts/MyB2B.sol\":12091:12093  r0 */\n      dup3\n        /* \"contracts/MyB2B.sol\":12041:12141  if (tokenOther < address(this)) {... */\n      jump(tag_477)\n    tag_476:\n      pop\n        /* \"contracts/MyB2B.sol\":12128:12130  r1 */\n      dup2\n        /* \"contracts/MyB2B.sol\":12041:12141  if (tokenOther < address(this)) {... */\n    tag_477:\n        /* \"contracts/MyB2B.sol\":12162:12209  IERC20(tokenOther).balanceOf(address(mainPair)) */\n      mload(0x40)\n      shl(0xe0, 0x70a08231)\n      dup2\n      mstore\n      sub(shl(0xa0, 0x01), 0x01)\n        /* \"#utility.yul\":3037:3069   */\n      dup7\n      dup2\n      and\n        /* \"contracts/MyB2B.sol\":12162:12209  IERC20(tokenOther).balanceOf(address(mainPair)) */\n      0x04\n      dup4\n      add\n        /* \"#utility.yul\":3019:3070   */\n      mstore\n        /* \"contracts/MyB2B.sol\":12151:12159  uint bal */\n      0x00\n      swap2\n        /* \"contracts/MyB2B.sol\":12162:12190  IERC20(tokenOther).balanceOf */\n      swap1\n      dup5\n      and\n      swap1\n      0x70a08231\n      swap1\n        /* \"#utility.yul\":2992:3010   */\n      0x24\n      add\n        /* \"contracts/MyB2B.sol\":12162:12209  IERC20(tokenOther).balanceOf(address(mainPair)) */\n      0x20\n      mload(0x40)\n      dup1\n      dup4\n      sub\n      dup2\n      dup7\n      gas\n      staticcall\n      iszero\n      dup1\n      iszero\n      tag_480\n      jumpi\n      returndatasize\n      0x00\n      dup1\n      returndatacopy\n      revert(0x00, returndatasize)\n    tag_480:\n      pop\n      pop\n      pop\n      pop\n      mload(0x40)\n      returndatasize\n      not(0x1f)\n      0x1f\n      dup3\n      add\n      and\n      dup3\n      add\n      dup1\n      0x40\n      mstore\n      pop\n      dup2\n      add\n      swap1\n      tag_481\n      swap2\n      swap1\n      tag_433\n      jump\t// in\n    tag_481:\n        /* \"contracts/MyB2B.sol\":12227:12234  bal > r */\n      swap2\n      swap1\n      swap2\n      gt\n      swap7\n        /* \"contracts/MyB2B.sol\":11807:12241  function _isAddLiquidity() internal view returns (bool isAdd){... */\n      swap6\n      pop\n      pop\n      pop\n      pop\n      pop\n      pop\n      jump\t// out\n        /* \"contracts/MyB2B.sol\":12697:13104  function _funTransfer(... */\n    tag_451:\n      sub(shl(0xa0, 0x01), 0x01)\n        /* \"contracts/MyB2B.sol\":12860:12877  _balances[sender] */\n      dup5\n      and\n      0x00\n      swap1\n      dup2\n      mstore\n        /* \"contracts/MyB2B.sol\":12860:12869  _balances */\n      0x01\n        /* \"contracts/MyB2B.sol\":12860:12877  _balances[sender] */\n      0x20\n      mstore\n      0x40\n      swap1\n      keccak256\n      sload\n        /* \"contracts/MyB2B.sol\":12860:12887  _balances[sender] - tAmount */\n      tag_483\n      swap1\n        /* \"contracts/MyB2B.sol\":12880:12887  tAmount */\n      dup4\n      swap1\n        /* \"contracts/MyB2B.sol\":12860:12887  _balances[sender] - tAmount */\n      tag_318\n      jump\t// in\n    tag_483:\n      sub(shl(0xa0, 0x01), 0x01)\n        /* \"contracts/MyB2B.sol\":12840:12857  _balances[sender] */\n      dup6\n      and\n      0x00\n      swap1\n      dup2\n      mstore\n        /* \"contracts/MyB2B.sol\":12840:12849  _balances */\n      0x01\n        /* \"contracts/MyB2B.sol\":12840:12857  _balances[sender] */\n      0x20\n      mstore\n      0x40\n      dup2\n      keccak256\n        /* \"contracts/MyB2B.sol\":12840:12887  _balances[sender] = _balances[sender] - tAmount */\n      swap2\n      swap1\n      swap2\n      sstore\n        /* \"contracts/MyB2B.sol\":12933:12936  100 */\n      0x64\n        /* \"contracts/MyB2B.sol\":12917:12930  tAmount * fee */\n      tag_484\n        /* \"contracts/MyB2B.sol\":12927:12930  fee */\n      dup4\n        /* \"contracts/MyB2B.sol\":12917:12924  tAmount */\n      dup6\n        /* \"contracts/MyB2B.sol\":12917:12930  tAmount * fee */\n      tag_422\n      jump\t// in\n    tag_484:\n        /* \"contracts/MyB2B.sol\":12917:12936  tAmount * fee / 100 */\n      tag_485\n      swap2\n      swap1\n      tag_305\n      jump\t// in\n    tag_485:\n        /* \"contracts/MyB2B.sol\":12897:12936  uint256 feeAmount = tAmount * fee / 100 */\n      swap1\n      pop\n        /* \"contracts/MyB2B.sol\":12950:12963  feeAmount > 0 */\n      dup1\n      iszero\n        /* \"contracts/MyB2B.sol\":12946:13035  if (feeAmount > 0) {... */\n      tag_487\n      jumpi\n        /* \"contracts/MyB2B.sol\":13001:13012  fundAddress */\n      sload(0x03)\n        /* \"contracts/MyB2B.sol\":12979:13024  _takeTransfer(sender, fundAddress, feeAmount) */\n      tag_487\n      swap1\n        /* \"contracts/MyB2B.sol\":12993:12999  sender */\n      dup7\n      swap1\n      sub(shl(0xa0, 0x01), 0x01)\n        /* \"contracts/MyB2B.sol\":13001:13012  fundAddress */\n      and\n        /* \"contracts/MyB2B.sol\":13014:13023  feeAmount */\n      dup4\n        /* \"contracts/MyB2B.sol\":12979:12992  _takeTransfer */\n      tag_488\n        /* \"contracts/MyB2B.sol\":12979:13024  _takeTransfer(sender, fundAddress, feeAmount) */\n      jump\t// in\n    tag_487:\n        /* \"contracts/MyB2B.sol\":13044:13097  _takeTransfer(sender, recipient, tAmount - feeAmount) */\n      tag_489\n        /* \"contracts/MyB2B.sol\":13058:13064  sender */\n      dup6\n        /* \"contracts/MyB2B.sol\":13066:13075  recipient */\n      dup6\n        /* \"contracts/MyB2B.sol\":13077:13096  tAmount - feeAmount */\n      tag_490\n        /* \"contracts/MyB2B.sol\":13087:13096  feeAmount */\n      dup5\n        /* \"contracts/MyB2B.sol\":13077:13084  tAmount */\n      dup8\n        /* \"contracts/MyB2B.sol\":13077:13096  tAmount - feeAmount */\n      tag_318\n      jump\t// in\n    tag_490:\n        /* \"contracts/MyB2B.sol\":13044:13057  _takeTransfer */\n      tag_488\n        /* \"contracts/MyB2B.sol\":13044:13097  _takeTransfer(sender, recipient, tAmount - feeAmount) */\n      jump\t// in\n    tag_489:\n        /* \"contracts/MyB2B.sol\":12830:13104  {... */\n      pop\n        /* \"contracts/MyB2B.sol\":12697:13104  function _funTransfer(... */\n      pop\n      pop\n      pop\n      pop\n      jump\t// out\n        /* \"contracts/MyB2B.sol\":11588:11801  function _checkLimit(address to) private view {... */\n    tag_453:\n        /* \"contracts/MyB2B.sol\":11663:11664  0 */\n      0x00\n        /* \"contracts/MyB2B.sol\":11648:11660  _limitAmount */\n      sload(0x22)\n        /* \"contracts/MyB2B.sol\":11648:11664  _limitAmount > 0 */\n      gt\n        /* \"contracts/MyB2B.sol\":11648:11686  _limitAmount > 0 && !_swapPairList[to] */\n      dup1\n      iszero\n      tag_492\n      jumpi\n      pop\n      sub(shl(0xa0, 0x01), 0x01)\n        /* \"contracts/MyB2B.sol\":11669:11686  _swapPairList[to] */\n      dup2\n      and\n      0x00\n      swap1\n      dup2\n      mstore\n        /* \"contracts/MyB2B.sol\":11669:11682  _swapPairList */\n      0x0d\n        /* \"contracts/MyB2B.sol\":11669:11686  _swapPairList[to] */\n      0x20\n      mstore\n      0x40\n      swap1\n      keccak256\n      sload\n      0xff\n      and\n        /* \"contracts/MyB2B.sol\":11668:11686  !_swapPairList[to] */\n      iszero\n        /* \"contracts/MyB2B.sol\":11648:11686  _limitAmount > 0 && !_swapPairList[to] */\n    tag_492:\n        /* \"contracts/MyB2B.sol\":11648:11708  _limitAmount > 0 && !_swapPairList[to] && !_feeWhiteList[to] */\n      dup1\n      iszero\n      tag_493\n      jumpi\n      pop\n      sub(shl(0xa0, 0x01), 0x01)\n        /* \"contracts/MyB2B.sol\":11691:11708  _feeWhiteList[to] */\n      dup2\n      and\n      0x00\n      swap1\n      dup2\n      mstore\n        /* \"contracts/MyB2B.sol\":11691:11704  _feeWhiteList */\n      0x09\n        /* \"contracts/MyB2B.sol\":11691:11708  _feeWhiteList[to] */\n      0x20\n      mstore\n      0x40\n      swap1\n      keccak256\n      sload\n      0xff\n      and\n        /* \"contracts/MyB2B.sol\":11690:11708  !_feeWhiteList[to] */\n      iszero\n        /* \"contracts/MyB2B.sol\":11648:11708  _limitAmount > 0 && !_swapPairList[to] && !_feeWhiteList[to] */\n    tag_493:\n        /* \"contracts/MyB2B.sol\":11644:11795  if (_limitAmount > 0 && !_swapPairList[to] && !_feeWhiteList[to]) {... */\n      iszero\n      tag_496\n      jumpi\n      sub(shl(0xa0, 0x01), 0x01)\n        /* \"contracts/MyB2B.sol\":7321:7339  _balances[account] */\n      dup2\n      and\n        /* \"contracts/MyB2B.sol\":7295:7302  uint256 */\n      0x00\n        /* \"contracts/MyB2B.sol\":7321:7339  _balances[account] */\n      swap1\n      dup2\n      mstore\n        /* \"contracts/MyB2B.sol\":7321:7330  _balances */\n      0x01\n        /* \"contracts/MyB2B.sol\":7321:7339  _balances[account] */\n      0x20\n      mstore\n      0x40\n      swap1\n      keccak256\n      sload\n        /* \"contracts/MyB2B.sol\":11732:11744  _limitAmount */\n      sload(0x22)\n        /* \"contracts/MyB2B.sol\":11732:11761  _limitAmount >= balanceOf(to) */\n      lt\n      iszero\n        /* \"contracts/MyB2B.sol\":11724:11784  require(_limitAmount >= balanceOf(to), \"exceed LimitAmount\") */\n      tag_496\n      jumpi\n      mload(0x40)\n      shl(0xe5, 0x461bcd)\n      dup2\n      mstore\n        /* \"#utility.yul\":11203:11205   */\n      0x20\n        /* \"contracts/MyB2B.sol\":11724:11784  require(_limitAmount >= balanceOf(to), \"exceed LimitAmount\") */\n      0x04\n      dup3\n      add\n        /* \"#utility.yul\":11185:11206   */\n      mstore\n        /* \"#utility.yul\":11242:11244   */\n      0x12\n        /* \"#utility.yul\":11222:11240   */\n      0x24\n      dup3\n      add\n        /* \"#utility.yul\":11215:11245   */\n      mstore\n      shl(0x72, 0x195e18d9595908131a5b5a5d105b5bdd5b9d)\n        /* \"#utility.yul\":11261:11279   */\n      0x44\n      dup3\n      add\n        /* \"#utility.yul\":11254:11302   */\n      mstore\n        /* \"#utility.yul\":11319:11337   */\n      0x64\n      add\n        /* \"contracts/MyB2B.sol\":11724:11784  require(_limitAmount >= balanceOf(to), \"exceed LimitAmount\") */\n      tag_289\n        /* \"#utility.yul\":11001:11343   */\n      jump\n        /* \"contracts/MyB2B.sol\":11724:11784  require(_limitAmount >= balanceOf(to), \"exceed LimitAmount\") */\n    tag_496:\n        /* \"contracts/MyB2B.sol\":11588:11801  function _checkLimit(address to) private view {... */\n      pop\n      jump\t// out\n        /* \"contracts/MyB2B.sol\":13110:16514  function _tokenTransfer(... */\n    tag_459:\n      sub(shl(0xa0, 0x01), 0x01)\n        /* \"contracts/MyB2B.sol\":13323:13340  _balances[sender] */\n      dup7\n      and\n      0x00\n      swap1\n      dup2\n      mstore\n        /* \"contracts/MyB2B.sol\":13323:13332  _balances */\n      0x01\n        /* \"contracts/MyB2B.sol\":13323:13340  _balances[sender] */\n      0x20\n      mstore\n      0x40\n      swap1\n      keccak256\n      sload\n        /* \"contracts/MyB2B.sol\":13323:13350  _balances[sender] - tAmount */\n      tag_500\n      swap1\n        /* \"contracts/MyB2B.sol\":13343:13350  tAmount */\n      dup6\n      swap1\n        /* \"contracts/MyB2B.sol\":13323:13350  _balances[sender] - tAmount */\n      tag_318\n      jump\t// in\n    tag_500:\n      sub(shl(0xa0, 0x01), 0x01)\n        /* \"contracts/MyB2B.sol\":13303:13320  _balances[sender] */\n      dup8\n      and\n      0x00\n      swap1\n      dup2\n      mstore\n        /* \"contracts/MyB2B.sol\":13303:13312  _balances */\n      0x01\n        /* \"contracts/MyB2B.sol\":13303:13320  _balances[sender] */\n      0x20\n      mstore\n      0x40\n      dup2\n      keccak256\n        /* \"contracts/MyB2B.sol\":13303:13350  _balances[sender] = _balances[sender] - tAmount */\n      swap2\n      swap1\n      swap2\n      sstore\n        /* \"contracts/MyB2B.sol\":13388:16445  if (takeFee) {... */\n      dup4\n      iszero\n      tag_562\n      jumpi\n        /* \"contracts/MyB2B.sol\":13419:13429  isRemoveLP */\n      dup3\n        /* \"contracts/MyB2B.sol\":13415:16435  if (isRemoveLP) {... */\n      iszero\n      tag_502\n      jumpi\n        /* \"contracts/MyB2B.sol\":13486:13491  10000 */\n      0x2710\n        /* \"contracts/MyB2B.sol\":13471:13483  _removeLPFee */\n      sload(0x20)\n        /* \"contracts/MyB2B.sol\":13461:13468  tAmount */\n      dup7\n        /* \"contracts/MyB2B.sol\":13461:13483  tAmount * _removeLPFee */\n      tag_503\n      swap2\n      swap1\n      tag_422\n      jump\t// in\n    tag_503:\n        /* \"contracts/MyB2B.sol\":13461:13491  tAmount * _removeLPFee / 10000 */\n      tag_504\n      swap2\n      swap1\n      tag_305\n      jump\t// in\n    tag_504:\n        /* \"contracts/MyB2B.sol\":13449:13491  feeAmount = tAmount * _removeLPFee / 10000 */\n      swap1\n      pop\n        /* \"contracts/MyB2B.sol\":13513:13526  feeAmount > 0 */\n      dup1\n      iszero\n        /* \"contracts/MyB2B.sol\":13509:13614  if (feeAmount > 0) {... */\n      tag_506\n      jumpi\n        /* \"contracts/MyB2B.sol\":13572:13583  fundAddress */\n      sload(0x03)\n        /* \"contracts/MyB2B.sol\":13550:13595  _takeTransfer(sender, fundAddress, feeAmount) */\n      tag_506\n      swap1\n        /* \"contracts/MyB2B.sol\":13564:13570  sender */\n      dup9\n      swap1\n      sub(shl(0xa0, 0x01), 0x01)\n        /* \"contracts/MyB2B.sol\":13572:13583  fundAddress */\n      and\n        /* \"contracts/MyB2B.sol\":13585:13594  feeAmount */\n      dup4\n        /* \"contracts/MyB2B.sol\":13550:13563  _takeTransfer */\n      tag_488\n        /* \"contracts/MyB2B.sol\":13550:13595  _takeTransfer(sender, fundAddress, feeAmount) */\n      jump\t// in\n    tag_506:\n        /* \"contracts/MyB2B.sol\":13415:16435  if (isRemoveLP) {... */\n      jump(tag_562)\n    tag_502:\n        /* \"contracts/MyB2B.sol\":13638:13645  isAddLP */\n      dup2\n        /* \"contracts/MyB2B.sol\":13634:16435  if (isAddLP) {... */\n      iszero\n      tag_508\n      jumpi\n        /* \"contracts/MyB2B.sol\":13699:13704  10000 */\n      0x2710\n        /* \"contracts/MyB2B.sol\":13687:13696  _addLPFee */\n      sload(0x21)\n        /* \"contracts/MyB2B.sol\":13677:13684  tAmount */\n      dup7\n        /* \"contracts/MyB2B.sol\":13677:13696  tAmount * _addLPFee */\n      tag_503\n      swap2\n      swap1\n      tag_422\n      jump\t// in\n        /* \"contracts/MyB2B.sol\":13634:16435  if (isAddLP) {... */\n    tag_508:\n      sub(shl(0xa0, 0x01), 0x01)\n        /* \"contracts/MyB2B.sol\":13851:13872  _swapPairList[sender] */\n      dup8\n      and\n      0x00\n      swap1\n      dup2\n      mstore\n        /* \"contracts/MyB2B.sol\":13851:13864  _swapPairList */\n      0x0d\n        /* \"contracts/MyB2B.sol\":13851:13872  _swapPairList[sender] */\n      0x20\n      mstore\n      0x40\n      swap1\n      keccak256\n      sload\n      0xff\n      and\n        /* \"contracts/MyB2B.sol\":13847:16435  if (_swapPairList[sender]) {//Buy... */\n      iszero\n      tag_514\n      jumpi\n        /* \"contracts/MyB2B.sol\":14041:14059  uint256 fundAmount */\n      0x00\n        /* \"contracts/MyB2B.sol\":14150:14155  10000 */\n      0x2710\n        /* \"contracts/MyB2B.sol\":14137:14146  _buyLPFee */\n      sload(0x13)\n        /* \"contracts/MyB2B.sol\":14117:14134  _buyLPDividendFee */\n      sload(0x12)\n        /* \"contracts/MyB2B.sol\":14102:14114  _buyFundFee3 */\n      sload(0x11)\n        /* \"contracts/MyB2B.sol\":14087:14099  _buyFundFee2 */\n      sload(0x10)\n        /* \"contracts/MyB2B.sol\":14073:14084  _buyFundFee */\n      sload(0x0f)\n        /* \"contracts/MyB2B.sol\":14073:14099  _buyFundFee + _buyFundFee2 */\n      tag_515\n      swap2\n      swap1\n      tag_298\n      jump\t// in\n    tag_515:\n        /* \"contracts/MyB2B.sol\":14073:14114  _buyFundFee + _buyFundFee2 + _buyFundFee3 */\n      tag_516\n      swap2\n      swap1\n      tag_298\n      jump\t// in\n    tag_516:\n        /* \"contracts/MyB2B.sol\":14073:14134  _buyFundFee + _buyFundFee2 + _buyFundFee3 + _buyLPDividendFee */\n      tag_517\n      swap2\n      swap1\n      tag_298\n      jump\t// in\n    tag_517:\n        /* \"contracts/MyB2B.sol\":14073:14146  _buyFundFee + _buyFundFee2 + _buyFundFee3 + _buyLPDividendFee + _buyLPFee */\n      tag_518\n      swap2\n      swap1\n      tag_298\n      jump\t// in\n    tag_518:\n        /* \"contracts/MyB2B.sol\":14062:14147  tAmount * (_buyFundFee + _buyFundFee2 + _buyFundFee3 + _buyLPDividendFee + _buyLPFee) */\n      tag_519\n      swap1\n        /* \"contracts/MyB2B.sol\":14062:14069  tAmount */\n      dup9\n        /* \"contracts/MyB2B.sol\":14062:14147  tAmount * (_buyFundFee + _buyFundFee2 + _buyFundFee3 + _buyLPDividendFee + _buyLPFee) */\n      tag_422\n      jump\t// in\n    tag_519:\n        /* \"contracts/MyB2B.sol\":14062:14155  tAmount * (_buyFundFee + _buyFundFee2 + _buyFundFee3 + _buyLPDividendFee + _buyLPFee) / 10000 */\n      tag_520\n      swap2\n      swap1\n      tag_305\n      jump\t// in\n    tag_520:\n        /* \"contracts/MyB2B.sol\":14041:14155  uint256 fundAmount = tAmount * (_buyFundFee + _buyFundFee2 + _buyFundFee3 + _buyLPDividendFee + _buyLPFee) / 10000 */\n      swap1\n      pop\n        /* \"contracts/MyB2B.sol\":14177:14191  fundAmount > 0 */\n      dup1\n      iszero\n        /* \"contracts/MyB2B.sol\":14173:14327  if (fundAmount > 0) {... */\n      tag_523\n      jumpi\n        /* \"contracts/MyB2B.sol\":14215:14238  feeAmount += fundAmount */\n      tag_522\n        /* \"contracts/MyB2B.sol\":14228:14238  fundAmount */\n      dup2\n        /* \"contracts/MyB2B.sol\":14215:14238  feeAmount += fundAmount */\n      dup4\n      tag_298\n      jump\t// in\n    tag_522:\n      swap2\n      pop\n        /* \"contracts/MyB2B.sol\":14260:14308  _takeTransfer(sender, address(this), fundAmount) */\n      tag_523\n        /* \"contracts/MyB2B.sol\":14274:14280  sender */\n      dup9\n        /* \"contracts/MyB2B.sol\":14290:14294  this */\n      address\n        /* \"contracts/MyB2B.sol\":14297:14307  fundAmount */\n      dup4\n        /* \"contracts/MyB2B.sol\":14260:14273  _takeTransfer */\n      tag_488\n        /* \"contracts/MyB2B.sol\":14260:14308  _takeTransfer(sender, address(this), fundAmount) */\n      jump\t// in\n    tag_523:\n        /* \"contracts/MyB2B.sol\":14345:14365  uint256 burnLPAmount */\n      0x00\n        /* \"contracts/MyB2B.sol\":14396:14401  10000 */\n      0x2710\n        /* \"contracts/MyB2B.sol\":14379:14392  _buyBurnLPFee */\n      sload(0x14)\n        /* \"contracts/MyB2B.sol\":14369:14376  tAmount */\n      dup9\n        /* \"contracts/MyB2B.sol\":14369:14392  tAmount * _buyBurnLPFee */\n      tag_524\n      swap2\n      swap1\n      tag_422\n      jump\t// in\n    tag_524:\n        /* \"contracts/MyB2B.sol\":14368:14401  (tAmount * _buyBurnLPFee) / 10000 */\n      tag_525\n      swap2\n      swap1\n      tag_305\n      jump\t// in\n    tag_525:\n        /* \"contracts/MyB2B.sol\":14345:14401  uint256 burnLPAmount = (tAmount * _buyBurnLPFee) / 10000 */\n      swap1\n      pop\n        /* \"contracts/MyB2B.sol\":14423:14439  burnLPAmount > 0 */\n      dup1\n      iszero\n        /* \"contracts/MyB2B.sol\":14419:14617  if (burnLPAmount > 0) {... */\n      tag_528\n      jumpi\n        /* \"contracts/MyB2B.sol\":14463:14488  feeAmount += burnLPAmount */\n      tag_527\n        /* \"contracts/MyB2B.sol\":14476:14488  burnLPAmount */\n      dup2\n        /* \"contracts/MyB2B.sol\":14463:14488  feeAmount += burnLPAmount */\n      dup5\n      tag_298\n      jump\t// in\n    tag_527:\n      swap3\n      pop\n        /* \"contracts/MyB2B.sol\":14510:14598  _takeTransfer(sender, address(0x000000000000000000000000000000000000dEaD), burnLPAmount) */\n      tag_528\n        /* \"contracts/MyB2B.sol\":14524:14530  sender */\n      dup10\n        /* \"contracts/MyB2B.sol\":14540:14582  0x000000000000000000000000000000000000dEaD */\n      0xdead\n        /* \"contracts/MyB2B.sol\":14585:14597  burnLPAmount */\n      dup4\n        /* \"contracts/MyB2B.sol\":14510:14523  _takeTransfer */\n      tag_488\n        /* \"contracts/MyB2B.sol\":14510:14598  _takeTransfer(sender, address(0x000000000000000000000000000000000000dEaD), burnLPAmount) */\n      jump\t// in\n    tag_528:\n        /* \"contracts/MyB2B.sol\":13874:14631  {//Buy... */\n      pop\n      pop\n        /* \"contracts/MyB2B.sol\":13847:16435  if (_swapPairList[sender]) {//Buy... */\n      jump(tag_562)\n    tag_514:\n      sub(shl(0xa0, 0x01), 0x01)\n        /* \"contracts/MyB2B.sol\":14641:14665  _swapPairList[recipient] */\n      dup7\n      and\n      0x00\n      swap1\n      dup2\n      mstore\n        /* \"contracts/MyB2B.sol\":14641:14654  _swapPairList */\n      0x0d\n        /* \"contracts/MyB2B.sol\":14641:14665  _swapPairList[recipient] */\n      0x20\n      mstore\n      0x40\n      swap1\n      keccak256\n      sload\n      0xff\n      and\n        /* \"contracts/MyB2B.sol\":14637:16435  if (_swapPairList[recipient]) {//Sell... */\n      iszero\n      tag_530\n      jumpi\n        /* \"contracts/MyB2B.sol\":14832:14850  uint256 fundAmount */\n      0x00\n        /* \"contracts/MyB2B.sol\":14946:14951  10000 */\n      0x2710\n        /* \"contracts/MyB2B.sol\":14932:14942  _sellLPFee */\n      sload(0x19)\n        /* \"contracts/MyB2B.sol\":14911:14929  _sellLPDividendFee */\n      sload(0x18)\n        /* \"contracts/MyB2B.sol\":14895:14908  _sellFundFee3 */\n      sload(0x17)\n        /* \"contracts/MyB2B.sol\":14879:14892  _sellFundFee2 */\n      sload(0x16)\n        /* \"contracts/MyB2B.sol\":14864:14876  _sellFundFee */\n      sload(0x15)\n        /* \"contracts/MyB2B.sol\":14864:14892  _sellFundFee + _sellFundFee2 */\n      tag_531\n      swap2\n      swap1\n      tag_298\n      jump\t// in\n    tag_531:\n        /* \"contracts/MyB2B.sol\":14864:14908  _sellFundFee + _sellFundFee2 + _sellFundFee3 */\n      tag_532\n      swap2\n      swap1\n      tag_298\n      jump\t// in\n    tag_532:\n        /* \"contracts/MyB2B.sol\":14864:14929  _sellFundFee + _sellFundFee2 + _sellFundFee3 + _sellLPDividendFee */\n      tag_533\n      swap2\n      swap1\n      tag_298\n      jump\t// in\n    tag_533:\n        /* \"contracts/MyB2B.sol\":14864:14942  _sellFundFee + _sellFundFee2 + _sellFundFee3 + _sellLPDividendFee + _sellLPFee */\n      tag_534\n      swap2\n      swap1\n      tag_298\n      jump\t// in\n    tag_534:\n        /* \"contracts/MyB2B.sol\":14853:14943  tAmount * (_sellFundFee + _sellFundFee2 + _sellFundFee3 + _sellLPDividendFee + _sellLPFee) */\n      tag_535\n      swap1\n        /* \"contracts/MyB2B.sol\":14853:14860  tAmount */\n      dup9\n        /* \"contracts/MyB2B.sol\":14853:14943  tAmount * (_sellFundFee + _sellFundFee2 + _sellFundFee3 + _sellLPDividendFee + _sellLPFee) */\n      tag_422\n      jump\t// in\n    tag_535:\n        /* \"contracts/MyB2B.sol\":14853:14951  tAmount * (_sellFundFee + _sellFundFee2 + _sellFundFee3 + _sellLPDividendFee + _sellLPFee) / 10000 */\n      tag_536\n      swap2\n      swap1\n      tag_305\n      jump\t// in\n    tag_536:\n        /* \"contracts/MyB2B.sol\":14832:14951  uint256 fundAmount = tAmount * (_sellFundFee + _sellFundFee2 + _sellFundFee3 + _sellLPDividendFee + _sellLPFee) / 10000 */\n      swap1\n      pop\n        /* \"contracts/MyB2B.sol\":14973:14987  fundAmount > 0 */\n      dup1\n      iszero\n        /* \"contracts/MyB2B.sol\":14969:15123  if (fundAmount > 0) {... */\n      tag_539\n      jumpi\n        /* \"contracts/MyB2B.sol\":15011:15034  feeAmount += fundAmount */\n      tag_538\n        /* \"contracts/MyB2B.sol\":15024:15034  fundAmount */\n      dup2\n        /* \"contracts/MyB2B.sol\":15011:15034  feeAmount += fundAmount */\n      dup4\n      tag_298\n      jump\t// in\n    tag_538:\n      swap2\n      pop\n        /* \"contracts/MyB2B.sol\":15056:15104  _takeTransfer(sender, address(this), fundAmount) */\n      tag_539\n        /* \"contracts/MyB2B.sol\":15070:15076  sender */\n      dup9\n        /* \"contracts/MyB2B.sol\":15086:15090  this */\n      address\n        /* \"contracts/MyB2B.sol\":15093:15103  fundAmount */\n      dup4\n        /* \"contracts/MyB2B.sol\":15056:15069  _takeTransfer */\n      tag_488\n        /* \"contracts/MyB2B.sol\":15056:15104  _takeTransfer(sender, address(this), fundAmount) */\n      jump\t// in\n    tag_539:\n        /* \"contracts/MyB2B.sol\":15141:15161  uint256 burnLPAmount */\n      0x00\n        /* \"contracts/MyB2B.sol\":15193:15198  10000 */\n      0x2710\n        /* \"contracts/MyB2B.sol\":15175:15189  _sellBurnLPFee */\n      sload(0x1a)\n        /* \"contracts/MyB2B.sol\":15165:15172  tAmount */\n      dup9\n        /* \"contracts/MyB2B.sol\":15165:15189  tAmount * _sellBurnLPFee */\n      tag_540\n      swap2\n      swap1\n      tag_422\n      jump\t// in\n    tag_540:\n        /* \"contracts/MyB2B.sol\":15164:15198  (tAmount * _sellBurnLPFee) / 10000 */\n      tag_541\n      swap2\n      swap1\n      tag_305\n      jump\t// in\n    tag_541:\n        /* \"contracts/MyB2B.sol\":15141:15198  uint256 burnLPAmount = (tAmount * _sellBurnLPFee) / 10000 */\n      swap1\n      pop\n        /* \"contracts/MyB2B.sol\":15220:15236  burnLPAmount > 0 */\n      dup1\n      iszero\n        /* \"contracts/MyB2B.sol\":15216:15414  if (burnLPAmount > 0) {... */\n      tag_544\n      jumpi\n        /* \"contracts/MyB2B.sol\":15260:15285  feeAmount += burnLPAmount */\n      tag_543\n        /* \"contracts/MyB2B.sol\":15273:15285  burnLPAmount */\n      dup2\n        /* \"contracts/MyB2B.sol\":15260:15285  feeAmount += burnLPAmount */\n      dup5\n      tag_298\n      jump\t// in\n    tag_543:\n      swap3\n      pop\n        /* \"contracts/MyB2B.sol\":15307:15395  _takeTransfer(sender, address(0x000000000000000000000000000000000000dEaD), burnLPAmount) */\n      tag_544\n        /* \"contracts/MyB2B.sol\":15321:15327  sender */\n      dup10\n        /* \"contracts/MyB2B.sol\":15337:15379  0x000000000000000000000000000000000000dEaD */\n      0xdead\n        /* \"contracts/MyB2B.sol\":15382:15394  burnLPAmount */\n      dup4\n        /* \"contracts/MyB2B.sol\":15307:15320  _takeTransfer */\n      tag_488\n        /* \"contracts/MyB2B.sol\":15307:15395  _takeTransfer(sender, address(0x000000000000000000000000000000000000dEaD), burnLPAmount) */\n      jump\t// in\n    tag_544:\n        /* \"contracts/MyB2B.sol\":15432:15450  uint256 burnAmount */\n      0x00\n        /* \"contracts/MyB2B.sol\":15480:15485  10000 */\n      0x2710\n        /* \"contracts/MyB2B.sol\":15464:15476  _sellBurnFee */\n      sload(0x1b)\n        /* \"contracts/MyB2B.sol\":15454:15461  tAmount */\n      dup10\n        /* \"contracts/MyB2B.sol\":15454:15476  tAmount * _sellBurnFee */\n      tag_545\n      swap2\n      swap1\n      tag_422\n      jump\t// in\n    tag_545:\n        /* \"contracts/MyB2B.sol\":15453:15485  (tAmount * _sellBurnFee) / 10000 */\n      tag_546\n      swap2\n      swap1\n      tag_305\n      jump\t// in\n    tag_546:\n        /* \"contracts/MyB2B.sol\":15432:15485  uint256 burnAmount = (tAmount * _sellBurnFee) / 10000 */\n      swap1\n      pop\n        /* \"contracts/MyB2B.sol\":15507:15521  burnAmount > 0 */\n      dup1\n      iszero\n        /* \"contracts/MyB2B.sol\":15503:15695  if (burnAmount > 0) {... */\n      tag_549\n      jumpi\n        /* \"contracts/MyB2B.sol\":15545:15568  feeAmount += burnAmount */\n      tag_548\n        /* \"contracts/MyB2B.sol\":15558:15568  burnAmount */\n      dup2\n        /* \"contracts/MyB2B.sol\":15545:15568  feeAmount += burnAmount */\n      dup6\n      tag_298\n      jump\t// in\n    tag_548:\n      swap4\n      pop\n        /* \"contracts/MyB2B.sol\":15590:15676  _takeTransfer(sender, address(0x000000000000000000000000000000000000dEaD), burnAmount) */\n      tag_549\n        /* \"contracts/MyB2B.sol\":15604:15610  sender */\n      dup11\n        /* \"contracts/MyB2B.sol\":15620:15662  0x000000000000000000000000000000000000dEaD */\n      0xdead\n        /* \"contracts/MyB2B.sol\":15665:15675  burnAmount */\n      dup4\n        /* \"contracts/MyB2B.sol\":15590:15603  _takeTransfer */\n      tag_488\n        /* \"contracts/MyB2B.sol\":15590:15676  _takeTransfer(sender, address(0x000000000000000000000000000000000000dEaD), burnAmount) */\n      jump\t// in\n    tag_549:\n        /* \"contracts/MyB2B.sol\":15718:15724  inSwap */\n      and(0xff, sload(0x0e))\n        /* \"contracts/MyB2B.sol\":15713:16208  if (!inSwap) {... */\n      tag_550\n      jumpi\n        /* \"contracts/MyB2B.sol\":15797:15801  this */\n      address\n        /* \"contracts/MyB2B.sol\":15748:15776  uint256 contractTokenBalance */\n      0x00\n        /* \"contracts/MyB2B.sol\":7321:7339  _balances[account] */\n      swap1\n      dup2\n      mstore\n        /* \"contracts/MyB2B.sol\":7321:7330  _balances */\n      0x01\n        /* \"contracts/MyB2B.sol\":7321:7339  _balances[account] */\n      0x20\n      mstore\n      0x40\n      swap1\n      keccak256\n      sload\n        /* \"contracts/MyB2B.sol\":15829:15853  contractTokenBalance > 0 */\n      dup1\n      iszero\n        /* \"contracts/MyB2B.sol\":15825:16190  if (contractTokenBalance > 0) {... */\n      tag_552\n      jumpi\n        /* \"contracts/MyB2B.sol\":15881:15908  uint256 numTokensSellToFund */\n      0x00\n        /* \"contracts/MyB2B.sol\":15930:15932  50 */\n      0x32\n        /* \"contracts/MyB2B.sol\":15911:15927  fundAmount * 230 */\n      tag_553\n        /* \"contracts/MyB2B.sol\":15911:15921  fundAmount */\n      dup7\n        /* \"contracts/MyB2B.sol\":15924:15927  230 */\n      0xe6\n        /* \"contracts/MyB2B.sol\":15911:15927  fundAmount * 230 */\n      tag_422\n      jump\t// in\n    tag_553:\n        /* \"contracts/MyB2B.sol\":15911:15932  fundAmount * 230 / 50 */\n      tag_554\n      swap2\n      swap1\n      tag_305\n      jump\t// in\n    tag_554:\n        /* \"contracts/MyB2B.sol\":15881:15932  uint256 numTokensSellToFund = fundAmount * 230 / 50 */\n      swap1\n      pop\n        /* \"contracts/MyB2B.sol\":15984:16004  contractTokenBalance */\n      dup2\n        /* \"contracts/MyB2B.sol\":15962:15981  numTokensSellToFund */\n      dup2\n        /* \"contracts/MyB2B.sol\":15962:16004  numTokensSellToFund > contractTokenBalance */\n      gt\n        /* \"contracts/MyB2B.sol\":15958:16105  if (numTokensSellToFund > contractTokenBalance) {... */\n      iszero\n      tag_555\n      jumpi\n      pop\n        /* \"contracts/MyB2B.sol\":16058:16078  contractTokenBalance */\n      dup1\n        /* \"contracts/MyB2B.sol\":15958:16105  if (numTokensSellToFund > contractTokenBalance) {... */\n    tag_555:\n        /* \"contracts/MyB2B.sol\":16130:16167  swapTokenForFund(numTokensSellToFund) */\n      tag_556\n        /* \"contracts/MyB2B.sol\":16147:16166  numTokensSellToFund */\n      dup2\n        /* \"contracts/MyB2B.sol\":16130:16146  swapTokenForFund */\n      tag_557\n        /* \"contracts/MyB2B.sol\":16130:16167  swapTokenForFund(numTokensSellToFund) */\n      jump\t// in\n    tag_556:\n        /* \"contracts/MyB2B.sol\":15855:16190  {... */\n      pop\n        /* \"contracts/MyB2B.sol\":15825:16190  if (contractTokenBalance > 0) {... */\n    tag_552:\n        /* \"contracts/MyB2B.sol\":15726:16208  {... */\n      pop\n        /* \"contracts/MyB2B.sol\":15713:16208  if (!inSwap) {... */\n    tag_550:\n        /* \"contracts/MyB2B.sol\":14667:16222  {//Sell... */\n      pop\n      pop\n      pop\n        /* \"contracts/MyB2B.sol\":14637:16435  if (_swapPairList[recipient]) {//Sell... */\n      jump(tag_562)\n    tag_530:\n        /* \"contracts/MyB2B.sol\":16293:16298  10000 */\n      0x2710\n        /* \"contracts/MyB2B.sol\":16278:16290  _transferFee */\n      sload(0x1c)\n        /* \"contracts/MyB2B.sol\":16268:16275  tAmount */\n      dup7\n        /* \"contracts/MyB2B.sol\":16268:16290  tAmount * _transferFee */\n      tag_559\n      swap2\n      swap1\n      tag_422\n      jump\t// in\n    tag_559:\n        /* \"contracts/MyB2B.sol\":16268:16298  tAmount * _transferFee / 10000 */\n      tag_560\n      swap2\n      swap1\n      tag_305\n      jump\t// in\n    tag_560:\n        /* \"contracts/MyB2B.sol\":16256:16298  feeAmount = tAmount * _transferFee / 10000 */\n      swap1\n      pop\n        /* \"contracts/MyB2B.sol\":16320:16333  feeAmount > 0 */\n      dup1\n      iszero\n        /* \"contracts/MyB2B.sol\":16316:16421  if (feeAmount > 0) {... */\n      tag_562\n      jumpi\n        /* \"contracts/MyB2B.sol\":16379:16390  fundAddress */\n      sload(0x03)\n        /* \"contracts/MyB2B.sol\":16357:16402  _takeTransfer(sender, fundAddress, feeAmount) */\n      tag_562\n      swap1\n        /* \"contracts/MyB2B.sol\":16371:16377  sender */\n      dup9\n      swap1\n      sub(shl(0xa0, 0x01), 0x01)\n        /* \"contracts/MyB2B.sol\":16379:16390  fundAddress */\n      and\n        /* \"contracts/MyB2B.sol\":16392:16401  feeAmount */\n      dup4\n        /* \"contracts/MyB2B.sol\":16357:16370  _takeTransfer */\n      tag_488\n        /* \"contracts/MyB2B.sol\":16357:16402  _takeTransfer(sender, fundAddress, feeAmount) */\n      jump\t// in\n    tag_562:\n        /* \"contracts/MyB2B.sol\":16454:16507  _takeTransfer(sender, recipient, tAmount - feeAmount) */\n      tag_346\n        /* \"contracts/MyB2B.sol\":16468:16474  sender */\n      dup8\n        /* \"contracts/MyB2B.sol\":16476:16485  recipient */\n      dup8\n        /* \"contracts/MyB2B.sol\":16487:16506  tAmount - feeAmount */\n      tag_490\n        /* \"contracts/MyB2B.sol\":16497:16506  feeAmount */\n      dup5\n        /* \"contracts/MyB2B.sol\":16487:16494  tAmount */\n      dup10\n        /* \"contracts/MyB2B.sol\":16487:16506  tAmount - feeAmount */\n      tag_318\n      jump\t// in\n        /* \"contracts/MyB2B.sol\":19336:19542  function _takeTransfer(... */\n    tag_488:\n      sub(shl(0xa0, 0x01), 0x01)\n        /* \"contracts/MyB2B.sol\":19468:19481  _balances[to] */\n      dup3\n      and\n      0x00\n      swap1\n      dup2\n      mstore\n        /* \"contracts/MyB2B.sol\":19468:19477  _balances */\n      0x01\n        /* \"contracts/MyB2B.sol\":19468:19481  _balances[to] */\n      0x20\n      mstore\n      0x40\n      swap1\n      keccak256\n      sload\n        /* \"contracts/MyB2B.sol\":19468:19491  _balances[to] + tAmount */\n      tag_566\n      swap1\n        /* \"contracts/MyB2B.sol\":19484:19491  tAmount */\n      dup3\n      swap1\n        /* \"contracts/MyB2B.sol\":19468:19491  _balances[to] + tAmount */\n      tag_298\n      jump\t// in\n    tag_566:\n      sub(shl(0xa0, 0x01), 0x01)\n        /* \"contracts/MyB2B.sol\":19452:19465  _balances[to] */\n      dup1\n      dup5\n      and\n      0x00\n      dup2\n      dup2\n      mstore\n        /* \"contracts/MyB2B.sol\":19452:19461  _balances */\n      0x01\n        /* \"contracts/MyB2B.sol\":19452:19465  _balances[to] */\n      0x20\n      mstore\n      0x40\n      swap1\n      dup2\n      swap1\n      keccak256\n        /* \"contracts/MyB2B.sol\":19452:19491  _balances[to] = _balances[to] + tAmount */\n      swap4\n      swap1\n      swap4\n      sstore\n        /* \"contracts/MyB2B.sol\":19506:19535  Transfer(sender, to, tAmount) */\n      swap2\n      mload\n      swap1\n      dup6\n      and\n      swap1\n      0xddf252ad1be2c89b69c2b068fc378daa952ba7f163c4a11628f55a4df523b3ef\n      swap1\n      tag_413\n      swap1\n        /* \"contracts/MyB2B.sol\":19527:19534  tAmount */\n      dup6\n        /* \"#utility.yul\":1342:1367   */\n      dup2\n      mstore\n        /* \"#utility.yul\":1330:1332   */\n      0x20\n        /* \"#utility.yul\":1315:1333   */\n      add\n      swap1\n        /* \"#utility.yul\":1196:1373   */\n      jump\n        /* \"contracts/MyB2B.sol\":17394:19330  function swapTokenForFund(uint256 tokenAmount) private lockTheSwap {... */\n    tag_557:\n        /* \"contracts/MyB2B.sol\":4876:4882  inSwap */\n      0x0e\n        /* \"contracts/MyB2B.sol\":4876:4889  inSwap = true */\n      dup1\n      sload\n      not(0xff)\n      and\n        /* \"contracts/MyB2B.sol\":4885:4889  true */\n      0x01\n        /* \"contracts/MyB2B.sol\":4876:4889  inSwap = true */\n      or\n      swap1\n      sstore\n        /* \"contracts/MyB2B.sol\":17471:17524  if (0 == tokenAmount) {... */\n      dup1\n      iszero\n        /* \"contracts/MyB2B.sol\":17507:17514  return; */\n      tag_569\n        /* \"contracts/MyB2B.sol\":17471:17524  if (0 == tokenAmount) {... */\n      jumpi\n        /* \"contracts/MyB2B.sol\":17533:17548  uint256 fundFee */\n      0x00\n        /* \"contracts/MyB2B.sol\":17565:17577  _sellFundFee */\n      sload(0x15)\n        /* \"contracts/MyB2B.sol\":17551:17562  _buyFundFee */\n      sload(0x0f)\n        /* \"contracts/MyB2B.sol\":17551:17577  _buyFundFee + _sellFundFee */\n      tag_571\n      swap2\n      swap1\n      tag_298\n      jump\t// in\n    tag_571:\n        /* \"contracts/MyB2B.sol\":17533:17577  uint256 fundFee = _buyFundFee + _sellFundFee */\n      swap1\n      pop\n        /* \"contracts/MyB2B.sol\":17587:17603  uint256 fundFee2 */\n      0x00\n        /* \"contracts/MyB2B.sol\":17621:17634  _sellFundFee2 */\n      sload(0x16)\n        /* \"contracts/MyB2B.sol\":17606:17618  _buyFundFee2 */\n      sload(0x10)\n        /* \"contracts/MyB2B.sol\":17606:17634  _buyFundFee2 + _sellFundFee2 */\n      tag_572\n      swap2\n      swap1\n      tag_298\n      jump\t// in\n    tag_572:\n        /* \"contracts/MyB2B.sol\":17587:17634  uint256 fundFee2 = _buyFundFee2 + _sellFundFee2 */\n      swap1\n      pop\n        /* \"contracts/MyB2B.sol\":17644:17660  uint256 fundFee3 */\n      0x00\n        /* \"contracts/MyB2B.sol\":17678:17691  _sellFundFee3 */\n      sload(0x17)\n        /* \"contracts/MyB2B.sol\":17663:17675  _buyFundFee3 */\n      sload(0x11)\n        /* \"contracts/MyB2B.sol\":17663:17691  _buyFundFee3 + _sellFundFee3 */\n      tag_573\n      swap2\n      swap1\n      tag_298\n      jump\t// in\n    tag_573:\n        /* \"contracts/MyB2B.sol\":17644:17691  uint256 fundFee3 = _buyFundFee3 + _sellFundFee3 */\n      swap1\n      pop\n        /* \"contracts/MyB2B.sol\":17701:17722  uint256 lpDividendFee */\n      0x00\n        /* \"contracts/MyB2B.sol\":17745:17763  _sellLPDividendFee */\n      sload(0x18)\n        /* \"contracts/MyB2B.sol\":17725:17742  _buyLPDividendFee */\n      sload(0x12)\n        /* \"contracts/MyB2B.sol\":17725:17763  _buyLPDividendFee + _sellLPDividendFee */\n      tag_574\n      swap2\n      swap1\n      tag_298\n      jump\t// in\n    tag_574:\n        /* \"contracts/MyB2B.sol\":17701:17763  uint256 lpDividendFee = _buyLPDividendFee + _sellLPDividendFee */\n      swap1\n      pop\n        /* \"contracts/MyB2B.sol\":17773:17786  uint256 lpFee */\n      0x00\n        /* \"contracts/MyB2B.sol\":17801:17811  _sellLPFee */\n      sload(0x19)\n        /* \"contracts/MyB2B.sol\":17789:17798  _buyLPFee */\n      sload(0x13)\n        /* \"contracts/MyB2B.sol\":17789:17811  _buyLPFee + _sellLPFee */\n      tag_575\n      swap2\n      swap1\n      tag_298\n      jump\t// in\n    tag_575:\n        /* \"contracts/MyB2B.sol\":17773:17811  uint256 lpFee = _buyLPFee + _sellLPFee */\n      swap1\n      pop\n        /* \"contracts/MyB2B.sol\":17821:17837  uint256 totalFee */\n      0x00\n        /* \"contracts/MyB2B.sol\":17773:17811  uint256 lpFee = _buyLPFee + _sellLPFee */\n      dup2\n        /* \"contracts/MyB2B.sol\":17872:17885  lpDividendFee */\n      dup4\n        /* \"contracts/MyB2B.sol\":17861:17869  fundFee3 */\n      dup6\n        /* \"contracts/MyB2B.sol\":17840:17858  fundFee + fundFee2 */\n      tag_576\n        /* \"contracts/MyB2B.sol\":17850:17858  fundFee2 */\n      dup9\n        /* \"contracts/MyB2B.sol\":17840:17847  fundFee */\n      dup11\n        /* \"contracts/MyB2B.sol\":17840:17858  fundFee + fundFee2 */\n      tag_298\n      jump\t// in\n    tag_576:\n        /* \"contracts/MyB2B.sol\":17840:17869  fundFee + fundFee2 + fundFee3 */\n      tag_577\n      swap2\n      swap1\n      tag_298\n      jump\t// in\n    tag_577:\n        /* \"contracts/MyB2B.sol\":17840:17885  fundFee + fundFee2 + fundFee3 + lpDividendFee */\n      tag_578\n      swap2\n      swap1\n      tag_298\n      jump\t// in\n    tag_578:\n        /* \"contracts/MyB2B.sol\":17840:17893  fundFee + fundFee2 + fundFee3 + lpDividendFee + lpFee */\n      tag_579\n      swap2\n      swap1\n      tag_298\n      jump\t// in\n    tag_579:\n        /* \"contracts/MyB2B.sol\":17821:17893  uint256 totalFee = fundFee + fundFee2 + fundFee3 + lpDividendFee + lpFee */\n      swap1\n      pop\n        /* \"contracts/MyB2B.sol\":17904:17924  totalFee += totalFee */\n      tag_580\n        /* \"contracts/MyB2B.sol\":17821:17893  uint256 totalFee = fundFee + fundFee2 + fundFee3 + lpDividendFee + lpFee */\n      dup2\n      dup1\n        /* \"contracts/MyB2B.sol\":17904:17924  totalFee += totalFee */\n      tag_298\n      jump\t// in\n    tag_580:\n      swap1\n      pop\n        /* \"contracts/MyB2B.sol\":17934:17950  uint256 lpAmount */\n      0x00\n        /* \"contracts/MyB2B.sol\":17904:17924  totalFee += totalFee */\n      dup2\n        /* \"contracts/MyB2B.sol\":17953:17972  tokenAmount * lpFee */\n      tag_581\n        /* \"contracts/MyB2B.sol\":17967:17972  lpFee */\n      dup5\n        /* \"contracts/MyB2B.sol\":17953:17964  tokenAmount */\n      dup11\n        /* \"contracts/MyB2B.sol\":17953:17972  tokenAmount * lpFee */\n      tag_422\n      jump\t// in\n    tag_581:\n        /* \"contracts/MyB2B.sol\":17953:17983  tokenAmount * lpFee / totalFee */\n      tag_582\n      swap2\n      swap1\n      tag_305\n      jump\t// in\n    tag_582:\n        /* \"contracts/MyB2B.sol\":17934:17983  uint256 lpAmount = tokenAmount * lpFee / totalFee */\n      swap1\n      pop\n        /* \"contracts/MyB2B.sol\":17993:18010  totalFee -= lpFee */\n      tag_583\n        /* \"contracts/MyB2B.sol\":18005:18010  lpFee */\n      dup4\n        /* \"contracts/MyB2B.sol\":17993:18010  totalFee -= lpFee */\n      dup4\n      tag_318\n      jump\t// in\n    tag_583:\n        /* \"contracts/MyB2B.sol\":18045:18061  new address[](2) */\n      0x40\n      dup1\n      mload\n        /* \"contracts/MyB2B.sol\":18059:18060  2 */\n      0x02\n        /* \"contracts/MyB2B.sol\":18045:18061  new address[](2) */\n      dup1\n      dup3\n      mstore\n      0x60\n      dup3\n      add\n      dup4\n      mstore\n        /* \"contracts/MyB2B.sol\":17993:18010  totalFee -= lpFee */\n      swap3\n      swap5\n      pop\n        /* \"contracts/MyB2B.sol\":18021:18042  address[] memory path */\n      0x00\n      swap3\n        /* \"contracts/MyB2B.sol\":18045:18061  new address[](2) */\n      swap1\n      swap2\n      0x20\n      dup4\n      add\n      swap1\n      dup1\n      calldatasize\n      dup4\n      calldatacopy\n      pop\n      pop\n        /* \"contracts/MyB2B.sol\":18086:18091  _usdt */\n      sload(0x0c)\n        /* \"contracts/MyB2B.sol\":18101:18108  path[0] */\n      dup3\n      mload\n      swap3\n      swap4\n      pop\n      sub(shl(0xa0, 0x01), 0x01)\n        /* \"contracts/MyB2B.sol\":18086:18091  _usdt */\n      and\n      swap2\n        /* \"contracts/MyB2B.sol\":18119:18123  this */\n      address\n      swap2\n      pop\n        /* \"contracts/MyB2B.sol\":18101:18108  path[0] */\n      dup4\n      swap1\n        /* \"contracts/MyB2B.sol\":18071:18083  address usdt */\n      0x00\n      swap1\n        /* \"contracts/MyB2B.sol\":18101:18108  path[0] */\n      tag_589\n      jumpi\n      tag_589\n      tag_381\n      jump\t// in\n    tag_589:\n      0x20\n      mul\n      0x20\n      add\n      add\n        /* \"contracts/MyB2B.sol\":18101:18124  path[0] = address(this) */\n      swap1\n      sub(shl(0xa0, 0x01), 0x01)\n      and\n      swap1\n      dup2\n      sub(shl(0xa0, 0x01), 0x01)\n      and\n      dup2\n      mstore\n      pop\n      pop\n        /* \"contracts/MyB2B.sol\":18144:18148  usdt */\n      dup1\n        /* \"contracts/MyB2B.sol\":18134:18138  path */\n      dup3\n        /* \"contracts/MyB2B.sol\":18139:18140  1 */\n      0x01\n        /* \"contracts/MyB2B.sol\":18134:18141  path[1] */\n      dup2\n      mload\n      dup2\n      lt\n      tag_591\n      jumpi\n      tag_591\n      tag_381\n      jump\t// in\n    tag_591:\n      sub(shl(0xa0, 0x01), 0x01)\n        /* \"contracts/MyB2B.sol\":18134:18148  path[1] = usdt */\n      swap3\n      dup4\n      and\n        /* \"contracts/MyB2B.sol\":18134:18141  path[1] */\n      0x20\n      swap2\n      dup3\n      mul\n      swap3\n      swap1\n      swap3\n      add\n      add\n        /* \"contracts/MyB2B.sol\":18134:18148  path[1] = usdt */\n      mstore\n        /* \"contracts/MyB2B.sol\":18193:18210  _tokenDistributor */\n      sload(0x0e)\n        /* \"contracts/MyB2B.sol\":18221:18232  _swapRouter */\n      sload(0x0b)\n        /* \"contracts/MyB2B.sol\":18193:18210  _tokenDistributor */\n      0x0100\n      swap1\n      swap2\n      div\n      dup3\n      and\n      swap2\n        /* \"contracts/MyB2B.sol\":18221:18232  _swapRouter */\n      and\n        /* \"contracts/MyB2B.sol\":18221:18286  _swapRouter.swapExactTokensForTokensSupportingFeeOnTransferTokens */\n      0x5c11d795\n        /* \"contracts/MyB2B.sol\":18300:18322  tokenAmount - lpAmount */\n      tag_592\n        /* \"contracts/MyB2B.sol\":18314:18322  lpAmount */\n      dup7\n        /* \"contracts/MyB2B.sol\":18300:18311  tokenAmount */\n      dup15\n        /* \"contracts/MyB2B.sol\":18300:18322  tokenAmount - lpAmount */\n      tag_318\n      jump\t// in\n    tag_592:\n        /* \"contracts/MyB2B.sol\":18336:18337  0 */\n      0x00\n        /* \"contracts/MyB2B.sol\":18351:18355  path */\n      dup7\n        /* \"contracts/MyB2B.sol\":18369:18385  tokenDistributor */\n      dup6\n        /* \"contracts/MyB2B.sol\":18399:18414  block.timestamp */\n      timestamp\n        /* \"contracts/MyB2B.sol\":18221:18424  _swapRouter.swapExactTokensForTokensSupportingFeeOnTransferTokens(... */\n      mload(0x40)\n      dup7\n      0xffffffff\n      and\n      0xe0\n      shl\n      dup2\n      mstore\n      0x04\n      add\n      tag_593\n      swap6\n      swap5\n      swap4\n      swap3\n      swap2\n      swap1\n      tag_594\n      jump\t// in\n    tag_593:\n      0x00\n      mload(0x40)\n      dup1\n      dup4\n      sub\n      dup2\n      0x00\n      dup8\n      dup1\n      extcodesize\n      iszero\n      dup1\n      iszero\n      tag_595\n      jumpi\n      0x00\n      dup1\n      revert\n    tag_595:\n      pop\n      gas\n      call\n      iszero\n      dup1\n      iszero\n      tag_597\n      jumpi\n      returndatasize\n      0x00\n      dup1\n      returndatacopy\n      revert(0x00, returndatasize)\n    tag_597:\n      pop\n      pop\n        /* \"contracts/MyB2B.sol\":18493:18525  USDT.balanceOf(tokenDistributor) */\n      mload(0x40)\n      shl(0xe0, 0x70a08231)\n      dup2\n      mstore\n      sub(shl(0xa0, 0x01), 0x01)\n        /* \"#utility.yul\":3037:3069   */\n      dup5\n      dup2\n      and\n        /* \"contracts/MyB2B.sol\":18493:18525  USDT.balanceOf(tokenDistributor) */\n      0x04\n      dup4\n      add\n        /* \"#utility.yul\":3019:3070   */\n      mstore\n        /* \"contracts/MyB2B.sol\":18456:18460  usdt */\n      dup6\n      swap4\n      pop\n        /* \"contracts/MyB2B.sol\":18435:18446  IERC20 USDT */\n      0x00\n      swap3\n      pop\n        /* \"contracts/MyB2B.sol\":18493:18507  USDT.balanceOf */\n      dup4\n      and\n      swap1\n      0x70a08231\n      swap1\n        /* \"#utility.yul\":2992:3010   */\n      0x24\n      add\n        /* \"contracts/MyB2B.sol\":18493:18525  USDT.balanceOf(tokenDistributor) */\n      0x20\n      mload(0x40)\n      dup1\n      dup4\n      sub\n      dup2\n      dup7\n      gas\n      staticcall\n      iszero\n      dup1\n      iszero\n      tag_600\n      jumpi\n      returndatasize\n      0x00\n      dup1\n      returndatacopy\n      revert(0x00, returndatasize)\n    tag_600:\n      pop\n      pop\n      pop\n      pop\n      mload(0x40)\n      returndatasize\n      not(0x1f)\n      0x1f\n      dup3\n      add\n      and\n      dup3\n      add\n      dup1\n      0x40\n      mstore\n      pop\n      dup2\n      add\n      swap1\n      tag_601\n      swap2\n      swap1\n      tag_433\n      jump\t// in\n    tag_601:\n        /* \"contracts/MyB2B.sol\":18535:18598  USDT.transferFrom(tokenDistributor, address(this), usdtBalance) */\n      mload(0x40)\n      shl(0xe0, 0x23b872dd)\n      dup2\n      mstore\n      sub(shl(0xa0, 0x01), 0x01)\n        /* \"#utility.yul\":8585:8600   */\n      dup6\n      dup2\n      and\n        /* \"contracts/MyB2B.sol\":18535:18598  USDT.transferFrom(tokenDistributor, address(this), usdtBalance) */\n      0x04\n      dup4\n      add\n        /* \"#utility.yul\":8567:8601   */\n      mstore\n        /* \"contracts/MyB2B.sol\":18579:18583  this */\n      address\n        /* \"#utility.yul\":8617:8635   */\n      0x24\n      dup4\n      add\n        /* \"#utility.yul\":8610:8653   */\n      mstore\n        /* \"#utility.yul\":8669:8687   */\n      0x44\n      dup3\n      add\n        /* \"#utility.yul\":8662:8696   */\n      dup4\n      swap1\n      mstore\n        /* \"contracts/MyB2B.sol\":18471:18525  uint256 usdtBalance = USDT.balanceOf(tokenDistributor) */\n      swap2\n      swap3\n      pop\n        /* \"contracts/MyB2B.sol\":18535:18552  USDT.transferFrom */\n      swap1\n      dup4\n      and\n      swap1\n      0x23b872dd\n      swap1\n        /* \"#utility.yul\":8502:8520   */\n      0x64\n      add\n        /* \"contracts/MyB2B.sol\":18535:18598  USDT.transferFrom(tokenDistributor, address(this), usdtBalance) */\n      0x20\n      mload(0x40)\n      dup1\n      dup4\n      sub\n      dup2\n      0x00\n      dup8\n      gas\n      call\n      iszero\n      dup1\n      iszero\n      tag_604\n      jumpi\n      returndatasize\n      0x00\n      dup1\n      returndatacopy\n      revert(0x00, returndatasize)\n    tag_604:\n      pop\n      pop\n      pop\n      pop\n      mload(0x40)\n      returndatasize\n      not(0x1f)\n      0x1f\n      dup3\n      add\n      and\n      dup3\n      add\n      dup1\n      0x40\n      mstore\n      pop\n      dup2\n      add\n      swap1\n      tag_605\n      swap2\n      swap1\n      tag_286\n      jump\t// in\n    tag_605:\n      pop\n        /* \"contracts/MyB2B.sol\":18609:18625  uint256 fundUsdt */\n      0x00\n        /* \"contracts/MyB2B.sol\":18656:18664  totalFee */\n      dup8\n        /* \"contracts/MyB2B.sol\":18646:18653  fundFee */\n      dup14\n        /* \"contracts/MyB2B.sol\":18628:18643  usdtBalance * 2 */\n      tag_606\n        /* \"contracts/MyB2B.sol\":18628:18639  usdtBalance */\n      dup5\n        /* \"contracts/MyB2B.sol\":18642:18643  2 */\n      0x02\n        /* \"contracts/MyB2B.sol\":18628:18643  usdtBalance * 2 */\n      tag_422\n      jump\t// in\n    tag_606:\n        /* \"contracts/MyB2B.sol\":18628:18653  usdtBalance * 2 * fundFee */\n      tag_607\n      swap2\n      swap1\n      tag_422\n      jump\t// in\n    tag_607:\n        /* \"contracts/MyB2B.sol\":18628:18664  usdtBalance * 2 * fundFee / totalFee */\n      tag_608\n      swap2\n      swap1\n      tag_305\n      jump\t// in\n    tag_608:\n        /* \"contracts/MyB2B.sol\":18609:18664  uint256 fundUsdt = usdtBalance * 2 * fundFee / totalFee */\n      swap1\n      pop\n        /* \"contracts/MyB2B.sol\":18678:18690  fundUsdt > 0 */\n      dup1\n      iszero\n        /* \"contracts/MyB2B.sol\":18674:18753  if (fundUsdt > 0) {... */\n      tag_609\n      jumpi\n        /* \"contracts/MyB2B.sol\":18720:18731  fundAddress */\n      sload(0x03)\n        /* \"contracts/MyB2B.sol\":18706:18742  USDT.transfer(fundAddress, fundUsdt) */\n      mload(0x40)\n      shl(0xe0, 0xa9059cbb)\n      dup2\n      mstore\n      sub(shl(0xa0, 0x01), 0x01)\n        /* \"contracts/MyB2B.sol\":18720:18731  fundAddress */\n      swap2\n      dup3\n      and\n        /* \"contracts/MyB2B.sol\":18706:18742  USDT.transfer(fundAddress, fundUsdt) */\n      0x04\n      dup3\n      add\n        /* \"#utility.yul\":6337:6388   */\n      mstore\n        /* \"#utility.yul\":6404:6422   */\n      0x24\n      dup2\n      add\n        /* \"#utility.yul\":6397:6431   */\n      dup4\n      swap1\n      mstore\n        /* \"contracts/MyB2B.sol\":18706:18719  USDT.transfer */\n      swap1\n      dup5\n      and\n      swap1\n      0xa9059cbb\n      swap1\n        /* \"#utility.yul\":6310:6328   */\n      0x44\n      add\n        /* \"contracts/MyB2B.sol\":18706:18742  USDT.transfer(fundAddress, fundUsdt) */\n      0x20\n      mload(0x40)\n      dup1\n      dup4\n      sub\n      dup2\n      0x00\n      dup8\n      gas\n      call\n      iszero\n      dup1\n      iszero\n      tag_612\n      jumpi\n      returndatasize\n      0x00\n      dup1\n      returndatacopy\n      revert(0x00, returndatasize)\n    tag_612:\n      pop\n      pop\n      pop\n      pop\n      mload(0x40)\n      returndatasize\n      not(0x1f)\n      0x1f\n      dup3\n      add\n      and\n      dup3\n      add\n      dup1\n      0x40\n      mstore\n      pop\n      dup2\n      add\n      swap1\n      tag_613\n      swap2\n      swap1\n      tag_286\n      jump\t// in\n    tag_613:\n      pop\n        /* \"contracts/MyB2B.sol\":18674:18753  if (fundUsdt > 0) {... */\n    tag_609:\n        /* \"contracts/MyB2B.sol\":18763:18780  uint256 fundUsdt2 */\n      0x00\n        /* \"contracts/MyB2B.sol\":18812:18820  totalFee */\n      dup9\n        /* \"contracts/MyB2B.sol\":18801:18809  fundFee2 */\n      dup14\n        /* \"contracts/MyB2B.sol\":18783:18798  usdtBalance * 2 */\n      tag_614\n        /* \"contracts/MyB2B.sol\":18783:18794  usdtBalance */\n      dup6\n        /* \"contracts/MyB2B.sol\":18797:18798  2 */\n      0x02\n        /* \"contracts/MyB2B.sol\":18783:18798  usdtBalance * 2 */\n      tag_422\n      jump\t// in\n    tag_614:\n        /* \"contracts/MyB2B.sol\":18783:18809  usdtBalance * 2 * fundFee2 */\n      tag_615\n      swap2\n      swap1\n      tag_422\n      jump\t// in\n    tag_615:\n        /* \"contracts/MyB2B.sol\":18783:18820  usdtBalance * 2 * fundFee2 / totalFee */\n      tag_616\n      swap2\n      swap1\n      tag_305\n      jump\t// in\n    tag_616:\n        /* \"contracts/MyB2B.sol\":18763:18820  uint256 fundUsdt2 = usdtBalance * 2 * fundFee2 / totalFee */\n      swap1\n      pop\n        /* \"contracts/MyB2B.sol\":18834:18847  fundUsdt2 > 0 */\n      dup1\n      iszero\n        /* \"contracts/MyB2B.sol\":18830:18912  if (fundUsdt2 > 0) {... */\n      tag_617\n      jumpi\n        /* \"contracts/MyB2B.sol\":18877:18889  fundAddress2 */\n      0x04\n      dup1\n      sload\n        /* \"contracts/MyB2B.sol\":18863:18901  USDT.transfer(fundAddress2, fundUsdt2) */\n      mload(0x40)\n      shl(0xe0, 0xa9059cbb)\n      dup2\n      mstore\n      sub(shl(0xa0, 0x01), 0x01)\n        /* \"contracts/MyB2B.sol\":18877:18889  fundAddress2 */\n      swap2\n      dup3\n      and\n        /* \"contracts/MyB2B.sol\":18863:18901  USDT.transfer(fundAddress2, fundUsdt2) */\n      swap3\n      dup2\n      add\n        /* \"#utility.yul\":6337:6388   */\n      swap3\n      swap1\n      swap3\n      mstore\n        /* \"#utility.yul\":6404:6422   */\n      0x24\n      dup3\n      add\n        /* \"#utility.yul\":6397:6431   */\n      dup4\n      swap1\n      mstore\n        /* \"contracts/MyB2B.sol\":18863:18876  USDT.transfer */\n      dup6\n      and\n      swap1\n      0xa9059cbb\n      swap1\n        /* \"#utility.yul\":6310:6328   */\n      0x44\n      add\n        /* \"contracts/MyB2B.sol\":18863:18901  USDT.transfer(fundAddress2, fundUsdt2) */\n      0x20\n      mload(0x40)\n      dup1\n      dup4\n      sub\n      dup2\n      0x00\n      dup8\n      gas\n      call\n      iszero\n      dup1\n      iszero\n      tag_620\n      jumpi\n      returndatasize\n      0x00\n      dup1\n      returndatacopy\n      revert(0x00, returndatasize)\n    tag_620:\n      pop\n      pop\n      pop\n      pop\n      mload(0x40)\n      returndatasize\n      not(0x1f)\n      0x1f\n      dup3\n      add\n      and\n      dup3\n      add\n      dup1\n      0x40\n      mstore\n      pop\n      dup2\n      add\n      swap1\n      tag_621\n      swap2\n      swap1\n      tag_286\n      jump\t// in\n    tag_621:\n      pop\n        /* \"contracts/MyB2B.sol\":18830:18912  if (fundUsdt2 > 0) {... */\n    tag_617:\n        /* \"contracts/MyB2B.sol\":18922:18939  uint256 fundUsdt3 */\n      0x00\n        /* \"contracts/MyB2B.sol\":18971:18979  totalFee */\n      dup10\n        /* \"contracts/MyB2B.sol\":18960:18968  fundFee3 */\n      dup14\n        /* \"contracts/MyB2B.sol\":18942:18957  usdtBalance * 2 */\n      tag_622\n        /* \"contracts/MyB2B.sol\":18942:18953  usdtBalance */\n      dup7\n        /* \"contracts/MyB2B.sol\":18956:18957  2 */\n      0x02\n        /* \"contracts/MyB2B.sol\":18942:18957  usdtBalance * 2 */\n      tag_422\n      jump\t// in\n    tag_622:\n        /* \"contracts/MyB2B.sol\":18942:18968  usdtBalance * 2 * fundFee3 */\n      tag_623\n      swap2\n      swap1\n      tag_422\n      jump\t// in\n    tag_623:\n        /* \"contracts/MyB2B.sol\":18942:18979  usdtBalance * 2 * fundFee3 / totalFee */\n      tag_624\n      swap2\n      swap1\n      tag_305\n      jump\t// in\n    tag_624:\n        /* \"contracts/MyB2B.sol\":18922:18979  uint256 fundUsdt3 = usdtBalance * 2 * fundFee3 / totalFee */\n      swap1\n      pop\n        /* \"contracts/MyB2B.sol\":18993:19006  fundUsdt3 > 0 */\n      dup1\n      iszero\n        /* \"contracts/MyB2B.sol\":18989:19071  if (fundUsdt3 > 0) {... */\n      tag_625\n      jumpi\n        /* \"contracts/MyB2B.sol\":19036:19048  fundAddress3 */\n      sload(0x05)\n        /* \"contracts/MyB2B.sol\":19022:19060  USDT.transfer(fundAddress3, fundUsdt3) */\n      mload(0x40)\n      shl(0xe0, 0xa9059cbb)\n      dup2\n      mstore\n      sub(shl(0xa0, 0x01), 0x01)\n        /* \"contracts/MyB2B.sol\":19036:19048  fundAddress3 */\n      swap2\n      dup3\n      and\n        /* \"contracts/MyB2B.sol\":19022:19060  USDT.transfer(fundAddress3, fundUsdt3) */\n      0x04\n      dup3\n      add\n        /* \"#utility.yul\":6337:6388   */\n      mstore\n        /* \"#utility.yul\":6404:6422   */\n      0x24\n      dup2\n      add\n        /* \"#utility.yul\":6397:6431   */\n      dup4\n      swap1\n      mstore\n        /* \"contracts/MyB2B.sol\":19022:19035  USDT.transfer */\n      swap1\n      dup7\n      and\n      swap1\n      0xa9059cbb\n      swap1\n        /* \"#utility.yul\":6310:6328   */\n      0x44\n      add\n        /* \"contracts/MyB2B.sol\":19022:19060  USDT.transfer(fundAddress3, fundUsdt3) */\n      0x20\n      mload(0x40)\n      dup1\n      dup4\n      sub\n      dup2\n      0x00\n      dup8\n      gas\n      call\n      iszero\n      dup1\n      iszero\n      tag_628\n      jumpi\n      returndatasize\n      0x00\n      dup1\n      returndatacopy\n      revert(0x00, returndatasize)\n    tag_628:\n      pop\n      pop\n      pop\n      pop\n      mload(0x40)\n      returndatasize\n      not(0x1f)\n      0x1f\n      dup3\n      add\n      and\n      dup3\n      add\n      dup1\n      0x40\n      mstore\n      pop\n      dup2\n      add\n      swap1\n      tag_629\n      swap2\n      swap1\n      tag_286\n      jump\t// in\n    tag_629:\n      pop\n        /* \"contracts/MyB2B.sol\":18989:19071  if (fundUsdt3 > 0) {... */\n    tag_625:\n        /* \"contracts/MyB2B.sol\":19081:19095  uint256 lpUsdt */\n      0x00\n        /* \"contracts/MyB2B.sol\":19120:19128  totalFee */\n      dup11\n        /* \"contracts/MyB2B.sol\":19098:19117  usdtBalance * lpFee */\n      tag_630\n        /* \"contracts/MyB2B.sol\":19112:19117  lpFee */\n      dup14\n        /* \"contracts/MyB2B.sol\":19098:19109  usdtBalance */\n      dup8\n        /* \"contracts/MyB2B.sol\":19098:19117  usdtBalance * lpFee */\n      tag_422\n      jump\t// in\n    tag_630:\n        /* \"contracts/MyB2B.sol\":19098:19128  usdtBalance * lpFee / totalFee */\n      tag_631\n      swap2\n      swap1\n      tag_305\n      jump\t// in\n    tag_631:\n        /* \"contracts/MyB2B.sol\":19081:19128  uint256 lpUsdt = usdtBalance * lpFee / totalFee */\n      swap1\n      pop\n        /* \"contracts/MyB2B.sol\":19151:19152  0 */\n      0x00\n        /* \"contracts/MyB2B.sol\":19142:19148  lpUsdt */\n      dup2\n        /* \"contracts/MyB2B.sol\":19142:19152  lpUsdt > 0 */\n      gt\n        /* \"contracts/MyB2B.sol\":19142:19168  lpUsdt > 0 && lpAmount > 0 */\n      dup1\n      iszero\n      tag_632\n      jumpi\n      pop\n        /* \"contracts/MyB2B.sol\":19167:19168  0 */\n      0x00\n        /* \"contracts/MyB2B.sol\":19156:19164  lpAmount */\n      dup11\n        /* \"contracts/MyB2B.sol\":19156:19168  lpAmount > 0 */\n      gt\n        /* \"contracts/MyB2B.sol\":19142:19168  lpUsdt > 0 && lpAmount > 0 */\n    tag_632:\n        /* \"contracts/MyB2B.sol\":19138:19324  if (lpUsdt > 0 && lpAmount > 0) {... */\n      iszero\n      tag_633\n      jumpi\n        /* \"contracts/MyB2B.sol\":19184:19195  _swapRouter */\n      sload(0x0b)\n        /* \"contracts/MyB2B.sol\":19271:19282  fundAddress */\n      sload(0x03)\n        /* \"contracts/MyB2B.sol\":19184:19313  _swapRouter.addLiquidity(... */\n      mload(0x40)\n      shl(0xe8, 0xe8e337)\n      dup2\n      mstore\n        /* \"contracts/MyB2B.sol\":19234:19238  this */\n      address\n        /* \"contracts/MyB2B.sol\":19184:19313  _swapRouter.addLiquidity(... */\n      0x04\n      dup3\n      add\n        /* \"#utility.yul\":12730:12764   */\n      mstore\n      sub(shl(0xa0, 0x01), 0x01)\n        /* \"#utility.yul\":12800:12815   */\n      dup12\n      dup2\n      and\n        /* \"#utility.yul\":12780:12798   */\n      0x24\n      dup4\n      add\n        /* \"#utility.yul\":12773:12816   */\n      mstore\n        /* \"#utility.yul\":12832:12850   */\n      0x44\n      dup3\n      add\n        /* \"#utility.yul\":12825:12859   */\n      dup15\n      swap1\n      mstore\n        /* \"#utility.yul\":12875:12893   */\n      0x64\n      dup3\n      add\n        /* \"#utility.yul\":12868:12902   */\n      dup6\n      swap1\n      mstore\n        /* \"contracts/MyB2B.sol\":19184:19195  _swapRouter */\n      0x00\n        /* \"#utility.yul\":12918:12937   */\n      0x84\n      dup4\n      add\n        /* \"#utility.yul\":12911:12946   */\n      dup2\n      swap1\n      mstore\n        /* \"#utility.yul\":12962:12981   */\n      0xa4\n      dup4\n      add\n        /* \"#utility.yul\":12955:12990   */\n      mstore\n        /* \"contracts/MyB2B.sol\":19271:19282  fundAddress */\n      swap2\n      dup3\n      and\n        /* \"#utility.yul\":13006:13025   */\n      0xc4\n      dup3\n      add\n        /* \"#utility.yul\":12999:13043   */\n      mstore\n        /* \"contracts/MyB2B.sol\":19284:19299  block.timestamp */\n      timestamp\n        /* \"#utility.yul\":13059:13078   */\n      0xe4\n      dup3\n      add\n        /* \"#utility.yul\":13052:13087   */\n      mstore\n        /* \"contracts/MyB2B.sol\":19184:19195  _swapRouter */\n      swap2\n      and\n      swap1\n        /* \"contracts/MyB2B.sol\":19184:19208  _swapRouter.addLiquidity */\n      0xe8e33700\n      swap1\n        /* \"#utility.yul\":12664:12683   */\n      0x0104\n      add\n        /* \"contracts/MyB2B.sol\":19184:19313  _swapRouter.addLiquidity(... */\n      0x60\n      mload(0x40)\n      dup1\n      dup4\n      sub\n      dup2\n      0x00\n      dup8\n      gas\n      call\n      iszero\n      dup1\n      iszero\n      tag_637\n      jumpi\n      returndatasize\n      0x00\n      dup1\n      returndatacopy\n      revert(0x00, returndatasize)\n    tag_637:\n      pop\n      pop\n      pop\n      pop\n      mload(0x40)\n      returndatasize\n      not(0x1f)\n      0x1f\n      dup3\n      add\n      and\n      dup3\n      add\n      dup1\n      0x40\n      mstore\n      pop\n      dup2\n      add\n      swap1\n      tag_638\n      swap2\n      swap1\n      tag_639\n      jump\t// in\n    tag_638:\n      pop\n      pop\n      pop\n        /* \"contracts/MyB2B.sol\":19138:19324  if (lpUsdt > 0 && lpAmount > 0) {... */\n    tag_633:\n        /* \"contracts/MyB2B.sol\":17461:19330  {... */\n      pop\n      pop\n      pop\n      pop\n      pop\n      pop\n      pop\n      pop\n      pop\n      pop\n      pop\n      pop\n      pop\n      pop\n      pop\n      pop\n        /* \"contracts/MyB2B.sol\":4899:4900  _ */\n    tag_569:\n      pop\n        /* \"contracts/MyB2B.sol\":4910:4916  inSwap */\n      0x0e\n        /* \"contracts/MyB2B.sol\":4910:4924  inSwap = false */\n      dup1\n      sload\n      not(0xff)\n      and\n      swap1\n      sstore\n        /* \"contracts/MyB2B.sol\":17394:19330  function swapTokenForFund(uint256 tokenAmount) private lockTheSwap {... */\n      jump\t// out\n        /* \"#utility.yul\":14:562   */\n    tag_64:\n        /* \"#utility.yul\":126:130   */\n      0x00\n        /* \"#utility.yul\":155:157   */\n      0x20\n        /* \"#utility.yul\":184:186   */\n      dup1\n        /* \"#utility.yul\":173:182   */\n      dup4\n        /* \"#utility.yul\":166:187   */\n      mstore\n        /* \"#utility.yul\":216:222   */\n      dup4\n        /* \"#utility.yul\":210:223   */\n      mload\n        /* \"#utility.yul\":259:265   */\n      dup1\n        /* \"#utility.yul\":254:256   */\n      dup3\n        /* \"#utility.yul\":243:252   */\n      dup6\n        /* \"#utility.yul\":239:257   */\n      add\n        /* \"#utility.yul\":232:266   */\n      mstore\n        /* \"#utility.yul\":284:285   */\n      0x00\n        /* \"#utility.yul\":294:434   */\n    tag_647:\n        /* \"#utility.yul\":308:314   */\n      dup2\n        /* \"#utility.yul\":305:306   */\n      dup2\n        /* \"#utility.yul\":302:315   */\n      lt\n        /* \"#utility.yul\":294:434   */\n      iszero\n      tag_649\n      jumpi\n        /* \"#utility.yul\":403:417   */\n      dup6\n      dup2\n      add\n        /* \"#utility.yul\":399:422   */\n      dup4\n      add\n        /* \"#utility.yul\":393:423   */\n      mload\n        /* \"#utility.yul\":369:386   */\n      dup6\n      dup3\n      add\n        /* \"#utility.yul\":388:390   */\n      0x40\n        /* \"#utility.yul\":365:391   */\n      add\n        /* \"#utility.yul\":358:424   */\n      mstore\n        /* \"#utility.yul\":323:333   */\n      dup3\n      add\n        /* \"#utility.yul\":294:434   */\n      jump(tag_647)\n    tag_649:\n        /* \"#utility.yul\":298:301   */\n      pop\n        /* \"#utility.yul\":483:484   */\n      0x00\n        /* \"#utility.yul\":478:480   */\n      0x40\n        /* \"#utility.yul\":469:475   */\n      dup3\n        /* \"#utility.yul\":458:467   */\n      dup7\n        /* \"#utility.yul\":454:476   */\n      add\n        /* \"#utility.yul\":450:481   */\n      add\n        /* \"#utility.yul\":443:485   */\n      mstore\n        /* \"#utility.yul\":553:555   */\n      0x40\n        /* \"#utility.yul\":546:548   */\n      0x1f\n        /* \"#utility.yul\":542:549   */\n      not\n        /* \"#utility.yul\":537:539   */\n      0x1f\n        /* \"#utility.yul\":529:535   */\n      dup4\n        /* \"#utility.yul\":525:540   */\n      add\n        /* \"#utility.yul\":521:550   */\n      and\n        /* \"#utility.yul\":510:519   */\n      dup6\n        /* \"#utility.yul\":506:551   */\n      add\n        /* \"#utility.yul\":502:556   */\n      add\n        /* \"#utility.yul\":494:556   */\n      swap3\n      pop\n      pop\n      pop\n        /* \"#utility.yul\":14:562   */\n      swap3\n      swap2\n      pop\n      pop\n      jump\t// out\n        /* \"#utility.yul\":567:740   */\n    tag_640:\n        /* \"#utility.yul\":635:655   */\n      dup1\n      calldataload\n      sub(shl(0xa0, 0x01), 0x01)\n        /* \"#utility.yul\":684:715   */\n      dup2\n      and\n        /* \"#utility.yul\":674:716   */\n      dup2\n      eq\n        /* \"#utility.yul\":664:734   */\n      tag_651\n      jumpi\n        /* \"#utility.yul\":730:731   */\n      0x00\n        /* \"#utility.yul\":727:728   */\n      dup1\n        /* \"#utility.yul\":720:732   */\n      revert\n        /* \"#utility.yul\":664:734   */\n    tag_651:\n        /* \"#utility.yul\":567:740   */\n      swap2\n      swap1\n      pop\n      jump\t// out\n        /* \"#utility.yul\":745:999   */\n    tag_68:\n        /* \"#utility.yul\":813:819   */\n      0x00\n        /* \"#utility.yul\":821:827   */\n      dup1\n        /* \"#utility.yul\":874:876   */\n      0x40\n        /* \"#utility.yul\":862:871   */\n      dup4\n        /* \"#utility.yul\":853:860   */\n      dup6\n        /* \"#utility.yul\":849:872   */\n      sub\n        /* \"#utility.yul\":845:877   */\n      slt\n        /* \"#utility.yul\":842:894   */\n      iszero\n      tag_653\n      jumpi\n        /* \"#utility.yul\":890:891   */\n      0x00\n        /* \"#utility.yul\":887:888   */\n      dup1\n        /* \"#utility.yul\":880:892   */\n      revert\n        /* \"#utility.yul\":842:894   */\n    tag_653:\n        /* \"#utility.yul\":913:942   */\n      tag_654\n        /* \"#utility.yul\":932:941   */\n      dup4\n        /* \"#utility.yul\":913:942   */\n      tag_640\n      jump\t// in\n    tag_654:\n        /* \"#utility.yul\":903:942   */\n      swap5\n        /* \"#utility.yul\":989:991   */\n      0x20\n        /* \"#utility.yul\":974:992   */\n      swap4\n      swap1\n      swap4\n      add\n        /* \"#utility.yul\":961:993   */\n      calldataload\n      swap4\n      pop\n      pop\n      pop\n        /* \"#utility.yul\":745:999   */\n      jump\t// out\n        /* \"#utility.yul\":1378:1706   */\n    tag_84:\n        /* \"#utility.yul\":1455:1461   */\n      0x00\n        /* \"#utility.yul\":1463:1469   */\n      dup1\n        /* \"#utility.yul\":1471:1477   */\n      0x00\n        /* \"#utility.yul\":1524:1526   */\n      0x60\n        /* \"#utility.yul\":1512:1521   */\n      dup5\n        /* \"#utility.yul\":1503:1510   */\n      dup7\n        /* \"#utility.yul\":1499:1522   */\n      sub\n        /* \"#utility.yul\":1495:1527   */\n      slt\n        /* \"#utility.yul\":1492:1544   */\n      iszero\n      tag_658\n      jumpi\n        /* \"#utility.yul\":1540:1541   */\n      0x00\n        /* \"#utility.yul\":1537:1538   */\n      dup1\n        /* \"#utility.yul\":1530:1542   */\n      revert\n        /* \"#utility.yul\":1492:1544   */\n    tag_658:\n        /* \"#utility.yul\":1563:1592   */\n      tag_659\n        /* \"#utility.yul\":1582:1591   */\n      dup5\n        /* \"#utility.yul\":1563:1592   */\n      tag_640\n      jump\t// in\n    tag_659:\n        /* \"#utility.yul\":1553:1592   */\n      swap3\n      pop\n        /* \"#utility.yul\":1611:1649   */\n      tag_660\n        /* \"#utility.yul\":1645:1647   */\n      0x20\n        /* \"#utility.yul\":1634:1643   */\n      dup6\n        /* \"#utility.yul\":1630:1648   */\n      add\n        /* \"#utility.yul\":1611:1649   */\n      tag_640\n      jump\t// in\n    tag_660:\n        /* \"#utility.yul\":1601:1649   */\n      swap2\n      pop\n        /* \"#utility.yul\":1696:1698   */\n      0x40\n        /* \"#utility.yul\":1685:1694   */\n      dup5\n        /* \"#utility.yul\":1681:1699   */\n      add\n        /* \"#utility.yul\":1668:1700   */\n      calldataload\n        /* \"#utility.yul\":1658:1700   */\n      swap1\n      pop\n        /* \"#utility.yul\":1378:1706   */\n      swap3\n      pop\n      swap3\n      pop\n      swap3\n      jump\t// out\n        /* \"#utility.yul\":1711:1891   */\n    tag_89:\n        /* \"#utility.yul\":1770:1776   */\n      0x00\n        /* \"#utility.yul\":1823:1825   */\n      0x20\n        /* \"#utility.yul\":1811:1820   */\n      dup3\n        /* \"#utility.yul\":1802:1809   */\n      dup5\n        /* \"#utility.yul\":1798:1821   */\n      sub\n        /* \"#utility.yul\":1794:1826   */\n      slt\n        /* \"#utility.yul\":1791:1843   */\n      iszero\n      tag_662\n      jumpi\n        /* \"#utility.yul\":1839:1840   */\n      0x00\n        /* \"#utility.yul\":1836:1837   */\n      dup1\n        /* \"#utility.yul\":1829:1841   */\n      revert\n        /* \"#utility.yul\":1791:1843   */\n    tag_662:\n      pop\n        /* \"#utility.yul\":1862:1885   */\n      calldataload\n      swap2\n        /* \"#utility.yul\":1711:1891   */\n      swap1\n      pop\n      jump\t// out\n        /* \"#utility.yul\":1896:2488   */\n    tag_98:\n        /* \"#utility.yul\":2009:2015   */\n      0x00\n        /* \"#utility.yul\":2017:2023   */\n      dup1\n        /* \"#utility.yul\":2025:2031   */\n      0x00\n        /* \"#utility.yul\":2033:2039   */\n      dup1\n        /* \"#utility.yul\":2041:2047   */\n      0x00\n        /* \"#utility.yul\":2049:2055   */\n      dup1\n        /* \"#utility.yul\":2057:2063   */\n      0x00\n        /* \"#utility.yul\":2110:2113   */\n      0xe0\n        /* \"#utility.yul\":2098:2107   */\n      dup9\n        /* \"#utility.yul\":2089:2096   */\n      dup11\n        /* \"#utility.yul\":2085:2108   */\n      sub\n        /* \"#utility.yul\":2081:2114   */\n      slt\n        /* \"#utility.yul\":2078:2131   */\n      iszero\n      tag_664\n      jumpi\n        /* \"#utility.yul\":2127:2128   */\n      0x00\n        /* \"#utility.yul\":2124:2125   */\n      dup1\n        /* \"#utility.yul\":2117:2129   */\n      revert\n        /* \"#utility.yul\":2078:2131   */\n    tag_664:\n      pop\n      pop\n        /* \"#utility.yul\":2150:2173   */\n      dup6\n      calldataload\n      swap8\n        /* \"#utility.yul\":2220:2222   */\n      0x20\n        /* \"#utility.yul\":2205:2223   */\n      dup8\n      add\n        /* \"#utility.yul\":2192:2224   */\n      calldataload\n      swap8\n      pop\n        /* \"#utility.yul\":2271:2273   */\n      0x40\n        /* \"#utility.yul\":2256:2274   */\n      dup8\n      add\n        /* \"#utility.yul\":2243:2275   */\n      calldataload\n      swap7\n        /* \"#utility.yul\":2322:2324   */\n      0x60\n        /* \"#utility.yul\":2307:2325   */\n      dup2\n      add\n        /* \"#utility.yul\":2294:2326   */\n      calldataload\n      swap7\n      pop\n        /* \"#utility.yul\":2373:2376   */\n      0x80\n        /* \"#utility.yul\":2358:2377   */\n      dup2\n      add\n        /* \"#utility.yul\":2345:2378   */\n      calldataload\n      swap6\n      pop\n        /* \"#utility.yul\":2425:2428   */\n      0xa0\n        /* \"#utility.yul\":2410:2429   */\n      dup2\n      add\n        /* \"#utility.yul\":2397:2430   */\n      calldataload\n      swap5\n      pop\n        /* \"#utility.yul\":2477:2480   */\n      0xc0\n        /* \"#utility.yul\":2462:2481   */\n      add\n        /* \"#utility.yul\":2449:2482   */\n      calldataload\n      swap3\n      pop\n        /* \"#utility.yul\":1896:2488   */\n      swap1\n      pop\n      jump\t// out\n        /* \"#utility.yul\":2682:2868   */\n    tag_117:\n        /* \"#utility.yul\":2741:2747   */\n      0x00\n        /* \"#utility.yul\":2794:2796   */\n      0x20\n        /* \"#utility.yul\":2782:2791   */\n      dup3\n        /* \"#utility.yul\":2773:2780   */\n      dup5\n        /* \"#utility.yul\":2769:2792   */\n      sub\n        /* \"#utility.yul\":2765:2797   */\n      slt\n        /* \"#utility.yul\":2762:2814   */\n      iszero\n      tag_667\n      jumpi\n        /* \"#utility.yul\":2810:2811   */\n      0x00\n        /* \"#utility.yul\":2807:2808   */\n      dup1\n        /* \"#utility.yul\":2800:2812   */\n      revert\n        /* \"#utility.yul\":2762:2814   */\n    tag_667:\n        /* \"#utility.yul\":2833:2862   */\n      tag_668\n        /* \"#utility.yul\":2852:2861   */\n      dup3\n        /* \"#utility.yul\":2833:2862   */\n      tag_640\n      jump\t// in\n    tag_668:\n        /* \"#utility.yul\":2823:2862   */\n      swap4\n        /* \"#utility.yul\":2682:2868   */\n      swap3\n      pop\n      pop\n      pop\n      jump\t// out\n        /* \"#utility.yul\":3081:3199   */\n    tag_641:\n        /* \"#utility.yul\":3167:3172   */\n      dup1\n        /* \"#utility.yul\":3160:3173   */\n      iszero\n        /* \"#utility.yul\":3153:3174   */\n      iszero\n        /* \"#utility.yul\":3146:3151   */\n      dup2\n        /* \"#utility.yul\":3143:3175   */\n      eq\n        /* \"#utility.yul\":3133:3193   */\n      tag_496\n      jumpi\n        /* \"#utility.yul\":3189:3190   */\n      0x00\n        /* \"#utility.yul\":3186:3187   */\n      dup1\n        /* \"#utility.yul\":3179:3191   */\n      revert\n        /* \"#utility.yul\":3204:3332   */\n    tag_642:\n        /* \"#utility.yul\":3269:3289   */\n      dup1\n      calldataload\n        /* \"#utility.yul\":3298:3326   */\n      tag_651\n        /* \"#utility.yul\":3269:3289   */\n      dup2\n        /* \"#utility.yul\":3298:3326   */\n      tag_641\n      jump\t// in\n        /* \"#utility.yul\":3337:3652   */\n    tag_194:\n        /* \"#utility.yul\":3402:3408   */\n      0x00\n        /* \"#utility.yul\":3410:3416   */\n      dup1\n        /* \"#utility.yul\":3463:3465   */\n      0x40\n        /* \"#utility.yul\":3451:3460   */\n      dup4\n        /* \"#utility.yul\":3442:3449   */\n      dup6\n        /* \"#utility.yul\":3438:3461   */\n      sub\n        /* \"#utility.yul\":3434:3466   */\n      slt\n        /* \"#utility.yul\":3431:3483   */\n      iszero\n      tag_675\n      jumpi\n        /* \"#utility.yul\":3479:3480   */\n      0x00\n        /* \"#utility.yul\":3476:3477   */\n      dup1\n        /* \"#utility.yul\":3469:3481   */\n      revert\n        /* \"#utility.yul\":3431:3483   */\n    tag_675:\n        /* \"#utility.yul\":3502:3531   */\n      tag_676\n        /* \"#utility.yul\":3521:3530   */\n      dup4\n        /* \"#utility.yul\":3502:3531   */\n      tag_640\n      jump\t// in\n    tag_676:\n        /* \"#utility.yul\":3492:3531   */\n      swap2\n      pop\n        /* \"#utility.yul\":3581:3583   */\n      0x20\n        /* \"#utility.yul\":3570:3579   */\n      dup4\n        /* \"#utility.yul\":3566:3584   */\n      add\n        /* \"#utility.yul\":3553:3585   */\n      calldataload\n        /* \"#utility.yul\":3594:3622   */\n      tag_677\n        /* \"#utility.yul\":3616:3621   */\n      dup2\n        /* \"#utility.yul\":3594:3622   */\n      tag_641\n      jump\t// in\n    tag_677:\n        /* \"#utility.yul\":3641:3646   */\n      dup1\n        /* \"#utility.yul\":3631:3646   */\n      swap2\n      pop\n      pop\n        /* \"#utility.yul\":3337:3652   */\n      swap3\n      pop\n      swap3\n      swap1\n      pop\n      jump\t// out\n        /* \"#utility.yul\":3657:3784   */\n    tag_586:\n        /* \"#utility.yul\":3718:3728   */\n      0x4e487b71\n        /* \"#utility.yul\":3713:3716   */\n      0xe0\n        /* \"#utility.yul\":3709:3729   */\n      shl\n        /* \"#utility.yul\":3706:3707   */\n      0x00\n        /* \"#utility.yul\":3699:3730   */\n      mstore\n        /* \"#utility.yul\":3749:3753   */\n      0x41\n        /* \"#utility.yul\":3746:3747   */\n      0x04\n        /* \"#utility.yul\":3739:3754   */\n      mstore\n        /* \"#utility.yul\":3773:3777   */\n      0x24\n        /* \"#utility.yul\":3770:3771   */\n      0x00\n        /* \"#utility.yul\":3763:3778   */\n      revert\n        /* \"#utility.yul\":3789:4980   */\n    tag_216:\n        /* \"#utility.yul\":3879:3885   */\n      0x00\n        /* \"#utility.yul\":3887:3893   */\n      dup1\n        /* \"#utility.yul\":3940:3942   */\n      0x40\n        /* \"#utility.yul\":3928:3937   */\n      dup4\n        /* \"#utility.yul\":3919:3926   */\n      dup6\n        /* \"#utility.yul\":3915:3938   */\n      sub\n        /* \"#utility.yul\":3911:3943   */\n      slt\n        /* \"#utility.yul\":3908:3960   */\n      iszero\n      tag_680\n      jumpi\n        /* \"#utility.yul\":3956:3957   */\n      0x00\n        /* \"#utility.yul\":3953:3954   */\n      dup1\n        /* \"#utility.yul\":3946:3958   */\n      revert\n        /* \"#utility.yul\":3908:3960   */\n    tag_680:\n        /* \"#utility.yul\":3996:4005   */\n      dup3\n        /* \"#utility.yul\":3983:4006   */\n      calldataload\n        /* \"#utility.yul\":4025:4043   */\n      0xffffffffffffffff\n        /* \"#utility.yul\":4066:4068   */\n      dup1\n        /* \"#utility.yul\":4058:4064   */\n      dup3\n        /* \"#utility.yul\":4055:4069   */\n      gt\n        /* \"#utility.yul\":4052:4086   */\n      iszero\n      tag_681\n      jumpi\n        /* \"#utility.yul\":4082:4083   */\n      0x00\n        /* \"#utility.yul\":4079:4080   */\n      dup1\n        /* \"#utility.yul\":4072:4084   */\n      revert\n        /* \"#utility.yul\":4052:4086   */\n    tag_681:\n        /* \"#utility.yul\":4120:4126   */\n      dup2\n        /* \"#utility.yul\":4109:4118   */\n      dup6\n        /* \"#utility.yul\":4105:4127   */\n      add\n        /* \"#utility.yul\":4095:4127   */\n      swap2\n      pop\n        /* \"#utility.yul\":4165:4172   */\n      dup6\n        /* \"#utility.yul\":4158:4162   */\n      0x1f\n        /* \"#utility.yul\":4154:4156   */\n      dup4\n        /* \"#utility.yul\":4150:4163   */\n      add\n        /* \"#utility.yul\":4146:4173   */\n      slt\n        /* \"#utility.yul\":4136:4191   */\n      tag_682\n      jumpi\n        /* \"#utility.yul\":4187:4188   */\n      0x00\n        /* \"#utility.yul\":4184:4185   */\n      dup1\n        /* \"#utility.yul\":4177:4189   */\n      revert\n        /* \"#utility.yul\":4136:4191   */\n    tag_682:\n        /* \"#utility.yul\":4223:4225   */\n      dup2\n        /* \"#utility.yul\":4210:4226   */\n      calldataload\n        /* \"#utility.yul\":4245:4249   */\n      0x20\n        /* \"#utility.yul\":4268:4270   */\n      dup3\n        /* \"#utility.yul\":4264:4266   */\n      dup3\n        /* \"#utility.yul\":4261:4271   */\n      gt\n        /* \"#utility.yul\":4258:4294   */\n      iszero\n      tag_684\n      jumpi\n        /* \"#utility.yul\":4274:4292   */\n      tag_684\n      tag_586\n      jump\t// in\n    tag_684:\n        /* \"#utility.yul\":4320:4322   */\n      dup2\n        /* \"#utility.yul\":4317:4318   */\n      0x05\n        /* \"#utility.yul\":4313:4323   */\n      shl\n        /* \"#utility.yul\":4352:4354   */\n      0x40\n        /* \"#utility.yul\":4346:4355   */\n      mload\n        /* \"#utility.yul\":4415:4417   */\n      0x1f\n        /* \"#utility.yul\":4411:4418   */\n      not\n        /* \"#utility.yul\":4406:4408   */\n      0x3f\n        /* \"#utility.yul\":4402:4404   */\n      dup4\n        /* \"#utility.yul\":4398:4409   */\n      add\n        /* \"#utility.yul\":4394:4419   */\n      and\n        /* \"#utility.yul\":4386:4392   */\n      dup2\n        /* \"#utility.yul\":4382:4420   */\n      add\n        /* \"#utility.yul\":4470:4476   */\n      dup2\n        /* \"#utility.yul\":4458:4468   */\n      dup2\n        /* \"#utility.yul\":4455:4477   */\n      lt\n        /* \"#utility.yul\":4450:4452   */\n      dup7\n        /* \"#utility.yul\":4438:4448   */\n      dup3\n        /* \"#utility.yul\":4435:4453   */\n      gt\n        /* \"#utility.yul\":4432:4478   */\n      or\n        /* \"#utility.yul\":4429:4501   */\n      iszero\n      tag_686\n      jumpi\n        /* \"#utility.yul\":4481:4499   */\n      tag_686\n      tag_586\n      jump\t// in\n    tag_686:\n        /* \"#utility.yul\":4517:4519   */\n      0x40\n        /* \"#utility.yul\":4510:4532   */\n      mstore\n        /* \"#utility.yul\":4567:4585   */\n      swap3\n      dup4\n      mstore\n        /* \"#utility.yul\":4601:4616   */\n      dup2\n      dup4\n      add\n      swap4\n      pop\n        /* \"#utility.yul\":4643:4654   */\n      dup5\n      dup2\n      add\n        /* \"#utility.yul\":4639:4659   */\n      dup3\n      add\n      swap3\n        /* \"#utility.yul\":4671:4690   */\n      dup10\n      dup5\n      gt\n        /* \"#utility.yul\":4668:4707   */\n      iszero\n      tag_687\n      jumpi\n        /* \"#utility.yul\":4703:4704   */\n      0x00\n        /* \"#utility.yul\":4700:4701   */\n      dup1\n        /* \"#utility.yul\":4693:4705   */\n      revert\n        /* \"#utility.yul\":4668:4707   */\n    tag_687:\n        /* \"#utility.yul\":4727:4738   */\n      swap5\n      dup3\n      add\n      swap5\n        /* \"#utility.yul\":4747:4895   */\n    tag_688:\n        /* \"#utility.yul\":4763:4769   */\n      dup4\n        /* \"#utility.yul\":4758:4761   */\n      dup7\n        /* \"#utility.yul\":4755:4770   */\n      lt\n        /* \"#utility.yul\":4747:4895   */\n      iszero\n      tag_690\n      jumpi\n        /* \"#utility.yul\":4829:4852   */\n      tag_691\n        /* \"#utility.yul\":4848:4851   */\n      dup7\n        /* \"#utility.yul\":4829:4852   */\n      tag_640\n      jump\t// in\n    tag_691:\n        /* \"#utility.yul\":4817:4853   */\n      dup6\n      mstore\n        /* \"#utility.yul\":4780:4792   */\n      swap5\n      dup3\n      add\n      swap5\n        /* \"#utility.yul\":4873:4885   */\n      swap4\n      dup3\n      add\n      swap4\n        /* \"#utility.yul\":4747:4895   */\n      jump(tag_688)\n    tag_690:\n        /* \"#utility.yul\":4914:4920   */\n      swap7\n      pop\n        /* \"#utility.yul\":4939:4974   */\n      tag_692\n      swap1\n      pop\n        /* \"#utility.yul\":4955:4973   */\n      dup8\n      dup3\n      add\n        /* \"#utility.yul\":4939:4974   */\n      tag_642\n      jump\t// in\n    tag_692:\n        /* \"#utility.yul\":4929:4974   */\n      swap5\n      pop\n      pop\n      pop\n      pop\n      pop\n        /* \"#utility.yul\":3789:4980   */\n      swap3\n      pop\n      swap3\n      swap1\n      pop\n      jump\t// out\n        /* \"#utility.yul\":4985:5508   */\n    tag_229:\n        /* \"#utility.yul\":5089:5095   */\n      0x00\n        /* \"#utility.yul\":5097:5103   */\n      dup1\n        /* \"#utility.yul\":5105:5111   */\n      0x00\n        /* \"#utility.yul\":5113:5119   */\n      dup1\n        /* \"#utility.yul\":5121:5127   */\n      0x00\n        /* \"#utility.yul\":5129:5135   */\n      dup1\n        /* \"#utility.yul\":5182:5185   */\n      0xc0\n        /* \"#utility.yul\":5170:5179   */\n      dup8\n        /* \"#utility.yul\":5161:5168   */\n      dup10\n        /* \"#utility.yul\":5157:5180   */\n      sub\n        /* \"#utility.yul\":5153:5186   */\n      slt\n        /* \"#utility.yul\":5150:5203   */\n      iszero\n      tag_694\n      jumpi\n        /* \"#utility.yul\":5199:5200   */\n      0x00\n        /* \"#utility.yul\":5196:5197   */\n      dup1\n        /* \"#utility.yul\":5189:5201   */\n      revert\n        /* \"#utility.yul\":5150:5203   */\n    tag_694:\n      pop\n      pop\n        /* \"#utility.yul\":5222:5245   */\n      dup5\n      calldataload\n      swap7\n        /* \"#utility.yul\":5292:5294   */\n      0x20\n        /* \"#utility.yul\":5277:5295   */\n      dup7\n      add\n        /* \"#utility.yul\":5264:5296   */\n      calldataload\n      swap7\n      pop\n        /* \"#utility.yul\":5343:5345   */\n      0x40\n        /* \"#utility.yul\":5328:5346   */\n      dup7\n      add\n        /* \"#utility.yul\":5315:5347   */\n      calldataload\n      swap6\n        /* \"#utility.yul\":5394:5396   */\n      0x60\n        /* \"#utility.yul\":5379:5397   */\n      dup2\n      add\n        /* \"#utility.yul\":5366:5398   */\n      calldataload\n      swap6\n      pop\n        /* \"#utility.yul\":5445:5448   */\n      0x80\n        /* \"#utility.yul\":5430:5449   */\n      dup2\n      add\n        /* \"#utility.yul\":5417:5450   */\n      calldataload\n      swap5\n      pop\n        /* \"#utility.yul\":5497:5500   */\n      0xa0\n        /* \"#utility.yul\":5482:5501   */\n      add\n        /* \"#utility.yul\":5469:5502   */\n      calldataload\n      swap3\n      pop\n        /* \"#utility.yul\":4985:5508   */\n      swap1\n      pop\n      jump\t// out\n        /* \"#utility.yul\":5513:5773   */\n    tag_254:\n        /* \"#utility.yul\":5581:5587   */\n      0x00\n        /* \"#utility.yul\":5589:5595   */\n      dup1\n        /* \"#utility.yul\":5642:5644   */\n      0x40\n        /* \"#utility.yul\":5630:5639   */\n      dup4\n        /* \"#utility.yul\":5621:5628   */\n      dup6\n        /* \"#utility.yul\":5617:5640   */\n      sub\n        /* \"#utility.yul\":5613:5645   */\n      slt\n        /* \"#utility.yul\":5610:5662   */\n      iszero\n      tag_696\n      jumpi\n        /* \"#utility.yul\":5658:5659   */\n      0x00\n        /* \"#utility.yul\":5655:5656   */\n      dup1\n        /* \"#utility.yul\":5648:5660   */\n      revert\n        /* \"#utility.yul\":5610:5662   */\n    tag_696:\n        /* \"#utility.yul\":5681:5710   */\n      tag_697\n        /* \"#utility.yul\":5700:5709   */\n      dup4\n        /* \"#utility.yul\":5681:5710   */\n      tag_640\n      jump\t// in\n    tag_697:\n        /* \"#utility.yul\":5671:5710   */\n      swap2\n      pop\n        /* \"#utility.yul\":5729:5767   */\n      tag_698\n        /* \"#utility.yul\":5763:5765   */\n      0x20\n        /* \"#utility.yul\":5752:5761   */\n      dup5\n        /* \"#utility.yul\":5748:5766   */\n      add\n        /* \"#utility.yul\":5729:5767   */\n      tag_640\n      jump\t// in\n    tag_698:\n        /* \"#utility.yul\":5719:5767   */\n      swap1\n      pop\n        /* \"#utility.yul\":5513:5773   */\n      swap3\n      pop\n      swap3\n      swap1\n      pop\n      jump\t// out\n        /* \"#utility.yul\":5778:6158   */\n    tag_271:\n        /* \"#utility.yul\":5857:5858   */\n      0x01\n        /* \"#utility.yul\":5853:5865   */\n      dup2\n      dup2\n      shr\n      swap1\n        /* \"#utility.yul\":5900:5912   */\n      dup3\n      and\n      dup1\n        /* \"#utility.yul\":5921:5982   */\n      tag_700\n      jumpi\n        /* \"#utility.yul\":5975:5979   */\n      0x7f\n        /* \"#utility.yul\":5967:5973   */\n      dup3\n        /* \"#utility.yul\":5963:5980   */\n      and\n        /* \"#utility.yul\":5953:5980   */\n      swap2\n      pop\n        /* \"#utility.yul\":5921:5982   */\n    tag_700:\n        /* \"#utility.yul\":6028:6030   */\n      0x20\n        /* \"#utility.yul\":6020:6026   */\n      dup3\n        /* \"#utility.yul\":6017:6031   */\n      lt\n        /* \"#utility.yul\":5997:6015   */\n      dup2\n        /* \"#utility.yul\":5994:6032   */\n      sub\n        /* \"#utility.yul\":5991:6152   */\n      tag_701\n      jumpi\n        /* \"#utility.yul\":6074:6084   */\n      0x4e487b71\n        /* \"#utility.yul\":6069:6072   */\n      0xe0\n        /* \"#utility.yul\":6065:6085   */\n      shl\n        /* \"#utility.yul\":6062:6063   */\n      0x00\n        /* \"#utility.yul\":6055:6086   */\n      mstore\n        /* \"#utility.yul\":6109:6113   */\n      0x22\n        /* \"#utility.yul\":6106:6107   */\n      0x04\n        /* \"#utility.yul\":6099:6114   */\n      mstore\n        /* \"#utility.yul\":6137:6141   */\n      0x24\n        /* \"#utility.yul\":6134:6135   */\n      0x00\n        /* \"#utility.yul\":6127:6142   */\n      revert\n        /* \"#utility.yul\":5991:6152   */\n    tag_701:\n      pop\n        /* \"#utility.yul\":5778:6158   */\n      swap2\n      swap1\n      pop\n      jump\t// out\n        /* \"#utility.yul\":6442:6687   */\n    tag_286:\n        /* \"#utility.yul\":6509:6515   */\n      0x00\n        /* \"#utility.yul\":6562:6564   */\n      0x20\n        /* \"#utility.yul\":6550:6559   */\n      dup3\n        /* \"#utility.yul\":6541:6548   */\n      dup5\n        /* \"#utility.yul\":6537:6560   */\n      sub\n        /* \"#utility.yul\":6533:6565   */\n      slt\n        /* \"#utility.yul\":6530:6582   */\n      iszero\n      tag_704\n      jumpi\n        /* \"#utility.yul\":6578:6579   */\n      0x00\n        /* \"#utility.yul\":6575:6576   */\n      dup1\n        /* \"#utility.yul\":6568:6580   */\n      revert\n        /* \"#utility.yul\":6530:6582   */\n    tag_704:\n        /* \"#utility.yul\":6610:6619   */\n      dup2\n        /* \"#utility.yul\":6604:6620   */\n      mload\n        /* \"#utility.yul\":6629:6657   */\n      tag_668\n        /* \"#utility.yul\":6651:6656   */\n      dup2\n        /* \"#utility.yul\":6629:6657   */\n      tag_641\n      jump\t// in\n        /* \"#utility.yul\":6692:7021   */\n    tag_290:\n        /* \"#utility.yul\":6894:6896   */\n      0x20\n        /* \"#utility.yul\":6876:6897   */\n      dup1\n      dup3\n      mstore\n        /* \"#utility.yul\":6933:6934   */\n      0x06\n        /* \"#utility.yul\":6913:6931   */\n      swap1\n      dup3\n      add\n        /* \"#utility.yul\":6906:6935   */\n      mstore\n      shl(0xd1, 0x10b7bbb732b9)\n        /* \"#utility.yul\":6966:6968   */\n      0x40\n        /* \"#utility.yul\":6951:6969   */\n      dup3\n      add\n        /* \"#utility.yul\":6944:6980   */\n      mstore\n        /* \"#utility.yul\":7012:7014   */\n      0x60\n        /* \"#utility.yul\":6997:7015   */\n      add\n      swap1\n        /* \"#utility.yul\":6692:7021   */\n      jump\t// out\n        /* \"#utility.yul\":7026:7153   */\n    tag_643:\n        /* \"#utility.yul\":7087:7097   */\n      0x4e487b71\n        /* \"#utility.yul\":7082:7085   */\n      0xe0\n        /* \"#utility.yul\":7078:7098   */\n      shl\n        /* \"#utility.yul\":7075:7076   */\n      0x00\n        /* \"#utility.yul\":7068:7099   */\n      mstore\n        /* \"#utility.yul\":7118:7122   */\n      0x11\n        /* \"#utility.yul\":7115:7116   */\n      0x04\n        /* \"#utility.yul\":7108:7123   */\n      mstore\n        /* \"#utility.yul\":7142:7146   */\n      0x24\n        /* \"#utility.yul\":7139:7140   */\n      0x00\n        /* \"#utility.yul\":7132:7147   */\n      revert\n        /* \"#utility.yul\":7158:7283   */\n    tag_298:\n        /* \"#utility.yul\":7223:7232   */\n      dup1\n      dup3\n      add\n        /* \"#utility.yul\":7244:7254   */\n      dup1\n      dup3\n      gt\n        /* \"#utility.yul\":7241:7277   */\n      iszero\n      tag_276\n      jumpi\n        /* \"#utility.yul\":7257:7275   */\n      tag_276\n      tag_643\n      jump\t// in\n        /* \"#utility.yul\":7288:7505   */\n    tag_305:\n        /* \"#utility.yul\":7328:7329   */\n      0x00\n        /* \"#utility.yul\":7354:7355   */\n      dup3\n        /* \"#utility.yul\":7344:7476   */\n      tag_712\n      jumpi\n        /* \"#utility.yul\":7398:7408   */\n      0x4e487b71\n        /* \"#utility.yul\":7393:7396   */\n      0xe0\n        /* \"#utility.yul\":7389:7409   */\n      shl\n        /* \"#utility.yul\":7386:7387   */\n      0x00\n        /* \"#utility.yul\":7379:7410   */\n      mstore\n        /* \"#utility.yul\":7433:7437   */\n      0x12\n        /* \"#utility.yul\":7430:7431   */\n      0x04\n        /* \"#utility.yul\":7423:7438   */\n      mstore\n        /* \"#utility.yul\":7461:7465   */\n      0x24\n        /* \"#utility.yul\":7458:7459   */\n      0x00\n        /* \"#utility.yul\":7451:7466   */\n      revert\n        /* \"#utility.yul\":7344:7476   */\n    tag_712:\n      pop\n        /* \"#utility.yul\":7490:7499   */\n      div\n      swap1\n        /* \"#utility.yul\":7288:7505   */\n      jump\t// out\n        /* \"#utility.yul\":7859:7987   */\n    tag_318:\n        /* \"#utility.yul\":7926:7935   */\n      dup2\n      dup2\n      sub\n        /* \"#utility.yul\":7947:7958   */\n      dup2\n      dup2\n      gt\n        /* \"#utility.yul\":7944:7981   */\n      iszero\n      tag_276\n      jumpi\n        /* \"#utility.yul\":7961:7979   */\n      tag_276\n      tag_643\n      jump\t// in\n        /* \"#utility.yul\":8707:8834   */\n    tag_381:\n        /* \"#utility.yul\":8768:8778   */\n      0x4e487b71\n        /* \"#utility.yul\":8763:8766   */\n      0xe0\n        /* \"#utility.yul\":8759:8779   */\n      shl\n        /* \"#utility.yul\":8756:8757   */\n      0x00\n        /* \"#utility.yul\":8749:8780   */\n      mstore\n        /* \"#utility.yul\":8799:8803   */\n      0x32\n        /* \"#utility.yul\":8796:8797   */\n      0x04\n        /* \"#utility.yul\":8789:8804   */\n      mstore\n        /* \"#utility.yul\":8823:8827   */\n      0x24\n        /* \"#utility.yul\":8820:8821   */\n      0x00\n        /* \"#utility.yul\":8813:8828   */\n      revert\n        /* \"#utility.yul\":8839:8974   */\n    tag_383:\n        /* \"#utility.yul\":8878:8881   */\n      0x00\n        /* \"#utility.yul\":8899:8916   */\n      0x01\n      dup3\n      add\n        /* \"#utility.yul\":8896:8939   */\n      tag_722\n      jumpi\n        /* \"#utility.yul\":8919:8937   */\n      tag_722\n      tag_643\n      jump\t// in\n    tag_722:\n      pop\n        /* \"#utility.yul\":8966:8967   */\n      0x01\n        /* \"#utility.yul\":8955:8968   */\n      add\n      swap1\n        /* \"#utility.yul\":8839:8974   */\n      jump\t// out\n        /* \"#utility.yul\":9657:9825   */\n    tag_422:\n        /* \"#utility.yul\":9730:9739   */\n      dup1\n      dup3\n      mul\n        /* \"#utility.yul\":9761:9770   */\n      dup2\n      iszero\n        /* \"#utility.yul\":9778:9793   */\n      dup3\n      dup3\n      div\n        /* \"#utility.yul\":9772:9794   */\n      dup5\n      eq\n        /* \"#utility.yul\":9758:9795   */\n      or\n        /* \"#utility.yul\":9748:9819   */\n      tag_276\n      jumpi\n        /* \"#utility.yul\":9799:9817   */\n      tag_276\n      tag_643\n      jump\t// in\n        /* \"#utility.yul\":9830:10014   */\n    tag_433:\n        /* \"#utility.yul\":9900:9906   */\n      0x00\n        /* \"#utility.yul\":9953:9955   */\n      0x20\n        /* \"#utility.yul\":9941:9950   */\n      dup3\n        /* \"#utility.yul\":9932:9939   */\n      dup5\n        /* \"#utility.yul\":9928:9951   */\n      sub\n        /* \"#utility.yul\":9924:9956   */\n      slt\n        /* \"#utility.yul\":9921:9973   */\n      iszero\n      tag_729\n      jumpi\n        /* \"#utility.yul\":9969:9970   */\n      0x00\n        /* \"#utility.yul\":9966:9967   */\n      dup1\n        /* \"#utility.yul\":9959:9971   */\n      revert\n        /* \"#utility.yul\":9921:9973   */\n    tag_729:\n      pop\n        /* \"#utility.yul\":9992:10008   */\n      mload\n      swap2\n        /* \"#utility.yul\":9830:10014   */\n      swap1\n      pop\n      jump\t// out\n        /* \"#utility.yul\":10353:10541   */\n    tag_644:\n        /* \"#utility.yul\":10432:10445   */\n      dup1\n      mload\n      sub(shl(0x70, 0x01), 0x01)\n        /* \"#utility.yul\":10474:10516   */\n      dup2\n      and\n        /* \"#utility.yul\":10464:10517   */\n      dup2\n      eq\n        /* \"#utility.yul\":10454:10535   */\n      tag_651\n      jumpi\n        /* \"#utility.yul\":10531:10532   */\n      0x00\n        /* \"#utility.yul\":10528:10529   */\n      dup1\n        /* \"#utility.yul\":10521:10533   */\n      revert\n        /* \"#utility.yul\":10546:10996   */\n    tag_465:\n        /* \"#utility.yul\":10633:10639   */\n      0x00\n        /* \"#utility.yul\":10641:10647   */\n      dup1\n        /* \"#utility.yul\":10649:10655   */\n      0x00\n        /* \"#utility.yul\":10702:10704   */\n      0x60\n        /* \"#utility.yul\":10690:10699   */\n      dup5\n        /* \"#utility.yul\":10681:10688   */\n      dup7\n        /* \"#utility.yul\":10677:10700   */\n      sub\n        /* \"#utility.yul\":10673:10705   */\n      slt\n        /* \"#utility.yul\":10670:10722   */\n      iszero\n      tag_734\n      jumpi\n        /* \"#utility.yul\":10718:10719   */\n      0x00\n        /* \"#utility.yul\":10715:10716   */\n      dup1\n        /* \"#utility.yul\":10708:10720   */\n      revert\n        /* \"#utility.yul\":10670:10722   */\n    tag_734:\n        /* \"#utility.yul\":10741:10781   */\n      tag_735\n        /* \"#utility.yul\":10771:10780   */\n      dup5\n        /* \"#utility.yul\":10741:10781   */\n      tag_644\n      jump\t// in\n    tag_735:\n        /* \"#utility.yul\":10731:10781   */\n      swap3\n      pop\n        /* \"#utility.yul\":10800:10849   */\n      tag_736\n        /* \"#utility.yul\":10845:10847   */\n      0x20\n        /* \"#utility.yul\":10834:10843   */\n      dup6\n        /* \"#utility.yul\":10830:10848   */\n      add\n        /* \"#utility.yul\":10800:10849   */\n      tag_644\n      jump\t// in\n    tag_736:\n        /* \"#utility.yul\":10790:10849   */\n      swap2\n      pop\n        /* \"#utility.yul\":10892:10894   */\n      0x40\n        /* \"#utility.yul\":10881:10890   */\n      dup5\n        /* \"#utility.yul\":10877:10895   */\n      add\n        /* \"#utility.yul\":10871:10896   */\n      mload\n        /* \"#utility.yul\":10936:10946   */\n      0xffffffff\n        /* \"#utility.yul\":10929:10934   */\n      dup2\n        /* \"#utility.yul\":10925:10947   */\n      and\n        /* \"#utility.yul\":10918:10923   */\n      dup2\n        /* \"#utility.yul\":10915:10948   */\n      eq\n        /* \"#utility.yul\":10905:10966   */\n      tag_737\n      jumpi\n        /* \"#utility.yul\":10962:10963   */\n      0x00\n        /* \"#utility.yul\":10959:10960   */\n      dup1\n        /* \"#utility.yul\":10952:10964   */\n      revert\n        /* \"#utility.yul\":10905:10966   */\n    tag_737:\n        /* \"#utility.yul\":10985:10990   */\n      dup1\n        /* \"#utility.yul\":10975:10990   */\n      swap2\n      pop\n      pop\n        /* \"#utility.yul\":10546:10996   */\n      swap3\n      pop\n      swap3\n      pop\n      swap3\n      jump\t// out\n        /* \"#utility.yul\":11348:12328   */\n    tag_594:\n        /* \"#utility.yul\":11610:11614   */\n      0x00\n        /* \"#utility.yul\":11658:11661   */\n      0xa0\n        /* \"#utility.yul\":11647:11656   */\n      dup3\n        /* \"#utility.yul\":11643:11662   */\n      add\n        /* \"#utility.yul\":11689:11695   */\n      dup8\n        /* \"#utility.yul\":11678:11687   */\n      dup4\n        /* \"#utility.yul\":11671:11696   */\n      mstore\n        /* \"#utility.yul\":11715:11717   */\n      0x20\n        /* \"#utility.yul\":11753:11759   */\n      dup8\n        /* \"#utility.yul\":11748:11750   */\n      dup2\n        /* \"#utility.yul\":11737:11746   */\n      dup6\n        /* \"#utility.yul\":11733:11751   */\n      add\n        /* \"#utility.yul\":11726:11760   */\n      mstore\n        /* \"#utility.yul\":11796:11799   */\n      0xa0\n        /* \"#utility.yul\":11791:11793   */\n      0x40\n        /* \"#utility.yul\":11780:11789   */\n      dup6\n        /* \"#utility.yul\":11776:11794   */\n      add\n        /* \"#utility.yul\":11769:11800   */\n      mstore\n        /* \"#utility.yul\":11820:11826   */\n      dup2\n        /* \"#utility.yul\":11855:11861   */\n      dup8\n        /* \"#utility.yul\":11849:11862   */\n      mload\n        /* \"#utility.yul\":11886:11892   */\n      dup1\n        /* \"#utility.yul\":11878:11884   */\n      dup5\n        /* \"#utility.yul\":11871:11893   */\n      mstore\n        /* \"#utility.yul\":11924:11927   */\n      0xc0\n        /* \"#utility.yul\":11913:11922   */\n      dup7\n        /* \"#utility.yul\":11909:11928   */\n      add\n        /* \"#utility.yul\":11902:11928   */\n      swap2\n      pop\n        /* \"#utility.yul\":11963:11965   */\n      dup3\n        /* \"#utility.yul\":11955:11961   */\n      dup10\n        /* \"#utility.yul\":11951:11966   */\n      add\n        /* \"#utility.yul\":11937:11966   */\n      swap4\n      pop\n        /* \"#utility.yul\":11984:11985   */\n      0x00\n        /* \"#utility.yul\":11994:12189   */\n    tag_740:\n        /* \"#utility.yul\":12008:12014   */\n      dup2\n        /* \"#utility.yul\":12005:12006   */\n      dup2\n        /* \"#utility.yul\":12002:12015   */\n      lt\n        /* \"#utility.yul\":11994:12189   */\n      iszero\n      tag_742\n      jumpi\n        /* \"#utility.yul\":12073:12086   */\n      dup5\n      mload\n      sub(shl(0xa0, 0x01), 0x01)\n        /* \"#utility.yul\":12069:12108   */\n      and\n        /* \"#utility.yul\":12057:12109   */\n      dup4\n      mstore\n        /* \"#utility.yul\":12164:12179   */\n      swap4\n      dup4\n      add\n      swap4\n        /* \"#utility.yul\":12129:12141   */\n      swap2\n      dup4\n      add\n      swap2\n        /* \"#utility.yul\":12105:12106   */\n      0x01\n        /* \"#utility.yul\":12023:12032   */\n      add\n        /* \"#utility.yul\":11994:12189   */\n      jump(tag_740)\n    tag_742:\n      pop\n      pop\n      sub(shl(0xa0, 0x01), 0x01)\n        /* \"#utility.yul\":12245:12277   */\n      swap7\n      swap1\n      swap7\n      and\n        /* \"#utility.yul\":12240:12242   */\n      0x60\n        /* \"#utility.yul\":12225:12243   */\n      dup6\n      add\n        /* \"#utility.yul\":12218:12278   */\n      mstore\n      pop\n      pop\n      pop\n        /* \"#utility.yul\":12309:12312   */\n      0x80\n        /* \"#utility.yul\":12294:12313   */\n      add\n        /* \"#utility.yul\":12287:12322   */\n      mstore\n        /* \"#utility.yul\":12206:12209   */\n      swap4\n        /* \"#utility.yul\":11348:12328   */\n      swap3\n      pop\n      pop\n      pop\n      jump\t// out\n        /* \"#utility.yul\":13098:13404   */\n    tag_639:\n        /* \"#utility.yul\":13186:13192   */\n      0x00\n        /* \"#utility.yul\":13194:13200   */\n      dup1\n        /* \"#utility.yul\":13202:13208   */\n      0x00\n        /* \"#utility.yul\":13255:13257   */\n      0x60\n        /* \"#utility.yul\":13243:13252   */\n      dup5\n        /* \"#utility.yul\":13234:13241   */\n      dup7\n        /* \"#utility.yul\":13230:13253   */\n      sub\n        /* \"#utility.yul\":13226:13258   */\n      slt\n        /* \"#utility.yul\":13223:13275   */\n      iszero\n      tag_745\n      jumpi\n        /* \"#utility.yul\":13271:13272   */\n      0x00\n        /* \"#utility.yul\":13268:13269   */\n      dup1\n        /* \"#utility.yul\":13261:13273   */\n      revert\n        /* \"#utility.yul\":13223:13275   */\n    tag_745:\n        /* \"#utility.yul\":13300:13309   */\n      dup4\n        /* \"#utility.yul\":13294:13310   */\n      mload\n        /* \"#utility.yul\":13284:13310   */\n      swap3\n      pop\n        /* \"#utility.yul\":13350:13352   */\n      0x20\n        /* \"#utility.yul\":13339:13348   */\n      dup5\n        /* \"#utility.yul\":13335:13353   */\n      add\n        /* \"#utility.yul\":13329:13354   */\n      mload\n        /* \"#utility.yul\":13319:13354   */\n      swap2\n      pop\n        /* \"#utility.yul\":13394:13396   */\n      0x40\n        /* \"#utility.yul\":13383:13392   */\n      dup5\n        /* \"#utility.yul\":13379:13397   */\n      add\n        /* \"#utility.yul\":13373:13398   */\n      mload\n        /* \"#utility.yul\":13363:13398   */\n      swap1\n      pop\n        /* \"#utility.yul\":13098:13404   */\n      swap3\n      pop\n      swap3\n      pop\n      swap3\n      jump\t// out\n\n    auxdata: 0xa2646970667358221220e42f89bee84bbdfa3da10b609f05d7745234a0c333920420a8fd915a7f5ef32a64736f6c63430008110033\n}\n\nsub_1: assembly {\n        /* \"contracts/MyB2B.sol\":2759:3114  contract TokenDistributor {... */\n      mstore(0x40, 0x80)\n        /* \"contracts/MyB2B.sol\":2818:2938  constructor (address token) {... */\n      callvalue\n      dup1\n      iszero\n      tag_1\n      jumpi\n      0x00\n      dup1\n      revert\n    tag_1:\n      pop\n      mload(0x40)\n      sub(codesize, bytecodeSize)\n      dup1\n      bytecodeSize\n      dup4\n      codecopy\n      dup2\n      add\n      0x40\n      dup2\n      swap1\n      mstore\n      tag_2\n      swap2\n      tag_3\n      jump\t// in\n    tag_2:\n        /* \"contracts/MyB2B.sol\":2856:2862  _owner */\n      0x00\n        /* \"contracts/MyB2B.sol\":2856:2875  _owner = msg.sender */\n      dup1\n      sload\n      not(sub(shl(0xa0, 0x01), 0x01))\n      and\n        /* \"contracts/MyB2B.sol\":2865:2875  msg.sender */\n      caller\n        /* \"contracts/MyB2B.sol\":2856:2875  _owner = msg.sender */\n      swap1\n      dup2\n      or\n      swap1\n      swap2\n      sstore\n        /* \"contracts/MyB2B.sol\":2885:2931  IERC20(token).approve(msg.sender, ~uint256(0)) */\n      mload(0x40)\n      shl(0xe0, 0x095ea7b3)\n      dup2\n      mstore\n      0x04\n      dup2\n      add\n        /* \"#utility.yul\":483:534   */\n      swap2\n      swap1\n      swap2\n      mstore\n      not(0x00)\n        /* \"#utility.yul\":550:568   */\n      0x24\n      dup3\n      add\n        /* \"#utility.yul\":543:577   */\n      mstore\n      sub(shl(0xa0, 0x01), 0x01)\n        /* \"contracts/MyB2B.sol\":2885:2906  IERC20(token).approve */\n      dup3\n      and\n      swap1\n      0x095ea7b3\n      swap1\n        /* \"#utility.yul\":456:474   */\n      0x44\n      add\n        /* \"contracts/MyB2B.sol\":2885:2931  IERC20(token).approve(msg.sender, ~uint256(0)) */\n      0x20\n      mload(0x40)\n      dup1\n      dup4\n      sub\n      dup2\n      0x00\n      dup8\n      gas\n      call\n      iszero\n      dup1\n      iszero\n      tag_9\n      jumpi\n      returndatasize\n      0x00\n      dup1\n      returndatacopy\n      revert(0x00, returndatasize)\n    tag_9:\n      pop\n      pop\n      pop\n      pop\n      mload(0x40)\n      returndatasize\n      not(0x1f)\n      0x1f\n      dup3\n      add\n      and\n      dup3\n      add\n      dup1\n      0x40\n      mstore\n      pop\n      dup2\n      add\n      swap1\n      tag_10\n      swap2\n      swap1\n      tag_11\n      jump\t// in\n    tag_10:\n      pop\n        /* \"contracts/MyB2B.sol\":2818:2938  constructor (address token) {... */\n      pop\n        /* \"contracts/MyB2B.sol\":2759:3114  contract TokenDistributor {... */\n      jump(tag_13)\n        /* \"#utility.yul\":14:304   */\n    tag_3:\n        /* \"#utility.yul\":84:90   */\n      0x00\n        /* \"#utility.yul\":137:139   */\n      0x20\n        /* \"#utility.yul\":125:134   */\n      dup3\n        /* \"#utility.yul\":116:123   */\n      dup5\n        /* \"#utility.yul\":112:135   */\n      sub\n        /* \"#utility.yul\":108:140   */\n      slt\n        /* \"#utility.yul\":105:157   */\n      iszero\n      tag_15\n      jumpi\n        /* \"#utility.yul\":153:154   */\n      0x00\n        /* \"#utility.yul\":150:151   */\n      dup1\n        /* \"#utility.yul\":143:155   */\n      revert\n        /* \"#utility.yul\":105:157   */\n    tag_15:\n        /* \"#utility.yul\":179:195   */\n      dup2\n      mload\n      sub(shl(0xa0, 0x01), 0x01)\n        /* \"#utility.yul\":224:255   */\n      dup2\n      and\n        /* \"#utility.yul\":214:256   */\n      dup2\n      eq\n        /* \"#utility.yul\":204:274   */\n      tag_16\n      jumpi\n        /* \"#utility.yul\":270:271   */\n      0x00\n        /* \"#utility.yul\":267:268   */\n      dup1\n        /* \"#utility.yul\":260:272   */\n      revert\n        /* \"#utility.yul\":204:274   */\n    tag_16:\n        /* \"#utility.yul\":293:298   */\n      swap4\n        /* \"#utility.yul\":14:304   */\n      swap3\n      pop\n      pop\n      pop\n      jump\t// out\n        /* \"#utility.yul\":588:865   */\n    tag_11:\n        /* \"#utility.yul\":655:661   */\n      0x00\n        /* \"#utility.yul\":708:710   */\n      0x20\n        /* \"#utility.yul\":696:705   */\n      dup3\n        /* \"#utility.yul\":687:694   */\n      dup5\n        /* \"#utility.yul\":683:706   */\n      sub\n        /* \"#utility.yul\":679:711   */\n      slt\n        /* \"#utility.yul\":676:728   */\n      iszero\n      tag_19\n      jumpi\n        /* \"#utility.yul\":724:725   */\n      0x00\n        /* \"#utility.yul\":721:722   */\n      dup1\n        /* \"#utility.yul\":714:726   */\n      revert\n        /* \"#utility.yul\":676:728   */\n    tag_19:\n        /* \"#utility.yul\":756:765   */\n      dup2\n        /* \"#utility.yul\":750:766   */\n      mload\n        /* \"#utility.yul\":809:814   */\n      dup1\n        /* \"#utility.yul\":802:815   */\n      iszero\n        /* \"#utility.yul\":795:816   */\n      iszero\n        /* \"#utility.yul\":788:793   */\n      dup2\n        /* \"#utility.yul\":785:817   */\n      eq\n        /* \"#utility.yul\":775:835   */\n      tag_16\n      jumpi\n        /* \"#utility.yul\":831:832   */\n      0x00\n        /* \"#utility.yul\":828:829   */\n      dup1\n        /* \"#utility.yul\":821:833   */\n      revert\n        /* \"#utility.yul\":588:865   */\n    tag_13:\n        /* \"contracts/MyB2B.sol\":2759:3114  contract TokenDistributor {... */\n      dataSize(sub_0)\n      dup1\n      dataOffset(sub_0)\n      0x00\n      codecopy\n      0x00\n      return\n    stop\n\n    sub_0: assembly {\n            /* \"contracts/MyB2B.sol\":2759:3114  contract TokenDistributor {... */\n          mstore(0x40, 0x80)\n          callvalue\n          dup1\n          iszero\n          tag_1\n          jumpi\n          0x00\n          dup1\n          revert\n        tag_1:\n          pop\n          jumpi(tag_2, lt(calldatasize, 0x04))\n          shr(0xe0, calldataload(0x00))\n          dup1\n          0x125bfb66\n          eq\n          tag_3\n          jumpi\n          dup1\n          0xb2bdfa7b\n          eq\n          tag_4\n          jumpi\n        tag_2:\n          0x00\n          dup1\n          revert\n            /* \"contracts/MyB2B.sol\":2944:3112  function claimToken(address token, address to, uint256 amount) external {... */\n        tag_3:\n          tag_5\n          tag_6\n          calldatasize\n          0x04\n          tag_7\n          jump\t// in\n        tag_6:\n          tag_8\n          jump\t// in\n        tag_5:\n          stop\n            /* \"contracts/MyB2B.sol\":2791:2812  address public _owner */\n        tag_4:\n          sload(0x00)\n          tag_9\n          swap1\n          sub(shl(0xa0, 0x01), 0x01)\n          and\n          dup2\n          jump\n        tag_9:\n          mload(0x40)\n          sub(shl(0xa0, 0x01), 0x01)\n            /* \"#utility.yul\":689:721   */\n          swap1\n          swap2\n          and\n            /* \"#utility.yul\":671:722   */\n          dup2\n          mstore\n            /* \"#utility.yul\":659:661   */\n          0x20\n            /* \"#utility.yul\":644:662   */\n          add\n            /* \"contracts/MyB2B.sol\":2791:2812  address public _owner */\n          mload(0x40)\n          dup1\n          swap2\n          sub\n          swap1\n          return\n            /* \"contracts/MyB2B.sol\":2944:3112  function claimToken(address token, address to, uint256 amount) external {... */\n        tag_8:\n            /* \"contracts/MyB2B.sol\":3048:3054  _owner */\n          and(sub(shl(0xa0, 0x01), 0x01), sload(0x00))\n            /* \"contracts/MyB2B.sol\":3034:3044  msg.sender */\n          caller\n            /* \"contracts/MyB2B.sol\":3034:3054  msg.sender == _owner */\n          eq\n            /* \"contracts/MyB2B.sol\":3026:3061  require(msg.sender == _owner, \"!o\") */\n          tag_14\n          jumpi\n          mload(0x40)\n          shl(0xe5, 0x461bcd)\n          dup2\n          mstore\n            /* \"#utility.yul\":935:937   */\n          0x20\n            /* \"contracts/MyB2B.sol\":3026:3061  require(msg.sender == _owner, \"!o\") */\n          0x04\n          dup3\n          add\n            /* \"#utility.yul\":917:938   */\n          mstore\n            /* \"#utility.yul\":974:975   */\n          0x02\n            /* \"#utility.yul\":954:972   */\n          0x24\n          dup3\n          add\n            /* \"#utility.yul\":947:976   */\n          mstore\n          shl(0xf0, 0x216f)\n            /* \"#utility.yul\":992:1010   */\n          0x44\n          dup3\n          add\n            /* \"#utility.yul\":985:1017   */\n          mstore\n            /* \"#utility.yul\":1034:1052   */\n          0x64\n          add\n            /* \"contracts/MyB2B.sol\":3026:3061  require(msg.sender == _owner, \"!o\") */\n          mload(0x40)\n          dup1\n          swap2\n          sub\n          swap1\n          revert\n        tag_14:\n            /* \"contracts/MyB2B.sol\":3071:3105  IERC20(token).transfer(to, amount) */\n          mload(0x40)\n          shl(0xe0, 0xa9059cbb)\n          dup2\n          mstore\n          sub(shl(0xa0, 0x01), 0x01)\n            /* \"#utility.yul\":1255:1287   */\n          dup4\n          dup2\n          and\n            /* \"contracts/MyB2B.sol\":3071:3105  IERC20(token).transfer(to, amount) */\n          0x04\n          dup4\n          add\n            /* \"#utility.yul\":1237:1288   */\n          mstore\n            /* \"#utility.yul\":1304:1322   */\n          0x24\n          dup3\n          add\n            /* \"#utility.yul\":1297:1331   */\n          dup4\n          swap1\n          mstore\n            /* \"contracts/MyB2B.sol\":3071:3093  IERC20(token).transfer */\n          dup5\n          and\n          swap1\n          0xa9059cbb\n          swap1\n            /* \"#utility.yul\":1210:1228   */\n          0x44\n          add\n            /* \"contracts/MyB2B.sol\":3071:3105  IERC20(token).transfer(to, amount) */\n          0x20\n          mload(0x40)\n          dup1\n          dup4\n          sub\n          dup2\n          0x00\n          dup8\n          gas\n          call\n          iszero\n          dup1\n          iszero\n          tag_20\n          jumpi\n          returndatasize\n          0x00\n          dup1\n          returndatacopy\n          revert(0x00, returndatasize)\n        tag_20:\n          pop\n          pop\n          pop\n          pop\n          mload(0x40)\n          returndatasize\n          not(0x1f)\n          0x1f\n          dup3\n          add\n          and\n          dup3\n          add\n          dup1\n          0x40\n          mstore\n          pop\n          dup2\n          add\n          swap1\n          tag_21\n          swap2\n          swap1\n          tag_22\n          jump\t// in\n        tag_21:\n          pop\n            /* \"contracts/MyB2B.sol\":2944:3112  function claimToken(address token, address to, uint256 amount) external {... */\n          pop\n          pop\n          pop\n          jump\t// out\n            /* \"#utility.yul\":14:187   */\n        tag_23:\n            /* \"#utility.yul\":82:102   */\n          dup1\n          calldataload\n          sub(shl(0xa0, 0x01), 0x01)\n            /* \"#utility.yul\":131:162   */\n          dup2\n          and\n            /* \"#utility.yul\":121:163   */\n          dup2\n          eq\n            /* \"#utility.yul\":111:181   */\n          tag_26\n          jumpi\n            /* \"#utility.yul\":177:178   */\n          0x00\n            /* \"#utility.yul\":174:175   */\n          dup1\n            /* \"#utility.yul\":167:179   */\n          revert\n            /* \"#utility.yul\":111:181   */\n        tag_26:\n            /* \"#utility.yul\":14:187   */\n          swap2\n          swap1\n          pop\n          jump\t// out\n            /* \"#utility.yul\":192:520   */\n        tag_7:\n            /* \"#utility.yul\":269:275   */\n          0x00\n            /* \"#utility.yul\":277:283   */\n          dup1\n            /* \"#utility.yul\":285:291   */\n          0x00\n            /* \"#utility.yul\":338:340   */\n          0x60\n            /* \"#utility.yul\":326:335   */\n          dup5\n            /* \"#utility.yul\":317:324   */\n          dup7\n            /* \"#utility.yul\":313:336   */\n          sub\n            /* \"#utility.yul\":309:341   */\n          slt\n            /* \"#utility.yul\":306:358   */\n          iszero\n          tag_28\n          jumpi\n            /* \"#utility.yul\":354:355   */\n          0x00\n            /* \"#utility.yul\":351:352   */\n          dup1\n            /* \"#utility.yul\":344:356   */\n          revert\n            /* \"#utility.yul\":306:358   */\n        tag_28:\n            /* \"#utility.yul\":377:406   */\n          tag_29\n            /* \"#utility.yul\":396:405   */\n          dup5\n            /* \"#utility.yul\":377:406   */\n          tag_23\n          jump\t// in\n        tag_29:\n            /* \"#utility.yul\":367:406   */\n          swap3\n          pop\n            /* \"#utility.yul\":425:463   */\n          tag_30\n            /* \"#utility.yul\":459:461   */\n          0x20\n            /* \"#utility.yul\":448:457   */\n          dup6\n            /* \"#utility.yul\":444:462   */\n          add\n            /* \"#utility.yul\":425:463   */\n          tag_23\n          jump\t// in\n        tag_30:\n            /* \"#utility.yul\":415:463   */\n          swap2\n          pop\n            /* \"#utility.yul\":510:512   */\n          0x40\n            /* \"#utility.yul\":499:508   */\n          dup5\n            /* \"#utility.yul\":495:513   */\n          add\n            /* \"#utility.yul\":482:514   */\n          calldataload\n            /* \"#utility.yul\":472:514   */\n          swap1\n          pop\n            /* \"#utility.yul\":192:520   */\n          swap3\n          pop\n          swap3\n          pop\n          swap3\n          jump\t// out\n            /* \"#utility.yul\":1342:1619   */\n        tag_22:\n            /* \"#utility.yul\":1409:1415   */\n          0x00\n            /* \"#utility.yul\":1462:1464   */\n          0x20\n            /* \"#utility.yul\":1450:1459   */\n          dup3\n            /* \"#utility.yul\":1441:1448   */\n          dup5\n            /* \"#utility.yul\":1437:1460   */\n          sub\n            /* \"#utility.yul\":1433:1465   */\n          slt\n            /* \"#utility.yul\":1430:1482   */\n          iszero\n          tag_35\n          jumpi\n            /* \"#utility.yul\":1478:1479   */\n          0x00\n            /* \"#utility.yul\":1475:1476   */\n          dup1\n            /* \"#utility.yul\":1468:1480   */\n          revert\n            /* \"#utility.yul\":1430:1482   */\n        tag_35:\n            /* \"#utility.yul\":1510:1519   */\n          dup2\n            /* \"#utility.yul\":1504:1520   */\n          mload\n            /* \"#utility.yul\":1563:1568   */\n          dup1\n            /* \"#utility.yul\":1556:1569   */\n          iszero\n            /* \"#utility.yul\":1549:1570   */\n          iszero\n            /* \"#utility.yul\":1542:1547   */\n          dup2\n            /* \"#utility.yul\":1539:1571   */\n          eq\n            /* \"#utility.yul\":1529:1589   */\n          tag_36\n          jumpi\n            /* \"#utility.yul\":1585:1586   */\n          0x00\n            /* \"#utility.yul\":1582:1583   */\n          dup1\n            /* \"#utility.yul\":1575:1587   */\n          revert\n            /* \"#utility.yul\":1529:1589   */\n        tag_36:\n            /* \"#utility.yul\":1608:1613   */\n          swap4\n            /* \"#utility.yul\":1342:1619   */\n          swap3\n          pop\n          pop\n          pop\n          jump\t// out\n\n        auxdata: 0xa264697066735822122097b7e7927a1c1729a06589e579e093a1c52fc72747ff1ad6c08c52d9d7fbaad664736f6c63430008110033\n    }\n}\n",
				"bytecode": {
					"linkReferences": {},
					"object": "60806040526103e8600f5560c860105560006011556000601255600060135560646014556103e860155560c86016556000601755600060185560006019556064601a556032601b556000601c55600060205560006021553480156200006357600080fd5b50604080518082018252600a81526950455045322e3042534360b01b6020808301919091528251808401845260048152635045504560e01b91810191909152600080546001600160a01b031916339081178255935173d99d1c33f9fc3444f8101754abc46c52416550d19473ed24fc36d5ee211ea25a80239fb8c4cfd80f12ee94939260129264174876e8009273a23134e9e27635965a69987bcd27e000813b469492731a58197081c3f8c06227bca1e8cbad145a60c37f928492839290918291907f8be0079c531659141344cd1fd0a4f28419497f9722a3daafe3b4186f6b6457e0908290a350600662000159898262000621565b50600762000168888262000621565b506008805460ff191660ff8816179055600c80546001600160a01b03199081166001600160a01b038c8116918217909355600b8054909216928d169283179091553060009081526002602090815260408083208584529091529081902060001990819055905163095ea7b360e01b8152600481019390935260248301528b9163095ea7b3906044016020604051808303816000875af115801562000210573d6000803e3d6000fd5b505050506040513d601f19601f82011682018060405250810190620002369190620006ed565b506000816001600160a01b031663c45a01556040518163ffffffff1660e01b8152600401602060405180830381865afa15801562000278573d6000803e3d6000fd5b505050506040513d601f19601f820116820180604052508101906200029e919062000718565b6040516364e329cb60e11b81523060048201526001600160a01b038d8116602483015291925060009183169063c9c65396906044016020604051808303816000875af1158015620002f3573d6000803e3d6000fd5b505050506040513d601f19601f8201168201806040525081019062000319919062000718565b6001600160a01b0381166000818152600d60205260408120805460ff19166001179055601f80546001600160a01b031916909217909155909150620003608a600a62000858565b6200036c908a62000869565b600a8190556001600160a01b0386166000818152600160205260408082208490555192935090917fddf252ad1be2c89b69c2b068fc378daa952ba7f163c4a11628f55a4df523b3ef90620003c39085815260200190565b60405180910390a3600380546001600160a01b03808b166001600160a01b03199283168117909355600480548b83169084168117909155600580548b8416941684179055600093845260096020526040808520805460ff199081166001908117909255928652818620805484168217905593855280852080548316851790558983168552808520805483168517905530855280852080548316851790559188168452818420805482168417905533845281842080548216841790557fec8156718a8372b1db44bb411437d0870f3e3790d4a08526d024ce1b0b668f6b805482168417905561dead9093527f960b1051749987b45b5679007fff577a1c2f763ec21c15a6c5eb1930750037858054909316909117909155518d90620004e7906200056e565b6001600160a01b039091168152602001604051809103906000f08015801562000514573d6000803e3d6000fd5b50600e80546001600160a01b039290921661010002610100600160a81b0319909216919091179055620005498a600a62000858565b6200055690600062000869565b60225550620008839c50505050505050505050505050565b6103128062002ff183390190565b634e487b7160e01b600052604160045260246000fd5b600181811c90821680620005a757607f821691505b602082108103620005c857634e487b7160e01b600052602260045260246000fd5b50919050565b601f8211156200061c57600081815260208120601f850160051c81016020861015620005f75750805b601f850160051c820191505b81811015620006185782815560010162000603565b5050505b505050565b81516001600160401b038111156200063d576200063d6200057c565b62000655816200064e845462000592565b84620005ce565b602080601f8311600181146200068d5760008415620006745750858301515b600019600386901b1c1916600185901b17855562000618565b600085815260208120601f198616915b82811015620006be578886015182559484019460019091019084016200069d565b5085821015620006dd5787850151600019600388901b60f8161c191681555b5050505050600190811b01905550565b6000602082840312156200070057600080fd5b815180151581146200071157600080fd5b9392505050565b6000602082840312156200072b57600080fd5b81516001600160a01b03811681146200071157600080fd5b634e487b7160e01b600052601160045260246000fd5b600181815b808511156200079a5781600019048211156200077e576200077e62000743565b808516156200078c57918102915b93841c93908002906200075e565b509250929050565b600082620007b35750600162000852565b81620007c25750600062000852565b8160018114620007db5760028114620007e65762000806565b600191505062000852565b60ff841115620007fa57620007fa62000743565b50506001821b62000852565b5060208310610133831016604e8410600b84101617156200082b575081810a62000852565b62000837838362000759565b80600019048211156200084e576200084e62000743565b0290505b92915050565b60006200071160ff841683620007a2565b808202811582820484141762000852576200085262000743565b61275e80620008936000396000f3fe6080604052600436106102975760003560e01c80637abdc1ca1161015a578063b9ec2ec6116100c1578063d2c01fc41161007a578063d2c01fc414610770578063d83d414314610786578063dd62ed3e146107a6578063f2fde38b146107ec578063f40db8511461080c578063fcbd190b1461082257600080fd5b8063b9ec2ec6146106d8578063b9fbc49d146106ee578063c0600af314610704578063c38c682614610724578063cd8d263d1461073a578063ce0192f91461075a57600080fd5b8063a842486111610113578063a84248611461062c578063a9059cbb1461064c578063a925a6bd1461066c578063aa8b38d914610682578063adc7955d146106a2578063b2887bec146106b857600080fd5b80637abdc1ca1461058d57806385dc3004146105a35780638da5cb5b146105c35780638f02bb5b146105e157806395d89b41146106015780639bb853441461061657600080fd5b80633bfe62ca116101fe5780635ef01957116101b75780635ef01957146104e157806361769f95146104f75780636c5808011461050d57806370a0823114610522578063715018a614610558578063787595411461056d57600080fd5b80633bfe62ca146104315780633df9a8d2146104475780634188bf5a1461045d5780634672f7c51461049557806348bad3f5146104b5578063553193ca146104cb57600080fd5b806318160ddd1161025057806318160ddd1461037a5780631c99f6841461038f5780631f107a45146103af57806323b872dd146103cf578063313ce567146103ef578063349024541461041157600080fd5b806306fdde03146102a3578063095ea7b3146102ce5780630a607930146102fe5780630db5bde414610322578063125bfb6614610338578063153069321461035a57600080fd5b3661029e57005b600080fd5b3480156102af57600080fd5b506102b8610838565b6040516102c591906121e4565b60405180910390f35b3480156102da57600080fd5b506102ee6102e936600461224e565b6108ca565b60405190151581526020016102c5565b34801561030a57600080fd5b5061031460185481565b6040519081526020016102c5565b34801561032e57600080fd5b5061031460215481565b34801561034457600080fd5b50610358610353366004612278565b6108e1565b005b34801561036657600080fd5b506103586103753660046122b4565b610973565b34801561038657600080fd5b50600a54610314565b34801561039b57600080fd5b506103586103aa3660046122cd565b6109ab565b3480156103bb57600080fd5b506103586103ca3660046122b4565b610a91565b3480156103db57600080fd5b506102ee6103ea366004612278565b610ac0565b3480156103fb57600080fd5b5060085460405160ff90911681526020016102c5565b34801561041d57600080fd5b5061035861042c366004612319565b610b57565b34801561043d57600080fd5b5061031460155481565b34801561045357600080fd5b50610314601c5481565b34801561046957600080fd5b50601f5461047d906001600160a01b031681565b6040516001600160a01b0390911681526020016102c5565b3480156104a157600080fd5b506103586104b0366004612319565b610bbb565b3480156104c157600080fd5b5061031460115481565b3480156104d757600080fd5b50610314601e5481565b3480156104ed57600080fd5b5061031460205481565b34801561050357600080fd5b5061031460145481565b34801561051957600080fd5b50610358610c1f565b34801561052e57600080fd5b5061031461053d366004612319565b6001600160a01b031660009081526001602052604090205490565b34801561056457600080fd5b50610358610c89565b34801561057957600080fd5b50610358610588366004612278565b610cfd565b34801561059957600080fd5b50610314601b5481565b3480156105af57600080fd5b506103586105be366004612319565b610d8e565b3480156105cf57600080fd5b506000546001600160a01b031661047d565b3480156105ed57600080fd5b506103586105fc3660046122b4565b610df2565b34801561060d57600080fd5b506102b8610e21565b34801561062257600080fd5b50610314601d5481565b34801561063857600080fd5b50610358610647366004612354565b610e30565b34801561065857600080fd5b506102ee61066736600461224e565b610e85565b34801561067857600080fd5b5061031460125481565b34801561068e57600080fd5b5061035861069d36600461224e565b610e92565b3480156106ae57600080fd5b5061031460195481565b3480156106c457600080fd5b506103586106d33660046123a1565b610ee4565b3480156106e457600080fd5b5061031460165481565b3480156106fa57600080fd5b5061031460135481565b34801561071057600080fd5b5061035861071f366004612478565b610f75565b34801561073057600080fd5b5061031460105481565b34801561074657600080fd5b506103586107553660046122b4565b61104a565b34801561076657600080fd5b50610314600f5481565b34801561077c57600080fd5b5061031460225481565b34801561079257600080fd5b506103586107a1366004612354565b611079565b3480156107b257600080fd5b506103146107c13660046124bb565b6001600160a01b03918216600090815260026020908152604080832093909416825291909152205490565b3480156107f857600080fd5b50610358610807366004612319565b6110ce565b34801561081857600080fd5b50610314601a5481565b34801561082e57600080fd5b5061031460175481565b606060068054610847906124ee565b80601f0160208091040260200160405190810160405280929190818152602001828054610873906124ee565b80156108c05780601f10610895576101008083540402835291602001916108c0565b820191906000526020600020905b8154815290600101906020018083116108a357829003601f168201915b5050505050905090565b60006108d7338484611191565b5060015b92915050565b3360009081526009602052604090205460ff161561096e5760405163a9059cbb60e01b81526001600160a01b0383811660048301526024820183905284169063a9059cbb906044016020604051808303816000875af1158015610948573d6000803e3d6000fd5b505050506040513d601f19601f8201168201806040525081019061096c9190612528565b505b505050565b6000546001600160a01b031633146109a65760405162461bcd60e51b815260040161099d90612545565b60405180910390fd5b602155565b6000546001600160a01b031633146109d55760405162461bcd60e51b815260040161099d90612545565b600081838587896109e68c8e61257b565b6109f0919061257b565b6109fa919061257b565b610a04919061257b565b610a0e919061257b565b610a18919061257b565b90506019610a286127108361258e565b1115610a6d5760405162461bcd60e51b81526020600482015260146024820152732332b2b9902634b6b4ba1032bc31b2b2b232b21760611b604482015260640161099d565b50601596909655601694909455601792909255601855601955601b91909155601a55565b6000546001600160a01b03163314610abb5760405162461bcd60e51b815260040161099d90612545565b602255565b6000610acd8484846111f3565b6001600160a01b038416600090815260026020908152604080832033845290915290205460001914610b4d576001600160a01b0384166000908152600260209081526040808320338452909152902054610b289083906125b0565b6001600160a01b03851660009081526002602090815260408083203384529091529020555b5060019392505050565b6000546001600160a01b03163314610b815760405162461bcd60e51b815260040161099d90612545565b600580546001600160a01b039092166001600160a01b0319909216821790556000908152600960205260409020805460ff19166001179055565b6000546001600160a01b03163314610be55760405162461bcd60e51b815260040161099d90612545565b600480546001600160a01b039092166001600160a01b0319909216821790556000908152600960205260409020805460ff19166001179055565b6000546001600160a01b03163314610c495760405162461bcd60e51b815260040161099d90612545565b601e5415610c835760405162461bcd60e51b815260206004820152600760248201526674726164696e6760c81b604482015260640161099d565b43601e55565b6000546001600160a01b03163314610cb35760405162461bcd60e51b815260040161099d90612545565b600080546040516001600160a01b03909116907f8be0079c531659141344cd1fd0a4f28419497f9722a3daafe3b4186f6b6457e0908390a3600080546001600160a01b0319169055565b3360009081526009602052604090205460ff161561096e57600e5460405163092dfdb360e11b81526001600160a01b0385811660048301528481166024830152604482018490526101009092049091169063125bfb6690606401600060405180830381600087803b158015610d7157600080fd5b505af1158015610d85573d6000803e3d6000fd5b50505050505050565b6000546001600160a01b03163314610db85760405162461bcd60e51b815260040161099d90612545565b600380546001600160a01b039092166001600160a01b0319909216821790556000908152600960205260409020805460ff19166001179055565b6000546001600160a01b03163314610e1c5760405162461bcd60e51b815260040161099d90612545565b601c55565b606060078054610847906124ee565b6000546001600160a01b03163314610e5a5760405162461bcd60e51b815260040161099d90612545565b6001600160a01b03919091166000908152600d60205260409020805460ff1916911515919091179055565b60006108d73384846111f3565b3360009081526009602052604090205460ff1615610ee0576040516001600160a01b0383169082156108fc029083906000818181858888f1935050505015801561096e573d6000803e3d6000fd5b5050565b6000546001600160a01b03163314610f0e5760405162461bcd60e51b815260040161099d90612545565b60005b825181101561096e578160096000858481518110610f3157610f316125c3565b6020908102919091018101516001600160a01b03168252810191909152604001600020805460ff191691151591909117905580610f6d816125d9565b915050610f11565b6000546001600160a01b03163314610f9f5760405162461bcd60e51b815260040161099d90612545565b600081838587610faf8a8c61257b565b610fb9919061257b565b610fc3919061257b565b610fcd919061257b565b610fd7919061257b565b90506019610fe76127108361258e565b111561102c5760405162461bcd60e51b81526020600482015260146024820152732332b2b9902634b6b4ba1032bc31b2b2b232b21760611b604482015260640161099d565b50600f95909555601093909355601191909155601255601355601455565b6000546001600160a01b031633146110745760405162461bcd60e51b815260040161099d90612545565b602055565b6000546001600160a01b031633146110a35760405162461bcd60e51b815260040161099d90612545565b6001600160a01b03919091166000908152600960205260409020805460ff1916911515919091179055565b6000546001600160a01b031633146110f85760405162461bcd60e51b815260040161099d90612545565b6001600160a01b0381166111365760405162461bcd60e51b815260206004820152600560248201526406e657720360dc1b604482015260640161099d565b600080546040516001600160a01b03808516939216917f8be0079c531659141344cd1fd0a4f28419497f9722a3daafe3b4186f6b6457e091a3600080546001600160a01b0319166001600160a01b0392909216919091179055565b6001600160a01b0383811660008181526002602090815260408083209487168084529482529182902085905590518481527f8c5be1e5ebec7d5bd14f71427d1e84f3dd0314c0f7b2291e5b200ac8c7c3b92591015b60405180910390a3505050565b6001600160a01b0383166000908152600160205260409020548181101561124f5760405162461bcd60e51b815260206004820152601060248201526f0c4c2d8c2dcc6ca9cdee88adcdeeaced60831b604482015260640161099d565b6001600160a01b03841660009081526009602052604081205460ff1615801561129157506001600160a01b03841660009081526009602052604090205460ff16155b156112c7576000620186a06112a9846201869f6125f2565b6112b3919061258e565b9050808411156112c1578093505b60019150505b6001600160a01b0385166000908152600d6020526040812054819060ff168061130857506001600160a01b0386166000908152600d602052604090205460ff165b156114c157601d546000036113c1576001600160a01b03871660009081526009602052604090205460ff16801561134c5750601f546001600160a01b038781169116145b80156113b75750856001600160a01b03166318160ddd6040518163ffffffff1660e01b8152600401602060405180830381865afa158015611391573d6000803e3d6000fd5b505050506040513d601f19601f820116820180604052508101906113b59190612609565b155b156113c15743601d555b6001600160a01b03871660009081526009602052604090205460ff1615801561140357506001600160a01b03861660009081526009602052604090205460ff16155b156114bc576001600160a01b0387166000908152600d602052604090205460ff16156114385761143161150b565b9150611443565b61144061162e565b90505b601e5460000361149157601d54600010801561145c5750805b6114915760405162461bcd60e51b815260206004820152600660248201526521547261646560d01b604482015260640161099d565b601e5461149f90600361257b565b4310156114bc576114b38787876063611751565b610d85866117e2565b6114fd565b6001600160a01b0386166000908152600160205260409020541580156114e75750600085115b80156114fb57506001600160a01b03861615155b505b6114b3878787868686611899565b601f5460408051630240bc6b60e21b815290516000926001600160a01b031691839182918491630902f1ac916004808201926060929091908290030181865afa15801561155c573d6000803e3d6000fd5b505050506040513d601f19601f820116820180604052508101906115809190612639565b50600c546001600160701b039283169450911691506001600160a01b03166000308210156115af5750826115b2565b50815b6040516370a0823160e01b81526001600160a01b038681166004830152600091908416906370a0823190602401602060405180830381865afa1580156115fc573d6000803e3d6000fd5b505050506040513d601f19601f820116820180604052508101906116209190612609565b909110159695505050505050565b601f5460408051630240bc6b60e21b815290516000926001600160a01b031691839182918491630902f1ac916004808201926060929091908290030181865afa15801561167f573d6000803e3d6000fd5b505050506040513d601f19601f820116820180604052508101906116a39190612639565b50600c546001600160701b039283169450911691506001600160a01b03166000308210156116d25750826116d5565b50815b6040516370a0823160e01b81526001600160a01b038681166004830152600091908416906370a0823190602401602060405180830381865afa15801561171f573d6000803e3d6000fd5b505050506040513d601f19601f820116820180604052508101906117439190612609565b919091119695505050505050565b6001600160a01b0384166000908152600160205260409020546117759083906125b0565b6001600160a01b038516600090815260016020526040812091909155606461179d83856125f2565b6117a7919061258e565b905080156117c7576003546117c79086906001600160a01b031683611bc2565b6117db85856117d684876125b0565b611bc2565b5050505050565b600060225411801561180d57506001600160a01b0381166000908152600d602052604090205460ff16155b801561183257506001600160a01b03811660009081526009602052604090205460ff16155b15611896576001600160a01b03811660009081526001602052604090205460225410156118965760405162461bcd60e51b8152602060048201526012602482015271195e18d9595908131a5b5a5d105b5bdd5b9d60721b604482015260640161099d565b50565b6001600160a01b0386166000908152600160205260409020546118bd9085906125b0565b6001600160a01b0387166000908152600160205260408120919091558315611bb357821561192557612710602054866118f691906125f2565b611900919061258e565b90508015611920576003546119209088906001600160a01b031683611bc2565b611bb3565b811561193c57612710602154866118f691906125f2565b6001600160a01b0387166000908152600d602052604090205460ff1615611a11576000612710601354601254601154601054600f5461197b919061257b565b611985919061257b565b61198f919061257b565b611999919061257b565b6119a390886125f2565b6119ad919061258e565b905080156119cc576119bf818361257b565b91506119cc883083611bc2565b6000612710601454886119df91906125f2565b6119e9919061258e565b90508015611a0a576119fb818461257b565b9250611a0a8961dead83611bc2565b5050611bb3565b6001600160a01b0386166000908152600d602052604090205460ff1615611b78576000612710601954601854601754601654601554611a50919061257b565b611a5a919061257b565b611a64919061257b565b611a6e919061257b565b611a7890886125f2565b611a82919061258e565b90508015611aa157611a94818361257b565b9150611aa1883083611bc2565b6000612710601a5488611ab491906125f2565b611abe919061258e565b90508015611adf57611ad0818461257b565b9250611adf8961dead83611bc2565b6000612710601b5489611af291906125f2565b611afc919061258e565b90508015611b1d57611b0e818561257b565b9350611b1d8a61dead83611bc2565b600e5460ff16611b7057306000908152600160205260409020548015611b6e5760006032611b4c8660e66125f2565b611b56919061258e565b905081811115611b635750805b611b6c81611c3a565b505b505b505050611bb3565b612710601c5486611b8991906125f2565b611b93919061258e565b90508015611bb357600354611bb39088906001600160a01b031683611bc2565b610d8587876117d684896125b0565b6001600160a01b038216600090815260016020526040902054611be690829061257b565b6001600160a01b0380841660008181526001602052604090819020939093559151908516907fddf252ad1be2c89b69c2b068fc378daa952ba7f163c4a11628f55a4df523b3ef906111e69085815260200190565b600e805460ff1916600117905580156121d7576000601554600f54611c5f919061257b565b90506000601654601054611c73919061257b565b90506000601754601154611c87919061257b565b90506000601854601254611c9b919061257b565b90506000601954601354611caf919061257b565b90506000818385611cc0888a61257b565b611cca919061257b565b611cd4919061257b565b611cde919061257b565b9050611cea818061257b565b9050600081611cf9848a6125f2565b611d03919061258e565b9050611d0f83836125b0565b60408051600280825260608201835292945060009290916020830190803683375050600c5482519293506001600160a01b0316913091508390600090611d5757611d576125c3565b60200260200101906001600160a01b031690816001600160a01b0316815250508082600181518110611d8b57611d8b6125c3565b6001600160a01b039283166020918202929092010152600e54600b5461010090910482169116635c11d795611dc0868e6125b0565b60008685426040518663ffffffff1660e01b8152600401611de5959493929190612689565b600060405180830381600087803b158015611dff57600080fd5b505af1158015611e13573d6000803e3d6000fd5b50506040516370a0823160e01b81526001600160a01b038481166004830152859350600092508316906370a0823190602401602060405180830381865afa158015611e62573d6000803e3d6000fd5b505050506040513d601f19601f82011682018060405250810190611e869190612609565b6040516323b872dd60e01b81526001600160a01b03858116600483015230602483015260448201839052919250908316906323b872dd906064016020604051808303816000875af1158015611edf573d6000803e3d6000fd5b505050506040513d601f19601f82011682018060405250810190611f039190612528565b506000878d611f138460026125f2565b611f1d91906125f2565b611f27919061258e565b90508015611fa85760035460405163a9059cbb60e01b81526001600160a01b039182166004820152602481018390529084169063a9059cbb906044016020604051808303816000875af1158015611f82573d6000803e3d6000fd5b505050506040513d601f19601f82011682018060405250810190611fa69190612528565b505b6000888d611fb78560026125f2565b611fc191906125f2565b611fcb919061258e565b9050801561204e576004805460405163a9059cbb60e01b81526001600160a01b03918216928101929092526024820183905285169063a9059cbb906044016020604051808303816000875af1158015612028573d6000803e3d6000fd5b505050506040513d601f19601f8201168201806040525081019061204c9190612528565b505b6000898d61205d8660026125f2565b61206791906125f2565b612071919061258e565b905080156120f25760055460405163a9059cbb60e01b81526001600160a01b039182166004820152602481018390529086169063a9059cbb906044016020604051808303816000875af11580156120cc573d6000803e3d6000fd5b505050506040513d601f19601f820116820180604052508101906120f09190612528565b505b60008a6120ff8d876125f2565b612109919061258e565b905060008111801561211b575060008a115b156121c657600b5460035460405162e8e33760e81b81523060048201526001600160a01b038b81166024830152604482018e90526064820185905260006084830181905260a483015291821660c48201524260e482015291169063e8e3370090610104016060604051808303816000875af115801561219e573d6000803e3d6000fd5b505050506040513d601f19601f820116820180604052508101906121c291906126fa565b5050505b505050505050505050505050505050505b50600e805460ff19169055565b600060208083528351808285015260005b81811015612211578581018301518582016040015282016121f5565b506000604082860101526040601f19601f8301168501019250505092915050565b80356001600160a01b038116811461224957600080fd5b919050565b6000806040838503121561226157600080fd5b61226a83612232565b946020939093013593505050565b60008060006060848603121561228d57600080fd5b61229684612232565b92506122a460208501612232565b9150604084013590509250925092565b6000602082840312156122c657600080fd5b5035919050565b600080600080600080600060e0888a0312156122e857600080fd5b505085359760208701359750604087013596606081013596506080810135955060a0810135945060c0013592509050565b60006020828403121561232b57600080fd5b61233482612232565b9392505050565b801515811461189657600080fd5b80356122498161233b565b6000806040838503121561236757600080fd5b61237083612232565b915060208301356123808161233b565b809150509250929050565b634e487b7160e01b600052604160045260246000fd5b600080604083850312156123b457600080fd5b823567ffffffffffffffff808211156123cc57600080fd5b818501915085601f8301126123e057600080fd5b81356020828211156123f4576123f461238b565b8160051b604051601f19603f830116810181811086821117156124195761241961238b565b60405292835281830193508481018201928984111561243757600080fd5b948201945b8386101561245c5761244d86612232565b8552948201949382019361243c565b965061246b9050878201612349565b9450505050509250929050565b60008060008060008060c0878903121561249157600080fd5b505084359660208601359650604086013595606081013595506080810135945060a0013592509050565b600080604083850312156124ce57600080fd5b6124d783612232565b91506124e560208401612232565b90509250929050565b600181811c9082168061250257607f821691505b60208210810361252257634e487b7160e01b600052602260045260246000fd5b50919050565b60006020828403121561253a57600080fd5b81516123348161233b565b60208082526006908201526510b7bbb732b960d11b604082015260600190565b634e487b7160e01b600052601160045260246000fd5b808201808211156108db576108db612565565b6000826125ab57634e487b7160e01b600052601260045260246000fd5b500490565b818103818111156108db576108db612565565b634e487b7160e01b600052603260045260246000fd5b6000600182016125eb576125eb612565565b5060010190565b80820281158282048414176108db576108db612565565b60006020828403121561261b57600080fd5b5051919050565b80516001600160701b038116811461224957600080fd5b60008060006060848603121561264e57600080fd5b61265784612622565b925061266560208501612622565b9150604084015163ffffffff8116811461267e57600080fd5b809150509250925092565b600060a082018783526020878185015260a0604085015281875180845260c086019150828901935060005b818110156126d95784516001600160a01b0316835293830193918301916001016126b4565b50506001600160a01b03969096166060850152505050608001529392505050565b60008060006060848603121561270f57600080fd5b835192506020840151915060408401519050925092509256fea2646970667358221220e42f89bee84bbdfa3da10b609f05d7745234a0c333920420a8fd915a7f5ef32a64736f6c63430008110033608060405234801561001057600080fd5b5060405161031238038061031283398101604081905261002f916100bf565b600080546001600160a01b0319163390811790915560405163095ea7b360e01b8152600481019190915260001960248201526001600160a01b0382169063095ea7b3906044016020604051808303816000875af1158015610094573d6000803e3d6000fd5b505050506040513d601f19601f820116820180604052508101906100b891906100ef565b5050610111565b6000602082840312156100d157600080fd5b81516001600160a01b03811681146100e857600080fd5b9392505050565b60006020828403121561010157600080fd5b815180151581146100e857600080fd5b6101f2806101206000396000f3fe608060405234801561001057600080fd5b50600436106100365760003560e01c8063125bfb661461003b578063b2bdfa7b14610050575b600080fd5b61004e610049366004610157565b61007f565b005b600054610063906001600160a01b031681565b6040516001600160a01b03909116815260200160405180910390f35b6000546001600160a01b031633146100c25760405162461bcd60e51b8152602060048201526002602482015261216f60f01b604482015260640160405180910390fd5b60405163a9059cbb60e01b81526001600160a01b0383811660048301526024820183905284169063a9059cbb906044016020604051808303816000875af1158015610111573d6000803e3d6000fd5b505050506040513d601f19601f820116820180604052508101906101359190610193565b50505050565b80356001600160a01b038116811461015257600080fd5b919050565b60008060006060848603121561016c57600080fd5b6101758461013b565b92506101836020850161013b565b9150604084013590509250925092565b6000602082840312156101a557600080fd5b815180151581146101b557600080fd5b939250505056fea264697066735822122097b7e7927a1c1729a06589e579e093a1c52fc72747ff1ad6c08c52d9d7fbaad664736f6c63430008110033",
					"opcodes": "PUSH1 0x80 PUSH1 0x40 MSTORE PUSH2 0x3E8 PUSH1 0xF SSTORE PUSH1 0xC8 PUSH1 0x10 SSTORE PUSH1 0x0 PUSH1 0x11 SSTORE PUSH1 0x0 PUSH1 0x12 SSTORE PUSH1 0x0 PUSH1 0x13 SSTORE PUSH1 0x64 PUSH1 0x14 SSTORE PUSH2 0x3E8 PUSH1 0x15 SSTORE PUSH1 0xC8 PUSH1 0x16 SSTORE PUSH1 0x0 PUSH1 0x17 SSTORE PUSH1 0x0 PUSH1 0x18 SSTORE PUSH1 0x0 PUSH1 0x19 SSTORE PUSH1 0x64 PUSH1 0x1A SSTORE PUSH1 0x32 PUSH1 0x1B SSTORE PUSH1 0x0 PUSH1 0x1C SSTORE PUSH1 0x0 PUSH1 0x20 SSTORE PUSH1 0x0 PUSH1 0x21 SSTORE CALLVALUE DUP1 ISZERO PUSH3 0x63 JUMPI PUSH1 0x0 DUP1 REVERT JUMPDEST POP PUSH1 0x40 DUP1 MLOAD DUP1 DUP3 ADD DUP3 MSTORE PUSH1 0xA DUP2 MSTORE PUSH10 0x50455045322E30425343 PUSH1 0xB0 SHL PUSH1 0x20 DUP1 DUP4 ADD SWAP2 SWAP1 SWAP2 MSTORE DUP3 MLOAD DUP1 DUP5 ADD DUP5 MSTORE PUSH1 0x4 DUP2 MSTORE PUSH4 0x50455045 PUSH1 0xE0 SHL SWAP2 DUP2 ADD SWAP2 SWAP1 SWAP2 MSTORE PUSH1 0x0 DUP1 SLOAD PUSH1 0x1 PUSH1 0x1 PUSH1 0xA0 SHL SUB NOT AND CALLER SWAP1 DUP2 OR DUP3 SSTORE SWAP4 MLOAD PUSH20 0xD99D1C33F9FC3444F8101754ABC46C52416550D1 SWAP5 PUSH20 0xED24FC36D5EE211EA25A80239FB8C4CFD80F12EE SWAP5 SWAP4 SWAP3 PUSH1 0x12 SWAP3 PUSH5 0x174876E800 SWAP3 PUSH20 0xA23134E9E27635965A69987BCD27E000813B4694 SWAP3 PUSH20 0x1A58197081C3F8C06227BCA1E8CBAD145A60C37F SWAP3 DUP5 SWAP3 DUP4 SWAP3 SWAP1 SWAP2 DUP3 SWAP2 SWAP1 PUSH32 0x8BE0079C531659141344CD1FD0A4F28419497F9722A3DAAFE3B4186F6B6457E0 SWAP1 DUP3 SWAP1 LOG3 POP PUSH1 0x6 PUSH3 0x159 DUP10 DUP3 PUSH3 0x621 JUMP JUMPDEST POP PUSH1 0x7 PUSH3 0x168 DUP9 DUP3 PUSH3 0x621 JUMP JUMPDEST POP PUSH1 0x8 DUP1 SLOAD PUSH1 0xFF NOT AND PUSH1 0xFF DUP9 AND OR SWAP1 SSTORE PUSH1 0xC DUP1 SLOAD PUSH1 0x1 PUSH1 0x1 PUSH1 0xA0 SHL SUB NOT SWAP1 DUP2 AND PUSH1 0x1 PUSH1 0x1 PUSH1 0xA0 SHL SUB DUP13 DUP2 AND SWAP2 DUP3 OR SWAP1 SWAP4 SSTORE PUSH1 0xB DUP1 SLOAD SWAP1 SWAP3 AND SWAP3 DUP14 AND SWAP3 DUP4 OR SWAP1 SWAP2 SSTORE ADDRESS PUSH1 0x0 SWAP1 DUP2 MSTORE PUSH1 0x2 PUSH1 0x20 SWAP1 DUP2 MSTORE PUSH1 0x40 DUP1 DUP4 KECCAK256 DUP6 DUP5 MSTORE SWAP1 SWAP2 MSTORE SWAP1 DUP2 SWAP1 KECCAK256 PUSH1 0x0 NOT SWAP1 DUP2 SWAP1 SSTORE SWAP1 MLOAD PUSH4 0x95EA7B3 PUSH1 0xE0 SHL DUP2 MSTORE PUSH1 0x4 DUP2 ADD SWAP4 SWAP1 SWAP4 MSTORE PUSH1 0x24 DUP4 ADD MSTORE DUP12 SWAP2 PUSH4 0x95EA7B3 SWAP1 PUSH1 0x44 ADD PUSH1 0x20 PUSH1 0x40 MLOAD DUP1 DUP4 SUB DUP2 PUSH1 0x0 DUP8 GAS CALL ISZERO DUP1 ISZERO PUSH3 0x210 JUMPI RETURNDATASIZE PUSH1 0x0 DUP1 RETURNDATACOPY RETURNDATASIZE PUSH1 0x0 REVERT JUMPDEST POP POP POP POP PUSH1 0x40 MLOAD RETURNDATASIZE PUSH1 0x1F NOT PUSH1 0x1F DUP3 ADD AND DUP3 ADD DUP1 PUSH1 0x40 MSTORE POP DUP2 ADD SWAP1 PUSH3 0x236 SWAP2 SWAP1 PUSH3 0x6ED JUMP JUMPDEST POP PUSH1 0x0 DUP2 PUSH1 0x1 PUSH1 0x1 PUSH1 0xA0 SHL SUB AND PUSH4 0xC45A0155 PUSH1 0x40 MLOAD DUP2 PUSH4 0xFFFFFFFF AND PUSH1 0xE0 SHL DUP2 MSTORE PUSH1 0x4 ADD PUSH1 0x20 PUSH1 0x40 MLOAD DUP1 DUP4 SUB DUP2 DUP7 GAS STATICCALL ISZERO DUP1 ISZERO PUSH3 0x278 JUMPI RETURNDATASIZE PUSH1 0x0 DUP1 RETURNDATACOPY RETURNDATASIZE PUSH1 0x0 REVERT JUMPDEST POP POP POP POP PUSH1 0x40 MLOAD RETURNDATASIZE PUSH1 0x1F NOT PUSH1 0x1F DUP3 ADD AND DUP3 ADD DUP1 PUSH1 0x40 MSTORE POP DUP2 ADD SWAP1 PUSH3 0x29E SWAP2 SWAP1 PUSH3 0x718 JUMP JUMPDEST PUSH1 0x40 MLOAD PUSH4 0x64E329CB PUSH1 0xE1 SHL DUP2 MSTORE ADDRESS PUSH1 0x4 DUP3 ADD MSTORE PUSH1 0x1 PUSH1 0x1 PUSH1 0xA0 SHL SUB DUP14 DUP2 AND PUSH1 0x24 DUP4 ADD MSTORE SWAP2 SWAP3 POP PUSH1 0x0 SWAP2 DUP4 AND SWAP1 PUSH4 0xC9C65396 SWAP1 PUSH1 0x44 ADD PUSH1 0x20 PUSH1 0x40 MLOAD DUP1 DUP4 SUB DUP2 PUSH1 0x0 DUP8 GAS CALL ISZERO DUP1 ISZERO PUSH3 0x2F3 JUMPI RETURNDATASIZE PUSH1 0x0 DUP1 RETURNDATACOPY RETURNDATASIZE PUSH1 0x0 REVERT JUMPDEST POP POP POP POP PUSH1 0x40 MLOAD RETURNDATASIZE PUSH1 0x1F NOT PUSH1 0x1F DUP3 ADD AND DUP3 ADD DUP1 PUSH1 0x40 MSTORE POP DUP2 ADD SWAP1 PUSH3 0x319 SWAP2 SWAP1 PUSH3 0x718 JUMP JUMPDEST PUSH1 0x1 PUSH1 0x1 PUSH1 0xA0 SHL SUB DUP2 AND PUSH1 0x0 DUP2 DUP2 MSTORE PUSH1 0xD PUSH1 0x20 MSTORE PUSH1 0x40 DUP2 KECCAK256 DUP1 SLOAD PUSH1 0xFF NOT AND PUSH1 0x1 OR SWAP1 SSTORE PUSH1 0x1F DUP1 SLOAD PUSH1 0x1 PUSH1 0x1 PUSH1 0xA0 SHL SUB NOT AND SWAP1 SWAP3 OR SWAP1 SWAP2 SSTORE SWAP1 SWAP2 POP PUSH3 0x360 DUP11 PUSH1 0xA PUSH3 0x858 JUMP JUMPDEST PUSH3 0x36C SWAP1 DUP11 PUSH3 0x869 JUMP JUMPDEST PUSH1 0xA DUP2 SWAP1 SSTORE PUSH1 0x1 PUSH1 0x1 PUSH1 0xA0 SHL SUB DUP7 AND PUSH1 0x0 DUP2 DUP2 MSTORE PUSH1 0x1 PUSH1 0x20 MSTORE PUSH1 0x40 DUP1 DUP3 KECCAK256 DUP5 SWAP1 SSTORE MLOAD SWAP3 SWAP4 POP SWAP1 SWAP2 PUSH32 0xDDF252AD1BE2C89B69C2B068FC378DAA952BA7F163C4A11628F55A4DF523B3EF SWAP1 PUSH3 0x3C3 SWAP1 DUP6 DUP2 MSTORE PUSH1 0x20 ADD SWAP1 JUMP JUMPDEST PUSH1 0x40 MLOAD DUP1 SWAP2 SUB SWAP1 LOG3 PUSH1 0x3 DUP1 SLOAD PUSH1 0x1 PUSH1 0x1 PUSH1 0xA0 SHL SUB DUP1 DUP12 AND PUSH1 0x1 PUSH1 0x1 PUSH1 0xA0 SHL SUB NOT SWAP3 DUP4 AND DUP2 OR SWAP1 SWAP4 SSTORE PUSH1 0x4 DUP1 SLOAD DUP12 DUP4 AND SWAP1 DUP5 AND DUP2 OR SWAP1 SWAP2 SSTORE PUSH1 0x5 DUP1 SLOAD DUP12 DUP5 AND SWAP5 AND DUP5 OR SWAP1 SSTORE PUSH1 0x0 SWAP4 DUP5 MSTORE PUSH1 0x9 PUSH1 0x20 MSTORE PUSH1 0x40 DUP1 DUP6 KECCAK256 DUP1 SLOAD PUSH1 0xFF NOT SWAP1 DUP2 AND PUSH1 0x1 SWAP1 DUP2 OR SWAP1 SWAP3 SSTORE SWAP3 DUP7 MSTORE DUP2 DUP7 KECCAK256 DUP1 SLOAD DUP5 AND DUP3 OR SWAP1 SSTORE SWAP4 DUP6 MSTORE DUP1 DUP6 KECCAK256 DUP1 SLOAD DUP4 AND DUP6 OR SWAP1 SSTORE DUP10 DUP4 AND DUP6 MSTORE DUP1 DUP6 KECCAK256 DUP1 SLOAD DUP4 AND DUP6 OR SWAP1 SSTORE ADDRESS DUP6 MSTORE DUP1 DUP6 KECCAK256 DUP1 SLOAD DUP4 AND DUP6 OR SWAP1 SSTORE SWAP2 DUP9 AND DUP5 MSTORE DUP2 DUP5 KECCAK256 DUP1 SLOAD DUP3 AND DUP5 OR SWAP1 SSTORE CALLER DUP5 MSTORE DUP2 DUP5 KECCAK256 DUP1 SLOAD DUP3 AND DUP5 OR SWAP1 SSTORE PUSH32 0xEC8156718A8372B1DB44BB411437D0870F3E3790D4A08526D024CE1B0B668F6B DUP1 SLOAD DUP3 AND DUP5 OR SWAP1 SSTORE PUSH2 0xDEAD SWAP1 SWAP4 MSTORE PUSH32 0x960B1051749987B45B5679007FFF577A1C2F763EC21C15A6C5EB193075003785 DUP1 SLOAD SWAP1 SWAP4 AND SWAP1 SWAP2 OR SWAP1 SWAP2 SSTORE MLOAD DUP14 SWAP1 PUSH3 0x4E7 SWAP1 PUSH3 0x56E JUMP JUMPDEST PUSH1 0x1 PUSH1 0x1 PUSH1 0xA0 SHL SUB SWAP1 SWAP2 AND DUP2 MSTORE PUSH1 0x20 ADD PUSH1 0x40 MLOAD DUP1 SWAP2 SUB SWAP1 PUSH1 0x0 CREATE DUP1 ISZERO DUP1 ISZERO PUSH3 0x514 JUMPI RETURNDATASIZE PUSH1 0x0 DUP1 RETURNDATACOPY RETURNDATASIZE PUSH1 0x0 REVERT JUMPDEST POP PUSH1 0xE DUP1 SLOAD PUSH1 0x1 PUSH1 0x1 PUSH1 0xA0 SHL SUB SWAP3 SWAP1 SWAP3 AND PUSH2 0x100 MUL PUSH2 0x100 PUSH1 0x1 PUSH1 0xA8 SHL SUB NOT SWAP1 SWAP3 AND SWAP2 SWAP1 SWAP2 OR SWAP1 SSTORE PUSH3 0x549 DUP11 PUSH1 0xA PUSH3 0x858 JUMP JUMPDEST PUSH3 0x556 SWAP1 PUSH1 0x0 PUSH3 0x869 JUMP JUMPDEST PUSH1 0x22 SSTORE POP PUSH3 0x883 SWAP13 POP POP POP POP POP POP POP POP POP POP POP POP POP JUMP JUMPDEST PUSH2 0x312 DUP1 PUSH3 0x2FF1 DUP4 CODECOPY ADD SWAP1 JUMP JUMPDEST PUSH4 0x4E487B71 PUSH1 0xE0 SHL PUSH1 0x0 MSTORE PUSH1 0x41 PUSH1 0x4 MSTORE PUSH1 0x24 PUSH1 0x0 REVERT JUMPDEST PUSH1 0x1 DUP2 DUP2 SHR SWAP1 DUP3 AND DUP1 PUSH3 0x5A7 JUMPI PUSH1 0x7F DUP3 AND SWAP2 POP JUMPDEST PUSH1 0x20 DUP3 LT DUP2 SUB PUSH3 0x5C8 JUMPI PUSH4 0x4E487B71 PUSH1 0xE0 SHL PUSH1 0x0 MSTORE PUSH1 0x22 PUSH1 0x4 MSTORE PUSH1 0x24 PUSH1 0x0 REVERT JUMPDEST POP SWAP2 SWAP1 POP JUMP JUMPDEST PUSH1 0x1F DUP3 GT ISZERO PUSH3 0x61C JUMPI PUSH1 0x0 DUP2 DUP2 MSTORE PUSH1 0x20 DUP2 KECCAK256 PUSH1 0x1F DUP6 ADD PUSH1 0x5 SHR DUP2 ADD PUSH1 0x20 DUP7 LT ISZERO PUSH3 0x5F7 JUMPI POP DUP1 JUMPDEST PUSH1 0x1F DUP6 ADD PUSH1 0x5 SHR DUP3 ADD SWAP2 POP JUMPDEST DUP2 DUP2 LT ISZERO PUSH3 0x618 JUMPI DUP3 DUP2 SSTORE PUSH1 0x1 ADD PUSH3 0x603 JUMP JUMPDEST POP POP POP JUMPDEST POP POP POP JUMP JUMPDEST DUP2 MLOAD PUSH1 0x1 PUSH1 0x1 PUSH1 0x40 SHL SUB DUP2 GT ISZERO PUSH3 0x63D JUMPI PUSH3 0x63D PUSH3 0x57C JUMP JUMPDEST PUSH3 0x655 DUP2 PUSH3 0x64E DUP5 SLOAD PUSH3 0x592 JUMP JUMPDEST DUP5 PUSH3 0x5CE JUMP JUMPDEST PUSH1 0x20 DUP1 PUSH1 0x1F DUP4 GT PUSH1 0x1 DUP2 EQ PUSH3 0x68D JUMPI PUSH1 0x0 DUP5 ISZERO PUSH3 0x674 JUMPI POP DUP6 DUP4 ADD MLOAD JUMPDEST PUSH1 0x0 NOT PUSH1 0x3 DUP7 SWAP1 SHL SHR NOT AND PUSH1 0x1 DUP6 SWAP1 SHL OR DUP6 SSTORE PUSH3 0x618 JUMP JUMPDEST PUSH1 0x0 DUP6 DUP2 MSTORE PUSH1 0x20 DUP2 KECCAK256 PUSH1 0x1F NOT DUP7 AND SWAP2 JUMPDEST DUP3 DUP2 LT ISZERO PUSH3 0x6BE JUMPI DUP9 DUP7 ADD MLOAD DUP3 SSTORE SWAP5 DUP5 ADD SWAP5 PUSH1 0x1 SWAP1 SWAP2 ADD SWAP1 DUP5 ADD PUSH3 0x69D JUMP JUMPDEST POP DUP6 DUP3 LT ISZERO PUSH3 0x6DD JUMPI DUP8 DUP6 ADD MLOAD PUSH1 0x0 NOT PUSH1 0x3 DUP9 SWAP1 SHL PUSH1 0xF8 AND SHR NOT AND DUP2 SSTORE JUMPDEST POP POP POP POP POP PUSH1 0x1 SWAP1 DUP2 SHL ADD SWAP1 SSTORE POP JUMP JUMPDEST PUSH1 0x0 PUSH1 0x20 DUP3 DUP5 SUB SLT ISZERO PUSH3 0x700 JUMPI PUSH1 0x0 DUP1 REVERT JUMPDEST DUP2 MLOAD DUP1 ISZERO ISZERO DUP2 EQ PUSH3 0x711 JUMPI PUSH1 0x0 DUP1 REVERT JUMPDEST SWAP4 SWAP3 POP POP POP JUMP JUMPDEST PUSH1 0x0 PUSH1 0x20 DUP3 DUP5 SUB SLT ISZERO PUSH3 0x72B JUMPI PUSH1 0x0 DUP1 REVERT JUMPDEST DUP2 MLOAD PUSH1 0x1 PUSH1 0x1 PUSH1 0xA0 SHL SUB DUP2 AND DUP2 EQ PUSH3 0x711 JUMPI PUSH1 0x0 DUP1 REVERT JUMPDEST PUSH4 0x4E487B71 PUSH1 0xE0 SHL PUSH1 0x0 MSTORE PUSH1 0x11 PUSH1 0x4 MSTORE PUSH1 0x24 PUSH1 0x0 REVERT JUMPDEST PUSH1 0x1 DUP2 DUP2 JUMPDEST DUP1 DUP6 GT ISZERO PUSH3 0x79A JUMPI DUP2 PUSH1 0x0 NOT DIV DUP3 GT ISZERO PUSH3 0x77E JUMPI PUSH3 0x77E PUSH3 0x743 JUMP JUMPDEST DUP1 DUP6 AND ISZERO PUSH3 0x78C JUMPI SWAP2 DUP2 MUL SWAP2 JUMPDEST SWAP4 DUP5 SHR SWAP4 SWAP1 DUP1 MUL SWAP1 PUSH3 0x75E JUMP JUMPDEST POP SWAP3 POP SWAP3 SWAP1 POP JUMP JUMPDEST PUSH1 0x0 DUP3 PUSH3 0x7B3 JUMPI POP PUSH1 0x1 PUSH3 0x852 JUMP JUMPDEST DUP2 PUSH3 0x7C2 JUMPI POP PUSH1 0x0 PUSH3 0x852 JUMP JUMPDEST DUP2 PUSH1 0x1 DUP2 EQ PUSH3 0x7DB JUMPI PUSH1 0x2 DUP2 EQ PUSH3 0x7E6 JUMPI PUSH3 0x806 JUMP JUMPDEST PUSH1 0x1 SWAP2 POP POP PUSH3 0x852 JUMP JUMPDEST PUSH1 0xFF DUP5 GT ISZERO PUSH3 0x7FA JUMPI PUSH3 0x7FA PUSH3 0x743 JUMP JUMPDEST POP POP PUSH1 0x1 DUP3 SHL PUSH3 0x852 JUMP JUMPDEST POP PUSH1 0x20 DUP4 LT PUSH2 0x133 DUP4 LT AND PUSH1 0x4E DUP5 LT PUSH1 0xB DUP5 LT AND OR ISZERO PUSH3 0x82B JUMPI POP DUP2 DUP2 EXP PUSH3 0x852 JUMP JUMPDEST PUSH3 0x837 DUP4 DUP4 PUSH3 0x759 JUMP JUMPDEST DUP1 PUSH1 0x0 NOT DIV DUP3 GT ISZERO PUSH3 0x84E JUMPI PUSH3 0x84E PUSH3 0x743 JUMP JUMPDEST MUL SWAP1 POP JUMPDEST SWAP3 SWAP2 POP POP JUMP JUMPDEST PUSH1 0x0 PUSH3 0x711 PUSH1 0xFF DUP5 AND DUP4 PUSH3 0x7A2 JUMP JUMPDEST DUP1 DUP3 MUL DUP2 ISZERO DUP3 DUP3 DIV DUP5 EQ OR PUSH3 0x852 JUMPI PUSH3 0x852 PUSH3 0x743 JUMP JUMPDEST PUSH2 0x275E DUP1 PUSH3 0x893 PUSH1 0x0 CODECOPY PUSH1 0x0 RETURN INVALID PUSH1 0x80 PUSH1 0x40 MSTORE PUSH1 0x4 CALLDATASIZE LT PUSH2 0x297 JUMPI PUSH1 0x0 CALLDATALOAD PUSH1 0xE0 SHR DUP1 PUSH4 0x7ABDC1CA GT PUSH2 0x15A JUMPI DUP1 PUSH4 0xB9EC2EC6 GT PUSH2 0xC1 JUMPI DUP1 PUSH4 0xD2C01FC4 GT PUSH2 0x7A JUMPI DUP1 PUSH4 0xD2C01FC4 EQ PUSH2 0x770 JUMPI DUP1 PUSH4 0xD83D4143 EQ PUSH2 0x786 JUMPI DUP1 PUSH4 0xDD62ED3E EQ PUSH2 0x7A6 JUMPI DUP1 PUSH4 0xF2FDE38B EQ PUSH2 0x7EC JUMPI DUP1 PUSH4 0xF40DB851 EQ PUSH2 0x80C JUMPI DUP1 PUSH4 0xFCBD190B EQ PUSH2 0x822 JUMPI PUSH1 0x0 DUP1 REVERT JUMPDEST DUP1 PUSH4 0xB9EC2EC6 EQ PUSH2 0x6D8 JUMPI DUP1 PUSH4 0xB9FBC49D EQ PUSH2 0x6EE JUMPI DUP1 PUSH4 0xC0600AF3 EQ PUSH2 0x704 JUMPI DUP1 PUSH4 0xC38C6826 EQ PUSH2 0x724 JUMPI DUP1 PUSH4 0xCD8D263D EQ PUSH2 0x73A JUMPI DUP1 PUSH4 0xCE0192F9 EQ PUSH2 0x75A JUMPI PUSH1 0x0 DUP1 REVERT JUMPDEST DUP1 PUSH4 0xA8424861 GT PUSH2 0x113 JUMPI DUP1 PUSH4 0xA8424861 EQ PUSH2 0x62C JUMPI DUP1 PUSH4 0xA9059CBB EQ PUSH2 0x64C JUMPI DUP1 PUSH4 0xA925A6BD EQ PUSH2 0x66C JUMPI DUP1 PUSH4 0xAA8B38D9 EQ PUSH2 0x682 JUMPI DUP1 PUSH4 0xADC7955D EQ PUSH2 0x6A2 JUMPI DUP1 PUSH4 0xB2887BEC EQ PUSH2 0x6B8 JUMPI PUSH1 0x0 DUP1 REVERT JUMPDEST DUP1 PUSH4 0x7ABDC1CA EQ PUSH2 0x58D JUMPI DUP1 PUSH4 0x85DC3004 EQ PUSH2 0x5A3 JUMPI DUP1 PUSH4 0x8DA5CB5B EQ PUSH2 0x5C3 JUMPI DUP1 PUSH4 0x8F02BB5B EQ PUSH2 0x5E1 JUMPI DUP1 PUSH4 0x95D89B41 EQ PUSH2 0x601 JUMPI DUP1 PUSH4 0x9BB85344 EQ PUSH2 0x616 JUMPI PUSH1 0x0 DUP1 REVERT JUMPDEST DUP1 PUSH4 0x3BFE62CA GT PUSH2 0x1FE JUMPI DUP1 PUSH4 0x5EF01957 GT PUSH2 0x1B7 JUMPI DUP1 PUSH4 0x5EF01957 EQ PUSH2 0x4E1 JUMPI DUP1 PUSH4 0x61769F95 EQ PUSH2 0x4F7 JUMPI DUP1 PUSH4 0x6C580801 EQ PUSH2 0x50D JUMPI DUP1 PUSH4 0x70A08231 EQ PUSH2 0x522 JUMPI DUP1 PUSH4 0x715018A6 EQ PUSH2 0x558 JUMPI DUP1 PUSH4 0x78759541 EQ PUSH2 0x56D JUMPI PUSH1 0x0 DUP1 REVERT JUMPDEST DUP1 PUSH4 0x3BFE62CA EQ PUSH2 0x431 JUMPI DUP1 PUSH4 0x3DF9A8D2 EQ PUSH2 0x447 JUMPI DUP1 PUSH4 0x4188BF5A EQ PUSH2 0x45D JUMPI DUP1 PUSH4 0x4672F7C5 EQ PUSH2 0x495 JUMPI DUP1 PUSH4 0x48BAD3F5 EQ PUSH2 0x4B5 JUMPI DUP1 PUSH4 0x553193CA EQ PUSH2 0x4CB JUMPI PUSH1 0x0 DUP1 REVERT JUMPDEST DUP1 PUSH4 0x18160DDD GT PUSH2 0x250 JUMPI DUP1 PUSH4 0x18160DDD EQ PUSH2 0x37A JUMPI DUP1 PUSH4 0x1C99F684 EQ PUSH2 0x38F JUMPI DUP1 PUSH4 0x1F107A45 EQ PUSH2 0x3AF JUMPI DUP1 PUSH4 0x23B872DD EQ PUSH2 0x3CF JUMPI DUP1 PUSH4 0x313CE567 EQ PUSH2 0x3EF JUMPI DUP1 PUSH4 0x34902454 EQ PUSH2 0x411 JUMPI PUSH1 0x0 DUP1 REVERT JUMPDEST DUP1 PUSH4 0x6FDDE03 EQ PUSH2 0x2A3 JUMPI DUP1 PUSH4 0x95EA7B3 EQ PUSH2 0x2CE JUMPI DUP1 PUSH4 0xA607930 EQ PUSH2 0x2FE JUMPI DUP1 PUSH4 0xDB5BDE4 EQ PUSH2 0x322 JUMPI DUP1 PUSH4 0x125BFB66 EQ PUSH2 0x338 JUMPI DUP1 PUSH4 0x15306932 EQ PUSH2 0x35A JUMPI PUSH1 0x0 DUP1 REVERT JUMPDEST CALLDATASIZE PUSH2 0x29E JUMPI STOP JUMPDEST PUSH1 0x0 DUP1 REVERT JUMPDEST CALLVALUE DUP1 ISZERO PUSH2 0x2AF JUMPI PUSH1 0x0 DUP1 REVERT JUMPDEST POP PUSH2 0x2B8 PUSH2 0x838 JUMP JUMPDEST PUSH1 0x40 MLOAD PUSH2 0x2C5 SWAP2 SWAP1 PUSH2 0x21E4 JUMP JUMPDEST PUSH1 0x40 MLOAD DUP1 SWAP2 SUB SWAP1 RETURN JUMPDEST CALLVALUE DUP1 ISZERO PUSH2 0x2DA JUMPI PUSH1 0x0 DUP1 REVERT JUMPDEST POP PUSH2 0x2EE PUSH2 0x2E9 CALLDATASIZE PUSH1 0x4 PUSH2 0x224E JUMP JUMPDEST PUSH2 0x8CA JUMP JUMPDEST PUSH1 0x40 MLOAD SWAP1 ISZERO ISZERO DUP2 MSTORE PUSH1 0x20 ADD PUSH2 0x2C5 JUMP JUMPDEST CALLVALUE DUP1 ISZERO PUSH2 0x30A JUMPI PUSH1 0x0 DUP1 REVERT JUMPDEST POP PUSH2 0x314 PUSH1 0x18 SLOAD DUP2 JUMP JUMPDEST PUSH1 0x40 MLOAD SWAP1 DUP2 MSTORE PUSH1 0x20 ADD PUSH2 0x2C5 JUMP JUMPDEST CALLVALUE DUP1 ISZERO PUSH2 0x32E JUMPI PUSH1 0x0 DUP1 REVERT JUMPDEST POP PUSH2 0x314 PUSH1 0x21 SLOAD DUP2 JUMP JUMPDEST CALLVALUE DUP1 ISZERO PUSH2 0x344 JUMPI PUSH1 0x0 DUP1 REVERT JUMPDEST POP PUSH2 0x358 PUSH2 0x353 CALLDATASIZE PUSH1 0x4 PUSH2 0x2278 JUMP JUMPDEST PUSH2 0x8E1 JUMP JUMPDEST STOP JUMPDEST CALLVALUE DUP1 ISZERO PUSH2 0x366 JUMPI PUSH1 0x0 DUP1 REVERT JUMPDEST POP PUSH2 0x358 PUSH2 0x375 CALLDATASIZE PUSH1 0x4 PUSH2 0x22B4 JUMP JUMPDEST PUSH2 0x973 JUMP JUMPDEST CALLVALUE DUP1 ISZERO PUSH2 0x386 JUMPI PUSH1 0x0 DUP1 REVERT JUMPDEST POP PUSH1 0xA SLOAD PUSH2 0x314 JUMP JUMPDEST CALLVALUE DUP1 ISZERO PUSH2 0x39B JUMPI PUSH1 0x0 DUP1 REVERT JUMPDEST POP PUSH2 0x358 PUSH2 0x3AA CALLDATASIZE PUSH1 0x4 PUSH2 0x22CD JUMP JUMPDEST PUSH2 0x9AB JUMP JUMPDEST CALLVALUE DUP1 ISZERO PUSH2 0x3BB JUMPI PUSH1 0x0 DUP1 REVERT JUMPDEST POP PUSH2 0x358 PUSH2 0x3CA CALLDATASIZE PUSH1 0x4 PUSH2 0x22B4 JUMP JUMPDEST PUSH2 0xA91 JUMP JUMPDEST CALLVALUE DUP1 ISZERO PUSH2 0x3DB JUMPI PUSH1 0x0 DUP1 REVERT JUMPDEST POP PUSH2 0x2EE PUSH2 0x3EA CALLDATASIZE PUSH1 0x4 PUSH2 0x2278 JUMP JUMPDEST PUSH2 0xAC0 JUMP JUMPDEST CALLVALUE DUP1 ISZERO PUSH2 0x3FB JUMPI PUSH1 0x0 DUP1 REVERT JUMPDEST POP PUSH1 0x8 SLOAD PUSH1 0x40 MLOAD PUSH1 0xFF SWAP1 SWAP2 AND DUP2 MSTORE PUSH1 0x20 ADD PUSH2 0x2C5 JUMP JUMPDEST CALLVALUE DUP1 ISZERO PUSH2 0x41D JUMPI PUSH1 0x0 DUP1 REVERT JUMPDEST POP PUSH2 0x358 PUSH2 0x42C CALLDATASIZE PUSH1 0x4 PUSH2 0x2319 JUMP JUMPDEST PUSH2 0xB57 JUMP JUMPDEST CALLVALUE DUP1 ISZERO PUSH2 0x43D JUMPI PUSH1 0x0 DUP1 REVERT JUMPDEST POP PUSH2 0x314 PUSH1 0x15 SLOAD DUP2 JUMP JUMPDEST CALLVALUE DUP1 ISZERO PUSH2 0x453 JUMPI PUSH1 0x0 DUP1 REVERT JUMPDEST POP PUSH2 0x314 PUSH1 0x1C SLOAD DUP2 JUMP JUMPDEST CALLVALUE DUP1 ISZERO PUSH2 0x469 JUMPI PUSH1 0x0 DUP1 REVERT JUMPDEST POP PUSH1 0x1F SLOAD PUSH2 0x47D SWAP1 PUSH1 0x1 PUSH1 0x1 PUSH1 0xA0 SHL SUB AND DUP2 JUMP JUMPDEST PUSH1 0x40 MLOAD PUSH1 0x1 PUSH1 0x1 PUSH1 0xA0 SHL SUB SWAP1 SWAP2 AND DUP2 MSTORE PUSH1 0x20 ADD PUSH2 0x2C5 JUMP JUMPDEST CALLVALUE DUP1 ISZERO PUSH2 0x4A1 JUMPI PUSH1 0x0 DUP1 REVERT JUMPDEST POP PUSH2 0x358 PUSH2 0x4B0 CALLDATASIZE PUSH1 0x4 PUSH2 0x2319 JUMP JUMPDEST PUSH2 0xBBB JUMP JUMPDEST CALLVALUE DUP1 ISZERO PUSH2 0x4C1 JUMPI PUSH1 0x0 DUP1 REVERT JUMPDEST POP PUSH2 0x314 PUSH1 0x11 SLOAD DUP2 JUMP JUMPDEST CALLVALUE DUP1 ISZERO PUSH2 0x4D7 JUMPI PUSH1 0x0 DUP1 REVERT JUMPDEST POP PUSH2 0x314 PUSH1 0x1E SLOAD DUP2 JUMP JUMPDEST CALLVALUE DUP1 ISZERO PUSH2 0x4ED JUMPI PUSH1 0x0 DUP1 REVERT JUMPDEST POP PUSH2 0x314 PUSH1 0x20 SLOAD DUP2 JUMP JUMPDEST CALLVALUE DUP1 ISZERO PUSH2 0x503 JUMPI PUSH1 0x0 DUP1 REVERT JUMPDEST POP PUSH2 0x314 PUSH1 0x14 SLOAD DUP2 JUMP JUMPDEST CALLVALUE DUP1 ISZERO PUSH2 0x519 JUMPI PUSH1 0x0 DUP1 REVERT JUMPDEST POP PUSH2 0x358 PUSH2 0xC1F JUMP JUMPDEST CALLVALUE DUP1 ISZERO PUSH2 0x52E JUMPI PUSH1 0x0 DUP1 REVERT JUMPDEST POP PUSH2 0x314 PUSH2 0x53D CALLDATASIZE PUSH1 0x4 PUSH2 0x2319 JUMP JUMPDEST PUSH1 0x1 PUSH1 0x1 PUSH1 0xA0 SHL SUB AND PUSH1 0x0 SWAP1 DUP2 MSTORE PUSH1 0x1 PUSH1 0x20 MSTORE PUSH1 0x40 SWAP1 KECCAK256 SLOAD SWAP1 JUMP JUMPDEST CALLVALUE DUP1 ISZERO PUSH2 0x564 JUMPI PUSH1 0x0 DUP1 REVERT JUMPDEST POP PUSH2 0x358 PUSH2 0xC89 JUMP JUMPDEST CALLVALUE DUP1 ISZERO PUSH2 0x579 JUMPI PUSH1 0x0 DUP1 REVERT JUMPDEST POP PUSH2 0x358 PUSH2 0x588 CALLDATASIZE PUSH1 0x4 PUSH2 0x2278 JUMP JUMPDEST PUSH2 0xCFD JUMP JUMPDEST CALLVALUE DUP1 ISZERO PUSH2 0x599 JUMPI PUSH1 0x0 DUP1 REVERT JUMPDEST POP PUSH2 0x314 PUSH1 0x1B SLOAD DUP2 JUMP JUMPDEST CALLVALUE DUP1 ISZERO PUSH2 0x5AF JUMPI PUSH1 0x0 DUP1 REVERT JUMPDEST POP PUSH2 0x358 PUSH2 0x5BE CALLDATASIZE PUSH1 0x4 PUSH2 0x2319 JUMP JUMPDEST PUSH2 0xD8E JUMP JUMPDEST CALLVALUE DUP1 ISZERO PUSH2 0x5CF JUMPI PUSH1 0x0 DUP1 REVERT JUMPDEST POP PUSH1 0x0 SLOAD PUSH1 0x1 PUSH1 0x1 PUSH1 0xA0 SHL SUB AND PUSH2 0x47D JUMP JUMPDEST CALLVALUE DUP1 ISZERO PUSH2 0x5ED JUMPI PUSH1 0x0 DUP1 REVERT JUMPDEST POP PUSH2 0x358 PUSH2 0x5FC CALLDATASIZE PUSH1 0x4 PUSH2 0x22B4 JUMP JUMPDEST PUSH2 0xDF2 JUMP JUMPDEST CALLVALUE DUP1 ISZERO PUSH2 0x60D JUMPI PUSH1 0x0 DUP1 REVERT JUMPDEST POP PUSH2 0x2B8 PUSH2 0xE21 JUMP JUMPDEST CALLVALUE DUP1 ISZERO PUSH2 0x622 JUMPI PUSH1 0x0 DUP1 REVERT JUMPDEST POP PUSH2 0x314 PUSH1 0x1D SLOAD DUP2 JUMP JUMPDEST CALLVALUE DUP1 ISZERO PUSH2 0x638 JUMPI PUSH1 0x0 DUP1 REVERT JUMPDEST POP PUSH2 0x358 PUSH2 0x647 CALLDATASIZE PUSH1 0x4 PUSH2 0x2354 JUMP JUMPDEST PUSH2 0xE30 JUMP JUMPDEST CALLVALUE DUP1 ISZERO PUSH2 0x658 JUMPI PUSH1 0x0 DUP1 REVERT JUMPDEST POP PUSH2 0x2EE PUSH2 0x667 CALLDATASIZE PUSH1 0x4 PUSH2 0x224E JUMP JUMPDEST PUSH2 0xE85 JUMP JUMPDEST CALLVALUE DUP1 ISZERO PUSH2 0x678 JUMPI PUSH1 0x0 DUP1 REVERT JUMPDEST POP PUSH2 0x314 PUSH1 0x12 SLOAD DUP2 JUMP JUMPDEST CALLVALUE DUP1 ISZERO PUSH2 0x68E JUMPI PUSH1 0x0 DUP1 REVERT JUMPDEST POP PUSH2 0x358 PUSH2 0x69D CALLDATASIZE PUSH1 0x4 PUSH2 0x224E JUMP JUMPDEST PUSH2 0xE92 JUMP JUMPDEST CALLVALUE DUP1 ISZERO PUSH2 0x6AE JUMPI PUSH1 0x0 DUP1 REVERT JUMPDEST POP PUSH2 0x314 PUSH1 0x19 SLOAD DUP2 JUMP JUMPDEST CALLVALUE DUP1 ISZERO PUSH2 0x6C4 JUMPI PUSH1 0x0 DUP1 REVERT JUMPDEST POP PUSH2 0x358 PUSH2 0x6D3 CALLDATASIZE PUSH1 0x4 PUSH2 0x23A1 JUMP JUMPDEST PUSH2 0xEE4 JUMP JUMPDEST CALLVALUE DUP1 ISZERO PUSH2 0x6E4 JUMPI PUSH1 0x0 DUP1 REVERT JUMPDEST POP PUSH2 0x314 PUSH1 0x16 SLOAD DUP2 JUMP JUMPDEST CALLVALUE DUP1 ISZERO PUSH2 0x6FA JUMPI PUSH1 0x0 DUP1 REVERT JUMPDEST POP PUSH2 0x314 PUSH1 0x13 SLOAD DUP2 JUMP JUMPDEST CALLVALUE DUP1 ISZERO PUSH2 0x710 JUMPI PUSH1 0x0 DUP1 REVERT JUMPDEST POP PUSH2 0x358 PUSH2 0x71F CALLDATASIZE PUSH1 0x4 PUSH2 0x2478 JUMP JUMPDEST PUSH2 0xF75 JUMP JUMPDEST CALLVALUE DUP1 ISZERO PUSH2 0x730 JUMPI PUSH1 0x0 DUP1 REVERT JUMPDEST POP PUSH2 0x314 PUSH1 0x10 SLOAD DUP2 JUMP JUMPDEST CALLVALUE DUP1 ISZERO PUSH2 0x746 JUMPI PUSH1 0x0 DUP1 REVERT JUMPDEST POP PUSH2 0x358 PUSH2 0x755 CALLDATASIZE PUSH1 0x4 PUSH2 0x22B4 JUMP JUMPDEST PUSH2 0x104A JUMP JUMPDEST CALLVALUE DUP1 ISZERO PUSH2 0x766 JUMPI PUSH1 0x0 DUP1 REVERT JUMPDEST POP PUSH2 0x314 PUSH1 0xF SLOAD DUP2 JUMP JUMPDEST CALLVALUE DUP1 ISZERO PUSH2 0x77C JUMPI PUSH1 0x0 DUP1 REVERT JUMPDEST POP PUSH2 0x314 PUSH1 0x22 SLOAD DUP2 JUMP JUMPDEST CALLVALUE DUP1 ISZERO PUSH2 0x792 JUMPI PUSH1 0x0 DUP1 REVERT JUMPDEST POP PUSH2 0x358 PUSH2 0x7A1 CALLDATASIZE PUSH1 0x4 PUSH2 0x2354 JUMP JUMPDEST PUSH2 0x1079 JUMP JUMPDEST CALLVALUE DUP1 ISZERO PUSH2 0x7B2 JUMPI PUSH1 0x0 DUP1 REVERT JUMPDEST POP PUSH2 0x314 PUSH2 0x7C1 CALLDATASIZE PUSH1 0x4 PUSH2 0x24BB JUMP JUMPDEST PUSH1 0x1 PUSH1 0x1 PUSH1 0xA0 SHL SUB SWAP2 DUP3 AND PUSH1 0x0 SWAP1 DUP2 MSTORE PUSH1 0x2 PUSH1 0x20 SWAP1 DUP2 MSTORE PUSH1 0x40 DUP1 DUP4 KECCAK256 SWAP4 SWAP1 SWAP5 AND DUP3 MSTORE SWAP2 SWAP1 SWAP2 MSTORE KECCAK256 SLOAD SWAP1 JUMP JUMPDEST CALLVALUE DUP1 ISZERO PUSH2 0x7F8 JUMPI PUSH1 0x0 DUP1 REVERT JUMPDEST POP PUSH2 0x358 PUSH2 0x807 CALLDATASIZE PUSH1 0x4 PUSH2 0x2319 JUMP JUMPDEST PUSH2 0x10CE JUMP JUMPDEST CALLVALUE DUP1 ISZERO PUSH2 0x818 JUMPI PUSH1 0x0 DUP1 REVERT JUMPDEST POP PUSH2 0x314 PUSH1 0x1A SLOAD DUP2 JUMP JUMPDEST CALLVALUE DUP1 ISZERO PUSH2 0x82E JUMPI PUSH1 0x0 DUP1 REVERT JUMPDEST POP PUSH2 0x314 PUSH1 0x17 SLOAD DUP2 JUMP JUMPDEST PUSH1 0x60 PUSH1 0x6 DUP1 SLOAD PUSH2 0x847 SWAP1 PUSH2 0x24EE JUMP JUMPDEST DUP1 PUSH1 0x1F ADD PUSH1 0x20 DUP1 SWAP2 DIV MUL PUSH1 0x20 ADD PUSH1 0x40 MLOAD SWAP1 DUP2 ADD PUSH1 0x40 MSTORE DUP1 SWAP3 SWAP2 SWAP1 DUP2 DUP2 MSTORE PUSH1 0x20 ADD DUP3 DUP1 SLOAD PUSH2 0x873 SWAP1 PUSH2 0x24EE JUMP JUMPDEST DUP1 ISZERO PUSH2 0x8C0 JUMPI DUP1 PUSH1 0x1F LT PUSH2 0x895 JUMPI PUSH2 0x100 DUP1 DUP4 SLOAD DIV MUL DUP4 MSTORE SWAP2 PUSH1 0x20 ADD SWAP2 PUSH2 0x8C0 JUMP JUMPDEST DUP3 ADD SWAP2 SWAP1 PUSH1 0x0 MSTORE PUSH1 0x20 PUSH1 0x0 KECCAK256 SWAP1 JUMPDEST DUP2 SLOAD DUP2 MSTORE SWAP1 PUSH1 0x1 ADD SWAP1 PUSH1 0x20 ADD DUP1 DUP4 GT PUSH2 0x8A3 JUMPI DUP3 SWAP1 SUB PUSH1 0x1F AND DUP3 ADD SWAP2 JUMPDEST POP POP POP POP POP SWAP1 POP SWAP1 JUMP JUMPDEST PUSH1 0x0 PUSH2 0x8D7 CALLER DUP5 DUP5 PUSH2 0x1191 JUMP JUMPDEST POP PUSH1 0x1 JUMPDEST SWAP3 SWAP2 POP POP JUMP JUMPDEST CALLER PUSH1 0x0 SWAP1 DUP2 MSTORE PUSH1 0x9 PUSH1 0x20 MSTORE PUSH1 0x40 SWAP1 KECCAK256 SLOAD PUSH1 0xFF AND ISZERO PUSH2 0x96E JUMPI PUSH1 0x40 MLOAD PUSH4 0xA9059CBB PUSH1 0xE0 SHL DUP2 MSTORE PUSH1 0x1 PUSH1 0x1 PUSH1 0xA0 SHL SUB DUP4 DUP2 AND PUSH1 0x4 DUP4 ADD MSTORE PUSH1 0x24 DUP3 ADD DUP4 SWAP1 MSTORE DUP5 AND SWAP1 PUSH4 0xA9059CBB SWAP1 PUSH1 0x44 ADD PUSH1 0x20 PUSH1 0x40 MLOAD DUP1 DUP4 SUB DUP2 PUSH1 0x0 DUP8 GAS CALL ISZERO DUP1 ISZERO PUSH2 0x948 JUMPI RETURNDATASIZE PUSH1 0x0 DUP1 RETURNDATACOPY RETURNDATASIZE PUSH1 0x0 REVERT JUMPDEST POP POP POP POP PUSH1 0x40 MLOAD RETURNDATASIZE PUSH1 0x1F NOT PUSH1 0x1F DUP3 ADD AND DUP3 ADD DUP1 PUSH1 0x40 MSTORE POP DUP2 ADD SWAP1 PUSH2 0x96C SWAP2 SWAP1 PUSH2 0x2528 JUMP JUMPDEST POP JUMPDEST POP POP POP JUMP JUMPDEST PUSH1 0x0 SLOAD PUSH1 0x1 PUSH1 0x1 PUSH1 0xA0 SHL SUB AND CALLER EQ PUSH2 0x9A6 JUMPI PUSH1 0x40 MLOAD PUSH3 0x461BCD PUSH1 0xE5 SHL DUP2 MSTORE PUSH1 0x4 ADD PUSH2 0x99D SWAP1 PUSH2 0x2545 JUMP JUMPDEST PUSH1 0x40 MLOAD DUP1 SWAP2 SUB SWAP1 REVERT JUMPDEST PUSH1 0x21 SSTORE JUMP JUMPDEST PUSH1 0x0 SLOAD PUSH1 0x1 PUSH1 0x1 PUSH1 0xA0 SHL SUB AND CALLER EQ PUSH2 0x9D5 JUMPI PUSH1 0x40 MLOAD PUSH3 0x461BCD PUSH1 0xE5 SHL DUP2 MSTORE PUSH1 0x4 ADD PUSH2 0x99D SWAP1 PUSH2 0x2545 JUMP JUMPDEST PUSH1 0x0 DUP2 DUP4 DUP6 DUP8 DUP10 PUSH2 0x9E6 DUP13 DUP15 PUSH2 0x257B JUMP JUMPDEST PUSH2 0x9F0 SWAP2 SWAP1 PUSH2 0x257B JUMP JUMPDEST PUSH2 0x9FA SWAP2 SWAP1 PUSH2 0x257B JUMP JUMPDEST PUSH2 0xA04 SWAP2 SWAP1 PUSH2 0x257B JUMP JUMPDEST PUSH2 0xA0E SWAP2 SWAP1 PUSH2 0x257B JUMP JUMPDEST PUSH2 0xA18 SWAP2 SWAP1 PUSH2 0x257B JUMP JUMPDEST SWAP1 POP PUSH1 0x19 PUSH2 0xA28 PUSH2 0x2710 DUP4 PUSH2 0x258E JUMP JUMPDEST GT ISZERO PUSH2 0xA6D JUMPI PUSH1 0x40 MLOAD PUSH3 0x461BCD PUSH1 0xE5 SHL DUP2 MSTORE PUSH1 0x20 PUSH1 0x4 DUP3 ADD MSTORE PUSH1 0x14 PUSH1 0x24 DUP3 ADD MSTORE PUSH20 0x2332B2B9902634B6B4BA1032BC31B2B2B232B217 PUSH1 0x61 SHL PUSH1 0x44 DUP3 ADD MSTORE PUSH1 0x64 ADD PUSH2 0x99D JUMP JUMPDEST POP PUSH1 0x15 SWAP7 SWAP1 SWAP7 SSTORE PUSH1 0x16 SWAP5 SWAP1 SWAP5 SSTORE PUSH1 0x17 SWAP3 SWAP1 SWAP3 SSTORE PUSH1 0x18 SSTORE PUSH1 0x19 SSTORE PUSH1 0x1B SWAP2 SWAP1 SWAP2 SSTORE PUSH1 0x1A SSTORE JUMP JUMPDEST PUSH1 0x0 SLOAD PUSH1 0x1 PUSH1 0x1 PUSH1 0xA0 SHL SUB AND CALLER EQ PUSH2 0xABB JUMPI PUSH1 0x40 MLOAD PUSH3 0x461BCD PUSH1 0xE5 SHL DUP2 MSTORE PUSH1 0x4 ADD PUSH2 0x99D SWAP1 PUSH2 0x2545 JUMP JUMPDEST PUSH1 0x22 SSTORE JUMP JUMPDEST PUSH1 0x0 PUSH2 0xACD DUP5 DUP5 DUP5 PUSH2 0x11F3 JUMP JUMPDEST PUSH1 0x1 PUSH1 0x1 PUSH1 0xA0 SHL SUB DUP5 AND PUSH1 0x0 SWAP1 DUP2 MSTORE PUSH1 0x2 PUSH1 0x20 SWAP1 DUP2 MSTORE PUSH1 0x40 DUP1 DUP4 KECCAK256 CALLER DUP5 MSTORE SWAP1 SWAP2 MSTORE SWAP1 KECCAK256 SLOAD PUSH1 0x0 NOT EQ PUSH2 0xB4D JUMPI PUSH1 0x1 PUSH1 0x1 PUSH1 0xA0 SHL SUB DUP5 AND PUSH1 0x0 SWAP1 DUP2 MSTORE PUSH1 0x2 PUSH1 0x20 SWAP1 DUP2 MSTORE PUSH1 0x40 DUP1 DUP4 KECCAK256 CALLER DUP5 MSTORE SWAP1 SWAP2 MSTORE SWAP1 KECCAK256 SLOAD PUSH2 0xB28 SWAP1 DUP4 SWAP1 PUSH2 0x25B0 JUMP JUMPDEST PUSH1 0x1 PUSH1 0x1 PUSH1 0xA0 SHL SUB DUP6 AND PUSH1 0x0 SWAP1 DUP2 MSTORE PUSH1 0x2 PUSH1 0x20 SWAP1 DUP2 MSTORE PUSH1 0x40 DUP1 DUP4 KECCAK256 CALLER DUP5 MSTORE SWAP1 SWAP2 MSTORE SWAP1 KECCAK256 SSTORE JUMPDEST POP PUSH1 0x1 SWAP4 SWAP3 POP POP POP JUMP JUMPDEST PUSH1 0x0 SLOAD PUSH1 0x1 PUSH1 0x1 PUSH1 0xA0 SHL SUB AND CALLER EQ PUSH2 0xB81 JUMPI PUSH1 0x40 MLOAD PUSH3 0x461BCD PUSH1 0xE5 SHL DUP2 MSTORE PUSH1 0x4 ADD PUSH2 0x99D SWAP1 PUSH2 0x2545 JUMP JUMPDEST PUSH1 0x5 DUP1 SLOAD PUSH1 0x1 PUSH1 0x1 PUSH1 0xA0 SHL SUB SWAP1 SWAP3 AND PUSH1 0x1 PUSH1 0x1 PUSH1 0xA0 SHL SUB NOT SWAP1 SWAP3 AND DUP3 OR SWAP1 SSTORE PUSH1 0x0 SWAP1 DUP2 MSTORE PUSH1 0x9 PUSH1 0x20 MSTORE PUSH1 0x40 SWAP1 KECCAK256 DUP1 SLOAD PUSH1 0xFF NOT AND PUSH1 0x1 OR SWAP1 SSTORE JUMP JUMPDEST PUSH1 0x0 SLOAD PUSH1 0x1 PUSH1 0x1 PUSH1 0xA0 SHL SUB AND CALLER EQ PUSH2 0xBE5 JUMPI PUSH1 0x40 MLOAD PUSH3 0x461BCD PUSH1 0xE5 SHL DUP2 MSTORE PUSH1 0x4 ADD PUSH2 0x99D SWAP1 PUSH2 0x2545 JUMP JUMPDEST PUSH1 0x4 DUP1 SLOAD PUSH1 0x1 PUSH1 0x1 PUSH1 0xA0 SHL SUB SWAP1 SWAP3 AND PUSH1 0x1 PUSH1 0x1 PUSH1 0xA0 SHL SUB NOT SWAP1 SWAP3 AND DUP3 OR SWAP1 SSTORE PUSH1 0x0 SWAP1 DUP2 MSTORE PUSH1 0x9 PUSH1 0x20 MSTORE PUSH1 0x40 SWAP1 KECCAK256 DUP1 SLOAD PUSH1 0xFF NOT AND PUSH1 0x1 OR SWAP1 SSTORE JUMP JUMPDEST PUSH1 0x0 SLOAD PUSH1 0x1 PUSH1 0x1 PUSH1 0xA0 SHL SUB AND CALLER EQ PUSH2 0xC49 JUMPI PUSH1 0x40 MLOAD PUSH3 0x461BCD PUSH1 0xE5 SHL DUP2 MSTORE PUSH1 0x4 ADD PUSH2 0x99D SWAP1 PUSH2 0x2545 JUMP JUMPDEST PUSH1 0x1E SLOAD ISZERO PUSH2 0xC83 JUMPI PUSH1 0x40 MLOAD PUSH3 0x461BCD PUSH1 0xE5 SHL DUP2 MSTORE PUSH1 0x20 PUSH1 0x4 DUP3 ADD MSTORE PUSH1 0x7 PUSH1 0x24 DUP3 ADD MSTORE PUSH7 0x74726164696E67 PUSH1 0xC8 SHL PUSH1 0x44 DUP3 ADD MSTORE PUSH1 0x64 ADD PUSH2 0x99D JUMP JUMPDEST NUMBER PUSH1 0x1E SSTORE JUMP JUMPDEST PUSH1 0x0 SLOAD PUSH1 0x1 PUSH1 0x1 PUSH1 0xA0 SHL SUB AND CALLER EQ PUSH2 0xCB3 JUMPI PUSH1 0x40 MLOAD PUSH3 0x461BCD PUSH1 0xE5 SHL DUP2 MSTORE PUSH1 0x4 ADD PUSH2 0x99D SWAP1 PUSH2 0x2545 JUMP JUMPDEST PUSH1 0x0 DUP1 SLOAD PUSH1 0x40 MLOAD PUSH1 0x1 PUSH1 0x1 PUSH1 0xA0 SHL SUB SWAP1 SWAP2 AND SWAP1 PUSH32 0x8BE0079C531659141344CD1FD0A4F28419497F9722A3DAAFE3B4186F6B6457E0 SWAP1 DUP4 SWAP1 LOG3 PUSH1 0x0 DUP1 SLOAD PUSH1 0x1 PUSH1 0x1 PUSH1 0xA0 SHL SUB NOT AND SWAP1 SSTORE JUMP JUMPDEST CALLER PUSH1 0x0 SWAP1 DUP2 MSTORE PUSH1 0x9 PUSH1 0x20 MSTORE PUSH1 0x40 SWAP1 KECCAK256 SLOAD PUSH1 0xFF AND ISZERO PUSH2 0x96E JUMPI PUSH1 0xE SLOAD PUSH1 0x40 MLOAD PUSH4 0x92DFDB3 PUSH1 0xE1 SHL DUP2 MSTORE PUSH1 0x1 PUSH1 0x1 PUSH1 0xA0 SHL SUB DUP6 DUP2 AND PUSH1 0x4 DUP4 ADD MSTORE DUP5 DUP2 AND PUSH1 0x24 DUP4 ADD MSTORE PUSH1 0x44 DUP3 ADD DUP5 SWAP1 MSTORE PUSH2 0x100 SWAP1 SWAP3 DIV SWAP1 SWAP2 AND SWAP1 PUSH4 0x125BFB66 SWAP1 PUSH1 0x64 ADD PUSH1 0x0 PUSH1 0x40 MLOAD DUP1 DUP4 SUB DUP2 PUSH1 0x0 DUP8 DUP1 EXTCODESIZE ISZERO DUP1 ISZERO PUSH2 0xD71 JUMPI PUSH1 0x0 DUP1 REVERT JUMPDEST POP GAS CALL ISZERO DUP1 ISZERO PUSH2 0xD85 JUMPI RETURNDATASIZE PUSH1 0x0 DUP1 RETURNDATACOPY RETURNDATASIZE PUSH1 0x0 REVERT JUMPDEST POP POP POP POP POP POP POP JUMP JUMPDEST PUSH1 0x0 SLOAD PUSH1 0x1 PUSH1 0x1 PUSH1 0xA0 SHL SUB AND CALLER EQ PUSH2 0xDB8 JUMPI PUSH1 0x40 MLOAD PUSH3 0x461BCD PUSH1 0xE5 SHL DUP2 MSTORE PUSH1 0x4 ADD PUSH2 0x99D SWAP1 PUSH2 0x2545 JUMP JUMPDEST PUSH1 0x3 DUP1 SLOAD PUSH1 0x1 PUSH1 0x1 PUSH1 0xA0 SHL SUB SWAP1 SWAP3 AND PUSH1 0x1 PUSH1 0x1 PUSH1 0xA0 SHL SUB NOT SWAP1 SWAP3 AND DUP3 OR SWAP1 SSTORE PUSH1 0x0 SWAP1 DUP2 MSTORE PUSH1 0x9 PUSH1 0x20 MSTORE PUSH1 0x40 SWAP1 KECCAK256 DUP1 SLOAD PUSH1 0xFF NOT AND PUSH1 0x1 OR SWAP1 SSTORE JUMP JUMPDEST PUSH1 0x0 SLOAD PUSH1 0x1 PUSH1 0x1 PUSH1 0xA0 SHL SUB AND CALLER EQ PUSH2 0xE1C JUMPI PUSH1 0x40 MLOAD PUSH3 0x461BCD PUSH1 0xE5 SHL DUP2 MSTORE PUSH1 0x4 ADD PUSH2 0x99D SWAP1 PUSH2 0x2545 JUMP JUMPDEST PUSH1 0x1C SSTORE JUMP JUMPDEST PUSH1 0x60 PUSH1 0x7 DUP1 SLOAD PUSH2 0x847 SWAP1 PUSH2 0x24EE JUMP JUMPDEST PUSH1 0x0 SLOAD PUSH1 0x1 PUSH1 0x1 PUSH1 0xA0 SHL SUB AND CALLER EQ PUSH2 0xE5A JUMPI PUSH1 0x40 MLOAD PUSH3 0x461BCD PUSH1 0xE5 SHL DUP2 MSTORE PUSH1 0x4 ADD PUSH2 0x99D SWAP1 PUSH2 0x2545 JUMP JUMPDEST PUSH1 0x1 PUSH1 0x1 PUSH1 0xA0 SHL SUB SWAP2 SWAP1 SWAP2 AND PUSH1 0x0 SWAP1 DUP2 MSTORE PUSH1 0xD PUSH1 0x20 MSTORE PUSH1 0x40 SWAP1 KECCAK256 DUP1 SLOAD PUSH1 0xFF NOT AND SWAP2 ISZERO ISZERO SWAP2 SWAP1 SWAP2 OR SWAP1 SSTORE JUMP JUMPDEST PUSH1 0x0 PUSH2 0x8D7 CALLER DUP5 DUP5 PUSH2 0x11F3 JUMP JUMPDEST CALLER PUSH1 0x0 SWAP1 DUP2 MSTORE PUSH1 0x9 PUSH1 0x20 MSTORE PUSH1 0x40 SWAP1 KECCAK256 SLOAD PUSH1 0xFF AND ISZERO PUSH2 0xEE0 JUMPI PUSH1 0x40 MLOAD PUSH1 0x1 PUSH1 0x1 PUSH1 0xA0 SHL SUB DUP4 AND SWAP1 DUP3 ISZERO PUSH2 0x8FC MUL SWAP1 DUP4 SWAP1 PUSH1 0x0 DUP2 DUP2 DUP2 DUP6 DUP9 DUP9 CALL SWAP4 POP POP POP POP ISZERO DUP1 ISZERO PUSH2 0x96E JUMPI RETURNDATASIZE PUSH1 0x0 DUP1 RETURNDATACOPY RETURNDATASIZE PUSH1 0x0 REVERT JUMPDEST POP POP JUMP JUMPDEST PUSH1 0x0 SLOAD PUSH1 0x1 PUSH1 0x1 PUSH1 0xA0 SHL SUB AND CALLER EQ PUSH2 0xF0E JUMPI PUSH1 0x40 MLOAD PUSH3 0x461BCD PUSH1 0xE5 SHL DUP2 MSTORE PUSH1 0x4 ADD PUSH2 0x99D SWAP1 PUSH2 0x2545 JUMP JUMPDEST PUSH1 0x0 JUMPDEST DUP3 MLOAD DUP2 LT ISZERO PUSH2 0x96E JUMPI DUP2 PUSH1 0x9 PUSH1 0x0 DUP6 DUP5 DUP2 MLOAD DUP2 LT PUSH2 0xF31 JUMPI PUSH2 0xF31 PUSH2 0x25C3 JUMP JUMPDEST PUSH1 0x20 SWAP1 DUP2 MUL SWAP2 SWAP1 SWAP2 ADD DUP2 ADD MLOAD PUSH1 0x1 PUSH1 0x1 PUSH1 0xA0 SHL SUB AND DUP3 MSTORE DUP2 ADD SWAP2 SWAP1 SWAP2 MSTORE PUSH1 0x40 ADD PUSH1 0x0 KECCAK256 DUP1 SLOAD PUSH1 0xFF NOT AND SWAP2 ISZERO ISZERO SWAP2 SWAP1 SWAP2 OR SWAP1 SSTORE DUP1 PUSH2 0xF6D DUP2 PUSH2 0x25D9 JUMP JUMPDEST SWAP2 POP POP PUSH2 0xF11 JUMP JUMPDEST PUSH1 0x0 SLOAD PUSH1 0x1 PUSH1 0x1 PUSH1 0xA0 SHL SUB AND CALLER EQ PUSH2 0xF9F JUMPI PUSH1 0x40 MLOAD PUSH3 0x461BCD PUSH1 0xE5 SHL DUP2 MSTORE PUSH1 0x4 ADD PUSH2 0x99D SWAP1 PUSH2 0x2545 JUMP JUMPDEST PUSH1 0x0 DUP2 DUP4 DUP6 DUP8 PUSH2 0xFAF DUP11 DUP13 PUSH2 0x257B JUMP JUMPDEST PUSH2 0xFB9 SWAP2 SWAP1 PUSH2 0x257B JUMP JUMPDEST PUSH2 0xFC3 SWAP2 SWAP1 PUSH2 0x257B JUMP JUMPDEST PUSH2 0xFCD SWAP2 SWAP1 PUSH2 0x257B JUMP JUMPDEST PUSH2 0xFD7 SWAP2 SWAP1 PUSH2 0x257B JUMP JUMPDEST SWAP1 POP PUSH1 0x19 PUSH2 0xFE7 PUSH2 0x2710 DUP4 PUSH2 0x258E JUMP JUMPDEST GT ISZERO PUSH2 0x102C JUMPI PUSH1 0x40 MLOAD PUSH3 0x461BCD PUSH1 0xE5 SHL DUP2 MSTORE PUSH1 0x20 PUSH1 0x4 DUP3 ADD MSTORE PUSH1 0x14 PUSH1 0x24 DUP3 ADD MSTORE PUSH20 0x2332B2B9902634B6B4BA1032BC31B2B2B232B217 PUSH1 0x61 SHL PUSH1 0x44 DUP3 ADD MSTORE PUSH1 0x64 ADD PUSH2 0x99D JUMP JUMPDEST POP PUSH1 0xF SWAP6 SWAP1 SWAP6 SSTORE PUSH1 0x10 SWAP4 SWAP1 SWAP4 SSTORE PUSH1 0x11 SWAP2 SWAP1 SWAP2 SSTORE PUSH1 0x12 SSTORE PUSH1 0x13 SSTORE PUSH1 0x14 SSTORE JUMP JUMPDEST PUSH1 0x0 SLOAD PUSH1 0x1 PUSH1 0x1 PUSH1 0xA0 SHL SUB AND CALLER EQ PUSH2 0x1074 JUMPI PUSH1 0x40 MLOAD PUSH3 0x461BCD PUSH1 0xE5 SHL DUP2 MSTORE PUSH1 0x4 ADD PUSH2 0x99D SWAP1 PUSH2 0x2545 JUMP JUMPDEST PUSH1 0x20 SSTORE JUMP JUMPDEST PUSH1 0x0 SLOAD PUSH1 0x1 PUSH1 0x1 PUSH1 0xA0 SHL SUB AND CALLER EQ PUSH2 0x10A3 JUMPI PUSH1 0x40 MLOAD PUSH3 0x461BCD PUSH1 0xE5 SHL DUP2 MSTORE PUSH1 0x4 ADD PUSH2 0x99D SWAP1 PUSH2 0x2545 JUMP JUMPDEST PUSH1 0x1 PUSH1 0x1 PUSH1 0xA0 SHL SUB SWAP2 SWAP1 SWAP2 AND PUSH1 0x0 SWAP1 DUP2 MSTORE PUSH1 0x9 PUSH1 0x20 MSTORE PUSH1 0x40 SWAP1 KECCAK256 DUP1 SLOAD PUSH1 0xFF NOT AND SWAP2 ISZERO ISZERO SWAP2 SWAP1 SWAP2 OR SWAP1 SSTORE JUMP JUMPDEST PUSH1 0x0 SLOAD PUSH1 0x1 PUSH1 0x1 PUSH1 0xA0 SHL SUB AND CALLER EQ PUSH2 0x10F8 JUMPI PUSH1 0x40 MLOAD PUSH3 0x461BCD PUSH1 0xE5 SHL DUP2 MSTORE PUSH1 0x4 ADD PUSH2 0x99D SWAP1 PUSH2 0x2545 JUMP JUMPDEST PUSH1 0x1 PUSH1 0x1 PUSH1 0xA0 SHL SUB DUP2 AND PUSH2 0x1136 JUMPI PUSH1 0x40 MLOAD PUSH3 0x461BCD PUSH1 0xE5 SHL DUP2 MSTORE PUSH1 0x20 PUSH1 0x4 DUP3 ADD MSTORE PUSH1 0x5 PUSH1 0x24 DUP3 ADD MSTORE PUSH5 0x6E6577203 PUSH1 0xDC SHL PUSH1 0x44 DUP3 ADD MSTORE PUSH1 0x64 ADD PUSH2 0x99D JUMP JUMPDEST PUSH1 0x0 DUP1 SLOAD PUSH1 0x40 MLOAD PUSH1 0x1 PUSH1 0x1 PUSH1 0xA0 SHL SUB DUP1 DUP6 AND SWAP4 SWAP3 AND SWAP2 PUSH32 0x8BE0079C531659141344CD1FD0A4F28419497F9722A3DAAFE3B4186F6B6457E0 SWAP2 LOG3 PUSH1 0x0 DUP1 SLOAD PUSH1 0x1 PUSH1 0x1 PUSH1 0xA0 SHL SUB NOT AND PUSH1 0x1 PUSH1 0x1 PUSH1 0xA0 SHL SUB SWAP3 SWAP1 SWAP3 AND SWAP2 SWAP1 SWAP2 OR SWAP1 SSTORE JUMP JUMPDEST PUSH1 0x1 PUSH1 0x1 PUSH1 0xA0 SHL SUB DUP4 DUP2 AND PUSH1 0x0 DUP2 DUP2 MSTORE PUSH1 0x2 PUSH1 0x20 SWAP1 DUP2 MSTORE PUSH1 0x40 DUP1 DUP4 KECCAK256 SWAP5 DUP8 AND DUP1 DUP5 MSTORE SWAP5 DUP3 MSTORE SWAP2 DUP3 SWAP1 KECCAK256 DUP6 SWAP1 SSTORE SWAP1 MLOAD DUP5 DUP2 MSTORE PUSH32 0x8C5BE1E5EBEC7D5BD14F71427D1E84F3DD0314C0F7B2291E5B200AC8C7C3B925 SWAP2 ADD JUMPDEST PUSH1 0x40 MLOAD DUP1 SWAP2 SUB SWAP1 LOG3 POP POP POP JUMP JUMPDEST PUSH1 0x1 PUSH1 0x1 PUSH1 0xA0 SHL SUB DUP4 AND PUSH1 0x0 SWAP1 DUP2 MSTORE PUSH1 0x1 PUSH1 0x20 MSTORE PUSH1 0x40 SWAP1 KECCAK256 SLOAD DUP2 DUP2 LT ISZERO PUSH2 0x124F JUMPI PUSH1 0x40 MLOAD PUSH3 0x461BCD PUSH1 0xE5 SHL DUP2 MSTORE PUSH1 0x20 PUSH1 0x4 DUP3 ADD MSTORE PUSH1 0x10 PUSH1 0x24 DUP3 ADD MSTORE PUSH16 0xC4C2D8C2DCC6CA9CDEE88ADCDEEACED PUSH1 0x83 SHL PUSH1 0x44 DUP3 ADD MSTORE PUSH1 0x64 ADD PUSH2 0x99D JUMP JUMPDEST PUSH1 0x1 PUSH1 0x1 PUSH1 0xA0 SHL SUB DUP5 AND PUSH1 0x0 SWAP1 DUP2 MSTORE PUSH1 0x9 PUSH1 0x20 MSTORE PUSH1 0x40 DUP2 KECCAK256 SLOAD PUSH1 0xFF AND ISZERO DUP1 ISZERO PUSH2 0x1291 JUMPI POP PUSH1 0x1 PUSH1 0x1 PUSH1 0xA0 SHL SUB DUP5 AND PUSH1 0x0 SWAP1 DUP2 MSTORE PUSH1 0x9 PUSH1 0x20 MSTORE PUSH1 0x40 SWAP1 KECCAK256 SLOAD PUSH1 0xFF AND ISZERO JUMPDEST ISZERO PUSH2 0x12C7 JUMPI PUSH1 0x0 PUSH3 0x186A0 PUSH2 0x12A9 DUP5 PUSH3 0x1869F PUSH2 0x25F2 JUMP JUMPDEST PUSH2 0x12B3 SWAP2 SWAP1 PUSH2 0x258E JUMP JUMPDEST SWAP1 POP DUP1 DUP5 GT ISZERO PUSH2 0x12C1 JUMPI DUP1 SWAP4 POP JUMPDEST PUSH1 0x1 SWAP2 POP POP JUMPDEST PUSH1 0x1 PUSH1 0x1 PUSH1 0xA0 SHL SUB DUP6 AND PUSH1 0x0 SWAP1 DUP2 MSTORE PUSH1 0xD PUSH1 0x20 MSTORE PUSH1 0x40 DUP2 KECCAK256 SLOAD DUP2 SWAP1 PUSH1 0xFF AND DUP1 PUSH2 0x1308 JUMPI POP PUSH1 0x1 PUSH1 0x1 PUSH1 0xA0 SHL SUB DUP7 AND PUSH1 0x0 SWAP1 DUP2 MSTORE PUSH1 0xD PUSH1 0x20 MSTORE PUSH1 0x40 SWAP1 KECCAK256 SLOAD PUSH1 0xFF AND JUMPDEST ISZERO PUSH2 0x14C1 JUMPI PUSH1 0x1D SLOAD PUSH1 0x0 SUB PUSH2 0x13C1 JUMPI PUSH1 0x1 PUSH1 0x1 PUSH1 0xA0 SHL SUB DUP8 AND PUSH1 0x0 SWAP1 DUP2 MSTORE PUSH1 0x9 PUSH1 0x20 MSTORE PUSH1 0x40 SWAP1 KECCAK256 SLOAD PUSH1 0xFF AND DUP1 ISZERO PUSH2 0x134C JUMPI POP PUSH1 0x1F SLOAD PUSH1 0x1 PUSH1 0x1 PUSH1 0xA0 SHL SUB DUP8 DUP2 AND SWAP2 AND EQ JUMPDEST DUP1 ISZERO PUSH2 0x13B7 JUMPI POP DUP6 PUSH1 0x1 PUSH1 0x1 PUSH1 0xA0 SHL SUB AND PUSH4 0x18160DDD PUSH1 0x40 MLOAD DUP2 PUSH4 0xFFFFFFFF AND PUSH1 0xE0 SHL DUP2 MSTORE PUSH1 0x4 ADD PUSH1 0x20 PUSH1 0x40 MLOAD DUP1 DUP4 SUB DUP2 DUP7 GAS STATICCALL ISZERO DUP1 ISZERO PUSH2 0x1391 JUMPI RETURNDATASIZE PUSH1 0x0 DUP1 RETURNDATACOPY RETURNDATASIZE PUSH1 0x0 REVERT JUMPDEST POP POP POP POP PUSH1 0x40 MLOAD RETURNDATASIZE PUSH1 0x1F NOT PUSH1 0x1F DUP3 ADD AND DUP3 ADD DUP1 PUSH1 0x40 MSTORE POP DUP2 ADD SWAP1 PUSH2 0x13B5 SWAP2 SWAP1 PUSH2 0x2609 JUMP JUMPDEST ISZERO JUMPDEST ISZERO PUSH2 0x13C1 JUMPI NUMBER PUSH1 0x1D SSTORE JUMPDEST PUSH1 0x1 PUSH1 0x1 PUSH1 0xA0 SHL SUB DUP8 AND PUSH1 0x0 SWAP1 DUP2 MSTORE PUSH1 0x9 PUSH1 0x20 MSTORE PUSH1 0x40 SWAP1 KECCAK256 SLOAD PUSH1 0xFF AND ISZERO DUP1 ISZERO PUSH2 0x1403 JUMPI POP PUSH1 0x1 PUSH1 0x1 PUSH1 0xA0 SHL SUB DUP7 AND PUSH1 0x0 SWAP1 DUP2 MSTORE PUSH1 0x9 PUSH1 0x20 MSTORE PUSH1 0x40 SWAP1 KECCAK256 SLOAD PUSH1 0xFF AND ISZERO JUMPDEST ISZERO PUSH2 0x14BC JUMPI PUSH1 0x1 PUSH1 0x1 PUSH1 0xA0 SHL SUB DUP8 AND PUSH1 0x0 SWAP1 DUP2 MSTORE PUSH1 0xD PUSH1 0x20 MSTORE PUSH1 0x40 SWAP1 KECCAK256 SLOAD PUSH1 0xFF AND ISZERO PUSH2 0x1438 JUMPI PUSH2 0x1431 PUSH2 0x150B JUMP JUMPDEST SWAP2 POP PUSH2 0x1443 JUMP JUMPDEST PUSH2 0x1440 PUSH2 0x162E JUMP JUMPDEST SWAP1 POP JUMPDEST PUSH1 0x1E SLOAD PUSH1 0x0 SUB PUSH2 0x1491 JUMPI PUSH1 0x1D SLOAD PUSH1 0x0 LT DUP1 ISZERO PUSH2 0x145C JUMPI POP DUP1 JUMPDEST PUSH2 0x1491 JUMPI PUSH1 0x40 MLOAD PUSH3 0x461BCD PUSH1 0xE5 SHL DUP2 MSTORE PUSH1 0x20 PUSH1 0x4 DUP3 ADD MSTORE PUSH1 0x6 PUSH1 0x24 DUP3 ADD MSTORE PUSH6 0x215472616465 PUSH1 0xD0 SHL PUSH1 0x44 DUP3 ADD MSTORE PUSH1 0x64 ADD PUSH2 0x99D JUMP JUMPDEST PUSH1 0x1E SLOAD PUSH2 0x149F SWAP1 PUSH1 0x3 PUSH2 0x257B JUMP JUMPDEST NUMBER LT ISZERO PUSH2 0x14BC JUMPI PUSH2 0x14B3 DUP8 DUP8 DUP8 PUSH1 0x63 PUSH2 0x1751 JUMP JUMPDEST PUSH2 0xD85 DUP7 PUSH2 0x17E2 JUMP JUMPDEST PUSH2 0x14FD JUMP JUMPDEST PUSH1 0x1 PUSH1 0x1 PUSH1 0xA0 SHL SUB DUP7 AND PUSH1 0x0 SWAP1 DUP2 MSTORE PUSH1 0x1 PUSH1 0x20 MSTORE PUSH1 0x40 SWAP1 KECCAK256 SLOAD ISZERO DUP1 ISZERO PUSH2 0x14E7 JUMPI POP PUSH1 0x0 DUP6 GT JUMPDEST DUP1 ISZERO PUSH2 0x14FB JUMPI POP PUSH1 0x1 PUSH1 0x1 PUSH1 0xA0 SHL SUB DUP7 AND ISZERO ISZERO JUMPDEST POP JUMPDEST PUSH2 0x14B3 DUP8 DUP8 DUP8 DUP7 DUP7 DUP7 PUSH2 0x1899 JUMP JUMPDEST PUSH1 0x1F SLOAD PUSH1 0x40 DUP1 MLOAD PUSH4 0x240BC6B PUSH1 0xE2 SHL DUP2 MSTORE SWAP1 MLOAD PUSH1 0x0 SWAP3 PUSH1 0x1 PUSH1 0x1 PUSH1 0xA0 SHL SUB AND SWAP2 DUP4 SWAP2 DUP3 SWAP2 DUP5 SWAP2 PUSH4 0x902F1AC SWAP2 PUSH1 0x4 DUP1 DUP3 ADD SWAP3 PUSH1 0x60 SWAP3 SWAP1 SWAP2 SWAP1 DUP3 SWAP1 SUB ADD DUP2 DUP7 GAS STATICCALL ISZERO DUP1 ISZERO PUSH2 0x155C JUMPI RETURNDATASIZE PUSH1 0x0 DUP1 RETURNDATACOPY RETURNDATASIZE PUSH1 0x0 REVERT JUMPDEST POP POP POP POP PUSH1 0x40 MLOAD RETURNDATASIZE PUSH1 0x1F NOT PUSH1 0x1F DUP3 ADD AND DUP3 ADD DUP1 PUSH1 0x40 MSTORE POP DUP2 ADD SWAP1 PUSH2 0x1580 SWAP2 SWAP1 PUSH2 0x2639 JUMP JUMPDEST POP PUSH1 0xC SLOAD PUSH1 0x1 PUSH1 0x1 PUSH1 0x70 SHL SUB SWAP3 DUP4 AND SWAP5 POP SWAP2 AND SWAP2 POP PUSH1 0x1 PUSH1 0x1 PUSH1 0xA0 SHL SUB AND PUSH1 0x0 ADDRESS DUP3 LT ISZERO PUSH2 0x15AF JUMPI POP DUP3 PUSH2 0x15B2 JUMP JUMPDEST POP DUP2 JUMPDEST PUSH1 0x40 MLOAD PUSH4 0x70A08231 PUSH1 0xE0 SHL DUP2 MSTORE PUSH1 0x1 PUSH1 0x1 PUSH1 0xA0 SHL SUB DUP7 DUP2 AND PUSH1 0x4 DUP4 ADD MSTORE PUSH1 0x0 SWAP2 SWAP1 DUP5 AND SWAP1 PUSH4 0x70A08231 SWAP1 PUSH1 0x24 ADD PUSH1 0x20 PUSH1 0x40 MLOAD DUP1 DUP4 SUB DUP2 DUP7 GAS STATICCALL ISZERO DUP1 ISZERO PUSH2 0x15FC JUMPI RETURNDATASIZE PUSH1 0x0 DUP1 RETURNDATACOPY RETURNDATASIZE PUSH1 0x0 REVERT JUMPDEST POP POP POP POP PUSH1 0x40 MLOAD RETURNDATASIZE PUSH1 0x1F NOT PUSH1 0x1F DUP3 ADD AND DUP3 ADD DUP1 PUSH1 0x40 MSTORE POP DUP2 ADD SWAP1 PUSH2 0x1620 SWAP2 SWAP1 PUSH2 0x2609 JUMP JUMPDEST SWAP1 SWAP2 LT ISZERO SWAP7 SWAP6 POP POP POP POP POP POP JUMP JUMPDEST PUSH1 0x1F SLOAD PUSH1 0x40 DUP1 MLOAD PUSH4 0x240BC6B PUSH1 0xE2 SHL DUP2 MSTORE SWAP1 MLOAD PUSH1 0x0 SWAP3 PUSH1 0x1 PUSH1 0x1 PUSH1 0xA0 SHL SUB AND SWAP2 DUP4 SWAP2 DUP3 SWAP2 DUP5 SWAP2 PUSH4 0x902F1AC SWAP2 PUSH1 0x4 DUP1 DUP3 ADD SWAP3 PUSH1 0x60 SWAP3 SWAP1 SWAP2 SWAP1 DUP3 SWAP1 SUB ADD DUP2 DUP7 GAS STATICCALL ISZERO DUP1 ISZERO PUSH2 0x167F JUMPI RETURNDATASIZE PUSH1 0x0 DUP1 RETURNDATACOPY RETURNDATASIZE PUSH1 0x0 REVERT JUMPDEST POP POP POP POP PUSH1 0x40 MLOAD RETURNDATASIZE PUSH1 0x1F NOT PUSH1 0x1F DUP3 ADD AND DUP3 ADD DUP1 PUSH1 0x40 MSTORE POP DUP2 ADD SWAP1 PUSH2 0x16A3 SWAP2 SWAP1 PUSH2 0x2639 JUMP JUMPDEST POP PUSH1 0xC SLOAD PUSH1 0x1 PUSH1 0x1 PUSH1 0x70 SHL SUB SWAP3 DUP4 AND SWAP5 POP SWAP2 AND SWAP2 POP PUSH1 0x1 PUSH1 0x1 PUSH1 0xA0 SHL SUB AND PUSH1 0x0 ADDRESS DUP3 LT ISZERO PUSH2 0x16D2 JUMPI POP DUP3 PUSH2 0x16D5 JUMP JUMPDEST POP DUP2 JUMPDEST PUSH1 0x40 MLOAD PUSH4 0x70A08231 PUSH1 0xE0 SHL DUP2 MSTORE PUSH1 0x1 PUSH1 0x1 PUSH1 0xA0 SHL SUB DUP7 DUP2 AND PUSH1 0x4 DUP4 ADD MSTORE PUSH1 0x0 SWAP2 SWAP1 DUP5 AND SWAP1 PUSH4 0x70A08231 SWAP1 PUSH1 0x24 ADD PUSH1 0x20 PUSH1 0x40 MLOAD DUP1 DUP4 SUB DUP2 DUP7 GAS STATICCALL ISZERO DUP1 ISZERO PUSH2 0x171F JUMPI RETURNDATASIZE PUSH1 0x0 DUP1 RETURNDATACOPY RETURNDATASIZE PUSH1 0x0 REVERT JUMPDEST POP POP POP POP PUSH1 0x40 MLOAD RETURNDATASIZE PUSH1 0x1F NOT PUSH1 0x1F DUP3 ADD AND DUP3 ADD DUP1 PUSH1 0x40 MSTORE POP DUP2 ADD SWAP1 PUSH2 0x1743 SWAP2 SWAP1 PUSH2 0x2609 JUMP JUMPDEST SWAP2 SWAP1 SWAP2 GT SWAP7 SWAP6 POP POP POP POP POP POP JUMP JUMPDEST PUSH1 0x1 PUSH1 0x1 PUSH1 0xA0 SHL SUB DUP5 AND PUSH1 0x0 SWAP1 DUP2 MSTORE PUSH1 0x1 PUSH1 0x20 MSTORE PUSH1 0x40 SWAP1 KECCAK256 SLOAD PUSH2 0x1775 SWAP1 DUP4 SWAP1 PUSH2 0x25B0 JUMP JUMPDEST PUSH1 0x1 PUSH1 0x1 PUSH1 0xA0 SHL SUB DUP6 AND PUSH1 0x0 SWAP1 DUP2 MSTORE PUSH1 0x1 PUSH1 0x20 MSTORE PUSH1 0x40 DUP2 KECCAK256 SWAP2 SWAP1 SWAP2 SSTORE PUSH1 0x64 PUSH2 0x179D DUP4 DUP6 PUSH2 0x25F2 JUMP JUMPDEST PUSH2 0x17A7 SWAP2 SWAP1 PUSH2 0x258E JUMP JUMPDEST SWAP1 POP DUP1 ISZERO PUSH2 0x17C7 JUMPI PUSH1 0x3 SLOAD PUSH2 0x17C7 SWAP1 DUP7 SWAP1 PUSH1 0x1 PUSH1 0x1 PUSH1 0xA0 SHL SUB AND DUP4 PUSH2 0x1BC2 JUMP JUMPDEST PUSH2 0x17DB DUP6 DUP6 PUSH2 0x17D6 DUP5 DUP8 PUSH2 0x25B0 JUMP JUMPDEST PUSH2 0x1BC2 JUMP JUMPDEST POP POP POP POP POP JUMP JUMPDEST PUSH1 0x0 PUSH1 0x22 SLOAD GT DUP1 ISZERO PUSH2 0x180D JUMPI POP PUSH1 0x1 PUSH1 0x1 PUSH1 0xA0 SHL SUB DUP2 AND PUSH1 0x0 SWAP1 DUP2 MSTORE PUSH1 0xD PUSH1 0x20 MSTORE PUSH1 0x40 SWAP1 KECCAK256 SLOAD PUSH1 0xFF AND ISZERO JUMPDEST DUP1 ISZERO PUSH2 0x1832 JUMPI POP PUSH1 0x1 PUSH1 0x1 PUSH1 0xA0 SHL SUB DUP2 AND PUSH1 0x0 SWAP1 DUP2 MSTORE PUSH1 0x9 PUSH1 0x20 MSTORE PUSH1 0x40 SWAP1 KECCAK256 SLOAD PUSH1 0xFF AND ISZERO JUMPDEST ISZERO PUSH2 0x1896 JUMPI PUSH1 0x1 PUSH1 0x1 PUSH1 0xA0 SHL SUB DUP2 AND PUSH1 0x0 SWAP1 DUP2 MSTORE PUSH1 0x1 PUSH1 0x20 MSTORE PUSH1 0x40 SWAP1 KECCAK256 SLOAD PUSH1 0x22 SLOAD LT ISZERO PUSH2 0x1896 JUMPI PUSH1 0x40 MLOAD PUSH3 0x461BCD PUSH1 0xE5 SHL DUP2 MSTORE PUSH1 0x20 PUSH1 0x4 DUP3 ADD MSTORE PUSH1 0x12 PUSH1 0x24 DUP3 ADD MSTORE PUSH18 0x195E18D9595908131A5B5A5D105B5BDD5B9D PUSH1 0x72 SHL PUSH1 0x44 DUP3 ADD MSTORE PUSH1 0x64 ADD PUSH2 0x99D JUMP JUMPDEST POP JUMP JUMPDEST PUSH1 0x1 PUSH1 0x1 PUSH1 0xA0 SHL SUB DUP7 AND PUSH1 0x0 SWAP1 DUP2 MSTORE PUSH1 0x1 PUSH1 0x20 MSTORE PUSH1 0x40 SWAP1 KECCAK256 SLOAD PUSH2 0x18BD SWAP1 DUP6 SWAP1 PUSH2 0x25B0 JUMP JUMPDEST PUSH1 0x1 PUSH1 0x1 PUSH1 0xA0 SHL SUB DUP8 AND PUSH1 0x0 SWAP1 DUP2 MSTORE PUSH1 0x1 PUSH1 0x20 MSTORE PUSH1 0x40 DUP2 KECCAK256 SWAP2 SWAP1 SWAP2 SSTORE DUP4 ISZERO PUSH2 0x1BB3 JUMPI DUP3 ISZERO PUSH2 0x1925 JUMPI PUSH2 0x2710 PUSH1 0x20 SLOAD DUP7 PUSH2 0x18F6 SWAP2 SWAP1 PUSH2 0x25F2 JUMP JUMPDEST PUSH2 0x1900 SWAP2 SWAP1 PUSH2 0x258E JUMP JUMPDEST SWAP1 POP DUP1 ISZERO PUSH2 0x1920 JUMPI PUSH1 0x3 SLOAD PUSH2 0x1920 SWAP1 DUP9 SWAP1 PUSH1 0x1 PUSH1 0x1 PUSH1 0xA0 SHL SUB AND DUP4 PUSH2 0x1BC2 JUMP JUMPDEST PUSH2 0x1BB3 JUMP JUMPDEST DUP2 ISZERO PUSH2 0x193C JUMPI PUSH2 0x2710 PUSH1 0x21 SLOAD DUP7 PUSH2 0x18F6 SWAP2 SWAP1 PUSH2 0x25F2 JUMP JUMPDEST PUSH1 0x1 PUSH1 0x1 PUSH1 0xA0 SHL SUB DUP8 AND PUSH1 0x0 SWAP1 DUP2 MSTORE PUSH1 0xD PUSH1 0x20 MSTORE PUSH1 0x40 SWAP1 KECCAK256 SLOAD PUSH1 0xFF AND ISZERO PUSH2 0x1A11 JUMPI PUSH1 0x0 PUSH2 0x2710 PUSH1 0x13 SLOAD PUSH1 0x12 SLOAD PUSH1 0x11 SLOAD PUSH1 0x10 SLOAD PUSH1 0xF SLOAD PUSH2 0x197B SWAP2 SWAP1 PUSH2 0x257B JUMP JUMPDEST PUSH2 0x1985 SWAP2 SWAP1 PUSH2 0x257B JUMP JUMPDEST PUSH2 0x198F SWAP2 SWAP1 PUSH2 0x257B JUMP JUMPDEST PUSH2 0x1999 SWAP2 SWAP1 PUSH2 0x257B JUMP JUMPDEST PUSH2 0x19A3 SWAP1 DUP9 PUSH2 0x25F2 JUMP JUMPDEST PUSH2 0x19AD SWAP2 SWAP1 PUSH2 0x258E JUMP JUMPDEST SWAP1 POP DUP1 ISZERO PUSH2 0x19CC JUMPI PUSH2 0x19BF DUP2 DUP4 PUSH2 0x257B JUMP JUMPDEST SWAP2 POP PUSH2 0x19CC DUP9 ADDRESS DUP4 PUSH2 0x1BC2 JUMP JUMPDEST PUSH1 0x0 PUSH2 0x2710 PUSH1 0x14 SLOAD DUP9 PUSH2 0x19DF SWAP2 SWAP1 PUSH2 0x25F2 JUMP JUMPDEST PUSH2 0x19E9 SWAP2 SWAP1 PUSH2 0x258E JUMP JUMPDEST SWAP1 POP DUP1 ISZERO PUSH2 0x1A0A JUMPI PUSH2 0x19FB DUP2 DUP5 PUSH2 0x257B JUMP JUMPDEST SWAP3 POP PUSH2 0x1A0A DUP10 PUSH2 0xDEAD DUP4 PUSH2 0x1BC2 JUMP JUMPDEST POP POP PUSH2 0x1BB3 JUMP JUMPDEST PUSH1 0x1 PUSH1 0x1 PUSH1 0xA0 SHL SUB DUP7 AND PUSH1 0x0 SWAP1 DUP2 MSTORE PUSH1 0xD PUSH1 0x20 MSTORE PUSH1 0x40 SWAP1 KECCAK256 SLOAD PUSH1 0xFF AND ISZERO PUSH2 0x1B78 JUMPI PUSH1 0x0 PUSH2 0x2710 PUSH1 0x19 SLOAD PUSH1 0x18 SLOAD PUSH1 0x17 SLOAD PUSH1 0x16 SLOAD PUSH1 0x15 SLOAD PUSH2 0x1A50 SWAP2 SWAP1 PUSH2 0x257B JUMP JUMPDEST PUSH2 0x1A5A SWAP2 SWAP1 PUSH2 0x257B JUMP JUMPDEST PUSH2 0x1A64 SWAP2 SWAP1 PUSH2 0x257B JUMP JUMPDEST PUSH2 0x1A6E SWAP2 SWAP1 PUSH2 0x257B JUMP JUMPDEST PUSH2 0x1A78 SWAP1 DUP9 PUSH2 0x25F2 JUMP JUMPDEST PUSH2 0x1A82 SWAP2 SWAP1 PUSH2 0x258E JUMP JUMPDEST SWAP1 POP DUP1 ISZERO PUSH2 0x1AA1 JUMPI PUSH2 0x1A94 DUP2 DUP4 PUSH2 0x257B JUMP JUMPDEST SWAP2 POP PUSH2 0x1AA1 DUP9 ADDRESS DUP4 PUSH2 0x1BC2 JUMP JUMPDEST PUSH1 0x0 PUSH2 0x2710 PUSH1 0x1A SLOAD DUP9 PUSH2 0x1AB4 SWAP2 SWAP1 PUSH2 0x25F2 JUMP JUMPDEST PUSH2 0x1ABE SWAP2 SWAP1 PUSH2 0x258E JUMP JUMPDEST SWAP1 POP DUP1 ISZERO PUSH2 0x1ADF JUMPI PUSH2 0x1AD0 DUP2 DUP5 PUSH2 0x257B JUMP JUMPDEST SWAP3 POP PUSH2 0x1ADF DUP10 PUSH2 0xDEAD DUP4 PUSH2 0x1BC2 JUMP JUMPDEST PUSH1 0x0 PUSH2 0x2710 PUSH1 0x1B SLOAD DUP10 PUSH2 0x1AF2 SWAP2 SWAP1 PUSH2 0x25F2 JUMP JUMPDEST PUSH2 0x1AFC SWAP2 SWAP1 PUSH2 0x258E JUMP JUMPDEST SWAP1 POP DUP1 ISZERO PUSH2 0x1B1D JUMPI PUSH2 0x1B0E DUP2 DUP6 PUSH2 0x257B JUMP JUMPDEST SWAP4 POP PUSH2 0x1B1D DUP11 PUSH2 0xDEAD DUP4 PUSH2 0x1BC2 JUMP JUMPDEST PUSH1 0xE SLOAD PUSH1 0xFF AND PUSH2 0x1B70 JUMPI ADDRESS PUSH1 0x0 SWAP1 DUP2 MSTORE PUSH1 0x1 PUSH1 0x20 MSTORE PUSH1 0x40 SWAP1 KECCAK256 SLOAD DUP1 ISZERO PUSH2 0x1B6E JUMPI PUSH1 0x0 PUSH1 0x32 PUSH2 0x1B4C DUP7 PUSH1 0xE6 PUSH2 0x25F2 JUMP JUMPDEST PUSH2 0x1B56 SWAP2 SWAP1 PUSH2 0x258E JUMP JUMPDEST SWAP1 POP DUP2 DUP2 GT ISZERO PUSH2 0x1B63 JUMPI POP DUP1 JUMPDEST PUSH2 0x1B6C DUP2 PUSH2 0x1C3A JUMP JUMPDEST POP JUMPDEST POP JUMPDEST POP POP POP PUSH2 0x1BB3 JUMP JUMPDEST PUSH2 0x2710 PUSH1 0x1C SLOAD DUP7 PUSH2 0x1B89 SWAP2 SWAP1 PUSH2 0x25F2 JUMP JUMPDEST PUSH2 0x1B93 SWAP2 SWAP1 PUSH2 0x258E JUMP JUMPDEST SWAP1 POP DUP1 ISZERO PUSH2 0x1BB3 JUMPI PUSH1 0x3 SLOAD PUSH2 0x1BB3 SWAP1 DUP9 SWAP1 PUSH1 0x1 PUSH1 0x1 PUSH1 0xA0 SHL SUB AND DUP4 PUSH2 0x1BC2 JUMP JUMPDEST PUSH2 0xD85 DUP8 DUP8 PUSH2 0x17D6 DUP5 DUP10 PUSH2 0x25B0 JUMP JUMPDEST PUSH1 0x1 PUSH1 0x1 PUSH1 0xA0 SHL SUB DUP3 AND PUSH1 0x0 SWAP1 DUP2 MSTORE PUSH1 0x1 PUSH1 0x20 MSTORE PUSH1 0x40 SWAP1 KECCAK256 SLOAD PUSH2 0x1BE6 SWAP1 DUP3 SWAP1 PUSH2 0x257B JUMP JUMPDEST PUSH1 0x1 PUSH1 0x1 PUSH1 0xA0 SHL SUB DUP1 DUP5 AND PUSH1 0x0 DUP2 DUP2 MSTORE PUSH1 0x1 PUSH1 0x20 MSTORE PUSH1 0x40 SWAP1 DUP2 SWAP1 KECCAK256 SWAP4 SWAP1 SWAP4 SSTORE SWAP2 MLOAD SWAP1 DUP6 AND SWAP1 PUSH32 0xDDF252AD1BE2C89B69C2B068FC378DAA952BA7F163C4A11628F55A4DF523B3EF SWAP1 PUSH2 0x11E6 SWAP1 DUP6 DUP2 MSTORE PUSH1 0x20 ADD SWAP1 JUMP JUMPDEST PUSH1 0xE DUP1 SLOAD PUSH1 0xFF NOT AND PUSH1 0x1 OR SWAP1 SSTORE DUP1 ISZERO PUSH2 0x21D7 JUMPI PUSH1 0x0 PUSH1 0x15 SLOAD PUSH1 0xF SLOAD PUSH2 0x1C5F SWAP2 SWAP1 PUSH2 0x257B JUMP JUMPDEST SWAP1 POP PUSH1 0x0 PUSH1 0x16 SLOAD PUSH1 0x10 SLOAD PUSH2 0x1C73 SWAP2 SWAP1 PUSH2 0x257B JUMP JUMPDEST SWAP1 POP PUSH1 0x0 PUSH1 0x17 SLOAD PUSH1 0x11 SLOAD PUSH2 0x1C87 SWAP2 SWAP1 PUSH2 0x257B JUMP JUMPDEST SWAP1 POP PUSH1 0x0 PUSH1 0x18 SLOAD PUSH1 0x12 SLOAD PUSH2 0x1C9B SWAP2 SWAP1 PUSH2 0x257B JUMP JUMPDEST SWAP1 POP PUSH1 0x0 PUSH1 0x19 SLOAD PUSH1 0x13 SLOAD PUSH2 0x1CAF SWAP2 SWAP1 PUSH2 0x257B JUMP JUMPDEST SWAP1 POP PUSH1 0x0 DUP2 DUP4 DUP6 PUSH2 0x1CC0 DUP9 DUP11 PUSH2 0x257B JUMP JUMPDEST PUSH2 0x1CCA SWAP2 SWAP1 PUSH2 0x257B JUMP JUMPDEST PUSH2 0x1CD4 SWAP2 SWAP1 PUSH2 0x257B JUMP JUMPDEST PUSH2 0x1CDE SWAP2 SWAP1 PUSH2 0x257B JUMP JUMPDEST SWAP1 POP PUSH2 0x1CEA DUP2 DUP1 PUSH2 0x257B JUMP JUMPDEST SWAP1 POP PUSH1 0x0 DUP2 PUSH2 0x1CF9 DUP5 DUP11 PUSH2 0x25F2 JUMP JUMPDEST PUSH2 0x1D03 SWAP2 SWAP1 PUSH2 0x258E JUMP JUMPDEST SWAP1 POP PUSH2 0x1D0F DUP4 DUP4 PUSH2 0x25B0 JUMP JUMPDEST PUSH1 0x40 DUP1 MLOAD PUSH1 0x2 DUP1 DUP3 MSTORE PUSH1 0x60 DUP3 ADD DUP4 MSTORE SWAP3 SWAP5 POP PUSH1 0x0 SWAP3 SWAP1 SWAP2 PUSH1 0x20 DUP4 ADD SWAP1 DUP1 CALLDATASIZE DUP4 CALLDATACOPY POP POP PUSH1 0xC SLOAD DUP3 MLOAD SWAP3 SWAP4 POP PUSH1 0x1 PUSH1 0x1 PUSH1 0xA0 SHL SUB AND SWAP2 ADDRESS SWAP2 POP DUP4 SWAP1 PUSH1 0x0 SWAP1 PUSH2 0x1D57 JUMPI PUSH2 0x1D57 PUSH2 0x25C3 JUMP JUMPDEST PUSH1 0x20 MUL PUSH1 0x20 ADD ADD SWAP1 PUSH1 0x1 PUSH1 0x1 PUSH1 0xA0 SHL SUB AND SWAP1 DUP2 PUSH1 0x1 PUSH1 0x1 PUSH1 0xA0 SHL SUB AND DUP2 MSTORE POP POP DUP1 DUP3 PUSH1 0x1 DUP2 MLOAD DUP2 LT PUSH2 0x1D8B JUMPI PUSH2 0x1D8B PUSH2 0x25C3 JUMP JUMPDEST PUSH1 0x1 PUSH1 0x1 PUSH1 0xA0 SHL SUB SWAP3 DUP4 AND PUSH1 0x20 SWAP2 DUP3 MUL SWAP3 SWAP1 SWAP3 ADD ADD MSTORE PUSH1 0xE SLOAD PUSH1 0xB SLOAD PUSH2 0x100 SWAP1 SWAP2 DIV DUP3 AND SWAP2 AND PUSH4 0x5C11D795 PUSH2 0x1DC0 DUP7 DUP15 PUSH2 0x25B0 JUMP JUMPDEST PUSH1 0x0 DUP7 DUP6 TIMESTAMP PUSH1 0x40 MLOAD DUP7 PUSH4 0xFFFFFFFF AND PUSH1 0xE0 SHL DUP2 MSTORE PUSH1 0x4 ADD PUSH2 0x1DE5 SWAP6 SWAP5 SWAP4 SWAP3 SWAP2 SWAP1 PUSH2 0x2689 JUMP JUMPDEST PUSH1 0x0 PUSH1 0x40 MLOAD DUP1 DUP4 SUB DUP2 PUSH1 0x0 DUP8 DUP1 EXTCODESIZE ISZERO DUP1 ISZERO PUSH2 0x1DFF JUMPI PUSH1 0x0 DUP1 REVERT JUMPDEST POP GAS CALL ISZERO DUP1 ISZERO PUSH2 0x1E13 JUMPI RETURNDATASIZE PUSH1 0x0 DUP1 RETURNDATACOPY RETURNDATASIZE PUSH1 0x0 REVERT JUMPDEST POP POP PUSH1 0x40 MLOAD PUSH4 0x70A08231 PUSH1 0xE0 SHL DUP2 MSTORE PUSH1 0x1 PUSH1 0x1 PUSH1 0xA0 SHL SUB DUP5 DUP2 AND PUSH1 0x4 DUP4 ADD MSTORE DUP6 SWAP4 POP PUSH1 0x0 SWAP3 POP DUP4 AND SWAP1 PUSH4 0x70A08231 SWAP1 PUSH1 0x24 ADD PUSH1 0x20 PUSH1 0x40 MLOAD DUP1 DUP4 SUB DUP2 DUP7 GAS STATICCALL ISZERO DUP1 ISZERO PUSH2 0x1E62 JUMPI RETURNDATASIZE PUSH1 0x0 DUP1 RETURNDATACOPY RETURNDATASIZE PUSH1 0x0 REVERT JUMPDEST POP POP POP POP PUSH1 0x40 MLOAD RETURNDATASIZE PUSH1 0x1F NOT PUSH1 0x1F DUP3 ADD AND DUP3 ADD DUP1 PUSH1 0x40 MSTORE POP DUP2 ADD SWAP1 PUSH2 0x1E86 SWAP2 SWAP1 PUSH2 0x2609 JUMP JUMPDEST PUSH1 0x40 MLOAD PUSH4 0x23B872DD PUSH1 0xE0 SHL DUP2 MSTORE PUSH1 0x1 PUSH1 0x1 PUSH1 0xA0 SHL SUB DUP6 DUP2 AND PUSH1 0x4 DUP4 ADD MSTORE ADDRESS PUSH1 0x24 DUP4 ADD MSTORE PUSH1 0x44 DUP3 ADD DUP4 SWAP1 MSTORE SWAP2 SWAP3 POP SWAP1 DUP4 AND SWAP1 PUSH4 0x23B872DD SWAP1 PUSH1 0x64 ADD PUSH1 0x20 PUSH1 0x40 MLOAD DUP1 DUP4 SUB DUP2 PUSH1 0x0 DUP8 GAS CALL ISZERO DUP1 ISZERO PUSH2 0x1EDF JUMPI RETURNDATASIZE PUSH1 0x0 DUP1 RETURNDATACOPY RETURNDATASIZE PUSH1 0x0 REVERT JUMPDEST POP POP POP POP PUSH1 0x40 MLOAD RETURNDATASIZE PUSH1 0x1F NOT PUSH1 0x1F DUP3 ADD AND DUP3 ADD DUP1 PUSH1 0x40 MSTORE POP DUP2 ADD SWAP1 PUSH2 0x1F03 SWAP2 SWAP1 PUSH2 0x2528 JUMP JUMPDEST POP PUSH1 0x0 DUP8 DUP14 PUSH2 0x1F13 DUP5 PUSH1 0x2 PUSH2 0x25F2 JUMP JUMPDEST PUSH2 0x1F1D SWAP2 SWAP1 PUSH2 0x25F2 JUMP JUMPDEST PUSH2 0x1F27 SWAP2 SWAP1 PUSH2 0x258E JUMP JUMPDEST SWAP1 POP DUP1 ISZERO PUSH2 0x1FA8 JUMPI PUSH1 0x3 SLOAD PUSH1 0x40 MLOAD PUSH4 0xA9059CBB PUSH1 0xE0 SHL DUP2 MSTORE PUSH1 0x1 PUSH1 0x1 PUSH1 0xA0 SHL SUB SWAP2 DUP3 AND PUSH1 0x4 DUP3 ADD MSTORE PUSH1 0x24 DUP2 ADD DUP4 SWAP1 MSTORE SWAP1 DUP5 AND SWAP1 PUSH4 0xA9059CBB SWAP1 PUSH1 0x44 ADD PUSH1 0x20 PUSH1 0x40 MLOAD DUP1 DUP4 SUB DUP2 PUSH1 0x0 DUP8 GAS CALL ISZERO DUP1 ISZERO PUSH2 0x1F82 JUMPI RETURNDATASIZE PUSH1 0x0 DUP1 RETURNDATACOPY RETURNDATASIZE PUSH1 0x0 REVERT JUMPDEST POP POP POP POP PUSH1 0x40 MLOAD RETURNDATASIZE PUSH1 0x1F NOT PUSH1 0x1F DUP3 ADD AND DUP3 ADD DUP1 PUSH1 0x40 MSTORE POP DUP2 ADD SWAP1 PUSH2 0x1FA6 SWAP2 SWAP1 PUSH2 0x2528 JUMP JUMPDEST POP JUMPDEST PUSH1 0x0 DUP9 DUP14 PUSH2 0x1FB7 DUP6 PUSH1 0x2 PUSH2 0x25F2 JUMP JUMPDEST PUSH2 0x1FC1 SWAP2 SWAP1 PUSH2 0x25F2 JUMP JUMPDEST PUSH2 0x1FCB SWAP2 SWAP1 PUSH2 0x258E JUMP JUMPDEST SWAP1 POP DUP1 ISZERO PUSH2 0x204E JUMPI PUSH1 0x4 DUP1 SLOAD PUSH1 0x40 MLOAD PUSH4 0xA9059CBB PUSH1 0xE0 SHL DUP2 MSTORE PUSH1 0x1 PUSH1 0x1 PUSH1 0xA0 SHL SUB SWAP2 DUP3 AND SWAP3 DUP2 ADD SWAP3 SWAP1 SWAP3 MSTORE PUSH1 0x24 DUP3 ADD DUP4 SWAP1 MSTORE DUP6 AND SWAP1 PUSH4 0xA9059CBB SWAP1 PUSH1 0x44 ADD PUSH1 0x20 PUSH1 0x40 MLOAD DUP1 DUP4 SUB DUP2 PUSH1 0x0 DUP8 GAS CALL ISZERO DUP1 ISZERO PUSH2 0x2028 JUMPI RETURNDATASIZE PUSH1 0x0 DUP1 RETURNDATACOPY RETURNDATASIZE PUSH1 0x0 REVERT JUMPDEST POP POP POP POP PUSH1 0x40 MLOAD RETURNDATASIZE PUSH1 0x1F NOT PUSH1 0x1F DUP3 ADD AND DUP3 ADD DUP1 PUSH1 0x40 MSTORE POP DUP2 ADD SWAP1 PUSH2 0x204C SWAP2 SWAP1 PUSH2 0x2528 JUMP JUMPDEST POP JUMPDEST PUSH1 0x0 DUP10 DUP14 PUSH2 0x205D DUP7 PUSH1 0x2 PUSH2 0x25F2 JUMP JUMPDEST PUSH2 0x2067 SWAP2 SWAP1 PUSH2 0x25F2 JUMP JUMPDEST PUSH2 0x2071 SWAP2 SWAP1 PUSH2 0x258E JUMP JUMPDEST SWAP1 POP DUP1 ISZERO PUSH2 0x20F2 JUMPI PUSH1 0x5 SLOAD PUSH1 0x40 MLOAD PUSH4 0xA9059CBB PUSH1 0xE0 SHL DUP2 MSTORE PUSH1 0x1 PUSH1 0x1 PUSH1 0xA0 SHL SUB SWAP2 DUP3 AND PUSH1 0x4 DUP3 ADD MSTORE PUSH1 0x24 DUP2 ADD DUP4 SWAP1 MSTORE SWAP1 DUP7 AND SWAP1 PUSH4 0xA9059CBB SWAP1 PUSH1 0x44 ADD PUSH1 0x20 PUSH1 0x40 MLOAD DUP1 DUP4 SUB DUP2 PUSH1 0x0 DUP8 GAS CALL ISZERO DUP1 ISZERO PUSH2 0x20CC JUMPI RETURNDATASIZE PUSH1 0x0 DUP1 RETURNDATACOPY RETURNDATASIZE PUSH1 0x0 REVERT JUMPDEST POP POP POP POP PUSH1 0x40 MLOAD RETURNDATASIZE PUSH1 0x1F NOT PUSH1 0x1F DUP3 ADD AND DUP3 ADD DUP1 PUSH1 0x40 MSTORE POP DUP2 ADD SWAP1 PUSH2 0x20F0 SWAP2 SWAP1 PUSH2 0x2528 JUMP JUMPDEST POP JUMPDEST PUSH1 0x0 DUP11 PUSH2 0x20FF DUP14 DUP8 PUSH2 0x25F2 JUMP JUMPDEST PUSH2 0x2109 SWAP2 SWAP1 PUSH2 0x258E JUMP JUMPDEST SWAP1 POP PUSH1 0x0 DUP2 GT DUP1 ISZERO PUSH2 0x211B JUMPI POP PUSH1 0x0 DUP11 GT JUMPDEST ISZERO PUSH2 0x21C6 JUMPI PUSH1 0xB SLOAD PUSH1 0x3 SLOAD PUSH1 0x40 MLOAD PUSH3 0xE8E337 PUSH1 0xE8 SHL DUP2 MSTORE ADDRESS PUSH1 0x4 DUP3 ADD MSTORE PUSH1 0x1 PUSH1 0x1 PUSH1 0xA0 SHL SUB DUP12 DUP2 AND PUSH1 0x24 DUP4 ADD MSTORE PUSH1 0x44 DUP3 ADD DUP15 SWAP1 MSTORE PUSH1 0x64 DUP3 ADD DUP6 SWAP1 MSTORE PUSH1 0x0 PUSH1 0x84 DUP4 ADD DUP2 SWAP1 MSTORE PUSH1 0xA4 DUP4 ADD MSTORE SWAP2 DUP3 AND PUSH1 0xC4 DUP3 ADD MSTORE TIMESTAMP PUSH1 0xE4 DUP3 ADD MSTORE SWAP2 AND SWAP1 PUSH4 0xE8E33700 SWAP1 PUSH2 0x104 ADD PUSH1 0x60 PUSH1 0x40 MLOAD DUP1 DUP4 SUB DUP2 PUSH1 0x0 DUP8 GAS CALL ISZERO DUP1 ISZERO PUSH2 0x219E JUMPI RETURNDATASIZE PUSH1 0x0 DUP1 RETURNDATACOPY RETURNDATASIZE PUSH1 0x0 REVERT JUMPDEST POP POP POP POP PUSH1 0x40 MLOAD RETURNDATASIZE PUSH1 0x1F NOT PUSH1 0x1F DUP3 ADD AND DUP3 ADD DUP1 PUSH1 0x40 MSTORE POP DUP2 ADD SWAP1 PUSH2 0x21C2 SWAP2 SWAP1 PUSH2 0x26FA JUMP JUMPDEST POP POP POP JUMPDEST POP POP POP POP POP POP POP POP POP POP POP POP POP POP POP POP JUMPDEST POP PUSH1 0xE DUP1 SLOAD PUSH1 0xFF NOT AND SWAP1 SSTORE JUMP JUMPDEST PUSH1 0x0 PUSH1 0x20 DUP1 DUP4 MSTORE DUP4 MLOAD DUP1 DUP3 DUP6 ADD MSTORE PUSH1 0x0 JUMPDEST DUP2 DUP2 LT ISZERO PUSH2 0x2211 JUMPI DUP6 DUP2 ADD DUP4 ADD MLOAD DUP6 DUP3 ADD PUSH1 0x40 ADD MSTORE DUP3 ADD PUSH2 0x21F5 JUMP JUMPDEST POP PUSH1 0x0 PUSH1 0x40 DUP3 DUP7 ADD ADD MSTORE PUSH1 0x40 PUSH1 0x1F NOT PUSH1 0x1F DUP4 ADD AND DUP6 ADD ADD SWAP3 POP POP POP SWAP3 SWAP2 POP POP JUMP JUMPDEST DUP1 CALLDATALOAD PUSH1 0x1 PUSH1 0x1 PUSH1 0xA0 SHL SUB DUP2 AND DUP2 EQ PUSH2 0x2249 JUMPI PUSH1 0x0 DUP1 REVERT JUMPDEST SWAP2 SWAP1 POP JUMP JUMPDEST PUSH1 0x0 DUP1 PUSH1 0x40 DUP4 DUP6 SUB SLT ISZERO PUSH2 0x2261 JUMPI PUSH1 0x0 DUP1 REVERT JUMPDEST PUSH2 0x226A DUP4 PUSH2 0x2232 JUMP JUMPDEST SWAP5 PUSH1 0x20 SWAP4 SWAP1 SWAP4 ADD CALLDATALOAD SWAP4 POP POP POP JUMP JUMPDEST PUSH1 0x0 DUP1 PUSH1 0x0 PUSH1 0x60 DUP5 DUP7 SUB SLT ISZERO PUSH2 0x228D JUMPI PUSH1 0x0 DUP1 REVERT JUMPDEST PUSH2 0x2296 DUP5 PUSH2 0x2232 JUMP JUMPDEST SWAP3 POP PUSH2 0x22A4 PUSH1 0x20 DUP6 ADD PUSH2 0x2232 JUMP JUMPDEST SWAP2 POP PUSH1 0x40 DUP5 ADD CALLDATALOAD SWAP1 POP SWAP3 POP SWAP3 POP SWAP3 JUMP JUMPDEST PUSH1 0x0 PUSH1 0x20 DUP3 DUP5 SUB SLT ISZERO PUSH2 0x22C6 JUMPI PUSH1 0x0 DUP1 REVERT JUMPDEST POP CALLDATALOAD SWAP2 SWAP1 POP JUMP JUMPDEST PUSH1 0x0 DUP1 PUSH1 0x0 DUP1 PUSH1 0x0 DUP1 PUSH1 0x0 PUSH1 0xE0 DUP9 DUP11 SUB SLT ISZERO PUSH2 0x22E8 JUMPI PUSH1 0x0 DUP1 REVERT JUMPDEST POP POP DUP6 CALLDATALOAD SWAP8 PUSH1 0x20 DUP8 ADD CALLDATALOAD SWAP8 POP PUSH1 0x40 DUP8 ADD CALLDATALOAD SWAP7 PUSH1 0x60 DUP2 ADD CALLDATALOAD SWAP7 POP PUSH1 0x80 DUP2 ADD CALLDATALOAD SWAP6 POP PUSH1 0xA0 DUP2 ADD CALLDATALOAD SWAP5 POP PUSH1 0xC0 ADD CALLDATALOAD SWAP3 POP SWAP1 POP JUMP JUMPDEST PUSH1 0x0 PUSH1 0x20 DUP3 DUP5 SUB SLT ISZERO PUSH2 0x232B JUMPI PUSH1 0x0 DUP1 REVERT JUMPDEST PUSH2 0x2334 DUP3 PUSH2 0x2232 JUMP JUMPDEST SWAP4 SWAP3 POP POP POP JUMP JUMPDEST DUP1 ISZERO ISZERO DUP2 EQ PUSH2 0x1896 JUMPI PUSH1 0x0 DUP1 REVERT JUMPDEST DUP1 CALLDATALOAD PUSH2 0x2249 DUP2 PUSH2 0x233B JUMP JUMPDEST PUSH1 0x0 DUP1 PUSH1 0x40 DUP4 DUP6 SUB SLT ISZERO PUSH2 0x2367 JUMPI PUSH1 0x0 DUP1 REVERT JUMPDEST PUSH2 0x2370 DUP4 PUSH2 0x2232 JUMP JUMPDEST SWAP2 POP PUSH1 0x20 DUP4 ADD CALLDATALOAD PUSH2 0x2380 DUP2 PUSH2 0x233B JUMP JUMPDEST DUP1 SWAP2 POP POP SWAP3 POP SWAP3 SWAP1 POP JUMP JUMPDEST PUSH4 0x4E487B71 PUSH1 0xE0 SHL PUSH1 0x0 MSTORE PUSH1 0x41 PUSH1 0x4 MSTORE PUSH1 0x24 PUSH1 0x0 REVERT JUMPDEST PUSH1 0x0 DUP1 PUSH1 0x40 DUP4 DUP6 SUB SLT ISZERO PUSH2 0x23B4 JUMPI PUSH1 0x0 DUP1 REVERT JUMPDEST DUP3 CALLDATALOAD PUSH8 0xFFFFFFFFFFFFFFFF DUP1 DUP3 GT ISZERO PUSH2 0x23CC JUMPI PUSH1 0x0 DUP1 REVERT JUMPDEST DUP2 DUP6 ADD SWAP2 POP DUP6 PUSH1 0x1F DUP4 ADD SLT PUSH2 0x23E0 JUMPI PUSH1 0x0 DUP1 REVERT JUMPDEST DUP2 CALLDATALOAD PUSH1 0x20 DUP3 DUP3 GT ISZERO PUSH2 0x23F4 JUMPI PUSH2 0x23F4 PUSH2 0x238B JUMP JUMPDEST DUP2 PUSH1 0x5 SHL PUSH1 0x40 MLOAD PUSH1 0x1F NOT PUSH1 0x3F DUP4 ADD AND DUP2 ADD DUP2 DUP2 LT DUP7 DUP3 GT OR ISZERO PUSH2 0x2419 JUMPI PUSH2 0x2419 PUSH2 0x238B JUMP JUMPDEST PUSH1 0x40 MSTORE SWAP3 DUP4 MSTORE DUP2 DUP4 ADD SWAP4 POP DUP5 DUP2 ADD DUP3 ADD SWAP3 DUP10 DUP5 GT ISZERO PUSH2 0x2437 JUMPI PUSH1 0x0 DUP1 REVERT JUMPDEST SWAP5 DUP3 ADD SWAP5 JUMPDEST DUP4 DUP7 LT ISZERO PUSH2 0x245C JUMPI PUSH2 0x244D DUP7 PUSH2 0x2232 JUMP JUMPDEST DUP6 MSTORE SWAP5 DUP3 ADD SWAP5 SWAP4 DUP3 ADD SWAP4 PUSH2 0x243C JUMP JUMPDEST SWAP7 POP PUSH2 0x246B SWAP1 POP DUP8 DUP3 ADD PUSH2 0x2349 JUMP JUMPDEST SWAP5 POP POP POP POP POP SWAP3 POP SWAP3 SWAP1 POP JUMP JUMPDEST PUSH1 0x0 DUP1 PUSH1 0x0 DUP1 PUSH1 0x0 DUP1 PUSH1 0xC0 DUP8 DUP10 SUB SLT ISZERO PUSH2 0x2491 JUMPI PUSH1 0x0 DUP1 REVERT JUMPDEST POP POP DUP5 CALLDATALOAD SWAP7 PUSH1 0x20 DUP7 ADD CALLDATALOAD SWAP7 POP PUSH1 0x40 DUP7 ADD CALLDATALOAD SWAP6 PUSH1 0x60 DUP2 ADD CALLDATALOAD SWAP6 POP PUSH1 0x80 DUP2 ADD CALLDATALOAD SWAP5 POP PUSH1 0xA0 ADD CALLDATALOAD SWAP3 POP SWAP1 POP JUMP JUMPDEST PUSH1 0x0 DUP1 PUSH1 0x40 DUP4 DUP6 SUB SLT ISZERO PUSH2 0x24CE JUMPI PUSH1 0x0 DUP1 REVERT JUMPDEST PUSH2 0x24D7 DUP4 PUSH2 0x2232 JUMP JUMPDEST SWAP2 POP PUSH2 0x24E5 PUSH1 0x20 DUP5 ADD PUSH2 0x2232 JUMP JUMPDEST SWAP1 POP SWAP3 POP SWAP3 SWAP1 POP JUMP JUMPDEST PUSH1 0x1 DUP2 DUP2 SHR SWAP1 DUP3 AND DUP1 PUSH2 0x2502 JUMPI PUSH1 0x7F DUP3 AND SWAP2 POP JUMPDEST PUSH1 0x20 DUP3 LT DUP2 SUB PUSH2 0x2522 JUMPI PUSH4 0x4E487B71 PUSH1 0xE0 SHL PUSH1 0x0 MSTORE PUSH1 0x22 PUSH1 0x4 MSTORE PUSH1 0x24 PUSH1 0x0 REVERT JUMPDEST POP SWAP2 SWAP1 POP JUMP JUMPDEST PUSH1 0x0 PUSH1 0x20 DUP3 DUP5 SUB SLT ISZERO PUSH2 0x253A JUMPI PUSH1 0x0 DUP1 REVERT JUMPDEST DUP2 MLOAD PUSH2 0x2334 DUP2 PUSH2 0x233B JUMP JUMPDEST PUSH1 0x20 DUP1 DUP3 MSTORE PUSH1 0x6 SWAP1 DUP3 ADD MSTORE PUSH6 0x10B7BBB732B9 PUSH1 0xD1 SHL PUSH1 0x40 DUP3 ADD MSTORE PUSH1 0x60 ADD SWAP1 JUMP JUMPDEST PUSH4 0x4E487B71 PUSH1 0xE0 SHL PUSH1 0x0 MSTORE PUSH1 0x11 PUSH1 0x4 MSTORE PUSH1 0x24 PUSH1 0x0 REVERT JUMPDEST DUP1 DUP3 ADD DUP1 DUP3 GT ISZERO PUSH2 0x8DB JUMPI PUSH2 0x8DB PUSH2 0x2565 JUMP JUMPDEST PUSH1 0x0 DUP3 PUSH2 0x25AB JUMPI PUSH4 0x4E487B71 PUSH1 0xE0 SHL PUSH1 0x0 MSTORE PUSH1 0x12 PUSH1 0x4 MSTORE PUSH1 0x24 PUSH1 0x0 REVERT JUMPDEST POP DIV SWAP1 JUMP JUMPDEST DUP2 DUP2 SUB DUP2 DUP2 GT ISZERO PUSH2 0x8DB JUMPI PUSH2 0x8DB PUSH2 0x2565 JUMP JUMPDEST PUSH4 0x4E487B71 PUSH1 0xE0 SHL PUSH1 0x0 MSTORE PUSH1 0x32 PUSH1 0x4 MSTORE PUSH1 0x24 PUSH1 0x0 REVERT JUMPDEST PUSH1 0x0 PUSH1 0x1 DUP3 ADD PUSH2 0x25EB JUMPI PUSH2 0x25EB PUSH2 0x2565 JUMP JUMPDEST POP PUSH1 0x1 ADD SWAP1 JUMP JUMPDEST DUP1 DUP3 MUL DUP2 ISZERO DUP3 DUP3 DIV DUP5 EQ OR PUSH2 0x8DB JUMPI PUSH2 0x8DB PUSH2 0x2565 JUMP JUMPDEST PUSH1 0x0 PUSH1 0x20 DUP3 DUP5 SUB SLT ISZERO PUSH2 0x261B JUMPI PUSH1 0x0 DUP1 REVERT JUMPDEST POP MLOAD SWAP2 SWAP1 POP JUMP JUMPDEST DUP1 MLOAD PUSH1 0x1 PUSH1 0x1 PUSH1 0x70 SHL SUB DUP2 AND DUP2 EQ PUSH2 0x2249 JUMPI PUSH1 0x0 DUP1 REVERT JUMPDEST PUSH1 0x0 DUP1 PUSH1 0x0 PUSH1 0x60 DUP5 DUP7 SUB SLT ISZERO PUSH2 0x264E JUMPI PUSH1 0x0 DUP1 REVERT JUMPDEST PUSH2 0x2657 DUP5 PUSH2 0x2622 JUMP JUMPDEST SWAP3 POP PUSH2 0x2665 PUSH1 0x20 DUP6 ADD PUSH2 0x2622 JUMP JUMPDEST SWAP2 POP PUSH1 0x40 DUP5 ADD MLOAD PUSH4 0xFFFFFFFF DUP2 AND DUP2 EQ PUSH2 0x267E JUMPI PUSH1 0x0 DUP1 REVERT JUMPDEST DUP1 SWAP2 POP POP SWAP3 POP SWAP3 POP SWAP3 JUMP JUMPDEST PUSH1 0x0 PUSH1 0xA0 DUP3 ADD DUP8 DUP4 MSTORE PUSH1 0x20 DUP8 DUP2 DUP6 ADD MSTORE PUSH1 0xA0 PUSH1 0x40 DUP6 ADD MSTORE DUP2 DUP8 MLOAD DUP1 DUP5 MSTORE PUSH1 0xC0 DUP7 ADD SWAP2 POP DUP3 DUP10 ADD SWAP4 POP PUSH1 0x0 JUMPDEST DUP2 DUP2 LT ISZERO PUSH2 0x26D9 JUMPI DUP5 MLOAD PUSH1 0x1 PUSH1 0x1 PUSH1 0xA0 SHL SUB AND DUP4 MSTORE SWAP4 DUP4 ADD SWAP4 SWAP2 DUP4 ADD SWAP2 PUSH1 0x1 ADD PUSH2 0x26B4 JUMP JUMPDEST POP POP PUSH1 0x1 PUSH1 0x1 PUSH1 0xA0 SHL SUB SWAP7 SWAP1 SWAP7 AND PUSH1 0x60 DUP6 ADD MSTORE POP POP POP PUSH1 0x80 ADD MSTORE SWAP4 SWAP3 POP POP POP JUMP JUMPDEST PUSH1 0x0 DUP1 PUSH1 0x0 PUSH1 0x60 DUP5 DUP7 SUB SLT ISZERO PUSH2 0x270F JUMPI PUSH1 0x0 DUP1 REVERT JUMPDEST DUP4 MLOAD SWAP3 POP PUSH1 0x20 DUP5 ADD MLOAD SWAP2 POP PUSH1 0x40 DUP5 ADD MLOAD SWAP1 POP SWAP3 POP SWAP3 POP SWAP3 JUMP INVALID LOG2 PUSH5 0x6970667358 0x22 SLT KECCAK256 0xE4 0x2F DUP10 0xBE 0xE8 0x4B 0xBD STATICCALL RETURNDATASIZE LOG1 SIGNEXTEND PUSH1 0x9F SDIV 0xD7 PUSH21 0x5234A0C333920420A8FD915A7F5EF32A64736F6C63 NUMBER STOP ADDMOD GT STOP CALLER PUSH1 0x80 PUSH1 0x40 MSTORE CALLVALUE DUP1 ISZERO PUSH2 0x10 JUMPI PUSH1 0x0 DUP1 REVERT JUMPDEST POP PUSH1 0x40 MLOAD PUSH2 0x312 CODESIZE SUB DUP1 PUSH2 0x312 DUP4 CODECOPY DUP2 ADD PUSH1 0x40 DUP2 SWAP1 MSTORE PUSH2 0x2F SWAP2 PUSH2 0xBF JUMP JUMPDEST PUSH1 0x0 DUP1 SLOAD PUSH1 0x1 PUSH1 0x1 PUSH1 0xA0 SHL SUB NOT AND CALLER SWAP1 DUP2 OR SWAP1 SWAP2 SSTORE PUSH1 0x40 MLOAD PUSH4 0x95EA7B3 PUSH1 0xE0 SHL DUP2 MSTORE PUSH1 0x4 DUP2 ADD SWAP2 SWAP1 SWAP2 MSTORE PUSH1 0x0 NOT PUSH1 0x24 DUP3 ADD MSTORE PUSH1 0x1 PUSH1 0x1 PUSH1 0xA0 SHL SUB DUP3 AND SWAP1 PUSH4 0x95EA7B3 SWAP1 PUSH1 0x44 ADD PUSH1 0x20 PUSH1 0x40 MLOAD DUP1 DUP4 SUB DUP2 PUSH1 0x0 DUP8 GAS CALL ISZERO DUP1 ISZERO PUSH2 0x94 JUMPI RETURNDATASIZE PUSH1 0x0 DUP1 RETURNDATACOPY RETURNDATASIZE PUSH1 0x0 REVERT JUMPDEST POP POP POP POP PUSH1 0x40 MLOAD RETURNDATASIZE PUSH1 0x1F NOT PUSH1 0x1F DUP3 ADD AND DUP3 ADD DUP1 PUSH1 0x40 MSTORE POP DUP2 ADD SWAP1 PUSH2 0xB8 SWAP2 SWAP1 PUSH2 0xEF JUMP JUMPDEST POP POP PUSH2 0x111 JUMP JUMPDEST PUSH1 0x0 PUSH1 0x20 DUP3 DUP5 SUB SLT ISZERO PUSH2 0xD1 JUMPI PUSH1 0x0 DUP1 REVERT JUMPDEST DUP2 MLOAD PUSH1 0x1 PUSH1 0x1 PUSH1 0xA0 SHL SUB DUP2 AND DUP2 EQ PUSH2 0xE8 JUMPI PUSH1 0x0 DUP1 REVERT JUMPDEST SWAP4 SWAP3 POP POP POP JUMP JUMPDEST PUSH1 0x0 PUSH1 0x20 DUP3 DUP5 SUB SLT ISZERO PUSH2 0x101 JUMPI PUSH1 0x0 DUP1 REVERT JUMPDEST DUP2 MLOAD DUP1 ISZERO ISZERO DUP2 EQ PUSH2 0xE8 JUMPI PUSH1 0x0 DUP1 REVERT JUMPDEST PUSH2 0x1F2 DUP1 PUSH2 0x120 PUSH1 0x0 CODECOPY PUSH1 0x0 RETURN INVALID PUSH1 0x80 PUSH1 0x40 MSTORE CALLVALUE DUP1 ISZERO PUSH2 0x10 JUMPI PUSH1 0x0 DUP1 REVERT JUMPDEST POP PUSH1 0x4 CALLDATASIZE LT PUSH2 0x36 JUMPI PUSH1 0x0 CALLDATALOAD PUSH1 0xE0 SHR DUP1 PUSH4 0x125BFB66 EQ PUSH2 0x3B JUMPI DUP1 PUSH4 0xB2BDFA7B EQ PUSH2 0x50 JUMPI JUMPDEST PUSH1 0x0 DUP1 REVERT JUMPDEST PUSH2 0x4E PUSH2 0x49 CALLDATASIZE PUSH1 0x4 PUSH2 0x157 JUMP JUMPDEST PUSH2 0x7F JUMP JUMPDEST STOP JUMPDEST PUSH1 0x0 SLOAD PUSH2 0x63 SWAP1 PUSH1 0x1 PUSH1 0x1 PUSH1 0xA0 SHL SUB AND DUP2 JUMP JUMPDEST PUSH1 0x40 MLOAD PUSH1 0x1 PUSH1 0x1 PUSH1 0xA0 SHL SUB SWAP1 SWAP2 AND DUP2 MSTORE PUSH1 0x20 ADD PUSH1 0x40 MLOAD DUP1 SWAP2 SUB SWAP1 RETURN JUMPDEST PUSH1 0x0 SLOAD PUSH1 0x1 PUSH1 0x1 PUSH1 0xA0 SHL SUB AND CALLER EQ PUSH2 0xC2 JUMPI PUSH1 0x40 MLOAD PUSH3 0x461BCD PUSH1 0xE5 SHL DUP2 MSTORE PUSH1 0x20 PUSH1 0x4 DUP3 ADD MSTORE PUSH1 0x2 PUSH1 0x24 DUP3 ADD MSTORE PUSH2 0x216F PUSH1 0xF0 SHL PUSH1 0x44 DUP3 ADD MSTORE PUSH1 0x64 ADD PUSH1 0x40 MLOAD DUP1 SWAP2 SUB SWAP1 REVERT JUMPDEST PUSH1 0x40 MLOAD PUSH4 0xA9059CBB PUSH1 0xE0 SHL DUP2 MSTORE PUSH1 0x1 PUSH1 0x1 PUSH1 0xA0 SHL SUB DUP4 DUP2 AND PUSH1 0x4 DUP4 ADD MSTORE PUSH1 0x24 DUP3 ADD DUP4 SWAP1 MSTORE DUP5 AND SWAP1 PUSH4 0xA9059CBB SWAP1 PUSH1 0x44 ADD PUSH1 0x20 PUSH1 0x40 MLOAD DUP1 DUP4 SUB DUP2 PUSH1 0x0 DUP8 GAS CALL ISZERO DUP1 ISZERO PUSH2 0x111 JUMPI RETURNDATASIZE PUSH1 0x0 DUP1 RETURNDATACOPY RETURNDATASIZE PUSH1 0x0 REVERT JUMPDEST POP POP POP POP PUSH1 0x40 MLOAD RETURNDATASIZE PUSH1 0x1F NOT PUSH1 0x1F DUP3 ADD AND DUP3 ADD DUP1 PUSH1 0x40 MSTORE POP DUP2 ADD SWAP1 PUSH2 0x135 SWAP2 SWAP1 PUSH2 0x193 JUMP JUMPDEST POP POP POP POP JUMP JUMPDEST DUP1 CALLDATALOAD PUSH1 0x1 PUSH1 0x1 PUSH1 0xA0 SHL SUB DUP2 AND DUP2 EQ PUSH2 0x152 JUMPI PUSH1 0x0 DUP1 REVERT JUMPDEST SWAP2 SWAP1 POP JUMP JUMPDEST PUSH1 0x0 DUP1 PUSH1 0x0 PUSH1 0x60 DUP5 DUP7 SUB SLT ISZERO PUSH2 0x16C JUMPI PUSH1 0x0 DUP1 REVERT JUMPDEST PUSH2 0x175 DUP5 PUSH2 0x13B JUMP JUMPDEST SWAP3 POP PUSH2 0x183 PUSH1 0x20 DUP6 ADD PUSH2 0x13B JUMP JUMPDEST SWAP2 POP PUSH1 0x40 DUP5 ADD CALLDATALOAD SWAP1 POP SWAP3 POP SWAP3 POP SWAP3 JUMP JUMPDEST PUSH1 0x0 PUSH1 0x20 DUP3 DUP5 SUB SLT ISZERO PUSH2 0x1A5 JUMPI PUSH1 0x0 DUP1 REVERT JUMPDEST DUP2 MLOAD DUP1 ISZERO ISZERO DUP2 EQ PUSH2 0x1B5 JUMPI PUSH1 0x0 DUP1 REVERT JUMPDEST SWAP4 SWAP3 POP POP POP JUMP INVALID LOG2 PUSH5 0x6970667358 0x22 SLT KECCAK256 SWAP8 0xB7 0xE7 SWAP3 PUSH27 0x1C1729A06589E579E093A1C52FC72747FF1AD6C08C52D9D7FBAAD6 PUSH5 0x736F6C6343 STOP ADDMOD GT STOP CALLER "
				},
				"gasEstimates": {
					"creation": {
						"codeDepositCost": "2015600",
						"executionCost": "infinite",
						"totalCost": "infinite"
					},
					"external": {
						"_addLPFee()": "2408",
						"_buyBurnLPFee()": "2362",
						"_buyFundFee()": "2450",
						"_buyFundFee2()": "2406",
						"_buyFundFee3()": "2429",
						"_buyLPDividendFee()": "2384",
						"_buyLPFee()": "2362",
						"_limitAmount()": "2339",
						"_mainPair()": "2427",
						"_removeLPFee()": "2340",
						"_sellBurnFee()": "2341",
						"_sellBurnLPFee()": "2427",
						"_sellFundFee()": "2341",
						"_sellFundFee2()": "2340",
						"_sellFundFee3()": "2449",
						"_sellLPDividendFee()": "2386",
						"_sellLPFee()": "2428",
						"_transferFee()": "2363",
						"allowance(address,address)": "infinite",
						"approve(address,uint256)": "24597",
						"balanceOf(address)": "2648",
						"batchSetFeeWhiteList(address[],bool)": "infinite",
						"claimBalance(address,uint256)": "infinite",
						"claimContractToken(address,address,uint256)": "infinite",
						"claimToken(address,address,uint256)": "infinite",
						"decimals()": "2423",
						"name()": "infinite",
						"owner()": "2421",
						"renounceOwnership()": "30298",
						"setAddLPFee(uint256)": "24621",
						"setBuyFee(uint256,uint256,uint256,uint256,uint256,uint256)": "infinite",
						"setFeeWhiteList(address,bool)": "26929",
						"setFundAddress(address)": "51066",
						"setFundAddress2(address)": "51110",
						"setFundAddress3(address)": "51154",
						"setLimitAmount(uint256)": "24554",
						"setRemoveLPFee(uint256)": "24597",
						"setSellFee(uint256,uint256,uint256,uint256,uint256,uint256,uint256)": "infinite",
						"setSwapPairList(address,bool)": "26908",
						"setTransferFee(uint256)": "24576",
						"startAddLPBlock()": "2451",
						"startTrade()": "26598",
						"startTradeBlock()": "2451",
						"symbol()": "infinite",
						"totalSupply()": "2338",
						"transfer(address,uint256)": "infinite",
						"transferFrom(address,address,uint256)": "infinite",
						"transferOwnership(address)": "30510"
					}
				},
				"methodIdentifiers": {
					"_addLPFee()": "0db5bde4",
					"_buyBurnLPFee()": "61769f95",
					"_buyFundFee()": "ce0192f9",
					"_buyFundFee2()": "c38c6826",
					"_buyFundFee3()": "48bad3f5",
					"_buyLPDividendFee()": "a925a6bd",
					"_buyLPFee()": "b9fbc49d",
					"_limitAmount()": "d2c01fc4",
					"_mainPair()": "4188bf5a",
					"_removeLPFee()": "5ef01957",
					"_sellBurnFee()": "7abdc1ca",
					"_sellBurnLPFee()": "f40db851",
					"_sellFundFee()": "3bfe62ca",
					"_sellFundFee2()": "b9ec2ec6",
					"_sellFundFee3()": "fcbd190b",
					"_sellLPDividendFee()": "0a607930",
					"_sellLPFee()": "adc7955d",
					"_transferFee()": "3df9a8d2",
					"allowance(address,address)": "dd62ed3e",
					"approve(address,uint256)": "095ea7b3",
					"balanceOf(address)": "70a08231",
					"batchSetFeeWhiteList(address[],bool)": "b2887bec",
					"claimBalance(address,uint256)": "aa8b38d9",
					"claimContractToken(address,address,uint256)": "78759541",
					"claimToken(address,address,uint256)": "125bfb66",
					"decimals()": "313ce567",
					"name()": "06fdde03",
					"owner()": "8da5cb5b",
					"renounceOwnership()": "715018a6",
					"setAddLPFee(uint256)": "15306932",
					"setBuyFee(uint256,uint256,uint256,uint256,uint256,uint256)": "c0600af3",
					"setFeeWhiteList(address,bool)": "d83d4143",
					"setFundAddress(address)": "85dc3004",
					"setFundAddress2(address)": "4672f7c5",
					"setFundAddress3(address)": "34902454",
					"setLimitAmount(uint256)": "1f107a45",
					"setRemoveLPFee(uint256)": "cd8d263d",
					"setSellFee(uint256,uint256,uint256,uint256,uint256,uint256,uint256)": "1c99f684",
					"setSwapPairList(address,bool)": "a8424861",
					"setTransferFee(uint256)": "8f02bb5b",
					"startAddLPBlock()": "9bb85344",
					"startTrade()": "6c580801",
					"startTradeBlock()": "553193ca",
					"symbol()": "95d89b41",
					"totalSupply()": "18160ddd",
					"transfer(address,uint256)": "a9059cbb",
					"transferFrom(address,address,uint256)": "23b872dd",
					"transferOwnership(address)": "f2fde38b"
				}
			},
			"storageLayout": {
				"storage": [
					{
						"astId": 158,
						"contract": "contracts/MyB2B.sol:pepe2",
						"label": "_owner",
						"offset": 0,
						"slot": "0",
						"type": "t_address"
					},
					{
						"astId": 315,
						"contract": "contracts/MyB2B.sol:pepe2",
						"label": "_balances",
						"offset": 0,
						"slot": "1",
						"type": "t_mapping(t_address,t_uint256)"
					},
					{
						"astId": 321,
						"contract": "contracts/MyB2B.sol:pepe2",
						"label": "_allowances",
						"offset": 0,
						"slot": "2",
						"type": "t_mapping(t_address,t_mapping(t_address,t_uint256))"
					},
					{
						"astId": 323,
						"contract": "contracts/MyB2B.sol:pepe2",
						"label": "fundAddress",
						"offset": 0,
						"slot": "3",
						"type": "t_address"
					},
					{
						"astId": 325,
						"contract": "contracts/MyB2B.sol:pepe2",
						"label": "fundAddress2",
						"offset": 0,
						"slot": "4",
						"type": "t_address"
					},
					{
						"astId": 327,
						"contract": "contracts/MyB2B.sol:pepe2",
						"label": "fundAddress3",
						"offset": 0,
						"slot": "5",
						"type": "t_address"
					},
					{
						"astId": 329,
						"contract": "contracts/MyB2B.sol:pepe2",
						"label": "_name",
						"offset": 0,
						"slot": "6",
						"type": "t_string_storage"
					},
					{
						"astId": 331,
						"contract": "contracts/MyB2B.sol:pepe2",
						"label": "_symbol",
						"offset": 0,
						"slot": "7",
						"type": "t_string_storage"
					},
					{
						"astId": 333,
						"contract": "contracts/MyB2B.sol:pepe2",
						"label": "_decimals",
						"offset": 0,
						"slot": "8",
						"type": "t_uint8"
					},
					{
						"astId": 337,
						"contract": "contracts/MyB2B.sol:pepe2",
						"label": "_feeWhiteList",
						"offset": 0,
						"slot": "9",
						"type": "t_mapping(t_address,t_bool)"
					},
					{
						"astId": 339,
						"contract": "contracts/MyB2B.sol:pepe2",
						"label": "_tTotal",
						"offset": 0,
						"slot": "10",
						"type": "t_uint256"
					},
					{
						"astId": 342,
						"contract": "contracts/MyB2B.sol:pepe2",
						"label": "_swapRouter",
						"offset": 0,
						"slot": "11",
						"type": "t_contract(ISwapRouter)128"
					},
					{
						"astId": 344,
						"contract": "contracts/MyB2B.sol:pepe2",
						"label": "_usdt",
						"offset": 0,
						"slot": "12",
						"type": "t_address"
					},
					{
						"astId": 348,
						"contract": "contracts/MyB2B.sol:pepe2",
						"label": "_swapPairList",
						"offset": 0,
						"slot": "13",
						"type": "t_mapping(t_address,t_bool)"
					},
					{
						"astId": 350,
						"contract": "contracts/MyB2B.sol:pepe2",
						"label": "inSwap",
						"offset": 0,
						"slot": "14",
						"type": "t_bool"
					},
					{
						"astId": 360,
						"contract": "contracts/MyB2B.sol:pepe2",
						"label": "_tokenDistributor",
						"offset": 1,
						"slot": "14",
						"type": "t_contract(TokenDistributor)307"
					},
					{
						"astId": 363,
						"contract": "contracts/MyB2B.sol:pepe2",
						"label": "_buyFundFee",
						"offset": 0,
						"slot": "15",
						"type": "t_uint256"
					},
					{
						"astId": 366,
						"contract": "contracts/MyB2B.sol:pepe2",
						"label": "_buyFundFee2",
						"offset": 0,
						"slot": "16",
						"type": "t_uint256"
					},
					{
						"astId": 369,
						"contract": "contracts/MyB2B.sol:pepe2",
						"label": "_buyFundFee3",
						"offset": 0,
						"slot": "17",
						"type": "t_uint256"
					},
					{
						"astId": 372,
						"contract": "contracts/MyB2B.sol:pepe2",
						"label": "_buyLPDividendFee",
						"offset": 0,
						"slot": "18",
						"type": "t_uint256"
					},
					{
						"astId": 375,
						"contract": "contracts/MyB2B.sol:pepe2",
						"label": "_buyLPFee",
						"offset": 0,
						"slot": "19",
						"type": "t_uint256"
					},
					{
						"astId": 378,
						"contract": "contracts/MyB2B.sol:pepe2",
						"label": "_buyBurnLPFee",
						"offset": 0,
						"slot": "20",
						"type": "t_uint256"
					},
					{
						"astId": 381,
						"contract": "contracts/MyB2B.sol:pepe2",
						"label": "_sellFundFee",
						"offset": 0,
						"slot": "21",
						"type": "t_uint256"
					},
					{
						"astId": 384,
						"contract": "contracts/MyB2B.sol:pepe2",
						"label": "_sellFundFee2",
						"offset": 0,
						"slot": "22",
						"type": "t_uint256"
					},
					{
						"astId": 387,
						"contract": "contracts/MyB2B.sol:pepe2",
						"label": "_sellFundFee3",
						"offset": 0,
						"slot": "23",
						"type": "t_uint256"
					},
					{
						"astId": 390,
						"contract": "contracts/MyB2B.sol:pepe2",
						"label": "_sellLPDividendFee",
						"offset": 0,
						"slot": "24",
						"type": "t_uint256"
					},
					{
						"astId": 393,
						"contract": "contracts/MyB2B.sol:pepe2",
						"label": "_sellLPFee",
						"offset": 0,
						"slot": "25",
						"type": "t_uint256"
					},
					{
						"astId": 396,
						"contract": "contracts/MyB2B.sol:pepe2",
						"label": "_sellBurnLPFee",
						"offset": 0,
						"slot": "26",
						"type": "t_uint256"
					},
					{
						"astId": 399,
						"contract": "contracts/MyB2B.sol:pepe2",
						"label": "_sellBurnFee",
						"offset": 0,
						"slot": "27",
						"type": "t_uint256"
					},
					{
						"astId": 402,
						"contract": "contracts/MyB2B.sol:pepe2",
						"label": "_transferFee",
						"offset": 0,
						"slot": "28",
						"type": "t_uint256"
					},
					{
						"astId": 404,
						"contract": "contracts/MyB2B.sol:pepe2",
						"label": "startAddLPBlock",
						"offset": 0,
						"slot": "29",
						"type": "t_uint256"
					},
					{
						"astId": 406,
						"contract": "contracts/MyB2B.sol:pepe2",
						"label": "startTradeBlock",
						"offset": 0,
						"slot": "30",
						"type": "t_uint256"
					},
					{
						"astId": 408,
						"contract": "contracts/MyB2B.sol:pepe2",
						"label": "_mainPair",
						"offset": 0,
						"slot": "31",
						"type": "t_address"
					},
					{
						"astId": 411,
						"contract": "contracts/MyB2B.sol:pepe2",
						"label": "_removeLPFee",
						"offset": 0,
						"slot": "32",
						"type": "t_uint256"
					},
					{
						"astId": 414,
						"contract": "contracts/MyB2B.sol:pepe2",
						"label": "_addLPFee",
						"offset": 0,
						"slot": "33",
						"type": "t_uint256"
					},
					{
						"astId": 416,
						"contract": "contracts/MyB2B.sol:pepe2",
						"label": "_limitAmount",
						"offset": 0,
						"slot": "34",
						"type": "t_uint256"
					}
				],
				"types": {
					"t_address": {
						"encoding": "inplace",
						"label": "address",
						"numberOfBytes": "20"
					},
					"t_bool": {
						"encoding": "inplace",
						"label": "bool",
						"numberOfBytes": "1"
					},
					"t_contract(ISwapRouter)128": {
						"encoding": "inplace",
						"label": "contract ISwapRouter",
						"numberOfBytes": "20"
					},
					"t_contract(TokenDistributor)307": {
						"encoding": "inplace",
						"label": "contract TokenDistributor",
						"numberOfBytes": "20"
					},
					"t_mapping(t_address,t_bool)": {
						"encoding": "mapping",
						"key": "t_address",
						"label": "mapping(address => bool)",
						"numberOfBytes": "32",
						"value": "t_bool"
					},
					"t_mapping(t_address,t_mapping(t_address,t_uint256))": {
						"encoding": "mapping",
						"key": "t_address",
						"label": "mapping(address => mapping(address => uint256))",
						"numberOfBytes": "32",
						"value": "t_mapping(t_address,t_uint256)"
					},
					"t_mapping(t_address,t_uint256)": {
						"encoding": "mapping",
						"key": "t_address",
						"label": "mapping(address => uint256)",
						"numberOfBytes": "32",
						"value": "t_uint256"
					},
					"t_string_storage": {
						"encoding": "bytes",
						"label": "string",
						"numberOfBytes": "32"
					},
					"t_uint256": {
						"encoding": "inplace",
						"label": "uint256",
						"numberOfBytes": "32"
					},
					"t_uint8": {
						"encoding": "inplace",
						"label": "uint8",
						"numberOfBytes": "1"
					}
				}
			},
			"userdoc": {
				"kind": "user",
				"methods": {},
				"version": 1
			}
		}
	}
}