{
	"data": {
		"bytecode": {
			"linkReferences": {},
			"object": "6080604052600780546001600160a01b03199081167355d398326f99059ff775485246999027b319795517909155600880549091167310ed43c718714eb63d5aa57b78b54704e256024e179055600a805476010000000000000000000000000000000000000000dead600162ffff0160a01b03199091161790556000600b819055600c55600160158190556016819055601781905560188190556019819055601a819055601b819055601c819055601d819055601e819055601f819055600360208190556021556022805460ff199081168317909155620493e0602355602c805490911690911790556401a13b8600602d55603c6031553480156200010357600080fd5b506040518060400160405280600681526020016510da185a5b9160d21b8152506040518060400160405280600381526020016210d21160ea1b815250816003908162000150919062000d1d565b5060046200015f828262000d1d565b50505060006200017462000a2c60201b60201c565b600580546001600160a01b0319166001600160a01b038316908117909155604051919250906000907f8be0079c531659141344cd1fd0a4f28419497f9722a3daafe3b4186f6b6457e0908290a350600e8054336001600160a01b03199182168117909255600f80548216831790556010805482168317905560118054909116909117905560085460405130916001600160a01b0316907355d398326f99059ff775485246999027b3197955906200022b9062000c6b565b6001600160a01b0393841681529183166020830152909116604082015260a060608201819052600d908201526c21b430b4b7222a2920a1a5a2a960991b60c082015260e060808201819052600a908201526921a4222a2920a1a5a2a960b11b61010082015261012001604051809103906000f080158015620002b1573d6000803e3d6000fd5b50600d80546001600160a01b039283166001600160a01b03199182161790915560085460068054909216921691821790556040805163c45a015560e01b8152905163c45a0155916004808201926020929091908290030181865afa1580156200031e573d6000803e3d6000fd5b505050506040513d601f19601f8201168201806040525081019062000344919062000de9565b6001600160a01b031663c9c6539630600660009054906101000a90046001600160a01b03166001600160a01b031663ad5c46486040518163ffffffff1660e01b8152600401602060405180830381865afa158015620003a7573d6000803e3d6000fd5b505050506040513d601f19601f82011682018060405250810190620003cd919062000de9565b6040516001600160e01b031960e085901b1681526001600160a01b039283166004820152911660248201526044016020604051808303816000875af11580156200041b573d6000803e3d6000fd5b505050506040513d601f19601f8201168201806040525081019062000441919062000de9565b600980546001600160a01b0319166001600160a01b039290921691821790556200046d90600162000a30565b600d5460405163031e79db60e41b81526001600160a01b0390911660048201819052906331e79db090602401600060405180830381600087803b158015620004b457600080fd5b505af1158015620004c9573d6000803e3d6000fd5b5050600d5460405163031e79db60e41b81523060048201526001600160a01b0390911692506331e79db09150602401600060405180830381600087803b1580156200051357600080fd5b505af115801562000528573d6000803e3d6000fd5b5050600d54600a5460405163031e79db60e41b81526001600160a01b039182166004820152911692506331e79db09150602401600060405180830381600087803b1580156200057657600080fd5b505af11580156200058b573d6000803e3d6000fd5b5050600d54604051634e7b827f60e01b8152600060048201526001600160a01b039091169250634e7b827f9150602401602060405180830381865afa158015620005d9573d6000803e3d6000fd5b505050506040513d601f19601f82011682018060405250810190620005ff919062000e14565b50600d5460085460405163031e79db60e41b81526001600160a01b0391821660048201529116906331e79db090602401600060405180830381600087803b1580156200064a57600080fd5b505af11580156200065f573d6000803e3d6000fd5b5050600d54600e5460405163031e79db60e41b81526001600160a01b039182166004820152911692506331e79db09150602401600060405180830381600087803b158015620006ad57600080fd5b505af1158015620006c2573d6000803e3d6000fd5b5050600d54600f5460405163031e79db60e41b81526001600160a01b039182166004820152911692506331e79db09150602401600060405180830381600087803b1580156200071057600080fd5b505af115801562000725573d6000803e3d6000fd5b5050600d5460105460405163031e79db60e41b81526001600160a01b039182166004820152911692506331e79db09150602401600060405180830381600087803b1580156200077357600080fd5b505af115801562000788573d6000803e3d6000fd5b5050600d5460115460405163031e79db60e41b81526001600160a01b039182166004820152911692506331e79db09150602401600060405180830381600087803b158015620007d657600080fd5b505af1158015620007eb573d6000803e3d6000fd5b5050600d546001600160a01b031691506331e79db09050620008156005546001600160a01b031690565b6040516001600160e01b031960e084901b1681526001600160a01b039091166004820152602401600060405180830381600087803b1580156200085757600080fd5b505af11580156200086c573d6000803e3d6000fd5b50503060008181526024602090815260408083208054600160ff199182168117909255600d80546001600160a01b0390811687528487208054841685179055600e8054821688528588208054851686179055600f80548316895286892080548616871790556011805484168a52878a2080548716881790556010805485168b52888b20805488168917905533808c52898c20805489168a1790559b8b526025909952878a2080548716881790559354831689528689208054861687179055905482168852858820805485168617905554811687528487208054841685179055945485168652838620805483168417905554841685528285208054821683179055948452922080549093169091179091556005546a084595161401484a00000093506200099b9250168262000afc565b620009a860048262000e38565b601355620009b860048262000e38565b601255620009c96107d08262000e38565b6014556001602b6000620009e56005546001600160a01b031690565b6001600160a01b0316815260208082019290925260409081016000908120805494151560ff19958616179055308152602b9092529020805490911660011790555062000e82565b3390565b6001600160a01b0382166000908152602760205260409020805460ff1916821580159190911790915562000ac057600d5460405163031e79db60e41b81526001600160a01b038481166004830152909116906331e79db090602401600060405180830381600087803b15801562000aa657600080fd5b505af115801562000abb573d6000803e3d6000fd5b505050505b604051811515906001600160a01b038416907fffa9187bf1f18bf477bd0ea1bcbb64e93b6a98132473929edfce215cd9b16fab90600090a35050565b6001600160a01b03821662000b585760405162461bcd60e51b815260206004820152601f60248201527f45524332303a206d696e7420746f20746865207a65726f20616464726573730060448201526064015b60405180910390fd5b62000b748160025462000c0160201b620032531790919060201c565b6002556001600160a01b0382166000908152602081815260409091205462000ba79183906200325362000c01821b17901c565b6001600160a01b038316600081815260208181526040808320949094559251848152919290917fddf252ad1be2c89b69c2b068fc378daa952ba7f163c4a11628f55a4df523b3ef910160405180910390a35050565b505050565b60008062000c10838562000e5b565b90508381101562000c645760405162461bcd60e51b815260206004820152601b60248201527f536166654d6174683a206164646974696f6e206f766572666c6f770000000000604482015260640162000b4f565b9392505050565b6130e78062005ea183390190565b634e487b7160e01b600052604160045260246000fd5b600181811c9082168062000ca457607f821691505b60208210810362000cc557634e487b7160e01b600052602260045260246000fd5b50919050565b601f82111562000bfc57600081815260208120601f850160051c8101602086101562000cf45750805b601f850160051c820191505b8181101562000d155782815560010162000d00565b505050505050565b81516001600160401b0381111562000d395762000d3962000c79565b62000d518162000d4a845462000c8f565b8462000ccb565b602080601f83116001811462000d89576000841562000d705750858301515b600019600386901b1c1916600185901b17855562000d15565b600085815260208120601f198616915b8281101562000dba5788860151825594840194600190910190840162000d99565b508582101562000dd95787850151600019600388901b60f8161c191681555b5050505050600190811b01905550565b60006020828403121562000dfc57600080fd5b81516001600160a01b038116811462000c6457600080fd5b60006020828403121562000e2757600080fd5b8151801515811462000c6457600080fd5b60008262000e5657634e487b7160e01b600052601260045260246000fd5b500490565b6000821982111562000e7d57634e487b7160e01b600052601160045260246000fd5b500190565b61500f8062000e926000396000f3fe6080604052600436106105425760003560e01c80637d32f342116102bd578063b62496f511610180578063e6dc4ebe116100e7578063f2fde38b116100a0578063f8b45b051161007a578063f8b45b05146110ff578063f9f92be414611115578063fc6b151c14611135578063fe575a871461115557600080fd5b8063f2fde38b1461109f578063f5d3c79a146110bf578063f887ea40146110df57600080fd5b8063e6dc4ebe14610fe7578063e7841ec014611007578063f15d4e5d1461101c578063f1c0ddff14611032578063f27fd2541461105f578063f287eada1461107f57600080fd5b8063d5e3725111610139578063d5e3725114610f15578063d8032ed314610f35578063dcf26b0f14610f55578063dd62ed3e14610f75578063df349c9514610fbb578063e2f4560514610fd157600080fd5b8063b62496f514610e45578063b6db29b614610e75578063b74e3b1114610e95578063ba079d4914610eb5578063bb4c9f0b14610ed5578063d07a091c14610ef557600080fd5b80639c1b8af511610224578063a8b9d240116101dd578063a8b9d24014610d2a578063a9059cbb14610d4a578063aa4704f314610d6a578063ad56c13c14610dc2578063adb873bd14610e19578063b494298814610e2f57600080fd5b80639c1b8af514610c745780639c3372ea14610c8a5780639cefc1da14610caa5780639ec1037e14610cca578063a457c2d714610cea578063a694fc3a14610d0a57600080fd5b80638a8c523c116102765780638a8c523c14610be05780638da5cb5b14610bf55780639213691314610c1357806393d62bce14610c2957806395d89b4114610c3f5780639a7a23d614610c5457600080fd5b80637d32f34214610b275780637fdde05c14610b5457806384adc5b314610b7457806384d4a9e314610b8a578063868730c714610ba0578063871c128d14610bc057600080fd5b80634a62bb65116104055780636843cd841161036c57806372d8edf41161032557806372d8edf414610a855780637437681e14610aa557806375829def14610abb57806375f0a87414610adb5780637b0897ac14610afb5780637bce5a0414610b1157600080fd5b80636843cd84146109da57806368e9b874146109fa5780636d48467b14610a10578063700bb19114610a3057806370a0823114610a50578063715018a614610a7057600080fd5b80635ebf4db9116103be5780635ebf4db9146109165780635eee4bae1461093657806364b0f65314610956578063658c27a91461096b578063675b9366146109a4578063679ca6e9146109ba57600080fd5b80634a62bb65146108535780634a74bb021461086d5780634ada218b146108875780634e71d92d146108a85780634fbee193146108bd5780635a84c5eb146108f657600080fd5b80632307b441116104a95780633599bb17116104625780633599bb171461079057806339509351146107b05780633f407b84146107d057806340ffdd80146107e6578063435c89e41461080657806349bd5a5e1461083357600080fd5b80632307b441146106ea57806323b872dd1461070a57806325cd35981461072a5780632c1f52161461073f57806330bb4cff1461075f578063313ce5671461077457600080fd5b80630ef35b7e116104fb5780630ef35b7e1461063f5780631694505e1461065f57806318160ddd1461067f5780631d7b1fb41461069e5780631ec32d15146106b45780631fa70531146106d457600080fd5b806303fd2a451461054e57806305ca5f081461058b57806306fdde03146105ad57806308dfe8a5146105cf57806309231602146105ef578063095ea7b31461060f57600080fd5b3661054957005b600080fd5b34801561055a57600080fd5b50600a5461056e906001600160a01b031681565b6040516001600160a01b0390911681526020015b60405180910390f35b34801561059757600080fd5b506105ab6105a636600461488b565b611185565b005b3480156105b957600080fd5b506105c2611256565b60405161058291906148a4565b3480156105db57600080fd5b506105ab6105ea36600461491c565b6112e8565b3480156105fb57600080fd5b506105ab61060a36600461488b565b611372565b34801561061b57600080fd5b5061062f61062a366004614955565b611401565b6040519015158152602001610582565b34801561064b57600080fd5b506105ab61065a366004614981565b611418565b34801561066b57600080fd5b5060065461056e906001600160a01b031681565b34801561068b57600080fd5b506002545b604051908152602001610582565b3480156106aa57600080fd5b5061069060315481565b3480156106c057600080fd5b50600f5461056e906001600160a01b031681565b3480156106e057600080fd5b50610690600c5481565b3480156106f657600080fd5b506105ab610705366004614a79565b6114fd565b34801561071657600080fd5b5061062f610725366004614b3b565b6116ce565b34801561073657600080fd5b5061056e611737565b34801561074b57600080fd5b50600d5461056e906001600160a01b031681565b34801561076b57600080fd5b506106906117aa565b34801561078057600080fd5b5060405160128152602001610582565b34801561079c57600080fd5b506105ab6107ab366004614b7c565b611818565b3480156107bc57600080fd5b5061062f6107cb366004614955565b6118a5565b3480156107dc57600080fd5b50610690600b5481565b3480156107f257600080fd5b506105ab610801366004614b7c565b6118db565b34801561081257600080fd5b5061069061082136600461488b565b602a6020526000908152604090205481565b34801561083f57600080fd5b5060095461056e906001600160a01b031681565b34801561085f57600080fd5b50602c5461062f9060ff1681565b34801561087957600080fd5b5060225461062f9060ff1681565b34801561089357600080fd5b50600a5461062f90600160b01b900460ff1681565b3480156108b457600080fd5b506105ab611936565b3480156108c957600080fd5b5061062f6108d8366004614b99565b6001600160a01b031660009081526024602052604090205460ff1690565b34801561090257600080fd5b506105ab61091136600461488b565b6119ae565b34801561092257600080fd5b506105ab61093136600461488b565b611a09565b34801561094257600080fd5b506105ab61095136600461488b565b611a64565b34801561096257600080fd5b50610690611aa6565b34801561097757600080fd5b5061062f610986366004614b99565b6001600160a01b031660009081526025602052604090205460ff1690565b3480156109b057600080fd5b50610690601d5481565b3480156109c657600080fd5b506105ab6109d5366004614b7c565b611af0565b3480156109e657600080fd5b506106906109f5366004614b99565b611b2d565b348015610a0657600080fd5b50610690601b5481565b348015610a1c57600080fd5b5061062f610a2b366004614b99565b611b9d565b348015610a3c57600080fd5b506105ab610a4b36600461488b565b611c0d565b348015610a5c57600080fd5b50610690610a6b366004614b99565b611cdf565b348015610a7c57600080fd5b506105ab611cfa565b348015610a9157600080fd5b506105ab610aa0366004614b99565b611d6e565b348015610ab157600080fd5b5061069060135481565b348015610ac757600080fd5b506105ab610ad6366004614b99565b611dca565b348015610ae757600080fd5b50600e5461056e906001600160a01b031681565b348015610b0757600080fd5b5061069060155481565b348015610b1d57600080fd5b50610690601c5481565b348015610b3357600080fd5b50610690610b42366004614b99565b60296020526000908152604090205481565b348015610b6057600080fd5b506105ab610b6f36600461491c565b611e97565b348015610b8057600080fd5b5061069060185481565b348015610b9657600080fd5b50610690601e5481565b348015610bac57600080fd5b506105ab610bbb366004614b7c565b611eec565b348015610bcc57600080fd5b506105ab610bdb36600461488b565b611f24565b348015610bec57600080fd5b506105ab611fa0565b348015610c0157600080fd5b506005546001600160a01b031661056e565b348015610c1f57600080fd5b5061069060175481565b348015610c3557600080fd5b50610690601f5481565b348015610c4b57600080fd5b506105c2612023565b348015610c6057600080fd5b506105ab610c6f36600461491c565b612032565b348015610c8057600080fd5b5061069060235481565b348015610c9657600080fd5b506105ab610ca5366004614b7c565b61206a565b348015610cb657600080fd5b506105ab610cc5366004614b7c565b6120c6565b348015610cd657600080fd5b506105ab610ce5366004614b99565b612167565b348015610cf657600080fd5b5061062f610d05366004614955565b61223e565b348015610d1657600080fd5b506105ab610d2536600461488b565b61228d565b348015610d3657600080fd5b50610690610d45366004614b99565b6124b0565b348015610d5657600080fd5b5061062f610d65366004614955565b6124e3565b348015610d7657600080fd5b50610dad610d85366004614b99565b6001600160a01b03166000908152602960209081526040808320546028909252909120549091565b60408051928352602083019190915201610582565b348015610dce57600080fd5b50610de2610ddd366004614b99565b6124f0565b604080516001600160a01b0390971687526020870195909552938501929092526060840152608083015260a082015260c001610582565b348015610e2557600080fd5b50610690601a5481565b348015610e3b57600080fd5b5061069060305481565b348015610e5157600080fd5b5061062f610e60366004614b99565b60276020526000908152604090205460ff1681565b348015610e8157600080fd5b506105ab610e90366004614bb6565b612580565b348015610ea157600080fd5b506105ab610eb036600461488b565b612778565b348015610ec157600080fd5b5061062f610ed0366004614b99565b612808565b348015610ee157600080fd5b506105ab610ef0366004614a79565b61283b565b348015610f0157600080fd5b506105ab610f10366004614b99565b612ce8565b348015610f2157600080fd5b506105ab610f30366004614b7c565b612ddd565b348015610f4157600080fd5b506105ab610f50366004614b99565b612e5f565b348015610f6157600080fd5b506105ab610f7036600461491c565b612f22565b348015610f8157600080fd5b50610690610f90366004614c28565b6001600160a01b03918216600090815260016020908152604080832093909416825291909152205490565b348015610fc757600080fd5b5061069060195481565b348015610fdd57600080fd5b5061069060145481565b348015610ff357600080fd5b5060115461056e906001600160a01b031681565b34801561101357600080fd5b50610690612fa4565b34801561102857600080fd5b5061069060165481565b34801561103e57600080fd5b5061069061104d366004614b99565b60286020526000908152604090205481565b34801561106b57600080fd5b50610de261107a36600461488b565b612fee565b34801561108b57600080fd5b5060105461056e906001600160a01b031681565b3480156110ab57600080fd5b506105ab6110ba366004614b99565b61302c565b3480156110cb57600080fd5b506105ab6110da366004614b7c565b613117565b3480156110eb57600080fd5b5060085461056e906001600160a01b031681565b34801561110b57600080fd5b5061069060125481565b34801561112157600080fd5b506105ab611130366004614b99565b61314f565b34801561114157600080fd5b506105ab61115036600461488b565b61319d565b34801561116157600080fd5b5061062f611170366004614b99565b60266020526000908152604090205460ff1681565b6005546001600160a01b031633146111b85760405162461bcd60e51b81526004016111af90614c56565b60405180910390fd5b6111ca81670de0b6b3a7640000614ca1565b905060006111e5600b54600c5461325390919063ffffffff16565b9050600061120882611202600c54866132b990919063ffffffff16565b9061333b565b9050600061122583611202600b54876132b990919063ffffffff16565b90506112308461337d565b600c5461123d9083613750565b600c55600b5461124d9082613750565b600b5550505050565b60606003805461126590614cc0565b80601f016020809104026020016040519081016040528092919081815260200182805461129190614cc0565b80156112de5780601f106112b3576101008083540402835291602001916112de565b820191906000526020600020905b8154815290600101906020018083116112c157829003601f168201915b5050505050905090565b6005546001600160a01b031633146113125760405162461bcd60e51b81526004016111af90614c56565b6001600160a01b038216600081815260246020908152604091829020805460ff191685151590811790915591519182527f9d8f7706ea1113d1a167b526eca956215946dd36cc7df39eb16180222d8b5df791015b60405180910390a25050565b6005546001600160a01b0316331461139c5760405162461bcd60e51b81526004016111af90614c56565b60058110156113ed5760405162461bcd60e51b815260206004820152601860248201527f63616e206e65766572206265207365742062656c6f772035000000000000000060448201526064016111af565b6113fb81633b9aca00614ca1565b602d5550565b600061140e338484613792565b5060015b92915050565b6005546001600160a01b031633146114425760405162461bcd60e51b81526004016111af90614c56565b6000828152602a602052604090205481900361145d57600080fd5b60648111156114ae5760405162461bcd60e51b815260206004820152601e60248201527f5374616b696e6720626f6e75732063616e27742065786365656420313030000060448201526064016111af565b6000828152602a602090815260409182902083905581518481529081018390527f065c0eec5c5d031ee25323575d53db5536226ab058b74d8bdb03c517dd4f605d910160405180910390a15050565b6005546001600160a01b031633146115275760405162461bcd60e51b81526004016111af90614c56565b80518251146115785760405162461bcd60e51b815260206004820152601e60248201527f417272617973206d757374206265207468652073616d65206c656e677468000060448201526064016111af565b60c8825111156115d55760405162461bcd60e51b815260206004820152602260248201527f57616c6c657473206c697374206c656e677468206d757374206265203c3d2032604482015261030360f41b60648201526084016111af565b60005b82518110156116c95760008382815181106115f5576115f5614cfa565b60200260200101519050600083838151811061161357611613614cfa565b6020026020010151670de0b6b3a764000061162e9190614ca1565b905061163b3383836138b7565b600d546001600160a01b031663e30443bc8361165681611cdf565b6040516001600160e01b031960e085901b1681526001600160a01b0390921660048301526024820152604401600060405180830381600087803b15801561169c57600080fd5b505af11580156116b0573d6000803e3d6000fd5b50505050505080806116c190614d10565b9150506115d8565b505050565b60006116db8484846139c0565b61172d843361172885604051806060016040528060288152602001614f8d602891396001600160a01b038a1660009081526001602090815260408083203384529091529020549190614454565b613792565b5060019392505050565b600d54604080516304b9a6b360e31b815290516000926001600160a01b0316916325cd35989160048083019260209291908290030181865afa158015611781573d6000803e3d6000fd5b505050506040513d601f19601f820116820180604052508101906117a59190614d29565b905090565b600d54604080516342d359d760e11b815290516000926001600160a01b0316916385a6b3ae9160048083019260209291908290030181865afa1580156117f4573d6000803e3d6000fd5b505050506040513d601f19601f820116820180604052508101906117a59190614d46565b6005546001600160a01b031633146118425760405162461bcd60e51b81526004016111af90614c56565b600d54604051633599bb1760e01b815282151560048201526001600160a01b0390911690633599bb17906024015b600060405180830381600087803b15801561188a57600080fd5b505af115801561189e573d6000803e3d6000fd5b5050505050565b3360008181526001602090815260408083206001600160a01b0387168452909152812054909161140e9185906117289086613253565b6005546001600160a01b031633146119055760405162461bcd60e51b81526004016111af90614c56565b600d546040516281ffbb60e71b815282151560048201526001600160a01b03909116906340ffdd8090602401611870565b600d5460405163bc4c4b3760e01b8152336004820152600060248201526001600160a01b039091169063bc4c4b37906044016020604051808303816000875af1158015611987573d6000803e3d6000fd5b505050506040513d601f19601f820116820180604052508101906119ab9190614d5f565b50565b6005546001600160a01b031633146119d85760405162461bcd60e51b81526004016111af90614c56565b600d54604051635a84c5eb60e01b8152600481018390526001600160a01b0390911690635a84c5eb90602401611870565b6005546001600160a01b03163314611a335760405162461bcd60e51b81526004016111af90614c56565b600d54604051635ebf4db960e01b8152600481018390526001600160a01b0390911690635ebf4db990602401611870565b6005546001600160a01b03163314611a8e5760405162461bcd60e51b81526004016111af90614c56565b611aa081670de0b6b3a7640000614ca1565b60145550565b600d54604080516304ddf6ef60e11b815290516000926001600160a01b0316916309bbedde9160048083019260209291908290030181865afa1580156117f4573d6000803e3d6000fd5b6005546001600160a01b03163314611b1a5760405162461bcd60e51b81526004016111af90614c56565b602c805460ff1916911515919091179055565b600d546040516370a0823160e01b81526001600160a01b03838116600483015260009216906370a08231906024015b602060405180830381865afa158015611b79573d6000803e3d6000fd5b505050506040513d601f19601f820116820180604052508101906114129190614d46565b600d54604051636d48467b60e01b81526001600160a01b0383811660048301526000921690636d48467b906024015b602060405180830381865afa158015611be9573d6000803e3d6000fd5b505050506040513d601f19601f820116820180604052508101906114129190614d5f565b600d546040516001624d3b8760e01b0319815260048101839052600091829182916001600160a01b03169063ffb2c479906024016060604051808303816000875af1158015611c60573d6000803e3d6000fd5b505050506040513d601f19601f82011682018060405250810190611c849190614d7c565b604080518481526020810184905290810182905260608101889052929550909350915032906000907fc864333d6121033635ab41b29ae52f10a22cf4438c3e4f1c4c68518feb2f8a989060800160405180910390a350505050565b6001600160a01b031660009081526020819052604090205490565b6005546001600160a01b03163314611d245760405162461bcd60e51b81526004016111af90614c56565b6005546040516000916001600160a01b0316907f8be0079c531659141344cd1fd0a4f28419497f9722a3daafe3b4186f6b6457e0908390a3600580546001600160a01b0319169055565b6005546001600160a01b03163314611d985760405162461bcd60e51b81526004016111af90614c56565b600d5460405163031e79db60e41b81526001600160a01b038381166004830152909116906331e79db090602401611870565b6005546001600160a01b03163314611df45760405162461bcd60e51b81526004016111af90614c56565b600d5460405163031e79db60e41b81526001600160a01b038381166004830152909116906331e79db090602401600060405180830381600087803b158015611e3b57600080fd5b505af1158015611e4f573d6000803e3d6000fd5b505050506001600160a01b03811660009081526024602090815260408083208054600160ff19918216811790925560259093529220805490911690911790556119ab8161302c565b6005546001600160a01b03163314611ec15760405162461bcd60e51b81526004016111af90614c56565b6001600160a01b03919091166000908152602b60205260409020805460ff1916911515919091179055565b600d54604051638bc1d63960e01b815233600482015282151560248201526001600160a01b0390911690638bc1d63990604401611870565b6005546001600160a01b03163314611f4e5760405162461bcd60e51b81526004016111af90614c56565b62030d408110158015611f645750620f42408111155b611f6d57600080fd5b60235460405182907f40d7e40e79af4e8e5a9b3c57030d8ea93f13d669c06d448c4d631d4ae7d23db790600090a3602355565b6005546001600160a01b03163314611fca5760405162461bcd60e51b81526004016111af90614c56565b600a54600160b01b900460ff1615611fe157600080fd5b600a805460ff60b01b1916600160b01b179055436030556040517f799663458a5ef2936f7fa0c99b3336c69c25890f82974f04e811e5bb359186c790600090a1565b60606004805461126590614cc0565b6005546001600160a01b0316331461205c5760405162461bcd60e51b81526004016111af90614c56565b612066828261448e565b5050565b6005546001600160a01b031633146120945760405162461bcd60e51b81526004016111af90614c56565b600d54604051634e19b97560e11b815282151560048201526001600160a01b0390911690639c3372ea90602401611870565b6005546001600160a01b031633146120f05760405162461bcd60e51b81526004016111af90614c56565b801515600a60159054906101000a900460ff1615150361210f57600080fd5b600a8054821515600160a81b0260ff60a81b199091161790556040517f0d240c24014ec8c204fc1bdcc286f7d01fd2ab6a07c558a9b2d3f12904323a879061215c90831515815260200190565b60405180910390a150565b6005546001600160a01b031633146121915760405162461bcd60e51b81526004016111af90614c56565b600d54604051630928847160e01b81526001600160a01b03838116600483015290911690630928847190602401600060405180830381600087803b1580156121d857600080fd5b505af11580156121ec573d6000803e3d6000fd5b5050600d546001600160a01b0316915063e30443bc90508261220d81614557565b6040516001600160e01b031960e085901b1681526001600160a01b0390921660048301526024820152604401611870565b600061140e338461172885604051806060016040528060258152602001614fb5602591393360009081526001602090815260408083206001600160a01b038d1684529091529020549190614454565b600a54600160a81b900460ff166122df5760405162461bcd60e51b815260206004820152601660248201527514dd185ada5b99c81a5cc81b9bdd08195b98589b195960521b60448201526064016111af565b6000818152602a6020526040812054900361233c5760405162461bcd60e51b815260206004820152601860248201527f496e76616c6964207374616b696e67206475726174696f6e000000000000000060448201526064016111af565b6123464282613253565b33600090815260296020526040902054106123af5760405162461bcd60e51b8152602060048201526024808201527f616c7265616479207374616b656420666f722061206c6f6e67657220647572616044820152633a34b7b760e11b60648201526084016111af565b6000818152602a60209081526040808320543384526028909252909120556123d74282613253565b33600081815260296020526040902091909155600d546001600160a01b03169063e30443bc9061240681614557565b6040516001600160e01b031960e085901b1681526001600160a01b0390921660048301526024820152604401600060405180830381600087803b15801561244c57600080fd5b505af1158015612460573d6000803e3d6000fd5b5050505061246b3390565b6001600160a01b03167f13dd201d7da4f9b31a9064a09abc1a6ce420dacd837a77abafaec5bd9d28d2c8826040516124a591815260200190565b60405180910390a250565b600d546040516302a2e74960e61b81526001600160a01b038381166004830152600092169063a8b9d24090602401611b5c565b600061140e3384846139c0565b600d5460405163fbcbc0f160e01b81526001600160a01b038381166004830152600092839283928392839283929091169063fbcbc0f1906024015b60c060405180830381865afa158015612548573d6000803e3d6000fd5b505050506040513d601f19601f8201168201806040525081019061256c9190614daa565b949c939b5091995097509550909350915050565b6005546001600160a01b031633146125aa5760405162461bcd60e51b81526004016111af90614c56565b8a6015819055508960168190555088601781905550876018819055508660198190555085601a8190555084601b8190555083601c8190555082601d8190555081601e8190555080601f8190555061262c601954612626601a5461262660185461262660175461262660165460155461325390919063ffffffff16565b90613253565b60208190555061265b601f54612626601d54612626601c54612626601b54601e5461325390919063ffffffff16565b602155602054600f108015906126745750600f60215411155b6126d15760405162461bcd60e51b815260206004820152602860248201527f746f74616c20666565732063616e6e6f7420657863656564203135252073656c6044820152676c206f722062757960c01b60648201526084016111af565b601554601654601754601854601954601a54601b54601c54601d54601e54601f54604080519b8c5260208c019a909a52988a01979097526060890195909552608088019390935260a087019190915260c086015260e08501526101008401526101208301526101408201527f7576b911716e37363e0165f9c21f096a918ed3938961ac915da65d85070a501390610160015b60405180910390a15050505050505050505050565b6005546001600160a01b031633146127a25760405162461bcd60e51b81526004016111af90614c56565b61012c8111156128035760405162461bcd60e51b815260206004820152602660248201527f636f6f6c646f776e2074696d65722063616e6e6f74206578636565642035206d604482015265696e7574657360d01b60648201526084016111af565b603155565b600d5460405163ba079d4960e01b81526001600160a01b038381166004830152600092169063ba079d4990602401611bcc565b6005546001600160a01b031633146128655760405162461bcd60e51b81526004016111af90614c56565b80518251146128ca5760405162461bcd60e51b815260206004820152602b60248201527f436f6e7472696275746f727320616e642062616c616e636573206d757374206260448201526a652073616d652073697a6560a81b60648201526084016111af565b60c88251111561292b5760405162461bcd60e51b815260206004820152602660248201527f436f6e7472696275746f72206c697374206c656e677468206d7573742062652060448201526503c3d203230360d41b60648201526084016111af565b6000805b82518160ff16101561297e5761296a838260ff168151811061295357612953614cfa565b60200260200101518361325390919063ffffffff16565b91508061297681614dfd565b91505061292f565b508061298933611cdf565b10156129ec5760405162461bcd60e51b815260206004820152602c60248201527f4163636f756e742062616c616e6365206d757374206265203e3d2073756d206f60448201526b033103130b630b731b2b997160a51b60648201526084016111af565b336000908152600160209081526040808320308452909152902054811115612a6e5760405162461bcd60e51b815260206004820152602f60248201527f436f6e747261637420616c6c6f77616e6365206d757374206265203e3d20737560448201526e0369037b3103130b630b731b2b9971608d1b60648201526084016111af565b60008060005b85518160ff161015612ce057858160ff1681518110612a9557612a95614cfa565b6020026020010151925060006001600160a01b0316836001600160a01b031614158015612acd575061dead6001600160a01b03841614155b612b195760405162461bcd60e51b815260206004820181905260248201527f43616e6e6f742061697264726f7020746f20612064656164206164647265737360448201526064016111af565b612b2283611cdf565b9150306001600160a01b03166323b872dd3385888560ff1681518110612b4a57612b4a614cfa565b60209081029190910101516040516001600160e01b031960e086901b1681526001600160a01b03938416600482015292909116602483015260448201526064016020604051808303816000875af1158015612ba9573d6000803e3d6000fd5b505050506040513d601f19601f82011682018060405250810190612bcd9190614d5f565b50848160ff1681518110612be357612be3614cfa565b602002602001015182612bf69190614e1c565b612bff84611cdf565b14612c655760405162461bcd60e51b815260206004820152603060248201527f436f6e7472696275746f72206d75737420726563696576652066756c6c20626160448201526f06c616e6365206f662061697264726f760841b60648201526084016111af565b7f8c32c568416fcf97be35ce5b27844cfddcd63a67a1a602c3595ba5dac38f303a83868360ff1681518110612c9c57612c9c614cfa565b6020026020010151604051612cc69291906001600160a01b03929092168252602082015260400190565b60405180910390a180612cd881614dfd565b915050612a74565b505050505050565b6005546001600160a01b03163314612d125760405162461bcd60e51b81526004016111af90614c56565b6001600160a01b038181166000818152602b602090815260408083208054600160ff19918216811790925560249384905293829020805490941617909255600d54915163031e79db60e41b815260048101939093529216916331e79db09101600060405180830381600087803b158015612d8b57600080fd5b505af1158015612d9f573d6000803e3d6000fd5b50506040516001600160a01b03841681527f85d097e432d8e396fa72c83ebd34196326e1cf1694ef910cd53554b2ee7597c59250602001905061215c565b6005546001600160a01b03163314612e075760405162461bcd60e51b81526004016111af90614c56565b60225481151560ff909116151503612e1e57600080fd5b6022805460ff19168215159081179091556040519081527fff5917043f8453af413305b2dbd1ed9748a37df481beb71ba4b9b212a07b9bef9060200161215c565b6005546001600160a01b03163314612e895760405162461bcd60e51b81526004016111af90614c56565b600d5460405163d8032ed360e01b81526001600160a01b0383811660048301529091169063d8032ed390602401600060405180830381600087803b158015612ed057600080fd5b505af1158015612ee4573d6000803e3d6000fd5b50506040516001600160a01b03841681527f7597aa09105646b4cc4486748aecd1d7c5dbcbb7bbe2863c3fc27e613b64432d9250602001905061215c565b6005546001600160a01b03163314612f4c5760405162461bcd60e51b81526004016111af90614c56565b6001600160a01b038216600081815260256020908152604091829020805460ff191685151590811790915591519182527fc5e00cfc9494c002f5a5ecb735339bf61c88d0e9340bbe76d10bb5f0e48e6f859101611366565b600d546040805163039e107b60e61b815290516000926001600160a01b03169163e7841ec09160048083019260209291908290030181865afa1580156117f4573d6000803e3d6000fd5b600d54604051635183d6fd60e01b815260048101839052600091829182918291829182916001600160a01b0390911690635183d6fd9060240161252b565b6005546001600160a01b031633146130565760405162461bcd60e51b81526004016111af90614c56565b6001600160a01b0381166130bb5760405162461bcd60e51b815260206004820152602660248201527f4f776e61626c653a206e6577206f776e657220697320746865207a65726f206160448201526564647265737360d01b60648201526084016111af565b6005546040516001600160a01b038084169216907f8be0079c531659141344cd1fd0a4f28419497f9722a3daafe3b4186f6b6457e090600090a3600580546001600160a01b0319166001600160a01b0392909216919091179055565b600d54604051632c8be28160e21b815233600482015282151560248201526001600160a01b039091169063b22f8a0490604401611870565b6005546001600160a01b031633146131795760405162461bcd60e51b81526004016111af90614c56565b6001600160a01b03166000908152602660205260409020805460ff19166001179055565b6005546001600160a01b031633146131c75760405162461bcd60e51b81526004016111af90614c56565b6131d981670de0b6b3a7640000614ca1565b90506107d06002546131eb9190614e34565b81101561324e5760405162461bcd60e51b815260206004820152602b60248201527f6d61782077616c6c65742063616e6e6f742062652073657420746f206c65737360448201526a207468616e20302e30352560a81b60648201526084016111af565b601255565b6000806132608385614e1c565b9050838110156132b25760405162461bcd60e51b815260206004820152601b60248201527f536166654d6174683a206164646974696f6e206f766572666c6f77000000000060448201526064016111af565b9392505050565b6000826000036132cb57506000611412565b60006132d78385614ca1565b9050826132e48583614e34565b146132b25760405162461bcd60e51b815260206004820152602160248201527f536166654d6174683a206d756c7469706c69636174696f6e206f766572666c6f6044820152607760f81b60648201526084016111af565b60006132b283836040518060400160405280601a81526020017f536166654d6174683a206469766973696f6e206279207a65726f0000000000008152506145b6565b806000036133885750565b613391816145e4565b60006133aa600b54600c5461325390919063ffffffff16565b905060008060006133ea601d54601c54601e546133c79190614e1c565b6133d19190614e1c565b61120286611202600c54476132b990919063ffffffff16565b91506134256018546017546015546134029190614e1c565b61340c9190614e1c565b61120286611202600b54476132b990919063ffffffff16565b90506134318282613253565b9250821561349057600d546040516000916001600160a01b03169085908381818185875af1925050503d8060008114613486576040519150601f19603f3d011682016040523d82523d6000602084013e61348b565b606091505b505050505b60006134af601d54612626601e54601c5461325390919063ffffffff16565b6134cc60185461262660155460175461325390919063ffffffff16565b6134d69190614e1c565b9050600081156134ed576134ea478361333b565b90505b600081613507601754601c5461325390919063ffffffff16565b6135119190614ca1565b905060008261352d601554601e5461325390919063ffffffff16565b6135379190614ca1565b9050600083613553601654601b5461325390919063ffffffff16565b61355d9190614ca1565b9050600084613579601854601d5461325390919063ffffffff16565b6135839190614ca1565b905083156135e257600e546040516000916001600160a01b03169086908381818185875af1925050503d80600081146135d8576040519150601f19603f3d011682016040523d82523d6000602084013e6135dd565b606091505b505050505b821561363f57600f546040516000916001600160a01b03169085908381818185875af1925050503d8060008114613635576040519150601f19603f3d011682016040523d82523d6000602084013e61363a565b606091505b505050505b811561369c576010546040516000916001600160a01b03169084908381818185875af1925050503d8060008114613692576040519150601f19603f3d011682016040523d82523d6000602084013e613697565b606091505b505050505b80156136f9576011546040516000916001600160a01b03169083908381818185875af1925050503d80600081146136ef576040519150601f19603f3d011682016040523d82523d6000602084013e6136f4565b606091505b505050505b7f80195cc573b02cc48460cbca6e6e4cc85ddb91959d946e1c3025ea3d87942dc38982846137278789614e1c565b6137319190614e1c565b61373b9190614e1c565b60408051928352602083019190915201612763565b60006132b283836040518060400160405280601e81526020017f536166654d6174683a207375627472616374696f6e206f766572666c6f770000815250614454565b6001600160a01b0383166137f45760405162461bcd60e51b8152602060048201526024808201527f45524332303a20617070726f76652066726f6d20746865207a65726f206164646044820152637265737360e01b60648201526084016111af565b6001600160a01b0382166138555760405162461bcd60e51b815260206004820152602260248201527f45524332303a20617070726f766520746f20746865207a65726f206164647265604482015261737360f01b60648201526084016111af565b6001600160a01b0383811660008181526001602090815260408083209487168084529482529182902085905590518481527f8c5be1e5ebec7d5bd14f71427d1e84f3dd0314c0f7b2291e5b200ac8c7c3b92591015b60405180910390a3505050565b6001600160a01b0383166138dd5760405162461bcd60e51b81526004016111af90614e56565b6001600160a01b0382166139035760405162461bcd60e51b81526004016111af90614e9b565b61394081604051806060016040528060268152602001614f67602691396001600160a01b0386166000908152602081905260409020549190614454565b6001600160a01b03808516600090815260208190526040808220939093559084168152205461396f9082613253565b6001600160a01b038381166000818152602081815260409182902094909455518481529092918616917fddf252ad1be2c89b69c2b068fc378daa952ba7f163c4a11628f55a4df523b3ef91016138aa565b6001600160a01b03831660009081526026602052604090205460ff1615613a215760405162461bcd60e51b815260206004820152601560248201527414d95b99195c881a5cc8189b1858dadb1a5cdd1959605a1b60448201526064016111af565b6001600160a01b03821660009081526026602052604090205460ff1615613a8a5760405162461bcd60e51b815260206004820152601860248201527f526563697069656e7420697320626c61636b6c6973746564000000000000000060448201526064016111af565b6001600160a01b038316613ab05760405162461bcd60e51b81526004016111af90614e56565b6001600160a01b038216613ad65760405162461bcd60e51b81526004016111af90614e9b565b6001600160a01b0383166000908152602b60205260408120548190819081908190819060ff16613b5957600a54600160b01b900460ff16613b595760405162461bcd60e51b815260206004820181905260248201527f54726164696e6720686173206e6f7420796574206265656e20656e61626c656460448201526064016111af565b86600003613b7857613b6d898960006138b7565b505050505050505050565b600a54600160a01b900460ff16158015613bab57506001600160a01b03891660009081526024602052604090205460ff16155b8015613bd057506001600160a01b03881660009081526024602052604090205460ff16155b1561434a576001600160a01b0380891660009081526027602052604080822054928c16825290205460ff918216911680158015613c0b575081155b15613d1c57613c1b8b8b8b6138b7565b600d546001600160a01b031663e30443bc8c613c3681614557565b6040516001600160e01b031960e085901b1681526001600160a01b0390921660048301526024820152604401600060405180830381600087803b158015613c7c57600080fd5b505af1158015613c90573d6000803e3d6000fd5b5050600d546001600160a01b0316915063e30443bc90508b613cb181614557565b6040516001600160e01b031960e085901b1681526001600160a01b0390921660048301526024820152604401600060405180830381600087803b158015613cf757600080fd5b505af1158015613d0b573d6000803e3d6000fd5b505050505050505050505050505050565b80158015613d335750600a54600160a81b900460ff165b15613dea576001600160a01b038b16600090815260296020526040902054421015613da05760405162461bcd60e51b815260206004820152601d60248201527f546f6b656e7320617265207374616b656420616e64206c6f636b65642100000060448201526064016111af565b6001600160a01b038b1660009081526029602052604090205415613de5576001600160a01b038b16600090815260296020908152604080832083905560289091528120555b614046565b8115613e9857601554601654601754601854601954601a54602c54959d50939b5091995097509550935060ff1615613de557603154326000908152602f6020526040902054613e399190614e1c565b421015613e815760405162461bcd60e51b8152602060048201526016602482015275636f6f6c646f776e20706572696f642061637469766560501b60448201526064016111af565b326000908152602f60205260409020429055614046565b801561404657601e54601b54601c54601d54601f54602c54949c50929a50909850965094506000935060ff1615613fd557603054613ed7906002614e1c565b4311613f1a5760405162461bcd60e51b8152602060048201526012602482015271796f75207368616c6c206e6f74207061737360701b60448201526064016111af565b602d543a1115613f6c5760405162461bcd60e51b815260206004820152601860248201527f4761732070726963652065786365656473206c696d69742e000000000000000060448201526064016111af565b326000908152602e6020526040902054439003613fc25760405162461bcd60e51b8152602060048201526014602482015273546f6f206d616e7920545820696e20626c6f636b60601b60448201526064016111af565b326000908152602e602052604090204390555b60125489613fe28c611cdf565b613fec9190614e1c565b11156140465760405162461bcd60e51b8152602060048201526024808201527f45786365656473206d6178696d756d2077616c6c657420746f6b656e20616d6f6044820152633ab73a1760e11b60648201526084016111af565b600061407d8486886140588b8d614e1c565b6140629190614e1c565b61406c9190614e1c565b6140769190614e1c565b8a90613253565b9050600061408a30611cdf565b905060145481101580156140b757506001600160a01b038d1660009081526027602052604090205460ff16155b156141ce57600a805460ff60a01b1916600160a01b17905560225460ff1680156140e15750600086115b80156140ed5750600082115b1561419f57600061410b600b54600c5461325390919063ffffffff16565b9050600061412882611202600c54866132b990919063ffffffff16565b9050600061414583611202600b54876132b990919063ffffffff16565b905060006141626021546112028c866132b990919063ffffffff16565b9050600061417f6020546112028d866132b990919063ffffffff16565b9050600061418d8284613253565b905061419881614736565b5050505050505b60006141aa30611cdf565b90506141b58161337d565b506000600c819055600b55600a805460ff60a01b191690555b60006141df60646112028e866132b9565b9050600086156142325760646141f58e896132b9565b6141ff9190614e34565b90506142218f600a60009054906101000a90046001600160a01b0316836138b7565b60025461422e9082613750565b6002555b61424661423f8284614e1c565b8e90613750565b9c50851561426357600b5461425b9083613253565b600b55614274565b600c546142709083613253565b600c555b61427f8f30846138b7565b602354600d546040516001624d3b8760e01b03198152600481018390526001600160a01b039091169063ffb2c479906024016060604051808303816000875af19250505080156142ec575060408051601f3d908101601f191682019092526142e991810190614d7c565b60015b156143425760408051848152602081018490529081018290526060810185905232906001907fc864333d6121033635ab41b29ae52f10a22cf4438c3e4f1c4c68518feb2f8a989060800160405180910390a35050505b505050505050505b6143558989896138b7565b600d546001600160a01b031663e30443bc8a61437081614557565b6040516001600160e01b031960e085901b1681526001600160a01b0390921660048301526024820152604401600060405180830381600087803b1580156143b657600080fd5b505af11580156143ca573d6000803e3d6000fd5b5050600d546001600160a01b0316915063e30443bc9050896143eb81614557565b6040516001600160e01b031960e085901b1681526001600160a01b0390921660048301526024820152604401600060405180830381600087803b15801561443157600080fd5b505af1158015614445573d6000803e3d6000fd5b50505050505050505050505050565b600081848411156144785760405162461bcd60e51b81526004016111af91906148a4565b5060006144858486614ede565b95945050505050565b6001600160a01b0382166000908152602760205260409020805460ff1916821580159190911790915561451b57600d5460405163031e79db60e41b81526001600160a01b038481166004830152909116906331e79db090602401600060405180830381600087803b15801561450257600080fd5b505af1158015614516573d6000803e3d6000fd5b505050505b604051811515906001600160a01b038416907fffa9187bf1f18bf477bd0ea1bcbb64e93b6a98132473929edfce215cd9b16fab90600090a35050565b600a54600090600160a81b900460ff166145795761457482611cdf565b611412565b6001600160a01b03821660009081526028602052604090205461141290606490611202906145a79083613253565b6145b086611cdf565b906132b9565b600081836145d75760405162461bcd60e51b81526004016111af91906148a4565b5060006144858486614e34565b604080516002808252606082018352600092602083019080368337019050509050308160008151811061461957614619614cfa565b6001600160a01b03928316602091820292909201810191909152600654604080516315ab88c960e31b81529051919093169263ad5c46489260048083019391928290030181865afa158015614672573d6000803e3d6000fd5b505050506040513d601f19601f820116820180604052508101906146969190614d29565b816001815181106146a9576146a9614cfa565b6001600160a01b0392831660209182029290920101526006546146cf9130911684613792565b60065460405163791ac94760e01b81526001600160a01b039091169063791ac94790614708908590600090869030904290600401614ef5565b600060405180830381600087803b15801561472257600080fd5b505af1158015612ce0573d6000803e3d6000fd5b600061474382600261333b565b905060006147518383613750565b90504761475d836145e4565b60006147694783613750565b905061477583826147bd565b60408051858152602081018390529081018490527f17bbfb9a6069321b6ded73bd96327c9e6b7212a5cd51ff219cd61370acafb5619060600160405180910390a15050505050565b6006546147d59030906001600160a01b031684613792565b6006546001600160a01b031663f305d7198230856000806147fe6005546001600160a01b031690565b60405160e088901b6001600160e01b03191681526001600160a01b03958616600482015260248101949094526044840192909252606483015290911660848201524260a482015260c40160606040518083038185885af1158015614866573d6000803e3d6000fd5b50505050506040513d601f19601f8201168201806040525081019061189e9190614d7c565b60006020828403121561489d57600080fd5b5035919050565b600060208083528351808285015260005b818110156148d1578581018301518582016040015282016148b5565b818111156148e3576000604083870101525b50601f01601f1916929092016040019392505050565b6001600160a01b03811681146119ab57600080fd5b80151581146119ab57600080fd5b6000806040838503121561492f57600080fd5b823561493a816148f9565b9150602083013561494a8161490e565b809150509250929050565b6000806040838503121561496857600080fd5b8235614973816148f9565b946020939093013593505050565b6000806040838503121561499457600080fd5b50508035926020909101359150565b634e487b7160e01b600052604160045260246000fd5b604051601f8201601f1916810167ffffffffffffffff811182821017156149e2576149e26149a3565b604052919050565b600067ffffffffffffffff821115614a0457614a046149a3565b5060051b60200190565b600082601f830112614a1f57600080fd5b81356020614a34614a2f836149ea565b6149b9565b82815260059290921b84018101918181019086841115614a5357600080fd5b8286015b84811015614a6e5780358352918301918301614a57565b509695505050505050565b60008060408385031215614a8c57600080fd5b823567ffffffffffffffff80821115614aa457600080fd5b818501915085601f830112614ab857600080fd5b81356020614ac8614a2f836149ea565b82815260059290921b84018101918181019089841115614ae757600080fd5b948201945b83861015614b0e578535614aff816148f9565b82529482019490820190614aec565b96505086013592505080821115614b2457600080fd5b50614b3185828601614a0e565b9150509250929050565b600080600060608486031215614b5057600080fd5b8335614b5b816148f9565b92506020840135614b6b816148f9565b929592945050506040919091013590565b600060208284031215614b8e57600080fd5b81356132b28161490e565b600060208284031215614bab57600080fd5b81356132b2816148f9565b60008060008060008060008060008060006101608c8e031215614bd857600080fd5b505089359b60208b01359b5060408b01359a60608101359a506080810135995060a0810135985060c0810135975060e0810135965061010081013595506101208101359450610140013592509050565b60008060408385031215614c3b57600080fd5b8235614c46816148f9565b9150602083013561494a816148f9565b6020808252818101527f4f776e61626c653a2063616c6c6572206973206e6f7420746865206f776e6572604082015260600190565b634e487b7160e01b600052601160045260246000fd5b6000816000190483118215151615614cbb57614cbb614c8b565b500290565b600181811c90821680614cd457607f821691505b602082108103614cf457634e487b7160e01b600052602260045260246000fd5b50919050565b634e487b7160e01b600052603260045260246000fd5b600060018201614d2257614d22614c8b565b5060010190565b600060208284031215614d3b57600080fd5b81516132b2816148f9565b600060208284031215614d5857600080fd5b5051919050565b600060208284031215614d7157600080fd5b81516132b28161490e565b600080600060608486031215614d9157600080fd5b8351925060208401519150604084015190509250925092565b60008060008060008060c08789031215614dc357600080fd5b8651614dce816148f9565b6020880151604089015160608a015160808b015160a0909b0151939c929b509099909850965090945092505050565b600060ff821660ff8103614e1357614e13614c8b565b60010192915050565b60008219821115614e2f57614e2f614c8b565b500190565b600082614e5157634e487b7160e01b600052601260045260246000fd5b500490565b60208082526025908201527f45524332303a207472616e736665722066726f6d20746865207a65726f206164604082015264647265737360d81b606082015260800190565b60208082526023908201527f45524332303a207472616e7366657220746f20746865207a65726f206164647260408201526265737360e81b606082015260800190565b600082821015614ef057614ef0614c8b565b500390565b600060a082018783526020878185015260a0604085015281875180845260c086019150828901935060005b81811015614f455784516001600160a01b031683529383019391830191600101614f20565b50506001600160a01b0396909616606085015250505060800152939250505056fe45524332303a207472616e7366657220616d6f756e7420657863656564732062616c616e636545524332303a207472616e7366657220616d6f756e74206578636565647320616c6c6f77616e636545524332303a2064656372656173656420616c6c6f77616e63652062656c6f77207a65726fa26469706673582212208add4a50a43e3951e634e9be0f16f0ba8978fbce79e3cef02d0ae2619848535164736f6c634300080f003360806040526012805460ff60b01b191690553480156200001e57600080fd5b50604051620030e7380380620030e7833981016040819052620000419162000241565b8181818160036200005383826200037b565b5060046200006282826200037b565b50505050506000620000796200015760201b60201c565b600980546001600160a01b0319166001600160a01b038316908117909155604051919250906000907f8be0079c531659141344cd1fd0a4f28419497f9722a3daafe3b4186f6b6457e0908290a3506013620000d583826200037b565b506014620000e482826200037b565b505060128054601680546001600160a01b03199081166001600160a01b039889161790915568056bc75e2d6310000060188190556019556015805490911695871695909517909455600160a01b929094166001600160a81b0319909316929092171760ff60a81b19169091555062000447565b3390565b6001600160a01b03811681146200017157600080fd5b50565b634e487b7160e01b600052604160045260246000fd5b600082601f8301126200019c57600080fd5b81516001600160401b0380821115620001b957620001b962000174565b604051601f8301601f19908116603f01168101908282118183101715620001e457620001e462000174565b816040528381526020925086838588010111156200020157600080fd5b600091505b8382101562000225578582018301518183018401529082019062000206565b83821115620002375760008385830101525b9695505050505050565b600080600080600060a086880312156200025a57600080fd5b855162000267816200015b565b60208701519095506200027a816200015b565b60408701519094506200028d816200015b565b60608701519093506001600160401b0380821115620002ab57600080fd5b620002b989838a016200018a565b93506080880151915080821115620002d057600080fd5b50620002df888289016200018a565b9150509295509295909350565b600181811c908216806200030157607f821691505b6020821081036200032257634e487b7160e01b600052602260045260246000fd5b50919050565b601f8211156200037657600081815260208120601f850160051c81016020861015620003515750805b601f850160051c820191505b8181101562000372578281556001016200035d565b5050505b505050565b81516001600160401b0381111562000397576200039762000174565b620003af81620003a88454620002ec565b8462000328565b602080601f831160018114620003e75760008415620003ce5750858301515b600019600386901b1c1916600185901b17855562000372565b600085815260208120601f198616915b828110156200041857888601518255948401946001909101908401620003f7565b5085821015620004375787850151600019600388901b60f8161c191681555b5050505050600190811b01905550565b612c9080620004576000396000f3fe60806040526004361061031e5760003560e01c80636d48467b116101ab578063a8b9d240116100f7578063dd62ed3e11610095578063eb83ac791161006f578063eb83ac79146109e2578063f2fde38b14610a02578063fbcbc0f114610a22578063ffb2c47914610a4257600080fd5b8063dd62ed3e14610967578063e30443bc146109ad578063e7841ec0146109cd57600080fd5b8063b22f8a04116100d1578063b22f8a04146108e7578063ba079d4914610907578063bc4c4b3714610927578063d8032ed31461094757600080fd5b8063a8b9d24014610871578063a9059cbb14610891578063aafd847a146108b157600080fd5b80638da5cb5b116101645780639c3372ea1161013e5780639c3372ea146107ef5780639eec101e1461080f578063a423406914610830578063a457c2d71461085157600080fd5b80638da5cb5b1461079c57806391b89fba146107ba57806395d89b41146107da57600080fd5b80636d48467b146106db57806370a08231146106fb578063715018a61461073157806374c13fda1461074657806385a6b3ae146107665780638bc1d6391461077c57600080fd5b8063313ce5671161026a5780634e7b827f116102235780635ebf4db9116101fd5780635ebf4db91461065657806365b8dbc0146106765780636a474002146106965780636b69163b146106ab57600080fd5b80634e7b827f146105af5780635183d6fd146105df5780635a84c5eb1461063657600080fd5b8063313ce567146104f257806331e79db01461050e5780633599bb171461052e578063395093511461054e57806340ffdd801461056e578063418089041461058e57600080fd5b806318160ddd116102d757806323b872dd116102b157806323b872dd1461047e57806325cd35981461049e57806327ce0147146104bc5780633009a609146104dc57600080fd5b806318160ddd1461040c5780631d4ff89a14610421578063226cfa3d1461045157600080fd5b806303c833021461033257806306fdde031461033a5780630928847114610365578063095ea7b31461038557806309bbedde146103b55780631694505e146103d457600080fd5b3661032d5761032b610a7d565b005b600080fd5b61032b610a7d565b34801561034657600080fd5b5061034f610b10565b60405161035c91906127c3565b60405180910390f35b34801561037157600080fd5b5061032b610380366004612830565b610ba2565b34801561039157600080fd5b506103a56103a036600461284d565b610bf6565b604051901515815260200161035c565b3480156103c157600080fd5b50600a545b60405190815260200161035c565b3480156103e057600080fd5b506015546103f4906001600160a01b031681565b6040516001600160a01b03909116815260200161035c565b34801561041857600080fd5b506002546103c6565b34801561042d57600080fd5b506103a561043c366004612830565b60116020526000908152604090205460ff1681565b34801561045d57600080fd5b506103c661046c366004612830565b60176020526000908152604090205481565b34801561048a57600080fd5b506103a5610499366004612879565b610c0d565b3480156104aa57600080fd5b506012546001600160a01b03166103f4565b3480156104c857600080fd5b506103c66104d7366004612830565b610c76565b3480156104e857600080fd5b506103c6600e5481565b3480156104fe57600080fd5b506040516012815260200161035c565b34801561051a57600080fd5b5061032b610529366004612830565b610cd2565b34801561053a57600080fd5b5061032b6105493660046128c8565b610d6c565b34801561055a57600080fd5b506103a561056936600461284d565b610e0d565b34801561057a57600080fd5b5061032b6105893660046128c8565b610e43565b34801561059a57600080fd5b506012546103a590600160a81b900460ff1681565b3480156105bb57600080fd5b506103a56105ca366004612830565b600f6020526000908152604090205460ff1681565b3480156105eb57600080fd5b506105ff6105fa3660046128e5565b610ed9565b604080516001600160a01b0390971687526020870195909552938501929092526060840152608083015260a082015260c00161035c565b34801561064257600080fd5b5061032b6106513660046128e5565b610f39565b34801561066257600080fd5b5061032b6106713660046128e5565b610f7b565b34801561068257600080fd5b5061032b610691366004612830565b610fbd565b3480156106a257600080fd5b5061032b611009565b3480156106b757600080fd5b506103a56106c6366004612830565b60106020526000908152604090205460ff1681565b3480156106e757600080fd5b506103a56106f6366004612830565b6110af565b34801561070757600080fd5b506103c6610716366004612830565b6001600160a01b031660009081526020819052604090205490565b34801561073d57600080fd5b5061032b6110fb565b34801561075257600080fd5b506012546103f4906001600160a01b031681565b34801561077257600080fd5b506103c660085481565b34801561078857600080fd5b5061032b6107973660046128fe565b61116f565b3480156107a857600080fd5b506009546001600160a01b03166103f4565b3480156107c657600080fd5b506103c66107d5366004612830565b6111c4565b3480156107e657600080fd5b5061034f6111cf565b3480156107fb57600080fd5b5061032b61080a3660046128c8565b6111de565b34801561081b57600080fd5b506012546103a590600160a01b900460ff1681565b34801561083c57600080fd5b506012546103a590600160b01b900460ff1681565b34801561085d57600080fd5b506103a561086c36600461284d565b611274565b34801561087d57600080fd5b506103c661088c366004612830565b6112c3565b34801561089d57600080fd5b506103a56108ac36600461284d565b6112ef565b3480156108bd57600080fd5b506103c66108cc366004612830565b6001600160a01b031660009081526007602052604090205490565b3480156108f357600080fd5b5061032b6109023660046128fe565b6112fc565b34801561091357600080fd5b506103a5610922366004612830565b611351565b34801561093357600080fd5b506103a56109423660046128fe565b61139d565b34801561095357600080fd5b5061032b610962366004612830565b61151e565b34801561097357600080fd5b506103c6610982366004612937565b6001600160a01b03918216600090815260016020908152604080832093909416825291909152205490565b3480156109b957600080fd5b5061032b6109c836600461284d565b61156a565b3480156109d957600080fd5b50600e546103c6565b3480156109ee57600080fd5b506016546103f4906001600160a01b031681565b348015610a0e57600080fd5b5061032b610a1d366004612830565b611602565b348015610a2e57600080fd5b506105ff610a3d366004612830565b6116ed565b348015610a4e57600080fd5b50610a62610a5d3660046128e5565b61179c565b6040805193845260208401929092529082015260600161035c565b6000610a8860025490565b11610a9257600080fd5b3415610b0e57610ac5610aa460025490565b610ab234600160801b6118c2565b610abc919061297b565b6005549061194b565b60055560405134815233907fa493a9229478c3fcd73f66d2cdeb7f94fd0f341da924d1054236d784541165119060200160405180910390a2600854610b0a903461194b565b6008555b565b606060138054610b1f9061299d565b80601f0160208091040260200160405190810160405280929190818152602001828054610b4b9061299d565b8015610b985780601f10610b6d57610100808354040283529160200191610b98565b820191906000526020600020905b815481529060010190602001808311610b7b57829003601f168201915b5050505050905090565b6009546001600160a01b03163314610bd55760405162461bcd60e51b8152600401610bcc906129d7565b60405180910390fd5b6001600160a01b03166000908152600f60205260409020805460ff19169055565b6000610c033384846119aa565b5060015b92915050565b6000610c1a848484611ace565b610c6c8433610c6785604051806060016040528060288152602001612c0e602891396001600160a01b038a1660009081526001602090815260408083203384529091529020549190611b31565b6119aa565b5060019392505050565b6001600160a01b03811660009081526006602090815260408083205491839052822054600554600160801b92610cc892610cc392610cbd91610cb891906118c2565b611b6b565b90611b7b565b611bb9565b610c07919061297b565b6009546001600160a01b03163314610cfc5760405162461bcd60e51b8152600401610bcc906129d7565b6001600160a01b0381166000908152600f60205260408120805460ff19166001179055610d2a908290611bcc565b610d35600a82611c2b565b6040516001600160a01b038216907fa878b31040b2e6d0a9a3d3361209db3908ba62014b0dca52adbaee451d128b2590600090a250565b6009546001600160a01b03163314610d965760405162461bcd60e51b8152600401610bcc906129d7565b801515601260169054906101000a900460ff16151503610db557600080fd5b60128054821515600160b01b0260ff60b01b199091161790556040517f3da2593f2c4724acfbd754045321e852cad26f3974834b1890045530f89c21b390610e0290831515815260200190565b60405180910390a150565b3360008181526001602090815260408083206001600160a01b03871684529091528120549091610c03918590610c67908661194b565b6009546001600160a01b03163314610e6d5760405162461bcd60e51b8152600401610bcc906129d7565b801515601260159054906101000a900460ff16151503610e8c57600080fd5b60128054821515600160a81b0260ff60a81b199091161790556040517fc138a28750b971696f46ea59731c471ef1e08e4015404afdb139fd2e87dca1bb90610e0290831515815260200190565b600080600080600080610eeb600a5490565b8710610f0a575060009450600019935083925084915081905080610f30565b6000610f17600a89611d66565b9050610f22816116ed565b965096509650965096509650505b91939550919395565b6009546001600160a01b03163314610f635760405162461bcd60e51b8152600401610bcc906129d7565b610f7581670de0b6b3a7640000612a0c565b60185550565b6009546001600160a01b03163314610fa55760405162461bcd60e51b8152600401610bcc906129d7565b610fb781670de0b6b3a7640000612a0c565b60195550565b6009546001600160a01b03163314610fe75760405162461bcd60e51b8152600401610bcc906129d7565b601580546001600160a01b0319166001600160a01b0392909216919091179055565b60405162461bcd60e51b815260206004820152606960248201527f436861696e445f4469766964656e645f547261636b65723a207769746864726160448201527f774469766964656e642064697361626c65642e20557365207468652027636c6160648201527f696d272066756e6374696f6e206f6e20746865206d61696e20436861696e442060848201526831b7b73a3930b1ba1760b91b60a482015260c401610bcc565b6009546000906001600160a01b031633146110dc5760405162461bcd60e51b8152600401610bcc906129d7565b506001600160a01b031660009081526010602052604090205460ff1690565b6009546001600160a01b031633146111255760405162461bcd60e51b8152600401610bcc906129d7565b6009546040516000916001600160a01b0316907f8be0079c531659141344cd1fd0a4f28419497f9722a3daafe3b4186f6b6457e0908390a3600980546001600160a01b0319169055565b6009546001600160a01b031633146111995760405162461bcd60e51b8152600401610bcc906129d7565b6001600160a01b03919091166000908152601060205260409020805460ff1916911515919091179055565b6000610c07826112c3565b606060148054610b1f9061299d565b6009546001600160a01b031633146112085760405162461bcd60e51b8152600401610bcc906129d7565b801515601260149054906101000a900460ff1615150361122757600080fd5b60128054821515600160a01b0260ff60a01b199091161790556040517f8d34c313963017194ed726d050e868657d0e2d2c6748d13e358cd4b89d4ee7c890610e0290831515815260200190565b6000610c033384610c6785604051806060016040528060258152602001612c36602591393360009081526001602090815260408083206001600160a01b038d1684529091529020549190611b31565b6001600160a01b038116600090815260076020526040812054610c07906112e984610c76565b90611d99565b6000610c03338484611ace565b6009546001600160a01b031633146113265760405162461bcd60e51b8152600401610bcc906129d7565b6001600160a01b03919091166000908152601160205260409020805460ff1916911515919091179055565b6009546000906001600160a01b0316331461137e5760405162461bcd60e51b8152600401610bcc906129d7565b506001600160a01b031660009081526011602052604090205460ff1690565b6009546000906001600160a01b031633146113ca5760405162461bcd60e51b8152600401610bcc906129d7565b601254600160b01b900460ff16156113e457506000610c07565b6001600160a01b03831660009081526011602052604090205460ff1682801561140a5750805b80156114205750601254600160a81b900460ff16155b1561142f576000915050610c07565b6000816114445761143f85611ddb565b61144d565b61144d85612094565b90508015611513576001600160a01b038516600090815260176020526040902042905581156114c157831515856001600160a01b03167ffbd928dd3806a2bdf802f3a28a2cc55205f95dbcd2c3ed313abfca278366f80c836040516114b491815260200190565b60405180910390a3611508565b831515856001600160a01b03167fa2c38e2d2fb7e3e1912d937fd1ca11ed6d51864dee4cfa7a7bf02becd7acf092836040516114ff91815260200190565b60405180910390a35b600192505050610c07565b506000949350505050565b6009546001600160a01b031633146115485760405162461bcd60e51b8152600401610bcc906129d7565b601280546001600160a01b0319166001600160a01b0392909216919091179055565b6009546001600160a01b031633146115945760405162461bcd60e51b8152600401610bcc906129d7565b6001600160a01b0382166000908152600f602052604090205460ff166115d4576019548110156115d8576115c9600a83611c2b565b6115d4826000611bcc565b5050565b6115e28282611bcc565b60185481106115f7576115d4600a8383612407565b6115d4600a83611c2b565b6009546001600160a01b0316331461162c5760405162461bcd60e51b8152600401610bcc906129d7565b6001600160a01b0381166116915760405162461bcd60e51b815260206004820152602660248201527f4f776e61626c653a206e6577206f776e657220697320746865207a65726f206160448201526564647265737360d01b6064820152608401610bcc565b6009546040516001600160a01b038084169216907f8be0079c531659141344cd1fd0a4f28419497f9722a3daafe3b4186f6b6457e090600090a3600980546001600160a01b0319166001600160a01b0392909216919091179055565b806000808080806116ff600a876124b0565b945060001993506000851261176157600e5485111561172d57600e546117269086906124fb565b9350611761565b600e54600a5460009110611742576000611751565b600e54600a5461175191611d99565b905061175d8682611b7b565b9450505b61176a866112c3565b925061177586610c76565b6001600160a01b038716600090815260176020526040902054969895975093959294915050565b600a54600090819081908015806117bc5750601254600160b01b900460ff165b156117d2575050600e54600092508291506118bb565b600e546000805a90506000805b89841080156117ed57508582105b156118aa57846117fc81612a2b565b95505085851061180b57600094505b6000600a600001868154811061182357611823612a44565b60009182526020808320909101546001600160a01b0316808352601090915260409091205490915060ff166118705761185d81600161139d565b15611870578161186c81612a2b565b9250505b8261187a81612a2b565b93505060005a9050808511156118a15761189e6118978683611d99565b879061194b565b95505b93506117df9050565b600e85905590975095509193505050505b9193909250565b6000826000036118d457506000610c07565b60006118e08385612a0c565b9050826118ed858361297b565b146119445760405162461bcd60e51b815260206004820152602160248201527f536166654d6174683a206d756c7469706c69636174696f6e206f766572666c6f6044820152607760f81b6064820152608401610bcc565b9392505050565b6000806119588385612a5a565b9050838110156119445760405162461bcd60e51b815260206004820152601b60248201527f536166654d6174683a206164646974696f6e206f766572666c6f7700000000006044820152606401610bcc565b6001600160a01b038316611a0c5760405162461bcd60e51b8152602060048201526024808201527f45524332303a20617070726f76652066726f6d20746865207a65726f206164646044820152637265737360e01b6064820152608401610bcc565b6001600160a01b038216611a6d5760405162461bcd60e51b815260206004820152602260248201527f45524332303a20617070726f766520746f20746865207a65726f206164647265604482015261737360f01b6064820152608401610bcc565b6001600160a01b0383811660008181526001602090815260408083209487168084529482529182902085905590518481527f8c5be1e5ebec7d5bd14f71427d1e84f3dd0314c0f7b2291e5b200ac8c7c3b925910160405180910390a3505050565b60405162461bcd60e51b815260206004820152602d60248201527f436861696e445f4469766964656e645f547261636b65723a204e6f207472616e60448201526c1cd9995c9cc8185b1b1bddd959609a1b6064820152608401610bcc565b505050565b60008184841115611b555760405162461bcd60e51b8152600401610bcc91906127c3565b506000611b628486612a72565b95945050505050565b60008181811215610c0757600080fd5b600080611b888385612a89565b905060008312158015611b9b5750838112155b80611bb05750600083128015611bb057508381125b61194457600080fd5b600080821215611bc857600080fd5b5090565b6001600160a01b03821660009081526020819052604090205480821115611c0b576000611bf98383611d99565b9050611c058482612538565b50505050565b80821015611b2c576000611c1f8284611d99565b9050611c05848261259c565b6001600160a01b038116600090815260038301602052604090205460ff16611c51575050565b6001600160a01b03811660009081526003830160209081526040808320805460ff1916905560018086018352818420849055600286019092528220548454909291611c9b91612a72565b90506000846000018281548110611cb457611cb4612a44565b60009182526020808320909101546001600160a01b03908116808452600289019092526040808420879055908716835282209190915585549091508190869085908110611d0357611d03612a44565b600091825260209091200180546001600160a01b0319166001600160a01b03929092169190911790558454859080611d3d57611d3d612aca565b600082815260209020810160001990810180546001600160a01b03191690550190555050505050565b6000826000018281548110611d7d57611d7d612a44565b6000918252602090912001546001600160a01b03169392505050565b600061194483836040518060400160405280601e81526020017f536166654d6174683a207375627472616374696f6e206f766572666c6f770000815250611b31565b600080611de7836112c3565b9050801561208b576001600160a01b038316600090815260076020526040902054611e12908261194b565b6001600160a01b03808516600090815260076020526040812092909255601254169081611e97576040516001600160a01b03861690610bb89085906000818181858888f193505050503d8060008114611e87576040519150601f19603f3d011682016040523d82523d6000602084013e611e8c565b606091505b505080915050611ff1565b6040805160028082526060820183526000926020830190803683375050601554604080516315ab88c960e31b815290519394506001600160a01b039091169263ad5c4648925060048083019260209291908290030181865afa158015611f01573d6000803e3d6000fd5b505050506040513d601f19601f82011682018060405250810190611f259190612ae0565b81600081518110611f3857611f38612a44565b60200260200101906001600160a01b031690816001600160a01b0316815250508281600181518110611f6c57611f6c612a44565b6001600160a01b03928316602091820292909201015260155460405163b6f9de9560e01b815291169063b6f9de95908690611fb29060009086908c904290600401612b41565b6000604051808303818588803b158015611fcb57600080fd5b505af193505050508015611fdd575060015b611fea5760009150611fef565b600191505b505b8061203f576001600160a01b0385166000908152600760205260409020546120199084611d99565b6001600160a01b0390951660009081526007602052604081209590955550929392505050565b846001600160a01b03167fee503bee2bb6a87e57bc57db795f98137327401a0e7b7ce42e37926cc1a9ca4d8460405161207a91815260200190565b60405180910390a250909392505050565b50600092915050565b6000806120a0836112c3565b9050801561208b576001600160a01b0383166000908152600760205260408120546120cb908361194b565b6001600160a01b03851660009081526007602052604080822092909255815160028082526060820190935290918160200160208202803683375050601554604080516315ab88c960e31b815290519394506001600160a01b039091169263ad5c4648925060048083019260209291908290030181865afa158015612153573d6000803e3d6000fd5b505050506040513d601f19601f820116820180604052508101906121779190612ae0565b8160008151811061218a5761218a612a44565b6001600160a01b0392831660209182029290920101526016548251911690829060019081106121bb576121bb612a44565b6001600160a01b0392831660209182029290920101526016546040516370a0823160e01b815230600482015260009291909116906370a0823190602401602060405180830381865afa158015612215573d6000803e3d6000fd5b505050506040513d601f19601f820116820180604052508101906122399190612b76565b60155460405163b6f9de9560e01b81529192506001600160a01b03169063b6f9de9590869061227390600090879030904290600401612b41565b6000604051808303818588803b15801561228c57600080fd5b505af19350505050801561229e575060015b6122ab57600092506123ae565b6016546040516370a0823160e01b815230600482015260009161231e9184916001600160a01b0316906370a0823190602401602060405180830381865afa1580156122fa573d6000803e3d6000fd5b505050506040513d601f19601f820116820180604052508101906112e99190612b76565b905080156123a75760165460405163a9059cbb60e01b81526001600160a01b03898116600483015260248201849052600196509091169063a9059cbb906044016020604051808303816000875af115801561237d573d6000803e3d6000fd5b505050506040513d601f19601f820116820180604052508101906123a19190612b8f565b506123ac565b600093505b505b826123fd576001600160a01b0386166000908152600760205260409020546123d69085611d99565b6001600160a01b039096166000908152600760205260408120969096555093949350505050565b5091949350505050565b6001600160a01b038216600090815260038401602052604090205460ff161561244c576001600160a01b03821660009081526001840160205260409020819055505050565b6001600160a01b03821660008181526003850160209081526040808320805460ff19166001908117909155878101835281842086905587546002890184529184208290558101875586835291200180546001600160a01b0319169091179055505050565b6001600160a01b038116600090815260038301602052604081205460ff166124db5750600019610c07565b506001600160a01b03166000908152600291909101602052604090205490565b6000806125088385612bac565b90506000831215801561251b5750838113155b80611bb05750600083128015611bb0575083811361194457600080fd5b61254282826125e0565b61257c61255d610cb8836005546118c290919063ffffffff16565b6001600160a01b038416600090815260066020526040902054906124fb565b6001600160a01b0390921660009081526006602052604090209190915550565b6125a682826126bf565b61257c6125c1610cb8836005546118c290919063ffffffff16565b6001600160a01b03841660009081526006602052604090205490611b7b565b6001600160a01b0382166126365760405162461bcd60e51b815260206004820152601f60248201527f45524332303a206d696e7420746f20746865207a65726f2061646472657373006044820152606401610bcc565b600254612643908261194b565b6002556001600160a01b038216600090815260208190526040902054612669908261194b565b6001600160a01b038316600081815260208181526040808320949094559251848152919290917fddf252ad1be2c89b69c2b068fc378daa952ba7f163c4a11628f55a4df523b3ef91015b60405180910390a35050565b6001600160a01b03821661271f5760405162461bcd60e51b815260206004820152602160248201527f45524332303a206275726e2066726f6d20746865207a65726f206164647265736044820152607360f81b6064820152608401610bcc565b61275c81604051806060016040528060228152602001612bec602291396001600160a01b0385166000908152602081905260409020549190611b31565b6001600160a01b0383166000908152602081905260409020556002546127829082611d99565b6002556040518181526000906001600160a01b038416907fddf252ad1be2c89b69c2b068fc378daa952ba7f163c4a11628f55a4df523b3ef906020016126b3565b600060208083528351808285015260005b818110156127f0578581018301518582016040015282016127d4565b81811115612802576000604083870101525b50601f01601f1916929092016040019392505050565b6001600160a01b038116811461282d57600080fd5b50565b60006020828403121561284257600080fd5b813561194481612818565b6000806040838503121561286057600080fd5b823561286b81612818565b946020939093013593505050565b60008060006060848603121561288e57600080fd5b833561289981612818565b925060208401356128a981612818565b929592945050506040919091013590565b801515811461282d57600080fd5b6000602082840312156128da57600080fd5b8135611944816128ba565b6000602082840312156128f757600080fd5b5035919050565b6000806040838503121561291157600080fd5b823561291c81612818565b9150602083013561292c816128ba565b809150509250929050565b6000806040838503121561294a57600080fd5b823561295581612818565b9150602083013561292c81612818565b634e487b7160e01b600052601160045260246000fd5b60008261299857634e487b7160e01b600052601260045260246000fd5b500490565b600181811c908216806129b157607f821691505b6020821081036129d157634e487b7160e01b600052602260045260246000fd5b50919050565b6020808252818101527f4f776e61626c653a2063616c6c6572206973206e6f7420746865206f776e6572604082015260600190565b6000816000190483118215151615612a2657612a26612965565b500290565b600060018201612a3d57612a3d612965565b5060010190565b634e487b7160e01b600052603260045260246000fd5b60008219821115612a6d57612a6d612965565b500190565b600082821015612a8457612a84612965565b500390565b600080821280156001600160ff1b0384900385131615612aab57612aab612965565b600160ff1b8390038412811615612ac457612ac4612965565b50500190565b634e487b7160e01b600052603160045260246000fd5b600060208284031215612af257600080fd5b815161194481612818565b600081518084526020808501945080840160005b83811015612b365781516001600160a01b031687529582019590820190600101612b11565b509495945050505050565b848152608060208201526000612b5a6080830186612afd565b6001600160a01b03949094166040830152506060015292915050565b600060208284031215612b8857600080fd5b5051919050565b600060208284031215612ba157600080fd5b8151611944816128ba565b60008083128015600160ff1b850184121615612bca57612bca612965565b6001600160ff1b0384018313811615612be557612be5612965565b5050039056fe45524332303a206275726e20616d6f756e7420657863656564732062616c616e636545524332303a207472616e7366657220616d6f756e74206578636565647320616c6c6f77616e636545524332303a2064656372656173656420616c6c6f77616e63652062656c6f77207a65726fa26469706673582212202d2f09e7a63d1550dbd6ef3f9a48b1bea8bb0194b7a7a108aacc8786dea35f1064736f6c634300080f0033",
			"opcodes": "PUSH1 0x80 PUSH1 0x40 MSTORE PUSH1 0x7 DUP1 SLOAD PUSH1 0x1 PUSH1 0x1 PUSH1 0xA0 SHL SUB NOT SWAP1 DUP2 AND PUSH20 0x55D398326F99059FF775485246999027B3197955 OR SWAP1 SWAP2 SSTORE PUSH1 0x8 DUP1 SLOAD SWAP1 SWAP2 AND PUSH20 0x10ED43C718714EB63D5AA57B78B54704E256024E OR SWAP1 SSTORE PUSH1 0xA DUP1 SLOAD PUSH23 0x10000000000000000000000000000000000000000DEAD PUSH1 0x1 PUSH3 0xFFFF01 PUSH1 0xA0 SHL SUB NOT SWAP1 SWAP2 AND OR SWAP1 SSTORE PUSH1 0x0 PUSH1 0xB DUP2 SWAP1 SSTORE PUSH1 0xC SSTORE PUSH1 0x1 PUSH1 0x15 DUP2 SWAP1 SSTORE PUSH1 0x16 DUP2 SWAP1 SSTORE PUSH1 0x17 DUP2 SWAP1 SSTORE PUSH1 0x18 DUP2 SWAP1 SSTORE PUSH1 0x19 DUP2 SWAP1 SSTORE PUSH1 0x1A DUP2 SWAP1 SSTORE PUSH1 0x1B DUP2 SWAP1 SSTORE PUSH1 0x1C DUP2 SWAP1 SSTORE PUSH1 0x1D DUP2 SWAP1 SSTORE PUSH1 0x1E DUP2 SWAP1 SSTORE PUSH1 0x1F DUP2 SWAP1 SSTORE PUSH1 0x3 PUSH1 0x20 DUP2 SWAP1 SSTORE PUSH1 0x21 SSTORE PUSH1 0x22 DUP1 SLOAD PUSH1 0xFF NOT SWAP1 DUP2 AND DUP4 OR SWAP1 SWAP2 SSTORE PUSH3 0x493E0 PUSH1 0x23 SSTORE PUSH1 0x2C DUP1 SLOAD SWAP1 SWAP2 AND SWAP1 SWAP2 OR SWAP1 SSTORE PUSH5 0x1A13B8600 PUSH1 0x2D SSTORE PUSH1 0x3C PUSH1 0x31 SSTORE CALLVALUE DUP1 ISZERO PUSH3 0x103 JUMPI PUSH1 0x0 DUP1 REVERT JUMPDEST POP PUSH1 0x40 MLOAD DUP1 PUSH1 0x40 ADD PUSH1 0x40 MSTORE DUP1 PUSH1 0x6 DUP2 MSTORE PUSH1 0x20 ADD PUSH6 0x10DA185A5B91 PUSH1 0xD2 SHL DUP2 MSTORE POP PUSH1 0x40 MLOAD DUP1 PUSH1 0x40 ADD PUSH1 0x40 MSTORE DUP1 PUSH1 0x3 DUP2 MSTORE PUSH1 0x20 ADD PUSH3 0x10D211 PUSH1 0xEA SHL DUP2 MSTORE POP DUP2 PUSH1 0x3 SWAP1 DUP2 PUSH3 0x150 SWAP2 SWAP1 PUSH3 0xD1D JUMP JUMPDEST POP PUSH1 0x4 PUSH3 0x15F DUP3 DUP3 PUSH3 0xD1D JUMP JUMPDEST POP POP POP PUSH1 0x0 PUSH3 0x174 PUSH3 0xA2C PUSH1 0x20 SHL PUSH1 0x20 SHR JUMP JUMPDEST PUSH1 0x5 DUP1 SLOAD PUSH1 0x1 PUSH1 0x1 PUSH1 0xA0 SHL SUB NOT AND PUSH1 0x1 PUSH1 0x1 PUSH1 0xA0 SHL SUB DUP4 AND SWAP1 DUP2 OR SWAP1 SWAP2 SSTORE PUSH1 0x40 MLOAD SWAP2 SWAP3 POP SWAP1 PUSH1 0x0 SWAP1 PUSH32 0x8BE0079C531659141344CD1FD0A4F28419497F9722A3DAAFE3B4186F6B6457E0 SWAP1 DUP3 SWAP1 LOG3 POP PUSH1 0xE DUP1 SLOAD CALLER PUSH1 0x1 PUSH1 0x1 PUSH1 0xA0 SHL SUB NOT SWAP2 DUP3 AND DUP2 OR SWAP1 SWAP3 SSTORE PUSH1 0xF DUP1 SLOAD DUP3 AND DUP4 OR SWAP1 SSTORE PUSH1 0x10 DUP1 SLOAD DUP3 AND DUP4 OR SWAP1 SSTORE PUSH1 0x11 DUP1 SLOAD SWAP1 SWAP2 AND SWAP1 SWAP2 OR SWAP1 SSTORE PUSH1 0x8 SLOAD PUSH1 0x40 MLOAD ADDRESS SWAP2 PUSH1 0x1 PUSH1 0x1 PUSH1 0xA0 SHL SUB AND SWAP1 PUSH20 0x55D398326F99059FF775485246999027B3197955 SWAP1 PUSH3 0x22B SWAP1 PUSH3 0xC6B JUMP JUMPDEST PUSH1 0x1 PUSH1 0x1 PUSH1 0xA0 SHL SUB SWAP4 DUP5 AND DUP2 MSTORE SWAP2 DUP4 AND PUSH1 0x20 DUP4 ADD MSTORE SWAP1 SWAP2 AND PUSH1 0x40 DUP3 ADD MSTORE PUSH1 0xA0 PUSH1 0x60 DUP3 ADD DUP2 SWAP1 MSTORE PUSH1 0xD SWAP1 DUP3 ADD MSTORE PUSH13 0x21B430B4B7222A2920A1A5A2A9 PUSH1 0x99 SHL PUSH1 0xC0 DUP3 ADD MSTORE PUSH1 0xE0 PUSH1 0x80 DUP3 ADD DUP2 SWAP1 MSTORE PUSH1 0xA SWAP1 DUP3 ADD MSTORE PUSH10 0x21A4222A2920A1A5A2A9 PUSH1 0xB1 SHL PUSH2 0x100 DUP3 ADD MSTORE PUSH2 0x120 ADD PUSH1 0x40 MLOAD DUP1 SWAP2 SUB SWAP1 PUSH1 0x0 CREATE DUP1 ISZERO DUP1 ISZERO PUSH3 0x2B1 JUMPI RETURNDATASIZE PUSH1 0x0 DUP1 RETURNDATACOPY RETURNDATASIZE PUSH1 0x0 REVERT JUMPDEST POP PUSH1 0xD DUP1 SLOAD PUSH1 0x1 PUSH1 0x1 PUSH1 0xA0 SHL SUB SWAP3 DUP4 AND PUSH1 0x1 PUSH1 0x1 PUSH1 0xA0 SHL SUB NOT SWAP2 DUP3 AND OR SWAP1 SWAP2 SSTORE PUSH1 0x8 SLOAD PUSH1 0x6 DUP1 SLOAD SWAP1 SWAP3 AND SWAP3 AND SWAP2 DUP3 OR SWAP1 SSTORE PUSH1 0x40 DUP1 MLOAD PUSH4 0xC45A0155 PUSH1 0xE0 SHL DUP2 MSTORE SWAP1 MLOAD PUSH4 0xC45A0155 SWAP2 PUSH1 0x4 DUP1 DUP3 ADD SWAP3 PUSH1 0x20 SWAP3 SWAP1 SWAP2 SWAP1 DUP3 SWAP1 SUB ADD DUP2 DUP7 GAS STATICCALL ISZERO DUP1 ISZERO PUSH3 0x31E JUMPI RETURNDATASIZE PUSH1 0x0 DUP1 RETURNDATACOPY RETURNDATASIZE PUSH1 0x0 REVERT JUMPDEST POP POP POP POP PUSH1 0x40 MLOAD RETURNDATASIZE PUSH1 0x1F NOT PUSH1 0x1F DUP3 ADD AND DUP3 ADD DUP1 PUSH1 0x40 MSTORE POP DUP2 ADD SWAP1 PUSH3 0x344 SWAP2 SWAP1 PUSH3 0xDE9 JUMP JUMPDEST PUSH1 0x1 PUSH1 0x1 PUSH1 0xA0 SHL SUB AND PUSH4 0xC9C65396 ADDRESS PUSH1 0x6 PUSH1 0x0 SWAP1 SLOAD SWAP1 PUSH2 0x100 EXP SWAP1 DIV PUSH1 0x1 PUSH1 0x1 PUSH1 0xA0 SHL SUB AND PUSH1 0x1 PUSH1 0x1 PUSH1 0xA0 SHL SUB AND PUSH4 0xAD5C4648 PUSH1 0x40 MLOAD DUP2 PUSH4 0xFFFFFFFF AND PUSH1 0xE0 SHL DUP2 MSTORE PUSH1 0x4 ADD PUSH1 0x20 PUSH1 0x40 MLOAD DUP1 DUP4 SUB DUP2 DUP7 GAS STATICCALL ISZERO DUP1 ISZERO PUSH3 0x3A7 JUMPI RETURNDATASIZE PUSH1 0x0 DUP1 RETURNDATACOPY RETURNDATASIZE PUSH1 0x0 REVERT JUMPDEST POP POP POP POP PUSH1 0x40 MLOAD RETURNDATASIZE PUSH1 0x1F NOT PUSH1 0x1F DUP3 ADD AND DUP3 ADD DUP1 PUSH1 0x40 MSTORE POP DUP2 ADD SWAP1 PUSH3 0x3CD SWAP2 SWAP1 PUSH3 0xDE9 JUMP JUMPDEST PUSH1 0x40 MLOAD PUSH1 0x1 PUSH1 0x1 PUSH1 0xE0 SHL SUB NOT PUSH1 0xE0 DUP6 SWAP1 SHL AND DUP2 MSTORE PUSH1 0x1 PUSH1 0x1 PUSH1 0xA0 SHL SUB SWAP3 DUP4 AND PUSH1 0x4 DUP3 ADD MSTORE SWAP2 AND PUSH1 0x24 DUP3 ADD MSTORE PUSH1 0x44 ADD PUSH1 0x20 PUSH1 0x40 MLOAD DUP1 DUP4 SUB DUP2 PUSH1 0x0 DUP8 GAS CALL ISZERO DUP1 ISZERO PUSH3 0x41B JUMPI RETURNDATASIZE PUSH1 0x0 DUP1 RETURNDATACOPY RETURNDATASIZE PUSH1 0x0 REVERT JUMPDEST POP POP POP POP PUSH1 0x40 MLOAD RETURNDATASIZE PUSH1 0x1F NOT PUSH1 0x1F DUP3 ADD AND DUP3 ADD DUP1 PUSH1 0x40 MSTORE POP DUP2 ADD SWAP1 PUSH3 0x441 SWAP2 SWAP1 PUSH3 0xDE9 JUMP JUMPDEST PUSH1 0x9 DUP1 SLOAD PUSH1 0x1 PUSH1 0x1 PUSH1 0xA0 SHL SUB NOT AND PUSH1 0x1 PUSH1 0x1 PUSH1 0xA0 SHL SUB SWAP3 SWAP1 SWAP3 AND SWAP2 DUP3 OR SWAP1 SSTORE PUSH3 0x46D SWAP1 PUSH1 0x1 PUSH3 0xA30 JUMP JUMPDEST PUSH1 0xD SLOAD PUSH1 0x40 MLOAD PUSH4 0x31E79DB PUSH1 0xE4 SHL DUP2 MSTORE PUSH1 0x1 PUSH1 0x1 PUSH1 0xA0 SHL SUB SWAP1 SWAP2 AND PUSH1 0x4 DUP3 ADD DUP2 SWAP1 MSTORE SWAP1 PUSH4 0x31E79DB0 SWAP1 PUSH1 0x24 ADD PUSH1 0x0 PUSH1 0x40 MLOAD DUP1 DUP4 SUB DUP2 PUSH1 0x0 DUP8 DUP1 EXTCODESIZE ISZERO DUP1 ISZERO PUSH3 0x4B4 JUMPI PUSH1 0x0 DUP1 REVERT JUMPDEST POP GAS CALL ISZERO DUP1 ISZERO PUSH3 0x4C9 JUMPI RETURNDATASIZE PUSH1 0x0 DUP1 RETURNDATACOPY RETURNDATASIZE PUSH1 0x0 REVERT JUMPDEST POP POP PUSH1 0xD SLOAD PUSH1 0x40 MLOAD PUSH4 0x31E79DB PUSH1 0xE4 SHL DUP2 MSTORE ADDRESS PUSH1 0x4 DUP3 ADD MSTORE PUSH1 0x1 PUSH1 0x1 PUSH1 0xA0 SHL SUB SWAP1 SWAP2 AND SWAP3 POP PUSH4 0x31E79DB0 SWAP2 POP PUSH1 0x24 ADD PUSH1 0x0 PUSH1 0x40 MLOAD DUP1 DUP4 SUB DUP2 PUSH1 0x0 DUP8 DUP1 EXTCODESIZE ISZERO DUP1 ISZERO PUSH3 0x513 JUMPI PUSH1 0x0 DUP1 REVERT JUMPDEST POP GAS CALL ISZERO DUP1 ISZERO PUSH3 0x528 JUMPI RETURNDATASIZE PUSH1 0x0 DUP1 RETURNDATACOPY RETURNDATASIZE PUSH1 0x0 REVERT JUMPDEST POP POP PUSH1 0xD SLOAD PUSH1 0xA SLOAD PUSH1 0x40 MLOAD PUSH4 0x31E79DB PUSH1 0xE4 SHL DUP2 MSTORE PUSH1 0x1 PUSH1 0x1 PUSH1 0xA0 SHL SUB SWAP2 DUP3 AND PUSH1 0x4 DUP3 ADD MSTORE SWAP2 AND SWAP3 POP PUSH4 0x31E79DB0 SWAP2 POP PUSH1 0x24 ADD PUSH1 0x0 PUSH1 0x40 MLOAD DUP1 DUP4 SUB DUP2 PUSH1 0x0 DUP8 DUP1 EXTCODESIZE ISZERO DUP1 ISZERO PUSH3 0x576 JUMPI PUSH1 0x0 DUP1 REVERT JUMPDEST POP GAS CALL ISZERO DUP1 ISZERO PUSH3 0x58B JUMPI RETURNDATASIZE PUSH1 0x0 DUP1 RETURNDATACOPY RETURNDATASIZE PUSH1 0x0 REVERT JUMPDEST POP POP PUSH1 0xD SLOAD PUSH1 0x40 MLOAD PUSH4 0x4E7B827F PUSH1 0xE0 SHL DUP2 MSTORE PUSH1 0x0 PUSH1 0x4 DUP3 ADD MSTORE PUSH1 0x1 PUSH1 0x1 PUSH1 0xA0 SHL SUB SWAP1 SWAP2 AND SWAP3 POP PUSH4 0x4E7B827F SWAP2 POP PUSH1 0x24 ADD PUSH1 0x20 PUSH1 0x40 MLOAD DUP1 DUP4 SUB DUP2 DUP7 GAS STATICCALL ISZERO DUP1 ISZERO PUSH3 0x5D9 JUMPI RETURNDATASIZE PUSH1 0x0 DUP1 RETURNDATACOPY RETURNDATASIZE PUSH1 0x0 REVERT JUMPDEST POP POP POP POP PUSH1 0x40 MLOAD RETURNDATASIZE PUSH1 0x1F NOT PUSH1 0x1F DUP3 ADD AND DUP3 ADD DUP1 PUSH1 0x40 MSTORE POP DUP2 ADD SWAP1 PUSH3 0x5FF SWAP2 SWAP1 PUSH3 0xE14 JUMP JUMPDEST POP PUSH1 0xD SLOAD PUSH1 0x8 SLOAD PUSH1 0x40 MLOAD PUSH4 0x31E79DB PUSH1 0xE4 SHL DUP2 MSTORE PUSH1 0x1 PUSH1 0x1 PUSH1 0xA0 SHL SUB SWAP2 DUP3 AND PUSH1 0x4 DUP3 ADD MSTORE SWAP2 AND SWAP1 PUSH4 0x31E79DB0 SWAP1 PUSH1 0x24 ADD PUSH1 0x0 PUSH1 0x40 MLOAD DUP1 DUP4 SUB DUP2 PUSH1 0x0 DUP8 DUP1 EXTCODESIZE ISZERO DUP1 ISZERO PUSH3 0x64A JUMPI PUSH1 0x0 DUP1 REVERT JUMPDEST POP GAS CALL ISZERO DUP1 ISZERO PUSH3 0x65F JUMPI RETURNDATASIZE PUSH1 0x0 DUP1 RETURNDATACOPY RETURNDATASIZE PUSH1 0x0 REVERT JUMPDEST POP POP PUSH1 0xD SLOAD PUSH1 0xE SLOAD PUSH1 0x40 MLOAD PUSH4 0x31E79DB PUSH1 0xE4 SHL DUP2 MSTORE PUSH1 0x1 PUSH1 0x1 PUSH1 0xA0 SHL SUB SWAP2 DUP3 AND PUSH1 0x4 DUP3 ADD MSTORE SWAP2 AND SWAP3 POP PUSH4 0x31E79DB0 SWAP2 POP PUSH1 0x24 ADD PUSH1 0x0 PUSH1 0x40 MLOAD DUP1 DUP4 SUB DUP2 PUSH1 0x0 DUP8 DUP1 EXTCODESIZE ISZERO DUP1 ISZERO PUSH3 0x6AD JUMPI PUSH1 0x0 DUP1 REVERT JUMPDEST POP GAS CALL ISZERO DUP1 ISZERO PUSH3 0x6C2 JUMPI RETURNDATASIZE PUSH1 0x0 DUP1 RETURNDATACOPY RETURNDATASIZE PUSH1 0x0 REVERT JUMPDEST POP POP PUSH1 0xD SLOAD PUSH1 0xF SLOAD PUSH1 0x40 MLOAD PUSH4 0x31E79DB PUSH1 0xE4 SHL DUP2 MSTORE PUSH1 0x1 PUSH1 0x1 PUSH1 0xA0 SHL SUB SWAP2 DUP3 AND PUSH1 0x4 DUP3 ADD MSTORE SWAP2 AND SWAP3 POP PUSH4 0x31E79DB0 SWAP2 POP PUSH1 0x24 ADD PUSH1 0x0 PUSH1 0x40 MLOAD DUP1 DUP4 SUB DUP2 PUSH1 0x0 DUP8 DUP1 EXTCODESIZE ISZERO DUP1 ISZERO PUSH3 0x710 JUMPI PUSH1 0x0 DUP1 REVERT JUMPDEST POP GAS CALL ISZERO DUP1 ISZERO PUSH3 0x725 JUMPI RETURNDATASIZE PUSH1 0x0 DUP1 RETURNDATACOPY RETURNDATASIZE PUSH1 0x0 REVERT JUMPDEST POP POP PUSH1 0xD SLOAD PUSH1 0x10 SLOAD PUSH1 0x40 MLOAD PUSH4 0x31E79DB PUSH1 0xE4 SHL DUP2 MSTORE PUSH1 0x1 PUSH1 0x1 PUSH1 0xA0 SHL SUB SWAP2 DUP3 AND PUSH1 0x4 DUP3 ADD MSTORE SWAP2 AND SWAP3 POP PUSH4 0x31E79DB0 SWAP2 POP PUSH1 0x24 ADD PUSH1 0x0 PUSH1 0x40 MLOAD DUP1 DUP4 SUB DUP2 PUSH1 0x0 DUP8 DUP1 EXTCODESIZE ISZERO DUP1 ISZERO PUSH3 0x773 JUMPI PUSH1 0x0 DUP1 REVERT JUMPDEST POP GAS CALL ISZERO DUP1 ISZERO PUSH3 0x788 JUMPI RETURNDATASIZE PUSH1 0x0 DUP1 RETURNDATACOPY RETURNDATASIZE PUSH1 0x0 REVERT JUMPDEST POP POP PUSH1 0xD SLOAD PUSH1 0x11 SLOAD PUSH1 0x40 MLOAD PUSH4 0x31E79DB PUSH1 0xE4 SHL DUP2 MSTORE PUSH1 0x1 PUSH1 0x1 PUSH1 0xA0 SHL SUB SWAP2 DUP3 AND PUSH1 0x4 DUP3 ADD MSTORE SWAP2 AND SWAP3 POP PUSH4 0x31E79DB0 SWAP2 POP PUSH1 0x24 ADD PUSH1 0x0 PUSH1 0x40 MLOAD DUP1 DUP4 SUB DUP2 PUSH1 0x0 DUP8 DUP1 EXTCODESIZE ISZERO DUP1 ISZERO PUSH3 0x7D6 JUMPI PUSH1 0x0 DUP1 REVERT JUMPDEST POP GAS CALL ISZERO DUP1 ISZERO PUSH3 0x7EB JUMPI RETURNDATASIZE PUSH1 0x0 DUP1 RETURNDATACOPY RETURNDATASIZE PUSH1 0x0 REVERT JUMPDEST POP POP PUSH1 0xD SLOAD PUSH1 0x1 PUSH1 0x1 PUSH1 0xA0 SHL SUB AND SWAP2 POP PUSH4 0x31E79DB0 SWAP1 POP PUSH3 0x815 PUSH1 0x5 SLOAD PUSH1 0x1 PUSH1 0x1 PUSH1 0xA0 SHL SUB AND SWAP1 JUMP JUMPDEST PUSH1 0x40 MLOAD PUSH1 0x1 PUSH1 0x1 PUSH1 0xE0 SHL SUB NOT PUSH1 0xE0 DUP5 SWAP1 SHL AND DUP2 MSTORE PUSH1 0x1 PUSH1 0x1 PUSH1 0xA0 SHL SUB SWAP1 SWAP2 AND PUSH1 0x4 DUP3 ADD MSTORE PUSH1 0x24 ADD PUSH1 0x0 PUSH1 0x40 MLOAD DUP1 DUP4 SUB DUP2 PUSH1 0x0 DUP8 DUP1 EXTCODESIZE ISZERO DUP1 ISZERO PUSH3 0x857 JUMPI PUSH1 0x0 DUP1 REVERT JUMPDEST POP GAS CALL ISZERO DUP1 ISZERO PUSH3 0x86C JUMPI RETURNDATASIZE PUSH1 0x0 DUP1 RETURNDATACOPY RETURNDATASIZE PUSH1 0x0 REVERT JUMPDEST POP POP ADDRESS PUSH1 0x0 DUP2 DUP2 MSTORE PUSH1 0x24 PUSH1 0x20 SWAP1 DUP2 MSTORE PUSH1 0x40 DUP1 DUP4 KECCAK256 DUP1 SLOAD PUSH1 0x1 PUSH1 0xFF NOT SWAP2 DUP3 AND DUP2 OR SWAP1 SWAP3 SSTORE PUSH1 0xD DUP1 SLOAD PUSH1 0x1 PUSH1 0x1 PUSH1 0xA0 SHL SUB SWAP1 DUP2 AND DUP8 MSTORE DUP5 DUP8 KECCAK256 DUP1 SLOAD DUP5 AND DUP6 OR SWAP1 SSTORE PUSH1 0xE DUP1 SLOAD DUP3 AND DUP9 MSTORE DUP6 DUP9 KECCAK256 DUP1 SLOAD DUP6 AND DUP7 OR SWAP1 SSTORE PUSH1 0xF DUP1 SLOAD DUP4 AND DUP10 MSTORE DUP7 DUP10 KECCAK256 DUP1 SLOAD DUP7 AND DUP8 OR SWAP1 SSTORE PUSH1 0x11 DUP1 SLOAD DUP5 AND DUP11 MSTORE DUP8 DUP11 KECCAK256 DUP1 SLOAD DUP8 AND DUP9 OR SWAP1 SSTORE PUSH1 0x10 DUP1 SLOAD DUP6 AND DUP12 MSTORE DUP9 DUP12 KECCAK256 DUP1 SLOAD DUP9 AND DUP10 OR SWAP1 SSTORE CALLER DUP1 DUP13 MSTORE DUP10 DUP13 KECCAK256 DUP1 SLOAD DUP10 AND DUP11 OR SWAP1 SSTORE SWAP12 DUP12 MSTORE PUSH1 0x25 SWAP1 SWAP10 MSTORE DUP8 DUP11 KECCAK256 DUP1 SLOAD DUP8 AND DUP9 OR SWAP1 SSTORE SWAP4 SLOAD DUP4 AND DUP10 MSTORE DUP7 DUP10 KECCAK256 DUP1 SLOAD DUP7 AND DUP8 OR SWAP1 SSTORE SWAP1 SLOAD DUP3 AND DUP9 MSTORE DUP6 DUP9 KECCAK256 DUP1 SLOAD DUP6 AND DUP7 OR SWAP1 SSTORE SLOAD DUP2 AND DUP8 MSTORE DUP5 DUP8 KECCAK256 DUP1 SLOAD DUP5 AND DUP6 OR SWAP1 SSTORE SWAP5 SLOAD DUP6 AND DUP7 MSTORE DUP4 DUP7 KECCAK256 DUP1 SLOAD DUP4 AND DUP5 OR SWAP1 SSTORE SLOAD DUP5 AND DUP6 MSTORE DUP3 DUP6 KECCAK256 DUP1 SLOAD DUP3 AND DUP4 OR SWAP1 SSTORE SWAP5 DUP5 MSTORE SWAP3 KECCAK256 DUP1 SLOAD SWAP1 SWAP4 AND SWAP1 SWAP2 OR SWAP1 SWAP2 SSTORE PUSH1 0x5 SLOAD PUSH11 0x84595161401484A000000 SWAP4 POP PUSH3 0x99B SWAP3 POP AND DUP3 PUSH3 0xAFC JUMP JUMPDEST PUSH3 0x9A8 PUSH1 0x4 DUP3 PUSH3 0xE38 JUMP JUMPDEST PUSH1 0x13 SSTORE PUSH3 0x9B8 PUSH1 0x4 DUP3 PUSH3 0xE38 JUMP JUMPDEST PUSH1 0x12 SSTORE PUSH3 0x9C9 PUSH2 0x7D0 DUP3 PUSH3 0xE38 JUMP JUMPDEST PUSH1 0x14 SSTORE PUSH1 0x1 PUSH1 0x2B PUSH1 0x0 PUSH3 0x9E5 PUSH1 0x5 SLOAD PUSH1 0x1 PUSH1 0x1 PUSH1 0xA0 SHL SUB AND SWAP1 JUMP JUMPDEST PUSH1 0x1 PUSH1 0x1 PUSH1 0xA0 SHL SUB AND DUP2 MSTORE PUSH1 0x20 DUP1 DUP3 ADD SWAP3 SWAP1 SWAP3 MSTORE PUSH1 0x40 SWAP1 DUP2 ADD PUSH1 0x0 SWAP1 DUP2 KECCAK256 DUP1 SLOAD SWAP5 ISZERO ISZERO PUSH1 0xFF NOT SWAP6 DUP7 AND OR SWAP1 SSTORE ADDRESS DUP2 MSTORE PUSH1 0x2B SWAP1 SWAP3 MSTORE SWAP1 KECCAK256 DUP1 SLOAD SWAP1 SWAP2 AND PUSH1 0x1 OR SWAP1 SSTORE POP PUSH3 0xE82 JUMP JUMPDEST CALLER SWAP1 JUMP JUMPDEST PUSH1 0x1 PUSH1 0x1 PUSH1 0xA0 SHL SUB DUP3 AND PUSH1 0x0 SWAP1 DUP2 MSTORE PUSH1 0x27 PUSH1 0x20 MSTORE PUSH1 0x40 SWAP1 KECCAK256 DUP1 SLOAD PUSH1 0xFF NOT AND DUP3 ISZERO DUP1 ISZERO SWAP2 SWAP1 SWAP2 OR SWAP1 SWAP2 SSTORE PUSH3 0xAC0 JUMPI PUSH1 0xD SLOAD PUSH1 0x40 MLOAD PUSH4 0x31E79DB PUSH1 0xE4 SHL DUP2 MSTORE PUSH1 0x1 PUSH1 0x1 PUSH1 0xA0 SHL SUB DUP5 DUP2 AND PUSH1 0x4 DUP4 ADD MSTORE SWAP1 SWAP2 AND SWAP1 PUSH4 0x31E79DB0 SWAP1 PUSH1 0x24 ADD PUSH1 0x0 PUSH1 0x40 MLOAD DUP1 DUP4 SUB DUP2 PUSH1 0x0 DUP8 DUP1 EXTCODESIZE ISZERO DUP1 ISZERO PUSH3 0xAA6 JUMPI PUSH1 0x0 DUP1 REVERT JUMPDEST POP GAS CALL ISZERO DUP1 ISZERO PUSH3 0xABB JUMPI RETURNDATASIZE PUSH1 0x0 DUP1 RETURNDATACOPY RETURNDATASIZE PUSH1 0x0 REVERT JUMPDEST POP POP POP POP JUMPDEST PUSH1 0x40 MLOAD DUP2 ISZERO ISZERO SWAP1 PUSH1 0x1 PUSH1 0x1 PUSH1 0xA0 SHL SUB DUP5 AND SWAP1 PUSH32 0xFFA9187BF1F18BF477BD0EA1BCBB64E93B6A98132473929EDFCE215CD9B16FAB SWAP1 PUSH1 0x0 SWAP1 LOG3 POP POP JUMP JUMPDEST PUSH1 0x1 PUSH1 0x1 PUSH1 0xA0 SHL SUB DUP3 AND PUSH3 0xB58 JUMPI PUSH1 0x40 MLOAD PUSH3 0x461BCD PUSH1 0xE5 SHL DUP2 MSTORE PUSH1 0x20 PUSH1 0x4 DUP3 ADD MSTORE PUSH1 0x1F PUSH1 0x24 DUP3 ADD MSTORE PUSH32 0x45524332303A206D696E7420746F20746865207A65726F206164647265737300 PUSH1 0x44 DUP3 ADD MSTORE PUSH1 0x64 ADD JUMPDEST PUSH1 0x40 MLOAD DUP1 SWAP2 SUB SWAP1 REVERT JUMPDEST PUSH3 0xB74 DUP2 PUSH1 0x2 SLOAD PUSH3 0xC01 PUSH1 0x20 SHL PUSH3 0x3253 OR SWAP1 SWAP2 SWAP1 PUSH1 0x20 SHR JUMP JUMPDEST PUSH1 0x2 SSTORE PUSH1 0x1 PUSH1 0x1 PUSH1 0xA0 SHL SUB DUP3 AND PUSH1 0x0 SWAP1 DUP2 MSTORE PUSH1 0x20 DUP2 DUP2 MSTORE PUSH1 0x40 SWAP1 SWAP2 KECCAK256 SLOAD PUSH3 0xBA7 SWAP2 DUP4 SWAP1 PUSH3 0x3253 PUSH3 0xC01 DUP3 SHL OR SWAP1 SHR JUMP JUMPDEST PUSH1 0x1 PUSH1 0x1 PUSH1 0xA0 SHL SUB DUP4 AND PUSH1 0x0 DUP2 DUP2 MSTORE PUSH1 0x20 DUP2 DUP2 MSTORE PUSH1 0x40 DUP1 DUP4 KECCAK256 SWAP5 SWAP1 SWAP5 SSTORE SWAP3 MLOAD DUP5 DUP2 MSTORE SWAP2 SWAP3 SWAP1 SWAP2 PUSH32 0xDDF252AD1BE2C89B69C2B068FC378DAA952BA7F163C4A11628F55A4DF523B3EF SWAP2 ADD PUSH1 0x40 MLOAD DUP1 SWAP2 SUB SWAP1 LOG3 POP POP JUMP JUMPDEST POP POP POP JUMP JUMPDEST PUSH1 0x0 DUP1 PUSH3 0xC10 DUP4 DUP6 PUSH3 0xE5B JUMP JUMPDEST SWAP1 POP DUP4 DUP2 LT ISZERO PUSH3 0xC64 JUMPI PUSH1 0x40 MLOAD PUSH3 0x461BCD PUSH1 0xE5 SHL DUP2 MSTORE PUSH1 0x20 PUSH1 0x4 DUP3 ADD MSTORE PUSH1 0x1B PUSH1 0x24 DUP3 ADD MSTORE PUSH32 0x536166654D6174683A206164646974696F6E206F766572666C6F770000000000 PUSH1 0x44 DUP3 ADD MSTORE PUSH1 0x64 ADD PUSH3 0xB4F JUMP JUMPDEST SWAP4 SWAP3 POP POP POP JUMP JUMPDEST PUSH2 0x30E7 DUP1 PUSH3 0x5EA1 DUP4 CODECOPY ADD SWAP1 JUMP JUMPDEST PUSH4 0x4E487B71 PUSH1 0xE0 SHL PUSH1 0x0 MSTORE PUSH1 0x41 PUSH1 0x4 MSTORE PUSH1 0x24 PUSH1 0x0 REVERT JUMPDEST PUSH1 0x1 DUP2 DUP2 SHR SWAP1 DUP3 AND DUP1 PUSH3 0xCA4 JUMPI PUSH1 0x7F DUP3 AND SWAP2 POP JUMPDEST PUSH1 0x20 DUP3 LT DUP2 SUB PUSH3 0xCC5 JUMPI PUSH4 0x4E487B71 PUSH1 0xE0 SHL PUSH1 0x0 MSTORE PUSH1 0x22 PUSH1 0x4 MSTORE PUSH1 0x24 PUSH1 0x0 REVERT JUMPDEST POP SWAP2 SWAP1 POP JUMP JUMPDEST PUSH1 0x1F DUP3 GT ISZERO PUSH3 0xBFC JUMPI PUSH1 0x0 DUP2 DUP2 MSTORE PUSH1 0x20 DUP2 KECCAK256 PUSH1 0x1F DUP6 ADD PUSH1 0x5 SHR DUP2 ADD PUSH1 0x20 DUP7 LT ISZERO PUSH3 0xCF4 JUMPI POP DUP1 JUMPDEST PUSH1 0x1F DUP6 ADD PUSH1 0x5 SHR DUP3 ADD SWAP2 POP JUMPDEST DUP2 DUP2 LT ISZERO PUSH3 0xD15 JUMPI DUP3 DUP2 SSTORE PUSH1 0x1 ADD PUSH3 0xD00 JUMP JUMPDEST POP POP POP POP POP POP JUMP JUMPDEST DUP2 MLOAD PUSH1 0x1 PUSH1 0x1 PUSH1 0x40 SHL SUB DUP2 GT ISZERO PUSH3 0xD39 JUMPI PUSH3 0xD39 PUSH3 0xC79 JUMP JUMPDEST PUSH3 0xD51 DUP2 PUSH3 0xD4A DUP5 SLOAD PUSH3 0xC8F JUMP JUMPDEST DUP5 PUSH3 0xCCB JUMP JUMPDEST PUSH1 0x20 DUP1 PUSH1 0x1F DUP4 GT PUSH1 0x1 DUP2 EQ PUSH3 0xD89 JUMPI PUSH1 0x0 DUP5 ISZERO PUSH3 0xD70 JUMPI POP DUP6 DUP4 ADD MLOAD JUMPDEST PUSH1 0x0 NOT PUSH1 0x3 DUP7 SWAP1 SHL SHR NOT AND PUSH1 0x1 DUP6 SWAP1 SHL OR DUP6 SSTORE PUSH3 0xD15 JUMP JUMPDEST PUSH1 0x0 DUP6 DUP2 MSTORE PUSH1 0x20 DUP2 KECCAK256 PUSH1 0x1F NOT DUP7 AND SWAP2 JUMPDEST DUP3 DUP2 LT ISZERO PUSH3 0xDBA JUMPI DUP9 DUP7 ADD MLOAD DUP3 SSTORE SWAP5 DUP5 ADD SWAP5 PUSH1 0x1 SWAP1 SWAP2 ADD SWAP1 DUP5 ADD PUSH3 0xD99 JUMP JUMPDEST POP DUP6 DUP3 LT ISZERO PUSH3 0xDD9 JUMPI DUP8 DUP6 ADD MLOAD PUSH1 0x0 NOT PUSH1 0x3 DUP9 SWAP1 SHL PUSH1 0xF8 AND SHR NOT AND DUP2 SSTORE JUMPDEST POP POP POP POP POP PUSH1 0x1 SWAP1 DUP2 SHL ADD SWAP1 SSTORE POP JUMP JUMPDEST PUSH1 0x0 PUSH1 0x20 DUP3 DUP5 SUB SLT ISZERO PUSH3 0xDFC JUMPI PUSH1 0x0 DUP1 REVERT JUMPDEST DUP2 MLOAD PUSH1 0x1 PUSH1 0x1 PUSH1 0xA0 SHL SUB DUP2 AND DUP2 EQ PUSH3 0xC64 JUMPI PUSH1 0x0 DUP1 REVERT JUMPDEST PUSH1 0x0 PUSH1 0x20 DUP3 DUP5 SUB SLT ISZERO PUSH3 0xE27 JUMPI PUSH1 0x0 DUP1 REVERT JUMPDEST DUP2 MLOAD DUP1 ISZERO ISZERO DUP2 EQ PUSH3 0xC64 JUMPI PUSH1 0x0 DUP1 REVERT JUMPDEST PUSH1 0x0 DUP3 PUSH3 0xE56 JUMPI PUSH4 0x4E487B71 PUSH1 0xE0 SHL PUSH1 0x0 MSTORE PUSH1 0x12 PUSH1 0x4 MSTORE PUSH1 0x24 PUSH1 0x0 REVERT JUMPDEST POP DIV SWAP1 JUMP JUMPDEST PUSH1 0x0 DUP3 NOT DUP3 GT ISZERO PUSH3 0xE7D JUMPI PUSH4 0x4E487B71 PUSH1 0xE0 SHL PUSH1 0x0 MSTORE PUSH1 0x11 PUSH1 0x4 MSTORE PUSH1 0x24 PUSH1 0x0 REVERT JUMPDEST POP ADD SWAP1 JUMP JUMPDEST PUSH2 0x500F DUP1 PUSH3 0xE92 PUSH1 0x0 CODECOPY PUSH1 0x0 RETURN INVALID PUSH1 0x80 PUSH1 0x40 MSTORE PUSH1 0x4 CALLDATASIZE LT PUSH2 0x542 JUMPI PUSH1 0x0 CALLDATALOAD PUSH1 0xE0 SHR DUP1 PUSH4 0x7D32F342 GT PUSH2 0x2BD JUMPI DUP1 PUSH4 0xB62496F5 GT PUSH2 0x180 JUMPI DUP1 PUSH4 0xE6DC4EBE GT PUSH2 0xE7 JUMPI DUP1 PUSH4 0xF2FDE38B GT PUSH2 0xA0 JUMPI DUP1 PUSH4 0xF8B45B05 GT PUSH2 0x7A JUMPI DUP1 PUSH4 0xF8B45B05 EQ PUSH2 0x10FF JUMPI DUP1 PUSH4 0xF9F92BE4 EQ PUSH2 0x1115 JUMPI DUP1 PUSH4 0xFC6B151C EQ PUSH2 0x1135 JUMPI DUP1 PUSH4 0xFE575A87 EQ PUSH2 0x1155 JUMPI PUSH1 0x0 DUP1 REVERT JUMPDEST DUP1 PUSH4 0xF2FDE38B EQ PUSH2 0x109F JUMPI DUP1 PUSH4 0xF5D3C79A EQ PUSH2 0x10BF JUMPI DUP1 PUSH4 0xF887EA40 EQ PUSH2 0x10DF JUMPI PUSH1 0x0 DUP1 REVERT JUMPDEST DUP1 PUSH4 0xE6DC4EBE EQ PUSH2 0xFE7 JUMPI DUP1 PUSH4 0xE7841EC0 EQ PUSH2 0x1007 JUMPI DUP1 PUSH4 0xF15D4E5D EQ PUSH2 0x101C JUMPI DUP1 PUSH4 0xF1C0DDFF EQ PUSH2 0x1032 JUMPI DUP1 PUSH4 0xF27FD254 EQ PUSH2 0x105F JUMPI DUP1 PUSH4 0xF287EADA EQ PUSH2 0x107F JUMPI PUSH1 0x0 DUP1 REVERT JUMPDEST DUP1 PUSH4 0xD5E37251 GT PUSH2 0x139 JUMPI DUP1 PUSH4 0xD5E37251 EQ PUSH2 0xF15 JUMPI DUP1 PUSH4 0xD8032ED3 EQ PUSH2 0xF35 JUMPI DUP1 PUSH4 0xDCF26B0F EQ PUSH2 0xF55 JUMPI DUP1 PUSH4 0xDD62ED3E EQ PUSH2 0xF75 JUMPI DUP1 PUSH4 0xDF349C95 EQ PUSH2 0xFBB JUMPI DUP1 PUSH4 0xE2F45605 EQ PUSH2 0xFD1 JUMPI PUSH1 0x0 DUP1 REVERT JUMPDEST DUP1 PUSH4 0xB62496F5 EQ PUSH2 0xE45 JUMPI DUP1 PUSH4 0xB6DB29B6 EQ PUSH2 0xE75 JUMPI DUP1 PUSH4 0xB74E3B11 EQ PUSH2 0xE95 JUMPI DUP1 PUSH4 0xBA079D49 EQ PUSH2 0xEB5 JUMPI DUP1 PUSH4 0xBB4C9F0B EQ PUSH2 0xED5 JUMPI DUP1 PUSH4 0xD07A091C EQ PUSH2 0xEF5 JUMPI PUSH1 0x0 DUP1 REVERT JUMPDEST DUP1 PUSH4 0x9C1B8AF5 GT PUSH2 0x224 JUMPI DUP1 PUSH4 0xA8B9D240 GT PUSH2 0x1DD JUMPI DUP1 PUSH4 0xA8B9D240 EQ PUSH2 0xD2A JUMPI DUP1 PUSH4 0xA9059CBB EQ PUSH2 0xD4A JUMPI DUP1 PUSH4 0xAA4704F3 EQ PUSH2 0xD6A JUMPI DUP1 PUSH4 0xAD56C13C EQ PUSH2 0xDC2 JUMPI DUP1 PUSH4 0xADB873BD EQ PUSH2 0xE19 JUMPI DUP1 PUSH4 0xB4942988 EQ PUSH2 0xE2F JUMPI PUSH1 0x0 DUP1 REVERT JUMPDEST DUP1 PUSH4 0x9C1B8AF5 EQ PUSH2 0xC74 JUMPI DUP1 PUSH4 0x9C3372EA EQ PUSH2 0xC8A JUMPI DUP1 PUSH4 0x9CEFC1DA EQ PUSH2 0xCAA JUMPI DUP1 PUSH4 0x9EC1037E EQ PUSH2 0xCCA JUMPI DUP1 PUSH4 0xA457C2D7 EQ PUSH2 0xCEA JUMPI DUP1 PUSH4 0xA694FC3A EQ PUSH2 0xD0A JUMPI PUSH1 0x0 DUP1 REVERT JUMPDEST DUP1 PUSH4 0x8A8C523C GT PUSH2 0x276 JUMPI DUP1 PUSH4 0x8A8C523C EQ PUSH2 0xBE0 JUMPI DUP1 PUSH4 0x8DA5CB5B EQ PUSH2 0xBF5 JUMPI DUP1 PUSH4 0x92136913 EQ PUSH2 0xC13 JUMPI DUP1 PUSH4 0x93D62BCE EQ PUSH2 0xC29 JUMPI DUP1 PUSH4 0x95D89B41 EQ PUSH2 0xC3F JUMPI DUP1 PUSH4 0x9A7A23D6 EQ PUSH2 0xC54 JUMPI PUSH1 0x0 DUP1 REVERT JUMPDEST DUP1 PUSH4 0x7D32F342 EQ PUSH2 0xB27 JUMPI DUP1 PUSH4 0x7FDDE05C EQ PUSH2 0xB54 JUMPI DUP1 PUSH4 0x84ADC5B3 EQ PUSH2 0xB74 JUMPI DUP1 PUSH4 0x84D4A9E3 EQ PUSH2 0xB8A JUMPI DUP1 PUSH4 0x868730C7 EQ PUSH2 0xBA0 JUMPI DUP1 PUSH4 0x871C128D EQ PUSH2 0xBC0 JUMPI PUSH1 0x0 DUP1 REVERT JUMPDEST DUP1 PUSH4 0x4A62BB65 GT PUSH2 0x405 JUMPI DUP1 PUSH4 0x6843CD84 GT PUSH2 0x36C JUMPI DUP1 PUSH4 0x72D8EDF4 GT PUSH2 0x325 JUMPI DUP1 PUSH4 0x72D8EDF4 EQ PUSH2 0xA85 JUMPI DUP1 PUSH4 0x7437681E EQ PUSH2 0xAA5 JUMPI DUP1 PUSH4 0x75829DEF EQ PUSH2 0xABB JUMPI DUP1 PUSH4 0x75F0A874 EQ PUSH2 0xADB JUMPI DUP1 PUSH4 0x7B0897AC EQ PUSH2 0xAFB JUMPI DUP1 PUSH4 0x7BCE5A04 EQ PUSH2 0xB11 JUMPI PUSH1 0x0 DUP1 REVERT JUMPDEST DUP1 PUSH4 0x6843CD84 EQ PUSH2 0x9DA JUMPI DUP1 PUSH4 0x68E9B874 EQ PUSH2 0x9FA JUMPI DUP1 PUSH4 0x6D48467B EQ PUSH2 0xA10 JUMPI DUP1 PUSH4 0x700BB191 EQ PUSH2 0xA30 JUMPI DUP1 PUSH4 0x70A08231 EQ PUSH2 0xA50 JUMPI DUP1 PUSH4 0x715018A6 EQ PUSH2 0xA70 JUMPI PUSH1 0x0 DUP1 REVERT JUMPDEST DUP1 PUSH4 0x5EBF4DB9 GT PUSH2 0x3BE JUMPI DUP1 PUSH4 0x5EBF4DB9 EQ PUSH2 0x916 JUMPI DUP1 PUSH4 0x5EEE4BAE EQ PUSH2 0x936 JUMPI DUP1 PUSH4 0x64B0F653 EQ PUSH2 0x956 JUMPI DUP1 PUSH4 0x658C27A9 EQ PUSH2 0x96B JUMPI DUP1 PUSH4 0x675B9366 EQ PUSH2 0x9A4 JUMPI DUP1 PUSH4 0x679CA6E9 EQ PUSH2 0x9BA JUMPI PUSH1 0x0 DUP1 REVERT JUMPDEST DUP1 PUSH4 0x4A62BB65 EQ PUSH2 0x853 JUMPI DUP1 PUSH4 0x4A74BB02 EQ PUSH2 0x86D JUMPI DUP1 PUSH4 0x4ADA218B EQ PUSH2 0x887 JUMPI DUP1 PUSH4 0x4E71D92D EQ PUSH2 0x8A8 JUMPI DUP1 PUSH4 0x4FBEE193 EQ PUSH2 0x8BD JUMPI DUP1 PUSH4 0x5A84C5EB EQ PUSH2 0x8F6 JUMPI PUSH1 0x0 DUP1 REVERT JUMPDEST DUP1 PUSH4 0x2307B441 GT PUSH2 0x4A9 JUMPI DUP1 PUSH4 0x3599BB17 GT PUSH2 0x462 JUMPI DUP1 PUSH4 0x3599BB17 EQ PUSH2 0x790 JUMPI DUP1 PUSH4 0x39509351 EQ PUSH2 0x7B0 JUMPI DUP1 PUSH4 0x3F407B84 EQ PUSH2 0x7D0 JUMPI DUP1 PUSH4 0x40FFDD80 EQ PUSH2 0x7E6 JUMPI DUP1 PUSH4 0x435C89E4 EQ PUSH2 0x806 JUMPI DUP1 PUSH4 0x49BD5A5E EQ PUSH2 0x833 JUMPI PUSH1 0x0 DUP1 REVERT JUMPDEST DUP1 PUSH4 0x2307B441 EQ PUSH2 0x6EA JUMPI DUP1 PUSH4 0x23B872DD EQ PUSH2 0x70A JUMPI DUP1 PUSH4 0x25CD3598 EQ PUSH2 0x72A JUMPI DUP1 PUSH4 0x2C1F5216 EQ PUSH2 0x73F JUMPI DUP1 PUSH4 0x30BB4CFF EQ PUSH2 0x75F JUMPI DUP1 PUSH4 0x313CE567 EQ PUSH2 0x774 JUMPI PUSH1 0x0 DUP1 REVERT JUMPDEST DUP1 PUSH4 0xEF35B7E GT PUSH2 0x4FB JUMPI DUP1 PUSH4 0xEF35B7E EQ PUSH2 0x63F JUMPI DUP1 PUSH4 0x1694505E EQ PUSH2 0x65F JUMPI DUP1 PUSH4 0x18160DDD EQ PUSH2 0x67F JUMPI DUP1 PUSH4 0x1D7B1FB4 EQ PUSH2 0x69E JUMPI DUP1 PUSH4 0x1EC32D15 EQ PUSH2 0x6B4 JUMPI DUP1 PUSH4 0x1FA70531 EQ PUSH2 0x6D4 JUMPI PUSH1 0x0 DUP1 REVERT JUMPDEST DUP1 PUSH4 0x3FD2A45 EQ PUSH2 0x54E JUMPI DUP1 PUSH4 0x5CA5F08 EQ PUSH2 0x58B JUMPI DUP1 PUSH4 0x6FDDE03 EQ PUSH2 0x5AD JUMPI DUP1 PUSH4 0x8DFE8A5 EQ PUSH2 0x5CF JUMPI DUP1 PUSH4 0x9231602 EQ PUSH2 0x5EF JUMPI DUP1 PUSH4 0x95EA7B3 EQ PUSH2 0x60F JUMPI PUSH1 0x0 DUP1 REVERT JUMPDEST CALLDATASIZE PUSH2 0x549 JUMPI STOP JUMPDEST PUSH1 0x0 DUP1 REVERT JUMPDEST CALLVALUE DUP1 ISZERO PUSH2 0x55A JUMPI PUSH1 0x0 DUP1 REVERT JUMPDEST POP PUSH1 0xA SLOAD PUSH2 0x56E SWAP1 PUSH1 0x1 PUSH1 0x1 PUSH1 0xA0 SHL SUB AND DUP2 JUMP JUMPDEST PUSH1 0x40 MLOAD PUSH1 0x1 PUSH1 0x1 PUSH1 0xA0 SHL SUB SWAP1 SWAP2 AND DUP2 MSTORE PUSH1 0x20 ADD JUMPDEST PUSH1 0x40 MLOAD DUP1 SWAP2 SUB SWAP1 RETURN JUMPDEST CALLVALUE DUP1 ISZERO PUSH2 0x597 JUMPI PUSH1 0x0 DUP1 REVERT JUMPDEST POP PUSH2 0x5AB PUSH2 0x5A6 CALLDATASIZE PUSH1 0x4 PUSH2 0x488B JUMP JUMPDEST PUSH2 0x1185 JUMP JUMPDEST STOP JUMPDEST CALLVALUE DUP1 ISZERO PUSH2 0x5B9 JUMPI PUSH1 0x0 DUP1 REVERT JUMPDEST POP PUSH2 0x5C2 PUSH2 0x1256 JUMP JUMPDEST PUSH1 0x40 MLOAD PUSH2 0x582 SWAP2 SWAP1 PUSH2 0x48A4 JUMP JUMPDEST CALLVALUE DUP1 ISZERO PUSH2 0x5DB JUMPI PUSH1 0x0 DUP1 REVERT JUMPDEST POP PUSH2 0x5AB PUSH2 0x5EA CALLDATASIZE PUSH1 0x4 PUSH2 0x491C JUMP JUMPDEST PUSH2 0x12E8 JUMP JUMPDEST CALLVALUE DUP1 ISZERO PUSH2 0x5FB JUMPI PUSH1 0x0 DUP1 REVERT JUMPDEST POP PUSH2 0x5AB PUSH2 0x60A CALLDATASIZE PUSH1 0x4 PUSH2 0x488B JUMP JUMPDEST PUSH2 0x1372 JUMP JUMPDEST CALLVALUE DUP1 ISZERO PUSH2 0x61B JUMPI PUSH1 0x0 DUP1 REVERT JUMPDEST POP PUSH2 0x62F PUSH2 0x62A CALLDATASIZE PUSH1 0x4 PUSH2 0x4955 JUMP JUMPDEST PUSH2 0x1401 JUMP JUMPDEST PUSH1 0x40 MLOAD SWAP1 ISZERO ISZERO DUP2 MSTORE PUSH1 0x20 ADD PUSH2 0x582 JUMP JUMPDEST CALLVALUE DUP1 ISZERO PUSH2 0x64B JUMPI PUSH1 0x0 DUP1 REVERT JUMPDEST POP PUSH2 0x5AB PUSH2 0x65A CALLDATASIZE PUSH1 0x4 PUSH2 0x4981 JUMP JUMPDEST PUSH2 0x1418 JUMP JUMPDEST CALLVALUE DUP1 ISZERO PUSH2 0x66B JUMPI PUSH1 0x0 DUP1 REVERT JUMPDEST POP PUSH1 0x6 SLOAD PUSH2 0x56E SWAP1 PUSH1 0x1 PUSH1 0x1 PUSH1 0xA0 SHL SUB AND DUP2 JUMP JUMPDEST CALLVALUE DUP1 ISZERO PUSH2 0x68B JUMPI PUSH1 0x0 DUP1 REVERT JUMPDEST POP PUSH1 0x2 SLOAD JUMPDEST PUSH1 0x40 MLOAD SWAP1 DUP2 MSTORE PUSH1 0x20 ADD PUSH2 0x582 JUMP JUMPDEST CALLVALUE DUP1 ISZERO PUSH2 0x6AA JUMPI PUSH1 0x0 DUP1 REVERT JUMPDEST POP PUSH2 0x690 PUSH1 0x31 SLOAD DUP2 JUMP JUMPDEST CALLVALUE DUP1 ISZERO PUSH2 0x6C0 JUMPI PUSH1 0x0 DUP1 REVERT JUMPDEST POP PUSH1 0xF SLOAD PUSH2 0x56E SWAP1 PUSH1 0x1 PUSH1 0x1 PUSH1 0xA0 SHL SUB AND DUP2 JUMP JUMPDEST CALLVALUE DUP1 ISZERO PUSH2 0x6E0 JUMPI PUSH1 0x0 DUP1 REVERT JUMPDEST POP PUSH2 0x690 PUSH1 0xC SLOAD DUP2 JUMP JUMPDEST CALLVALUE DUP1 ISZERO PUSH2 0x6F6 JUMPI PUSH1 0x0 DUP1 REVERT JUMPDEST POP PUSH2 0x5AB PUSH2 0x705 CALLDATASIZE PUSH1 0x4 PUSH2 0x4A79 JUMP JUMPDEST PUSH2 0x14FD JUMP JUMPDEST CALLVALUE DUP1 ISZERO PUSH2 0x716 JUMPI PUSH1 0x0 DUP1 REVERT JUMPDEST POP PUSH2 0x62F PUSH2 0x725 CALLDATASIZE PUSH1 0x4 PUSH2 0x4B3B JUMP JUMPDEST PUSH2 0x16CE JUMP JUMPDEST CALLVALUE DUP1 ISZERO PUSH2 0x736 JUMPI PUSH1 0x0 DUP1 REVERT JUMPDEST POP PUSH2 0x56E PUSH2 0x1737 JUMP JUMPDEST CALLVALUE DUP1 ISZERO PUSH2 0x74B JUMPI PUSH1 0x0 DUP1 REVERT JUMPDEST POP PUSH1 0xD SLOAD PUSH2 0x56E SWAP1 PUSH1 0x1 PUSH1 0x1 PUSH1 0xA0 SHL SUB AND DUP2 JUMP JUMPDEST CALLVALUE DUP1 ISZERO PUSH2 0x76B JUMPI PUSH1 0x0 DUP1 REVERT JUMPDEST POP PUSH2 0x690 PUSH2 0x17AA JUMP JUMPDEST CALLVALUE DUP1 ISZERO PUSH2 0x780 JUMPI PUSH1 0x0 DUP1 REVERT JUMPDEST POP PUSH1 0x40 MLOAD PUSH1 0x12 DUP2 MSTORE PUSH1 0x20 ADD PUSH2 0x582 JUMP JUMPDEST CALLVALUE DUP1 ISZERO PUSH2 0x79C JUMPI PUSH1 0x0 DUP1 REVERT JUMPDEST POP PUSH2 0x5AB PUSH2 0x7AB CALLDATASIZE PUSH1 0x4 PUSH2 0x4B7C JUMP JUMPDEST PUSH2 0x1818 JUMP JUMPDEST CALLVALUE DUP1 ISZERO PUSH2 0x7BC JUMPI PUSH1 0x0 DUP1 REVERT JUMPDEST POP PUSH2 0x62F PUSH2 0x7CB CALLDATASIZE PUSH1 0x4 PUSH2 0x4955 JUMP JUMPDEST PUSH2 0x18A5 JUMP JUMPDEST CALLVALUE DUP1 ISZERO PUSH2 0x7DC JUMPI PUSH1 0x0 DUP1 REVERT JUMPDEST POP PUSH2 0x690 PUSH1 0xB SLOAD DUP2 JUMP JUMPDEST CALLVALUE DUP1 ISZERO PUSH2 0x7F2 JUMPI PUSH1 0x0 DUP1 REVERT JUMPDEST POP PUSH2 0x5AB PUSH2 0x801 CALLDATASIZE PUSH1 0x4 PUSH2 0x4B7C JUMP JUMPDEST PUSH2 0x18DB JUMP JUMPDEST CALLVALUE DUP1 ISZERO PUSH2 0x812 JUMPI PUSH1 0x0 DUP1 REVERT JUMPDEST POP PUSH2 0x690 PUSH2 0x821 CALLDATASIZE PUSH1 0x4 PUSH2 0x488B JUMP JUMPDEST PUSH1 0x2A PUSH1 0x20 MSTORE PUSH1 0x0 SWAP1 DUP2 MSTORE PUSH1 0x40 SWAP1 KECCAK256 SLOAD DUP2 JUMP JUMPDEST CALLVALUE DUP1 ISZERO PUSH2 0x83F JUMPI PUSH1 0x0 DUP1 REVERT JUMPDEST POP PUSH1 0x9 SLOAD PUSH2 0x56E SWAP1 PUSH1 0x1 PUSH1 0x1 PUSH1 0xA0 SHL SUB AND DUP2 JUMP JUMPDEST CALLVALUE DUP1 ISZERO PUSH2 0x85F JUMPI PUSH1 0x0 DUP1 REVERT JUMPDEST POP PUSH1 0x2C SLOAD PUSH2 0x62F SWAP1 PUSH1 0xFF AND DUP2 JUMP JUMPDEST CALLVALUE DUP1 ISZERO PUSH2 0x879 JUMPI PUSH1 0x0 DUP1 REVERT JUMPDEST POP PUSH1 0x22 SLOAD PUSH2 0x62F SWAP1 PUSH1 0xFF AND DUP2 JUMP JUMPDEST CALLVALUE DUP1 ISZERO PUSH2 0x893 JUMPI PUSH1 0x0 DUP1 REVERT JUMPDEST POP PUSH1 0xA SLOAD PUSH2 0x62F SWAP1 PUSH1 0x1 PUSH1 0xB0 SHL SWAP1 DIV PUSH1 0xFF AND DUP2 JUMP JUMPDEST CALLVALUE DUP1 ISZERO PUSH2 0x8B4 JUMPI PUSH1 0x0 DUP1 REVERT JUMPDEST POP PUSH2 0x5AB PUSH2 0x1936 JUMP JUMPDEST CALLVALUE DUP1 ISZERO PUSH2 0x8C9 JUMPI PUSH1 0x0 DUP1 REVERT JUMPDEST POP PUSH2 0x62F PUSH2 0x8D8 CALLDATASIZE PUSH1 0x4 PUSH2 0x4B99 JUMP JUMPDEST PUSH1 0x1 PUSH1 0x1 PUSH1 0xA0 SHL SUB AND PUSH1 0x0 SWAP1 DUP2 MSTORE PUSH1 0x24 PUSH1 0x20 MSTORE PUSH1 0x40 SWAP1 KECCAK256 SLOAD PUSH1 0xFF AND SWAP1 JUMP JUMPDEST CALLVALUE DUP1 ISZERO PUSH2 0x902 JUMPI PUSH1 0x0 DUP1 REVERT JUMPDEST POP PUSH2 0x5AB PUSH2 0x911 CALLDATASIZE PUSH1 0x4 PUSH2 0x488B JUMP JUMPDEST PUSH2 0x19AE JUMP JUMPDEST CALLVALUE DUP1 ISZERO PUSH2 0x922 JUMPI PUSH1 0x0 DUP1 REVERT JUMPDEST POP PUSH2 0x5AB PUSH2 0x931 CALLDATASIZE PUSH1 0x4 PUSH2 0x488B JUMP JUMPDEST PUSH2 0x1A09 JUMP JUMPDEST CALLVALUE DUP1 ISZERO PUSH2 0x942 JUMPI PUSH1 0x0 DUP1 REVERT JUMPDEST POP PUSH2 0x5AB PUSH2 0x951 CALLDATASIZE PUSH1 0x4 PUSH2 0x488B JUMP JUMPDEST PUSH2 0x1A64 JUMP JUMPDEST CALLVALUE DUP1 ISZERO PUSH2 0x962 JUMPI PUSH1 0x0 DUP1 REVERT JUMPDEST POP PUSH2 0x690 PUSH2 0x1AA6 JUMP JUMPDEST CALLVALUE DUP1 ISZERO PUSH2 0x977 JUMPI PUSH1 0x0 DUP1 REVERT JUMPDEST POP PUSH2 0x62F PUSH2 0x986 CALLDATASIZE PUSH1 0x4 PUSH2 0x4B99 JUMP JUMPDEST PUSH1 0x1 PUSH1 0x1 PUSH1 0xA0 SHL SUB AND PUSH1 0x0 SWAP1 DUP2 MSTORE PUSH1 0x25 PUSH1 0x20 MSTORE PUSH1 0x40 SWAP1 KECCAK256 SLOAD PUSH1 0xFF AND SWAP1 JUMP JUMPDEST CALLVALUE DUP1 ISZERO PUSH2 0x9B0 JUMPI PUSH1 0x0 DUP1 REVERT JUMPDEST POP PUSH2 0x690 PUSH1 0x1D SLOAD DUP2 JUMP JUMPDEST CALLVALUE DUP1 ISZERO PUSH2 0x9C6 JUMPI PUSH1 0x0 DUP1 REVERT JUMPDEST POP PUSH2 0x5AB PUSH2 0x9D5 CALLDATASIZE PUSH1 0x4 PUSH2 0x4B7C JUMP JUMPDEST PUSH2 0x1AF0 JUMP JUMPDEST CALLVALUE DUP1 ISZERO PUSH2 0x9E6 JUMPI PUSH1 0x0 DUP1 REVERT JUMPDEST POP PUSH2 0x690 PUSH2 0x9F5 CALLDATASIZE PUSH1 0x4 PUSH2 0x4B99 JUMP JUMPDEST PUSH2 0x1B2D JUMP JUMPDEST CALLVALUE DUP1 ISZERO PUSH2 0xA06 JUMPI PUSH1 0x0 DUP1 REVERT JUMPDEST POP PUSH2 0x690 PUSH1 0x1B SLOAD DUP2 JUMP JUMPDEST CALLVALUE DUP1 ISZERO PUSH2 0xA1C JUMPI PUSH1 0x0 DUP1 REVERT JUMPDEST POP PUSH2 0x62F PUSH2 0xA2B CALLDATASIZE PUSH1 0x4 PUSH2 0x4B99 JUMP JUMPDEST PUSH2 0x1B9D JUMP JUMPDEST CALLVALUE DUP1 ISZERO PUSH2 0xA3C JUMPI PUSH1 0x0 DUP1 REVERT JUMPDEST POP PUSH2 0x5AB PUSH2 0xA4B CALLDATASIZE PUSH1 0x4 PUSH2 0x488B JUMP JUMPDEST PUSH2 0x1C0D JUMP JUMPDEST CALLVALUE DUP1 ISZERO PUSH2 0xA5C JUMPI PUSH1 0x0 DUP1 REVERT JUMPDEST POP PUSH2 0x690 PUSH2 0xA6B CALLDATASIZE PUSH1 0x4 PUSH2 0x4B99 JUMP JUMPDEST PUSH2 0x1CDF JUMP JUMPDEST CALLVALUE DUP1 ISZERO PUSH2 0xA7C JUMPI PUSH1 0x0 DUP1 REVERT JUMPDEST POP PUSH2 0x5AB PUSH2 0x1CFA JUMP JUMPDEST CALLVALUE DUP1 ISZERO PUSH2 0xA91 JUMPI PUSH1 0x0 DUP1 REVERT JUMPDEST POP PUSH2 0x5AB PUSH2 0xAA0 CALLDATASIZE PUSH1 0x4 PUSH2 0x4B99 JUMP JUMPDEST PUSH2 0x1D6E JUMP JUMPDEST CALLVALUE DUP1 ISZERO PUSH2 0xAB1 JUMPI PUSH1 0x0 DUP1 REVERT JUMPDEST POP PUSH2 0x690 PUSH1 0x13 SLOAD DUP2 JUMP JUMPDEST CALLVALUE DUP1 ISZERO PUSH2 0xAC7 JUMPI PUSH1 0x0 DUP1 REVERT JUMPDEST POP PUSH2 0x5AB PUSH2 0xAD6 CALLDATASIZE PUSH1 0x4 PUSH2 0x4B99 JUMP JUMPDEST PUSH2 0x1DCA JUMP JUMPDEST CALLVALUE DUP1 ISZERO PUSH2 0xAE7 JUMPI PUSH1 0x0 DUP1 REVERT JUMPDEST POP PUSH1 0xE SLOAD PUSH2 0x56E SWAP1 PUSH1 0x1 PUSH1 0x1 PUSH1 0xA0 SHL SUB AND DUP2 JUMP JUMPDEST CALLVALUE DUP1 ISZERO PUSH2 0xB07 JUMPI PUSH1 0x0 DUP1 REVERT JUMPDEST POP PUSH2 0x690 PUSH1 0x15 SLOAD DUP2 JUMP JUMPDEST CALLVALUE DUP1 ISZERO PUSH2 0xB1D JUMPI PUSH1 0x0 DUP1 REVERT JUMPDEST POP PUSH2 0x690 PUSH1 0x1C SLOAD DUP2 JUMP JUMPDEST CALLVALUE DUP1 ISZERO PUSH2 0xB33 JUMPI PUSH1 0x0 DUP1 REVERT JUMPDEST POP PUSH2 0x690 PUSH2 0xB42 CALLDATASIZE PUSH1 0x4 PUSH2 0x4B99 JUMP JUMPDEST PUSH1 0x29 PUSH1 0x20 MSTORE PUSH1 0x0 SWAP1 DUP2 MSTORE PUSH1 0x40 SWAP1 KECCAK256 SLOAD DUP2 JUMP JUMPDEST CALLVALUE DUP1 ISZERO PUSH2 0xB60 JUMPI PUSH1 0x0 DUP1 REVERT JUMPDEST POP PUSH2 0x5AB PUSH2 0xB6F CALLDATASIZE PUSH1 0x4 PUSH2 0x491C JUMP JUMPDEST PUSH2 0x1E97 JUMP JUMPDEST CALLVALUE DUP1 ISZERO PUSH2 0xB80 JUMPI PUSH1 0x0 DUP1 REVERT JUMPDEST POP PUSH2 0x690 PUSH1 0x18 SLOAD DUP2 JUMP JUMPDEST CALLVALUE DUP1 ISZERO PUSH2 0xB96 JUMPI PUSH1 0x0 DUP1 REVERT JUMPDEST POP PUSH2 0x690 PUSH1 0x1E SLOAD DUP2 JUMP JUMPDEST CALLVALUE DUP1 ISZERO PUSH2 0xBAC JUMPI PUSH1 0x0 DUP1 REVERT JUMPDEST POP PUSH2 0x5AB PUSH2 0xBBB CALLDATASIZE PUSH1 0x4 PUSH2 0x4B7C JUMP JUMPDEST PUSH2 0x1EEC JUMP JUMPDEST CALLVALUE DUP1 ISZERO PUSH2 0xBCC JUMPI PUSH1 0x0 DUP1 REVERT JUMPDEST POP PUSH2 0x5AB PUSH2 0xBDB CALLDATASIZE PUSH1 0x4 PUSH2 0x488B JUMP JUMPDEST PUSH2 0x1F24 JUMP JUMPDEST CALLVALUE DUP1 ISZERO PUSH2 0xBEC JUMPI PUSH1 0x0 DUP1 REVERT JUMPDEST POP PUSH2 0x5AB PUSH2 0x1FA0 JUMP JUMPDEST CALLVALUE DUP1 ISZERO PUSH2 0xC01 JUMPI PUSH1 0x0 DUP1 REVERT JUMPDEST POP PUSH1 0x5 SLOAD PUSH1 0x1 PUSH1 0x1 PUSH1 0xA0 SHL SUB AND PUSH2 0x56E JUMP JUMPDEST CALLVALUE DUP1 ISZERO PUSH2 0xC1F JUMPI PUSH1 0x0 DUP1 REVERT JUMPDEST POP PUSH2 0x690 PUSH1 0x17 SLOAD DUP2 JUMP JUMPDEST CALLVALUE DUP1 ISZERO PUSH2 0xC35 JUMPI PUSH1 0x0 DUP1 REVERT JUMPDEST POP PUSH2 0x690 PUSH1 0x1F SLOAD DUP2 JUMP JUMPDEST CALLVALUE DUP1 ISZERO PUSH2 0xC4B JUMPI PUSH1 0x0 DUP1 REVERT JUMPDEST POP PUSH2 0x5C2 PUSH2 0x2023 JUMP JUMPDEST CALLVALUE DUP1 ISZERO PUSH2 0xC60 JUMPI PUSH1 0x0 DUP1 REVERT JUMPDEST POP PUSH2 0x5AB PUSH2 0xC6F CALLDATASIZE PUSH1 0x4 PUSH2 0x491C JUMP JUMPDEST PUSH2 0x2032 JUMP JUMPDEST CALLVALUE DUP1 ISZERO PUSH2 0xC80 JUMPI PUSH1 0x0 DUP1 REVERT JUMPDEST POP PUSH2 0x690 PUSH1 0x23 SLOAD DUP2 JUMP JUMPDEST CALLVALUE DUP1 ISZERO PUSH2 0xC96 JUMPI PUSH1 0x0 DUP1 REVERT JUMPDEST POP PUSH2 0x5AB PUSH2 0xCA5 CALLDATASIZE PUSH1 0x4 PUSH2 0x4B7C JUMP JUMPDEST PUSH2 0x206A JUMP JUMPDEST CALLVALUE DUP1 ISZERO PUSH2 0xCB6 JUMPI PUSH1 0x0 DUP1 REVERT JUMPDEST POP PUSH2 0x5AB PUSH2 0xCC5 CALLDATASIZE PUSH1 0x4 PUSH2 0x4B7C JUMP JUMPDEST PUSH2 0x20C6 JUMP JUMPDEST CALLVALUE DUP1 ISZERO PUSH2 0xCD6 JUMPI PUSH1 0x0 DUP1 REVERT JUMPDEST POP PUSH2 0x5AB PUSH2 0xCE5 CALLDATASIZE PUSH1 0x4 PUSH2 0x4B99 JUMP JUMPDEST PUSH2 0x2167 JUMP JUMPDEST CALLVALUE DUP1 ISZERO PUSH2 0xCF6 JUMPI PUSH1 0x0 DUP1 REVERT JUMPDEST POP PUSH2 0x62F PUSH2 0xD05 CALLDATASIZE PUSH1 0x4 PUSH2 0x4955 JUMP JUMPDEST PUSH2 0x223E JUMP JUMPDEST CALLVALUE DUP1 ISZERO PUSH2 0xD16 JUMPI PUSH1 0x0 DUP1 REVERT JUMPDEST POP PUSH2 0x5AB PUSH2 0xD25 CALLDATASIZE PUSH1 0x4 PUSH2 0x488B JUMP JUMPDEST PUSH2 0x228D JUMP JUMPDEST CALLVALUE DUP1 ISZERO PUSH2 0xD36 JUMPI PUSH1 0x0 DUP1 REVERT JUMPDEST POP PUSH2 0x690 PUSH2 0xD45 CALLDATASIZE PUSH1 0x4 PUSH2 0x4B99 JUMP JUMPDEST PUSH2 0x24B0 JUMP JUMPDEST CALLVALUE DUP1 ISZERO PUSH2 0xD56 JUMPI PUSH1 0x0 DUP1 REVERT JUMPDEST POP PUSH2 0x62F PUSH2 0xD65 CALLDATASIZE PUSH1 0x4 PUSH2 0x4955 JUMP JUMPDEST PUSH2 0x24E3 JUMP JUMPDEST CALLVALUE DUP1 ISZERO PUSH2 0xD76 JUMPI PUSH1 0x0 DUP1 REVERT JUMPDEST POP PUSH2 0xDAD PUSH2 0xD85 CALLDATASIZE PUSH1 0x4 PUSH2 0x4B99 JUMP JUMPDEST PUSH1 0x1 PUSH1 0x1 PUSH1 0xA0 SHL SUB AND PUSH1 0x0 SWAP1 DUP2 MSTORE PUSH1 0x29 PUSH1 0x20 SWAP1 DUP2 MSTORE PUSH1 0x40 DUP1 DUP4 KECCAK256 SLOAD PUSH1 0x28 SWAP1 SWAP3 MSTORE SWAP1 SWAP2 KECCAK256 SLOAD SWAP1 SWAP2 JUMP JUMPDEST PUSH1 0x40 DUP1 MLOAD SWAP3 DUP4 MSTORE PUSH1 0x20 DUP4 ADD SWAP2 SWAP1 SWAP2 MSTORE ADD PUSH2 0x582 JUMP JUMPDEST CALLVALUE DUP1 ISZERO PUSH2 0xDCE JUMPI PUSH1 0x0 DUP1 REVERT JUMPDEST POP PUSH2 0xDE2 PUSH2 0xDDD CALLDATASIZE PUSH1 0x4 PUSH2 0x4B99 JUMP JUMPDEST PUSH2 0x24F0 JUMP JUMPDEST PUSH1 0x40 DUP1 MLOAD PUSH1 0x1 PUSH1 0x1 PUSH1 0xA0 SHL SUB SWAP1 SWAP8 AND DUP8 MSTORE PUSH1 0x20 DUP8 ADD SWAP6 SWAP1 SWAP6 MSTORE SWAP4 DUP6 ADD SWAP3 SWAP1 SWAP3 MSTORE PUSH1 0x60 DUP5 ADD MSTORE PUSH1 0x80 DUP4 ADD MSTORE PUSH1 0xA0 DUP3 ADD MSTORE PUSH1 0xC0 ADD PUSH2 0x582 JUMP JUMPDEST CALLVALUE DUP1 ISZERO PUSH2 0xE25 JUMPI PUSH1 0x0 DUP1 REVERT JUMPDEST POP PUSH2 0x690 PUSH1 0x1A SLOAD DUP2 JUMP JUMPDEST CALLVALUE DUP1 ISZERO PUSH2 0xE3B JUMPI PUSH1 0x0 DUP1 REVERT JUMPDEST POP PUSH2 0x690 PUSH1 0x30 SLOAD DUP2 JUMP JUMPDEST CALLVALUE DUP1 ISZERO PUSH2 0xE51 JUMPI PUSH1 0x0 DUP1 REVERT JUMPDEST POP PUSH2 0x62F PUSH2 0xE60 CALLDATASIZE PUSH1 0x4 PUSH2 0x4B99 JUMP JUMPDEST PUSH1 0x27 PUSH1 0x20 MSTORE PUSH1 0x0 SWAP1 DUP2 MSTORE PUSH1 0x40 SWAP1 KECCAK256 SLOAD PUSH1 0xFF AND DUP2 JUMP JUMPDEST CALLVALUE DUP1 ISZERO PUSH2 0xE81 JUMPI PUSH1 0x0 DUP1 REVERT JUMPDEST POP PUSH2 0x5AB PUSH2 0xE90 CALLDATASIZE PUSH1 0x4 PUSH2 0x4BB6 JUMP JUMPDEST PUSH2 0x2580 JUMP JUMPDEST CALLVALUE DUP1 ISZERO PUSH2 0xEA1 JUMPI PUSH1 0x0 DUP1 REVERT JUMPDEST POP PUSH2 0x5AB PUSH2 0xEB0 CALLDATASIZE PUSH1 0x4 PUSH2 0x488B JUMP JUMPDEST PUSH2 0x2778 JUMP JUMPDEST CALLVALUE DUP1 ISZERO PUSH2 0xEC1 JUMPI PUSH1 0x0 DUP1 REVERT JUMPDEST POP PUSH2 0x62F PUSH2 0xED0 CALLDATASIZE PUSH1 0x4 PUSH2 0x4B99 JUMP JUMPDEST PUSH2 0x2808 JUMP JUMPDEST CALLVALUE DUP1 ISZERO PUSH2 0xEE1 JUMPI PUSH1 0x0 DUP1 REVERT JUMPDEST POP PUSH2 0x5AB PUSH2 0xEF0 CALLDATASIZE PUSH1 0x4 PUSH2 0x4A79 JUMP JUMPDEST PUSH2 0x283B JUMP JUMPDEST CALLVALUE DUP1 ISZERO PUSH2 0xF01 JUMPI PUSH1 0x0 DUP1 REVERT JUMPDEST POP PUSH2 0x5AB PUSH2 0xF10 CALLDATASIZE PUSH1 0x4 PUSH2 0x4B99 JUMP JUMPDEST PUSH2 0x2CE8 JUMP JUMPDEST CALLVALUE DUP1 ISZERO PUSH2 0xF21 JUMPI PUSH1 0x0 DUP1 REVERT JUMPDEST POP PUSH2 0x5AB PUSH2 0xF30 CALLDATASIZE PUSH1 0x4 PUSH2 0x4B7C JUMP JUMPDEST PUSH2 0x2DDD JUMP JUMPDEST CALLVALUE DUP1 ISZERO PUSH2 0xF41 JUMPI PUSH1 0x0 DUP1 REVERT JUMPDEST POP PUSH2 0x5AB PUSH2 0xF50 CALLDATASIZE PUSH1 0x4 PUSH2 0x4B99 JUMP JUMPDEST PUSH2 0x2E5F JUMP JUMPDEST CALLVALUE DUP1 ISZERO PUSH2 0xF61 JUMPI PUSH1 0x0 DUP1 REVERT JUMPDEST POP PUSH2 0x5AB PUSH2 0xF70 CALLDATASIZE PUSH1 0x4 PUSH2 0x491C JUMP JUMPDEST PUSH2 0x2F22 JUMP JUMPDEST CALLVALUE DUP1 ISZERO PUSH2 0xF81 JUMPI PUSH1 0x0 DUP1 REVERT JUMPDEST POP PUSH2 0x690 PUSH2 0xF90 CALLDATASIZE PUSH1 0x4 PUSH2 0x4C28 JUMP JUMPDEST PUSH1 0x1 PUSH1 0x1 PUSH1 0xA0 SHL SUB SWAP2 DUP3 AND PUSH1 0x0 SWAP1 DUP2 MSTORE PUSH1 0x1 PUSH1 0x20 SWAP1 DUP2 MSTORE PUSH1 0x40 DUP1 DUP4 KECCAK256 SWAP4 SWAP1 SWAP5 AND DUP3 MSTORE SWAP2 SWAP1 SWAP2 MSTORE KECCAK256 SLOAD SWAP1 JUMP JUMPDEST CALLVALUE DUP1 ISZERO PUSH2 0xFC7 JUMPI PUSH1 0x0 DUP1 REVERT JUMPDEST POP PUSH2 0x690 PUSH1 0x19 SLOAD DUP2 JUMP JUMPDEST CALLVALUE DUP1 ISZERO PUSH2 0xFDD JUMPI PUSH1 0x0 DUP1 REVERT JUMPDEST POP PUSH2 0x690 PUSH1 0x14 SLOAD DUP2 JUMP JUMPDEST CALLVALUE DUP1 ISZERO PUSH2 0xFF3 JUMPI PUSH1 0x0 DUP1 REVERT JUMPDEST POP PUSH1 0x11 SLOAD PUSH2 0x56E SWAP1 PUSH1 0x1 PUSH1 0x1 PUSH1 0xA0 SHL SUB AND DUP2 JUMP JUMPDEST CALLVALUE DUP1 ISZERO PUSH2 0x1013 JUMPI PUSH1 0x0 DUP1 REVERT JUMPDEST POP PUSH2 0x690 PUSH2 0x2FA4 JUMP JUMPDEST CALLVALUE DUP1 ISZERO PUSH2 0x1028 JUMPI PUSH1 0x0 DUP1 REVERT JUMPDEST POP PUSH2 0x690 PUSH1 0x16 SLOAD DUP2 JUMP JUMPDEST CALLVALUE DUP1 ISZERO PUSH2 0x103E JUMPI PUSH1 0x0 DUP1 REVERT JUMPDEST POP PUSH2 0x690 PUSH2 0x104D CALLDATASIZE PUSH1 0x4 PUSH2 0x4B99 JUMP JUMPDEST PUSH1 0x28 PUSH1 0x20 MSTORE PUSH1 0x0 SWAP1 DUP2 MSTORE PUSH1 0x40 SWAP1 KECCAK256 SLOAD DUP2 JUMP JUMPDEST CALLVALUE DUP1 ISZERO PUSH2 0x106B JUMPI PUSH1 0x0 DUP1 REVERT JUMPDEST POP PUSH2 0xDE2 PUSH2 0x107A CALLDATASIZE PUSH1 0x4 PUSH2 0x488B JUMP JUMPDEST PUSH2 0x2FEE JUMP JUMPDEST CALLVALUE DUP1 ISZERO PUSH2 0x108B JUMPI PUSH1 0x0 DUP1 REVERT JUMPDEST POP PUSH1 0x10 SLOAD PUSH2 0x56E SWAP1 PUSH1 0x1 PUSH1 0x1 PUSH1 0xA0 SHL SUB AND DUP2 JUMP JUMPDEST CALLVALUE DUP1 ISZERO PUSH2 0x10AB JUMPI PUSH1 0x0 DUP1 REVERT JUMPDEST POP PUSH2 0x5AB PUSH2 0x10BA CALLDATASIZE PUSH1 0x4 PUSH2 0x4B99 JUMP JUMPDEST PUSH2 0x302C JUMP JUMPDEST CALLVALUE DUP1 ISZERO PUSH2 0x10CB JUMPI PUSH1 0x0 DUP1 REVERT JUMPDEST POP PUSH2 0x5AB PUSH2 0x10DA CALLDATASIZE PUSH1 0x4 PUSH2 0x4B7C JUMP JUMPDEST PUSH2 0x3117 JUMP JUMPDEST CALLVALUE DUP1 ISZERO PUSH2 0x10EB JUMPI PUSH1 0x0 DUP1 REVERT JUMPDEST POP PUSH1 0x8 SLOAD PUSH2 0x56E SWAP1 PUSH1 0x1 PUSH1 0x1 PUSH1 0xA0 SHL SUB AND DUP2 JUMP JUMPDEST CALLVALUE DUP1 ISZERO PUSH2 0x110B JUMPI PUSH1 0x0 DUP1 REVERT JUMPDEST POP PUSH2 0x690 PUSH1 0x12 SLOAD DUP2 JUMP JUMPDEST CALLVALUE DUP1 ISZERO PUSH2 0x1121 JUMPI PUSH1 0x0 DUP1 REVERT JUMPDEST POP PUSH2 0x5AB PUSH2 0x1130 CALLDATASIZE PUSH1 0x4 PUSH2 0x4B99 JUMP JUMPDEST PUSH2 0x314F JUMP JUMPDEST CALLVALUE DUP1 ISZERO PUSH2 0x1141 JUMPI PUSH1 0x0 DUP1 REVERT JUMPDEST POP PUSH2 0x5AB PUSH2 0x1150 CALLDATASIZE PUSH1 0x4 PUSH2 0x488B JUMP JUMPDEST PUSH2 0x319D JUMP JUMPDEST CALLVALUE DUP1 ISZERO PUSH2 0x1161 JUMPI PUSH1 0x0 DUP1 REVERT JUMPDEST POP PUSH2 0x62F PUSH2 0x1170 CALLDATASIZE PUSH1 0x4 PUSH2 0x4B99 JUMP JUMPDEST PUSH1 0x26 PUSH1 0x20 MSTORE PUSH1 0x0 SWAP1 DUP2 MSTORE PUSH1 0x40 SWAP1 KECCAK256 SLOAD PUSH1 0xFF AND DUP2 JUMP JUMPDEST PUSH1 0x5 SLOAD PUSH1 0x1 PUSH1 0x1 PUSH1 0xA0 SHL SUB AND CALLER EQ PUSH2 0x11B8 JUMPI PUSH1 0x40 MLOAD PUSH3 0x461BCD PUSH1 0xE5 SHL DUP2 MSTORE PUSH1 0x4 ADD PUSH2 0x11AF SWAP1 PUSH2 0x4C56 JUMP JUMPDEST PUSH1 0x40 MLOAD DUP1 SWAP2 SUB SWAP1 REVERT JUMPDEST PUSH2 0x11CA DUP2 PUSH8 0xDE0B6B3A7640000 PUSH2 0x4CA1 JUMP JUMPDEST SWAP1 POP PUSH1 0x0 PUSH2 0x11E5 PUSH1 0xB SLOAD PUSH1 0xC SLOAD PUSH2 0x3253 SWAP1 SWAP2 SWAP1 PUSH4 0xFFFFFFFF AND JUMP JUMPDEST SWAP1 POP PUSH1 0x0 PUSH2 0x1208 DUP3 PUSH2 0x1202 PUSH1 0xC SLOAD DUP7 PUSH2 0x32B9 SWAP1 SWAP2 SWAP1 PUSH4 0xFFFFFFFF AND JUMP JUMPDEST SWAP1 PUSH2 0x333B JUMP JUMPDEST SWAP1 POP PUSH1 0x0 PUSH2 0x1225 DUP4 PUSH2 0x1202 PUSH1 0xB SLOAD DUP8 PUSH2 0x32B9 SWAP1 SWAP2 SWAP1 PUSH4 0xFFFFFFFF AND JUMP JUMPDEST SWAP1 POP PUSH2 0x1230 DUP5 PUSH2 0x337D JUMP JUMPDEST PUSH1 0xC SLOAD PUSH2 0x123D SWAP1 DUP4 PUSH2 0x3750 JUMP JUMPDEST PUSH1 0xC SSTORE PUSH1 0xB SLOAD PUSH2 0x124D SWAP1 DUP3 PUSH2 0x3750 JUMP JUMPDEST PUSH1 0xB SSTORE POP POP POP POP JUMP JUMPDEST PUSH1 0x60 PUSH1 0x3 DUP1 SLOAD PUSH2 0x1265 SWAP1 PUSH2 0x4CC0 JUMP JUMPDEST DUP1 PUSH1 0x1F ADD PUSH1 0x20 DUP1 SWAP2 DIV MUL PUSH1 0x20 ADD PUSH1 0x40 MLOAD SWAP1 DUP2 ADD PUSH1 0x40 MSTORE DUP1 SWAP3 SWAP2 SWAP1 DUP2 DUP2 MSTORE PUSH1 0x20 ADD DUP3 DUP1 SLOAD PUSH2 0x1291 SWAP1 PUSH2 0x4CC0 JUMP JUMPDEST DUP1 ISZERO PUSH2 0x12DE JUMPI DUP1 PUSH1 0x1F LT PUSH2 0x12B3 JUMPI PUSH2 0x100 DUP1 DUP4 SLOAD DIV MUL DUP4 MSTORE SWAP2 PUSH1 0x20 ADD SWAP2 PUSH2 0x12DE JUMP JUMPDEST DUP3 ADD SWAP2 SWAP1 PUSH1 0x0 MSTORE PUSH1 0x20 PUSH1 0x0 KECCAK256 SWAP1 JUMPDEST DUP2 SLOAD DUP2 MSTORE SWAP1 PUSH1 0x1 ADD SWAP1 PUSH1 0x20 ADD DUP1 DUP4 GT PUSH2 0x12C1 JUMPI DUP3 SWAP1 SUB PUSH1 0x1F AND DUP3 ADD SWAP2 JUMPDEST POP POP POP POP POP SWAP1 POP SWAP1 JUMP JUMPDEST PUSH1 0x5 SLOAD PUSH1 0x1 PUSH1 0x1 PUSH1 0xA0 SHL SUB AND CALLER EQ PUSH2 0x1312 JUMPI PUSH1 0x40 MLOAD PUSH3 0x461BCD PUSH1 0xE5 SHL DUP2 MSTORE PUSH1 0x4 ADD PUSH2 0x11AF SWAP1 PUSH2 0x4C56 JUMP JUMPDEST PUSH1 0x1 PUSH1 0x1 PUSH1 0xA0 SHL SUB DUP3 AND PUSH1 0x0 DUP2 DUP2 MSTORE PUSH1 0x24 PUSH1 0x20 SWAP1 DUP2 MSTORE PUSH1 0x40 SWAP2 DUP3 SWAP1 KECCAK256 DUP1 SLOAD PUSH1 0xFF NOT AND DUP6 ISZERO ISZERO SWAP1 DUP2 OR SWAP1 SWAP2 SSTORE SWAP2 MLOAD SWAP2 DUP3 MSTORE PUSH32 0x9D8F7706EA1113D1A167B526ECA956215946DD36CC7DF39EB16180222D8B5DF7 SWAP2 ADD JUMPDEST PUSH1 0x40 MLOAD DUP1 SWAP2 SUB SWAP1 LOG2 POP POP JUMP JUMPDEST PUSH1 0x5 SLOAD PUSH1 0x1 PUSH1 0x1 PUSH1 0xA0 SHL SUB AND CALLER EQ PUSH2 0x139C JUMPI PUSH1 0x40 MLOAD PUSH3 0x461BCD PUSH1 0xE5 SHL DUP2 MSTORE PUSH1 0x4 ADD PUSH2 0x11AF SWAP1 PUSH2 0x4C56 JUMP JUMPDEST PUSH1 0x5 DUP2 LT ISZERO PUSH2 0x13ED JUMPI PUSH1 0x40 MLOAD PUSH3 0x461BCD PUSH1 0xE5 SHL DUP2 MSTORE PUSH1 0x20 PUSH1 0x4 DUP3 ADD MSTORE PUSH1 0x18 PUSH1 0x24 DUP3 ADD MSTORE PUSH32 0x63616E206E65766572206265207365742062656C6F7720350000000000000000 PUSH1 0x44 DUP3 ADD MSTORE PUSH1 0x64 ADD PUSH2 0x11AF JUMP JUMPDEST PUSH2 0x13FB DUP2 PUSH4 0x3B9ACA00 PUSH2 0x4CA1 JUMP JUMPDEST PUSH1 0x2D SSTORE POP JUMP JUMPDEST PUSH1 0x0 PUSH2 0x140E CALLER DUP5 DUP5 PUSH2 0x3792 JUMP JUMPDEST POP PUSH1 0x1 JUMPDEST SWAP3 SWAP2 POP POP JUMP JUMPDEST PUSH1 0x5 SLOAD PUSH1 0x1 PUSH1 0x1 PUSH1 0xA0 SHL SUB AND CALLER EQ PUSH2 0x1442 JUMPI PUSH1 0x40 MLOAD PUSH3 0x461BCD PUSH1 0xE5 SHL DUP2 MSTORE PUSH1 0x4 ADD PUSH2 0x11AF SWAP1 PUSH2 0x4C56 JUMP JUMPDEST PUSH1 0x0 DUP3 DUP2 MSTORE PUSH1 0x2A PUSH1 0x20 MSTORE PUSH1 0x40 SWAP1 KECCAK256 SLOAD DUP2 SWAP1 SUB PUSH2 0x145D JUMPI PUSH1 0x0 DUP1 REVERT JUMPDEST PUSH1 0x64 DUP2 GT ISZERO PUSH2 0x14AE JUMPI PUSH1 0x40 MLOAD PUSH3 0x461BCD PUSH1 0xE5 SHL DUP2 MSTORE PUSH1 0x20 PUSH1 0x4 DUP3 ADD MSTORE PUSH1 0x1E PUSH1 0x24 DUP3 ADD MSTORE PUSH32 0x5374616B696E6720626F6E75732063616E277420657863656564203130300000 PUSH1 0x44 DUP3 ADD MSTORE PUSH1 0x64 ADD PUSH2 0x11AF JUMP JUMPDEST PUSH1 0x0 DUP3 DUP2 MSTORE PUSH1 0x2A PUSH1 0x20 SWAP1 DUP2 MSTORE PUSH1 0x40 SWAP2 DUP3 SWAP1 KECCAK256 DUP4 SWAP1 SSTORE DUP2 MLOAD DUP5 DUP2 MSTORE SWAP1 DUP2 ADD DUP4 SWAP1 MSTORE PUSH32 0x65C0EEC5C5D031EE25323575D53DB5536226AB058B74D8BDB03C517DD4F605D SWAP2 ADD PUSH1 0x40 MLOAD DUP1 SWAP2 SUB SWAP1 LOG1 POP POP JUMP JUMPDEST PUSH1 0x5 SLOAD PUSH1 0x1 PUSH1 0x1 PUSH1 0xA0 SHL SUB AND CALLER EQ PUSH2 0x1527 JUMPI PUSH1 0x40 MLOAD PUSH3 0x461BCD PUSH1 0xE5 SHL DUP2 MSTORE PUSH1 0x4 ADD PUSH2 0x11AF SWAP1 PUSH2 0x4C56 JUMP JUMPDEST DUP1 MLOAD DUP3 MLOAD EQ PUSH2 0x1578 JUMPI PUSH1 0x40 MLOAD PUSH3 0x461BCD PUSH1 0xE5 SHL DUP2 MSTORE PUSH1 0x20 PUSH1 0x4 DUP3 ADD MSTORE PUSH1 0x1E PUSH1 0x24 DUP3 ADD MSTORE PUSH32 0x417272617973206D757374206265207468652073616D65206C656E6774680000 PUSH1 0x44 DUP3 ADD MSTORE PUSH1 0x64 ADD PUSH2 0x11AF JUMP JUMPDEST PUSH1 0xC8 DUP3 MLOAD GT ISZERO PUSH2 0x15D5 JUMPI PUSH1 0x40 MLOAD PUSH3 0x461BCD PUSH1 0xE5 SHL DUP2 MSTORE PUSH1 0x20 PUSH1 0x4 DUP3 ADD MSTORE PUSH1 0x22 PUSH1 0x24 DUP3 ADD MSTORE PUSH32 0x57616C6C657473206C697374206C656E677468206D757374206265203C3D2032 PUSH1 0x44 DUP3 ADD MSTORE PUSH2 0x303 PUSH1 0xF4 SHL PUSH1 0x64 DUP3 ADD MSTORE PUSH1 0x84 ADD PUSH2 0x11AF JUMP JUMPDEST PUSH1 0x0 JUMPDEST DUP3 MLOAD DUP2 LT ISZERO PUSH2 0x16C9 JUMPI PUSH1 0x0 DUP4 DUP3 DUP2 MLOAD DUP2 LT PUSH2 0x15F5 JUMPI PUSH2 0x15F5 PUSH2 0x4CFA JUMP JUMPDEST PUSH1 0x20 MUL PUSH1 0x20 ADD ADD MLOAD SWAP1 POP PUSH1 0x0 DUP4 DUP4 DUP2 MLOAD DUP2 LT PUSH2 0x1613 JUMPI PUSH2 0x1613 PUSH2 0x4CFA JUMP JUMPDEST PUSH1 0x20 MUL PUSH1 0x20 ADD ADD MLOAD PUSH8 0xDE0B6B3A7640000 PUSH2 0x162E SWAP2 SWAP1 PUSH2 0x4CA1 JUMP JUMPDEST SWAP1 POP PUSH2 0x163B CALLER DUP4 DUP4 PUSH2 0x38B7 JUMP JUMPDEST PUSH1 0xD SLOAD PUSH1 0x1 PUSH1 0x1 PUSH1 0xA0 SHL SUB AND PUSH4 0xE30443BC DUP4 PUSH2 0x1656 DUP2 PUSH2 0x1CDF JUMP JUMPDEST PUSH1 0x40 MLOAD PUSH1 0x1 PUSH1 0x1 PUSH1 0xE0 SHL SUB NOT PUSH1 0xE0 DUP6 SWAP1 SHL AND DUP2 MSTORE PUSH1 0x1 PUSH1 0x1 PUSH1 0xA0 SHL SUB SWAP1 SWAP3 AND PUSH1 0x4 DUP4 ADD MSTORE PUSH1 0x24 DUP3 ADD MSTORE PUSH1 0x44 ADD PUSH1 0x0 PUSH1 0x40 MLOAD DUP1 DUP4 SUB DUP2 PUSH1 0x0 DUP8 DUP1 EXTCODESIZE ISZERO DUP1 ISZERO PUSH2 0x169C JUMPI PUSH1 0x0 DUP1 REVERT JUMPDEST POP GAS CALL ISZERO DUP1 ISZERO PUSH2 0x16B0 JUMPI RETURNDATASIZE PUSH1 0x0 DUP1 RETURNDATACOPY RETURNDATASIZE PUSH1 0x0 REVERT JUMPDEST POP POP POP POP POP POP DUP1 DUP1 PUSH2 0x16C1 SWAP1 PUSH2 0x4D10 JUMP JUMPDEST SWAP2 POP POP PUSH2 0x15D8 JUMP JUMPDEST POP POP POP JUMP JUMPDEST PUSH1 0x0 PUSH2 0x16DB DUP5 DUP5 DUP5 PUSH2 0x39C0 JUMP JUMPDEST PUSH2 0x172D DUP5 CALLER PUSH2 0x1728 DUP6 PUSH1 0x40 MLOAD DUP1 PUSH1 0x60 ADD PUSH1 0x40 MSTORE DUP1 PUSH1 0x28 DUP2 MSTORE PUSH1 0x20 ADD PUSH2 0x4F8D PUSH1 0x28 SWAP2 CODECOPY PUSH1 0x1 PUSH1 0x1 PUSH1 0xA0 SHL SUB DUP11 AND PUSH1 0x0 SWAP1 DUP2 MSTORE PUSH1 0x1 PUSH1 0x20 SWAP1 DUP2 MSTORE PUSH1 0x40 DUP1 DUP4 KECCAK256 CALLER DUP5 MSTORE SWAP1 SWAP2 MSTORE SWAP1 KECCAK256 SLOAD SWAP2 SWAP1 PUSH2 0x4454 JUMP JUMPDEST PUSH2 0x3792 JUMP JUMPDEST POP PUSH1 0x1 SWAP4 SWAP3 POP POP POP JUMP JUMPDEST PUSH1 0xD SLOAD PUSH1 0x40 DUP1 MLOAD PUSH4 0x4B9A6B3 PUSH1 0xE3 SHL DUP2 MSTORE SWAP1 MLOAD PUSH1 0x0 SWAP3 PUSH1 0x1 PUSH1 0x1 PUSH1 0xA0 SHL SUB AND SWAP2 PUSH4 0x25CD3598 SWAP2 PUSH1 0x4 DUP1 DUP4 ADD SWAP3 PUSH1 0x20 SWAP3 SWAP2 SWAP1 DUP3 SWAP1 SUB ADD DUP2 DUP7 GAS STATICCALL ISZERO DUP1 ISZERO PUSH2 0x1781 JUMPI RETURNDATASIZE PUSH1 0x0 DUP1 RETURNDATACOPY RETURNDATASIZE PUSH1 0x0 REVERT JUMPDEST POP POP POP POP PUSH1 0x40 MLOAD RETURNDATASIZE PUSH1 0x1F NOT PUSH1 0x1F DUP3 ADD AND DUP3 ADD DUP1 PUSH1 0x40 MSTORE POP DUP2 ADD SWAP1 PUSH2 0x17A5 SWAP2 SWAP1 PUSH2 0x4D29 JUMP JUMPDEST SWAP1 POP SWAP1 JUMP JUMPDEST PUSH1 0xD SLOAD PUSH1 0x40 DUP1 MLOAD PUSH4 0x42D359D7 PUSH1 0xE1 SHL DUP2 MSTORE SWAP1 MLOAD PUSH1 0x0 SWAP3 PUSH1 0x1 PUSH1 0x1 PUSH1 0xA0 SHL SUB AND SWAP2 PUSH4 0x85A6B3AE SWAP2 PUSH1 0x4 DUP1 DUP4 ADD SWAP3 PUSH1 0x20 SWAP3 SWAP2 SWAP1 DUP3 SWAP1 SUB ADD DUP2 DUP7 GAS STATICCALL ISZERO DUP1 ISZERO PUSH2 0x17F4 JUMPI RETURNDATASIZE PUSH1 0x0 DUP1 RETURNDATACOPY RETURNDATASIZE PUSH1 0x0 REVERT JUMPDEST POP POP POP POP PUSH1 0x40 MLOAD RETURNDATASIZE PUSH1 0x1F NOT PUSH1 0x1F DUP3 ADD AND DUP3 ADD DUP1 PUSH1 0x40 MSTORE POP DUP2 ADD SWAP1 PUSH2 0x17A5 SWAP2 SWAP1 PUSH2 0x4D46 JUMP JUMPDEST PUSH1 0x5 SLOAD PUSH1 0x1 PUSH1 0x1 PUSH1 0xA0 SHL SUB AND CALLER EQ PUSH2 0x1842 JUMPI PUSH1 0x40 MLOAD PUSH3 0x461BCD PUSH1 0xE5 SHL DUP2 MSTORE PUSH1 0x4 ADD PUSH2 0x11AF SWAP1 PUSH2 0x4C56 JUMP JUMPDEST PUSH1 0xD SLOAD PUSH1 0x40 MLOAD PUSH4 0x3599BB17 PUSH1 0xE0 SHL DUP2 MSTORE DUP3 ISZERO ISZERO PUSH1 0x4 DUP3 ADD MSTORE PUSH1 0x1 PUSH1 0x1 PUSH1 0xA0 SHL SUB SWAP1 SWAP2 AND SWAP1 PUSH4 0x3599BB17 SWAP1 PUSH1 0x24 ADD JUMPDEST PUSH1 0x0 PUSH1 0x40 MLOAD DUP1 DUP4 SUB DUP2 PUSH1 0x0 DUP8 DUP1 EXTCODESIZE ISZERO DUP1 ISZERO PUSH2 0x188A JUMPI PUSH1 0x0 DUP1 REVERT JUMPDEST POP GAS CALL ISZERO DUP1 ISZERO PUSH2 0x189E JUMPI RETURNDATASIZE PUSH1 0x0 DUP1 RETURNDATACOPY RETURNDATASIZE PUSH1 0x0 REVERT JUMPDEST POP POP POP POP POP JUMP JUMPDEST CALLER PUSH1 0x0 DUP2 DUP2 MSTORE PUSH1 0x1 PUSH1 0x20 SWAP1 DUP2 MSTORE PUSH1 0x40 DUP1 DUP4 KECCAK256 PUSH1 0x1 PUSH1 0x1 PUSH1 0xA0 SHL SUB DUP8 AND DUP5 MSTORE SWAP1 SWAP2 MSTORE DUP2 KECCAK256 SLOAD SWAP1 SWAP2 PUSH2 0x140E SWAP2 DUP6 SWAP1 PUSH2 0x1728 SWAP1 DUP7 PUSH2 0x3253 JUMP JUMPDEST PUSH1 0x5 SLOAD PUSH1 0x1 PUSH1 0x1 PUSH1 0xA0 SHL SUB AND CALLER EQ PUSH2 0x1905 JUMPI PUSH1 0x40 MLOAD PUSH3 0x461BCD PUSH1 0xE5 SHL DUP2 MSTORE PUSH1 0x4 ADD PUSH2 0x11AF SWAP1 PUSH2 0x4C56 JUMP JUMPDEST PUSH1 0xD SLOAD PUSH1 0x40 MLOAD PUSH3 0x81FFBB PUSH1 0xE7 SHL DUP2 MSTORE DUP3 ISZERO ISZERO PUSH1 0x4 DUP3 ADD MSTORE PUSH1 0x1 PUSH1 0x1 PUSH1 0xA0 SHL SUB SWAP1 SWAP2 AND SWAP1 PUSH4 0x40FFDD80 SWAP1 PUSH1 0x24 ADD PUSH2 0x1870 JUMP JUMPDEST PUSH1 0xD SLOAD PUSH1 0x40 MLOAD PUSH4 0xBC4C4B37 PUSH1 0xE0 SHL DUP2 MSTORE CALLER PUSH1 0x4 DUP3 ADD MSTORE PUSH1 0x0 PUSH1 0x24 DUP3 ADD MSTORE PUSH1 0x1 PUSH1 0x1 PUSH1 0xA0 SHL SUB SWAP1 SWAP2 AND SWAP1 PUSH4 0xBC4C4B37 SWAP1 PUSH1 0x44 ADD PUSH1 0x20 PUSH1 0x40 MLOAD DUP1 DUP4 SUB DUP2 PUSH1 0x0 DUP8 GAS CALL ISZERO DUP1 ISZERO PUSH2 0x1987 JUMPI RETURNDATASIZE PUSH1 0x0 DUP1 RETURNDATACOPY RETURNDATASIZE PUSH1 0x0 REVERT JUMPDEST POP POP POP POP PUSH1 0x40 MLOAD RETURNDATASIZE PUSH1 0x1F NOT PUSH1 0x1F DUP3 ADD AND DUP3 ADD DUP1 PUSH1 0x40 MSTORE POP DUP2 ADD SWAP1 PUSH2 0x19AB SWAP2 SWAP1 PUSH2 0x4D5F JUMP JUMPDEST POP JUMP JUMPDEST PUSH1 0x5 SLOAD PUSH1 0x1 PUSH1 0x1 PUSH1 0xA0 SHL SUB AND CALLER EQ PUSH2 0x19D8 JUMPI PUSH1 0x40 MLOAD PUSH3 0x461BCD PUSH1 0xE5 SHL DUP2 MSTORE PUSH1 0x4 ADD PUSH2 0x11AF SWAP1 PUSH2 0x4C56 JUMP JUMPDEST PUSH1 0xD SLOAD PUSH1 0x40 MLOAD PUSH4 0x5A84C5EB PUSH1 0xE0 SHL DUP2 MSTORE PUSH1 0x4 DUP2 ADD DUP4 SWAP1 MSTORE PUSH1 0x1 PUSH1 0x1 PUSH1 0xA0 SHL SUB SWAP1 SWAP2 AND SWAP1 PUSH4 0x5A84C5EB SWAP1 PUSH1 0x24 ADD PUSH2 0x1870 JUMP JUMPDEST PUSH1 0x5 SLOAD PUSH1 0x1 PUSH1 0x1 PUSH1 0xA0 SHL SUB AND CALLER EQ PUSH2 0x1A33 JUMPI PUSH1 0x40 MLOAD PUSH3 0x461BCD PUSH1 0xE5 SHL DUP2 MSTORE PUSH1 0x4 ADD PUSH2 0x11AF SWAP1 PUSH2 0x4C56 JUMP JUMPDEST PUSH1 0xD SLOAD PUSH1 0x40 MLOAD PUSH4 0x5EBF4DB9 PUSH1 0xE0 SHL DUP2 MSTORE PUSH1 0x4 DUP2 ADD DUP4 SWAP1 MSTORE PUSH1 0x1 PUSH1 0x1 PUSH1 0xA0 SHL SUB SWAP1 SWAP2 AND SWAP1 PUSH4 0x5EBF4DB9 SWAP1 PUSH1 0x24 ADD PUSH2 0x1870 JUMP JUMPDEST PUSH1 0x5 SLOAD PUSH1 0x1 PUSH1 0x1 PUSH1 0xA0 SHL SUB AND CALLER EQ PUSH2 0x1A8E JUMPI PUSH1 0x40 MLOAD PUSH3 0x461BCD PUSH1 0xE5 SHL DUP2 MSTORE PUSH1 0x4 ADD PUSH2 0x11AF SWAP1 PUSH2 0x4C56 JUMP JUMPDEST PUSH2 0x1AA0 DUP2 PUSH8 0xDE0B6B3A7640000 PUSH2 0x4CA1 JUMP JUMPDEST PUSH1 0x14 SSTORE POP JUMP JUMPDEST PUSH1 0xD SLOAD PUSH1 0x40 DUP1 MLOAD PUSH4 0x4DDF6EF PUSH1 0xE1 SHL DUP2 MSTORE SWAP1 MLOAD PUSH1 0x0 SWAP3 PUSH1 0x1 PUSH1 0x1 PUSH1 0xA0 SHL SUB AND SWAP2 PUSH4 0x9BBEDDE SWAP2 PUSH1 0x4 DUP1 DUP4 ADD SWAP3 PUSH1 0x20 SWAP3 SWAP2 SWAP1 DUP3 SWAP1 SUB ADD DUP2 DUP7 GAS STATICCALL ISZERO DUP1 ISZERO PUSH2 0x17F4 JUMPI RETURNDATASIZE PUSH1 0x0 DUP1 RETURNDATACOPY RETURNDATASIZE PUSH1 0x0 REVERT JUMPDEST PUSH1 0x5 SLOAD PUSH1 0x1 PUSH1 0x1 PUSH1 0xA0 SHL SUB AND CALLER EQ PUSH2 0x1B1A JUMPI PUSH1 0x40 MLOAD PUSH3 0x461BCD PUSH1 0xE5 SHL DUP2 MSTORE PUSH1 0x4 ADD PUSH2 0x11AF SWAP1 PUSH2 0x4C56 JUMP JUMPDEST PUSH1 0x2C DUP1 SLOAD PUSH1 0xFF NOT AND SWAP2 ISZERO ISZERO SWAP2 SWAP1 SWAP2 OR SWAP1 SSTORE JUMP JUMPDEST PUSH1 0xD SLOAD PUSH1 0x40 MLOAD PUSH4 0x70A08231 PUSH1 0xE0 SHL DUP2 MSTORE PUSH1 0x1 PUSH1 0x1 PUSH1 0xA0 SHL SUB DUP4 DUP2 AND PUSH1 0x4 DUP4 ADD MSTORE PUSH1 0x0 SWAP3 AND SWAP1 PUSH4 0x70A08231 SWAP1 PUSH1 0x24 ADD JUMPDEST PUSH1 0x20 PUSH1 0x40 MLOAD DUP1 DUP4 SUB DUP2 DUP7 GAS STATICCALL ISZERO DUP1 ISZERO PUSH2 0x1B79 JUMPI RETURNDATASIZE PUSH1 0x0 DUP1 RETURNDATACOPY RETURNDATASIZE PUSH1 0x0 REVERT JUMPDEST POP POP POP POP PUSH1 0x40 MLOAD RETURNDATASIZE PUSH1 0x1F NOT PUSH1 0x1F DUP3 ADD AND DUP3 ADD DUP1 PUSH1 0x40 MSTORE POP DUP2 ADD SWAP1 PUSH2 0x1412 SWAP2 SWAP1 PUSH2 0x4D46 JUMP JUMPDEST PUSH1 0xD SLOAD PUSH1 0x40 MLOAD PUSH4 0x6D48467B PUSH1 0xE0 SHL DUP2 MSTORE PUSH1 0x1 PUSH1 0x1 PUSH1 0xA0 SHL SUB DUP4 DUP2 AND PUSH1 0x4 DUP4 ADD MSTORE PUSH1 0x0 SWAP3 AND SWAP1 PUSH4 0x6D48467B SWAP1 PUSH1 0x24 ADD JUMPDEST PUSH1 0x20 PUSH1 0x40 MLOAD DUP1 DUP4 SUB DUP2 DUP7 GAS STATICCALL ISZERO DUP1 ISZERO PUSH2 0x1BE9 JUMPI RETURNDATASIZE PUSH1 0x0 DUP1 RETURNDATACOPY RETURNDATASIZE PUSH1 0x0 REVERT JUMPDEST POP POP POP POP PUSH1 0x40 MLOAD RETURNDATASIZE PUSH1 0x1F NOT PUSH1 0x1F DUP3 ADD AND DUP3 ADD DUP1 PUSH1 0x40 MSTORE POP DUP2 ADD SWAP1 PUSH2 0x1412 SWAP2 SWAP1 PUSH2 0x4D5F JUMP JUMPDEST PUSH1 0xD SLOAD PUSH1 0x40 MLOAD PUSH1 0x1 PUSH3 0x4D3B87 PUSH1 0xE0 SHL SUB NOT DUP2 MSTORE PUSH1 0x4 DUP2 ADD DUP4 SWAP1 MSTORE PUSH1 0x0 SWAP2 DUP3 SWAP2 DUP3 SWAP2 PUSH1 0x1 PUSH1 0x1 PUSH1 0xA0 SHL SUB AND SWAP1 PUSH4 0xFFB2C479 SWAP1 PUSH1 0x24 ADD PUSH1 0x60 PUSH1 0x40 MLOAD DUP1 DUP4 SUB DUP2 PUSH1 0x0 DUP8 GAS CALL ISZERO DUP1 ISZERO PUSH2 0x1C60 JUMPI RETURNDATASIZE PUSH1 0x0 DUP1 RETURNDATACOPY RETURNDATASIZE PUSH1 0x0 REVERT JUMPDEST POP POP POP POP PUSH1 0x40 MLOAD RETURNDATASIZE PUSH1 0x1F NOT PUSH1 0x1F DUP3 ADD AND DUP3 ADD DUP1 PUSH1 0x40 MSTORE POP DUP2 ADD SWAP1 PUSH2 0x1C84 SWAP2 SWAP1 PUSH2 0x4D7C JUMP JUMPDEST PUSH1 0x40 DUP1 MLOAD DUP5 DUP2 MSTORE PUSH1 0x20 DUP2 ADD DUP5 SWAP1 MSTORE SWAP1 DUP2 ADD DUP3 SWAP1 MSTORE PUSH1 0x60 DUP2 ADD DUP9 SWAP1 MSTORE SWAP3 SWAP6 POP SWAP1 SWAP4 POP SWAP2 POP ORIGIN SWAP1 PUSH1 0x0 SWAP1 PUSH32 0xC864333D6121033635AB41B29AE52F10A22CF4438C3E4F1C4C68518FEB2F8A98 SWAP1 PUSH1 0x80 ADD PUSH1 0x40 MLOAD DUP1 SWAP2 SUB SWAP1 LOG3 POP POP POP POP JUMP JUMPDEST PUSH1 0x1 PUSH1 0x1 PUSH1 0xA0 SHL SUB AND PUSH1 0x0 SWAP1 DUP2 MSTORE PUSH1 0x20 DUP2 SWAP1 MSTORE PUSH1 0x40 SWAP1 KECCAK256 SLOAD SWAP1 JUMP JUMPDEST PUSH1 0x5 SLOAD PUSH1 0x1 PUSH1 0x1 PUSH1 0xA0 SHL SUB AND CALLER EQ PUSH2 0x1D24 JUMPI PUSH1 0x40 MLOAD PUSH3 0x461BCD PUSH1 0xE5 SHL DUP2 MSTORE PUSH1 0x4 ADD PUSH2 0x11AF SWAP1 PUSH2 0x4C56 JUMP JUMPDEST PUSH1 0x5 SLOAD PUSH1 0x40 MLOAD PUSH1 0x0 SWAP2 PUSH1 0x1 PUSH1 0x1 PUSH1 0xA0 SHL SUB AND SWAP1 PUSH32 0x8BE0079C531659141344CD1FD0A4F28419497F9722A3DAAFE3B4186F6B6457E0 SWAP1 DUP4 SWAP1 LOG3 PUSH1 0x5 DUP1 SLOAD PUSH1 0x1 PUSH1 0x1 PUSH1 0xA0 SHL SUB NOT AND SWAP1 SSTORE JUMP JUMPDEST PUSH1 0x5 SLOAD PUSH1 0x1 PUSH1 0x1 PUSH1 0xA0 SHL SUB AND CALLER EQ PUSH2 0x1D98 JUMPI PUSH1 0x40 MLOAD PUSH3 0x461BCD PUSH1 0xE5 SHL DUP2 MSTORE PUSH1 0x4 ADD PUSH2 0x11AF SWAP1 PUSH2 0x4C56 JUMP JUMPDEST PUSH1 0xD SLOAD PUSH1 0x40 MLOAD PUSH4 0x31E79DB PUSH1 0xE4 SHL DUP2 MSTORE PUSH1 0x1 PUSH1 0x1 PUSH1 0xA0 SHL SUB DUP4 DUP2 AND PUSH1 0x4 DUP4 ADD MSTORE SWAP1 SWAP2 AND SWAP1 PUSH4 0x31E79DB0 SWAP1 PUSH1 0x24 ADD PUSH2 0x1870 JUMP JUMPDEST PUSH1 0x5 SLOAD PUSH1 0x1 PUSH1 0x1 PUSH1 0xA0 SHL SUB AND CALLER EQ PUSH2 0x1DF4 JUMPI PUSH1 0x40 MLOAD PUSH3 0x461BCD PUSH1 0xE5 SHL DUP2 MSTORE PUSH1 0x4 ADD PUSH2 0x11AF SWAP1 PUSH2 0x4C56 JUMP JUMPDEST PUSH1 0xD SLOAD PUSH1 0x40 MLOAD PUSH4 0x31E79DB PUSH1 0xE4 SHL DUP2 MSTORE PUSH1 0x1 PUSH1 0x1 PUSH1 0xA0 SHL SUB DUP4 DUP2 AND PUSH1 0x4 DUP4 ADD MSTORE SWAP1 SWAP2 AND SWAP1 PUSH4 0x31E79DB0 SWAP1 PUSH1 0x24 ADD PUSH1 0x0 PUSH1 0x40 MLOAD DUP1 DUP4 SUB DUP2 PUSH1 0x0 DUP8 DUP1 EXTCODESIZE ISZERO DUP1 ISZERO PUSH2 0x1E3B JUMPI PUSH1 0x0 DUP1 REVERT JUMPDEST POP GAS CALL ISZERO DUP1 ISZERO PUSH2 0x1E4F JUMPI RETURNDATASIZE PUSH1 0x0 DUP1 RETURNDATACOPY RETURNDATASIZE PUSH1 0x0 REVERT JUMPDEST POP POP POP POP PUSH1 0x1 PUSH1 0x1 PUSH1 0xA0 SHL SUB DUP2 AND PUSH1 0x0 SWAP1 DUP2 MSTORE PUSH1 0x24 PUSH1 0x20 SWAP1 DUP2 MSTORE PUSH1 0x40 DUP1 DUP4 KECCAK256 DUP1 SLOAD PUSH1 0x1 PUSH1 0xFF NOT SWAP2 DUP3 AND DUP2 OR SWAP1 SWAP3 SSTORE PUSH1 0x25 SWAP1 SWAP4 MSTORE SWAP3 KECCAK256 DUP1 SLOAD SWAP1 SWAP2 AND SWAP1 SWAP2 OR SWAP1 SSTORE PUSH2 0x19AB DUP2 PUSH2 0x302C JUMP JUMPDEST PUSH1 0x5 SLOAD PUSH1 0x1 PUSH1 0x1 PUSH1 0xA0 SHL SUB AND CALLER EQ PUSH2 0x1EC1 JUMPI PUSH1 0x40 MLOAD PUSH3 0x461BCD PUSH1 0xE5 SHL DUP2 MSTORE PUSH1 0x4 ADD PUSH2 0x11AF SWAP1 PUSH2 0x4C56 JUMP JUMPDEST PUSH1 0x1 PUSH1 0x1 PUSH1 0xA0 SHL SUB SWAP2 SWAP1 SWAP2 AND PUSH1 0x0 SWAP1 DUP2 MSTORE PUSH1 0x2B PUSH1 0x20 MSTORE PUSH1 0x40 SWAP1 KECCAK256 DUP1 SLOAD PUSH1 0xFF NOT AND SWAP2 ISZERO ISZERO SWAP2 SWAP1 SWAP2 OR SWAP1 SSTORE JUMP JUMPDEST PUSH1 0xD SLOAD PUSH1 0x40 MLOAD PUSH4 0x8BC1D639 PUSH1 0xE0 SHL DUP2 MSTORE CALLER PUSH1 0x4 DUP3 ADD MSTORE DUP3 ISZERO ISZERO PUSH1 0x24 DUP3 ADD MSTORE PUSH1 0x1 PUSH1 0x1 PUSH1 0xA0 SHL SUB SWAP1 SWAP2 AND SWAP1 PUSH4 0x8BC1D639 SWAP1 PUSH1 0x44 ADD PUSH2 0x1870 JUMP JUMPDEST PUSH1 0x5 SLOAD PUSH1 0x1 PUSH1 0x1 PUSH1 0xA0 SHL SUB AND CALLER EQ PUSH2 0x1F4E JUMPI PUSH1 0x40 MLOAD PUSH3 0x461BCD PUSH1 0xE5 SHL DUP2 MSTORE PUSH1 0x4 ADD PUSH2 0x11AF SWAP1 PUSH2 0x4C56 JUMP JUMPDEST PUSH3 0x30D40 DUP2 LT ISZERO DUP1 ISZERO PUSH2 0x1F64 JUMPI POP PUSH3 0xF4240 DUP2 GT ISZERO JUMPDEST PUSH2 0x1F6D JUMPI PUSH1 0x0 DUP1 REVERT JUMPDEST PUSH1 0x23 SLOAD PUSH1 0x40 MLOAD DUP3 SWAP1 PUSH32 0x40D7E40E79AF4E8E5A9B3C57030D8EA93F13D669C06D448C4D631D4AE7D23DB7 SWAP1 PUSH1 0x0 SWAP1 LOG3 PUSH1 0x23 SSTORE JUMP JUMPDEST PUSH1 0x5 SLOAD PUSH1 0x1 PUSH1 0x1 PUSH1 0xA0 SHL SUB AND CALLER EQ PUSH2 0x1FCA JUMPI PUSH1 0x40 MLOAD PUSH3 0x461BCD PUSH1 0xE5 SHL DUP2 MSTORE PUSH1 0x4 ADD PUSH2 0x11AF SWAP1 PUSH2 0x4C56 JUMP JUMPDEST PUSH1 0xA SLOAD PUSH1 0x1 PUSH1 0xB0 SHL SWAP1 DIV PUSH1 0xFF AND ISZERO PUSH2 0x1FE1 JUMPI PUSH1 0x0 DUP1 REVERT JUMPDEST PUSH1 0xA DUP1 SLOAD PUSH1 0xFF PUSH1 0xB0 SHL NOT AND PUSH1 0x1 PUSH1 0xB0 SHL OR SWAP1 SSTORE NUMBER PUSH1 0x30 SSTORE PUSH1 0x40 MLOAD PUSH32 0x799663458A5EF2936F7FA0C99B3336C69C25890F82974F04E811E5BB359186C7 SWAP1 PUSH1 0x0 SWAP1 LOG1 JUMP JUMPDEST PUSH1 0x60 PUSH1 0x4 DUP1 SLOAD PUSH2 0x1265 SWAP1 PUSH2 0x4CC0 JUMP JUMPDEST PUSH1 0x5 SLOAD PUSH1 0x1 PUSH1 0x1 PUSH1 0xA0 SHL SUB AND CALLER EQ PUSH2 0x205C JUMPI PUSH1 0x40 MLOAD PUSH3 0x461BCD PUSH1 0xE5 SHL DUP2 MSTORE PUSH1 0x4 ADD PUSH2 0x11AF SWAP1 PUSH2 0x4C56 JUMP JUMPDEST PUSH2 0x2066 DUP3 DUP3 PUSH2 0x448E JUMP JUMPDEST POP POP JUMP JUMPDEST PUSH1 0x5 SLOAD PUSH1 0x1 PUSH1 0x1 PUSH1 0xA0 SHL SUB AND CALLER EQ PUSH2 0x2094 JUMPI PUSH1 0x40 MLOAD PUSH3 0x461BCD PUSH1 0xE5 SHL DUP2 MSTORE PUSH1 0x4 ADD PUSH2 0x11AF SWAP1 PUSH2 0x4C56 JUMP JUMPDEST PUSH1 0xD SLOAD PUSH1 0x40 MLOAD PUSH4 0x4E19B975 PUSH1 0xE1 SHL DUP2 MSTORE DUP3 ISZERO ISZERO PUSH1 0x4 DUP3 ADD MSTORE PUSH1 0x1 PUSH1 0x1 PUSH1 0xA0 SHL SUB SWAP1 SWAP2 AND SWAP1 PUSH4 0x9C3372EA SWAP1 PUSH1 0x24 ADD PUSH2 0x1870 JUMP JUMPDEST PUSH1 0x5 SLOAD PUSH1 0x1 PUSH1 0x1 PUSH1 0xA0 SHL SUB AND CALLER EQ PUSH2 0x20F0 JUMPI PUSH1 0x40 MLOAD PUSH3 0x461BCD PUSH1 0xE5 SHL DUP2 MSTORE PUSH1 0x4 ADD PUSH2 0x11AF SWAP1 PUSH2 0x4C56 JUMP JUMPDEST DUP1 ISZERO ISZERO PUSH1 0xA PUSH1 0x15 SWAP1 SLOAD SWAP1 PUSH2 0x100 EXP SWAP1 DIV PUSH1 0xFF AND ISZERO ISZERO SUB PUSH2 0x210F JUMPI PUSH1 0x0 DUP1 REVERT JUMPDEST PUSH1 0xA DUP1 SLOAD DUP3 ISZERO ISZERO PUSH1 0x1 PUSH1 0xA8 SHL MUL PUSH1 0xFF PUSH1 0xA8 SHL NOT SWAP1 SWAP2 AND OR SWAP1 SSTORE PUSH1 0x40 MLOAD PUSH32 0xD240C24014EC8C204FC1BDCC286F7D01FD2AB6A07C558A9B2D3F12904323A87 SWAP1 PUSH2 0x215C SWAP1 DUP4 ISZERO ISZERO DUP2 MSTORE PUSH1 0x20 ADD SWAP1 JUMP JUMPDEST PUSH1 0x40 MLOAD DUP1 SWAP2 SUB SWAP1 LOG1 POP JUMP JUMPDEST PUSH1 0x5 SLOAD PUSH1 0x1 PUSH1 0x1 PUSH1 0xA0 SHL SUB AND CALLER EQ PUSH2 0x2191 JUMPI PUSH1 0x40 MLOAD PUSH3 0x461BCD PUSH1 0xE5 SHL DUP2 MSTORE PUSH1 0x4 ADD PUSH2 0x11AF SWAP1 PUSH2 0x4C56 JUMP JUMPDEST PUSH1 0xD SLOAD PUSH1 0x40 MLOAD PUSH4 0x9288471 PUSH1 0xE0 SHL DUP2 MSTORE PUSH1 0x1 PUSH1 0x1 PUSH1 0xA0 SHL SUB DUP4 DUP2 AND PUSH1 0x4 DUP4 ADD MSTORE SWAP1 SWAP2 AND SWAP1 PUSH4 0x9288471 SWAP1 PUSH1 0x24 ADD PUSH1 0x0 PUSH1 0x40 MLOAD DUP1 DUP4 SUB DUP2 PUSH1 0x0 DUP8 DUP1 EXTCODESIZE ISZERO DUP1 ISZERO PUSH2 0x21D8 JUMPI PUSH1 0x0 DUP1 REVERT JUMPDEST POP GAS CALL ISZERO DUP1 ISZERO PUSH2 0x21EC JUMPI RETURNDATASIZE PUSH1 0x0 DUP1 RETURNDATACOPY RETURNDATASIZE PUSH1 0x0 REVERT JUMPDEST POP POP PUSH1 0xD SLOAD PUSH1 0x1 PUSH1 0x1 PUSH1 0xA0 SHL SUB AND SWAP2 POP PUSH4 0xE30443BC SWAP1 POP DUP3 PUSH2 0x220D DUP2 PUSH2 0x4557 JUMP JUMPDEST PUSH1 0x40 MLOAD PUSH1 0x1 PUSH1 0x1 PUSH1 0xE0 SHL SUB NOT PUSH1 0xE0 DUP6 SWAP1 SHL AND DUP2 MSTORE PUSH1 0x1 PUSH1 0x1 PUSH1 0xA0 SHL SUB SWAP1 SWAP3 AND PUSH1 0x4 DUP4 ADD MSTORE PUSH1 0x24 DUP3 ADD MSTORE PUSH1 0x44 ADD PUSH2 0x1870 JUMP JUMPDEST PUSH1 0x0 PUSH2 0x140E CALLER DUP5 PUSH2 0x1728 DUP6 PUSH1 0x40 MLOAD DUP1 PUSH1 0x60 ADD PUSH1 0x40 MSTORE DUP1 PUSH1 0x25 DUP2 MSTORE PUSH1 0x20 ADD PUSH2 0x4FB5 PUSH1 0x25 SWAP2 CODECOPY CALLER PUSH1 0x0 SWAP1 DUP2 MSTORE PUSH1 0x1 PUSH1 0x20 SWAP1 DUP2 MSTORE PUSH1 0x40 DUP1 DUP4 KECCAK256 PUSH1 0x1 PUSH1 0x1 PUSH1 0xA0 SHL SUB DUP14 AND DUP5 MSTORE SWAP1 SWAP2 MSTORE SWAP1 KECCAK256 SLOAD SWAP2 SWAP1 PUSH2 0x4454 JUMP JUMPDEST PUSH1 0xA SLOAD PUSH1 0x1 PUSH1 0xA8 SHL SWAP1 DIV PUSH1 0xFF AND PUSH2 0x22DF JUMPI PUSH1 0x40 MLOAD PUSH3 0x461BCD PUSH1 0xE5 SHL DUP2 MSTORE PUSH1 0x20 PUSH1 0x4 DUP3 ADD MSTORE PUSH1 0x16 PUSH1 0x24 DUP3 ADD MSTORE PUSH22 0x14DD185ADA5B99C81A5CC81B9BDD08195B98589B1959 PUSH1 0x52 SHL PUSH1 0x44 DUP3 ADD MSTORE PUSH1 0x64 ADD PUSH2 0x11AF JUMP JUMPDEST PUSH1 0x0 DUP2 DUP2 MSTORE PUSH1 0x2A PUSH1 0x20 MSTORE PUSH1 0x40 DUP2 KECCAK256 SLOAD SWAP1 SUB PUSH2 0x233C JUMPI PUSH1 0x40 MLOAD PUSH3 0x461BCD PUSH1 0xE5 SHL DUP2 MSTORE PUSH1 0x20 PUSH1 0x4 DUP3 ADD MSTORE PUSH1 0x18 PUSH1 0x24 DUP3 ADD MSTORE PUSH32 0x496E76616C6964207374616B696E67206475726174696F6E0000000000000000 PUSH1 0x44 DUP3 ADD MSTORE PUSH1 0x64 ADD PUSH2 0x11AF JUMP JUMPDEST PUSH2 0x2346 TIMESTAMP DUP3 PUSH2 0x3253 JUMP JUMPDEST CALLER PUSH1 0x0 SWAP1 DUP2 MSTORE PUSH1 0x29 PUSH1 0x20 MSTORE PUSH1 0x40 SWAP1 KECCAK256 SLOAD LT PUSH2 0x23AF JUMPI PUSH1 0x40 MLOAD PUSH3 0x461BCD PUSH1 0xE5 SHL DUP2 MSTORE PUSH1 0x20 PUSH1 0x4 DUP3 ADD MSTORE PUSH1 0x24 DUP1 DUP3 ADD MSTORE PUSH32 0x616C7265616479207374616B656420666F722061206C6F6E6765722064757261 PUSH1 0x44 DUP3 ADD MSTORE PUSH4 0x3A34B7B7 PUSH1 0xE1 SHL PUSH1 0x64 DUP3 ADD MSTORE PUSH1 0x84 ADD PUSH2 0x11AF JUMP JUMPDEST PUSH1 0x0 DUP2 DUP2 MSTORE PUSH1 0x2A PUSH1 0x20 SWAP1 DUP2 MSTORE PUSH1 0x40 DUP1 DUP4 KECCAK256 SLOAD CALLER DUP5 MSTORE PUSH1 0x28 SWAP1 SWAP3 MSTORE SWAP1 SWAP2 KECCAK256 SSTORE PUSH2 0x23D7 TIMESTAMP DUP3 PUSH2 0x3253 JUMP JUMPDEST CALLER PUSH1 0x0 DUP2 DUP2 MSTORE PUSH1 0x29 PUSH1 0x20 MSTORE PUSH1 0x40 SWAP1 KECCAK256 SWAP2 SWAP1 SWAP2 SSTORE PUSH1 0xD SLOAD PUSH1 0x1 PUSH1 0x1 PUSH1 0xA0 SHL SUB AND SWAP1 PUSH4 0xE30443BC SWAP1 PUSH2 0x2406 DUP2 PUSH2 0x4557 JUMP JUMPDEST PUSH1 0x40 MLOAD PUSH1 0x1 PUSH1 0x1 PUSH1 0xE0 SHL SUB NOT PUSH1 0xE0 DUP6 SWAP1 SHL AND DUP2 MSTORE PUSH1 0x1 PUSH1 0x1 PUSH1 0xA0 SHL SUB SWAP1 SWAP3 AND PUSH1 0x4 DUP4 ADD MSTORE PUSH1 0x24 DUP3 ADD MSTORE PUSH1 0x44 ADD PUSH1 0x0 PUSH1 0x40 MLOAD DUP1 DUP4 SUB DUP2 PUSH1 0x0 DUP8 DUP1 EXTCODESIZE ISZERO DUP1 ISZERO PUSH2 0x244C JUMPI PUSH1 0x0 DUP1 REVERT JUMPDEST POP GAS CALL ISZERO DUP1 ISZERO PUSH2 0x2460 JUMPI RETURNDATASIZE PUSH1 0x0 DUP1 RETURNDATACOPY RETURNDATASIZE PUSH1 0x0 REVERT JUMPDEST POP POP POP POP PUSH2 0x246B CALLER SWAP1 JUMP JUMPDEST PUSH1 0x1 PUSH1 0x1 PUSH1 0xA0 SHL SUB AND PUSH32 0x13DD201D7DA4F9B31A9064A09ABC1A6CE420DACD837A77ABAFAEC5BD9D28D2C8 DUP3 PUSH1 0x40 MLOAD PUSH2 0x24A5 SWAP2 DUP2 MSTORE PUSH1 0x20 ADD SWAP1 JUMP JUMPDEST PUSH1 0x40 MLOAD DUP1 SWAP2 SUB SWAP1 LOG2 POP JUMP JUMPDEST PUSH1 0xD SLOAD PUSH1 0x40 MLOAD PUSH4 0x2A2E749 PUSH1 0xE6 SHL DUP2 MSTORE PUSH1 0x1 PUSH1 0x1 PUSH1 0xA0 SHL SUB DUP4 DUP2 AND PUSH1 0x4 DUP4 ADD MSTORE PUSH1 0x0 SWAP3 AND SWAP1 PUSH4 0xA8B9D240 SWAP1 PUSH1 0x24 ADD PUSH2 0x1B5C JUMP JUMPDEST PUSH1 0x0 PUSH2 0x140E CALLER DUP5 DUP5 PUSH2 0x39C0 JUMP JUMPDEST PUSH1 0xD SLOAD PUSH1 0x40 MLOAD PUSH4 0xFBCBC0F1 PUSH1 0xE0 SHL DUP2 MSTORE PUSH1 0x1 PUSH1 0x1 PUSH1 0xA0 SHL SUB DUP4 DUP2 AND PUSH1 0x4 DUP4 ADD MSTORE PUSH1 0x0 SWAP3 DUP4 SWAP3 DUP4 SWAP3 DUP4 SWAP3 DUP4 SWAP3 DUP4 SWAP3 SWAP1 SWAP2 AND SWAP1 PUSH4 0xFBCBC0F1 SWAP1 PUSH1 0x24 ADD JUMPDEST PUSH1 0xC0 PUSH1 0x40 MLOAD DUP1 DUP4 SUB DUP2 DUP7 GAS STATICCALL ISZERO DUP1 ISZERO PUSH2 0x2548 JUMPI RETURNDATASIZE PUSH1 0x0 DUP1 RETURNDATACOPY RETURNDATASIZE PUSH1 0x0 REVERT JUMPDEST POP POP POP POP PUSH1 0x40 MLOAD RETURNDATASIZE PUSH1 0x1F NOT PUSH1 0x1F DUP3 ADD AND DUP3 ADD DUP1 PUSH1 0x40 MSTORE POP DUP2 ADD SWAP1 PUSH2 0x256C SWAP2 SWAP1 PUSH2 0x4DAA JUMP JUMPDEST SWAP5 SWAP13 SWAP4 SWAP12 POP SWAP2 SWAP10 POP SWAP8 POP SWAP6 POP SWAP1 SWAP4 POP SWAP2 POP POP JUMP JUMPDEST PUSH1 0x5 SLOAD PUSH1 0x1 PUSH1 0x1 PUSH1 0xA0 SHL SUB AND CALLER EQ PUSH2 0x25AA JUMPI PUSH1 0x40 MLOAD PUSH3 0x461BCD PUSH1 0xE5 SHL DUP2 MSTORE PUSH1 0x4 ADD PUSH2 0x11AF SWAP1 PUSH2 0x4C56 JUMP JUMPDEST DUP11 PUSH1 0x15 DUP2 SWAP1 SSTORE POP DUP10 PUSH1 0x16 DUP2 SWAP1 SSTORE POP DUP9 PUSH1 0x17 DUP2 SWAP1 SSTORE POP DUP8 PUSH1 0x18 DUP2 SWAP1 SSTORE POP DUP7 PUSH1 0x19 DUP2 SWAP1 SSTORE POP DUP6 PUSH1 0x1A DUP2 SWAP1 SSTORE POP DUP5 PUSH1 0x1B DUP2 SWAP1 SSTORE POP DUP4 PUSH1 0x1C DUP2 SWAP1 SSTORE POP DUP3 PUSH1 0x1D DUP2 SWAP1 SSTORE POP DUP2 PUSH1 0x1E DUP2 SWAP1 SSTORE POP DUP1 PUSH1 0x1F DUP2 SWAP1 SSTORE POP PUSH2 0x262C PUSH1 0x19 SLOAD PUSH2 0x2626 PUSH1 0x1A SLOAD PUSH2 0x2626 PUSH1 0x18 SLOAD PUSH2 0x2626 PUSH1 0x17 SLOAD PUSH2 0x2626 PUSH1 0x16 SLOAD PUSH1 0x15 SLOAD PUSH2 0x3253 SWAP1 SWAP2 SWAP1 PUSH4 0xFFFFFFFF AND JUMP JUMPDEST SWAP1 PUSH2 0x3253 JUMP JUMPDEST PUSH1 0x20 DUP2 SWAP1 SSTORE POP PUSH2 0x265B PUSH1 0x1F SLOAD PUSH2 0x2626 PUSH1 0x1D SLOAD PUSH2 0x2626 PUSH1 0x1C SLOAD PUSH2 0x2626 PUSH1 0x1B SLOAD PUSH1 0x1E SLOAD PUSH2 0x3253 SWAP1 SWAP2 SWAP1 PUSH4 0xFFFFFFFF AND JUMP JUMPDEST PUSH1 0x21 SSTORE PUSH1 0x20 SLOAD PUSH1 0xF LT DUP1 ISZERO SWAP1 PUSH2 0x2674 JUMPI POP PUSH1 0xF PUSH1 0x21 SLOAD GT ISZERO JUMPDEST PUSH2 0x26D1 JUMPI PUSH1 0x40 MLOAD PUSH3 0x461BCD PUSH1 0xE5 SHL DUP2 MSTORE PUSH1 0x20 PUSH1 0x4 DUP3 ADD MSTORE PUSH1 0x28 PUSH1 0x24 DUP3 ADD MSTORE PUSH32 0x746F74616C20666565732063616E6E6F7420657863656564203135252073656C PUSH1 0x44 DUP3 ADD MSTORE PUSH8 0x6C206F7220627579 PUSH1 0xC0 SHL PUSH1 0x64 DUP3 ADD MSTORE PUSH1 0x84 ADD PUSH2 0x11AF JUMP JUMPDEST PUSH1 0x15 SLOAD PUSH1 0x16 SLOAD PUSH1 0x17 SLOAD PUSH1 0x18 SLOAD PUSH1 0x19 SLOAD PUSH1 0x1A SLOAD PUSH1 0x1B SLOAD PUSH1 0x1C SLOAD PUSH1 0x1D SLOAD PUSH1 0x1E SLOAD PUSH1 0x1F SLOAD PUSH1 0x40 DUP1 MLOAD SWAP12 DUP13 MSTORE PUSH1 0x20 DUP13 ADD SWAP11 SWAP1 SWAP11 MSTORE SWAP9 DUP11 ADD SWAP8 SWAP1 SWAP8 MSTORE PUSH1 0x60 DUP10 ADD SWAP6 SWAP1 SWAP6 MSTORE PUSH1 0x80 DUP9 ADD SWAP4 SWAP1 SWAP4 MSTORE PUSH1 0xA0 DUP8 ADD SWAP2 SWAP1 SWAP2 MSTORE PUSH1 0xC0 DUP7 ADD MSTORE PUSH1 0xE0 DUP6 ADD MSTORE PUSH2 0x100 DUP5 ADD MSTORE PUSH2 0x120 DUP4 ADD MSTORE PUSH2 0x140 DUP3 ADD MSTORE PUSH32 0x7576B911716E37363E0165F9C21F096A918ED3938961AC915DA65D85070A5013 SWAP1 PUSH2 0x160 ADD JUMPDEST PUSH1 0x40 MLOAD DUP1 SWAP2 SUB SWAP1 LOG1 POP POP POP POP POP POP POP POP POP POP POP JUMP JUMPDEST PUSH1 0x5 SLOAD PUSH1 0x1 PUSH1 0x1 PUSH1 0xA0 SHL SUB AND CALLER EQ PUSH2 0x27A2 JUMPI PUSH1 0x40 MLOAD PUSH3 0x461BCD PUSH1 0xE5 SHL DUP2 MSTORE PUSH1 0x4 ADD PUSH2 0x11AF SWAP1 PUSH2 0x4C56 JUMP JUMPDEST PUSH2 0x12C DUP2 GT ISZERO PUSH2 0x2803 JUMPI PUSH1 0x40 MLOAD PUSH3 0x461BCD PUSH1 0xE5 SHL DUP2 MSTORE PUSH1 0x20 PUSH1 0x4 DUP3 ADD MSTORE PUSH1 0x26 PUSH1 0x24 DUP3 ADD MSTORE PUSH32 0x636F6F6C646F776E2074696D65722063616E6E6F74206578636565642035206D PUSH1 0x44 DUP3 ADD MSTORE PUSH6 0x696E75746573 PUSH1 0xD0 SHL PUSH1 0x64 DUP3 ADD MSTORE PUSH1 0x84 ADD PUSH2 0x11AF JUMP JUMPDEST PUSH1 0x31 SSTORE JUMP JUMPDEST PUSH1 0xD SLOAD PUSH1 0x40 MLOAD PUSH4 0xBA079D49 PUSH1 0xE0 SHL DUP2 MSTORE PUSH1 0x1 PUSH1 0x1 PUSH1 0xA0 SHL SUB DUP4 DUP2 AND PUSH1 0x4 DUP4 ADD MSTORE PUSH1 0x0 SWAP3 AND SWAP1 PUSH4 0xBA079D49 SWAP1 PUSH1 0x24 ADD PUSH2 0x1BCC JUMP JUMPDEST PUSH1 0x5 SLOAD PUSH1 0x1 PUSH1 0x1 PUSH1 0xA0 SHL SUB AND CALLER EQ PUSH2 0x2865 JUMPI PUSH1 0x40 MLOAD PUSH3 0x461BCD PUSH1 0xE5 SHL DUP2 MSTORE PUSH1 0x4 ADD PUSH2 0x11AF SWAP1 PUSH2 0x4C56 JUMP JUMPDEST DUP1 MLOAD DUP3 MLOAD EQ PUSH2 0x28CA JUMPI PUSH1 0x40 MLOAD PUSH3 0x461BCD PUSH1 0xE5 SHL DUP2 MSTORE PUSH1 0x20 PUSH1 0x4 DUP3 ADD MSTORE PUSH1 0x2B PUSH1 0x24 DUP3 ADD MSTORE PUSH32 0x436F6E7472696275746F727320616E642062616C616E636573206D7573742062 PUSH1 0x44 DUP3 ADD MSTORE PUSH11 0x652073616D652073697A65 PUSH1 0xA8 SHL PUSH1 0x64 DUP3 ADD MSTORE PUSH1 0x84 ADD PUSH2 0x11AF JUMP JUMPDEST PUSH1 0xC8 DUP3 MLOAD GT ISZERO PUSH2 0x292B JUMPI PUSH1 0x40 MLOAD PUSH3 0x461BCD PUSH1 0xE5 SHL DUP2 MSTORE PUSH1 0x20 PUSH1 0x4 DUP3 ADD MSTORE PUSH1 0x26 PUSH1 0x24 DUP3 ADD MSTORE PUSH32 0x436F6E7472696275746F72206C697374206C656E677468206D75737420626520 PUSH1 0x44 DUP3 ADD MSTORE PUSH6 0x3C3D2032303 PUSH1 0xD4 SHL PUSH1 0x64 DUP3 ADD MSTORE PUSH1 0x84 ADD PUSH2 0x11AF JUMP JUMPDEST PUSH1 0x0 DUP1 JUMPDEST DUP3 MLOAD DUP2 PUSH1 0xFF AND LT ISZERO PUSH2 0x297E JUMPI PUSH2 0x296A DUP4 DUP3 PUSH1 0xFF AND DUP2 MLOAD DUP2 LT PUSH2 0x2953 JUMPI PUSH2 0x2953 PUSH2 0x4CFA JUMP JUMPDEST PUSH1 0x20 MUL PUSH1 0x20 ADD ADD MLOAD DUP4 PUSH2 0x3253 SWAP1 SWAP2 SWAP1 PUSH4 0xFFFFFFFF AND JUMP JUMPDEST SWAP2 POP DUP1 PUSH2 0x2976 DUP2 PUSH2 0x4DFD JUMP JUMPDEST SWAP2 POP POP PUSH2 0x292F JUMP JUMPDEST POP DUP1 PUSH2 0x2989 CALLER PUSH2 0x1CDF JUMP JUMPDEST LT ISZERO PUSH2 0x29EC JUMPI PUSH1 0x40 MLOAD PUSH3 0x461BCD PUSH1 0xE5 SHL DUP2 MSTORE PUSH1 0x20 PUSH1 0x4 DUP3 ADD MSTORE PUSH1 0x2C PUSH1 0x24 DUP3 ADD MSTORE PUSH32 0x4163636F756E742062616C616E6365206D757374206265203E3D2073756D206F PUSH1 0x44 DUP3 ADD MSTORE PUSH12 0x33103130B630B731B2B9971 PUSH1 0xA5 SHL PUSH1 0x64 DUP3 ADD MSTORE PUSH1 0x84 ADD PUSH2 0x11AF JUMP JUMPDEST CALLER PUSH1 0x0 SWAP1 DUP2 MSTORE PUSH1 0x1 PUSH1 0x20 SWAP1 DUP2 MSTORE PUSH1 0x40 DUP1 DUP4 KECCAK256 ADDRESS DUP5 MSTORE SWAP1 SWAP2 MSTORE SWAP1 KECCAK256 SLOAD DUP2 GT ISZERO PUSH2 0x2A6E JUMPI PUSH1 0x40 MLOAD PUSH3 0x461BCD PUSH1 0xE5 SHL DUP2 MSTORE PUSH1 0x20 PUSH1 0x4 DUP3 ADD MSTORE PUSH1 0x2F PUSH1 0x24 DUP3 ADD MSTORE PUSH32 0x436F6E747261637420616C6C6F77616E6365206D757374206265203E3D207375 PUSH1 0x44 DUP3 ADD MSTORE PUSH15 0x369037B3103130B630B731B2B9971 PUSH1 0x8D SHL PUSH1 0x64 DUP3 ADD MSTORE PUSH1 0x84 ADD PUSH2 0x11AF JUMP JUMPDEST PUSH1 0x0 DUP1 PUSH1 0x0 JUMPDEST DUP6 MLOAD DUP2 PUSH1 0xFF AND LT ISZERO PUSH2 0x2CE0 JUMPI DUP6 DUP2 PUSH1 0xFF AND DUP2 MLOAD DUP2 LT PUSH2 0x2A95 JUMPI PUSH2 0x2A95 PUSH2 0x4CFA JUMP JUMPDEST PUSH1 0x20 MUL PUSH1 0x20 ADD ADD MLOAD SWAP3 POP PUSH1 0x0 PUSH1 0x1 PUSH1 0x1 PUSH1 0xA0 SHL SUB AND DUP4 PUSH1 0x1 PUSH1 0x1 PUSH1 0xA0 SHL SUB AND EQ ISZERO DUP1 ISZERO PUSH2 0x2ACD JUMPI POP PUSH2 0xDEAD PUSH1 0x1 PUSH1 0x1 PUSH1 0xA0 SHL SUB DUP5 AND EQ ISZERO JUMPDEST PUSH2 0x2B19 JUMPI PUSH1 0x40 MLOAD PUSH3 0x461BCD PUSH1 0xE5 SHL DUP2 MSTORE PUSH1 0x20 PUSH1 0x4 DUP3 ADD DUP2 SWAP1 MSTORE PUSH1 0x24 DUP3 ADD MSTORE PUSH32 0x43616E6E6F742061697264726F7020746F206120646561642061646472657373 PUSH1 0x44 DUP3 ADD MSTORE PUSH1 0x64 ADD PUSH2 0x11AF JUMP JUMPDEST PUSH2 0x2B22 DUP4 PUSH2 0x1CDF JUMP JUMPDEST SWAP2 POP ADDRESS PUSH1 0x1 PUSH1 0x1 PUSH1 0xA0 SHL SUB AND PUSH4 0x23B872DD CALLER DUP6 DUP9 DUP6 PUSH1 0xFF AND DUP2 MLOAD DUP2 LT PUSH2 0x2B4A JUMPI PUSH2 0x2B4A PUSH2 0x4CFA JUMP JUMPDEST PUSH1 0x20 SWAP1 DUP2 MUL SWAP2 SWAP1 SWAP2 ADD ADD MLOAD PUSH1 0x40 MLOAD PUSH1 0x1 PUSH1 0x1 PUSH1 0xE0 SHL SUB NOT PUSH1 0xE0 DUP7 SWAP1 SHL AND DUP2 MSTORE PUSH1 0x1 PUSH1 0x1 PUSH1 0xA0 SHL SUB SWAP4 DUP5 AND PUSH1 0x4 DUP3 ADD MSTORE SWAP3 SWAP1 SWAP2 AND PUSH1 0x24 DUP4 ADD MSTORE PUSH1 0x44 DUP3 ADD MSTORE PUSH1 0x64 ADD PUSH1 0x20 PUSH1 0x40 MLOAD DUP1 DUP4 SUB DUP2 PUSH1 0x0 DUP8 GAS CALL ISZERO DUP1 ISZERO PUSH2 0x2BA9 JUMPI RETURNDATASIZE PUSH1 0x0 DUP1 RETURNDATACOPY RETURNDATASIZE PUSH1 0x0 REVERT JUMPDEST POP POP POP POP PUSH1 0x40 MLOAD RETURNDATASIZE PUSH1 0x1F NOT PUSH1 0x1F DUP3 ADD AND DUP3 ADD DUP1 PUSH1 0x40 MSTORE POP DUP2 ADD SWAP1 PUSH2 0x2BCD SWAP2 SWAP1 PUSH2 0x4D5F JUMP JUMPDEST POP DUP5 DUP2 PUSH1 0xFF AND DUP2 MLOAD DUP2 LT PUSH2 0x2BE3 JUMPI PUSH2 0x2BE3 PUSH2 0x4CFA JUMP JUMPDEST PUSH1 0x20 MUL PUSH1 0x20 ADD ADD MLOAD DUP3 PUSH2 0x2BF6 SWAP2 SWAP1 PUSH2 0x4E1C JUMP JUMPDEST PUSH2 0x2BFF DUP5 PUSH2 0x1CDF JUMP JUMPDEST EQ PUSH2 0x2C65 JUMPI PUSH1 0x40 MLOAD PUSH3 0x461BCD PUSH1 0xE5 SHL DUP2 MSTORE PUSH1 0x20 PUSH1 0x4 DUP3 ADD MSTORE PUSH1 0x30 PUSH1 0x24 DUP3 ADD MSTORE PUSH32 0x436F6E7472696275746F72206D75737420726563696576652066756C6C206261 PUSH1 0x44 DUP3 ADD MSTORE PUSH16 0x6C616E6365206F662061697264726F7 PUSH1 0x84 SHL PUSH1 0x64 DUP3 ADD MSTORE PUSH1 0x84 ADD PUSH2 0x11AF JUMP JUMPDEST PUSH32 0x8C32C568416FCF97BE35CE5B27844CFDDCD63A67A1A602C3595BA5DAC38F303A DUP4 DUP7 DUP4 PUSH1 0xFF AND DUP2 MLOAD DUP2 LT PUSH2 0x2C9C JUMPI PUSH2 0x2C9C PUSH2 0x4CFA JUMP JUMPDEST PUSH1 0x20 MUL PUSH1 0x20 ADD ADD MLOAD PUSH1 0x40 MLOAD PUSH2 0x2CC6 SWAP3 SWAP2 SWAP1 PUSH1 0x1 PUSH1 0x1 PUSH1 0xA0 SHL SUB SWAP3 SWAP1 SWAP3 AND DUP3 MSTORE PUSH1 0x20 DUP3 ADD MSTORE PUSH1 0x40 ADD SWAP1 JUMP JUMPDEST PUSH1 0x40 MLOAD DUP1 SWAP2 SUB SWAP1 LOG1 DUP1 PUSH2 0x2CD8 DUP2 PUSH2 0x4DFD JUMP JUMPDEST SWAP2 POP POP PUSH2 0x2A74 JUMP JUMPDEST POP POP POP POP POP POP JUMP JUMPDEST PUSH1 0x5 SLOAD PUSH1 0x1 PUSH1 0x1 PUSH1 0xA0 SHL SUB AND CALLER EQ PUSH2 0x2D12 JUMPI PUSH1 0x40 MLOAD PUSH3 0x461BCD PUSH1 0xE5 SHL DUP2 MSTORE PUSH1 0x4 ADD PUSH2 0x11AF SWAP1 PUSH2 0x4C56 JUMP JUMPDEST PUSH1 0x1 PUSH1 0x1 PUSH1 0xA0 SHL SUB DUP2 DUP2 AND PUSH1 0x0 DUP2 DUP2 MSTORE PUSH1 0x2B PUSH1 0x20 SWAP1 DUP2 MSTORE PUSH1 0x40 DUP1 DUP4 KECCAK256 DUP1 SLOAD PUSH1 0x1 PUSH1 0xFF NOT SWAP2 DUP3 AND DUP2 OR SWAP1 SWAP3 SSTORE PUSH1 0x24 SWAP4 DUP5 SWAP1 MSTORE SWAP4 DUP3 SWAP1 KECCAK256 DUP1 SLOAD SWAP1 SWAP5 AND OR SWAP1 SWAP3 SSTORE PUSH1 0xD SLOAD SWAP2 MLOAD PUSH4 0x31E79DB PUSH1 0xE4 SHL DUP2 MSTORE PUSH1 0x4 DUP2 ADD SWAP4 SWAP1 SWAP4 MSTORE SWAP3 AND SWAP2 PUSH4 0x31E79DB0 SWAP2 ADD PUSH1 0x0 PUSH1 0x40 MLOAD DUP1 DUP4 SUB DUP2 PUSH1 0x0 DUP8 DUP1 EXTCODESIZE ISZERO DUP1 ISZERO PUSH2 0x2D8B JUMPI PUSH1 0x0 DUP1 REVERT JUMPDEST POP GAS CALL ISZERO DUP1 ISZERO PUSH2 0x2D9F JUMPI RETURNDATASIZE PUSH1 0x0 DUP1 RETURNDATACOPY RETURNDATASIZE PUSH1 0x0 REVERT JUMPDEST POP POP PUSH1 0x40 MLOAD PUSH1 0x1 PUSH1 0x1 PUSH1 0xA0 SHL SUB DUP5 AND DUP2 MSTORE PUSH32 0x85D097E432D8E396FA72C83EBD34196326E1CF1694EF910CD53554B2EE7597C5 SWAP3 POP PUSH1 0x20 ADD SWAP1 POP PUSH2 0x215C JUMP JUMPDEST PUSH1 0x5 SLOAD PUSH1 0x1 PUSH1 0x1 PUSH1 0xA0 SHL SUB AND CALLER EQ PUSH2 0x2E07 JUMPI PUSH1 0x40 MLOAD PUSH3 0x461BCD PUSH1 0xE5 SHL DUP2 MSTORE PUSH1 0x4 ADD PUSH2 0x11AF SWAP1 PUSH2 0x4C56 JUMP JUMPDEST PUSH1 0x22 SLOAD DUP2 ISZERO ISZERO PUSH1 0xFF SWAP1 SWAP2 AND ISZERO ISZERO SUB PUSH2 0x2E1E JUMPI PUSH1 0x0 DUP1 REVERT JUMPDEST PUSH1 0x22 DUP1 SLOAD PUSH1 0xFF NOT AND DUP3 ISZERO ISZERO SWAP1 DUP2 OR SWAP1 SWAP2 SSTORE PUSH1 0x40 MLOAD SWAP1 DUP2 MSTORE PUSH32 0xFF5917043F8453AF413305B2DBD1ED9748A37DF481BEB71BA4B9B212A07B9BEF SWAP1 PUSH1 0x20 ADD PUSH2 0x215C JUMP JUMPDEST PUSH1 0x5 SLOAD PUSH1 0x1 PUSH1 0x1 PUSH1 0xA0 SHL SUB AND CALLER EQ PUSH2 0x2E89 JUMPI PUSH1 0x40 MLOAD PUSH3 0x461BCD PUSH1 0xE5 SHL DUP2 MSTORE PUSH1 0x4 ADD PUSH2 0x11AF SWAP1 PUSH2 0x4C56 JUMP JUMPDEST PUSH1 0xD SLOAD PUSH1 0x40 MLOAD PUSH4 0xD8032ED3 PUSH1 0xE0 SHL DUP2 MSTORE PUSH1 0x1 PUSH1 0x1 PUSH1 0xA0 SHL SUB DUP4 DUP2 AND PUSH1 0x4 DUP4 ADD MSTORE SWAP1 SWAP2 AND SWAP1 PUSH4 0xD8032ED3 SWAP1 PUSH1 0x24 ADD PUSH1 0x0 PUSH1 0x40 MLOAD DUP1 DUP4 SUB DUP2 PUSH1 0x0 DUP8 DUP1 EXTCODESIZE ISZERO DUP1 ISZERO PUSH2 0x2ED0 JUMPI PUSH1 0x0 DUP1 REVERT JUMPDEST POP GAS CALL ISZERO DUP1 ISZERO PUSH2 0x2EE4 JUMPI RETURNDATASIZE PUSH1 0x0 DUP1 RETURNDATACOPY RETURNDATASIZE PUSH1 0x0 REVERT JUMPDEST POP POP PUSH1 0x40 MLOAD PUSH1 0x1 PUSH1 0x1 PUSH1 0xA0 SHL SUB DUP5 AND DUP2 MSTORE PUSH32 0x7597AA09105646B4CC4486748AECD1D7C5DBCBB7BBE2863C3FC27E613B64432D SWAP3 POP PUSH1 0x20 ADD SWAP1 POP PUSH2 0x215C JUMP JUMPDEST PUSH1 0x5 SLOAD PUSH1 0x1 PUSH1 0x1 PUSH1 0xA0 SHL SUB AND CALLER EQ PUSH2 0x2F4C JUMPI PUSH1 0x40 MLOAD PUSH3 0x461BCD PUSH1 0xE5 SHL DUP2 MSTORE PUSH1 0x4 ADD PUSH2 0x11AF SWAP1 PUSH2 0x4C56 JUMP JUMPDEST PUSH1 0x1 PUSH1 0x1 PUSH1 0xA0 SHL SUB DUP3 AND PUSH1 0x0 DUP2 DUP2 MSTORE PUSH1 0x25 PUSH1 0x20 SWAP1 DUP2 MSTORE PUSH1 0x40 SWAP2 DUP3 SWAP1 KECCAK256 DUP1 SLOAD PUSH1 0xFF NOT AND DUP6 ISZERO ISZERO SWAP1 DUP2 OR SWAP1 SWAP2 SSTORE SWAP2 MLOAD SWAP2 DUP3 MSTORE PUSH32 0xC5E00CFC9494C002F5A5ECB735339BF61C88D0E9340BBE76D10BB5F0E48E6F85 SWAP2 ADD PUSH2 0x1366 JUMP JUMPDEST PUSH1 0xD SLOAD PUSH1 0x40 DUP1 MLOAD PUSH4 0x39E107B PUSH1 0xE6 SHL DUP2 MSTORE SWAP1 MLOAD PUSH1 0x0 SWAP3 PUSH1 0x1 PUSH1 0x1 PUSH1 0xA0 SHL SUB AND SWAP2 PUSH4 0xE7841EC0 SWAP2 PUSH1 0x4 DUP1 DUP4 ADD SWAP3 PUSH1 0x20 SWAP3 SWAP2 SWAP1 DUP3 SWAP1 SUB ADD DUP2 DUP7 GAS STATICCALL ISZERO DUP1 ISZERO PUSH2 0x17F4 JUMPI RETURNDATASIZE PUSH1 0x0 DUP1 RETURNDATACOPY RETURNDATASIZE PUSH1 0x0 REVERT JUMPDEST PUSH1 0xD SLOAD PUSH1 0x40 MLOAD PUSH4 0x5183D6FD PUSH1 0xE0 SHL DUP2 MSTORE PUSH1 0x4 DUP2 ADD DUP4 SWAP1 MSTORE PUSH1 0x0 SWAP2 DUP3 SWAP2 DUP3 SWAP2 DUP3 SWAP2 DUP3 SWAP2 DUP3 SWAP2 PUSH1 0x1 PUSH1 0x1 PUSH1 0xA0 SHL SUB SWAP1 SWAP2 AND SWAP1 PUSH4 0x5183D6FD SWAP1 PUSH1 0x24 ADD PUSH2 0x252B JUMP JUMPDEST PUSH1 0x5 SLOAD PUSH1 0x1 PUSH1 0x1 PUSH1 0xA0 SHL SUB AND CALLER EQ PUSH2 0x3056 JUMPI PUSH1 0x40 MLOAD PUSH3 0x461BCD PUSH1 0xE5 SHL DUP2 MSTORE PUSH1 0x4 ADD PUSH2 0x11AF SWAP1 PUSH2 0x4C56 JUMP JUMPDEST PUSH1 0x1 PUSH1 0x1 PUSH1 0xA0 SHL SUB DUP2 AND PUSH2 0x30BB JUMPI PUSH1 0x40 MLOAD PUSH3 0x461BCD PUSH1 0xE5 SHL DUP2 MSTORE PUSH1 0x20 PUSH1 0x4 DUP3 ADD MSTORE PUSH1 0x26 PUSH1 0x24 DUP3 ADD MSTORE PUSH32 0x4F776E61626C653A206E6577206F776E657220697320746865207A65726F2061 PUSH1 0x44 DUP3 ADD MSTORE PUSH6 0x646472657373 PUSH1 0xD0 SHL PUSH1 0x64 DUP3 ADD MSTORE PUSH1 0x84 ADD PUSH2 0x11AF JUMP JUMPDEST PUSH1 0x5 SLOAD PUSH1 0x40 MLOAD PUSH1 0x1 PUSH1 0x1 PUSH1 0xA0 SHL SUB DUP1 DUP5 AND SWAP3 AND SWAP1 PUSH32 0x8BE0079C531659141344CD1FD0A4F28419497F9722A3DAAFE3B4186F6B6457E0 SWAP1 PUSH1 0x0 SWAP1 LOG3 PUSH1 0x5 DUP1 SLOAD PUSH1 0x1 PUSH1 0x1 PUSH1 0xA0 SHL SUB NOT AND PUSH1 0x1 PUSH1 0x1 PUSH1 0xA0 SHL SUB SWAP3 SWAP1 SWAP3 AND SWAP2 SWAP1 SWAP2 OR SWAP1 SSTORE JUMP JUMPDEST PUSH1 0xD SLOAD PUSH1 0x40 MLOAD PUSH4 0x2C8BE281 PUSH1 0xE2 SHL DUP2 MSTORE CALLER PUSH1 0x4 DUP3 ADD MSTORE DUP3 ISZERO ISZERO PUSH1 0x24 DUP3 ADD MSTORE PUSH1 0x1 PUSH1 0x1 PUSH1 0xA0 SHL SUB SWAP1 SWAP2 AND SWAP1 PUSH4 0xB22F8A04 SWAP1 PUSH1 0x44 ADD PUSH2 0x1870 JUMP JUMPDEST PUSH1 0x5 SLOAD PUSH1 0x1 PUSH1 0x1 PUSH1 0xA0 SHL SUB AND CALLER EQ PUSH2 0x3179 JUMPI PUSH1 0x40 MLOAD PUSH3 0x461BCD PUSH1 0xE5 SHL DUP2 MSTORE PUSH1 0x4 ADD PUSH2 0x11AF SWAP1 PUSH2 0x4C56 JUMP JUMPDEST PUSH1 0x1 PUSH1 0x1 PUSH1 0xA0 SHL SUB AND PUSH1 0x0 SWAP1 DUP2 MSTORE PUSH1 0x26 PUSH1 0x20 MSTORE PUSH1 0x40 SWAP1 KECCAK256 DUP1 SLOAD PUSH1 0xFF NOT AND PUSH1 0x1 OR SWAP1 SSTORE JUMP JUMPDEST PUSH1 0x5 SLOAD PUSH1 0x1 PUSH1 0x1 PUSH1 0xA0 SHL SUB AND CALLER EQ PUSH2 0x31C7 JUMPI PUSH1 0x40 MLOAD PUSH3 0x461BCD PUSH1 0xE5 SHL DUP2 MSTORE PUSH1 0x4 ADD PUSH2 0x11AF SWAP1 PUSH2 0x4C56 JUMP JUMPDEST PUSH2 0x31D9 DUP2 PUSH8 0xDE0B6B3A7640000 PUSH2 0x4CA1 JUMP JUMPDEST SWAP1 POP PUSH2 0x7D0 PUSH1 0x2 SLOAD PUSH2 0x31EB SWAP2 SWAP1 PUSH2 0x4E34 JUMP JUMPDEST DUP2 LT ISZERO PUSH2 0x324E JUMPI PUSH1 0x40 MLOAD PUSH3 0x461BCD PUSH1 0xE5 SHL DUP2 MSTORE PUSH1 0x20 PUSH1 0x4 DUP3 ADD MSTORE PUSH1 0x2B PUSH1 0x24 DUP3 ADD MSTORE PUSH32 0x6D61782077616C6C65742063616E6E6F742062652073657420746F206C657373 PUSH1 0x44 DUP3 ADD MSTORE PUSH11 0x207468616E20302E303525 PUSH1 0xA8 SHL PUSH1 0x64 DUP3 ADD MSTORE PUSH1 0x84 ADD PUSH2 0x11AF JUMP JUMPDEST PUSH1 0x12 SSTORE JUMP JUMPDEST PUSH1 0x0 DUP1 PUSH2 0x3260 DUP4 DUP6 PUSH2 0x4E1C JUMP JUMPDEST SWAP1 POP DUP4 DUP2 LT ISZERO PUSH2 0x32B2 JUMPI PUSH1 0x40 MLOAD PUSH3 0x461BCD PUSH1 0xE5 SHL DUP2 MSTORE PUSH1 0x20 PUSH1 0x4 DUP3 ADD MSTORE PUSH1 0x1B PUSH1 0x24 DUP3 ADD MSTORE PUSH32 0x536166654D6174683A206164646974696F6E206F766572666C6F770000000000 PUSH1 0x44 DUP3 ADD MSTORE PUSH1 0x64 ADD PUSH2 0x11AF JUMP JUMPDEST SWAP4 SWAP3 POP POP POP JUMP JUMPDEST PUSH1 0x0 DUP3 PUSH1 0x0 SUB PUSH2 0x32CB JUMPI POP PUSH1 0x0 PUSH2 0x1412 JUMP JUMPDEST PUSH1 0x0 PUSH2 0x32D7 DUP4 DUP6 PUSH2 0x4CA1 JUMP JUMPDEST SWAP1 POP DUP3 PUSH2 0x32E4 DUP6 DUP4 PUSH2 0x4E34 JUMP JUMPDEST EQ PUSH2 0x32B2 JUMPI PUSH1 0x40 MLOAD PUSH3 0x461BCD PUSH1 0xE5 SHL DUP2 MSTORE PUSH1 0x20 PUSH1 0x4 DUP3 ADD MSTORE PUSH1 0x21 PUSH1 0x24 DUP3 ADD MSTORE PUSH32 0x536166654D6174683A206D756C7469706C69636174696F6E206F766572666C6F PUSH1 0x44 DUP3 ADD MSTORE PUSH1 0x77 PUSH1 0xF8 SHL PUSH1 0x64 DUP3 ADD MSTORE PUSH1 0x84 ADD PUSH2 0x11AF JUMP JUMPDEST PUSH1 0x0 PUSH2 0x32B2 DUP4 DUP4 PUSH1 0x40 MLOAD DUP1 PUSH1 0x40 ADD PUSH1 0x40 MSTORE DUP1 PUSH1 0x1A DUP2 MSTORE PUSH1 0x20 ADD PUSH32 0x536166654D6174683A206469766973696F6E206279207A65726F000000000000 DUP2 MSTORE POP PUSH2 0x45B6 JUMP JUMPDEST DUP1 PUSH1 0x0 SUB PUSH2 0x3388 JUMPI POP JUMP JUMPDEST PUSH2 0x3391 DUP2 PUSH2 0x45E4 JUMP JUMPDEST PUSH1 0x0 PUSH2 0x33AA PUSH1 0xB SLOAD PUSH1 0xC SLOAD PUSH2 0x3253 SWAP1 SWAP2 SWAP1 PUSH4 0xFFFFFFFF AND JUMP JUMPDEST SWAP1 POP PUSH1 0x0 DUP1 PUSH1 0x0 PUSH2 0x33EA PUSH1 0x1D SLOAD PUSH1 0x1C SLOAD PUSH1 0x1E SLOAD PUSH2 0x33C7 SWAP2 SWAP1 PUSH2 0x4E1C JUMP JUMPDEST PUSH2 0x33D1 SWAP2 SWAP1 PUSH2 0x4E1C JUMP JUMPDEST PUSH2 0x1202 DUP7 PUSH2 0x1202 PUSH1 0xC SLOAD SELFBALANCE PUSH2 0x32B9 SWAP1 SWAP2 SWAP1 PUSH4 0xFFFFFFFF AND JUMP JUMPDEST SWAP2 POP PUSH2 0x3425 PUSH1 0x18 SLOAD PUSH1 0x17 SLOAD PUSH1 0x15 SLOAD PUSH2 0x3402 SWAP2 SWAP1 PUSH2 0x4E1C JUMP JUMPDEST PUSH2 0x340C SWAP2 SWAP1 PUSH2 0x4E1C JUMP JUMPDEST PUSH2 0x1202 DUP7 PUSH2 0x1202 PUSH1 0xB SLOAD SELFBALANCE PUSH2 0x32B9 SWAP1 SWAP2 SWAP1 PUSH4 0xFFFFFFFF AND JUMP JUMPDEST SWAP1 POP PUSH2 0x3431 DUP3 DUP3 PUSH2 0x3253 JUMP JUMPDEST SWAP3 POP DUP3 ISZERO PUSH2 0x3490 JUMPI PUSH1 0xD SLOAD PUSH1 0x40 MLOAD PUSH1 0x0 SWAP2 PUSH1 0x1 PUSH1 0x1 PUSH1 0xA0 SHL SUB AND SWAP1 DUP6 SWAP1 DUP4 DUP2 DUP2 DUP2 DUP6 DUP8 GAS CALL SWAP3 POP POP POP RETURNDATASIZE DUP1 PUSH1 0x0 DUP2 EQ PUSH2 0x3486 JUMPI PUSH1 0x40 MLOAD SWAP2 POP PUSH1 0x1F NOT PUSH1 0x3F RETURNDATASIZE ADD AND DUP3 ADD PUSH1 0x40 MSTORE RETURNDATASIZE DUP3 MSTORE RETURNDATASIZE PUSH1 0x0 PUSH1 0x20 DUP5 ADD RETURNDATACOPY PUSH2 0x348B JUMP JUMPDEST PUSH1 0x60 SWAP2 POP JUMPDEST POP POP POP POP JUMPDEST PUSH1 0x0 PUSH2 0x34AF PUSH1 0x1D SLOAD PUSH2 0x2626 PUSH1 0x1E SLOAD PUSH1 0x1C SLOAD PUSH2 0x3253 SWAP1 SWAP2 SWAP1 PUSH4 0xFFFFFFFF AND JUMP JUMPDEST PUSH2 0x34CC PUSH1 0x18 SLOAD PUSH2 0x2626 PUSH1 0x15 SLOAD PUSH1 0x17 SLOAD PUSH2 0x3253 SWAP1 SWAP2 SWAP1 PUSH4 0xFFFFFFFF AND JUMP JUMPDEST PUSH2 0x34D6 SWAP2 SWAP1 PUSH2 0x4E1C JUMP JUMPDEST SWAP1 POP PUSH1 0x0 DUP2 ISZERO PUSH2 0x34ED JUMPI PUSH2 0x34EA SELFBALANCE DUP4 PUSH2 0x333B JUMP JUMPDEST SWAP1 POP JUMPDEST PUSH1 0x0 DUP2 PUSH2 0x3507 PUSH1 0x17 SLOAD PUSH1 0x1C SLOAD PUSH2 0x3253 SWAP1 SWAP2 SWAP1 PUSH4 0xFFFFFFFF AND JUMP JUMPDEST PUSH2 0x3511 SWAP2 SWAP1 PUSH2 0x4CA1 JUMP JUMPDEST SWAP1 POP PUSH1 0x0 DUP3 PUSH2 0x352D PUSH1 0x15 SLOAD PUSH1 0x1E SLOAD PUSH2 0x3253 SWAP1 SWAP2 SWAP1 PUSH4 0xFFFFFFFF AND JUMP JUMPDEST PUSH2 0x3537 SWAP2 SWAP1 PUSH2 0x4CA1 JUMP JUMPDEST SWAP1 POP PUSH1 0x0 DUP4 PUSH2 0x3553 PUSH1 0x16 SLOAD PUSH1 0x1B SLOAD PUSH2 0x3253 SWAP1 SWAP2 SWAP1 PUSH4 0xFFFFFFFF AND JUMP JUMPDEST PUSH2 0x355D SWAP2 SWAP1 PUSH2 0x4CA1 JUMP JUMPDEST SWAP1 POP PUSH1 0x0 DUP5 PUSH2 0x3579 PUSH1 0x18 SLOAD PUSH1 0x1D SLOAD PUSH2 0x3253 SWAP1 SWAP2 SWAP1 PUSH4 0xFFFFFFFF AND JUMP JUMPDEST PUSH2 0x3583 SWAP2 SWAP1 PUSH2 0x4CA1 JUMP JUMPDEST SWAP1 POP DUP4 ISZERO PUSH2 0x35E2 JUMPI PUSH1 0xE SLOAD PUSH1 0x40 MLOAD PUSH1 0x0 SWAP2 PUSH1 0x1 PUSH1 0x1 PUSH1 0xA0 SHL SUB AND SWAP1 DUP7 SWAP1 DUP4 DUP2 DUP2 DUP2 DUP6 DUP8 GAS CALL SWAP3 POP POP POP RETURNDATASIZE DUP1 PUSH1 0x0 DUP2 EQ PUSH2 0x35D8 JUMPI PUSH1 0x40 MLOAD SWAP2 POP PUSH1 0x1F NOT PUSH1 0x3F RETURNDATASIZE ADD AND DUP3 ADD PUSH1 0x40 MSTORE RETURNDATASIZE DUP3 MSTORE RETURNDATASIZE PUSH1 0x0 PUSH1 0x20 DUP5 ADD RETURNDATACOPY PUSH2 0x35DD JUMP JUMPDEST PUSH1 0x60 SWAP2 POP JUMPDEST POP POP POP POP JUMPDEST DUP3 ISZERO PUSH2 0x363F JUMPI PUSH1 0xF SLOAD PUSH1 0x40 MLOAD PUSH1 0x0 SWAP2 PUSH1 0x1 PUSH1 0x1 PUSH1 0xA0 SHL SUB AND SWAP1 DUP6 SWAP1 DUP4 DUP2 DUP2 DUP2 DUP6 DUP8 GAS CALL SWAP3 POP POP POP RETURNDATASIZE DUP1 PUSH1 0x0 DUP2 EQ PUSH2 0x3635 JUMPI PUSH1 0x40 MLOAD SWAP2 POP PUSH1 0x1F NOT PUSH1 0x3F RETURNDATASIZE ADD AND DUP3 ADD PUSH1 0x40 MSTORE RETURNDATASIZE DUP3 MSTORE RETURNDATASIZE PUSH1 0x0 PUSH1 0x20 DUP5 ADD RETURNDATACOPY PUSH2 0x363A JUMP JUMPDEST PUSH1 0x60 SWAP2 POP JUMPDEST POP POP POP POP JUMPDEST DUP2 ISZERO PUSH2 0x369C JUMPI PUSH1 0x10 SLOAD PUSH1 0x40 MLOAD PUSH1 0x0 SWAP2 PUSH1 0x1 PUSH1 0x1 PUSH1 0xA0 SHL SUB AND SWAP1 DUP5 SWAP1 DUP4 DUP2 DUP2 DUP2 DUP6 DUP8 GAS CALL SWAP3 POP POP POP RETURNDATASIZE DUP1 PUSH1 0x0 DUP2 EQ PUSH2 0x3692 JUMPI PUSH1 0x40 MLOAD SWAP2 POP PUSH1 0x1F NOT PUSH1 0x3F RETURNDATASIZE ADD AND DUP3 ADD PUSH1 0x40 MSTORE RETURNDATASIZE DUP3 MSTORE RETURNDATASIZE PUSH1 0x0 PUSH1 0x20 DUP5 ADD RETURNDATACOPY PUSH2 0x3697 JUMP JUMPDEST PUSH1 0x60 SWAP2 POP JUMPDEST POP POP POP POP JUMPDEST DUP1 ISZERO PUSH2 0x36F9 JUMPI PUSH1 0x11 SLOAD PUSH1 0x40 MLOAD PUSH1 0x0 SWAP2 PUSH1 0x1 PUSH1 0x1 PUSH1 0xA0 SHL SUB AND SWAP1 DUP4 SWAP1 DUP4 DUP2 DUP2 DUP2 DUP6 DUP8 GAS CALL SWAP3 POP POP POP RETURNDATASIZE DUP1 PUSH1 0x0 DUP2 EQ PUSH2 0x36EF JUMPI PUSH1 0x40 MLOAD SWAP2 POP PUSH1 0x1F NOT PUSH1 0x3F RETURNDATASIZE ADD AND DUP3 ADD PUSH1 0x40 MSTORE RETURNDATASIZE DUP3 MSTORE RETURNDATASIZE PUSH1 0x0 PUSH1 0x20 DUP5 ADD RETURNDATACOPY PUSH2 0x36F4 JUMP JUMPDEST PUSH1 0x60 SWAP2 POP JUMPDEST POP POP POP POP JUMPDEST PUSH32 0x80195CC573B02CC48460CBCA6E6E4CC85DDB91959D946E1C3025EA3D87942DC3 DUP10 DUP3 DUP5 PUSH2 0x3727 DUP8 DUP10 PUSH2 0x4E1C JUMP JUMPDEST PUSH2 0x3731 SWAP2 SWAP1 PUSH2 0x4E1C JUMP JUMPDEST PUSH2 0x373B SWAP2 SWAP1 PUSH2 0x4E1C JUMP JUMPDEST PUSH1 0x40 DUP1 MLOAD SWAP3 DUP4 MSTORE PUSH1 0x20 DUP4 ADD SWAP2 SWAP1 SWAP2 MSTORE ADD PUSH2 0x2763 JUMP JUMPDEST PUSH1 0x0 PUSH2 0x32B2 DUP4 DUP4 PUSH1 0x40 MLOAD DUP1 PUSH1 0x40 ADD PUSH1 0x40 MSTORE DUP1 PUSH1 0x1E DUP2 MSTORE PUSH1 0x20 ADD PUSH32 0x536166654D6174683A207375627472616374696F6E206F766572666C6F770000 DUP2 MSTORE POP PUSH2 0x4454 JUMP JUMPDEST PUSH1 0x1 PUSH1 0x1 PUSH1 0xA0 SHL SUB DUP4 AND PUSH2 0x37F4 JUMPI PUSH1 0x40 MLOAD PUSH3 0x461BCD PUSH1 0xE5 SHL DUP2 MSTORE PUSH1 0x20 PUSH1 0x4 DUP3 ADD MSTORE PUSH1 0x24 DUP1 DUP3 ADD MSTORE PUSH32 0x45524332303A20617070726F76652066726F6D20746865207A65726F20616464 PUSH1 0x44 DUP3 ADD MSTORE PUSH4 0x72657373 PUSH1 0xE0 SHL PUSH1 0x64 DUP3 ADD MSTORE PUSH1 0x84 ADD PUSH2 0x11AF JUMP JUMPDEST PUSH1 0x1 PUSH1 0x1 PUSH1 0xA0 SHL SUB DUP3 AND PUSH2 0x3855 JUMPI PUSH1 0x40 MLOAD PUSH3 0x461BCD PUSH1 0xE5 SHL DUP2 MSTORE PUSH1 0x20 PUSH1 0x4 DUP3 ADD MSTORE PUSH1 0x22 PUSH1 0x24 DUP3 ADD MSTORE PUSH32 0x45524332303A20617070726F766520746F20746865207A65726F206164647265 PUSH1 0x44 DUP3 ADD MSTORE PUSH2 0x7373 PUSH1 0xF0 SHL PUSH1 0x64 DUP3 ADD MSTORE PUSH1 0x84 ADD PUSH2 0x11AF JUMP JUMPDEST PUSH1 0x1 PUSH1 0x1 PUSH1 0xA0 SHL SUB DUP4 DUP2 AND PUSH1 0x0 DUP2 DUP2 MSTORE PUSH1 0x1 PUSH1 0x20 SWAP1 DUP2 MSTORE PUSH1 0x40 DUP1 DUP4 KECCAK256 SWAP5 DUP8 AND DUP1 DUP5 MSTORE SWAP5 DUP3 MSTORE SWAP2 DUP3 SWAP1 KECCAK256 DUP6 SWAP1 SSTORE SWAP1 MLOAD DUP5 DUP2 MSTORE PUSH32 0x8C5BE1E5EBEC7D5BD14F71427D1E84F3DD0314C0F7B2291E5B200AC8C7C3B925 SWAP2 ADD JUMPDEST PUSH1 0x40 MLOAD DUP1 SWAP2 SUB SWAP1 LOG3 POP POP POP JUMP JUMPDEST PUSH1 0x1 PUSH1 0x1 PUSH1 0xA0 SHL SUB DUP4 AND PUSH2 0x38DD JUMPI PUSH1 0x40 MLOAD PUSH3 0x461BCD PUSH1 0xE5 SHL DUP2 MSTORE PUSH1 0x4 ADD PUSH2 0x11AF SWAP1 PUSH2 0x4E56 JUMP JUMPDEST PUSH1 0x1 PUSH1 0x1 PUSH1 0xA0 SHL SUB DUP3 AND PUSH2 0x3903 JUMPI PUSH1 0x40 MLOAD PUSH3 0x461BCD PUSH1 0xE5 SHL DUP2 MSTORE PUSH1 0x4 ADD PUSH2 0x11AF SWAP1 PUSH2 0x4E9B JUMP JUMPDEST PUSH2 0x3940 DUP2 PUSH1 0x40 MLOAD DUP1 PUSH1 0x60 ADD PUSH1 0x40 MSTORE DUP1 PUSH1 0x26 DUP2 MSTORE PUSH1 0x20 ADD PUSH2 0x4F67 PUSH1 0x26 SWAP2 CODECOPY PUSH1 0x1 PUSH1 0x1 PUSH1 0xA0 SHL SUB DUP7 AND PUSH1 0x0 SWAP1 DUP2 MSTORE PUSH1 0x20 DUP2 SWAP1 MSTORE PUSH1 0x40 SWAP1 KECCAK256 SLOAD SWAP2 SWAP1 PUSH2 0x4454 JUMP JUMPDEST PUSH1 0x1 PUSH1 0x1 PUSH1 0xA0 SHL SUB DUP1 DUP6 AND PUSH1 0x0 SWAP1 DUP2 MSTORE PUSH1 0x20 DUP2 SWAP1 MSTORE PUSH1 0x40 DUP1 DUP3 KECCAK256 SWAP4 SWAP1 SWAP4 SSTORE SWAP1 DUP5 AND DUP2 MSTORE KECCAK256 SLOAD PUSH2 0x396F SWAP1 DUP3 PUSH2 0x3253 JUMP JUMPDEST PUSH1 0x1 PUSH1 0x1 PUSH1 0xA0 SHL SUB DUP4 DUP2 AND PUSH1 0x0 DUP2 DUP2 MSTORE PUSH1 0x20 DUP2 DUP2 MSTORE PUSH1 0x40 SWAP2 DUP3 SWAP1 KECCAK256 SWAP5 SWAP1 SWAP5 SSTORE MLOAD DUP5 DUP2 MSTORE SWAP1 SWAP3 SWAP2 DUP7 AND SWAP2 PUSH32 0xDDF252AD1BE2C89B69C2B068FC378DAA952BA7F163C4A11628F55A4DF523B3EF SWAP2 ADD PUSH2 0x38AA JUMP JUMPDEST PUSH1 0x1 PUSH1 0x1 PUSH1 0xA0 SHL SUB DUP4 AND PUSH1 0x0 SWAP1 DUP2 MSTORE PUSH1 0x26 PUSH1 0x20 MSTORE PUSH1 0x40 SWAP1 KECCAK256 SLOAD PUSH1 0xFF AND ISZERO PUSH2 0x3A21 JUMPI PUSH1 0x40 MLOAD PUSH3 0x461BCD PUSH1 0xE5 SHL DUP2 MSTORE PUSH1 0x20 PUSH1 0x4 DUP3 ADD MSTORE PUSH1 0x15 PUSH1 0x24 DUP3 ADD MSTORE PUSH21 0x14D95B99195C881A5CC8189B1858DADB1A5CDD1959 PUSH1 0x5A SHL PUSH1 0x44 DUP3 ADD MSTORE PUSH1 0x64 ADD PUSH2 0x11AF JUMP JUMPDEST PUSH1 0x1 PUSH1 0x1 PUSH1 0xA0 SHL SUB DUP3 AND PUSH1 0x0 SWAP1 DUP2 MSTORE PUSH1 0x26 PUSH1 0x20 MSTORE PUSH1 0x40 SWAP1 KECCAK256 SLOAD PUSH1 0xFF AND ISZERO PUSH2 0x3A8A JUMPI PUSH1 0x40 MLOAD PUSH3 0x461BCD PUSH1 0xE5 SHL DUP2 MSTORE PUSH1 0x20 PUSH1 0x4 DUP3 ADD MSTORE PUSH1 0x18 PUSH1 0x24 DUP3 ADD MSTORE PUSH32 0x526563697069656E7420697320626C61636B6C69737465640000000000000000 PUSH1 0x44 DUP3 ADD MSTORE PUSH1 0x64 ADD PUSH2 0x11AF JUMP JUMPDEST PUSH1 0x1 PUSH1 0x1 PUSH1 0xA0 SHL SUB DUP4 AND PUSH2 0x3AB0 JUMPI PUSH1 0x40 MLOAD PUSH3 0x461BCD PUSH1 0xE5 SHL DUP2 MSTORE PUSH1 0x4 ADD PUSH2 0x11AF SWAP1 PUSH2 0x4E56 JUMP JUMPDEST PUSH1 0x1 PUSH1 0x1 PUSH1 0xA0 SHL SUB DUP3 AND PUSH2 0x3AD6 JUMPI PUSH1 0x40 MLOAD PUSH3 0x461BCD PUSH1 0xE5 SHL DUP2 MSTORE PUSH1 0x4 ADD PUSH2 0x11AF SWAP1 PUSH2 0x4E9B JUMP JUMPDEST PUSH1 0x1 PUSH1 0x1 PUSH1 0xA0 SHL SUB DUP4 AND PUSH1 0x0 SWAP1 DUP2 MSTORE PUSH1 0x2B PUSH1 0x20 MSTORE PUSH1 0x40 DUP2 KECCAK256 SLOAD DUP2 SWAP1 DUP2 SWAP1 DUP2 SWAP1 DUP2 SWAP1 DUP2 SWAP1 PUSH1 0xFF AND PUSH2 0x3B59 JUMPI PUSH1 0xA SLOAD PUSH1 0x1 PUSH1 0xB0 SHL SWAP1 DIV PUSH1 0xFF AND PUSH2 0x3B59 JUMPI PUSH1 0x40 MLOAD PUSH3 0x461BCD PUSH1 0xE5 SHL DUP2 MSTORE PUSH1 0x20 PUSH1 0x4 DUP3 ADD DUP2 SWAP1 MSTORE PUSH1 0x24 DUP3 ADD MSTORE PUSH32 0x54726164696E6720686173206E6F7420796574206265656E20656E61626C6564 PUSH1 0x44 DUP3 ADD MSTORE PUSH1 0x64 ADD PUSH2 0x11AF JUMP JUMPDEST DUP7 PUSH1 0x0 SUB PUSH2 0x3B78 JUMPI PUSH2 0x3B6D DUP10 DUP10 PUSH1 0x0 PUSH2 0x38B7 JUMP JUMPDEST POP POP POP POP POP POP POP POP POP JUMP JUMPDEST PUSH1 0xA SLOAD PUSH1 0x1 PUSH1 0xA0 SHL SWAP1 DIV PUSH1 0xFF AND ISZERO DUP1 ISZERO PUSH2 0x3BAB JUMPI POP PUSH1 0x1 PUSH1 0x1 PUSH1 0xA0 SHL SUB DUP10 AND PUSH1 0x0 SWAP1 DUP2 MSTORE PUSH1 0x24 PUSH1 0x20 MSTORE PUSH1 0x40 SWAP1 KECCAK256 SLOAD PUSH1 0xFF AND ISZERO JUMPDEST DUP1 ISZERO PUSH2 0x3BD0 JUMPI POP PUSH1 0x1 PUSH1 0x1 PUSH1 0xA0 SHL SUB DUP9 AND PUSH1 0x0 SWAP1 DUP2 MSTORE PUSH1 0x24 PUSH1 0x20 MSTORE PUSH1 0x40 SWAP1 KECCAK256 SLOAD PUSH1 0xFF AND ISZERO JUMPDEST ISZERO PUSH2 0x434A JUMPI PUSH1 0x1 PUSH1 0x1 PUSH1 0xA0 SHL SUB DUP1 DUP10 AND PUSH1 0x0 SWAP1 DUP2 MSTORE PUSH1 0x27 PUSH1 0x20 MSTORE PUSH1 0x40 DUP1 DUP3 KECCAK256 SLOAD SWAP3 DUP13 AND DUP3 MSTORE SWAP1 KECCAK256 SLOAD PUSH1 0xFF SWAP2 DUP3 AND SWAP2 AND DUP1 ISZERO DUP1 ISZERO PUSH2 0x3C0B JUMPI POP DUP2 ISZERO JUMPDEST ISZERO PUSH2 0x3D1C JUMPI PUSH2 0x3C1B DUP12 DUP12 DUP12 PUSH2 0x38B7 JUMP JUMPDEST PUSH1 0xD SLOAD PUSH1 0x1 PUSH1 0x1 PUSH1 0xA0 SHL SUB AND PUSH4 0xE30443BC DUP13 PUSH2 0x3C36 DUP2 PUSH2 0x4557 JUMP JUMPDEST PUSH1 0x40 MLOAD PUSH1 0x1 PUSH1 0x1 PUSH1 0xE0 SHL SUB NOT PUSH1 0xE0 DUP6 SWAP1 SHL AND DUP2 MSTORE PUSH1 0x1 PUSH1 0x1 PUSH1 0xA0 SHL SUB SWAP1 SWAP3 AND PUSH1 0x4 DUP4 ADD MSTORE PUSH1 0x24 DUP3 ADD MSTORE PUSH1 0x44 ADD PUSH1 0x0 PUSH1 0x40 MLOAD DUP1 DUP4 SUB DUP2 PUSH1 0x0 DUP8 DUP1 EXTCODESIZE ISZERO DUP1 ISZERO PUSH2 0x3C7C JUMPI PUSH1 0x0 DUP1 REVERT JUMPDEST POP GAS CALL ISZERO DUP1 ISZERO PUSH2 0x3C90 JUMPI RETURNDATASIZE PUSH1 0x0 DUP1 RETURNDATACOPY RETURNDATASIZE PUSH1 0x0 REVERT JUMPDEST POP POP PUSH1 0xD SLOAD PUSH1 0x1 PUSH1 0x1 PUSH1 0xA0 SHL SUB AND SWAP2 POP PUSH4 0xE30443BC SWAP1 POP DUP12 PUSH2 0x3CB1 DUP2 PUSH2 0x4557 JUMP JUMPDEST PUSH1 0x40 MLOAD PUSH1 0x1 PUSH1 0x1 PUSH1 0xE0 SHL SUB NOT PUSH1 0xE0 DUP6 SWAP1 SHL AND DUP2 MSTORE PUSH1 0x1 PUSH1 0x1 PUSH1 0xA0 SHL SUB SWAP1 SWAP3 AND PUSH1 0x4 DUP4 ADD MSTORE PUSH1 0x24 DUP3 ADD MSTORE PUSH1 0x44 ADD PUSH1 0x0 PUSH1 0x40 MLOAD DUP1 DUP4 SUB DUP2 PUSH1 0x0 DUP8 DUP1 EXTCODESIZE ISZERO DUP1 ISZERO PUSH2 0x3CF7 JUMPI PUSH1 0x0 DUP1 REVERT JUMPDEST POP GAS CALL ISZERO DUP1 ISZERO PUSH2 0x3D0B JUMPI RETURNDATASIZE PUSH1 0x0 DUP1 RETURNDATACOPY RETURNDATASIZE PUSH1 0x0 REVERT JUMPDEST POP POP POP POP POP POP POP POP POP POP POP POP POP POP POP JUMP JUMPDEST DUP1 ISZERO DUP1 ISZERO PUSH2 0x3D33 JUMPI POP PUSH1 0xA SLOAD PUSH1 0x1 PUSH1 0xA8 SHL SWAP1 DIV PUSH1 0xFF AND JUMPDEST ISZERO PUSH2 0x3DEA JUMPI PUSH1 0x1 PUSH1 0x1 PUSH1 0xA0 SHL SUB DUP12 AND PUSH1 0x0 SWAP1 DUP2 MSTORE PUSH1 0x29 PUSH1 0x20 MSTORE PUSH1 0x40 SWAP1 KECCAK256 SLOAD TIMESTAMP LT ISZERO PUSH2 0x3DA0 JUMPI PUSH1 0x40 MLOAD PUSH3 0x461BCD PUSH1 0xE5 SHL DUP2 MSTORE PUSH1 0x20 PUSH1 0x4 DUP3 ADD MSTORE PUSH1 0x1D PUSH1 0x24 DUP3 ADD MSTORE PUSH32 0x546F6B656E7320617265207374616B656420616E64206C6F636B656421000000 PUSH1 0x44 DUP3 ADD MSTORE PUSH1 0x64 ADD PUSH2 0x11AF JUMP JUMPDEST PUSH1 0x1 PUSH1 0x1 PUSH1 0xA0 SHL SUB DUP12 AND PUSH1 0x0 SWAP1 DUP2 MSTORE PUSH1 0x29 PUSH1 0x20 MSTORE PUSH1 0x40 SWAP1 KECCAK256 SLOAD ISZERO PUSH2 0x3DE5 JUMPI PUSH1 0x1 PUSH1 0x1 PUSH1 0xA0 SHL SUB DUP12 AND PUSH1 0x0 SWAP1 DUP2 MSTORE PUSH1 0x29 PUSH1 0x20 SWAP1 DUP2 MSTORE PUSH1 0x40 DUP1 DUP4 KECCAK256 DUP4 SWAP1 SSTORE PUSH1 0x28 SWAP1 SWAP2 MSTORE DUP2 KECCAK256 SSTORE JUMPDEST PUSH2 0x4046 JUMP JUMPDEST DUP2 ISZERO PUSH2 0x3E98 JUMPI PUSH1 0x15 SLOAD PUSH1 0x16 SLOAD PUSH1 0x17 SLOAD PUSH1 0x18 SLOAD PUSH1 0x19 SLOAD PUSH1 0x1A SLOAD PUSH1 0x2C SLOAD SWAP6 SWAP14 POP SWAP4 SWAP12 POP SWAP2 SWAP10 POP SWAP8 POP SWAP6 POP SWAP4 POP PUSH1 0xFF AND ISZERO PUSH2 0x3DE5 JUMPI PUSH1 0x31 SLOAD ORIGIN PUSH1 0x0 SWAP1 DUP2 MSTORE PUSH1 0x2F PUSH1 0x20 MSTORE PUSH1 0x40 SWAP1 KECCAK256 SLOAD PUSH2 0x3E39 SWAP2 SWAP1 PUSH2 0x4E1C JUMP JUMPDEST TIMESTAMP LT ISZERO PUSH2 0x3E81 JUMPI PUSH1 0x40 MLOAD PUSH3 0x461BCD PUSH1 0xE5 SHL DUP2 MSTORE PUSH1 0x20 PUSH1 0x4 DUP3 ADD MSTORE PUSH1 0x16 PUSH1 0x24 DUP3 ADD MSTORE PUSH22 0x636F6F6C646F776E20706572696F6420616374697665 PUSH1 0x50 SHL PUSH1 0x44 DUP3 ADD MSTORE PUSH1 0x64 ADD PUSH2 0x11AF JUMP JUMPDEST ORIGIN PUSH1 0x0 SWAP1 DUP2 MSTORE PUSH1 0x2F PUSH1 0x20 MSTORE PUSH1 0x40 SWAP1 KECCAK256 TIMESTAMP SWAP1 SSTORE PUSH2 0x4046 JUMP JUMPDEST DUP1 ISZERO PUSH2 0x4046 JUMPI PUSH1 0x1E SLOAD PUSH1 0x1B SLOAD PUSH1 0x1C SLOAD PUSH1 0x1D SLOAD PUSH1 0x1F SLOAD PUSH1 0x2C SLOAD SWAP5 SWAP13 POP SWAP3 SWAP11 POP SWAP1 SWAP9 POP SWAP7 POP SWAP5 POP PUSH1 0x0 SWAP4 POP PUSH1 0xFF AND ISZERO PUSH2 0x3FD5 JUMPI PUSH1 0x30 SLOAD PUSH2 0x3ED7 SWAP1 PUSH1 0x2 PUSH2 0x4E1C JUMP JUMPDEST NUMBER GT PUSH2 0x3F1A JUMPI PUSH1 0x40 MLOAD PUSH3 0x461BCD PUSH1 0xE5 SHL DUP2 MSTORE PUSH1 0x20 PUSH1 0x4 DUP3 ADD MSTORE PUSH1 0x12 PUSH1 0x24 DUP3 ADD MSTORE PUSH18 0x796F75207368616C6C206E6F742070617373 PUSH1 0x70 SHL PUSH1 0x44 DUP3 ADD MSTORE PUSH1 0x64 ADD PUSH2 0x11AF JUMP JUMPDEST PUSH1 0x2D SLOAD GASPRICE GT ISZERO PUSH2 0x3F6C JUMPI PUSH1 0x40 MLOAD PUSH3 0x461BCD PUSH1 0xE5 SHL DUP2 MSTORE PUSH1 0x20 PUSH1 0x4 DUP3 ADD MSTORE PUSH1 0x18 PUSH1 0x24 DUP3 ADD MSTORE PUSH32 0x4761732070726963652065786365656473206C696D69742E0000000000000000 PUSH1 0x44 DUP3 ADD MSTORE PUSH1 0x64 ADD PUSH2 0x11AF JUMP JUMPDEST ORIGIN PUSH1 0x0 SWAP1 DUP2 MSTORE PUSH1 0x2E PUSH1 0x20 MSTORE PUSH1 0x40 SWAP1 KECCAK256 SLOAD NUMBER SWAP1 SUB PUSH2 0x3FC2 JUMPI PUSH1 0x40 MLOAD PUSH3 0x461BCD PUSH1 0xE5 SHL DUP2 MSTORE PUSH1 0x20 PUSH1 0x4 DUP3 ADD MSTORE PUSH1 0x14 PUSH1 0x24 DUP3 ADD MSTORE PUSH20 0x546F6F206D616E7920545820696E20626C6F636B PUSH1 0x60 SHL PUSH1 0x44 DUP3 ADD MSTORE PUSH1 0x64 ADD PUSH2 0x11AF JUMP JUMPDEST ORIGIN PUSH1 0x0 SWAP1 DUP2 MSTORE PUSH1 0x2E PUSH1 0x20 MSTORE PUSH1 0x40 SWAP1 KECCAK256 NUMBER SWAP1 SSTORE JUMPDEST PUSH1 0x12 SLOAD DUP10 PUSH2 0x3FE2 DUP13 PUSH2 0x1CDF JUMP JUMPDEST PUSH2 0x3FEC SWAP2 SWAP1 PUSH2 0x4E1C JUMP JUMPDEST GT ISZERO PUSH2 0x4046 JUMPI PUSH1 0x40 MLOAD PUSH3 0x461BCD PUSH1 0xE5 SHL DUP2 MSTORE PUSH1 0x20 PUSH1 0x4 DUP3 ADD MSTORE PUSH1 0x24 DUP1 DUP3 ADD MSTORE PUSH32 0x45786365656473206D6178696D756D2077616C6C657420746F6B656E20616D6F PUSH1 0x44 DUP3 ADD MSTORE PUSH4 0x3AB73A17 PUSH1 0xE1 SHL PUSH1 0x64 DUP3 ADD MSTORE PUSH1 0x84 ADD PUSH2 0x11AF JUMP JUMPDEST PUSH1 0x0 PUSH2 0x407D DUP5 DUP7 DUP9 PUSH2 0x4058 DUP12 DUP14 PUSH2 0x4E1C JUMP JUMPDEST PUSH2 0x4062 SWAP2 SWAP1 PUSH2 0x4E1C JUMP JUMPDEST PUSH2 0x406C SWAP2 SWAP1 PUSH2 0x4E1C JUMP JUMPDEST PUSH2 0x4076 SWAP2 SWAP1 PUSH2 0x4E1C JUMP JUMPDEST DUP11 SWAP1 PUSH2 0x3253 JUMP JUMPDEST SWAP1 POP PUSH1 0x0 PUSH2 0x408A ADDRESS PUSH2 0x1CDF JUMP JUMPDEST SWAP1 POP PUSH1 0x14 SLOAD DUP2 LT ISZERO DUP1 ISZERO PUSH2 0x40B7 JUMPI POP PUSH1 0x1 PUSH1 0x1 PUSH1 0xA0 SHL SUB DUP14 AND PUSH1 0x0 SWAP1 DUP2 MSTORE PUSH1 0x27 PUSH1 0x20 MSTORE PUSH1 0x40 SWAP1 KECCAK256 SLOAD PUSH1 0xFF AND ISZERO JUMPDEST ISZERO PUSH2 0x41CE JUMPI PUSH1 0xA DUP1 SLOAD PUSH1 0xFF PUSH1 0xA0 SHL NOT AND PUSH1 0x1 PUSH1 0xA0 SHL OR SWAP1 SSTORE PUSH1 0x22 SLOAD PUSH1 0xFF AND DUP1 ISZERO PUSH2 0x40E1 JUMPI POP PUSH1 0x0 DUP7 GT JUMPDEST DUP1 ISZERO PUSH2 0x40ED JUMPI POP PUSH1 0x0 DUP3 GT JUMPDEST ISZERO PUSH2 0x419F JUMPI PUSH1 0x0 PUSH2 0x410B PUSH1 0xB SLOAD PUSH1 0xC SLOAD PUSH2 0x3253 SWAP1 SWAP2 SWAP1 PUSH4 0xFFFFFFFF AND JUMP JUMPDEST SWAP1 POP PUSH1 0x0 PUSH2 0x4128 DUP3 PUSH2 0x1202 PUSH1 0xC SLOAD DUP7 PUSH2 0x32B9 SWAP1 SWAP2 SWAP1 PUSH4 0xFFFFFFFF AND JUMP JUMPDEST SWAP1 POP PUSH1 0x0 PUSH2 0x4145 DUP4 PUSH2 0x1202 PUSH1 0xB SLOAD DUP8 PUSH2 0x32B9 SWAP1 SWAP2 SWAP1 PUSH4 0xFFFFFFFF AND JUMP JUMPDEST SWAP1 POP PUSH1 0x0 PUSH2 0x4162 PUSH1 0x21 SLOAD PUSH2 0x1202 DUP13 DUP7 PUSH2 0x32B9 SWAP1 SWAP2 SWAP1 PUSH4 0xFFFFFFFF AND JUMP JUMPDEST SWAP1 POP PUSH1 0x0 PUSH2 0x417F PUSH1 0x20 SLOAD PUSH2 0x1202 DUP14 DUP7 PUSH2 0x32B9 SWAP1 SWAP2 SWAP1 PUSH4 0xFFFFFFFF AND JUMP JUMPDEST SWAP1 POP PUSH1 0x0 PUSH2 0x418D DUP3 DUP5 PUSH2 0x3253 JUMP JUMPDEST SWAP1 POP PUSH2 0x4198 DUP2 PUSH2 0x4736 JUMP JUMPDEST POP POP POP POP POP POP JUMPDEST PUSH1 0x0 PUSH2 0x41AA ADDRESS PUSH2 0x1CDF JUMP JUMPDEST SWAP1 POP PUSH2 0x41B5 DUP2 PUSH2 0x337D JUMP JUMPDEST POP PUSH1 0x0 PUSH1 0xC DUP2 SWAP1 SSTORE PUSH1 0xB SSTORE PUSH1 0xA DUP1 SLOAD PUSH1 0xFF PUSH1 0xA0 SHL NOT AND SWAP1 SSTORE JUMPDEST PUSH1 0x0 PUSH2 0x41DF PUSH1 0x64 PUSH2 0x1202 DUP15 DUP7 PUSH2 0x32B9 JUMP JUMPDEST SWAP1 POP PUSH1 0x0 DUP7 ISZERO PUSH2 0x4232 JUMPI PUSH1 0x64 PUSH2 0x41F5 DUP15 DUP10 PUSH2 0x32B9 JUMP JUMPDEST PUSH2 0x41FF SWAP2 SWAP1 PUSH2 0x4E34 JUMP JUMPDEST SWAP1 POP PUSH2 0x4221 DUP16 PUSH1 0xA PUSH1 0x0 SWAP1 SLOAD SWAP1 PUSH2 0x100 EXP SWAP1 DIV PUSH1 0x1 PUSH1 0x1 PUSH1 0xA0 SHL SUB AND DUP4 PUSH2 0x38B7 JUMP JUMPDEST PUSH1 0x2 SLOAD PUSH2 0x422E SWAP1 DUP3 PUSH2 0x3750 JUMP JUMPDEST PUSH1 0x2 SSTORE JUMPDEST PUSH2 0x4246 PUSH2 0x423F DUP3 DUP5 PUSH2 0x4E1C JUMP JUMPDEST DUP15 SWAP1 PUSH2 0x3750 JUMP JUMPDEST SWAP13 POP DUP6 ISZERO PUSH2 0x4263 JUMPI PUSH1 0xB SLOAD PUSH2 0x425B SWAP1 DUP4 PUSH2 0x3253 JUMP JUMPDEST PUSH1 0xB SSTORE PUSH2 0x4274 JUMP JUMPDEST PUSH1 0xC SLOAD PUSH2 0x4270 SWAP1 DUP4 PUSH2 0x3253 JUMP JUMPDEST PUSH1 0xC SSTORE JUMPDEST PUSH2 0x427F DUP16 ADDRESS DUP5 PUSH2 0x38B7 JUMP JUMPDEST PUSH1 0x23 SLOAD PUSH1 0xD SLOAD PUSH1 0x40 MLOAD PUSH1 0x1 PUSH3 0x4D3B87 PUSH1 0xE0 SHL SUB NOT DUP2 MSTORE PUSH1 0x4 DUP2 ADD DUP4 SWAP1 MSTORE PUSH1 0x1 PUSH1 0x1 PUSH1 0xA0 SHL SUB SWAP1 SWAP2 AND SWAP1 PUSH4 0xFFB2C479 SWAP1 PUSH1 0x24 ADD PUSH1 0x60 PUSH1 0x40 MLOAD DUP1 DUP4 SUB DUP2 PUSH1 0x0 DUP8 GAS CALL SWAP3 POP POP POP DUP1 ISZERO PUSH2 0x42EC JUMPI POP PUSH1 0x40 DUP1 MLOAD PUSH1 0x1F RETURNDATASIZE SWAP1 DUP2 ADD PUSH1 0x1F NOT AND DUP3 ADD SWAP1 SWAP3 MSTORE PUSH2 0x42E9 SWAP2 DUP2 ADD SWAP1 PUSH2 0x4D7C JUMP JUMPDEST PUSH1 0x1 JUMPDEST ISZERO PUSH2 0x4342 JUMPI PUSH1 0x40 DUP1 MLOAD DUP5 DUP2 MSTORE PUSH1 0x20 DUP2 ADD DUP5 SWAP1 MSTORE SWAP1 DUP2 ADD DUP3 SWAP1 MSTORE PUSH1 0x60 DUP2 ADD DUP6 SWAP1 MSTORE ORIGIN SWAP1 PUSH1 0x1 SWAP1 PUSH32 0xC864333D6121033635AB41B29AE52F10A22CF4438C3E4F1C4C68518FEB2F8A98 SWAP1 PUSH1 0x80 ADD PUSH1 0x40 MLOAD DUP1 SWAP2 SUB SWAP1 LOG3 POP POP POP JUMPDEST POP POP POP POP POP POP POP JUMPDEST PUSH2 0x4355 DUP10 DUP10 DUP10 PUSH2 0x38B7 JUMP JUMPDEST PUSH1 0xD SLOAD PUSH1 0x1 PUSH1 0x1 PUSH1 0xA0 SHL SUB AND PUSH4 0xE30443BC DUP11 PUSH2 0x4370 DUP2 PUSH2 0x4557 JUMP JUMPDEST PUSH1 0x40 MLOAD PUSH1 0x1 PUSH1 0x1 PUSH1 0xE0 SHL SUB NOT PUSH1 0xE0 DUP6 SWAP1 SHL AND DUP2 MSTORE PUSH1 0x1 PUSH1 0x1 PUSH1 0xA0 SHL SUB SWAP1 SWAP3 AND PUSH1 0x4 DUP4 ADD MSTORE PUSH1 0x24 DUP3 ADD MSTORE PUSH1 0x44 ADD PUSH1 0x0 PUSH1 0x40 MLOAD DUP1 DUP4 SUB DUP2 PUSH1 0x0 DUP8 DUP1 EXTCODESIZE ISZERO DUP1 ISZERO PUSH2 0x43B6 JUMPI PUSH1 0x0 DUP1 REVERT JUMPDEST POP GAS CALL ISZERO DUP1 ISZERO PUSH2 0x43CA JUMPI RETURNDATASIZE PUSH1 0x0 DUP1 RETURNDATACOPY RETURNDATASIZE PUSH1 0x0 REVERT JUMPDEST POP POP PUSH1 0xD SLOAD PUSH1 0x1 PUSH1 0x1 PUSH1 0xA0 SHL SUB AND SWAP2 POP PUSH4 0xE30443BC SWAP1 POP DUP10 PUSH2 0x43EB DUP2 PUSH2 0x4557 JUMP JUMPDEST PUSH1 0x40 MLOAD PUSH1 0x1 PUSH1 0x1 PUSH1 0xE0 SHL SUB NOT PUSH1 0xE0 DUP6 SWAP1 SHL AND DUP2 MSTORE PUSH1 0x1 PUSH1 0x1 PUSH1 0xA0 SHL SUB SWAP1 SWAP3 AND PUSH1 0x4 DUP4 ADD MSTORE PUSH1 0x24 DUP3 ADD MSTORE PUSH1 0x44 ADD PUSH1 0x0 PUSH1 0x40 MLOAD DUP1 DUP4 SUB DUP2 PUSH1 0x0 DUP8 DUP1 EXTCODESIZE ISZERO DUP1 ISZERO PUSH2 0x4431 JUMPI PUSH1 0x0 DUP1 REVERT JUMPDEST POP GAS CALL ISZERO DUP1 ISZERO PUSH2 0x4445 JUMPI RETURNDATASIZE PUSH1 0x0 DUP1 RETURNDATACOPY RETURNDATASIZE PUSH1 0x0 REVERT JUMPDEST POP POP POP POP POP POP POP POP POP POP POP POP POP JUMP JUMPDEST PUSH1 0x0 DUP2 DUP5 DUP5 GT ISZERO PUSH2 0x4478 JUMPI PUSH1 0x40 MLOAD PUSH3 0x461BCD PUSH1 0xE5 SHL DUP2 MSTORE PUSH1 0x4 ADD PUSH2 0x11AF SWAP2 SWAP1 PUSH2 0x48A4 JUMP JUMPDEST POP PUSH1 0x0 PUSH2 0x4485 DUP5 DUP7 PUSH2 0x4EDE JUMP JUMPDEST SWAP6 SWAP5 POP POP POP POP POP JUMP JUMPDEST PUSH1 0x1 PUSH1 0x1 PUSH1 0xA0 SHL SUB DUP3 AND PUSH1 0x0 SWAP1 DUP2 MSTORE PUSH1 0x27 PUSH1 0x20 MSTORE PUSH1 0x40 SWAP1 KECCAK256 DUP1 SLOAD PUSH1 0xFF NOT AND DUP3 ISZERO DUP1 ISZERO SWAP2 SWAP1 SWAP2 OR SWAP1 SWAP2 SSTORE PUSH2 0x451B JUMPI PUSH1 0xD SLOAD PUSH1 0x40 MLOAD PUSH4 0x31E79DB PUSH1 0xE4 SHL DUP2 MSTORE PUSH1 0x1 PUSH1 0x1 PUSH1 0xA0 SHL SUB DUP5 DUP2 AND PUSH1 0x4 DUP4 ADD MSTORE SWAP1 SWAP2 AND SWAP1 PUSH4 0x31E79DB0 SWAP1 PUSH1 0x24 ADD PUSH1 0x0 PUSH1 0x40 MLOAD DUP1 DUP4 SUB DUP2 PUSH1 0x0 DUP8 DUP1 EXTCODESIZE ISZERO DUP1 ISZERO PUSH2 0x4502 JUMPI PUSH1 0x0 DUP1 REVERT JUMPDEST POP GAS CALL ISZERO DUP1 ISZERO PUSH2 0x4516 JUMPI RETURNDATASIZE PUSH1 0x0 DUP1 RETURNDATACOPY RETURNDATASIZE PUSH1 0x0 REVERT JUMPDEST POP POP POP POP JUMPDEST PUSH1 0x40 MLOAD DUP2 ISZERO ISZERO SWAP1 PUSH1 0x1 PUSH1 0x1 PUSH1 0xA0 SHL SUB DUP5 AND SWAP1 PUSH32 0xFFA9187BF1F18BF477BD0EA1BCBB64E93B6A98132473929EDFCE215CD9B16FAB SWAP1 PUSH1 0x0 SWAP1 LOG3 POP POP JUMP JUMPDEST PUSH1 0xA SLOAD PUSH1 0x0 SWAP1 PUSH1 0x1 PUSH1 0xA8 SHL SWAP1 DIV PUSH1 0xFF AND PUSH2 0x4579 JUMPI PUSH2 0x4574 DUP3 PUSH2 0x1CDF JUMP JUMPDEST PUSH2 0x1412 JUMP JUMPDEST PUSH1 0x1 PUSH1 0x1 PUSH1 0xA0 SHL SUB DUP3 AND PUSH1 0x0 SWAP1 DUP2 MSTORE PUSH1 0x28 PUSH1 0x20 MSTORE PUSH1 0x40 SWAP1 KECCAK256 SLOAD PUSH2 0x1412 SWAP1 PUSH1 0x64 SWAP1 PUSH2 0x1202 SWAP1 PUSH2 0x45A7 SWAP1 DUP4 PUSH2 0x3253 JUMP JUMPDEST PUSH2 0x45B0 DUP7 PUSH2 0x1CDF JUMP JUMPDEST SWAP1 PUSH2 0x32B9 JUMP JUMPDEST PUSH1 0x0 DUP2 DUP4 PUSH2 0x45D7 JUMPI PUSH1 0x40 MLOAD PUSH3 0x461BCD PUSH1 0xE5 SHL DUP2 MSTORE PUSH1 0x4 ADD PUSH2 0x11AF SWAP2 SWAP1 PUSH2 0x48A4 JUMP JUMPDEST POP PUSH1 0x0 PUSH2 0x4485 DUP5 DUP7 PUSH2 0x4E34 JUMP JUMPDEST PUSH1 0x40 DUP1 MLOAD PUSH1 0x2 DUP1 DUP3 MSTORE PUSH1 0x60 DUP3 ADD DUP4 MSTORE PUSH1 0x0 SWAP3 PUSH1 0x20 DUP4 ADD SWAP1 DUP1 CALLDATASIZE DUP4 CALLDATACOPY ADD SWAP1 POP POP SWAP1 POP ADDRESS DUP2 PUSH1 0x0 DUP2 MLOAD DUP2 LT PUSH2 0x4619 JUMPI PUSH2 0x4619 PUSH2 0x4CFA JUMP JUMPDEST PUSH1 0x1 PUSH1 0x1 PUSH1 0xA0 SHL SUB SWAP3 DUP4 AND PUSH1 0x20 SWAP2 DUP3 MUL SWAP3 SWAP1 SWAP3 ADD DUP2 ADD SWAP2 SWAP1 SWAP2 MSTORE PUSH1 0x6 SLOAD PUSH1 0x40 DUP1 MLOAD PUSH4 0x15AB88C9 PUSH1 0xE3 SHL DUP2 MSTORE SWAP1 MLOAD SWAP2 SWAP1 SWAP4 AND SWAP3 PUSH4 0xAD5C4648 SWAP3 PUSH1 0x4 DUP1 DUP4 ADD SWAP4 SWAP2 SWAP3 DUP3 SWAP1 SUB ADD DUP2 DUP7 GAS STATICCALL ISZERO DUP1 ISZERO PUSH2 0x4672 JUMPI RETURNDATASIZE PUSH1 0x0 DUP1 RETURNDATACOPY RETURNDATASIZE PUSH1 0x0 REVERT JUMPDEST POP POP POP POP PUSH1 0x40 MLOAD RETURNDATASIZE PUSH1 0x1F NOT PUSH1 0x1F DUP3 ADD AND DUP3 ADD DUP1 PUSH1 0x40 MSTORE POP DUP2 ADD SWAP1 PUSH2 0x4696 SWAP2 SWAP1 PUSH2 0x4D29 JUMP JUMPDEST DUP2 PUSH1 0x1 DUP2 MLOAD DUP2 LT PUSH2 0x46A9 JUMPI PUSH2 0x46A9 PUSH2 0x4CFA JUMP JUMPDEST PUSH1 0x1 PUSH1 0x1 PUSH1 0xA0 SHL SUB SWAP3 DUP4 AND PUSH1 0x20 SWAP2 DUP3 MUL SWAP3 SWAP1 SWAP3 ADD ADD MSTORE PUSH1 0x6 SLOAD PUSH2 0x46CF SWAP2 ADDRESS SWAP2 AND DUP5 PUSH2 0x3792 JUMP JUMPDEST PUSH1 0x6 SLOAD PUSH1 0x40 MLOAD PUSH4 0x791AC947 PUSH1 0xE0 SHL DUP2 MSTORE PUSH1 0x1 PUSH1 0x1 PUSH1 0xA0 SHL SUB SWAP1 SWAP2 AND SWAP1 PUSH4 0x791AC947 SWAP1 PUSH2 0x4708 SWAP1 DUP6 SWAP1 PUSH1 0x0 SWAP1 DUP7 SWAP1 ADDRESS SWAP1 TIMESTAMP SWAP1 PUSH1 0x4 ADD PUSH2 0x4EF5 JUMP JUMPDEST PUSH1 0x0 PUSH1 0x40 MLOAD DUP1 DUP4 SUB DUP2 PUSH1 0x0 DUP8 DUP1 EXTCODESIZE ISZERO DUP1 ISZERO PUSH2 0x4722 JUMPI PUSH1 0x0 DUP1 REVERT JUMPDEST POP GAS CALL ISZERO DUP1 ISZERO PUSH2 0x2CE0 JUMPI RETURNDATASIZE PUSH1 0x0 DUP1 RETURNDATACOPY RETURNDATASIZE PUSH1 0x0 REVERT JUMPDEST PUSH1 0x0 PUSH2 0x4743 DUP3 PUSH1 0x2 PUSH2 0x333B JUMP JUMPDEST SWAP1 POP PUSH1 0x0 PUSH2 0x4751 DUP4 DUP4 PUSH2 0x3750 JUMP JUMPDEST SWAP1 POP SELFBALANCE PUSH2 0x475D DUP4 PUSH2 0x45E4 JUMP JUMPDEST PUSH1 0x0 PUSH2 0x4769 SELFBALANCE DUP4 PUSH2 0x3750 JUMP JUMPDEST SWAP1 POP PUSH2 0x4775 DUP4 DUP3 PUSH2 0x47BD JUMP JUMPDEST PUSH1 0x40 DUP1 MLOAD DUP6 DUP2 MSTORE PUSH1 0x20 DUP2 ADD DUP4 SWAP1 MSTORE SWAP1 DUP2 ADD DUP5 SWAP1 MSTORE PUSH32 0x17BBFB9A6069321B6DED73BD96327C9E6B7212A5CD51FF219CD61370ACAFB561 SWAP1 PUSH1 0x60 ADD PUSH1 0x40 MLOAD DUP1 SWAP2 SUB SWAP1 LOG1 POP POP POP POP POP JUMP JUMPDEST PUSH1 0x6 SLOAD PUSH2 0x47D5 SWAP1 ADDRESS SWAP1 PUSH1 0x1 PUSH1 0x1 PUSH1 0xA0 SHL SUB AND DUP5 PUSH2 0x3792 JUMP JUMPDEST PUSH1 0x6 SLOAD PUSH1 0x1 PUSH1 0x1 PUSH1 0xA0 SHL SUB AND PUSH4 0xF305D719 DUP3 ADDRESS DUP6 PUSH1 0x0 DUP1 PUSH2 0x47FE PUSH1 0x5 SLOAD PUSH1 0x1 PUSH1 0x1 PUSH1 0xA0 SHL SUB AND SWAP1 JUMP JUMPDEST PUSH1 0x40 MLOAD PUSH1 0xE0 DUP9 SWAP1 SHL PUSH1 0x1 PUSH1 0x1 PUSH1 0xE0 SHL SUB NOT AND DUP2 MSTORE PUSH1 0x1 PUSH1 0x1 PUSH1 0xA0 SHL SUB SWAP6 DUP7 AND PUSH1 0x4 DUP3 ADD MSTORE PUSH1 0x24 DUP2 ADD SWAP5 SWAP1 SWAP5 MSTORE PUSH1 0x44 DUP5 ADD SWAP3 SWAP1 SWAP3 MSTORE PUSH1 0x64 DUP4 ADD MSTORE SWAP1 SWAP2 AND PUSH1 0x84 DUP3 ADD MSTORE TIMESTAMP PUSH1 0xA4 DUP3 ADD MSTORE PUSH1 0xC4 ADD PUSH1 0x60 PUSH1 0x40 MLOAD DUP1 DUP4 SUB DUP2 DUP6 DUP9 GAS CALL ISZERO DUP1 ISZERO PUSH2 0x4866 JUMPI RETURNDATASIZE PUSH1 0x0 DUP1 RETURNDATACOPY RETURNDATASIZE PUSH1 0x0 REVERT JUMPDEST POP POP POP POP POP PUSH1 0x40 MLOAD RETURNDATASIZE PUSH1 0x1F NOT PUSH1 0x1F DUP3 ADD AND DUP3 ADD DUP1 PUSH1 0x40 MSTORE POP DUP2 ADD SWAP1 PUSH2 0x189E SWAP2 SWAP1 PUSH2 0x4D7C JUMP JUMPDEST PUSH1 0x0 PUSH1 0x20 DUP3 DUP5 SUB SLT ISZERO PUSH2 0x489D JUMPI PUSH1 0x0 DUP1 REVERT JUMPDEST POP CALLDATALOAD SWAP2 SWAP1 POP JUMP JUMPDEST PUSH1 0x0 PUSH1 0x20 DUP1 DUP4 MSTORE DUP4 MLOAD DUP1 DUP3 DUP6 ADD MSTORE PUSH1 0x0 JUMPDEST DUP2 DUP2 LT ISZERO PUSH2 0x48D1 JUMPI DUP6 DUP2 ADD DUP4 ADD MLOAD DUP6 DUP3 ADD PUSH1 0x40 ADD MSTORE DUP3 ADD PUSH2 0x48B5 JUMP JUMPDEST DUP2 DUP2 GT ISZERO PUSH2 0x48E3 JUMPI PUSH1 0x0 PUSH1 0x40 DUP4 DUP8 ADD ADD MSTORE JUMPDEST POP PUSH1 0x1F ADD PUSH1 0x1F NOT AND SWAP3 SWAP1 SWAP3 ADD PUSH1 0x40 ADD SWAP4 SWAP3 POP POP POP JUMP JUMPDEST PUSH1 0x1 PUSH1 0x1 PUSH1 0xA0 SHL SUB DUP2 AND DUP2 EQ PUSH2 0x19AB JUMPI PUSH1 0x0 DUP1 REVERT JUMPDEST DUP1 ISZERO ISZERO DUP2 EQ PUSH2 0x19AB JUMPI PUSH1 0x0 DUP1 REVERT JUMPDEST PUSH1 0x0 DUP1 PUSH1 0x40 DUP4 DUP6 SUB SLT ISZERO PUSH2 0x492F JUMPI PUSH1 0x0 DUP1 REVERT JUMPDEST DUP3 CALLDATALOAD PUSH2 0x493A DUP2 PUSH2 0x48F9 JUMP JUMPDEST SWAP2 POP PUSH1 0x20 DUP4 ADD CALLDATALOAD PUSH2 0x494A DUP2 PUSH2 0x490E JUMP JUMPDEST DUP1 SWAP2 POP POP SWAP3 POP SWAP3 SWAP1 POP JUMP JUMPDEST PUSH1 0x0 DUP1 PUSH1 0x40 DUP4 DUP6 SUB SLT ISZERO PUSH2 0x4968 JUMPI PUSH1 0x0 DUP1 REVERT JUMPDEST DUP3 CALLDATALOAD PUSH2 0x4973 DUP2 PUSH2 0x48F9 JUMP JUMPDEST SWAP5 PUSH1 0x20 SWAP4 SWAP1 SWAP4 ADD CALLDATALOAD SWAP4 POP POP POP JUMP JUMPDEST PUSH1 0x0 DUP1 PUSH1 0x40 DUP4 DUP6 SUB SLT ISZERO PUSH2 0x4994 JUMPI PUSH1 0x0 DUP1 REVERT JUMPDEST POP POP DUP1 CALLDATALOAD SWAP3 PUSH1 0x20 SWAP1 SWAP2 ADD CALLDATALOAD SWAP2 POP JUMP JUMPDEST PUSH4 0x4E487B71 PUSH1 0xE0 SHL PUSH1 0x0 MSTORE PUSH1 0x41 PUSH1 0x4 MSTORE PUSH1 0x24 PUSH1 0x0 REVERT JUMPDEST PUSH1 0x40 MLOAD PUSH1 0x1F DUP3 ADD PUSH1 0x1F NOT AND DUP2 ADD PUSH8 0xFFFFFFFFFFFFFFFF DUP2 GT DUP3 DUP3 LT OR ISZERO PUSH2 0x49E2 JUMPI PUSH2 0x49E2 PUSH2 0x49A3 JUMP JUMPDEST PUSH1 0x40 MSTORE SWAP2 SWAP1 POP JUMP JUMPDEST PUSH1 0x0 PUSH8 0xFFFFFFFFFFFFFFFF DUP3 GT ISZERO PUSH2 0x4A04 JUMPI PUSH2 0x4A04 PUSH2 0x49A3 JUMP JUMPDEST POP PUSH1 0x5 SHL PUSH1 0x20 ADD SWAP1 JUMP JUMPDEST PUSH1 0x0 DUP3 PUSH1 0x1F DUP4 ADD SLT PUSH2 0x4A1F JUMPI PUSH1 0x0 DUP1 REVERT JUMPDEST DUP2 CALLDATALOAD PUSH1 0x20 PUSH2 0x4A34 PUSH2 0x4A2F DUP4 PUSH2 0x49EA JUMP JUMPDEST PUSH2 0x49B9 JUMP JUMPDEST DUP3 DUP2 MSTORE PUSH1 0x5 SWAP3 SWAP1 SWAP3 SHL DUP5 ADD DUP2 ADD SWAP2 DUP2 DUP2 ADD SWAP1 DUP7 DUP5 GT ISZERO PUSH2 0x4A53 JUMPI PUSH1 0x0 DUP1 REVERT JUMPDEST DUP3 DUP7 ADD JUMPDEST DUP5 DUP2 LT ISZERO PUSH2 0x4A6E JUMPI DUP1 CALLDATALOAD DUP4 MSTORE SWAP2 DUP4 ADD SWAP2 DUP4 ADD PUSH2 0x4A57 JUMP JUMPDEST POP SWAP7 SWAP6 POP POP POP POP POP POP JUMP JUMPDEST PUSH1 0x0 DUP1 PUSH1 0x40 DUP4 DUP6 SUB SLT ISZERO PUSH2 0x4A8C JUMPI PUSH1 0x0 DUP1 REVERT JUMPDEST DUP3 CALLDATALOAD PUSH8 0xFFFFFFFFFFFFFFFF DUP1 DUP3 GT ISZERO PUSH2 0x4AA4 JUMPI PUSH1 0x0 DUP1 REVERT JUMPDEST DUP2 DUP6 ADD SWAP2 POP DUP6 PUSH1 0x1F DUP4 ADD SLT PUSH2 0x4AB8 JUMPI PUSH1 0x0 DUP1 REVERT JUMPDEST DUP2 CALLDATALOAD PUSH1 0x20 PUSH2 0x4AC8 PUSH2 0x4A2F DUP4 PUSH2 0x49EA JUMP JUMPDEST DUP3 DUP2 MSTORE PUSH1 0x5 SWAP3 SWAP1 SWAP3 SHL DUP5 ADD DUP2 ADD SWAP2 DUP2 DUP2 ADD SWAP1 DUP10 DUP5 GT ISZERO PUSH2 0x4AE7 JUMPI PUSH1 0x0 DUP1 REVERT JUMPDEST SWAP5 DUP3 ADD SWAP5 JUMPDEST DUP4 DUP7 LT ISZERO PUSH2 0x4B0E JUMPI DUP6 CALLDATALOAD PUSH2 0x4AFF DUP2 PUSH2 0x48F9 JUMP JUMPDEST DUP3 MSTORE SWAP5 DUP3 ADD SWAP5 SWAP1 DUP3 ADD SWAP1 PUSH2 0x4AEC JUMP JUMPDEST SWAP7 POP POP DUP7 ADD CALLDATALOAD SWAP3 POP POP DUP1 DUP3 GT ISZERO PUSH2 0x4B24 JUMPI PUSH1 0x0 DUP1 REVERT JUMPDEST POP PUSH2 0x4B31 DUP6 DUP3 DUP7 ADD PUSH2 0x4A0E JUMP JUMPDEST SWAP2 POP POP SWAP3 POP SWAP3 SWAP1 POP JUMP JUMPDEST PUSH1 0x0 DUP1 PUSH1 0x0 PUSH1 0x60 DUP5 DUP7 SUB SLT ISZERO PUSH2 0x4B50 JUMPI PUSH1 0x0 DUP1 REVERT JUMPDEST DUP4 CALLDATALOAD PUSH2 0x4B5B DUP2 PUSH2 0x48F9 JUMP JUMPDEST SWAP3 POP PUSH1 0x20 DUP5 ADD CALLDATALOAD PUSH2 0x4B6B DUP2 PUSH2 0x48F9 JUMP JUMPDEST SWAP3 SWAP6 SWAP3 SWAP5 POP POP POP PUSH1 0x40 SWAP2 SWAP1 SWAP2 ADD CALLDATALOAD SWAP1 JUMP JUMPDEST PUSH1 0x0 PUSH1 0x20 DUP3 DUP5 SUB SLT ISZERO PUSH2 0x4B8E JUMPI PUSH1 0x0 DUP1 REVERT JUMPDEST DUP2 CALLDATALOAD PUSH2 0x32B2 DUP2 PUSH2 0x490E JUMP JUMPDEST PUSH1 0x0 PUSH1 0x20 DUP3 DUP5 SUB SLT ISZERO PUSH2 0x4BAB JUMPI PUSH1 0x0 DUP1 REVERT JUMPDEST DUP2 CALLDATALOAD PUSH2 0x32B2 DUP2 PUSH2 0x48F9 JUMP JUMPDEST PUSH1 0x0 DUP1 PUSH1 0x0 DUP1 PUSH1 0x0 DUP1 PUSH1 0x0 DUP1 PUSH1 0x0 DUP1 PUSH1 0x0 PUSH2 0x160 DUP13 DUP15 SUB SLT ISZERO PUSH2 0x4BD8 JUMPI PUSH1 0x0 DUP1 REVERT JUMPDEST POP POP DUP10 CALLDATALOAD SWAP12 PUSH1 0x20 DUP12 ADD CALLDATALOAD SWAP12 POP PUSH1 0x40 DUP12 ADD CALLDATALOAD SWAP11 PUSH1 0x60 DUP2 ADD CALLDATALOAD SWAP11 POP PUSH1 0x80 DUP2 ADD CALLDATALOAD SWAP10 POP PUSH1 0xA0 DUP2 ADD CALLDATALOAD SWAP9 POP PUSH1 0xC0 DUP2 ADD CALLDATALOAD SWAP8 POP PUSH1 0xE0 DUP2 ADD CALLDATALOAD SWAP7 POP PUSH2 0x100 DUP2 ADD CALLDATALOAD SWAP6 POP PUSH2 0x120 DUP2 ADD CALLDATALOAD SWAP5 POP PUSH2 0x140 ADD CALLDATALOAD SWAP3 POP SWAP1 POP JUMP JUMPDEST PUSH1 0x0 DUP1 PUSH1 0x40 DUP4 DUP6 SUB SLT ISZERO PUSH2 0x4C3B JUMPI PUSH1 0x0 DUP1 REVERT JUMPDEST DUP3 CALLDATALOAD PUSH2 0x4C46 DUP2 PUSH2 0x48F9 JUMP JUMPDEST SWAP2 POP PUSH1 0x20 DUP4 ADD CALLDATALOAD PUSH2 0x494A DUP2 PUSH2 0x48F9 JUMP JUMPDEST PUSH1 0x20 DUP1 DUP3 MSTORE DUP2 DUP2 ADD MSTORE PUSH32 0x4F776E61626C653A2063616C6C6572206973206E6F7420746865206F776E6572 PUSH1 0x40 DUP3 ADD MSTORE PUSH1 0x60 ADD SWAP1 JUMP JUMPDEST PUSH4 0x4E487B71 PUSH1 0xE0 SHL PUSH1 0x0 MSTORE PUSH1 0x11 PUSH1 0x4 MSTORE PUSH1 0x24 PUSH1 0x0 REVERT JUMPDEST PUSH1 0x0 DUP2 PUSH1 0x0 NOT DIV DUP4 GT DUP3 ISZERO ISZERO AND ISZERO PUSH2 0x4CBB JUMPI PUSH2 0x4CBB PUSH2 0x4C8B JUMP JUMPDEST POP MUL SWAP1 JUMP JUMPDEST PUSH1 0x1 DUP2 DUP2 SHR SWAP1 DUP3 AND DUP1 PUSH2 0x4CD4 JUMPI PUSH1 0x7F DUP3 AND SWAP2 POP JUMPDEST PUSH1 0x20 DUP3 LT DUP2 SUB PUSH2 0x4CF4 JUMPI PUSH4 0x4E487B71 PUSH1 0xE0 SHL PUSH1 0x0 MSTORE PUSH1 0x22 PUSH1 0x4 MSTORE PUSH1 0x24 PUSH1 0x0 REVERT JUMPDEST POP SWAP2 SWAP1 POP JUMP JUMPDEST PUSH4 0x4E487B71 PUSH1 0xE0 SHL PUSH1 0x0 MSTORE PUSH1 0x32 PUSH1 0x4 MSTORE PUSH1 0x24 PUSH1 0x0 REVERT JUMPDEST PUSH1 0x0 PUSH1 0x1 DUP3 ADD PUSH2 0x4D22 JUMPI PUSH2 0x4D22 PUSH2 0x4C8B JUMP JUMPDEST POP PUSH1 0x1 ADD SWAP1 JUMP JUMPDEST PUSH1 0x0 PUSH1 0x20 DUP3 DUP5 SUB SLT ISZERO PUSH2 0x4D3B JUMPI PUSH1 0x0 DUP1 REVERT JUMPDEST DUP2 MLOAD PUSH2 0x32B2 DUP2 PUSH2 0x48F9 JUMP JUMPDEST PUSH1 0x0 PUSH1 0x20 DUP3 DUP5 SUB SLT ISZERO PUSH2 0x4D58 JUMPI PUSH1 0x0 DUP1 REVERT JUMPDEST POP MLOAD SWAP2 SWAP1 POP JUMP JUMPDEST PUSH1 0x0 PUSH1 0x20 DUP3 DUP5 SUB SLT ISZERO PUSH2 0x4D71 JUMPI PUSH1 0x0 DUP1 REVERT JUMPDEST DUP2 MLOAD PUSH2 0x32B2 DUP2 PUSH2 0x490E JUMP JUMPDEST PUSH1 0x0 DUP1 PUSH1 0x0 PUSH1 0x60 DUP5 DUP7 SUB SLT ISZERO PUSH2 0x4D91 JUMPI PUSH1 0x0 DUP1 REVERT JUMPDEST DUP4 MLOAD SWAP3 POP PUSH1 0x20 DUP5 ADD MLOAD SWAP2 POP PUSH1 0x40 DUP5 ADD MLOAD SWAP1 POP SWAP3 POP SWAP3 POP SWAP3 JUMP JUMPDEST PUSH1 0x0 DUP1 PUSH1 0x0 DUP1 PUSH1 0x0 DUP1 PUSH1 0xC0 DUP8 DUP10 SUB SLT ISZERO PUSH2 0x4DC3 JUMPI PUSH1 0x0 DUP1 REVERT JUMPDEST DUP7 MLOAD PUSH2 0x4DCE DUP2 PUSH2 0x48F9 JUMP JUMPDEST PUSH1 0x20 DUP9 ADD MLOAD PUSH1 0x40 DUP10 ADD MLOAD PUSH1 0x60 DUP11 ADD MLOAD PUSH1 0x80 DUP12 ADD MLOAD PUSH1 0xA0 SWAP1 SWAP12 ADD MLOAD SWAP4 SWAP13 SWAP3 SWAP12 POP SWAP1 SWAP10 SWAP1 SWAP9 POP SWAP7 POP SWAP1 SWAP5 POP SWAP3 POP POP POP JUMP JUMPDEST PUSH1 0x0 PUSH1 0xFF DUP3 AND PUSH1 0xFF DUP2 SUB PUSH2 0x4E13 JUMPI PUSH2 0x4E13 PUSH2 0x4C8B JUMP JUMPDEST PUSH1 0x1 ADD SWAP3 SWAP2 POP POP JUMP JUMPDEST PUSH1 0x0 DUP3 NOT DUP3 GT ISZERO PUSH2 0x4E2F JUMPI PUSH2 0x4E2F PUSH2 0x4C8B JUMP JUMPDEST POP ADD SWAP1 JUMP JUMPDEST PUSH1 0x0 DUP3 PUSH2 0x4E51 JUMPI PUSH4 0x4E487B71 PUSH1 0xE0 SHL PUSH1 0x0 MSTORE PUSH1 0x12 PUSH1 0x4 MSTORE PUSH1 0x24 PUSH1 0x0 REVERT JUMPDEST POP DIV SWAP1 JUMP JUMPDEST PUSH1 0x20 DUP1 DUP3 MSTORE PUSH1 0x25 SWAP1 DUP3 ADD MSTORE PUSH32 0x45524332303A207472616E736665722066726F6D20746865207A65726F206164 PUSH1 0x40 DUP3 ADD MSTORE PUSH5 0x6472657373 PUSH1 0xD8 SHL PUSH1 0x60 DUP3 ADD MSTORE PUSH1 0x80 ADD SWAP1 JUMP JUMPDEST PUSH1 0x20 DUP1 DUP3 MSTORE PUSH1 0x23 SWAP1 DUP3 ADD MSTORE PUSH32 0x45524332303A207472616E7366657220746F20746865207A65726F2061646472 PUSH1 0x40 DUP3 ADD MSTORE PUSH3 0x657373 PUSH1 0xE8 SHL PUSH1 0x60 DUP3 ADD MSTORE PUSH1 0x80 ADD SWAP1 JUMP JUMPDEST PUSH1 0x0 DUP3 DUP3 LT ISZERO PUSH2 0x4EF0 JUMPI PUSH2 0x4EF0 PUSH2 0x4C8B JUMP JUMPDEST POP SUB SWAP1 JUMP JUMPDEST PUSH1 0x0 PUSH1 0xA0 DUP3 ADD DUP8 DUP4 MSTORE PUSH1 0x20 DUP8 DUP2 DUP6 ADD MSTORE PUSH1 0xA0 PUSH1 0x40 DUP6 ADD MSTORE DUP2 DUP8 MLOAD DUP1 DUP5 MSTORE PUSH1 0xC0 DUP7 ADD SWAP2 POP DUP3 DUP10 ADD SWAP4 POP PUSH1 0x0 JUMPDEST DUP2 DUP2 LT ISZERO PUSH2 0x4F45 JUMPI DUP5 MLOAD PUSH1 0x1 PUSH1 0x1 PUSH1 0xA0 SHL SUB AND DUP4 MSTORE SWAP4 DUP4 ADD SWAP4 SWAP2 DUP4 ADD SWAP2 PUSH1 0x1 ADD PUSH2 0x4F20 JUMP JUMPDEST POP POP PUSH1 0x1 PUSH1 0x1 PUSH1 0xA0 SHL SUB SWAP7 SWAP1 SWAP7 AND PUSH1 0x60 DUP6 ADD MSTORE POP POP POP PUSH1 0x80 ADD MSTORE SWAP4 SWAP3 POP POP POP JUMP INVALID GASLIMIT MSTORE NUMBER ORIGIN ADDRESS GASPRICE KECCAK256 PUSH21 0x72616E7366657220616D6F756E7420657863656564 PUSH20 0x2062616C616E636545524332303A207472616E73 PUSH7 0x657220616D6F75 PUSH15 0x74206578636565647320616C6C6F77 PUSH2 0x6E63 PUSH6 0x45524332303A KECCAK256 PUSH5 0x6563726561 PUSH20 0x656420616C6C6F77616E63652062656C6F77207A PUSH6 0x726FA2646970 PUSH7 0x73582212208ADD 0x4A POP LOG4 RETURNDATACOPY CODECOPY MLOAD 0xE6 CALLVALUE 0xE9 0xBE 0xF AND CREATE 0xBA DUP10 PUSH25 0xFBCE79E3CEF02D0AE2619848535164736F6C634300080F0033 PUSH1 0x80 PUSH1 0x40 MSTORE PUSH1 0x12 DUP1 SLOAD PUSH1 0xFF PUSH1 0xB0 SHL NOT AND SWAP1 SSTORE CALLVALUE DUP1 ISZERO PUSH3 0x1E JUMPI PUSH1 0x0 DUP1 REVERT JUMPDEST POP PUSH1 0x40 MLOAD PUSH3 0x30E7 CODESIZE SUB DUP1 PUSH3 0x30E7 DUP4 CODECOPY DUP2 ADD PUSH1 0x40 DUP2 SWAP1 MSTORE PUSH3 0x41 SWAP2 PUSH3 0x241 JUMP JUMPDEST DUP2 DUP2 DUP2 DUP2 PUSH1 0x3 PUSH3 0x53 DUP4 DUP3 PUSH3 0x37B JUMP JUMPDEST POP PUSH1 0x4 PUSH3 0x62 DUP3 DUP3 PUSH3 0x37B JUMP JUMPDEST POP POP POP POP POP PUSH1 0x0 PUSH3 0x79 PUSH3 0x157 PUSH1 0x20 SHL PUSH1 0x20 SHR JUMP JUMPDEST PUSH1 0x9 DUP1 SLOAD PUSH1 0x1 PUSH1 0x1 PUSH1 0xA0 SHL SUB NOT AND PUSH1 0x1 PUSH1 0x1 PUSH1 0xA0 SHL SUB DUP4 AND SWAP1 DUP2 OR SWAP1 SWAP2 SSTORE PUSH1 0x40 MLOAD SWAP2 SWAP3 POP SWAP1 PUSH1 0x0 SWAP1 PUSH32 0x8BE0079C531659141344CD1FD0A4F28419497F9722A3DAAFE3B4186F6B6457E0 SWAP1 DUP3 SWAP1 LOG3 POP PUSH1 0x13 PUSH3 0xD5 DUP4 DUP3 PUSH3 0x37B JUMP JUMPDEST POP PUSH1 0x14 PUSH3 0xE4 DUP3 DUP3 PUSH3 0x37B JUMP JUMPDEST POP POP PUSH1 0x12 DUP1 SLOAD PUSH1 0x16 DUP1 SLOAD PUSH1 0x1 PUSH1 0x1 PUSH1 0xA0 SHL SUB NOT SWAP1 DUP2 AND PUSH1 0x1 PUSH1 0x1 PUSH1 0xA0 SHL SUB SWAP9 DUP10 AND OR SWAP1 SWAP2 SSTORE PUSH9 0x56BC75E2D63100000 PUSH1 0x18 DUP2 SWAP1 SSTORE PUSH1 0x19 SSTORE PUSH1 0x15 DUP1 SLOAD SWAP1 SWAP2 AND SWAP6 DUP8 AND SWAP6 SWAP1 SWAP6 OR SWAP1 SWAP5 SSTORE PUSH1 0x1 PUSH1 0xA0 SHL SWAP3 SWAP1 SWAP5 AND PUSH1 0x1 PUSH1 0x1 PUSH1 0xA8 SHL SUB NOT SWAP1 SWAP4 AND SWAP3 SWAP1 SWAP3 OR OR PUSH1 0xFF PUSH1 0xA8 SHL NOT AND SWAP1 SWAP2 SSTORE POP PUSH3 0x447 JUMP JUMPDEST CALLER SWAP1 JUMP JUMPDEST PUSH1 0x1 PUSH1 0x1 PUSH1 0xA0 SHL SUB DUP2 AND DUP2 EQ PUSH3 0x171 JUMPI PUSH1 0x0 DUP1 REVERT JUMPDEST POP JUMP JUMPDEST PUSH4 0x4E487B71 PUSH1 0xE0 SHL PUSH1 0x0 MSTORE PUSH1 0x41 PUSH1 0x4 MSTORE PUSH1 0x24 PUSH1 0x0 REVERT JUMPDEST PUSH1 0x0 DUP3 PUSH1 0x1F DUP4 ADD SLT PUSH3 0x19C JUMPI PUSH1 0x0 DUP1 REVERT JUMPDEST DUP2 MLOAD PUSH1 0x1 PUSH1 0x1 PUSH1 0x40 SHL SUB DUP1 DUP3 GT ISZERO PUSH3 0x1B9 JUMPI PUSH3 0x1B9 PUSH3 0x174 JUMP JUMPDEST PUSH1 0x40 MLOAD PUSH1 0x1F DUP4 ADD PUSH1 0x1F NOT SWAP1 DUP2 AND PUSH1 0x3F ADD AND DUP2 ADD SWAP1 DUP3 DUP3 GT DUP2 DUP4 LT OR ISZERO PUSH3 0x1E4 JUMPI PUSH3 0x1E4 PUSH3 0x174 JUMP JUMPDEST DUP2 PUSH1 0x40 MSTORE DUP4 DUP2 MSTORE PUSH1 0x20 SWAP3 POP DUP7 DUP4 DUP6 DUP9 ADD ADD GT ISZERO PUSH3 0x201 JUMPI PUSH1 0x0 DUP1 REVERT JUMPDEST PUSH1 0x0 SWAP2 POP JUMPDEST DUP4 DUP3 LT ISZERO PUSH3 0x225 JUMPI DUP6 DUP3 ADD DUP4 ADD MLOAD DUP2 DUP4 ADD DUP5 ADD MSTORE SWAP1 DUP3 ADD SWAP1 PUSH3 0x206 JUMP JUMPDEST DUP4 DUP3 GT ISZERO PUSH3 0x237 JUMPI PUSH1 0x0 DUP4 DUP6 DUP4 ADD ADD MSTORE JUMPDEST SWAP7 SWAP6 POP POP POP POP POP POP JUMP JUMPDEST PUSH1 0x0 DUP1 PUSH1 0x0 DUP1 PUSH1 0x0 PUSH1 0xA0 DUP7 DUP9 SUB SLT ISZERO PUSH3 0x25A JUMPI PUSH1 0x0 DUP1 REVERT JUMPDEST DUP6 MLOAD PUSH3 0x267 DUP2 PUSH3 0x15B JUMP JUMPDEST PUSH1 0x20 DUP8 ADD MLOAD SWAP1 SWAP6 POP PUSH3 0x27A DUP2 PUSH3 0x15B JUMP JUMPDEST PUSH1 0x40 DUP8 ADD MLOAD SWAP1 SWAP5 POP PUSH3 0x28D DUP2 PUSH3 0x15B JUMP JUMPDEST PUSH1 0x60 DUP8 ADD MLOAD SWAP1 SWAP4 POP PUSH1 0x1 PUSH1 0x1 PUSH1 0x40 SHL SUB DUP1 DUP3 GT ISZERO PUSH3 0x2AB JUMPI PUSH1 0x0 DUP1 REVERT JUMPDEST PUSH3 0x2B9 DUP10 DUP4 DUP11 ADD PUSH3 0x18A JUMP JUMPDEST SWAP4 POP PUSH1 0x80 DUP9 ADD MLOAD SWAP2 POP DUP1 DUP3 GT ISZERO PUSH3 0x2D0 JUMPI PUSH1 0x0 DUP1 REVERT JUMPDEST POP PUSH3 0x2DF DUP9 DUP3 DUP10 ADD PUSH3 0x18A JUMP JUMPDEST SWAP2 POP POP SWAP3 SWAP6 POP SWAP3 SWAP6 SWAP1 SWAP4 POP JUMP JUMPDEST PUSH1 0x1 DUP2 DUP2 SHR SWAP1 DUP3 AND DUP1 PUSH3 0x301 JUMPI PUSH1 0x7F DUP3 AND SWAP2 POP JUMPDEST PUSH1 0x20 DUP3 LT DUP2 SUB PUSH3 0x322 JUMPI PUSH4 0x4E487B71 PUSH1 0xE0 SHL PUSH1 0x0 MSTORE PUSH1 0x22 PUSH1 0x4 MSTORE PUSH1 0x24 PUSH1 0x0 REVERT JUMPDEST POP SWAP2 SWAP1 POP JUMP JUMPDEST PUSH1 0x1F DUP3 GT ISZERO PUSH3 0x376 JUMPI PUSH1 0x0 DUP2 DUP2 MSTORE PUSH1 0x20 DUP2 KECCAK256 PUSH1 0x1F DUP6 ADD PUSH1 0x5 SHR DUP2 ADD PUSH1 0x20 DUP7 LT ISZERO PUSH3 0x351 JUMPI POP DUP1 JUMPDEST PUSH1 0x1F DUP6 ADD PUSH1 0x5 SHR DUP3 ADD SWAP2 POP JUMPDEST DUP2 DUP2 LT ISZERO PUSH3 0x372 JUMPI DUP3 DUP2 SSTORE PUSH1 0x1 ADD PUSH3 0x35D JUMP JUMPDEST POP POP POP JUMPDEST POP POP POP JUMP JUMPDEST DUP2 MLOAD PUSH1 0x1 PUSH1 0x1 PUSH1 0x40 SHL SUB DUP2 GT ISZERO PUSH3 0x397 JUMPI PUSH3 0x397 PUSH3 0x174 JUMP JUMPDEST PUSH3 0x3AF DUP2 PUSH3 0x3A8 DUP5 SLOAD PUSH3 0x2EC JUMP JUMPDEST DUP5 PUSH3 0x328 JUMP JUMPDEST PUSH1 0x20 DUP1 PUSH1 0x1F DUP4 GT PUSH1 0x1 DUP2 EQ PUSH3 0x3E7 JUMPI PUSH1 0x0 DUP5 ISZERO PUSH3 0x3CE JUMPI POP DUP6 DUP4 ADD MLOAD JUMPDEST PUSH1 0x0 NOT PUSH1 0x3 DUP7 SWAP1 SHL SHR NOT AND PUSH1 0x1 DUP6 SWAP1 SHL OR DUP6 SSTORE PUSH3 0x372 JUMP JUMPDEST PUSH1 0x0 DUP6 DUP2 MSTORE PUSH1 0x20 DUP2 KECCAK256 PUSH1 0x1F NOT DUP7 AND SWAP2 JUMPDEST DUP3 DUP2 LT ISZERO PUSH3 0x418 JUMPI DUP9 DUP7 ADD MLOAD DUP3 SSTORE SWAP5 DUP5 ADD SWAP5 PUSH1 0x1 SWAP1 SWAP2 ADD SWAP1 DUP5 ADD PUSH3 0x3F7 JUMP JUMPDEST POP DUP6 DUP3 LT ISZERO PUSH3 0x437 JUMPI DUP8 DUP6 ADD MLOAD PUSH1 0x0 NOT PUSH1 0x3 DUP9 SWAP1 SHL PUSH1 0xF8 AND SHR NOT AND DUP2 SSTORE JUMPDEST POP POP POP POP POP PUSH1 0x1 SWAP1 DUP2 SHL ADD SWAP1 SSTORE POP JUMP JUMPDEST PUSH2 0x2C90 DUP1 PUSH3 0x457 PUSH1 0x0 CODECOPY PUSH1 0x0 RETURN INVALID PUSH1 0x80 PUSH1 0x40 MSTORE PUSH1 0x4 CALLDATASIZE LT PUSH2 0x31E JUMPI PUSH1 0x0 CALLDATALOAD PUSH1 0xE0 SHR DUP1 PUSH4 0x6D48467B GT PUSH2 0x1AB JUMPI DUP1 PUSH4 0xA8B9D240 GT PUSH2 0xF7 JUMPI DUP1 PUSH4 0xDD62ED3E GT PUSH2 0x95 JUMPI DUP1 PUSH4 0xEB83AC79 GT PUSH2 0x6F JUMPI DUP1 PUSH4 0xEB83AC79 EQ PUSH2 0x9E2 JUMPI DUP1 PUSH4 0xF2FDE38B EQ PUSH2 0xA02 JUMPI DUP1 PUSH4 0xFBCBC0F1 EQ PUSH2 0xA22 JUMPI DUP1 PUSH4 0xFFB2C479 EQ PUSH2 0xA42 JUMPI PUSH1 0x0 DUP1 REVERT JUMPDEST DUP1 PUSH4 0xDD62ED3E EQ PUSH2 0x967 JUMPI DUP1 PUSH4 0xE30443BC EQ PUSH2 0x9AD JUMPI DUP1 PUSH4 0xE7841EC0 EQ PUSH2 0x9CD JUMPI PUSH1 0x0 DUP1 REVERT JUMPDEST DUP1 PUSH4 0xB22F8A04 GT PUSH2 0xD1 JUMPI DUP1 PUSH4 0xB22F8A04 EQ PUSH2 0x8E7 JUMPI DUP1 PUSH4 0xBA079D49 EQ PUSH2 0x907 JUMPI DUP1 PUSH4 0xBC4C4B37 EQ PUSH2 0x927 JUMPI DUP1 PUSH4 0xD8032ED3 EQ PUSH2 0x947 JUMPI PUSH1 0x0 DUP1 REVERT JUMPDEST DUP1 PUSH4 0xA8B9D240 EQ PUSH2 0x871 JUMPI DUP1 PUSH4 0xA9059CBB EQ PUSH2 0x891 JUMPI DUP1 PUSH4 0xAAFD847A EQ PUSH2 0x8B1 JUMPI PUSH1 0x0 DUP1 REVERT JUMPDEST DUP1 PUSH4 0x8DA5CB5B GT PUSH2 0x164 JUMPI DUP1 PUSH4 0x9C3372EA GT PUSH2 0x13E JUMPI DUP1 PUSH4 0x9C3372EA EQ PUSH2 0x7EF JUMPI DUP1 PUSH4 0x9EEC101E EQ PUSH2 0x80F JUMPI DUP1 PUSH4 0xA4234069 EQ PUSH2 0x830 JUMPI DUP1 PUSH4 0xA457C2D7 EQ PUSH2 0x851 JUMPI PUSH1 0x0 DUP1 REVERT JUMPDEST DUP1 PUSH4 0x8DA5CB5B EQ PUSH2 0x79C JUMPI DUP1 PUSH4 0x91B89FBA EQ PUSH2 0x7BA JUMPI DUP1 PUSH4 0x95D89B41 EQ PUSH2 0x7DA JUMPI PUSH1 0x0 DUP1 REVERT JUMPDEST DUP1 PUSH4 0x6D48467B EQ PUSH2 0x6DB JUMPI DUP1 PUSH4 0x70A08231 EQ PUSH2 0x6FB JUMPI DUP1 PUSH4 0x715018A6 EQ PUSH2 0x731 JUMPI DUP1 PUSH4 0x74C13FDA EQ PUSH2 0x746 JUMPI DUP1 PUSH4 0x85A6B3AE EQ PUSH2 0x766 JUMPI DUP1 PUSH4 0x8BC1D639 EQ PUSH2 0x77C JUMPI PUSH1 0x0 DUP1 REVERT JUMPDEST DUP1 PUSH4 0x313CE567 GT PUSH2 0x26A JUMPI DUP1 PUSH4 0x4E7B827F GT PUSH2 0x223 JUMPI DUP1 PUSH4 0x5EBF4DB9 GT PUSH2 0x1FD JUMPI DUP1 PUSH4 0x5EBF4DB9 EQ PUSH2 0x656 JUMPI DUP1 PUSH4 0x65B8DBC0 EQ PUSH2 0x676 JUMPI DUP1 PUSH4 0x6A474002 EQ PUSH2 0x696 JUMPI DUP1 PUSH4 0x6B69163B EQ PUSH2 0x6AB JUMPI PUSH1 0x0 DUP1 REVERT JUMPDEST DUP1 PUSH4 0x4E7B827F EQ PUSH2 0x5AF JUMPI DUP1 PUSH4 0x5183D6FD EQ PUSH2 0x5DF JUMPI DUP1 PUSH4 0x5A84C5EB EQ PUSH2 0x636 JUMPI PUSH1 0x0 DUP1 REVERT JUMPDEST DUP1 PUSH4 0x313CE567 EQ PUSH2 0x4F2 JUMPI DUP1 PUSH4 0x31E79DB0 EQ PUSH2 0x50E JUMPI DUP1 PUSH4 0x3599BB17 EQ PUSH2 0x52E JUMPI DUP1 PUSH4 0x39509351 EQ PUSH2 0x54E JUMPI DUP1 PUSH4 0x40FFDD80 EQ PUSH2 0x56E JUMPI DUP1 PUSH4 0x41808904 EQ PUSH2 0x58E JUMPI PUSH1 0x0 DUP1 REVERT JUMPDEST DUP1 PUSH4 0x18160DDD GT PUSH2 0x2D7 JUMPI DUP1 PUSH4 0x23B872DD GT PUSH2 0x2B1 JUMPI DUP1 PUSH4 0x23B872DD EQ PUSH2 0x47E JUMPI DUP1 PUSH4 0x25CD3598 EQ PUSH2 0x49E JUMPI DUP1 PUSH4 0x27CE0147 EQ PUSH2 0x4BC JUMPI DUP1 PUSH4 0x3009A609 EQ PUSH2 0x4DC JUMPI PUSH1 0x0 DUP1 REVERT JUMPDEST DUP1 PUSH4 0x18160DDD EQ PUSH2 0x40C JUMPI DUP1 PUSH4 0x1D4FF89A EQ PUSH2 0x421 JUMPI DUP1 PUSH4 0x226CFA3D EQ PUSH2 0x451 JUMPI PUSH1 0x0 DUP1 REVERT JUMPDEST DUP1 PUSH4 0x3C83302 EQ PUSH2 0x332 JUMPI DUP1 PUSH4 0x6FDDE03 EQ PUSH2 0x33A JUMPI DUP1 PUSH4 0x9288471 EQ PUSH2 0x365 JUMPI DUP1 PUSH4 0x95EA7B3 EQ PUSH2 0x385 JUMPI DUP1 PUSH4 0x9BBEDDE EQ PUSH2 0x3B5 JUMPI DUP1 PUSH4 0x1694505E EQ PUSH2 0x3D4 JUMPI PUSH1 0x0 DUP1 REVERT JUMPDEST CALLDATASIZE PUSH2 0x32D JUMPI PUSH2 0x32B PUSH2 0xA7D JUMP JUMPDEST STOP JUMPDEST PUSH1 0x0 DUP1 REVERT JUMPDEST PUSH2 0x32B PUSH2 0xA7D JUMP JUMPDEST CALLVALUE DUP1 ISZERO PUSH2 0x346 JUMPI PUSH1 0x0 DUP1 REVERT JUMPDEST POP PUSH2 0x34F PUSH2 0xB10 JUMP JUMPDEST PUSH1 0x40 MLOAD PUSH2 0x35C SWAP2 SWAP1 PUSH2 0x27C3 JUMP JUMPDEST PUSH1 0x40 MLOAD DUP1 SWAP2 SUB SWAP1 RETURN JUMPDEST CALLVALUE DUP1 ISZERO PUSH2 0x371 JUMPI PUSH1 0x0 DUP1 REVERT JUMPDEST POP PUSH2 0x32B PUSH2 0x380 CALLDATASIZE PUSH1 0x4 PUSH2 0x2830 JUMP JUMPDEST PUSH2 0xBA2 JUMP JUMPDEST CALLVALUE DUP1 ISZERO PUSH2 0x391 JUMPI PUSH1 0x0 DUP1 REVERT JUMPDEST POP PUSH2 0x3A5 PUSH2 0x3A0 CALLDATASIZE PUSH1 0x4 PUSH2 0x284D JUMP JUMPDEST PUSH2 0xBF6 JUMP JUMPDEST PUSH1 0x40 MLOAD SWAP1 ISZERO ISZERO DUP2 MSTORE PUSH1 0x20 ADD PUSH2 0x35C JUMP JUMPDEST CALLVALUE DUP1 ISZERO PUSH2 0x3C1 JUMPI PUSH1 0x0 DUP1 REVERT JUMPDEST POP PUSH1 0xA SLOAD JUMPDEST PUSH1 0x40 MLOAD SWAP1 DUP2 MSTORE PUSH1 0x20 ADD PUSH2 0x35C JUMP JUMPDEST CALLVALUE DUP1 ISZERO PUSH2 0x3E0 JUMPI PUSH1 0x0 DUP1 REVERT JUMPDEST POP PUSH1 0x15 SLOAD PUSH2 0x3F4 SWAP1 PUSH1 0x1 PUSH1 0x1 PUSH1 0xA0 SHL SUB AND DUP2 JUMP JUMPDEST PUSH1 0x40 MLOAD PUSH1 0x1 PUSH1 0x1 PUSH1 0xA0 SHL SUB SWAP1 SWAP2 AND DUP2 MSTORE PUSH1 0x20 ADD PUSH2 0x35C JUMP JUMPDEST CALLVALUE DUP1 ISZERO PUSH2 0x418 JUMPI PUSH1 0x0 DUP1 REVERT JUMPDEST POP PUSH1 0x2 SLOAD PUSH2 0x3C6 JUMP JUMPDEST CALLVALUE DUP1 ISZERO PUSH2 0x42D JUMPI PUSH1 0x0 DUP1 REVERT JUMPDEST POP PUSH2 0x3A5 PUSH2 0x43C CALLDATASIZE PUSH1 0x4 PUSH2 0x2830 JUMP JUMPDEST PUSH1 0x11 PUSH1 0x20 MSTORE PUSH1 0x0 SWAP1 DUP2 MSTORE PUSH1 0x40 SWAP1 KECCAK256 SLOAD PUSH1 0xFF AND DUP2 JUMP JUMPDEST CALLVALUE DUP1 ISZERO PUSH2 0x45D JUMPI PUSH1 0x0 DUP1 REVERT JUMPDEST POP PUSH2 0x3C6 PUSH2 0x46C CALLDATASIZE PUSH1 0x4 PUSH2 0x2830 JUMP JUMPDEST PUSH1 0x17 PUSH1 0x20 MSTORE PUSH1 0x0 SWAP1 DUP2 MSTORE PUSH1 0x40 SWAP1 KECCAK256 SLOAD DUP2 JUMP JUMPDEST CALLVALUE DUP1 ISZERO PUSH2 0x48A JUMPI PUSH1 0x0 DUP1 REVERT JUMPDEST POP PUSH2 0x3A5 PUSH2 0x499 CALLDATASIZE PUSH1 0x4 PUSH2 0x2879 JUMP JUMPDEST PUSH2 0xC0D JUMP JUMPDEST CALLVALUE DUP1 ISZERO PUSH2 0x4AA JUMPI PUSH1 0x0 DUP1 REVERT JUMPDEST POP PUSH1 0x12 SLOAD PUSH1 0x1 PUSH1 0x1 PUSH1 0xA0 SHL SUB AND PUSH2 0x3F4 JUMP JUMPDEST CALLVALUE DUP1 ISZERO PUSH2 0x4C8 JUMPI PUSH1 0x0 DUP1 REVERT JUMPDEST POP PUSH2 0x3C6 PUSH2 0x4D7 CALLDATASIZE PUSH1 0x4 PUSH2 0x2830 JUMP JUMPDEST PUSH2 0xC76 JUMP JUMPDEST CALLVALUE DUP1 ISZERO PUSH2 0x4E8 JUMPI PUSH1 0x0 DUP1 REVERT JUMPDEST POP PUSH2 0x3C6 PUSH1 0xE SLOAD DUP2 JUMP JUMPDEST CALLVALUE DUP1 ISZERO PUSH2 0x4FE JUMPI PUSH1 0x0 DUP1 REVERT JUMPDEST POP PUSH1 0x40 MLOAD PUSH1 0x12 DUP2 MSTORE PUSH1 0x20 ADD PUSH2 0x35C JUMP JUMPDEST CALLVALUE DUP1 ISZERO PUSH2 0x51A JUMPI PUSH1 0x0 DUP1 REVERT JUMPDEST POP PUSH2 0x32B PUSH2 0x529 CALLDATASIZE PUSH1 0x4 PUSH2 0x2830 JUMP JUMPDEST PUSH2 0xCD2 JUMP JUMPDEST CALLVALUE DUP1 ISZERO PUSH2 0x53A JUMPI PUSH1 0x0 DUP1 REVERT JUMPDEST POP PUSH2 0x32B PUSH2 0x549 CALLDATASIZE PUSH1 0x4 PUSH2 0x28C8 JUMP JUMPDEST PUSH2 0xD6C JUMP JUMPDEST CALLVALUE DUP1 ISZERO PUSH2 0x55A JUMPI PUSH1 0x0 DUP1 REVERT JUMPDEST POP PUSH2 0x3A5 PUSH2 0x569 CALLDATASIZE PUSH1 0x4 PUSH2 0x284D JUMP JUMPDEST PUSH2 0xE0D JUMP JUMPDEST CALLVALUE DUP1 ISZERO PUSH2 0x57A JUMPI PUSH1 0x0 DUP1 REVERT JUMPDEST POP PUSH2 0x32B PUSH2 0x589 CALLDATASIZE PUSH1 0x4 PUSH2 0x28C8 JUMP JUMPDEST PUSH2 0xE43 JUMP JUMPDEST CALLVALUE DUP1 ISZERO PUSH2 0x59A JUMPI PUSH1 0x0 DUP1 REVERT JUMPDEST POP PUSH1 0x12 SLOAD PUSH2 0x3A5 SWAP1 PUSH1 0x1 PUSH1 0xA8 SHL SWAP1 DIV PUSH1 0xFF AND DUP2 JUMP JUMPDEST CALLVALUE DUP1 ISZERO PUSH2 0x5BB JUMPI PUSH1 0x0 DUP1 REVERT JUMPDEST POP PUSH2 0x3A5 PUSH2 0x5CA CALLDATASIZE PUSH1 0x4 PUSH2 0x2830 JUMP JUMPDEST PUSH1 0xF PUSH1 0x20 MSTORE PUSH1 0x0 SWAP1 DUP2 MSTORE PUSH1 0x40 SWAP1 KECCAK256 SLOAD PUSH1 0xFF AND DUP2 JUMP JUMPDEST CALLVALUE DUP1 ISZERO PUSH2 0x5EB JUMPI PUSH1 0x0 DUP1 REVERT JUMPDEST POP PUSH2 0x5FF PUSH2 0x5FA CALLDATASIZE PUSH1 0x4 PUSH2 0x28E5 JUMP JUMPDEST PUSH2 0xED9 JUMP JUMPDEST PUSH1 0x40 DUP1 MLOAD PUSH1 0x1 PUSH1 0x1 PUSH1 0xA0 SHL SUB SWAP1 SWAP8 AND DUP8 MSTORE PUSH1 0x20 DUP8 ADD SWAP6 SWAP1 SWAP6 MSTORE SWAP4 DUP6 ADD SWAP3 SWAP1 SWAP3 MSTORE PUSH1 0x60 DUP5 ADD MSTORE PUSH1 0x80 DUP4 ADD MSTORE PUSH1 0xA0 DUP3 ADD MSTORE PUSH1 0xC0 ADD PUSH2 0x35C JUMP JUMPDEST CALLVALUE DUP1 ISZERO PUSH2 0x642 JUMPI PUSH1 0x0 DUP1 REVERT JUMPDEST POP PUSH2 0x32B PUSH2 0x651 CALLDATASIZE PUSH1 0x4 PUSH2 0x28E5 JUMP JUMPDEST PUSH2 0xF39 JUMP JUMPDEST CALLVALUE DUP1 ISZERO PUSH2 0x662 JUMPI PUSH1 0x0 DUP1 REVERT JUMPDEST POP PUSH2 0x32B PUSH2 0x671 CALLDATASIZE PUSH1 0x4 PUSH2 0x28E5 JUMP JUMPDEST PUSH2 0xF7B JUMP JUMPDEST CALLVALUE DUP1 ISZERO PUSH2 0x682 JUMPI PUSH1 0x0 DUP1 REVERT JUMPDEST POP PUSH2 0x32B PUSH2 0x691 CALLDATASIZE PUSH1 0x4 PUSH2 0x2830 JUMP JUMPDEST PUSH2 0xFBD JUMP JUMPDEST CALLVALUE DUP1 ISZERO PUSH2 0x6A2 JUMPI PUSH1 0x0 DUP1 REVERT JUMPDEST POP PUSH2 0x32B PUSH2 0x1009 JUMP JUMPDEST CALLVALUE DUP1 ISZERO PUSH2 0x6B7 JUMPI PUSH1 0x0 DUP1 REVERT JUMPDEST POP PUSH2 0x3A5 PUSH2 0x6C6 CALLDATASIZE PUSH1 0x4 PUSH2 0x2830 JUMP JUMPDEST PUSH1 0x10 PUSH1 0x20 MSTORE PUSH1 0x0 SWAP1 DUP2 MSTORE PUSH1 0x40 SWAP1 KECCAK256 SLOAD PUSH1 0xFF AND DUP2 JUMP JUMPDEST CALLVALUE DUP1 ISZERO PUSH2 0x6E7 JUMPI PUSH1 0x0 DUP1 REVERT JUMPDEST POP PUSH2 0x3A5 PUSH2 0x6F6 CALLDATASIZE PUSH1 0x4 PUSH2 0x2830 JUMP JUMPDEST PUSH2 0x10AF JUMP JUMPDEST CALLVALUE DUP1 ISZERO PUSH2 0x707 JUMPI PUSH1 0x0 DUP1 REVERT JUMPDEST POP PUSH2 0x3C6 PUSH2 0x716 CALLDATASIZE PUSH1 0x4 PUSH2 0x2830 JUMP JUMPDEST PUSH1 0x1 PUSH1 0x1 PUSH1 0xA0 SHL SUB AND PUSH1 0x0 SWAP1 DUP2 MSTORE PUSH1 0x20 DUP2 SWAP1 MSTORE PUSH1 0x40 SWAP1 KECCAK256 SLOAD SWAP1 JUMP JUMPDEST CALLVALUE DUP1 ISZERO PUSH2 0x73D JUMPI PUSH1 0x0 DUP1 REVERT JUMPDEST POP PUSH2 0x32B PUSH2 0x10FB JUMP JUMPDEST CALLVALUE DUP1 ISZERO PUSH2 0x752 JUMPI PUSH1 0x0 DUP1 REVERT JUMPDEST POP PUSH1 0x12 SLOAD PUSH2 0x3F4 SWAP1 PUSH1 0x1 PUSH1 0x1 PUSH1 0xA0 SHL SUB AND DUP2 JUMP JUMPDEST CALLVALUE DUP1 ISZERO PUSH2 0x772 JUMPI PUSH1 0x0 DUP1 REVERT JUMPDEST POP PUSH2 0x3C6 PUSH1 0x8 SLOAD DUP2 JUMP JUMPDEST CALLVALUE DUP1 ISZERO PUSH2 0x788 JUMPI PUSH1 0x0 DUP1 REVERT JUMPDEST POP PUSH2 0x32B PUSH2 0x797 CALLDATASIZE PUSH1 0x4 PUSH2 0x28FE JUMP JUMPDEST PUSH2 0x116F JUMP JUMPDEST CALLVALUE DUP1 ISZERO PUSH2 0x7A8 JUMPI PUSH1 0x0 DUP1 REVERT JUMPDEST POP PUSH1 0x9 SLOAD PUSH1 0x1 PUSH1 0x1 PUSH1 0xA0 SHL SUB AND PUSH2 0x3F4 JUMP JUMPDEST CALLVALUE DUP1 ISZERO PUSH2 0x7C6 JUMPI PUSH1 0x0 DUP1 REVERT JUMPDEST POP PUSH2 0x3C6 PUSH2 0x7D5 CALLDATASIZE PUSH1 0x4 PUSH2 0x2830 JUMP JUMPDEST PUSH2 0x11C4 JUMP JUMPDEST CALLVALUE DUP1 ISZERO PUSH2 0x7E6 JUMPI PUSH1 0x0 DUP1 REVERT JUMPDEST POP PUSH2 0x34F PUSH2 0x11CF JUMP JUMPDEST CALLVALUE DUP1 ISZERO PUSH2 0x7FB JUMPI PUSH1 0x0 DUP1 REVERT JUMPDEST POP PUSH2 0x32B PUSH2 0x80A CALLDATASIZE PUSH1 0x4 PUSH2 0x28C8 JUMP JUMPDEST PUSH2 0x11DE JUMP JUMPDEST CALLVALUE DUP1 ISZERO PUSH2 0x81B JUMPI PUSH1 0x0 DUP1 REVERT JUMPDEST POP PUSH1 0x12 SLOAD PUSH2 0x3A5 SWAP1 PUSH1 0x1 PUSH1 0xA0 SHL SWAP1 DIV PUSH1 0xFF AND DUP2 JUMP JUMPDEST CALLVALUE DUP1 ISZERO PUSH2 0x83C JUMPI PUSH1 0x0 DUP1 REVERT JUMPDEST POP PUSH1 0x12 SLOAD PUSH2 0x3A5 SWAP1 PUSH1 0x1 PUSH1 0xB0 SHL SWAP1 DIV PUSH1 0xFF AND DUP2 JUMP JUMPDEST CALLVALUE DUP1 ISZERO PUSH2 0x85D JUMPI PUSH1 0x0 DUP1 REVERT JUMPDEST POP PUSH2 0x3A5 PUSH2 0x86C CALLDATASIZE PUSH1 0x4 PUSH2 0x284D JUMP JUMPDEST PUSH2 0x1274 JUMP JUMPDEST CALLVALUE DUP1 ISZERO PUSH2 0x87D JUMPI PUSH1 0x0 DUP1 REVERT JUMPDEST POP PUSH2 0x3C6 PUSH2 0x88C CALLDATASIZE PUSH1 0x4 PUSH2 0x2830 JUMP JUMPDEST PUSH2 0x12C3 JUMP JUMPDEST CALLVALUE DUP1 ISZERO PUSH2 0x89D JUMPI PUSH1 0x0 DUP1 REVERT JUMPDEST POP PUSH2 0x3A5 PUSH2 0x8AC CALLDATASIZE PUSH1 0x4 PUSH2 0x284D JUMP JUMPDEST PUSH2 0x12EF JUMP JUMPDEST CALLVALUE DUP1 ISZERO PUSH2 0x8BD JUMPI PUSH1 0x0 DUP1 REVERT JUMPDEST POP PUSH2 0x3C6 PUSH2 0x8CC CALLDATASIZE PUSH1 0x4 PUSH2 0x2830 JUMP JUMPDEST PUSH1 0x1 PUSH1 0x1 PUSH1 0xA0 SHL SUB AND PUSH1 0x0 SWAP1 DUP2 MSTORE PUSH1 0x7 PUSH1 0x20 MSTORE PUSH1 0x40 SWAP1 KECCAK256 SLOAD SWAP1 JUMP JUMPDEST CALLVALUE DUP1 ISZERO PUSH2 0x8F3 JUMPI PUSH1 0x0 DUP1 REVERT JUMPDEST POP PUSH2 0x32B PUSH2 0x902 CALLDATASIZE PUSH1 0x4 PUSH2 0x28FE JUMP JUMPDEST PUSH2 0x12FC JUMP JUMPDEST CALLVALUE DUP1 ISZERO PUSH2 0x913 JUMPI PUSH1 0x0 DUP1 REVERT JUMPDEST POP PUSH2 0x3A5 PUSH2 0x922 CALLDATASIZE PUSH1 0x4 PUSH2 0x2830 JUMP JUMPDEST PUSH2 0x1351 JUMP JUMPDEST CALLVALUE DUP1 ISZERO PUSH2 0x933 JUMPI PUSH1 0x0 DUP1 REVERT JUMPDEST POP PUSH2 0x3A5 PUSH2 0x942 CALLDATASIZE PUSH1 0x4 PUSH2 0x28FE JUMP JUMPDEST PUSH2 0x139D JUMP JUMPDEST CALLVALUE DUP1 ISZERO PUSH2 0x953 JUMPI PUSH1 0x0 DUP1 REVERT JUMPDEST POP PUSH2 0x32B PUSH2 0x962 CALLDATASIZE PUSH1 0x4 PUSH2 0x2830 JUMP JUMPDEST PUSH2 0x151E JUMP JUMPDEST CALLVALUE DUP1 ISZERO PUSH2 0x973 JUMPI PUSH1 0x0 DUP1 REVERT JUMPDEST POP PUSH2 0x3C6 PUSH2 0x982 CALLDATASIZE PUSH1 0x4 PUSH2 0x2937 JUMP JUMPDEST PUSH1 0x1 PUSH1 0x1 PUSH1 0xA0 SHL SUB SWAP2 DUP3 AND PUSH1 0x0 SWAP1 DUP2 MSTORE PUSH1 0x1 PUSH1 0x20 SWAP1 DUP2 MSTORE PUSH1 0x40 DUP1 DUP4 KECCAK256 SWAP4 SWAP1 SWAP5 AND DUP3 MSTORE SWAP2 SWAP1 SWAP2 MSTORE KECCAK256 SLOAD SWAP1 JUMP JUMPDEST CALLVALUE DUP1 ISZERO PUSH2 0x9B9 JUMPI PUSH1 0x0 DUP1 REVERT JUMPDEST POP PUSH2 0x32B PUSH2 0x9C8 CALLDATASIZE PUSH1 0x4 PUSH2 0x284D JUMP JUMPDEST PUSH2 0x156A JUMP JUMPDEST CALLVALUE DUP1 ISZERO PUSH2 0x9D9 JUMPI PUSH1 0x0 DUP1 REVERT JUMPDEST POP PUSH1 0xE SLOAD PUSH2 0x3C6 JUMP JUMPDEST CALLVALUE DUP1 ISZERO PUSH2 0x9EE JUMPI PUSH1 0x0 DUP1 REVERT JUMPDEST POP PUSH1 0x16 SLOAD PUSH2 0x3F4 SWAP1 PUSH1 0x1 PUSH1 0x1 PUSH1 0xA0 SHL SUB AND DUP2 JUMP JUMPDEST CALLVALUE DUP1 ISZERO PUSH2 0xA0E JUMPI PUSH1 0x0 DUP1 REVERT JUMPDEST POP PUSH2 0x32B PUSH2 0xA1D CALLDATASIZE PUSH1 0x4 PUSH2 0x2830 JUMP JUMPDEST PUSH2 0x1602 JUMP JUMPDEST CALLVALUE DUP1 ISZERO PUSH2 0xA2E JUMPI PUSH1 0x0 DUP1 REVERT JUMPDEST POP PUSH2 0x5FF PUSH2 0xA3D CALLDATASIZE PUSH1 0x4 PUSH2 0x2830 JUMP JUMPDEST PUSH2 0x16ED JUMP JUMPDEST CALLVALUE DUP1 ISZERO PUSH2 0xA4E JUMPI PUSH1 0x0 DUP1 REVERT JUMPDEST POP PUSH2 0xA62 PUSH2 0xA5D CALLDATASIZE PUSH1 0x4 PUSH2 0x28E5 JUMP JUMPDEST PUSH2 0x179C JUMP JUMPDEST PUSH1 0x40 DUP1 MLOAD SWAP4 DUP5 MSTORE PUSH1 0x20 DUP5 ADD SWAP3 SWAP1 SWAP3 MSTORE SWAP1 DUP3 ADD MSTORE PUSH1 0x60 ADD PUSH2 0x35C JUMP JUMPDEST PUSH1 0x0 PUSH2 0xA88 PUSH1 0x2 SLOAD SWAP1 JUMP JUMPDEST GT PUSH2 0xA92 JUMPI PUSH1 0x0 DUP1 REVERT JUMPDEST CALLVALUE ISZERO PUSH2 0xB0E JUMPI PUSH2 0xAC5 PUSH2 0xAA4 PUSH1 0x2 SLOAD SWAP1 JUMP JUMPDEST PUSH2 0xAB2 CALLVALUE PUSH1 0x1 PUSH1 0x80 SHL PUSH2 0x18C2 JUMP JUMPDEST PUSH2 0xABC SWAP2 SWAP1 PUSH2 0x297B JUMP JUMPDEST PUSH1 0x5 SLOAD SWAP1 PUSH2 0x194B JUMP JUMPDEST PUSH1 0x5 SSTORE PUSH1 0x40 MLOAD CALLVALUE DUP2 MSTORE CALLER SWAP1 PUSH32 0xA493A9229478C3FCD73F66D2CDEB7F94FD0F341DA924D1054236D78454116511 SWAP1 PUSH1 0x20 ADD PUSH1 0x40 MLOAD DUP1 SWAP2 SUB SWAP1 LOG2 PUSH1 0x8 SLOAD PUSH2 0xB0A SWAP1 CALLVALUE PUSH2 0x194B JUMP JUMPDEST PUSH1 0x8 SSTORE JUMPDEST JUMP JUMPDEST PUSH1 0x60 PUSH1 0x13 DUP1 SLOAD PUSH2 0xB1F SWAP1 PUSH2 0x299D JUMP JUMPDEST DUP1 PUSH1 0x1F ADD PUSH1 0x20 DUP1 SWAP2 DIV MUL PUSH1 0x20 ADD PUSH1 0x40 MLOAD SWAP1 DUP2 ADD PUSH1 0x40 MSTORE DUP1 SWAP3 SWAP2 SWAP1 DUP2 DUP2 MSTORE PUSH1 0x20 ADD DUP3 DUP1 SLOAD PUSH2 0xB4B SWAP1 PUSH2 0x299D JUMP JUMPDEST DUP1 ISZERO PUSH2 0xB98 JUMPI DUP1 PUSH1 0x1F LT PUSH2 0xB6D JUMPI PUSH2 0x100 DUP1 DUP4 SLOAD DIV MUL DUP4 MSTORE SWAP2 PUSH1 0x20 ADD SWAP2 PUSH2 0xB98 JUMP JUMPDEST DUP3 ADD SWAP2 SWAP1 PUSH1 0x0 MSTORE PUSH1 0x20 PUSH1 0x0 KECCAK256 SWAP1 JUMPDEST DUP2 SLOAD DUP2 MSTORE SWAP1 PUSH1 0x1 ADD SWAP1 PUSH1 0x20 ADD DUP1 DUP4 GT PUSH2 0xB7B JUMPI DUP3 SWAP1 SUB PUSH1 0x1F AND DUP3 ADD SWAP2 JUMPDEST POP POP POP POP POP SWAP1 POP SWAP1 JUMP JUMPDEST PUSH1 0x9 SLOAD PUSH1 0x1 PUSH1 0x1 PUSH1 0xA0 SHL SUB AND CALLER EQ PUSH2 0xBD5 JUMPI PUSH1 0x40 MLOAD PUSH3 0x461BCD PUSH1 0xE5 SHL DUP2 MSTORE PUSH1 0x4 ADD PUSH2 0xBCC SWAP1 PUSH2 0x29D7 JUMP JUMPDEST PUSH1 0x40 MLOAD DUP1 SWAP2 SUB SWAP1 REVERT JUMPDEST PUSH1 0x1 PUSH1 0x1 PUSH1 0xA0 SHL SUB AND PUSH1 0x0 SWAP1 DUP2 MSTORE PUSH1 0xF PUSH1 0x20 MSTORE PUSH1 0x40 SWAP1 KECCAK256 DUP1 SLOAD PUSH1 0xFF NOT AND SWAP1 SSTORE JUMP JUMPDEST PUSH1 0x0 PUSH2 0xC03 CALLER DUP5 DUP5 PUSH2 0x19AA JUMP JUMPDEST POP PUSH1 0x1 JUMPDEST SWAP3 SWAP2 POP POP JUMP JUMPDEST PUSH1 0x0 PUSH2 0xC1A DUP5 DUP5 DUP5 PUSH2 0x1ACE JUMP JUMPDEST PUSH2 0xC6C DUP5 CALLER PUSH2 0xC67 DUP6 PUSH1 0x40 MLOAD DUP1 PUSH1 0x60 ADD PUSH1 0x40 MSTORE DUP1 PUSH1 0x28 DUP2 MSTORE PUSH1 0x20 ADD PUSH2 0x2C0E PUSH1 0x28 SWAP2 CODECOPY PUSH1 0x1 PUSH1 0x1 PUSH1 0xA0 SHL SUB DUP11 AND PUSH1 0x0 SWAP1 DUP2 MSTORE PUSH1 0x1 PUSH1 0x20 SWAP1 DUP2 MSTORE PUSH1 0x40 DUP1 DUP4 KECCAK256 CALLER DUP5 MSTORE SWAP1 SWAP2 MSTORE SWAP1 KECCAK256 SLOAD SWAP2 SWAP1 PUSH2 0x1B31 JUMP JUMPDEST PUSH2 0x19AA JUMP JUMPDEST POP PUSH1 0x1 SWAP4 SWAP3 POP POP POP JUMP JUMPDEST PUSH1 0x1 PUSH1 0x1 PUSH1 0xA0 SHL SUB DUP2 AND PUSH1 0x0 SWAP1 DUP2 MSTORE PUSH1 0x6 PUSH1 0x20 SWAP1 DUP2 MSTORE PUSH1 0x40 DUP1 DUP4 KECCAK256 SLOAD SWAP2 DUP4 SWAP1 MSTORE DUP3 KECCAK256 SLOAD PUSH1 0x5 SLOAD PUSH1 0x1 PUSH1 0x80 SHL SWAP3 PUSH2 0xCC8 SWAP3 PUSH2 0xCC3 SWAP3 PUSH2 0xCBD SWAP2 PUSH2 0xCB8 SWAP2 SWAP1 PUSH2 0x18C2 JUMP JUMPDEST PUSH2 0x1B6B JUMP JUMPDEST SWAP1 PUSH2 0x1B7B JUMP JUMPDEST PUSH2 0x1BB9 JUMP JUMPDEST PUSH2 0xC07 SWAP2 SWAP1 PUSH2 0x297B JUMP JUMPDEST PUSH1 0x9 SLOAD PUSH1 0x1 PUSH1 0x1 PUSH1 0xA0 SHL SUB AND CALLER EQ PUSH2 0xCFC JUMPI PUSH1 0x40 MLOAD PUSH3 0x461BCD PUSH1 0xE5 SHL DUP2 MSTORE PUSH1 0x4 ADD PUSH2 0xBCC SWAP1 PUSH2 0x29D7 JUMP JUMPDEST PUSH1 0x1 PUSH1 0x1 PUSH1 0xA0 SHL SUB DUP2 AND PUSH1 0x0 SWAP1 DUP2 MSTORE PUSH1 0xF PUSH1 0x20 MSTORE PUSH1 0x40 DUP2 KECCAK256 DUP1 SLOAD PUSH1 0xFF NOT AND PUSH1 0x1 OR SWAP1 SSTORE PUSH2 0xD2A SWAP1 DUP3 SWAP1 PUSH2 0x1BCC JUMP JUMPDEST PUSH2 0xD35 PUSH1 0xA DUP3 PUSH2 0x1C2B JUMP JUMPDEST PUSH1 0x40 MLOAD PUSH1 0x1 PUSH1 0x1 PUSH1 0xA0 SHL SUB DUP3 AND SWAP1 PUSH32 0xA878B31040B2E6D0A9A3D3361209DB3908BA62014B0DCA52ADBAEE451D128B25 SWAP1 PUSH1 0x0 SWAP1 LOG2 POP JUMP JUMPDEST PUSH1 0x9 SLOAD PUSH1 0x1 PUSH1 0x1 PUSH1 0xA0 SHL SUB AND CALLER EQ PUSH2 0xD96 JUMPI PUSH1 0x40 MLOAD PUSH3 0x461BCD PUSH1 0xE5 SHL DUP2 MSTORE PUSH1 0x4 ADD PUSH2 0xBCC SWAP1 PUSH2 0x29D7 JUMP JUMPDEST DUP1 ISZERO ISZERO PUSH1 0x12 PUSH1 0x16 SWAP1 SLOAD SWAP1 PUSH2 0x100 EXP SWAP1 DIV PUSH1 0xFF AND ISZERO ISZERO SUB PUSH2 0xDB5 JUMPI PUSH1 0x0 DUP1 REVERT JUMPDEST PUSH1 0x12 DUP1 SLOAD DUP3 ISZERO ISZERO PUSH1 0x1 PUSH1 0xB0 SHL MUL PUSH1 0xFF PUSH1 0xB0 SHL NOT SWAP1 SWAP2 AND OR SWAP1 SSTORE PUSH1 0x40 MLOAD PUSH32 0x3DA2593F2C4724ACFBD754045321E852CAD26F3974834B1890045530F89C21B3 SWAP1 PUSH2 0xE02 SWAP1 DUP4 ISZERO ISZERO DUP2 MSTORE PUSH1 0x20 ADD SWAP1 JUMP JUMPDEST PUSH1 0x40 MLOAD DUP1 SWAP2 SUB SWAP1 LOG1 POP JUMP JUMPDEST CALLER PUSH1 0x0 DUP2 DUP2 MSTORE PUSH1 0x1 PUSH1 0x20 SWAP1 DUP2 MSTORE PUSH1 0x40 DUP1 DUP4 KECCAK256 PUSH1 0x1 PUSH1 0x1 PUSH1 0xA0 SHL SUB DUP8 AND DUP5 MSTORE SWAP1 SWAP2 MSTORE DUP2 KECCAK256 SLOAD SWAP1 SWAP2 PUSH2 0xC03 SWAP2 DUP6 SWAP1 PUSH2 0xC67 SWAP1 DUP7 PUSH2 0x194B JUMP JUMPDEST PUSH1 0x9 SLOAD PUSH1 0x1 PUSH1 0x1 PUSH1 0xA0 SHL SUB AND CALLER EQ PUSH2 0xE6D JUMPI PUSH1 0x40 MLOAD PUSH3 0x461BCD PUSH1 0xE5 SHL DUP2 MSTORE PUSH1 0x4 ADD PUSH2 0xBCC SWAP1 PUSH2 0x29D7 JUMP JUMPDEST DUP1 ISZERO ISZERO PUSH1 0x12 PUSH1 0x15 SWAP1 SLOAD SWAP1 PUSH2 0x100 EXP SWAP1 DIV PUSH1 0xFF AND ISZERO ISZERO SUB PUSH2 0xE8C JUMPI PUSH1 0x0 DUP1 REVERT JUMPDEST PUSH1 0x12 DUP1 SLOAD DUP3 ISZERO ISZERO PUSH1 0x1 PUSH1 0xA8 SHL MUL PUSH1 0xFF PUSH1 0xA8 SHL NOT SWAP1 SWAP2 AND OR SWAP1 SSTORE PUSH1 0x40 MLOAD PUSH32 0xC138A28750B971696F46EA59731C471EF1E08E4015404AFDB139FD2E87DCA1BB SWAP1 PUSH2 0xE02 SWAP1 DUP4 ISZERO ISZERO DUP2 MSTORE PUSH1 0x20 ADD SWAP1 JUMP JUMPDEST PUSH1 0x0 DUP1 PUSH1 0x0 DUP1 PUSH1 0x0 DUP1 PUSH2 0xEEB PUSH1 0xA SLOAD SWAP1 JUMP JUMPDEST DUP8 LT PUSH2 0xF0A JUMPI POP PUSH1 0x0 SWAP5 POP PUSH1 0x0 NOT SWAP4 POP DUP4 SWAP3 POP DUP5 SWAP2 POP DUP2 SWAP1 POP DUP1 PUSH2 0xF30 JUMP JUMPDEST PUSH1 0x0 PUSH2 0xF17 PUSH1 0xA DUP10 PUSH2 0x1D66 JUMP JUMPDEST SWAP1 POP PUSH2 0xF22 DUP2 PUSH2 0x16ED JUMP JUMPDEST SWAP7 POP SWAP7 POP SWAP7 POP SWAP7 POP SWAP7 POP SWAP7 POP POP JUMPDEST SWAP2 SWAP4 SWAP6 POP SWAP2 SWAP4 SWAP6 JUMP JUMPDEST PUSH1 0x9 SLOAD PUSH1 0x1 PUSH1 0x1 PUSH1 0xA0 SHL SUB AND CALLER EQ PUSH2 0xF63 JUMPI PUSH1 0x40 MLOAD PUSH3 0x461BCD PUSH1 0xE5 SHL DUP2 MSTORE PUSH1 0x4 ADD PUSH2 0xBCC SWAP1 PUSH2 0x29D7 JUMP JUMPDEST PUSH2 0xF75 DUP2 PUSH8 0xDE0B6B3A7640000 PUSH2 0x2A0C JUMP JUMPDEST PUSH1 0x18 SSTORE POP JUMP JUMPDEST PUSH1 0x9 SLOAD PUSH1 0x1 PUSH1 0x1 PUSH1 0xA0 SHL SUB AND CALLER EQ PUSH2 0xFA5 JUMPI PUSH1 0x40 MLOAD PUSH3 0x461BCD PUSH1 0xE5 SHL DUP2 MSTORE PUSH1 0x4 ADD PUSH2 0xBCC SWAP1 PUSH2 0x29D7 JUMP JUMPDEST PUSH2 0xFB7 DUP2 PUSH8 0xDE0B6B3A7640000 PUSH2 0x2A0C JUMP JUMPDEST PUSH1 0x19 SSTORE POP JUMP JUMPDEST PUSH1 0x9 SLOAD PUSH1 0x1 PUSH1 0x1 PUSH1 0xA0 SHL SUB AND CALLER EQ PUSH2 0xFE7 JUMPI PUSH1 0x40 MLOAD PUSH3 0x461BCD PUSH1 0xE5 SHL DUP2 MSTORE PUSH1 0x4 ADD PUSH2 0xBCC SWAP1 PUSH2 0x29D7 JUMP JUMPDEST PUSH1 0x15 DUP1 SLOAD PUSH1 0x1 PUSH1 0x1 PUSH1 0xA0 SHL SUB NOT AND PUSH1 0x1 PUSH1 0x1 PUSH1 0xA0 SHL SUB SWAP3 SWAP1 SWAP3 AND SWAP2 SWAP1 SWAP2 OR SWAP1 SSTORE JUMP JUMPDEST PUSH1 0x40 MLOAD PUSH3 0x461BCD PUSH1 0xE5 SHL DUP2 MSTORE PUSH1 0x20 PUSH1 0x4 DUP3 ADD MSTORE PUSH1 0x69 PUSH1 0x24 DUP3 ADD MSTORE PUSH32 0x436861696E445F4469766964656E645F547261636B65723A2077697468647261 PUSH1 0x44 DUP3 ADD MSTORE PUSH32 0x774469766964656E642064697361626C65642E20557365207468652027636C61 PUSH1 0x64 DUP3 ADD MSTORE PUSH32 0x696D272066756E6374696F6E206F6E20746865206D61696E20436861696E4420 PUSH1 0x84 DUP3 ADD MSTORE PUSH9 0x31B7B73A3930B1BA17 PUSH1 0xB9 SHL PUSH1 0xA4 DUP3 ADD MSTORE PUSH1 0xC4 ADD PUSH2 0xBCC JUMP JUMPDEST PUSH1 0x9 SLOAD PUSH1 0x0 SWAP1 PUSH1 0x1 PUSH1 0x1 PUSH1 0xA0 SHL SUB AND CALLER EQ PUSH2 0x10DC JUMPI PUSH1 0x40 MLOAD PUSH3 0x461BCD PUSH1 0xE5 SHL DUP2 MSTORE PUSH1 0x4 ADD PUSH2 0xBCC SWAP1 PUSH2 0x29D7 JUMP JUMPDEST POP PUSH1 0x1 PUSH1 0x1 PUSH1 0xA0 SHL SUB AND PUSH1 0x0 SWAP1 DUP2 MSTORE PUSH1 0x10 PUSH1 0x20 MSTORE PUSH1 0x40 SWAP1 KECCAK256 SLOAD PUSH1 0xFF AND SWAP1 JUMP JUMPDEST PUSH1 0x9 SLOAD PUSH1 0x1 PUSH1 0x1 PUSH1 0xA0 SHL SUB AND CALLER EQ PUSH2 0x1125 JUMPI PUSH1 0x40 MLOAD PUSH3 0x461BCD PUSH1 0xE5 SHL DUP2 MSTORE PUSH1 0x4 ADD PUSH2 0xBCC SWAP1 PUSH2 0x29D7 JUMP JUMPDEST PUSH1 0x9 SLOAD PUSH1 0x40 MLOAD PUSH1 0x0 SWAP2 PUSH1 0x1 PUSH1 0x1 PUSH1 0xA0 SHL SUB AND SWAP1 PUSH32 0x8BE0079C531659141344CD1FD0A4F28419497F9722A3DAAFE3B4186F6B6457E0 SWAP1 DUP4 SWAP1 LOG3 PUSH1 0x9 DUP1 SLOAD PUSH1 0x1 PUSH1 0x1 PUSH1 0xA0 SHL SUB NOT AND SWAP1 SSTORE JUMP JUMPDEST PUSH1 0x9 SLOAD PUSH1 0x1 PUSH1 0x1 PUSH1 0xA0 SHL SUB AND CALLER EQ PUSH2 0x1199 JUMPI PUSH1 0x40 MLOAD PUSH3 0x461BCD PUSH1 0xE5 SHL DUP2 MSTORE PUSH1 0x4 ADD PUSH2 0xBCC SWAP1 PUSH2 0x29D7 JUMP JUMPDEST PUSH1 0x1 PUSH1 0x1 PUSH1 0xA0 SHL SUB SWAP2 SWAP1 SWAP2 AND PUSH1 0x0 SWAP1 DUP2 MSTORE PUSH1 0x10 PUSH1 0x20 MSTORE PUSH1 0x40 SWAP1 KECCAK256 DUP1 SLOAD PUSH1 0xFF NOT AND SWAP2 ISZERO ISZERO SWAP2 SWAP1 SWAP2 OR SWAP1 SSTORE JUMP JUMPDEST PUSH1 0x0 PUSH2 0xC07 DUP3 PUSH2 0x12C3 JUMP JUMPDEST PUSH1 0x60 PUSH1 0x14 DUP1 SLOAD PUSH2 0xB1F SWAP1 PUSH2 0x299D JUMP JUMPDEST PUSH1 0x9 SLOAD PUSH1 0x1 PUSH1 0x1 PUSH1 0xA0 SHL SUB AND CALLER EQ PUSH2 0x1208 JUMPI PUSH1 0x40 MLOAD PUSH3 0x461BCD PUSH1 0xE5 SHL DUP2 MSTORE PUSH1 0x4 ADD PUSH2 0xBCC SWAP1 PUSH2 0x29D7 JUMP JUMPDEST DUP1 ISZERO ISZERO PUSH1 0x12 PUSH1 0x14 SWAP1 SLOAD SWAP1 PUSH2 0x100 EXP SWAP1 DIV PUSH1 0xFF AND ISZERO ISZERO SUB PUSH2 0x1227 JUMPI PUSH1 0x0 DUP1 REVERT JUMPDEST PUSH1 0x12 DUP1 SLOAD DUP3 ISZERO ISZERO PUSH1 0x1 PUSH1 0xA0 SHL MUL PUSH1 0xFF PUSH1 0xA0 SHL NOT SWAP1 SWAP2 AND OR SWAP1 SSTORE PUSH1 0x40 MLOAD PUSH32 0x8D34C313963017194ED726D050E868657D0E2D2C6748D13E358CD4B89D4EE7C8 SWAP1 PUSH2 0xE02 SWAP1 DUP4 ISZERO ISZERO DUP2 MSTORE PUSH1 0x20 ADD SWAP1 JUMP JUMPDEST PUSH1 0x0 PUSH2 0xC03 CALLER DUP5 PUSH2 0xC67 DUP6 PUSH1 0x40 MLOAD DUP1 PUSH1 0x60 ADD PUSH1 0x40 MSTORE DUP1 PUSH1 0x25 DUP2 MSTORE PUSH1 0x20 ADD PUSH2 0x2C36 PUSH1 0x25 SWAP2 CODECOPY CALLER PUSH1 0x0 SWAP1 DUP2 MSTORE PUSH1 0x1 PUSH1 0x20 SWAP1 DUP2 MSTORE PUSH1 0x40 DUP1 DUP4 KECCAK256 PUSH1 0x1 PUSH1 0x1 PUSH1 0xA0 SHL SUB DUP14 AND DUP5 MSTORE SWAP1 SWAP2 MSTORE SWAP1 KECCAK256 SLOAD SWAP2 SWAP1 PUSH2 0x1B31 JUMP JUMPDEST PUSH1 0x1 PUSH1 0x1 PUSH1 0xA0 SHL SUB DUP2 AND PUSH1 0x0 SWAP1 DUP2 MSTORE PUSH1 0x7 PUSH1 0x20 MSTORE PUSH1 0x40 DUP2 KECCAK256 SLOAD PUSH2 0xC07 SWAP1 PUSH2 0x12E9 DUP5 PUSH2 0xC76 JUMP JUMPDEST SWAP1 PUSH2 0x1D99 JUMP JUMPDEST PUSH1 0x0 PUSH2 0xC03 CALLER DUP5 DUP5 PUSH2 0x1ACE JUMP JUMPDEST PUSH1 0x9 SLOAD PUSH1 0x1 PUSH1 0x1 PUSH1 0xA0 SHL SUB AND CALLER EQ PUSH2 0x1326 JUMPI PUSH1 0x40 MLOAD PUSH3 0x461BCD PUSH1 0xE5 SHL DUP2 MSTORE PUSH1 0x4 ADD PUSH2 0xBCC SWAP1 PUSH2 0x29D7 JUMP JUMPDEST PUSH1 0x1 PUSH1 0x1 PUSH1 0xA0 SHL SUB SWAP2 SWAP1 SWAP2 AND PUSH1 0x0 SWAP1 DUP2 MSTORE PUSH1 0x11 PUSH1 0x20 MSTORE PUSH1 0x40 SWAP1 KECCAK256 DUP1 SLOAD PUSH1 0xFF NOT AND SWAP2 ISZERO ISZERO SWAP2 SWAP1 SWAP2 OR SWAP1 SSTORE JUMP JUMPDEST PUSH1 0x9 SLOAD PUSH1 0x0 SWAP1 PUSH1 0x1 PUSH1 0x1 PUSH1 0xA0 SHL SUB AND CALLER EQ PUSH2 0x137E JUMPI PUSH1 0x40 MLOAD PUSH3 0x461BCD PUSH1 0xE5 SHL DUP2 MSTORE PUSH1 0x4 ADD PUSH2 0xBCC SWAP1 PUSH2 0x29D7 JUMP JUMPDEST POP PUSH1 0x1 PUSH1 0x1 PUSH1 0xA0 SHL SUB AND PUSH1 0x0 SWAP1 DUP2 MSTORE PUSH1 0x11 PUSH1 0x20 MSTORE PUSH1 0x40 SWAP1 KECCAK256 SLOAD PUSH1 0xFF AND SWAP1 JUMP JUMPDEST PUSH1 0x9 SLOAD PUSH1 0x0 SWAP1 PUSH1 0x1 PUSH1 0x1 PUSH1 0xA0 SHL SUB AND CALLER EQ PUSH2 0x13CA JUMPI PUSH1 0x40 MLOAD PUSH3 0x461BCD PUSH1 0xE5 SHL DUP2 MSTORE PUSH1 0x4 ADD PUSH2 0xBCC SWAP1 PUSH2 0x29D7 JUMP JUMPDEST PUSH1 0x12 SLOAD PUSH1 0x1 PUSH1 0xB0 SHL SWAP1 DIV PUSH1 0xFF AND ISZERO PUSH2 0x13E4 JUMPI POP PUSH1 0x0 PUSH2 0xC07 JUMP JUMPDEST PUSH1 0x1 PUSH1 0x1 PUSH1 0xA0 SHL SUB DUP4 AND PUSH1 0x0 SWAP1 DUP2 MSTORE PUSH1 0x11 PUSH1 0x20 MSTORE PUSH1 0x40 SWAP1 KECCAK256 SLOAD PUSH1 0xFF AND DUP3 DUP1 ISZERO PUSH2 0x140A JUMPI POP DUP1 JUMPDEST DUP1 ISZERO PUSH2 0x1420 JUMPI POP PUSH1 0x12 SLOAD PUSH1 0x1 PUSH1 0xA8 SHL SWAP1 DIV PUSH1 0xFF AND ISZERO JUMPDEST ISZERO PUSH2 0x142F JUMPI PUSH1 0x0 SWAP2 POP POP PUSH2 0xC07 JUMP JUMPDEST PUSH1 0x0 DUP2 PUSH2 0x1444 JUMPI PUSH2 0x143F DUP6 PUSH2 0x1DDB JUMP JUMPDEST PUSH2 0x144D JUMP JUMPDEST PUSH2 0x144D DUP6 PUSH2 0x2094 JUMP JUMPDEST SWAP1 POP DUP1 ISZERO PUSH2 0x1513 JUMPI PUSH1 0x1 PUSH1 0x1 PUSH1 0xA0 SHL SUB DUP6 AND PUSH1 0x0 SWAP1 DUP2 MSTORE PUSH1 0x17 PUSH1 0x20 MSTORE PUSH1 0x40 SWAP1 KECCAK256 TIMESTAMP SWAP1 SSTORE DUP2 ISZERO PUSH2 0x14C1 JUMPI DUP4 ISZERO ISZERO DUP6 PUSH1 0x1 PUSH1 0x1 PUSH1 0xA0 SHL SUB AND PUSH32 0xFBD928DD3806A2BDF802F3A28A2CC55205F95DBCD2C3ED313ABFCA278366F80C DUP4 PUSH1 0x40 MLOAD PUSH2 0x14B4 SWAP2 DUP2 MSTORE PUSH1 0x20 ADD SWAP1 JUMP JUMPDEST PUSH1 0x40 MLOAD DUP1 SWAP2 SUB SWAP1 LOG3 PUSH2 0x1508 JUMP JUMPDEST DUP4 ISZERO ISZERO DUP6 PUSH1 0x1 PUSH1 0x1 PUSH1 0xA0 SHL SUB AND PUSH32 0xA2C38E2D2FB7E3E1912D937FD1CA11ED6D51864DEE4CFA7A7BF02BECD7ACF092 DUP4 PUSH1 0x40 MLOAD PUSH2 0x14FF SWAP2 DUP2 MSTORE PUSH1 0x20 ADD SWAP1 JUMP JUMPDEST PUSH1 0x40 MLOAD DUP1 SWAP2 SUB SWAP1 LOG3 JUMPDEST PUSH1 0x1 SWAP3 POP POP POP PUSH2 0xC07 JUMP JUMPDEST POP PUSH1 0x0 SWAP5 SWAP4 POP POP POP POP JUMP JUMPDEST PUSH1 0x9 SLOAD PUSH1 0x1 PUSH1 0x1 PUSH1 0xA0 SHL SUB AND CALLER EQ PUSH2 0x1548 JUMPI PUSH1 0x40 MLOAD PUSH3 0x461BCD PUSH1 0xE5 SHL DUP2 MSTORE PUSH1 0x4 ADD PUSH2 0xBCC SWAP1 PUSH2 0x29D7 JUMP JUMPDEST PUSH1 0x12 DUP1 SLOAD PUSH1 0x1 PUSH1 0x1 PUSH1 0xA0 SHL SUB NOT AND PUSH1 0x1 PUSH1 0x1 PUSH1 0xA0 SHL SUB SWAP3 SWAP1 SWAP3 AND SWAP2 SWAP1 SWAP2 OR SWAP1 SSTORE JUMP JUMPDEST PUSH1 0x9 SLOAD PUSH1 0x1 PUSH1 0x1 PUSH1 0xA0 SHL SUB AND CALLER EQ PUSH2 0x1594 JUMPI PUSH1 0x40 MLOAD PUSH3 0x461BCD PUSH1 0xE5 SHL DUP2 MSTORE PUSH1 0x4 ADD PUSH2 0xBCC SWAP1 PUSH2 0x29D7 JUMP JUMPDEST PUSH1 0x1 PUSH1 0x1 PUSH1 0xA0 SHL SUB DUP3 AND PUSH1 0x0 SWAP1 DUP2 MSTORE PUSH1 0xF PUSH1 0x20 MSTORE PUSH1 0x40 SWAP1 KECCAK256 SLOAD PUSH1 0xFF AND PUSH2 0x15D4 JUMPI PUSH1 0x19 SLOAD DUP2 LT ISZERO PUSH2 0x15D8 JUMPI PUSH2 0x15C9 PUSH1 0xA DUP4 PUSH2 0x1C2B JUMP JUMPDEST PUSH2 0x15D4 DUP3 PUSH1 0x0 PUSH2 0x1BCC JUMP JUMPDEST POP POP JUMP JUMPDEST PUSH2 0x15E2 DUP3 DUP3 PUSH2 0x1BCC JUMP JUMPDEST PUSH1 0x18 SLOAD DUP2 LT PUSH2 0x15F7 JUMPI PUSH2 0x15D4 PUSH1 0xA DUP4 DUP4 PUSH2 0x2407 JUMP JUMPDEST PUSH2 0x15D4 PUSH1 0xA DUP4 PUSH2 0x1C2B JUMP JUMPDEST PUSH1 0x9 SLOAD PUSH1 0x1 PUSH1 0x1 PUSH1 0xA0 SHL SUB AND CALLER EQ PUSH2 0x162C JUMPI PUSH1 0x40 MLOAD PUSH3 0x461BCD PUSH1 0xE5 SHL DUP2 MSTORE PUSH1 0x4 ADD PUSH2 0xBCC SWAP1 PUSH2 0x29D7 JUMP JUMPDEST PUSH1 0x1 PUSH1 0x1 PUSH1 0xA0 SHL SUB DUP2 AND PUSH2 0x1691 JUMPI PUSH1 0x40 MLOAD PUSH3 0x461BCD PUSH1 0xE5 SHL DUP2 MSTORE PUSH1 0x20 PUSH1 0x4 DUP3 ADD MSTORE PUSH1 0x26 PUSH1 0x24 DUP3 ADD MSTORE PUSH32 0x4F776E61626C653A206E6577206F776E657220697320746865207A65726F2061 PUSH1 0x44 DUP3 ADD MSTORE PUSH6 0x646472657373 PUSH1 0xD0 SHL PUSH1 0x64 DUP3 ADD MSTORE PUSH1 0x84 ADD PUSH2 0xBCC JUMP JUMPDEST PUSH1 0x9 SLOAD PUSH1 0x40 MLOAD PUSH1 0x1 PUSH1 0x1 PUSH1 0xA0 SHL SUB DUP1 DUP5 AND SWAP3 AND SWAP1 PUSH32 0x8BE0079C531659141344CD1FD0A4F28419497F9722A3DAAFE3B4186F6B6457E0 SWAP1 PUSH1 0x0 SWAP1 LOG3 PUSH1 0x9 DUP1 SLOAD PUSH1 0x1 PUSH1 0x1 PUSH1 0xA0 SHL SUB NOT AND PUSH1 0x1 PUSH1 0x1 PUSH1 0xA0 SHL SUB SWAP3 SWAP1 SWAP3 AND SWAP2 SWAP1 SWAP2 OR SWAP1 SSTORE JUMP JUMPDEST DUP1 PUSH1 0x0 DUP1 DUP1 DUP1 DUP1 PUSH2 0x16FF PUSH1 0xA DUP8 PUSH2 0x24B0 JUMP JUMPDEST SWAP5 POP PUSH1 0x0 NOT SWAP4 POP PUSH1 0x0 DUP6 SLT PUSH2 0x1761 JUMPI PUSH1 0xE SLOAD DUP6 GT ISZERO PUSH2 0x172D JUMPI PUSH1 0xE SLOAD PUSH2 0x1726 SWAP1 DUP7 SWAP1 PUSH2 0x24FB JUMP JUMPDEST SWAP4 POP PUSH2 0x1761 JUMP JUMPDEST PUSH1 0xE SLOAD PUSH1 0xA SLOAD PUSH1 0x0 SWAP2 LT PUSH2 0x1742 JUMPI PUSH1 0x0 PUSH2 0x1751 JUMP JUMPDEST PUSH1 0xE SLOAD PUSH1 0xA SLOAD PUSH2 0x1751 SWAP2 PUSH2 0x1D99 JUMP JUMPDEST SWAP1 POP PUSH2 0x175D DUP7 DUP3 PUSH2 0x1B7B JUMP JUMPDEST SWAP5 POP POP JUMPDEST PUSH2 0x176A DUP7 PUSH2 0x12C3 JUMP JUMPDEST SWAP3 POP PUSH2 0x1775 DUP7 PUSH2 0xC76 JUMP JUMPDEST PUSH1 0x1 PUSH1 0x1 PUSH1 0xA0 SHL SUB DUP8 AND PUSH1 0x0 SWAP1 DUP2 MSTORE PUSH1 0x17 PUSH1 0x20 MSTORE PUSH1 0x40 SWAP1 KECCAK256 SLOAD SWAP7 SWAP9 SWAP6 SWAP8 POP SWAP4 SWAP6 SWAP3 SWAP5 SWAP2 POP POP JUMP JUMPDEST PUSH1 0xA SLOAD PUSH1 0x0 SWAP1 DUP2 SWAP1 DUP2 SWAP1 DUP1 ISZERO DUP1 PUSH2 0x17BC JUMPI POP PUSH1 0x12 SLOAD PUSH1 0x1 PUSH1 0xB0 SHL SWAP1 DIV PUSH1 0xFF AND JUMPDEST ISZERO PUSH2 0x17D2 JUMPI POP POP PUSH1 0xE SLOAD PUSH1 0x0 SWAP3 POP DUP3 SWAP2 POP PUSH2 0x18BB JUMP JUMPDEST PUSH1 0xE SLOAD PUSH1 0x0 DUP1 GAS SWAP1 POP PUSH1 0x0 DUP1 JUMPDEST DUP10 DUP5 LT DUP1 ISZERO PUSH2 0x17ED JUMPI POP DUP6 DUP3 LT JUMPDEST ISZERO PUSH2 0x18AA JUMPI DUP5 PUSH2 0x17FC DUP2 PUSH2 0x2A2B JUMP JUMPDEST SWAP6 POP POP DUP6 DUP6 LT PUSH2 0x180B JUMPI PUSH1 0x0 SWAP5 POP JUMPDEST PUSH1 0x0 PUSH1 0xA PUSH1 0x0 ADD DUP7 DUP2 SLOAD DUP2 LT PUSH2 0x1823 JUMPI PUSH2 0x1823 PUSH2 0x2A44 JUMP JUMPDEST PUSH1 0x0 SWAP2 DUP3 MSTORE PUSH1 0x20 DUP1 DUP4 KECCAK256 SWAP1 SWAP2 ADD SLOAD PUSH1 0x1 PUSH1 0x1 PUSH1 0xA0 SHL SUB AND DUP1 DUP4 MSTORE PUSH1 0x10 SWAP1 SWAP2 MSTORE PUSH1 0x40 SWAP1 SWAP2 KECCAK256 SLOAD SWAP1 SWAP2 POP PUSH1 0xFF AND PUSH2 0x1870 JUMPI PUSH2 0x185D DUP2 PUSH1 0x1 PUSH2 0x139D JUMP JUMPDEST ISZERO PUSH2 0x1870 JUMPI DUP2 PUSH2 0x186C DUP2 PUSH2 0x2A2B JUMP JUMPDEST SWAP3 POP POP JUMPDEST DUP3 PUSH2 0x187A DUP2 PUSH2 0x2A2B JUMP JUMPDEST SWAP4 POP POP PUSH1 0x0 GAS SWAP1 POP DUP1 DUP6 GT ISZERO PUSH2 0x18A1 JUMPI PUSH2 0x189E PUSH2 0x1897 DUP7 DUP4 PUSH2 0x1D99 JUMP JUMPDEST DUP8 SWAP1 PUSH2 0x194B JUMP JUMPDEST SWAP6 POP JUMPDEST SWAP4 POP PUSH2 0x17DF SWAP1 POP JUMP JUMPDEST PUSH1 0xE DUP6 SWAP1 SSTORE SWAP1 SWAP8 POP SWAP6 POP SWAP2 SWAP4 POP POP POP POP JUMPDEST SWAP2 SWAP4 SWAP1 SWAP3 POP JUMP JUMPDEST PUSH1 0x0 DUP3 PUSH1 0x0 SUB PUSH2 0x18D4 JUMPI POP PUSH1 0x0 PUSH2 0xC07 JUMP JUMPDEST PUSH1 0x0 PUSH2 0x18E0 DUP4 DUP6 PUSH2 0x2A0C JUMP JUMPDEST SWAP1 POP DUP3 PUSH2 0x18ED DUP6 DUP4 PUSH2 0x297B JUMP JUMPDEST EQ PUSH2 0x1944 JUMPI PUSH1 0x40 MLOAD PUSH3 0x461BCD PUSH1 0xE5 SHL DUP2 MSTORE PUSH1 0x20 PUSH1 0x4 DUP3 ADD MSTORE PUSH1 0x21 PUSH1 0x24 DUP3 ADD MSTORE PUSH32 0x536166654D6174683A206D756C7469706C69636174696F6E206F766572666C6F PUSH1 0x44 DUP3 ADD MSTORE PUSH1 0x77 PUSH1 0xF8 SHL PUSH1 0x64 DUP3 ADD MSTORE PUSH1 0x84 ADD PUSH2 0xBCC JUMP JUMPDEST SWAP4 SWAP3 POP POP POP JUMP JUMPDEST PUSH1 0x0 DUP1 PUSH2 0x1958 DUP4 DUP6 PUSH2 0x2A5A JUMP JUMPDEST SWAP1 POP DUP4 DUP2 LT ISZERO PUSH2 0x1944 JUMPI PUSH1 0x40 MLOAD PUSH3 0x461BCD PUSH1 0xE5 SHL DUP2 MSTORE PUSH1 0x20 PUSH1 0x4 DUP3 ADD MSTORE PUSH1 0x1B PUSH1 0x24 DUP3 ADD MSTORE PUSH32 0x536166654D6174683A206164646974696F6E206F766572666C6F770000000000 PUSH1 0x44 DUP3 ADD MSTORE PUSH1 0x64 ADD PUSH2 0xBCC JUMP JUMPDEST PUSH1 0x1 PUSH1 0x1 PUSH1 0xA0 SHL SUB DUP4 AND PUSH2 0x1A0C JUMPI PUSH1 0x40 MLOAD PUSH3 0x461BCD PUSH1 0xE5 SHL DUP2 MSTORE PUSH1 0x20 PUSH1 0x4 DUP3 ADD MSTORE PUSH1 0x24 DUP1 DUP3 ADD MSTORE PUSH32 0x45524332303A20617070726F76652066726F6D20746865207A65726F20616464 PUSH1 0x44 DUP3 ADD MSTORE PUSH4 0x72657373 PUSH1 0xE0 SHL PUSH1 0x64 DUP3 ADD MSTORE PUSH1 0x84 ADD PUSH2 0xBCC JUMP JUMPDEST PUSH1 0x1 PUSH1 0x1 PUSH1 0xA0 SHL SUB DUP3 AND PUSH2 0x1A6D JUMPI PUSH1 0x40 MLOAD PUSH3 0x461BCD PUSH1 0xE5 SHL DUP2 MSTORE PUSH1 0x20 PUSH1 0x4 DUP3 ADD MSTORE PUSH1 0x22 PUSH1 0x24 DUP3 ADD MSTORE PUSH32 0x45524332303A20617070726F766520746F20746865207A65726F206164647265 PUSH1 0x44 DUP3 ADD MSTORE PUSH2 0x7373 PUSH1 0xF0 SHL PUSH1 0x64 DUP3 ADD MSTORE PUSH1 0x84 ADD PUSH2 0xBCC JUMP JUMPDEST PUSH1 0x1 PUSH1 0x1 PUSH1 0xA0 SHL SUB DUP4 DUP2 AND PUSH1 0x0 DUP2 DUP2 MSTORE PUSH1 0x1 PUSH1 0x20 SWAP1 DUP2 MSTORE PUSH1 0x40 DUP1 DUP4 KECCAK256 SWAP5 DUP8 AND DUP1 DUP5 MSTORE SWAP5 DUP3 MSTORE SWAP2 DUP3 SWAP1 KECCAK256 DUP6 SWAP1 SSTORE SWAP1 MLOAD DUP5 DUP2 MSTORE PUSH32 0x8C5BE1E5EBEC7D5BD14F71427D1E84F3DD0314C0F7B2291E5B200AC8C7C3B925 SWAP2 ADD PUSH1 0x40 MLOAD DUP1 SWAP2 SUB SWAP1 LOG3 POP POP POP JUMP JUMPDEST PUSH1 0x40 MLOAD PUSH3 0x461BCD PUSH1 0xE5 SHL DUP2 MSTORE PUSH1 0x20 PUSH1 0x4 DUP3 ADD MSTORE PUSH1 0x2D PUSH1 0x24 DUP3 ADD MSTORE PUSH32 0x436861696E445F4469766964656E645F547261636B65723A204E6F207472616E PUSH1 0x44 DUP3 ADD MSTORE PUSH13 0x1CD9995C9CC8185B1B1BDDD959 PUSH1 0x9A SHL PUSH1 0x64 DUP3 ADD MSTORE PUSH1 0x84 ADD PUSH2 0xBCC JUMP JUMPDEST POP POP POP JUMP JUMPDEST PUSH1 0x0 DUP2 DUP5 DUP5 GT ISZERO PUSH2 0x1B55 JUMPI PUSH1 0x40 MLOAD PUSH3 0x461BCD PUSH1 0xE5 SHL DUP2 MSTORE PUSH1 0x4 ADD PUSH2 0xBCC SWAP2 SWAP1 PUSH2 0x27C3 JUMP JUMPDEST POP PUSH1 0x0 PUSH2 0x1B62 DUP5 DUP7 PUSH2 0x2A72 JUMP JUMPDEST SWAP6 SWAP5 POP POP POP POP POP JUMP JUMPDEST PUSH1 0x0 DUP2 DUP2 DUP2 SLT ISZERO PUSH2 0xC07 JUMPI PUSH1 0x0 DUP1 REVERT JUMPDEST PUSH1 0x0 DUP1 PUSH2 0x1B88 DUP4 DUP6 PUSH2 0x2A89 JUMP JUMPDEST SWAP1 POP PUSH1 0x0 DUP4 SLT ISZERO DUP1 ISZERO PUSH2 0x1B9B JUMPI POP DUP4 DUP2 SLT ISZERO JUMPDEST DUP1 PUSH2 0x1BB0 JUMPI POP PUSH1 0x0 DUP4 SLT DUP1 ISZERO PUSH2 0x1BB0 JUMPI POP DUP4 DUP2 SLT JUMPDEST PUSH2 0x1944 JUMPI PUSH1 0x0 DUP1 REVERT JUMPDEST PUSH1 0x0 DUP1 DUP3 SLT ISZERO PUSH2 0x1BC8 JUMPI PUSH1 0x0 DUP1 REVERT JUMPDEST POP SWAP1 JUMP JUMPDEST PUSH1 0x1 PUSH1 0x1 PUSH1 0xA0 SHL SUB DUP3 AND PUSH1 0x0 SWAP1 DUP2 MSTORE PUSH1 0x20 DUP2 SWAP1 MSTORE PUSH1 0x40 SWAP1 KECCAK256 SLOAD DUP1 DUP3 GT ISZERO PUSH2 0x1C0B JUMPI PUSH1 0x0 PUSH2 0x1BF9 DUP4 DUP4 PUSH2 0x1D99 JUMP JUMPDEST SWAP1 POP PUSH2 0x1C05 DUP5 DUP3 PUSH2 0x2538 JUMP JUMPDEST POP POP POP POP JUMP JUMPDEST DUP1 DUP3 LT ISZERO PUSH2 0x1B2C JUMPI PUSH1 0x0 PUSH2 0x1C1F DUP3 DUP5 PUSH2 0x1D99 JUMP JUMPDEST SWAP1 POP PUSH2 0x1C05 DUP5 DUP3 PUSH2 0x259C JUMP JUMPDEST PUSH1 0x1 PUSH1 0x1 PUSH1 0xA0 SHL SUB DUP2 AND PUSH1 0x0 SWAP1 DUP2 MSTORE PUSH1 0x3 DUP4 ADD PUSH1 0x20 MSTORE PUSH1 0x40 SWAP1 KECCAK256 SLOAD PUSH1 0xFF AND PUSH2 0x1C51 JUMPI POP POP JUMP JUMPDEST PUSH1 0x1 PUSH1 0x1 PUSH1 0xA0 SHL SUB DUP2 AND PUSH1 0x0 SWAP1 DUP2 MSTORE PUSH1 0x3 DUP4 ADD PUSH1 0x20 SWAP1 DUP2 MSTORE PUSH1 0x40 DUP1 DUP4 KECCAK256 DUP1 SLOAD PUSH1 0xFF NOT AND SWAP1 SSTORE PUSH1 0x1 DUP1 DUP7 ADD DUP4 MSTORE DUP2 DUP5 KECCAK256 DUP5 SWAP1 SSTORE PUSH1 0x2 DUP7 ADD SWAP1 SWAP3 MSTORE DUP3 KECCAK256 SLOAD DUP5 SLOAD SWAP1 SWAP3 SWAP2 PUSH2 0x1C9B SWAP2 PUSH2 0x2A72 JUMP JUMPDEST SWAP1 POP PUSH1 0x0 DUP5 PUSH1 0x0 ADD DUP3 DUP2 SLOAD DUP2 LT PUSH2 0x1CB4 JUMPI PUSH2 0x1CB4 PUSH2 0x2A44 JUMP JUMPDEST PUSH1 0x0 SWAP2 DUP3 MSTORE PUSH1 0x20 DUP1 DUP4 KECCAK256 SWAP1 SWAP2 ADD SLOAD PUSH1 0x1 PUSH1 0x1 PUSH1 0xA0 SHL SUB SWAP1 DUP2 AND DUP1 DUP5 MSTORE PUSH1 0x2 DUP10 ADD SWAP1 SWAP3 MSTORE PUSH1 0x40 DUP1 DUP5 KECCAK256 DUP8 SWAP1 SSTORE SWAP1 DUP8 AND DUP4 MSTORE DUP3 KECCAK256 SWAP2 SWAP1 SWAP2 SSTORE DUP6 SLOAD SWAP1 SWAP2 POP DUP2 SWAP1 DUP7 SWAP1 DUP6 SWAP1 DUP2 LT PUSH2 0x1D03 JUMPI PUSH2 0x1D03 PUSH2 0x2A44 JUMP JUMPDEST PUSH1 0x0 SWAP2 DUP3 MSTORE PUSH1 0x20 SWAP1 SWAP2 KECCAK256 ADD DUP1 SLOAD PUSH1 0x1 PUSH1 0x1 PUSH1 0xA0 SHL SUB NOT AND PUSH1 0x1 PUSH1 0x1 PUSH1 0xA0 SHL SUB SWAP3 SWAP1 SWAP3 AND SWAP2 SWAP1 SWAP2 OR SWAP1 SSTORE DUP5 SLOAD DUP6 SWAP1 DUP1 PUSH2 0x1D3D JUMPI PUSH2 0x1D3D PUSH2 0x2ACA JUMP JUMPDEST PUSH1 0x0 DUP3 DUP2 MSTORE PUSH1 0x20 SWAP1 KECCAK256 DUP2 ADD PUSH1 0x0 NOT SWAP1 DUP2 ADD DUP1 SLOAD PUSH1 0x1 PUSH1 0x1 PUSH1 0xA0 SHL SUB NOT AND SWAP1 SSTORE ADD SWAP1 SSTORE POP POP POP POP POP JUMP JUMPDEST PUSH1 0x0 DUP3 PUSH1 0x0 ADD DUP3 DUP2 SLOAD DUP2 LT PUSH2 0x1D7D JUMPI PUSH2 0x1D7D PUSH2 0x2A44 JUMP JUMPDEST PUSH1 0x0 SWAP2 DUP3 MSTORE PUSH1 0x20 SWAP1 SWAP2 KECCAK256 ADD SLOAD PUSH1 0x1 PUSH1 0x1 PUSH1 0xA0 SHL SUB AND SWAP4 SWAP3 POP POP POP JUMP JUMPDEST PUSH1 0x0 PUSH2 0x1944 DUP4 DUP4 PUSH1 0x40 MLOAD DUP1 PUSH1 0x40 ADD PUSH1 0x40 MSTORE DUP1 PUSH1 0x1E DUP2 MSTORE PUSH1 0x20 ADD PUSH32 0x536166654D6174683A207375627472616374696F6E206F766572666C6F770000 DUP2 MSTORE POP PUSH2 0x1B31 JUMP JUMPDEST PUSH1 0x0 DUP1 PUSH2 0x1DE7 DUP4 PUSH2 0x12C3 JUMP JUMPDEST SWAP1 POP DUP1 ISZERO PUSH2 0x208B JUMPI PUSH1 0x1 PUSH1 0x1 PUSH1 0xA0 SHL SUB DUP4 AND PUSH1 0x0 SWAP1 DUP2 MSTORE PUSH1 0x7 PUSH1 0x20 MSTORE PUSH1 0x40 SWAP1 KECCAK256 SLOAD PUSH2 0x1E12 SWAP1 DUP3 PUSH2 0x194B JUMP JUMPDEST PUSH1 0x1 PUSH1 0x1 PUSH1 0xA0 SHL SUB DUP1 DUP6 AND PUSH1 0x0 SWAP1 DUP2 MSTORE PUSH1 0x7 PUSH1 0x20 MSTORE PUSH1 0x40 DUP2 KECCAK256 SWAP3 SWAP1 SWAP3 SSTORE PUSH1 0x12 SLOAD AND SWAP1 DUP2 PUSH2 0x1E97 JUMPI PUSH1 0x40 MLOAD PUSH1 0x1 PUSH1 0x1 PUSH1 0xA0 SHL SUB DUP7 AND SWAP1 PUSH2 0xBB8 SWAP1 DUP6 SWAP1 PUSH1 0x0 DUP2 DUP2 DUP2 DUP6 DUP9 DUP9 CALL SWAP4 POP POP POP POP RETURNDATASIZE DUP1 PUSH1 0x0 DUP2 EQ PUSH2 0x1E87 JUMPI PUSH1 0x40 MLOAD SWAP2 POP PUSH1 0x1F NOT PUSH1 0x3F RETURNDATASIZE ADD AND DUP3 ADD PUSH1 0x40 MSTORE RETURNDATASIZE DUP3 MSTORE RETURNDATASIZE PUSH1 0x0 PUSH1 0x20 DUP5 ADD RETURNDATACOPY PUSH2 0x1E8C JUMP JUMPDEST PUSH1 0x60 SWAP2 POP JUMPDEST POP POP DUP1 SWAP2 POP POP PUSH2 0x1FF1 JUMP JUMPDEST PUSH1 0x40 DUP1 MLOAD PUSH1 0x2 DUP1 DUP3 MSTORE PUSH1 0x60 DUP3 ADD DUP4 MSTORE PUSH1 0x0 SWAP3 PUSH1 0x20 DUP4 ADD SWAP1 DUP1 CALLDATASIZE DUP4 CALLDATACOPY POP POP PUSH1 0x15 SLOAD PUSH1 0x40 DUP1 MLOAD PUSH4 0x15AB88C9 PUSH1 0xE3 SHL DUP2 MSTORE SWAP1 MLOAD SWAP4 SWAP5 POP PUSH1 0x1 PUSH1 0x1 PUSH1 0xA0 SHL SUB SWAP1 SWAP2 AND SWAP3 PUSH4 0xAD5C4648 SWAP3 POP PUSH1 0x4 DUP1 DUP4 ADD SWAP3 PUSH1 0x20 SWAP3 SWAP2 SWAP1 DUP3 SWAP1 SUB ADD DUP2 DUP7 GAS STATICCALL ISZERO DUP1 ISZERO PUSH2 0x1F01 JUMPI RETURNDATASIZE PUSH1 0x0 DUP1 RETURNDATACOPY RETURNDATASIZE PUSH1 0x0 REVERT JUMPDEST POP POP POP POP PUSH1 0x40 MLOAD RETURNDATASIZE PUSH1 0x1F NOT PUSH1 0x1F DUP3 ADD AND DUP3 ADD DUP1 PUSH1 0x40 MSTORE POP DUP2 ADD SWAP1 PUSH2 0x1F25 SWAP2 SWAP1 PUSH2 0x2AE0 JUMP JUMPDEST DUP2 PUSH1 0x0 DUP2 MLOAD DUP2 LT PUSH2 0x1F38 JUMPI PUSH2 0x1F38 PUSH2 0x2A44 JUMP JUMPDEST PUSH1 0x20 MUL PUSH1 0x20 ADD ADD SWAP1 PUSH1 0x1 PUSH1 0x1 PUSH1 0xA0 SHL SUB AND SWAP1 DUP2 PUSH1 0x1 PUSH1 0x1 PUSH1 0xA0 SHL SUB AND DUP2 MSTORE POP POP DUP3 DUP2 PUSH1 0x1 DUP2 MLOAD DUP2 LT PUSH2 0x1F6C JUMPI PUSH2 0x1F6C PUSH2 0x2A44 JUMP JUMPDEST PUSH1 0x1 PUSH1 0x1 PUSH1 0xA0 SHL SUB SWAP3 DUP4 AND PUSH1 0x20 SWAP2 DUP3 MUL SWAP3 SWAP1 SWAP3 ADD ADD MSTORE PUSH1 0x15 SLOAD PUSH1 0x40 MLOAD PUSH4 0xB6F9DE95 PUSH1 0xE0 SHL DUP2 MSTORE SWAP2 AND SWAP1 PUSH4 0xB6F9DE95 SWAP1 DUP7 SWAP1 PUSH2 0x1FB2 SWAP1 PUSH1 0x0 SWAP1 DUP7 SWAP1 DUP13 SWAP1 TIMESTAMP SWAP1 PUSH1 0x4 ADD PUSH2 0x2B41 JUMP JUMPDEST PUSH1 0x0 PUSH1 0x40 MLOAD DUP1 DUP4 SUB DUP2 DUP6 DUP9 DUP1 EXTCODESIZE ISZERO DUP1 ISZERO PUSH2 0x1FCB JUMPI PUSH1 0x0 DUP1 REVERT JUMPDEST POP GAS CALL SWAP4 POP POP POP POP DUP1 ISZERO PUSH2 0x1FDD JUMPI POP PUSH1 0x1 JUMPDEST PUSH2 0x1FEA JUMPI PUSH1 0x0 SWAP2 POP PUSH2 0x1FEF JUMP JUMPDEST PUSH1 0x1 SWAP2 POP JUMPDEST POP JUMPDEST DUP1 PUSH2 0x203F JUMPI PUSH1 0x1 PUSH1 0x1 PUSH1 0xA0 SHL SUB DUP6 AND PUSH1 0x0 SWAP1 DUP2 MSTORE PUSH1 0x7 PUSH1 0x20 MSTORE PUSH1 0x40 SWAP1 KECCAK256 SLOAD PUSH2 0x2019 SWAP1 DUP5 PUSH2 0x1D99 JUMP JUMPDEST PUSH1 0x1 PUSH1 0x1 PUSH1 0xA0 SHL SUB SWAP1 SWAP6 AND PUSH1 0x0 SWAP1 DUP2 MSTORE PUSH1 0x7 PUSH1 0x20 MSTORE PUSH1 0x40 DUP2 KECCAK256 SWAP6 SWAP1 SWAP6 SSTORE POP SWAP3 SWAP4 SWAP3 POP POP POP JUMP JUMPDEST DUP5 PUSH1 0x1 PUSH1 0x1 PUSH1 0xA0 SHL SUB AND PUSH32 0xEE503BEE2BB6A87E57BC57DB795F98137327401A0E7B7CE42E37926CC1A9CA4D DUP5 PUSH1 0x40 MLOAD PUSH2 0x207A SWAP2 DUP2 MSTORE PUSH1 0x20 ADD SWAP1 JUMP JUMPDEST PUSH1 0x40 MLOAD DUP1 SWAP2 SUB SWAP1 LOG2 POP SWAP1 SWAP4 SWAP3 POP POP POP JUMP JUMPDEST POP PUSH1 0x0 SWAP3 SWAP2 POP POP JUMP JUMPDEST PUSH1 0x0 DUP1 PUSH2 0x20A0 DUP4 PUSH2 0x12C3 JUMP JUMPDEST SWAP1 POP DUP1 ISZERO PUSH2 0x208B JUMPI PUSH1 0x1 PUSH1 0x1 PUSH1 0xA0 SHL SUB DUP4 AND PUSH1 0x0 SWAP1 DUP2 MSTORE PUSH1 0x7 PUSH1 0x20 MSTORE PUSH1 0x40 DUP2 KECCAK256 SLOAD PUSH2 0x20CB SWAP1 DUP4 PUSH2 0x194B JUMP JUMPDEST PUSH1 0x1 PUSH1 0x1 PUSH1 0xA0 SHL SUB DUP6 AND PUSH1 0x0 SWAP1 DUP2 MSTORE PUSH1 0x7 PUSH1 0x20 MSTORE PUSH1 0x40 DUP1 DUP3 KECCAK256 SWAP3 SWAP1 SWAP3 SSTORE DUP2 MLOAD PUSH1 0x2 DUP1 DUP3 MSTORE PUSH1 0x60 DUP3 ADD SWAP1 SWAP4 MSTORE SWAP1 SWAP2 DUP2 PUSH1 0x20 ADD PUSH1 0x20 DUP3 MUL DUP1 CALLDATASIZE DUP4 CALLDATACOPY POP POP PUSH1 0x15 SLOAD PUSH1 0x40 DUP1 MLOAD PUSH4 0x15AB88C9 PUSH1 0xE3 SHL DUP2 MSTORE SWAP1 MLOAD SWAP4 SWAP5 POP PUSH1 0x1 PUSH1 0x1 PUSH1 0xA0 SHL SUB SWAP1 SWAP2 AND SWAP3 PUSH4 0xAD5C4648 SWAP3 POP PUSH1 0x4 DUP1 DUP4 ADD SWAP3 PUSH1 0x20 SWAP3 SWAP2 SWAP1 DUP3 SWAP1 SUB ADD DUP2 DUP7 GAS STATICCALL ISZERO DUP1 ISZERO PUSH2 0x2153 JUMPI RETURNDATASIZE PUSH1 0x0 DUP1 RETURNDATACOPY RETURNDATASIZE PUSH1 0x0 REVERT JUMPDEST POP POP POP POP PUSH1 0x40 MLOAD RETURNDATASIZE PUSH1 0x1F NOT PUSH1 0x1F DUP3 ADD AND DUP3 ADD DUP1 PUSH1 0x40 MSTORE POP DUP2 ADD SWAP1 PUSH2 0x2177 SWAP2 SWAP1 PUSH2 0x2AE0 JUMP JUMPDEST DUP2 PUSH1 0x0 DUP2 MLOAD DUP2 LT PUSH2 0x218A JUMPI PUSH2 0x218A PUSH2 0x2A44 JUMP JUMPDEST PUSH1 0x1 PUSH1 0x1 PUSH1 0xA0 SHL SUB SWAP3 DUP4 AND PUSH1 0x20 SWAP2 DUP3 MUL SWAP3 SWAP1 SWAP3 ADD ADD MSTORE PUSH1 0x16 SLOAD DUP3 MLOAD SWAP2 AND SWAP1 DUP3 SWAP1 PUSH1 0x1 SWAP1 DUP2 LT PUSH2 0x21BB JUMPI PUSH2 0x21BB PUSH2 0x2A44 JUMP JUMPDEST PUSH1 0x1 PUSH1 0x1 PUSH1 0xA0 SHL SUB SWAP3 DUP4 AND PUSH1 0x20 SWAP2 DUP3 MUL SWAP3 SWAP1 SWAP3 ADD ADD MSTORE PUSH1 0x16 SLOAD PUSH1 0x40 MLOAD PUSH4 0x70A08231 PUSH1 0xE0 SHL DUP2 MSTORE ADDRESS PUSH1 0x4 DUP3 ADD MSTORE PUSH1 0x0 SWAP3 SWAP2 SWAP1 SWAP2 AND SWAP1 PUSH4 0x70A08231 SWAP1 PUSH1 0x24 ADD PUSH1 0x20 PUSH1 0x40 MLOAD DUP1 DUP4 SUB DUP2 DUP7 GAS STATICCALL ISZERO DUP1 ISZERO PUSH2 0x2215 JUMPI RETURNDATASIZE PUSH1 0x0 DUP1 RETURNDATACOPY RETURNDATASIZE PUSH1 0x0 REVERT JUMPDEST POP POP POP POP PUSH1 0x40 MLOAD RETURNDATASIZE PUSH1 0x1F NOT PUSH1 0x1F DUP3 ADD AND DUP3 ADD DUP1 PUSH1 0x40 MSTORE POP DUP2 ADD SWAP1 PUSH2 0x2239 SWAP2 SWAP1 PUSH2 0x2B76 JUMP JUMPDEST PUSH1 0x15 SLOAD PUSH1 0x40 MLOAD PUSH4 0xB6F9DE95 PUSH1 0xE0 SHL DUP2 MSTORE SWAP2 SWAP3 POP PUSH1 0x1 PUSH1 0x1 PUSH1 0xA0 SHL SUB AND SWAP1 PUSH4 0xB6F9DE95 SWAP1 DUP7 SWAP1 PUSH2 0x2273 SWAP1 PUSH1 0x0 SWAP1 DUP8 SWAP1 ADDRESS SWAP1 TIMESTAMP SWAP1 PUSH1 0x4 ADD PUSH2 0x2B41 JUMP JUMPDEST PUSH1 0x0 PUSH1 0x40 MLOAD DUP1 DUP4 SUB DUP2 DUP6 DUP9 DUP1 EXTCODESIZE ISZERO DUP1 ISZERO PUSH2 0x228C JUMPI PUSH1 0x0 DUP1 REVERT JUMPDEST POP GAS CALL SWAP4 POP POP POP POP DUP1 ISZERO PUSH2 0x229E JUMPI POP PUSH1 0x1 JUMPDEST PUSH2 0x22AB JUMPI PUSH1 0x0 SWAP3 POP PUSH2 0x23AE JUMP JUMPDEST PUSH1 0x16 SLOAD PUSH1 0x40 MLOAD PUSH4 0x70A08231 PUSH1 0xE0 SHL DUP2 MSTORE ADDRESS PUSH1 0x4 DUP3 ADD MSTORE PUSH1 0x0 SWAP2 PUSH2 0x231E SWAP2 DUP5 SWAP2 PUSH1 0x1 PUSH1 0x1 PUSH1 0xA0 SHL SUB AND SWAP1 PUSH4 0x70A08231 SWAP1 PUSH1 0x24 ADD PUSH1 0x20 PUSH1 0x40 MLOAD DUP1 DUP4 SUB DUP2 DUP7 GAS STATICCALL ISZERO DUP1 ISZERO PUSH2 0x22FA JUMPI RETURNDATASIZE PUSH1 0x0 DUP1 RETURNDATACOPY RETURNDATASIZE PUSH1 0x0 REVERT JUMPDEST POP POP POP POP PUSH1 0x40 MLOAD RETURNDATASIZE PUSH1 0x1F NOT PUSH1 0x1F DUP3 ADD AND DUP3 ADD DUP1 PUSH1 0x40 MSTORE POP DUP2 ADD SWAP1 PUSH2 0x12E9 SWAP2 SWAP1 PUSH2 0x2B76 JUMP JUMPDEST SWAP1 POP DUP1 ISZERO PUSH2 0x23A7 JUMPI PUSH1 0x16 SLOAD PUSH1 0x40 MLOAD PUSH4 0xA9059CBB PUSH1 0xE0 SHL DUP2 MSTORE PUSH1 0x1 PUSH1 0x1 PUSH1 0xA0 SHL SUB DUP10 DUP2 AND PUSH1 0x4 DUP4 ADD MSTORE PUSH1 0x24 DUP3 ADD DUP5 SWAP1 MSTORE PUSH1 0x1 SWAP7 POP SWAP1 SWAP2 AND SWAP1 PUSH4 0xA9059CBB SWAP1 PUSH1 0x44 ADD PUSH1 0x20 PUSH1 0x40 MLOAD DUP1 DUP4 SUB DUP2 PUSH1 0x0 DUP8 GAS CALL ISZERO DUP1 ISZERO PUSH2 0x237D JUMPI RETURNDATASIZE PUSH1 0x0 DUP1 RETURNDATACOPY RETURNDATASIZE PUSH1 0x0 REVERT JUMPDEST POP POP POP POP PUSH1 0x40 MLOAD RETURNDATASIZE PUSH1 0x1F NOT PUSH1 0x1F DUP3 ADD AND DUP3 ADD DUP1 PUSH1 0x40 MSTORE POP DUP2 ADD SWAP1 PUSH2 0x23A1 SWAP2 SWAP1 PUSH2 0x2B8F JUMP JUMPDEST POP PUSH2 0x23AC JUMP JUMPDEST PUSH1 0x0 SWAP4 POP JUMPDEST POP JUMPDEST DUP3 PUSH2 0x23FD JUMPI PUSH1 0x1 PUSH1 0x1 PUSH1 0xA0 SHL SUB DUP7 AND PUSH1 0x0 SWAP1 DUP2 MSTORE PUSH1 0x7 PUSH1 0x20 MSTORE PUSH1 0x40 SWAP1 KECCAK256 SLOAD PUSH2 0x23D6 SWAP1 DUP6 PUSH2 0x1D99 JUMP JUMPDEST PUSH1 0x1 PUSH1 0x1 PUSH1 0xA0 SHL SUB SWAP1 SWAP7 AND PUSH1 0x0 SWAP1 DUP2 MSTORE PUSH1 0x7 PUSH1 0x20 MSTORE PUSH1 0x40 DUP2 KECCAK256 SWAP7 SWAP1 SWAP7 SSTORE POP SWAP4 SWAP5 SWAP4 POP POP POP POP JUMP JUMPDEST POP SWAP2 SWAP5 SWAP4 POP POP POP POP JUMP JUMPDEST PUSH1 0x1 PUSH1 0x1 PUSH1 0xA0 SHL SUB DUP3 AND PUSH1 0x0 SWAP1 DUP2 MSTORE PUSH1 0x3 DUP5 ADD PUSH1 0x20 MSTORE PUSH1 0x40 SWAP1 KECCAK256 SLOAD PUSH1 0xFF AND ISZERO PUSH2 0x244C JUMPI PUSH1 0x1 PUSH1 0x1 PUSH1 0xA0 SHL SUB DUP3 AND PUSH1 0x0 SWAP1 DUP2 MSTORE PUSH1 0x1 DUP5 ADD PUSH1 0x20 MSTORE PUSH1 0x40 SWAP1 KECCAK256 DUP2 SWAP1 SSTORE POP POP POP JUMP JUMPDEST PUSH1 0x1 PUSH1 0x1 PUSH1 0xA0 SHL SUB DUP3 AND PUSH1 0x0 DUP2 DUP2 MSTORE PUSH1 0x3 DUP6 ADD PUSH1 0x20 SWAP1 DUP2 MSTORE PUSH1 0x40 DUP1 DUP4 KECCAK256 DUP1 SLOAD PUSH1 0xFF NOT AND PUSH1 0x1 SWAP1 DUP2 OR SWAP1 SWAP2 SSTORE DUP8 DUP2 ADD DUP4 MSTORE DUP2 DUP5 KECCAK256 DUP7 SWAP1 SSTORE DUP8 SLOAD PUSH1 0x2 DUP10 ADD DUP5 MSTORE SWAP2 DUP5 KECCAK256 DUP3 SWAP1 SSTORE DUP2 ADD DUP8 SSTORE DUP7 DUP4 MSTORE SWAP2 KECCAK256 ADD DUP1 SLOAD PUSH1 0x1 PUSH1 0x1 PUSH1 0xA0 SHL SUB NOT AND SWAP1 SWAP2 OR SWAP1 SSTORE POP POP POP JUMP JUMPDEST PUSH1 0x1 PUSH1 0x1 PUSH1 0xA0 SHL SUB DUP2 AND PUSH1 0x0 SWAP1 DUP2 MSTORE PUSH1 0x3 DUP4 ADD PUSH1 0x20 MSTORE PUSH1 0x40 DUP2 KECCAK256 SLOAD PUSH1 0xFF AND PUSH2 0x24DB JUMPI POP PUSH1 0x0 NOT PUSH2 0xC07 JUMP JUMPDEST POP PUSH1 0x1 PUSH1 0x1 PUSH1 0xA0 SHL SUB AND PUSH1 0x0 SWAP1 DUP2 MSTORE PUSH1 0x2 SWAP2 SWAP1 SWAP2 ADD PUSH1 0x20 MSTORE PUSH1 0x40 SWAP1 KECCAK256 SLOAD SWAP1 JUMP JUMPDEST PUSH1 0x0 DUP1 PUSH2 0x2508 DUP4 DUP6 PUSH2 0x2BAC JUMP JUMPDEST SWAP1 POP PUSH1 0x0 DUP4 SLT ISZERO DUP1 ISZERO PUSH2 0x251B JUMPI POP DUP4 DUP2 SGT ISZERO JUMPDEST DUP1 PUSH2 0x1BB0 JUMPI POP PUSH1 0x0 DUP4 SLT DUP1 ISZERO PUSH2 0x1BB0 JUMPI POP DUP4 DUP2 SGT PUSH2 0x1944 JUMPI PUSH1 0x0 DUP1 REVERT JUMPDEST PUSH2 0x2542 DUP3 DUP3 PUSH2 0x25E0 JUMP JUMPDEST PUSH2 0x257C PUSH2 0x255D PUSH2 0xCB8 DUP4 PUSH1 0x5 SLOAD PUSH2 0x18C2 SWAP1 SWAP2 SWAP1 PUSH4 0xFFFFFFFF AND JUMP JUMPDEST PUSH1 0x1 PUSH1 0x1 PUSH1 0xA0 SHL SUB DUP5 AND PUSH1 0x0 SWAP1 DUP2 MSTORE PUSH1 0x6 PUSH1 0x20 MSTORE PUSH1 0x40 SWAP1 KECCAK256 SLOAD SWAP1 PUSH2 0x24FB JUMP JUMPDEST PUSH1 0x1 PUSH1 0x1 PUSH1 0xA0 SHL SUB SWAP1 SWAP3 AND PUSH1 0x0 SWAP1 DUP2 MSTORE PUSH1 0x6 PUSH1 0x20 MSTORE PUSH1 0x40 SWAP1 KECCAK256 SWAP2 SWAP1 SWAP2 SSTORE POP JUMP JUMPDEST PUSH2 0x25A6 DUP3 DUP3 PUSH2 0x26BF JUMP JUMPDEST PUSH2 0x257C PUSH2 0x25C1 PUSH2 0xCB8 DUP4 PUSH1 0x5 SLOAD PUSH2 0x18C2 SWAP1 SWAP2 SWAP1 PUSH4 0xFFFFFFFF AND JUMP JUMPDEST PUSH1 0x1 PUSH1 0x1 PUSH1 0xA0 SHL SUB DUP5 AND PUSH1 0x0 SWAP1 DUP2 MSTORE PUSH1 0x6 PUSH1 0x20 MSTORE PUSH1 0x40 SWAP1 KECCAK256 SLOAD SWAP1 PUSH2 0x1B7B JUMP JUMPDEST PUSH1 0x1 PUSH1 0x1 PUSH1 0xA0 SHL SUB DUP3 AND PUSH2 0x2636 JUMPI PUSH1 0x40 MLOAD PUSH3 0x461BCD PUSH1 0xE5 SHL DUP2 MSTORE PUSH1 0x20 PUSH1 0x4 DUP3 ADD MSTORE PUSH1 0x1F PUSH1 0x24 DUP3 ADD MSTORE PUSH32 0x45524332303A206D696E7420746F20746865207A65726F206164647265737300 PUSH1 0x44 DUP3 ADD MSTORE PUSH1 0x64 ADD PUSH2 0xBCC JUMP JUMPDEST PUSH1 0x2 SLOAD PUSH2 0x2643 SWAP1 DUP3 PUSH2 0x194B JUMP JUMPDEST PUSH1 0x2 SSTORE PUSH1 0x1 PUSH1 0x1 PUSH1 0xA0 SHL SUB DUP3 AND PUSH1 0x0 SWAP1 DUP2 MSTORE PUSH1 0x20 DUP2 SWAP1 MSTORE PUSH1 0x40 SWAP1 KECCAK256 SLOAD PUSH2 0x2669 SWAP1 DUP3 PUSH2 0x194B JUMP JUMPDEST PUSH1 0x1 PUSH1 0x1 PUSH1 0xA0 SHL SUB DUP4 AND PUSH1 0x0 DUP2 DUP2 MSTORE PUSH1 0x20 DUP2 DUP2 MSTORE PUSH1 0x40 DUP1 DUP4 KECCAK256 SWAP5 SWAP1 SWAP5 SSTORE SWAP3 MLOAD DUP5 DUP2 MSTORE SWAP2 SWAP3 SWAP1 SWAP2 PUSH32 0xDDF252AD1BE2C89B69C2B068FC378DAA952BA7F163C4A11628F55A4DF523B3EF SWAP2 ADD JUMPDEST PUSH1 0x40 MLOAD DUP1 SWAP2 SUB SWAP1 LOG3 POP POP JUMP JUMPDEST PUSH1 0x1 PUSH1 0x1 PUSH1 0xA0 SHL SUB DUP3 AND PUSH2 0x271F JUMPI PUSH1 0x40 MLOAD PUSH3 0x461BCD PUSH1 0xE5 SHL DUP2 MSTORE PUSH1 0x20 PUSH1 0x4 DUP3 ADD MSTORE PUSH1 0x21 PUSH1 0x24 DUP3 ADD MSTORE PUSH32 0x45524332303A206275726E2066726F6D20746865207A65726F20616464726573 PUSH1 0x44 DUP3 ADD MSTORE PUSH1 0x73 PUSH1 0xF8 SHL PUSH1 0x64 DUP3 ADD MSTORE PUSH1 0x84 ADD PUSH2 0xBCC JUMP JUMPDEST PUSH2 0x275C DUP2 PUSH1 0x40 MLOAD DUP1 PUSH1 0x60 ADD PUSH1 0x40 MSTORE DUP1 PUSH1 0x22 DUP2 MSTORE PUSH1 0x20 ADD PUSH2 0x2BEC PUSH1 0x22 SWAP2 CODECOPY PUSH1 0x1 PUSH1 0x1 PUSH1 0xA0 SHL SUB DUP6 AND PUSH1 0x0 SWAP1 DUP2 MSTORE PUSH1 0x20 DUP2 SWAP1 MSTORE PUSH1 0x40 SWAP1 KECCAK256 SLOAD SWAP2 SWAP1 PUSH2 0x1B31 JUMP JUMPDEST PUSH1 0x1 PUSH1 0x1 PUSH1 0xA0 SHL SUB DUP4 AND PUSH1 0x0 SWAP1 DUP2 MSTORE PUSH1 0x20 DUP2 SWAP1 MSTORE PUSH1 0x40 SWAP1 KECCAK256 SSTORE PUSH1 0x2 SLOAD PUSH2 0x2782 SWAP1 DUP3 PUSH2 0x1D99 JUMP JUMPDEST PUSH1 0x2 SSTORE PUSH1 0x40 MLOAD DUP2 DUP2 MSTORE PUSH1 0x0 SWAP1 PUSH1 0x1 PUSH1 0x1 PUSH1 0xA0 SHL SUB DUP5 AND SWAP1 PUSH32 0xDDF252AD1BE2C89B69C2B068FC378DAA952BA7F163C4A11628F55A4DF523B3EF SWAP1 PUSH1 0x20 ADD PUSH2 0x26B3 JUMP JUMPDEST PUSH1 0x0 PUSH1 0x20 DUP1 DUP4 MSTORE DUP4 MLOAD DUP1 DUP3 DUP6 ADD MSTORE PUSH1 0x0 JUMPDEST DUP2 DUP2 LT ISZERO PUSH2 0x27F0 JUMPI DUP6 DUP2 ADD DUP4 ADD MLOAD DUP6 DUP3 ADD PUSH1 0x40 ADD MSTORE DUP3 ADD PUSH2 0x27D4 JUMP JUMPDEST DUP2 DUP2 GT ISZERO PUSH2 0x2802 JUMPI PUSH1 0x0 PUSH1 0x40 DUP4 DUP8 ADD ADD MSTORE JUMPDEST POP PUSH1 0x1F ADD PUSH1 0x1F NOT AND SWAP3 SWAP1 SWAP3 ADD PUSH1 0x40 ADD SWAP4 SWAP3 POP POP POP JUMP JUMPDEST PUSH1 0x1 PUSH1 0x1 PUSH1 0xA0 SHL SUB DUP2 AND DUP2 EQ PUSH2 0x282D JUMPI PUSH1 0x0 DUP1 REVERT JUMPDEST POP JUMP JUMPDEST PUSH1 0x0 PUSH1 0x20 DUP3 DUP5 SUB SLT ISZERO PUSH2 0x2842 JUMPI PUSH1 0x0 DUP1 REVERT JUMPDEST DUP2 CALLDATALOAD PUSH2 0x1944 DUP2 PUSH2 0x2818 JUMP JUMPDEST PUSH1 0x0 DUP1 PUSH1 0x40 DUP4 DUP6 SUB SLT ISZERO PUSH2 0x2860 JUMPI PUSH1 0x0 DUP1 REVERT JUMPDEST DUP3 CALLDATALOAD PUSH2 0x286B DUP2 PUSH2 0x2818 JUMP JUMPDEST SWAP5 PUSH1 0x20 SWAP4 SWAP1 SWAP4 ADD CALLDATALOAD SWAP4 POP POP POP JUMP JUMPDEST PUSH1 0x0 DUP1 PUSH1 0x0 PUSH1 0x60 DUP5 DUP7 SUB SLT ISZERO PUSH2 0x288E JUMPI PUSH1 0x0 DUP1 REVERT JUMPDEST DUP4 CALLDATALOAD PUSH2 0x2899 DUP2 PUSH2 0x2818 JUMP JUMPDEST SWAP3 POP PUSH1 0x20 DUP5 ADD CALLDATALOAD PUSH2 0x28A9 DUP2 PUSH2 0x2818 JUMP JUMPDEST SWAP3 SWAP6 SWAP3 SWAP5 POP POP POP PUSH1 0x40 SWAP2 SWAP1 SWAP2 ADD CALLDATALOAD SWAP1 JUMP JUMPDEST DUP1 ISZERO ISZERO DUP2 EQ PUSH2 0x282D JUMPI PUSH1 0x0 DUP1 REVERT JUMPDEST PUSH1 0x0 PUSH1 0x20 DUP3 DUP5 SUB SLT ISZERO PUSH2 0x28DA JUMPI PUSH1 0x0 DUP1 REVERT JUMPDEST DUP2 CALLDATALOAD PUSH2 0x1944 DUP2 PUSH2 0x28BA JUMP JUMPDEST PUSH1 0x0 PUSH1 0x20 DUP3 DUP5 SUB SLT ISZERO PUSH2 0x28F7 JUMPI PUSH1 0x0 DUP1 REVERT JUMPDEST POP CALLDATALOAD SWAP2 SWAP1 POP JUMP JUMPDEST PUSH1 0x0 DUP1 PUSH1 0x40 DUP4 DUP6 SUB SLT ISZERO PUSH2 0x2911 JUMPI PUSH1 0x0 DUP1 REVERT JUMPDEST DUP3 CALLDATALOAD PUSH2 0x291C DUP2 PUSH2 0x2818 JUMP JUMPDEST SWAP2 POP PUSH1 0x20 DUP4 ADD CALLDATALOAD PUSH2 0x292C DUP2 PUSH2 0x28BA JUMP JUMPDEST DUP1 SWAP2 POP POP SWAP3 POP SWAP3 SWAP1 POP JUMP JUMPDEST PUSH1 0x0 DUP1 PUSH1 0x40 DUP4 DUP6 SUB SLT ISZERO PUSH2 0x294A JUMPI PUSH1 0x0 DUP1 REVERT JUMPDEST DUP3 CALLDATALOAD PUSH2 0x2955 DUP2 PUSH2 0x2818 JUMP JUMPDEST SWAP2 POP PUSH1 0x20 DUP4 ADD CALLDATALOAD PUSH2 0x292C DUP2 PUSH2 0x2818 JUMP JUMPDEST PUSH4 0x4E487B71 PUSH1 0xE0 SHL PUSH1 0x0 MSTORE PUSH1 0x11 PUSH1 0x4 MSTORE PUSH1 0x24 PUSH1 0x0 REVERT JUMPDEST PUSH1 0x0 DUP3 PUSH2 0x2998 JUMPI PUSH4 0x4E487B71 PUSH1 0xE0 SHL PUSH1 0x0 MSTORE PUSH1 0x12 PUSH1 0x4 MSTORE PUSH1 0x24 PUSH1 0x0 REVERT JUMPDEST POP DIV SWAP1 JUMP JUMPDEST PUSH1 0x1 DUP2 DUP2 SHR SWAP1 DUP3 AND DUP1 PUSH2 0x29B1 JUMPI PUSH1 0x7F DUP3 AND SWAP2 POP JUMPDEST PUSH1 0x20 DUP3 LT DUP2 SUB PUSH2 0x29D1 JUMPI PUSH4 0x4E487B71 PUSH1 0xE0 SHL PUSH1 0x0 MSTORE PUSH1 0x22 PUSH1 0x4 MSTORE PUSH1 0x24 PUSH1 0x0 REVERT JUMPDEST POP SWAP2 SWAP1 POP JUMP JUMPDEST PUSH1 0x20 DUP1 DUP3 MSTORE DUP2 DUP2 ADD MSTORE PUSH32 0x4F776E61626C653A2063616C6C6572206973206E6F7420746865206F776E6572 PUSH1 0x40 DUP3 ADD MSTORE PUSH1 0x60 ADD SWAP1 JUMP JUMPDEST PUSH1 0x0 DUP2 PUSH1 0x0 NOT DIV DUP4 GT DUP3 ISZERO ISZERO AND ISZERO PUSH2 0x2A26 JUMPI PUSH2 0x2A26 PUSH2 0x2965 JUMP JUMPDEST POP MUL SWAP1 JUMP JUMPDEST PUSH1 0x0 PUSH1 0x1 DUP3 ADD PUSH2 0x2A3D JUMPI PUSH2 0x2A3D PUSH2 0x2965 JUMP JUMPDEST POP PUSH1 0x1 ADD SWAP1 JUMP JUMPDEST PUSH4 0x4E487B71 PUSH1 0xE0 SHL PUSH1 0x0 MSTORE PUSH1 0x32 PUSH1 0x4 MSTORE PUSH1 0x24 PUSH1 0x0 REVERT JUMPDEST PUSH1 0x0 DUP3 NOT DUP3 GT ISZERO PUSH2 0x2A6D JUMPI PUSH2 0x2A6D PUSH2 0x2965 JUMP JUMPDEST POP ADD SWAP1 JUMP JUMPDEST PUSH1 0x0 DUP3 DUP3 LT ISZERO PUSH2 0x2A84 JUMPI PUSH2 0x2A84 PUSH2 0x2965 JUMP JUMPDEST POP SUB SWAP1 JUMP JUMPDEST PUSH1 0x0 DUP1 DUP3 SLT DUP1 ISZERO PUSH1 0x1 PUSH1 0x1 PUSH1 0xFF SHL SUB DUP5 SWAP1 SUB DUP6 SGT AND ISZERO PUSH2 0x2AAB JUMPI PUSH2 0x2AAB PUSH2 0x2965 JUMP JUMPDEST PUSH1 0x1 PUSH1 0xFF SHL DUP4 SWAP1 SUB DUP5 SLT DUP2 AND ISZERO PUSH2 0x2AC4 JUMPI PUSH2 0x2AC4 PUSH2 0x2965 JUMP JUMPDEST POP POP ADD SWAP1 JUMP JUMPDEST PUSH4 0x4E487B71 PUSH1 0xE0 SHL PUSH1 0x0 MSTORE PUSH1 0x31 PUSH1 0x4 MSTORE PUSH1 0x24 PUSH1 0x0 REVERT JUMPDEST PUSH1 0x0 PUSH1 0x20 DUP3 DUP5 SUB SLT ISZERO PUSH2 0x2AF2 JUMPI PUSH1 0x0 DUP1 REVERT JUMPDEST DUP2 MLOAD PUSH2 0x1944 DUP2 PUSH2 0x2818 JUMP JUMPDEST PUSH1 0x0 DUP2 MLOAD DUP1 DUP5 MSTORE PUSH1 0x20 DUP1 DUP6 ADD SWAP5 POP DUP1 DUP5 ADD PUSH1 0x0 JUMPDEST DUP4 DUP2 LT ISZERO PUSH2 0x2B36 JUMPI DUP2 MLOAD PUSH1 0x1 PUSH1 0x1 PUSH1 0xA0 SHL SUB AND DUP8 MSTORE SWAP6 DUP3 ADD SWAP6 SWAP1 DUP3 ADD SWAP1 PUSH1 0x1 ADD PUSH2 0x2B11 JUMP JUMPDEST POP SWAP5 SWAP6 SWAP5 POP POP POP POP POP JUMP JUMPDEST DUP5 DUP2 MSTORE PUSH1 0x80 PUSH1 0x20 DUP3 ADD MSTORE PUSH1 0x0 PUSH2 0x2B5A PUSH1 0x80 DUP4 ADD DUP7 PUSH2 0x2AFD JUMP JUMPDEST PUSH1 0x1 PUSH1 0x1 PUSH1 0xA0 SHL SUB SWAP5 SWAP1 SWAP5 AND PUSH1 0x40 DUP4 ADD MSTORE POP PUSH1 0x60 ADD MSTORE SWAP3 SWAP2 POP POP JUMP JUMPDEST PUSH1 0x0 PUSH1 0x20 DUP3 DUP5 SUB SLT ISZERO PUSH2 0x2B88 JUMPI PUSH1 0x0 DUP1 REVERT JUMPDEST POP MLOAD SWAP2 SWAP1 POP JUMP JUMPDEST PUSH1 0x0 PUSH1 0x20 DUP3 DUP5 SUB SLT ISZERO PUSH2 0x2BA1 JUMPI PUSH1 0x0 DUP1 REVERT JUMPDEST DUP2 MLOAD PUSH2 0x1944 DUP2 PUSH2 0x28BA JUMP JUMPDEST PUSH1 0x0 DUP1 DUP4 SLT DUP1 ISZERO PUSH1 0x1 PUSH1 0xFF SHL DUP6 ADD DUP5 SLT AND ISZERO PUSH2 0x2BCA JUMPI PUSH2 0x2BCA PUSH2 0x2965 JUMP JUMPDEST PUSH1 0x1 PUSH1 0x1 PUSH1 0xFF SHL SUB DUP5 ADD DUP4 SGT DUP2 AND ISZERO PUSH2 0x2BE5 JUMPI PUSH2 0x2BE5 PUSH2 0x2965 JUMP JUMPDEST POP POP SUB SWAP1 JUMP INVALID GASLIMIT MSTORE NUMBER ORIGIN ADDRESS GASPRICE KECCAK256 PUSH3 0x75726E KECCAK256 PUSH2 0x6D6F PUSH22 0x6E7420657863656564732062616C616E636545524332 ADDRESS GASPRICE KECCAK256 PUSH21 0x72616E7366657220616D6F756E7420657863656564 PUSH20 0x20616C6C6F77616E636545524332303A20646563 PUSH19 0x656173656420616C6C6F77616E63652062656C PUSH16 0x77207A65726FA2646970667358221220 0x2D 0x2F MULMOD 0xE7 0xA6 RETURNDATASIZE ISZERO POP 0xDB 0xD6 0xEF EXTCODEHASH SWAP11 BASEFEE 0xB1 0xBE 0xA8 0xBB ADD SWAP5 0xB7 0xA7 LOG1 ADDMOD 0xAA 0xCC DUP8 DUP7 0xDE LOG3 0x5F LT PUSH5 0x736F6C6343 STOP ADDMOD 0xF STOP CALLER "
		},
		"gasEstimates": {
			"creation": {
				"codeDepositCost": "4099000",
				"executionCost": "infinite",
				"totalCost": "infinite"
			},
			"external": {
				"DEAD()": "2396",
				"airdropToWallets(address[],uint256[])": "infinite",
				"allowance(address,address)": "infinite",
				"approve(address,uint256)": "24772",
				"automatedMarketMakerPairs(address)": "2593",
				"balanceOf(address)": "2702",
				"blacklist(address)": "26854",
				"buyAmount()": "2474",
				"buyBurnLPFee()": "2429",
				"buyCompanyFee()": "2430",
				"buyDonationsFee()": "2385",
				"buyLeadersFee()": "2451",
				"buyMarketingFee()": "2472",
				"claim()": "infinite",
				"companyWallet()": "2483",
				"cooldowntimer()": "2430",
				"decimals()": "356",
				"decreaseAllowance(address,uint256)": "infinite",
				"dividendTokenBalanceOf(address)": "infinite",
				"dividendTracker()": "2461",
				"donationsWallet()": "2503",
				"enableStaking(bool)": "30096",
				"enableSwapAndLiquify(bool)": "29948",
				"enableTrading()": "51604",
				"forceSwapAndSendDividends(uint256)": "infinite",
				"gasForProcessing()": "2363",
				"getAccountDividendsInfo(address)": "infinite",
				"getAccountDividendsInfoAtIndex(uint256)": "infinite",
				"getLastProcessedIndex()": "infinite",
				"getNumberOfDividendTokenHolders()": "infinite",
				"getPayoutToken()": "infinite",
				"getStakingInfo(address)": "4838",
				"getTotalDividendsDistributed()": "infinite",
				"increaseAllowance(address,uint256)": "27096",
				"isBlacklisted(address)": "2679",
				"isExcludedFromAutoClaim(address)": "infinite",
				"isExcludedFromFees(address)": "2700",
				"isExcludedFromMaxTx(address)": "2677",
				"isReinvest(address)": "infinite",
				"launchblock()": "2472",
				"leadersWallet()": "2393",
				"limitsInEffect()": "2379",
				"marketingWallet()": "2459",
				"maxTx()": "2384",
				"maxWallet()": "2383",
				"multiSend(address[],uint256[])": "infinite",
				"name()": "infinite",
				"owner()": "2410",
				"processDividendTracker(uint256)": "infinite",
				"renounceOwnership()": "30340",
				"router()": "2459",
				"sellAmount()": "2407",
				"sellBurnFee()": "2450",
				"sellBurnLPFee()": "2450",
				"sellCompanyFee()": "2450",
				"sellDonationsFee()": "2406",
				"sellLeadersFee()": "2408",
				"sellMarketingFee()": "2407",
				"setAllowAutoReinvest(bool)": "infinite",
				"setAllowCustomTokens(bool)": "infinite",
				"setAutoClaim(bool)": "infinite",
				"setAutomatedMarketMakerPair(address,bool)": "infinite",
				"setCanTransferBefore(address,bool)": "infinite",
				"setDividendsPaused(bool)": "infinite",
				"setExcludeDividends(address)": "infinite",
				"setExcludeFees(address,bool)": "infinite",
				"setExcludeMaxTx(address,bool)": "infinite",
				"setGasPriceLimit(uint256)": "24742",
				"setIncludeDividends(address)": "infinite",
				"setLimitsInEffect(bool)": "26841",
				"setMinimumTokenBalanceForAutoDividends(uint256)": "infinite",
				"setMinimumTokenBalanceForDividends(uint256)": "infinite",
				"setPresaleWallet(address)": "infinite",
				"setReinvest(bool)": "infinite",
				"setSwapTriggerAmount(uint256)": "24648",
				"setcooldowntimer(uint256)": "24602",
				"setmaxWallet(uint256)": "26882",
				"stake(uint256)": "infinite",
				"stakingAmounts(uint256)": "2594",
				"stakingBonus(address)": "2646",
				"stakingUntilDate(address)": "2582",
				"swapAndLiquifyEnabled()": "2401",
				"swapTokensAtAmount()": "2472",
				"symbol()": "infinite",
				"totalSupply()": "2394",
				"tradingEnabled()": "2440",
				"transfer(address,uint256)": "infinite",
				"transferAdmin(address)": "infinite",
				"transferFrom(address,address,uint256)": "infinite",
				"transferOwnership(address)": "30483",
				"uniswapV2Pair()": "2504",
				"uniswapV2Router()": "2417",
				"updateFees(uint256,uint256,uint256,uint256,uint256,uint256,uint256,uint256,uint256,uint256,uint256)": "infinite",
				"updateGasForProcessing(uint256)": "28330",
				"updatePayoutToken(address)": "infinite",
				"updateStakingAmounts(uint256,uint256)": "28193",
				"withdrawableDividendOf(address)": "infinite"
			},
			"internal": {
				"_setAutomatedMarketMakerPair(address,bool)": "infinite",
				"_transfer(address,address,uint256)": "infinite",
				"addLiquidity(uint256,uint256)": "infinite",
				"getStakingBalance(address)": "infinite",
				"swapAndLiquify(uint256)": "infinite",
				"swapAndSendDividends(uint256)": "infinite",
				"swapTokensForEth(uint256)": "infinite"
			}
		},
		"methodIdentifiers": {
			"DEAD()": "03fd2a45",
			"airdropToWallets(address[],uint256[])": "2307b441",
			"allowance(address,address)": "dd62ed3e",
			"approve(address,uint256)": "095ea7b3",
			"automatedMarketMakerPairs(address)": "b62496f5",
			"balanceOf(address)": "70a08231",
			"blacklist(address)": "f9f92be4",
			"buyAmount()": "1fa70531",
			"buyBurnLPFee()": "93d62bce",
			"buyCompanyFee()": "84d4a9e3",
			"buyDonationsFee()": "68e9b874",
			"buyLeadersFee()": "675b9366",
			"buyMarketingFee()": "7bce5a04",
			"claim()": "4e71d92d",
			"companyWallet()": "1ec32d15",
			"cooldowntimer()": "1d7b1fb4",
			"decimals()": "313ce567",
			"decreaseAllowance(address,uint256)": "a457c2d7",
			"dividendTokenBalanceOf(address)": "6843cd84",
			"dividendTracker()": "2c1f5216",
			"donationsWallet()": "f287eada",
			"enableStaking(bool)": "9cefc1da",
			"enableSwapAndLiquify(bool)": "d5e37251",
			"enableTrading()": "8a8c523c",
			"forceSwapAndSendDividends(uint256)": "05ca5f08",
			"gasForProcessing()": "9c1b8af5",
			"getAccountDividendsInfo(address)": "ad56c13c",
			"getAccountDividendsInfoAtIndex(uint256)": "f27fd254",
			"getLastProcessedIndex()": "e7841ec0",
			"getNumberOfDividendTokenHolders()": "64b0f653",
			"getPayoutToken()": "25cd3598",
			"getStakingInfo(address)": "aa4704f3",
			"getTotalDividendsDistributed()": "30bb4cff",
			"increaseAllowance(address,uint256)": "39509351",
			"isBlacklisted(address)": "fe575a87",
			"isExcludedFromAutoClaim(address)": "6d48467b",
			"isExcludedFromFees(address)": "4fbee193",
			"isExcludedFromMaxTx(address)": "658c27a9",
			"isReinvest(address)": "ba079d49",
			"launchblock()": "b4942988",
			"leadersWallet()": "e6dc4ebe",
			"limitsInEffect()": "4a62bb65",
			"marketingWallet()": "75f0a874",
			"maxTx()": "7437681e",
			"maxWallet()": "f8b45b05",
			"multiSend(address[],uint256[])": "bb4c9f0b",
			"name()": "06fdde03",
			"owner()": "8da5cb5b",
			"processDividendTracker(uint256)": "700bb191",
			"renounceOwnership()": "715018a6",
			"router()": "f887ea40",
			"sellAmount()": "3f407b84",
			"sellBurnFee()": "adb873bd",
			"sellBurnLPFee()": "df349c95",
			"sellCompanyFee()": "7b0897ac",
			"sellDonationsFee()": "f15d4e5d",
			"sellLeadersFee()": "84adc5b3",
			"sellMarketingFee()": "92136913",
			"setAllowAutoReinvest(bool)": "40ffdd80",
			"setAllowCustomTokens(bool)": "9c3372ea",
			"setAutoClaim(bool)": "868730c7",
			"setAutomatedMarketMakerPair(address,bool)": "9a7a23d6",
			"setCanTransferBefore(address,bool)": "7fdde05c",
			"setDividendsPaused(bool)": "3599bb17",
			"setExcludeDividends(address)": "72d8edf4",
			"setExcludeFees(address,bool)": "08dfe8a5",
			"setExcludeMaxTx(address,bool)": "dcf26b0f",
			"setGasPriceLimit(uint256)": "09231602",
			"setIncludeDividends(address)": "9ec1037e",
			"setLimitsInEffect(bool)": "679ca6e9",
			"setMinimumTokenBalanceForAutoDividends(uint256)": "5a84c5eb",
			"setMinimumTokenBalanceForDividends(uint256)": "5ebf4db9",
			"setPresaleWallet(address)": "d07a091c",
			"setReinvest(bool)": "f5d3c79a",
			"setSwapTriggerAmount(uint256)": "5eee4bae",
			"setcooldowntimer(uint256)": "b74e3b11",
			"setmaxWallet(uint256)": "fc6b151c",
			"stake(uint256)": "a694fc3a",
			"stakingAmounts(uint256)": "435c89e4",
			"stakingBonus(address)": "f1c0ddff",
			"stakingUntilDate(address)": "7d32f342",
			"swapAndLiquifyEnabled()": "4a74bb02",
			"swapTokensAtAmount()": "e2f45605",
			"symbol()": "95d89b41",
			"totalSupply()": "18160ddd",
			"tradingEnabled()": "4ada218b",
			"transfer(address,uint256)": "a9059cbb",
			"transferAdmin(address)": "75829def",
			"transferFrom(address,address,uint256)": "23b872dd",
			"transferOwnership(address)": "f2fde38b",
			"uniswapV2Pair()": "49bd5a5e",
			"uniswapV2Router()": "1694505e",
			"updateFees(uint256,uint256,uint256,uint256,uint256,uint256,uint256,uint256,uint256,uint256,uint256)": "b6db29b6",
			"updateGasForProcessing(uint256)": "871c128d",
			"updatePayoutToken(address)": "d8032ed3",
			"updateStakingAmounts(uint256,uint256)": "0ef35b7e",
			"withdrawableDividendOf(address)": "a8b9d240"
		}
	},
	"abi": [
		{
			"inputs": [],
			"stateMutability": "nonpayable",
			"type": "constructor"
		},
		{
			"anonymous": false,
			"inputs": [
				{
					"indexed": false,
					"internalType": "address",
					"name": "holder",
					"type": "address"
				},
				{
					"indexed": false,
					"internalType": "uint256",
					"name": "amount",
					"type": "uint256"
				}
			],
			"name": "Airdrop",
			"type": "event"
		},
		{
			"anonymous": false,
			"inputs": [
				{
					"indexed": true,
					"internalType": "address",
					"name": "owner",
					"type": "address"
				},
				{
					"indexed": true,
					"internalType": "address",
					"name": "spender",
					"type": "address"
				},
				{
					"indexed": false,
					"internalType": "uint256",
					"name": "value",
					"type": "uint256"
				}
			],
			"name": "Approval",
			"type": "event"
		},
		{
			"anonymous": false,
			"inputs": [
				{
					"indexed": true,
					"internalType": "address",
					"name": "account",
					"type": "address"
				},
				{
					"indexed": false,
					"internalType": "uint256",
					"name": "duration",
					"type": "uint256"
				}
			],
			"name": "EnableAccountStaking",
			"type": "event"
		},
		{
			"anonymous": false,
			"inputs": [
				{
					"indexed": false,
					"internalType": "bool",
					"name": "enabled",
					"type": "bool"
				}
			],
			"name": "EnableStaking",
			"type": "event"
		},
		{
			"anonymous": false,
			"inputs": [
				{
					"indexed": false,
					"internalType": "bool",
					"name": "enabled",
					"type": "bool"
				}
			],
			"name": "EnableSwapAndLiquify",
			"type": "event"
		},
		{
			"anonymous": false,
			"inputs": [
				{
					"indexed": true,
					"internalType": "address",
					"name": "account",
					"type": "address"
				},
				{
					"indexed": false,
					"internalType": "bool",
					"name": "isExcluded",
					"type": "bool"
				}
			],
			"name": "ExcludeFromFees",
			"type": "event"
		},
		{
			"anonymous": false,
			"inputs": [
				{
					"indexed": true,
					"internalType": "address",
					"name": "account",
					"type": "address"
				},
				{
					"indexed": false,
					"internalType": "bool",
					"name": "isExcluded",
					"type": "bool"
				}
			],
			"name": "ExcludeFromMaxTx",
			"type": "event"
		},
		{
			"anonymous": false,
			"inputs": [
				{
					"indexed": true,
					"internalType": "uint256",
					"name": "newValue",
					"type": "uint256"
				},
				{
					"indexed": true,
					"internalType": "uint256",
					"name": "oldValue",
					"type": "uint256"
				}
			],
			"name": "GasForProcessingUpdated",
			"type": "event"
		},
		{
			"anonymous": false,
			"inputs": [
				{
					"indexed": true,
					"internalType": "address",
					"name": "previousOwner",
					"type": "address"
				},
				{
					"indexed": true,
					"internalType": "address",
					"name": "newOwner",
					"type": "address"
				}
			],
			"name": "OwnershipTransferred",
			"type": "event"
		},
		{
			"anonymous": false,
			"inputs": [
				{
					"indexed": false,
					"internalType": "uint256",
					"name": "iterations",
					"type": "uint256"
				},
				{
					"indexed": false,
					"internalType": "uint256",
					"name": "claims",
					"type": "uint256"
				},
				{
					"indexed": false,
					"internalType": "uint256",
					"name": "lastProcessedIndex",
					"type": "uint256"
				},
				{
					"indexed": true,
					"internalType": "bool",
					"name": "automatic",
					"type": "bool"
				},
				{
					"indexed": false,
					"internalType": "uint256",
					"name": "gas",
					"type": "uint256"
				},
				{
					"indexed": true,
					"internalType": "address",
					"name": "processor",
					"type": "address"
				}
			],
			"name": "ProcessedDividendTracker",
			"type": "event"
		},
		{
			"anonymous": false,
			"inputs": [
				{
					"indexed": false,
					"internalType": "uint256",
					"name": "amount",
					"type": "uint256"
				},
				{
					"indexed": false,
					"internalType": "uint256",
					"name": "opAmount",
					"type": "uint256"
				}
			],
			"name": "SendDividends",
			"type": "event"
		},
		{
			"anonymous": false,
			"inputs": [
				{
					"indexed": true,
					"internalType": "address",
					"name": "pair",
					"type": "address"
				},
				{
					"indexed": true,
					"internalType": "bool",
					"name": "value",
					"type": "bool"
				}
			],
			"name": "SetAutomatedMarketMakerPair",
			"type": "event"
		},
		{
			"anonymous": false,
			"inputs": [
				{
					"indexed": false,
					"internalType": "address",
					"name": "wallet",
					"type": "address"
				}
			],
			"name": "SetPreSaleWallet",
			"type": "event"
		},
		{
			"anonymous": false,
			"inputs": [
				{
					"indexed": false,
					"internalType": "uint256",
					"name": "tokensSwapped",
					"type": "uint256"
				},
				{
					"indexed": false,
					"internalType": "uint256",
					"name": "ethReceived",
					"type": "uint256"
				},
				{
					"indexed": false,
					"internalType": "uint256",
					"name": "tokensIntoLiqudity",
					"type": "uint256"
				}
			],
			"name": "SwapAndLiquify",
			"type": "event"
		},
		{
			"anonymous": false,
			"inputs": [],
			"name": "TradingEnabled",
			"type": "event"
		},
		{
			"anonymous": false,
			"inputs": [
				{
					"indexed": true,
					"internalType": "address",
					"name": "from",
					"type": "address"
				},
				{
					"indexed": true,
					"internalType": "address",
					"name": "to",
					"type": "address"
				},
				{
					"indexed": false,
					"internalType": "uint256",
					"name": "value",
					"type": "uint256"
				}
			],
			"name": "Transfer",
			"type": "event"
		},
		{
			"anonymous": false,
			"inputs": [
				{
					"indexed": true,
					"internalType": "address",
					"name": "newAddress",
					"type": "address"
				},
				{
					"indexed": true,
					"internalType": "address",
					"name": "oldAddress",
					"type": "address"
				}
			],
			"name": "UpdateDividendTracker",
			"type": "event"
		},
		{
			"anonymous": false,
			"inputs": [
				{
					"indexed": false,
					"internalType": "uint256",
					"name": "sellCompanyFee",
					"type": "uint256"
				},
				{
					"indexed": false,
					"internalType": "uint256",
					"name": "sellDonationsFees",
					"type": "uint256"
				},
				{
					"indexed": false,
					"internalType": "uint256",
					"name": "sellMarketingFees",
					"type": "uint256"
				},
				{
					"indexed": false,
					"internalType": "uint256",
					"name": "sellLeadersFee",
					"type": "uint256"
				},
				{
					"indexed": false,
					"internalType": "uint256",
					"name": "sellBurnLPFee",
					"type": "uint256"
				},
				{
					"indexed": false,
					"internalType": "uint256",
					"name": "sellBurnFee",
					"type": "uint256"
				},
				{
					"indexed": false,
					"internalType": "uint256",
					"name": "buyDonationsFees",
					"type": "uint256"
				},
				{
					"indexed": false,
					"internalType": "uint256",
					"name": "buyMarketingFees",
					"type": "uint256"
				},
				{
					"indexed": false,
					"internalType": "uint256",
					"name": "buyLeadersFee",
					"type": "uint256"
				},
				{
					"indexed": false,
					"internalType": "uint256",
					"name": "buyCompanyFee",
					"type": "uint256"
				},
				{
					"indexed": false,
					"internalType": "uint256",
					"name": "buyBurnLPFee",
					"type": "uint256"
				}
			],
			"name": "UpdateFees",
			"type": "event"
		},
		{
			"anonymous": false,
			"inputs": [
				{
					"indexed": false,
					"internalType": "address",
					"name": "token",
					"type": "address"
				}
			],
			"name": "UpdatePayoutToken",
			"type": "event"
		},
		{
			"anonymous": false,
			"inputs": [
				{
					"indexed": false,
					"internalType": "uint256",
					"name": "duration",
					"type": "uint256"
				},
				{
					"indexed": false,
					"internalType": "uint256",
					"name": "amount",
					"type": "uint256"
				}
			],
			"name": "UpdateStakingAmounts",
			"type": "event"
		},
		{
			"anonymous": false,
			"inputs": [
				{
					"indexed": true,
					"internalType": "address",
					"name": "newAddress",
					"type": "address"
				},
				{
					"indexed": true,
					"internalType": "address",
					"name": "oldAddress",
					"type": "address"
				}
			],
			"name": "UpdateUniswapV2Router",
			"type": "event"
		},
		{
			"inputs": [],
			"name": "DEAD",
			"outputs": [
				{
					"internalType": "address",
					"name": "",
					"type": "address"
				}
			],
			"stateMutability": "view",
			"type": "function"
		},
		{
			"inputs": [
				{
					"internalType": "address[]",
					"name": "airdropWallets",
					"type": "address[]"
				},
				{
					"internalType": "uint256[]",
					"name": "amount",
					"type": "uint256[]"
				}
			],
			"name": "airdropToWallets",
			"outputs": [],
			"stateMutability": "nonpayable",
			"type": "function"
		},
		{
			"inputs": [
				{
					"internalType": "address",
					"name": "owner",
					"type": "address"
				},
				{
					"internalType": "address",
					"name": "spender",
					"type": "address"
				}
			],
			"name": "allowance",
			"outputs": [
				{
					"internalType": "uint256",
					"name": "",
					"type": "uint256"
				}
			],
			"stateMutability": "view",
			"type": "function"
		},
		{
			"inputs": [
				{
					"internalType": "address",
					"name": "spender",
					"type": "address"
				},
				{
					"internalType": "uint256",
					"name": "amount",
					"type": "uint256"
				}
			],
			"name": "approve",
			"outputs": [
				{
					"internalType": "bool",
					"name": "",
					"type": "bool"
				}
			],
			"stateMutability": "nonpayable",
			"type": "function"
		},
		{
			"inputs": [
				{
					"internalType": "address",
					"name": "",
					"type": "address"
				}
			],
			"name": "automatedMarketMakerPairs",
			"outputs": [
				{
					"internalType": "bool",
					"name": "",
					"type": "bool"
				}
			],
			"stateMutability": "view",
			"type": "function"
		},
		{
			"inputs": [
				{
					"internalType": "address",
					"name": "account",
					"type": "address"
				}
			],
			"name": "balanceOf",
			"outputs": [
				{
					"internalType": "uint256",
					"name": "",
					"type": "uint256"
				}
			],
			"stateMutability": "view",
			"type": "function"
		},
		{
			"inputs": [
				{
					"internalType": "address",
					"name": "account",
					"type": "address"
				}
			],
			"name": "blacklist",
			"outputs": [],
			"stateMutability": "nonpayable",
			"type": "function"
		},
		{
			"inputs": [],
			"name": "buyAmount",
			"outputs": [
				{
					"internalType": "uint256",
					"name": "",
					"type": "uint256"
				}
			],
			"stateMutability": "view",
			"type": "function"
		},
		{
			"inputs": [],
			"name": "buyBurnLPFee",
			"outputs": [
				{
					"internalType": "uint256",
					"name": "",
					"type": "uint256"
				}
			],
			"stateMutability": "view",
			"type": "function"
		},
		{
			"inputs": [],
			"name": "buyCompanyFee",
			"outputs": [
				{
					"internalType": "uint256",
					"name": "",
					"type": "uint256"
				}
			],
			"stateMutability": "view",
			"type": "function"
		},
		{
			"inputs": [],
			"name": "buyDonationsFee",
			"outputs": [
				{
					"internalType": "uint256",
					"name": "",
					"type": "uint256"
				}
			],
			"stateMutability": "view",
			"type": "function"
		},
		{
			"inputs": [],
			"name": "buyLeadersFee",
			"outputs": [
				{
					"internalType": "uint256",
					"name": "",
					"type": "uint256"
				}
			],
			"stateMutability": "view",
			"type": "function"
		},
		{
			"inputs": [],
			"name": "buyMarketingFee",
			"outputs": [
				{
					"internalType": "uint256",
					"name": "",
					"type": "uint256"
				}
			],
			"stateMutability": "view",
			"type": "function"
		},
		{
			"inputs": [],
			"name": "claim",
			"outputs": [],
			"stateMutability": "nonpayable",
			"type": "function"
		},
		{
			"inputs": [],
			"name": "companyWallet",
			"outputs": [
				{
					"internalType": "address payable",
					"name": "",
					"type": "address"
				}
			],
			"stateMutability": "view",
			"type": "function"
		},
		{
			"inputs": [],
			"name": "cooldowntimer",
			"outputs": [
				{
					"internalType": "uint256",
					"name": "",
					"type": "uint256"
				}
			],
			"stateMutability": "view",
			"type": "function"
		},
		{
			"inputs": [],
			"name": "decimals",
			"outputs": [
				{
					"internalType": "uint8",
					"name": "",
					"type": "uint8"
				}
			],
			"stateMutability": "view",
			"type": "function"
		},
		{
			"inputs": [
				{
					"internalType": "address",
					"name": "spender",
					"type": "address"
				},
				{
					"internalType": "uint256",
					"name": "subtractedValue",
					"type": "uint256"
				}
			],
			"name": "decreaseAllowance",
			"outputs": [
				{
					"internalType": "bool",
					"name": "",
					"type": "bool"
				}
			],
			"stateMutability": "nonpayable",
			"type": "function"
		},
		{
			"inputs": [
				{
					"internalType": "address",
					"name": "account",
					"type": "address"
				}
			],
			"name": "dividendTokenBalanceOf",
			"outputs": [
				{
					"internalType": "uint256",
					"name": "",
					"type": "uint256"
				}
			],
			"stateMutability": "view",
			"type": "function"
		},
		{
			"inputs": [],
			"name": "dividendTracker",
			"outputs": [
				{
					"internalType": "contract ChainDDividendTracker",
					"name": "",
					"type": "address"
				}
			],
			"stateMutability": "view",
			"type": "function"
		},
		{
			"inputs": [],
			"name": "donationsWallet",
			"outputs": [
				{
					"internalType": "address payable",
					"name": "",
					"type": "address"
				}
			],
			"stateMutability": "view",
			"type": "function"
		},
		{
			"inputs": [
				{
					"internalType": "bool",
					"name": "enable",
					"type": "bool"
				}
			],
			"name": "enableStaking",
			"outputs": [],
			"stateMutability": "nonpayable",
			"type": "function"
		},
		{
			"inputs": [
				{
					"internalType": "bool",
					"name": "enabled",
					"type": "bool"
				}
			],
			"name": "enableSwapAndLiquify",
			"outputs": [],
			"stateMutability": "nonpayable",
			"type": "function"
		},
		{
			"inputs": [],
			"name": "enableTrading",
			"outputs": [],
			"stateMutability": "nonpayable",
			"type": "function"
		},
		{
			"inputs": [
				{
					"internalType": "uint256",
					"name": "tokens",
					"type": "uint256"
				}
			],
			"name": "forceSwapAndSendDividends",
			"outputs": [],
			"stateMutability": "nonpayable",
			"type": "function"
		},
		{
			"inputs": [],
			"name": "gasForProcessing",
			"outputs": [
				{
					"internalType": "uint256",
					"name": "",
					"type": "uint256"
				}
			],
			"stateMutability": "view",
			"type": "function"
		},
		{
			"inputs": [
				{
					"internalType": "address",
					"name": "account",
					"type": "address"
				}
			],
			"name": "getAccountDividendsInfo",
			"outputs": [
				{
					"internalType": "address",
					"name": "",
					"type": "address"
				},
				{
					"internalType": "int256",
					"name": "",
					"type": "int256"
				},
				{
					"internalType": "int256",
					"name": "",
					"type": "int256"
				},
				{
					"internalType": "uint256",
					"name": "",
					"type": "uint256"
				},
				{
					"internalType": "uint256",
					"name": "",
					"type": "uint256"
				},
				{
					"internalType": "uint256",
					"name": "",
					"type": "uint256"
				}
			],
			"stateMutability": "view",
			"type": "function"
		},
		{
			"inputs": [
				{
					"internalType": "uint256",
					"name": "index",
					"type": "uint256"
				}
			],
			"name": "getAccountDividendsInfoAtIndex",
			"outputs": [
				{
					"internalType": "address",
					"name": "",
					"type": "address"
				},
				{
					"internalType": "int256",
					"name": "",
					"type": "int256"
				},
				{
					"internalType": "int256",
					"name": "",
					"type": "int256"
				},
				{
					"internalType": "uint256",
					"name": "",
					"type": "uint256"
				},
				{
					"internalType": "uint256",
					"name": "",
					"type": "uint256"
				},
				{
					"internalType": "uint256",
					"name": "",
					"type": "uint256"
				}
			],
			"stateMutability": "view",
			"type": "function"
		},
		{
			"inputs": [],
			"name": "getLastProcessedIndex",
			"outputs": [
				{
					"internalType": "uint256",
					"name": "",
					"type": "uint256"
				}
			],
			"stateMutability": "view",
			"type": "function"
		},
		{
			"inputs": [],
			"name": "getNumberOfDividendTokenHolders",
			"outputs": [
				{
					"internalType": "uint256",
					"name": "",
					"type": "uint256"
				}
			],
			"stateMutability": "view",
			"type": "function"
		},
		{
			"inputs": [],
			"name": "getPayoutToken",
			"outputs": [
				{
					"internalType": "address",
					"name": "",
					"type": "address"
				}
			],
			"stateMutability": "view",
			"type": "function"
		},
		{
			"inputs": [
				{
					"internalType": "address",
					"name": "account",
					"type": "address"
				}
			],
			"name": "getStakingInfo",
			"outputs": [
				{
					"internalType": "uint256",
					"name": "",
					"type": "uint256"
				},
				{
					"internalType": "uint256",
					"name": "",
					"type": "uint256"
				}
			],
			"stateMutability": "view",
			"type": "function"
		},
		{
			"inputs": [],
			"name": "getTotalDividendsDistributed",
			"outputs": [
				{
					"internalType": "uint256",
					"name": "",
					"type": "uint256"
				}
			],
			"stateMutability": "view",
			"type": "function"
		},
		{
			"inputs": [
				{
					"internalType": "address",
					"name": "spender",
					"type": "address"
				},
				{
					"internalType": "uint256",
					"name": "addedValue",
					"type": "uint256"
				}
			],
			"name": "increaseAllowance",
			"outputs": [
				{
					"internalType": "bool",
					"name": "",
					"type": "bool"
				}
			],
			"stateMutability": "nonpayable",
			"type": "function"
		},
		{
			"inputs": [
				{
					"internalType": "address",
					"name": "",
					"type": "address"
				}
			],
			"name": "isBlacklisted",
			"outputs": [
				{
					"internalType": "bool",
					"name": "",
					"type": "bool"
				}
			],
			"stateMutability": "view",
			"type": "function"
		},
		{
			"inputs": [
				{
					"internalType": "address",
					"name": "account",
					"type": "address"
				}
			],
			"name": "isExcludedFromAutoClaim",
			"outputs": [
				{
					"internalType": "bool",
					"name": "",
					"type": "bool"
				}
			],
			"stateMutability": "view",
			"type": "function"
		},
		{
			"inputs": [
				{
					"internalType": "address",
					"name": "account",
					"type": "address"
				}
			],
			"name": "isExcludedFromFees",
			"outputs": [
				{
					"internalType": "bool",
					"name": "",
					"type": "bool"
				}
			],
			"stateMutability": "view",
			"type": "function"
		},
		{
			"inputs": [
				{
					"internalType": "address",
					"name": "account",
					"type": "address"
				}
			],
			"name": "isExcludedFromMaxTx",
			"outputs": [
				{
					"internalType": "bool",
					"name": "",
					"type": "bool"
				}
			],
			"stateMutability": "view",
			"type": "function"
		},
		{
			"inputs": [
				{
					"internalType": "address",
					"name": "account",
					"type": "address"
				}
			],
			"name": "isReinvest",
			"outputs": [
				{
					"internalType": "bool",
					"name": "",
					"type": "bool"
				}
			],
			"stateMutability": "view",
			"type": "function"
		},
		{
			"inputs": [],
			"name": "launchblock",
			"outputs": [
				{
					"internalType": "uint256",
					"name": "",
					"type": "uint256"
				}
			],
			"stateMutability": "view",
			"type": "function"
		},
		{
			"inputs": [],
			"name": "leadersWallet",
			"outputs": [
				{
					"internalType": "address payable",
					"name": "",
					"type": "address"
				}
			],
			"stateMutability": "view",
			"type": "function"
		},
		{
			"inputs": [],
			"name": "limitsInEffect",
			"outputs": [
				{
					"internalType": "bool",
					"name": "",
					"type": "bool"
				}
			],
			"stateMutability": "view",
			"type": "function"
		},
		{
			"inputs": [],
			"name": "marketingWallet",
			"outputs": [
				{
					"internalType": "address payable",
					"name": "",
					"type": "address"
				}
			],
			"stateMutability": "view",
			"type": "function"
		},
		{
			"inputs": [],
			"name": "maxTx",
			"outputs": [
				{
					"internalType": "uint256",
					"name": "",
					"type": "uint256"
				}
			],
			"stateMutability": "view",
			"type": "function"
		},
		{
			"inputs": [],
			"name": "maxWallet",
			"outputs": [
				{
					"internalType": "uint256",
					"name": "",
					"type": "uint256"
				}
			],
			"stateMutability": "view",
			"type": "function"
		},
		{
			"inputs": [
				{
					"internalType": "address[]",
					"name": "_contributors",
					"type": "address[]"
				},
				{
					"internalType": "uint256[]",
					"name": "_balances",
					"type": "uint256[]"
				}
			],
			"name": "multiSend",
			"outputs": [],
			"stateMutability": "nonpayable",
			"type": "function"
		},
		{
			"inputs": [],
			"name": "name",
			"outputs": [
				{
					"internalType": "string",
					"name": "",
					"type": "string"
				}
			],
			"stateMutability": "view",
			"type": "function"
		},
		{
			"inputs": [],
			"name": "owner",
			"outputs": [
				{
					"internalType": "address",
					"name": "",
					"type": "address"
				}
			],
			"stateMutability": "view",
			"type": "function"
		},
		{
			"inputs": [
				{
					"internalType": "uint256",
					"name": "gas",
					"type": "uint256"
				}
			],
			"name": "processDividendTracker",
			"outputs": [],
			"stateMutability": "nonpayable",
			"type": "function"
		},
		{
			"inputs": [],
			"name": "renounceOwnership",
			"outputs": [],
			"stateMutability": "nonpayable",
			"type": "function"
		},
		{
			"inputs": [],
			"name": "router",
			"outputs": [
				{
					"internalType": "address",
					"name": "",
					"type": "address"
				}
			],
			"stateMutability": "view",
			"type": "function"
		},
		{
			"inputs": [],
			"name": "sellAmount",
			"outputs": [
				{
					"internalType": "uint256",
					"name": "",
					"type": "uint256"
				}
			],
			"stateMutability": "view",
			"type": "function"
		},
		{
			"inputs": [],
			"name": "sellBurnFee",
			"outputs": [
				{
					"internalType": "uint256",
					"name": "",
					"type": "uint256"
				}
			],
			"stateMutability": "view",
			"type": "function"
		},
		{
			"inputs": [],
			"name": "sellBurnLPFee",
			"outputs": [
				{
					"internalType": "uint256",
					"name": "",
					"type": "uint256"
				}
			],
			"stateMutability": "view",
			"type": "function"
		},
		{
			"inputs": [],
			"name": "sellCompanyFee",
			"outputs": [
				{
					"internalType": "uint256",
					"name": "",
					"type": "uint256"
				}
			],
			"stateMutability": "view",
			"type": "function"
		},
		{
			"inputs": [],
			"name": "sellDonationsFee",
			"outputs": [
				{
					"internalType": "uint256",
					"name": "",
					"type": "uint256"
				}
			],
			"stateMutability": "view",
			"type": "function"
		},
		{
			"inputs": [],
			"name": "sellLeadersFee",
			"outputs": [
				{
					"internalType": "uint256",
					"name": "",
					"type": "uint256"
				}
			],
			"stateMutability": "view",
			"type": "function"
		},
		{
			"inputs": [],
			"name": "sellMarketingFee",
			"outputs": [
				{
					"internalType": "uint256",
					"name": "",
					"type": "uint256"
				}
			],
			"stateMutability": "view",
			"type": "function"
		},
		{
			"inputs": [
				{
					"internalType": "bool",
					"name": "allow",
					"type": "bool"
				}
			],
			"name": "setAllowAutoReinvest",
			"outputs": [],
			"stateMutability": "nonpayable",
			"type": "function"
		},
		{
			"inputs": [
				{
					"internalType": "bool",
					"name": "allow",
					"type": "bool"
				}
			],
			"name": "setAllowCustomTokens",
			"outputs": [],
			"stateMutability": "nonpayable",
			"type": "function"
		},
		{
			"inputs": [
				{
					"internalType": "bool",
					"name": "value",
					"type": "bool"
				}
			],
			"name": "setAutoClaim",
			"outputs": [],
			"stateMutability": "nonpayable",
			"type": "function"
		},
		{
			"inputs": [
				{
					"internalType": "address",
					"name": "pair",
					"type": "address"
				},
				{
					"internalType": "bool",
					"name": "value",
					"type": "bool"
				}
			],
			"name": "setAutomatedMarketMakerPair",
			"outputs": [],
			"stateMutability": "nonpayable",
			"type": "function"
		},
		{
			"inputs": [
				{
					"internalType": "address",
					"name": "wallet",
					"type": "address"
				},
				{
					"internalType": "bool",
					"name": "enable",
					"type": "bool"
				}
			],
			"name": "setCanTransferBefore",
			"outputs": [],
			"stateMutability": "nonpayable",
			"type": "function"
		},
		{
			"inputs": [
				{
					"internalType": "bool",
					"name": "value",
					"type": "bool"
				}
			],
			"name": "setDividendsPaused",
			"outputs": [],
			"stateMutability": "nonpayable",
			"type": "function"
		},
		{
			"inputs": [
				{
					"internalType": "address",
					"name": "account",
					"type": "address"
				}
			],
			"name": "setExcludeDividends",
			"outputs": [],
			"stateMutability": "nonpayable",
			"type": "function"
		},
		{
			"inputs": [
				{
					"internalType": "address",
					"name": "account",
					"type": "address"
				},
				{
					"internalType": "bool",
					"name": "excluded",
					"type": "bool"
				}
			],
			"name": "setExcludeFees",
			"outputs": [],
			"stateMutability": "nonpayable",
			"type": "function"
		},
		{
			"inputs": [
				{
					"internalType": "address",
					"name": "account",
					"type": "address"
				},
				{
					"internalType": "bool",
					"name": "excluded",
					"type": "bool"
				}
			],
			"name": "setExcludeMaxTx",
			"outputs": [],
			"stateMutability": "nonpayable",
			"type": "function"
		},
		{
			"inputs": [
				{
					"internalType": "uint256",
					"name": "GWEI",
					"type": "uint256"
				}
			],
			"name": "setGasPriceLimit",
			"outputs": [],
			"stateMutability": "nonpayable",
			"type": "function"
		},
		{
			"inputs": [
				{
					"internalType": "address",
					"name": "account",
					"type": "address"
				}
			],
			"name": "setIncludeDividends",
			"outputs": [],
			"stateMutability": "nonpayable",
			"type": "function"
		},
		{
			"inputs": [
				{
					"internalType": "bool",
					"name": "value",
					"type": "bool"
				}
			],
			"name": "setLimitsInEffect",
			"outputs": [],
			"stateMutability": "nonpayable",
			"type": "function"
		},
		{
			"inputs": [
				{
					"internalType": "uint256",
					"name": "value",
					"type": "uint256"
				}
			],
			"name": "setMinimumTokenBalanceForAutoDividends",
			"outputs": [],
			"stateMutability": "nonpayable",
			"type": "function"
		},
		{
			"inputs": [
				{
					"internalType": "uint256",
					"name": "value",
					"type": "uint256"
				}
			],
			"name": "setMinimumTokenBalanceForDividends",
			"outputs": [],
			"stateMutability": "nonpayable",
			"type": "function"
		},
		{
			"inputs": [
				{
					"internalType": "address",
					"name": "wallet",
					"type": "address"
				}
			],
			"name": "setPresaleWallet",
			"outputs": [],
			"stateMutability": "nonpayable",
			"type": "function"
		},
		{
			"inputs": [
				{
					"internalType": "bool",
					"name": "value",
					"type": "bool"
				}
			],
			"name": "setReinvest",
			"outputs": [],
			"stateMutability": "nonpayable",
			"type": "function"
		},
		{
			"inputs": [
				{
					"internalType": "uint256",
					"name": "amount",
					"type": "uint256"
				}
			],
			"name": "setSwapTriggerAmount",
			"outputs": [],
			"stateMutability": "nonpayable",
			"type": "function"
		},
		{
			"inputs": [
				{
					"internalType": "uint256",
					"name": "value",
					"type": "uint256"
				}
			],
			"name": "setcooldowntimer",
			"outputs": [],
			"stateMutability": "nonpayable",
			"type": "function"
		},
		{
			"inputs": [
				{
					"internalType": "uint256",
					"name": "value",
					"type": "uint256"
				}
			],
			"name": "setmaxWallet",
			"outputs": [],
			"stateMutability": "nonpayable",
			"type": "function"
		},
		{
			"inputs": [
				{
					"internalType": "uint256",
					"name": "duration",
					"type": "uint256"
				}
			],
			"name": "stake",
			"outputs": [],
			"stateMutability": "nonpayable",
			"type": "function"
		},
		{
			"inputs": [
				{
					"internalType": "uint256",
					"name": "",
					"type": "uint256"
				}
			],
			"name": "stakingAmounts",
			"outputs": [
				{
					"internalType": "uint256",
					"name": "",
					"type": "uint256"
				}
			],
			"stateMutability": "view",
			"type": "function"
		},
		{
			"inputs": [
				{
					"internalType": "address",
					"name": "",
					"type": "address"
				}
			],
			"name": "stakingBonus",
			"outputs": [
				{
					"internalType": "uint256",
					"name": "",
					"type": "uint256"
				}
			],
			"stateMutability": "view",
			"type": "function"
		},
		{
			"inputs": [
				{
					"internalType": "address",
					"name": "",
					"type": "address"
				}
			],
			"name": "stakingUntilDate",
			"outputs": [
				{
					"internalType": "uint256",
					"name": "",
					"type": "uint256"
				}
			],
			"stateMutability": "view",
			"type": "function"
		},
		{
			"inputs": [],
			"name": "swapAndLiquifyEnabled",
			"outputs": [
				{
					"internalType": "bool",
					"name": "",
					"type": "bool"
				}
			],
			"stateMutability": "view",
			"type": "function"
		},
		{
			"inputs": [],
			"name": "swapTokensAtAmount",
			"outputs": [
				{
					"internalType": "uint256",
					"name": "",
					"type": "uint256"
				}
			],
			"stateMutability": "view",
			"type": "function"
		},
		{
			"inputs": [],
			"name": "symbol",
			"outputs": [
				{
					"internalType": "string",
					"name": "",
					"type": "string"
				}
			],
			"stateMutability": "view",
			"type": "function"
		},
		{
			"inputs": [],
			"name": "totalSupply",
			"outputs": [
				{
					"internalType": "uint256",
					"name": "",
					"type": "uint256"
				}
			],
			"stateMutability": "view",
			"type": "function"
		},
		{
			"inputs": [],
			"name": "tradingEnabled",
			"outputs": [
				{
					"internalType": "bool",
					"name": "",
					"type": "bool"
				}
			],
			"stateMutability": "view",
			"type": "function"
		},
		{
			"inputs": [
				{
					"internalType": "address",
					"name": "recipient",
					"type": "address"
				},
				{
					"internalType": "uint256",
					"name": "amount",
					"type": "uint256"
				}
			],
			"name": "transfer",
			"outputs": [
				{
					"internalType": "bool",
					"name": "",
					"type": "bool"
				}
			],
			"stateMutability": "nonpayable",
			"type": "function"
		},
		{
			"inputs": [
				{
					"internalType": "address",
					"name": "newOwner",
					"type": "address"
				}
			],
			"name": "transferAdmin",
			"outputs": [],
			"stateMutability": "nonpayable",
			"type": "function"
		},
		{
			"inputs": [
				{
					"internalType": "address",
					"name": "sender",
					"type": "address"
				},
				{
					"internalType": "address",
					"name": "recipient",
					"type": "address"
				},
				{
					"internalType": "uint256",
					"name": "amount",
					"type": "uint256"
				}
			],
			"name": "transferFrom",
			"outputs": [
				{
					"internalType": "bool",
					"name": "",
					"type": "bool"
				}
			],
			"stateMutability": "nonpayable",
			"type": "function"
		},
		{
			"inputs": [
				{
					"internalType": "address",
					"name": "newOwner",
					"type": "address"
				}
			],
			"name": "transferOwnership",
			"outputs": [],
			"stateMutability": "nonpayable",
			"type": "function"
		},
		{
			"inputs": [],
			"name": "uniswapV2Pair",
			"outputs": [
				{
					"internalType": "address",
					"name": "",
					"type": "address"
				}
			],
			"stateMutability": "view",
			"type": "function"
		},
		{
			"inputs": [],
			"name": "uniswapV2Router",
			"outputs": [
				{
					"internalType": "contract IUniswapV2Router02",
					"name": "",
					"type": "address"
				}
			],
			"stateMutability": "view",
			"type": "function"
		},
		{
			"inputs": [
				{
					"internalType": "uint256",
					"name": "_sellCompanyFee",
					"type": "uint256"
				},
				{
					"internalType": "uint256",
					"name": "_sellDonationsFees",
					"type": "uint256"
				},
				{
					"internalType": "uint256",
					"name": "_sellMarketingFees",
					"type": "uint256"
				},
				{
					"internalType": "uint256",
					"name": "_sellLeadersFee",
					"type": "uint256"
				},
				{
					"internalType": "uint256",
					"name": "_sellBurnLPFee",
					"type": "uint256"
				},
				{
					"internalType": "uint256",
					"name": "_sellBurnFee",
					"type": "uint256"
				},
				{
					"internalType": "uint256",
					"name": "_buyDonationsFees",
					"type": "uint256"
				},
				{
					"internalType": "uint256",
					"name": "_buyMarketingFees",
					"type": "uint256"
				},
				{
					"internalType": "uint256",
					"name": "_buyLeadersFee",
					"type": "uint256"
				},
				{
					"internalType": "uint256",
					"name": "_buyCompanyFee",
					"type": "uint256"
				},
				{
					"internalType": "uint256",
					"name": "_buyBurnLPFee",
					"type": "uint256"
				}
			],
			"name": "updateFees",
			"outputs": [],
			"stateMutability": "nonpayable",
			"type": "function"
		},
		{
			"inputs": [
				{
					"internalType": "uint256",
					"name": "newValue",
					"type": "uint256"
				}
			],
			"name": "updateGasForProcessing",
			"outputs": [],
			"stateMutability": "nonpayable",
			"type": "function"
		},
		{
			"inputs": [
				{
					"internalType": "address",
					"name": "token",
					"type": "address"
				}
			],
			"name": "updatePayoutToken",
			"outputs": [],
			"stateMutability": "nonpayable",
			"type": "function"
		},
		{
			"inputs": [
				{
					"internalType": "uint256",
					"name": "duration",
					"type": "uint256"
				},
				{
					"internalType": "uint256",
					"name": "bonus",
					"type": "uint256"
				}
			],
			"name": "updateStakingAmounts",
			"outputs": [],
			"stateMutability": "nonpayable",
			"type": "function"
		},
		{
			"inputs": [
				{
					"internalType": "address",
					"name": "account",
					"type": "address"
				}
			],
			"name": "withdrawableDividendOf",
			"outputs": [
				{
					"internalType": "uint256",
					"name": "",
					"type": "uint256"
				}
			],
			"stateMutability": "view",
			"type": "function"
		},
		{
			"stateMutability": "payable",
			"type": "receive"
		}
	]
}