{
	"data": {
		"bytecode": {
			"linkReferences": {},
			"object": "60806040526012805460ff60b01b191690553480156200001e57600080fd5b50604051620030e4380380620030e4833981016040819052620000419162000241565b8181818160036200005383826200037b565b5060046200006282826200037b565b50505050506000620000796200015760201b60201c565b600980546001600160a01b0319166001600160a01b038316908117909155604051919250906000907f8be0079c531659141344cd1fd0a4f28419497f9722a3daafe3b4186f6b6457e0908290a3506013620000d583826200037b565b506014620000e482826200037b565b505060128054601680546001600160a01b03199081166001600160a01b039889161790915568056bc75e2d6310000060188190556019556015805490911695871695909517909455600160a01b929094166001600160a81b0319909316929092171760ff60a81b19169091555062000447565b3390565b6001600160a01b03811681146200017157600080fd5b50565b634e487b7160e01b600052604160045260246000fd5b600082601f8301126200019c57600080fd5b81516001600160401b0380821115620001b957620001b962000174565b604051601f8301601f19908116603f01168101908282118183101715620001e457620001e462000174565b816040528381526020925086838588010111156200020157600080fd5b600091505b8382101562000225578582018301518183018401529082019062000206565b83821115620002375760008385830101525b9695505050505050565b600080600080600060a086880312156200025a57600080fd5b855162000267816200015b565b60208701519095506200027a816200015b565b60408701519094506200028d816200015b565b60608701519093506001600160401b0380821115620002ab57600080fd5b620002b989838a016200018a565b93506080880151915080821115620002d057600080fd5b50620002df888289016200018a565b9150509295509295909350565b600181811c908216806200030157607f821691505b6020821081036200032257634e487b7160e01b600052602260045260246000fd5b50919050565b601f8211156200037657600081815260208120601f850160051c81016020861015620003515750805b601f850160051c820191505b8181101562000372578281556001016200035d565b5050505b505050565b81516001600160401b0381111562000397576200039762000174565b620003af81620003a88454620002ec565b8462000328565b602080601f831160018114620003e75760008415620003ce5750858301515b600019600386901b1c1916600185901b17855562000372565b600085815260208120601f198616915b828110156200041857888601518255948401946001909101908401620003f7565b5085821015620004375787850151600019600388901b60f8161c191681555b5050505050600190811b01905550565b612c8d80620004576000396000f3fe60806040526004361061031e5760003560e01c80636d48467b116101ab578063a8b9d240116100f7578063dd62ed3e11610095578063f2fde38b1161006f578063f2fde38b146109e2578063f474e63614610a02578063fbcbc0f114610a22578063ffb2c47914610a4257600080fd5b8063dd62ed3e14610967578063e30443bc146109ad578063e7841ec0146109cd57600080fd5b8063b22f8a04116100d1578063b22f8a04146108e7578063ba079d4914610907578063bc4c4b3714610927578063d8032ed31461094757600080fd5b8063a8b9d24014610871578063a9059cbb14610891578063aafd847a146108b157600080fd5b80638da5cb5b116101645780639c3372ea1161013e5780639c3372ea146107ef5780639eec101e1461080f578063a423406914610830578063a457c2d71461085157600080fd5b80638da5cb5b1461079c57806391b89fba146107ba57806395d89b41146107da57600080fd5b80636d48467b146106db57806370a08231146106fb578063715018a61461073157806374c13fda1461074657806385a6b3ae146107665780638bc1d6391461077c57600080fd5b8063313ce5671161026a5780634e7b827f116102235780635ebf4db9116101fd5780635ebf4db91461065657806365b8dbc0146106765780636a474002146106965780636b69163b146106ab57600080fd5b80634e7b827f146105af5780635183d6fd146105df5780635a84c5eb1461063657600080fd5b8063313ce567146104f257806331e79db01461050e5780633599bb171461052e578063395093511461054e57806340ffdd801461056e578063418089041461058e57600080fd5b806318160ddd116102d757806323b872dd116102b157806323b872dd1461047e57806325cd35981461049e57806327ce0147146104bc5780633009a609146104dc57600080fd5b806318160ddd1461040c5780631d4ff89a14610421578063226cfa3d1461045157600080fd5b806303c833021461033257806306fdde031461033a5780630928847114610365578063095ea7b31461038557806309bbedde146103b55780631694505e146103d457600080fd5b3661032d5761032b610a7d565b005b600080fd5b61032b610a7d565b34801561034657600080fd5b5061034f610b10565b60405161035c91906127c0565b60405180910390f35b34801561037157600080fd5b5061032b61038036600461282d565b610ba2565b34801561039157600080fd5b506103a56103a036600461284a565b610bf6565b604051901515815260200161035c565b3480156103c157600080fd5b50600a545b60405190815260200161035c565b3480156103e057600080fd5b506015546103f4906001600160a01b031681565b6040516001600160a01b03909116815260200161035c565b34801561041857600080fd5b506002546103c6565b34801561042d57600080fd5b506103a561043c36600461282d565b60116020526000908152604090205460ff1681565b34801561045d57600080fd5b506103c661046c36600461282d565b60176020526000908152604090205481565b34801561048a57600080fd5b506103a5610499366004612876565b610c0d565b3480156104aa57600080fd5b506012546001600160a01b03166103f4565b3480156104c857600080fd5b506103c66104d736600461282d565b610c76565b3480156104e857600080fd5b506103c6600e5481565b3480156104fe57600080fd5b506040516012815260200161035c565b34801561051a57600080fd5b5061032b61052936600461282d565b610cd2565b34801561053a57600080fd5b5061032b6105493660046128c5565b610d6c565b34801561055a57600080fd5b506103a561056936600461284a565b610e0d565b34801561057a57600080fd5b5061032b6105893660046128c5565b610e43565b34801561059a57600080fd5b506012546103a590600160a81b900460ff1681565b3480156105bb57600080fd5b506103a56105ca36600461282d565b600f6020526000908152604090205460ff1681565b3480156105eb57600080fd5b506105ff6105fa3660046128e2565b610ed9565b604080516001600160a01b0390971687526020870195909552938501929092526060840152608083015260a082015260c00161035c565b34801561064257600080fd5b5061032b6106513660046128e2565b610f39565b34801561066257600080fd5b5061032b6106713660046128e2565b610f7b565b34801561068257600080fd5b5061032b61069136600461282d565b610fbd565b3480156106a257600080fd5b5061032b611009565b3480156106b757600080fd5b506103a56106c636600461282d565b60106020526000908152604090205460ff1681565b3480156106e757600080fd5b506103a56106f636600461282d565b6110ad565b34801561070757600080fd5b506103c661071636600461282d565b6001600160a01b031660009081526020819052604090205490565b34801561073d57600080fd5b5061032b6110f9565b34801561075257600080fd5b506012546103f4906001600160a01b031681565b34801561077257600080fd5b506103c660085481565b34801561078857600080fd5b5061032b6107973660046128fb565b61116d565b3480156107a857600080fd5b506009546001600160a01b03166103f4565b3480156107c657600080fd5b506103c66107d536600461282d565b6111c2565b3480156107e657600080fd5b5061034f6111cd565b3480156107fb57600080fd5b5061032b61080a3660046128c5565b6111dc565b34801561081b57600080fd5b506012546103a590600160a01b900460ff1681565b34801561083c57600080fd5b506012546103a590600160b01b900460ff1681565b34801561085d57600080fd5b506103a561086c36600461284a565b611272565b34801561087d57600080fd5b506103c661088c36600461282d565b6112c1565b34801561089d57600080fd5b506103a56108ac36600461284a565b6112ed565b3480156108bd57600080fd5b506103c66108cc36600461282d565b6001600160a01b031660009081526007602052604090205490565b3480156108f357600080fd5b5061032b6109023660046128fb565b6112fa565b34801561091357600080fd5b506103a561092236600461282d565b61134f565b34801561093357600080fd5b506103a56109423660046128fb565b61139b565b34801561095357600080fd5b5061032b61096236600461282d565b61151c565b34801561097357600080fd5b506103c6610982366004612934565b6001600160a01b03918216600090815260016020908152604080832093909416825291909152205490565b3480156109b957600080fd5b5061032b6109c836600461284a565b611568565b3480156109d957600080fd5b50600e546103c6565b3480156109ee57600080fd5b5061032b6109fd36600461282d565b611600565b348015610a0e57600080fd5b506016546103f4906001600160a01b031681565b348015610a2e57600080fd5b506105ff610a3d36600461282d565b6116eb565b348015610a4e57600080fd5b50610a62610a5d3660046128e2565b61179a565b6040805193845260208401929092529082015260600161035c565b6000610a8860025490565b11610a9257600080fd5b3415610b0e57610ac5610aa460025490565b610ab234600160801b6118c0565b610abc9190612978565b60055490611949565b60055560405134815233907fa493a9229478c3fcd73f66d2cdeb7f94fd0f341da924d1054236d784541165119060200160405180910390a2600854610b0a9034611949565b6008555b565b606060138054610b1f9061299a565b80601f0160208091040260200160405190810160405280929190818152602001828054610b4b9061299a565b8015610b985780601f10610b6d57610100808354040283529160200191610b98565b820191906000526020600020905b815481529060010190602001808311610b7b57829003601f168201915b5050505050905090565b6009546001600160a01b03163314610bd55760405162461bcd60e51b8152600401610bcc906129d4565b60405180910390fd5b6001600160a01b03166000908152600f60205260409020805460ff19169055565b6000610c033384846119a8565b5060015b92915050565b6000610c1a848484611acc565b610c6c8433610c6785604051806060016040528060288152602001612c0b602891396001600160a01b038a1660009081526001602090815260408083203384529091529020549190611b2e565b6119a8565b5060019392505050565b6001600160a01b03811660009081526006602090815260408083205491839052822054600554600160801b92610cc892610cc392610cbd91610cb891906118c0565b611b68565b90611b78565b611bb6565b610c079190612978565b6009546001600160a01b03163314610cfc5760405162461bcd60e51b8152600401610bcc906129d4565b6001600160a01b0381166000908152600f60205260408120805460ff19166001179055610d2a908290611bc9565b610d35600a82611c28565b6040516001600160a01b038216907fa878b31040b2e6d0a9a3d3361209db3908ba62014b0dca52adbaee451d128b2590600090a250565b6009546001600160a01b03163314610d965760405162461bcd60e51b8152600401610bcc906129d4565b801515601260169054906101000a900460ff16151503610db557600080fd5b60128054821515600160b01b0260ff60b01b199091161790556040517f3da2593f2c4724acfbd754045321e852cad26f3974834b1890045530f89c21b390610e0290831515815260200190565b60405180910390a150565b3360008181526001602090815260408083206001600160a01b03871684529091528120549091610c03918590610c679086611949565b6009546001600160a01b03163314610e6d5760405162461bcd60e51b8152600401610bcc906129d4565b801515601260159054906101000a900460ff16151503610e8c57600080fd5b60128054821515600160a81b0260ff60a81b199091161790556040517fc138a28750b971696f46ea59731c471ef1e08e4015404afdb139fd2e87dca1bb90610e0290831515815260200190565b600080600080600080610eeb600a5490565b8710610f0a575060009450600019935083925084915081905080610f30565b6000610f17600a89611d63565b9050610f22816116eb565b965096509650965096509650505b91939550919395565b6009546001600160a01b03163314610f635760405162461bcd60e51b8152600401610bcc906129d4565b610f7581670de0b6b3a7640000612a09565b60185550565b6009546001600160a01b03163314610fa55760405162461bcd60e51b8152600401610bcc906129d4565b610fb781670de0b6b3a7640000612a09565b60195550565b6009546001600160a01b03163314610fe75760405162461bcd60e51b8152600401610bcc906129d4565b601580546001600160a01b0319166001600160a01b0392909216919091179055565b60405162461bcd60e51b815260206004820152606760248201527f47425553445f4469766964656e645f547261636b65723a20776974686472617760448201527f4469766964656e642064697361626c65642e20557365207468652027636c616960648201527f6d272066756e6374696f6e206f6e20746865206d61696e20474255534420636f608482015266373a3930b1ba1760c91b60a482015260c401610bcc565b6009546000906001600160a01b031633146110da5760405162461bcd60e51b8152600401610bcc906129d4565b506001600160a01b031660009081526010602052604090205460ff1690565b6009546001600160a01b031633146111235760405162461bcd60e51b8152600401610bcc906129d4565b6009546040516000916001600160a01b0316907f8be0079c531659141344cd1fd0a4f28419497f9722a3daafe3b4186f6b6457e0908390a3600980546001600160a01b0319169055565b6009546001600160a01b031633146111975760405162461bcd60e51b8152600401610bcc906129d4565b6001600160a01b03919091166000908152601060205260409020805460ff1916911515919091179055565b6000610c07826112c1565b606060148054610b1f9061299a565b6009546001600160a01b031633146112065760405162461bcd60e51b8152600401610bcc906129d4565b801515601260149054906101000a900460ff1615150361122557600080fd5b60128054821515600160a01b0260ff60a01b199091161790556040517f8d34c313963017194ed726d050e868657d0e2d2c6748d13e358cd4b89d4ee7c890610e0290831515815260200190565b6000610c033384610c6785604051806060016040528060258152602001612c33602591393360009081526001602090815260408083206001600160a01b038d1684529091529020549190611b2e565b6001600160a01b038116600090815260076020526040812054610c07906112e784610c76565b90611d96565b6000610c03338484611acc565b6009546001600160a01b031633146113245760405162461bcd60e51b8152600401610bcc906129d4565b6001600160a01b03919091166000908152601160205260409020805460ff1916911515919091179055565b6009546000906001600160a01b0316331461137c5760405162461bcd60e51b8152600401610bcc906129d4565b506001600160a01b031660009081526011602052604090205460ff1690565b6009546000906001600160a01b031633146113c85760405162461bcd60e51b8152600401610bcc906129d4565b601254600160b01b900460ff16156113e257506000610c07565b6001600160a01b03831660009081526011602052604090205460ff168280156114085750805b801561141e5750601254600160a81b900460ff16155b1561142d576000915050610c07565b6000816114425761143d85611dd8565b61144b565b61144b85612091565b90508015611511576001600160a01b038516600090815260176020526040902042905581156114bf57831515856001600160a01b03167ffbd928dd3806a2bdf802f3a28a2cc55205f95dbcd2c3ed313abfca278366f80c836040516114b291815260200190565b60405180910390a3611506565b831515856001600160a01b03167fa2c38e2d2fb7e3e1912d937fd1ca11ed6d51864dee4cfa7a7bf02becd7acf092836040516114fd91815260200190565b60405180910390a35b600192505050610c07565b506000949350505050565b6009546001600160a01b031633146115465760405162461bcd60e51b8152600401610bcc906129d4565b601280546001600160a01b0319166001600160a01b0392909216919091179055565b6009546001600160a01b031633146115925760405162461bcd60e51b8152600401610bcc906129d4565b6001600160a01b0382166000908152600f602052604090205460ff166115d2576019548110156115d6576115c7600a83611c28565b6115d2826000611bc9565b5050565b6115e08282611bc9565b60185481106115f5576115d2600a8383612404565b6115d2600a83611c28565b6009546001600160a01b0316331461162a5760405162461bcd60e51b8152600401610bcc906129d4565b6001600160a01b03811661168f5760405162461bcd60e51b815260206004820152602660248201527f4f776e61626c653a206e6577206f776e657220697320746865207a65726f206160448201526564647265737360d01b6064820152608401610bcc565b6009546040516001600160a01b038084169216907f8be0079c531659141344cd1fd0a4f28419497f9722a3daafe3b4186f6b6457e090600090a3600980546001600160a01b0319166001600160a01b0392909216919091179055565b806000808080806116fd600a876124ad565b945060001993506000851261175f57600e5485111561172b57600e546117249086906124f8565b935061175f565b600e54600a546000911061174057600061174f565b600e54600a5461174f91611d96565b905061175b8682611b78565b9450505b611768866112c1565b925061177386610c76565b6001600160a01b038716600090815260176020526040902054969895975093959294915050565b600a54600090819081908015806117ba5750601254600160b01b900460ff165b156117d0575050600e54600092508291506118b9565b600e546000805a90506000805b89841080156117eb57508582105b156118a857846117fa81612a28565b95505085851061180957600094505b6000600a600001868154811061182157611821612a41565b60009182526020808320909101546001600160a01b0316808352601090915260409091205490915060ff1661186e5761185b81600161139b565b1561186e578161186a81612a28565b9250505b8261187881612a28565b93505060005a90508085111561189f5761189c6118958683611d96565b8790611949565b95505b93506117dd9050565b600e85905590975095509193505050505b9193909250565b6000826000036118d257506000610c07565b60006118de8385612a09565b9050826118eb8583612978565b146119425760405162461bcd60e51b815260206004820152602160248201527f536166654d6174683a206d756c7469706c69636174696f6e206f766572666c6f6044820152607760f81b6064820152608401610bcc565b9392505050565b6000806119568385612a57565b9050838110156119425760405162461bcd60e51b815260206004820152601b60248201527f536166654d6174683a206164646974696f6e206f766572666c6f7700000000006044820152606401610bcc565b6001600160a01b038316611a0a5760405162461bcd60e51b8152602060048201526024808201527f45524332303a20617070726f76652066726f6d20746865207a65726f206164646044820152637265737360e01b6064820152608401610bcc565b6001600160a01b038216611a6b5760405162461bcd60e51b815260206004820152602260248201527f45524332303a20617070726f766520746f20746865207a65726f206164647265604482015261737360f01b6064820152608401610bcc565b6001600160a01b0383811660008181526001602090815260408083209487168084529482529182902085905590518481527f8c5be1e5ebec7d5bd14f71427d1e84f3dd0314c0f7b2291e5b200ac8c7c3b925910160405180910390a3505050565b60405162461bcd60e51b815260206004820152602c60248201527f47425553445f4469766964656e645f547261636b65723a204e6f207472616e7360448201526b19995c9cc8185b1b1bddd95960a21b6064820152608401610bcc565b505050565b60008184841115611b525760405162461bcd60e51b8152600401610bcc91906127c0565b506000611b5f8486612a6f565b95945050505050565b60008181811215610c0757600080fd5b600080611b858385612a86565b905060008312158015611b985750838112155b80611bad5750600083128015611bad57508381125b61194257600080fd5b600080821215611bc557600080fd5b5090565b6001600160a01b03821660009081526020819052604090205480821115611c08576000611bf68383611d96565b9050611c028482612535565b50505050565b80821015611b29576000611c1c8284611d96565b9050611c028482612599565b6001600160a01b038116600090815260038301602052604090205460ff16611c4e575050565b6001600160a01b03811660009081526003830160209081526040808320805460ff1916905560018086018352818420849055600286019092528220548454909291611c9891612a6f565b90506000846000018281548110611cb157611cb1612a41565b60009182526020808320909101546001600160a01b03908116808452600289019092526040808420879055908716835282209190915585549091508190869085908110611d0057611d00612a41565b600091825260209091200180546001600160a01b0319166001600160a01b03929092169190911790558454859080611d3a57611d3a612ac7565b600082815260209020810160001990810180546001600160a01b03191690550190555050505050565b6000826000018281548110611d7a57611d7a612a41565b6000918252602090912001546001600160a01b03169392505050565b600061194283836040518060400160405280601e81526020017f536166654d6174683a207375627472616374696f6e206f766572666c6f770000815250611b2e565b600080611de4836112c1565b90508015612088576001600160a01b038316600090815260076020526040902054611e0f9082611949565b6001600160a01b03808516600090815260076020526040812092909255601254169081611e94576040516001600160a01b03861690610bb89085906000818181858888f193505050503d8060008114611e84576040519150601f19603f3d011682016040523d82523d6000602084013e611e89565b606091505b505080915050611fee565b6040805160028082526060820183526000926020830190803683375050601554604080516315ab88c960e31b815290519394506001600160a01b039091169263ad5c4648925060048083019260209291908290030181865afa158015611efe573d6000803e3d6000fd5b505050506040513d601f19601f82011682018060405250810190611f229190612add565b81600081518110611f3557611f35612a41565b60200260200101906001600160a01b031690816001600160a01b0316815250508281600181518110611f6957611f69612a41565b6001600160a01b03928316602091820292909201015260155460405163b6f9de9560e01b815291169063b6f9de95908690611faf9060009086908c904290600401612b3e565b6000604051808303818588803b158015611fc857600080fd5b505af193505050508015611fda575060015b611fe75760009150611fec565b600191505b505b8061203c576001600160a01b0385166000908152600760205260409020546120169084611d96565b6001600160a01b0390951660009081526007602052604081209590955550929392505050565b846001600160a01b03167fee503bee2bb6a87e57bc57db795f98137327401a0e7b7ce42e37926cc1a9ca4d8460405161207791815260200190565b60405180910390a250909392505050565b50600092915050565b60008061209d836112c1565b90508015612088576001600160a01b0383166000908152600760205260408120546120c89083611949565b6001600160a01b03851660009081526007602052604080822092909255815160028082526060820190935290918160200160208202803683375050601554604080516315ab88c960e31b815290519394506001600160a01b039091169263ad5c4648925060048083019260209291908290030181865afa158015612150573d6000803e3d6000fd5b505050506040513d601f19601f820116820180604052508101906121749190612add565b8160008151811061218757612187612a41565b6001600160a01b0392831660209182029290920101526016548251911690829060019081106121b8576121b8612a41565b6001600160a01b0392831660209182029290920101526016546040516370a0823160e01b815230600482015260009291909116906370a0823190602401602060405180830381865afa158015612212573d6000803e3d6000fd5b505050506040513d601f19601f820116820180604052508101906122369190612b73565b60155460405163b6f9de9560e01b81529192506001600160a01b03169063b6f9de9590869061227090600090879030904290600401612b3e565b6000604051808303818588803b15801561228957600080fd5b505af19350505050801561229b575060015b6122a857600092506123ab565b6016546040516370a0823160e01b815230600482015260009161231b9184916001600160a01b0316906370a0823190602401602060405180830381865afa1580156122f7573d6000803e3d6000fd5b505050506040513d601f19601f820116820180604052508101906112e79190612b73565b905080156123a45760165460405163a9059cbb60e01b81526001600160a01b03898116600483015260248201849052600196509091169063a9059cbb906044016020604051808303816000875af115801561237a573d6000803e3d6000fd5b505050506040513d601f19601f8201168201806040525081019061239e9190612b8c565b506123a9565b600093505b505b826123fa576001600160a01b0386166000908152600760205260409020546123d39085611d96565b6001600160a01b039096166000908152600760205260408120969096555093949350505050565b5091949350505050565b6001600160a01b038216600090815260038401602052604090205460ff1615612449576001600160a01b03821660009081526001840160205260409020819055505050565b6001600160a01b03821660008181526003850160209081526040808320805460ff19166001908117909155878101835281842086905587546002890184529184208290558101875586835291200180546001600160a01b0319169091179055505050565b6001600160a01b038116600090815260038301602052604081205460ff166124d85750600019610c07565b506001600160a01b03166000908152600291909101602052604090205490565b6000806125058385612ba9565b9050600083121580156125185750838113155b80611bad5750600083128015611bad575083811361194257600080fd5b61253f82826125dd565b61257961255a610cb8836005546118c090919063ffffffff16565b6001600160a01b038416600090815260066020526040902054906124f8565b6001600160a01b0390921660009081526006602052604090209190915550565b6125a382826126bc565b6125796125be610cb8836005546118c090919063ffffffff16565b6001600160a01b03841660009081526006602052604090205490611b78565b6001600160a01b0382166126335760405162461bcd60e51b815260206004820152601f60248201527f45524332303a206d696e7420746f20746865207a65726f2061646472657373006044820152606401610bcc565b6002546126409082611949565b6002556001600160a01b0382166000908152602081905260409020546126669082611949565b6001600160a01b038316600081815260208181526040808320949094559251848152919290917fddf252ad1be2c89b69c2b068fc378daa952ba7f163c4a11628f55a4df523b3ef91015b60405180910390a35050565b6001600160a01b03821661271c5760405162461bcd60e51b815260206004820152602160248201527f45524332303a206275726e2066726f6d20746865207a65726f206164647265736044820152607360f81b6064820152608401610bcc565b61275981604051806060016040528060228152602001612be9602291396001600160a01b0385166000908152602081905260409020549190611b2e565b6001600160a01b03831660009081526020819052604090205560025461277f9082611d96565b6002556040518181526000906001600160a01b038416907fddf252ad1be2c89b69c2b068fc378daa952ba7f163c4a11628f55a4df523b3ef906020016126b0565b600060208083528351808285015260005b818110156127ed578581018301518582016040015282016127d1565b818111156127ff576000604083870101525b50601f01601f1916929092016040019392505050565b6001600160a01b038116811461282a57600080fd5b50565b60006020828403121561283f57600080fd5b813561194281612815565b6000806040838503121561285d57600080fd5b823561286881612815565b946020939093013593505050565b60008060006060848603121561288b57600080fd5b833561289681612815565b925060208401356128a681612815565b929592945050506040919091013590565b801515811461282a57600080fd5b6000602082840312156128d757600080fd5b8135611942816128b7565b6000602082840312156128f457600080fd5b5035919050565b6000806040838503121561290e57600080fd5b823561291981612815565b91506020830135612929816128b7565b809150509250929050565b6000806040838503121561294757600080fd5b823561295281612815565b9150602083013561292981612815565b634e487b7160e01b600052601160045260246000fd5b60008261299557634e487b7160e01b600052601260045260246000fd5b500490565b600181811c908216806129ae57607f821691505b6020821081036129ce57634e487b7160e01b600052602260045260246000fd5b50919050565b6020808252818101527f4f776e61626c653a2063616c6c6572206973206e6f7420746865206f776e6572604082015260600190565b6000816000190483118215151615612a2357612a23612962565b500290565b600060018201612a3a57612a3a612962565b5060010190565b634e487b7160e01b600052603260045260246000fd5b60008219821115612a6a57612a6a612962565b500190565b600082821015612a8157612a81612962565b500390565b600080821280156001600160ff1b0384900385131615612aa857612aa8612962565b600160ff1b8390038412811615612ac157612ac1612962565b50500190565b634e487b7160e01b600052603160045260246000fd5b600060208284031215612aef57600080fd5b815161194281612815565b600081518084526020808501945080840160005b83811015612b335781516001600160a01b031687529582019590820190600101612b0e565b509495945050505050565b848152608060208201526000612b576080830186612afa565b6001600160a01b03949094166040830152506060015292915050565b600060208284031215612b8557600080fd5b5051919050565b600060208284031215612b9e57600080fd5b8151611942816128b7565b60008083128015600160ff1b850184121615612bc757612bc7612962565b6001600160ff1b0384018313811615612be257612be2612962565b5050039056fe45524332303a206275726e20616d6f756e7420657863656564732062616c616e636545524332303a207472616e7366657220616d6f756e74206578636565647320616c6c6f77616e636545524332303a2064656372656173656420616c6c6f77616e63652062656c6f77207a65726fa264697066735822122091b29c7d43b4babc558702d56de8ddbc77ae2ff0478c164ec321eec42824d72964736f6c634300080f0033",
			"opcodes": "PUSH1 0x80 PUSH1 0x40 MSTORE PUSH1 0x12 DUP1 SLOAD PUSH1 0xFF PUSH1 0xB0 SHL NOT AND SWAP1 SSTORE CALLVALUE DUP1 ISZERO PUSH3 0x1E JUMPI PUSH1 0x0 DUP1 REVERT JUMPDEST POP PUSH1 0x40 MLOAD PUSH3 0x30E4 CODESIZE SUB DUP1 PUSH3 0x30E4 DUP4 CODECOPY DUP2 ADD PUSH1 0x40 DUP2 SWAP1 MSTORE PUSH3 0x41 SWAP2 PUSH3 0x241 JUMP JUMPDEST DUP2 DUP2 DUP2 DUP2 PUSH1 0x3 PUSH3 0x53 DUP4 DUP3 PUSH3 0x37B JUMP JUMPDEST POP PUSH1 0x4 PUSH3 0x62 DUP3 DUP3 PUSH3 0x37B JUMP JUMPDEST POP POP POP POP POP PUSH1 0x0 PUSH3 0x79 PUSH3 0x157 PUSH1 0x20 SHL PUSH1 0x20 SHR JUMP JUMPDEST PUSH1 0x9 DUP1 SLOAD PUSH1 0x1 PUSH1 0x1 PUSH1 0xA0 SHL SUB NOT AND PUSH1 0x1 PUSH1 0x1 PUSH1 0xA0 SHL SUB DUP4 AND SWAP1 DUP2 OR SWAP1 SWAP2 SSTORE PUSH1 0x40 MLOAD SWAP2 SWAP3 POP SWAP1 PUSH1 0x0 SWAP1 PUSH32 0x8BE0079C531659141344CD1FD0A4F28419497F9722A3DAAFE3B4186F6B6457E0 SWAP1 DUP3 SWAP1 LOG3 POP PUSH1 0x13 PUSH3 0xD5 DUP4 DUP3 PUSH3 0x37B JUMP JUMPDEST POP PUSH1 0x14 PUSH3 0xE4 DUP3 DUP3 PUSH3 0x37B JUMP JUMPDEST POP POP PUSH1 0x12 DUP1 SLOAD PUSH1 0x16 DUP1 SLOAD PUSH1 0x1 PUSH1 0x1 PUSH1 0xA0 SHL SUB NOT SWAP1 DUP2 AND PUSH1 0x1 PUSH1 0x1 PUSH1 0xA0 SHL SUB SWAP9 DUP10 AND OR SWAP1 SWAP2 SSTORE PUSH9 0x56BC75E2D63100000 PUSH1 0x18 DUP2 SWAP1 SSTORE PUSH1 0x19 SSTORE PUSH1 0x15 DUP1 SLOAD SWAP1 SWAP2 AND SWAP6 DUP8 AND SWAP6 SWAP1 SWAP6 OR SWAP1 SWAP5 SSTORE PUSH1 0x1 PUSH1 0xA0 SHL SWAP3 SWAP1 SWAP5 AND PUSH1 0x1 PUSH1 0x1 PUSH1 0xA8 SHL SUB NOT SWAP1 SWAP4 AND SWAP3 SWAP1 SWAP3 OR OR PUSH1 0xFF PUSH1 0xA8 SHL NOT AND SWAP1 SWAP2 SSTORE POP PUSH3 0x447 JUMP JUMPDEST CALLER SWAP1 JUMP JUMPDEST PUSH1 0x1 PUSH1 0x1 PUSH1 0xA0 SHL SUB DUP2 AND DUP2 EQ PUSH3 0x171 JUMPI PUSH1 0x0 DUP1 REVERT JUMPDEST POP JUMP JUMPDEST PUSH4 0x4E487B71 PUSH1 0xE0 SHL PUSH1 0x0 MSTORE PUSH1 0x41 PUSH1 0x4 MSTORE PUSH1 0x24 PUSH1 0x0 REVERT JUMPDEST PUSH1 0x0 DUP3 PUSH1 0x1F DUP4 ADD SLT PUSH3 0x19C JUMPI PUSH1 0x0 DUP1 REVERT JUMPDEST DUP2 MLOAD PUSH1 0x1 PUSH1 0x1 PUSH1 0x40 SHL SUB DUP1 DUP3 GT ISZERO PUSH3 0x1B9 JUMPI PUSH3 0x1B9 PUSH3 0x174 JUMP JUMPDEST PUSH1 0x40 MLOAD PUSH1 0x1F DUP4 ADD PUSH1 0x1F NOT SWAP1 DUP2 AND PUSH1 0x3F ADD AND DUP2 ADD SWAP1 DUP3 DUP3 GT DUP2 DUP4 LT OR ISZERO PUSH3 0x1E4 JUMPI PUSH3 0x1E4 PUSH3 0x174 JUMP JUMPDEST DUP2 PUSH1 0x40 MSTORE DUP4 DUP2 MSTORE PUSH1 0x20 SWAP3 POP DUP7 DUP4 DUP6 DUP9 ADD ADD GT ISZERO PUSH3 0x201 JUMPI PUSH1 0x0 DUP1 REVERT JUMPDEST PUSH1 0x0 SWAP2 POP JUMPDEST DUP4 DUP3 LT ISZERO PUSH3 0x225 JUMPI DUP6 DUP3 ADD DUP4 ADD MLOAD DUP2 DUP4 ADD DUP5 ADD MSTORE SWAP1 DUP3 ADD SWAP1 PUSH3 0x206 JUMP JUMPDEST DUP4 DUP3 GT ISZERO PUSH3 0x237 JUMPI PUSH1 0x0 DUP4 DUP6 DUP4 ADD ADD MSTORE JUMPDEST SWAP7 SWAP6 POP POP POP POP POP POP JUMP JUMPDEST PUSH1 0x0 DUP1 PUSH1 0x0 DUP1 PUSH1 0x0 PUSH1 0xA0 DUP7 DUP9 SUB SLT ISZERO PUSH3 0x25A JUMPI PUSH1 0x0 DUP1 REVERT JUMPDEST DUP6 MLOAD PUSH3 0x267 DUP2 PUSH3 0x15B JUMP JUMPDEST PUSH1 0x20 DUP8 ADD MLOAD SWAP1 SWAP6 POP PUSH3 0x27A DUP2 PUSH3 0x15B JUMP JUMPDEST PUSH1 0x40 DUP8 ADD MLOAD SWAP1 SWAP5 POP PUSH3 0x28D DUP2 PUSH3 0x15B JUMP JUMPDEST PUSH1 0x60 DUP8 ADD MLOAD SWAP1 SWAP4 POP PUSH1 0x1 PUSH1 0x1 PUSH1 0x40 SHL SUB DUP1 DUP3 GT ISZERO PUSH3 0x2AB JUMPI PUSH1 0x0 DUP1 REVERT JUMPDEST PUSH3 0x2B9 DUP10 DUP4 DUP11 ADD PUSH3 0x18A JUMP JUMPDEST SWAP4 POP PUSH1 0x80 DUP9 ADD MLOAD SWAP2 POP DUP1 DUP3 GT ISZERO PUSH3 0x2D0 JUMPI PUSH1 0x0 DUP1 REVERT JUMPDEST POP PUSH3 0x2DF DUP9 DUP3 DUP10 ADD PUSH3 0x18A JUMP JUMPDEST SWAP2 POP POP SWAP3 SWAP6 POP SWAP3 SWAP6 SWAP1 SWAP4 POP JUMP JUMPDEST PUSH1 0x1 DUP2 DUP2 SHR SWAP1 DUP3 AND DUP1 PUSH3 0x301 JUMPI PUSH1 0x7F DUP3 AND SWAP2 POP JUMPDEST PUSH1 0x20 DUP3 LT DUP2 SUB PUSH3 0x322 JUMPI PUSH4 0x4E487B71 PUSH1 0xE0 SHL PUSH1 0x0 MSTORE PUSH1 0x22 PUSH1 0x4 MSTORE PUSH1 0x24 PUSH1 0x0 REVERT JUMPDEST POP SWAP2 SWAP1 POP JUMP JUMPDEST PUSH1 0x1F DUP3 GT ISZERO PUSH3 0x376 JUMPI PUSH1 0x0 DUP2 DUP2 MSTORE PUSH1 0x20 DUP2 KECCAK256 PUSH1 0x1F DUP6 ADD PUSH1 0x5 SHR DUP2 ADD PUSH1 0x20 DUP7 LT ISZERO PUSH3 0x351 JUMPI POP DUP1 JUMPDEST PUSH1 0x1F DUP6 ADD PUSH1 0x5 SHR DUP3 ADD SWAP2 POP JUMPDEST DUP2 DUP2 LT ISZERO PUSH3 0x372 JUMPI DUP3 DUP2 SSTORE PUSH1 0x1 ADD PUSH3 0x35D JUMP JUMPDEST POP POP POP JUMPDEST POP POP POP JUMP JUMPDEST DUP2 MLOAD PUSH1 0x1 PUSH1 0x1 PUSH1 0x40 SHL SUB DUP2 GT ISZERO PUSH3 0x397 JUMPI PUSH3 0x397 PUSH3 0x174 JUMP JUMPDEST PUSH3 0x3AF DUP2 PUSH3 0x3A8 DUP5 SLOAD PUSH3 0x2EC JUMP JUMPDEST DUP5 PUSH3 0x328 JUMP JUMPDEST PUSH1 0x20 DUP1 PUSH1 0x1F DUP4 GT PUSH1 0x1 DUP2 EQ PUSH3 0x3E7 JUMPI PUSH1 0x0 DUP5 ISZERO PUSH3 0x3CE JUMPI POP DUP6 DUP4 ADD MLOAD JUMPDEST PUSH1 0x0 NOT PUSH1 0x3 DUP7 SWAP1 SHL SHR NOT AND PUSH1 0x1 DUP6 SWAP1 SHL OR DUP6 SSTORE PUSH3 0x372 JUMP JUMPDEST PUSH1 0x0 DUP6 DUP2 MSTORE PUSH1 0x20 DUP2 KECCAK256 PUSH1 0x1F NOT DUP7 AND SWAP2 JUMPDEST DUP3 DUP2 LT ISZERO PUSH3 0x418 JUMPI DUP9 DUP7 ADD MLOAD DUP3 SSTORE SWAP5 DUP5 ADD SWAP5 PUSH1 0x1 SWAP1 SWAP2 ADD SWAP1 DUP5 ADD PUSH3 0x3F7 JUMP JUMPDEST POP DUP6 DUP3 LT ISZERO PUSH3 0x437 JUMPI DUP8 DUP6 ADD MLOAD PUSH1 0x0 NOT PUSH1 0x3 DUP9 SWAP1 SHL PUSH1 0xF8 AND SHR NOT AND DUP2 SSTORE JUMPDEST POP POP POP POP POP PUSH1 0x1 SWAP1 DUP2 SHL ADD SWAP1 SSTORE POP JUMP JUMPDEST PUSH2 0x2C8D DUP1 PUSH3 0x457 PUSH1 0x0 CODECOPY PUSH1 0x0 RETURN INVALID PUSH1 0x80 PUSH1 0x40 MSTORE PUSH1 0x4 CALLDATASIZE LT PUSH2 0x31E JUMPI PUSH1 0x0 CALLDATALOAD PUSH1 0xE0 SHR DUP1 PUSH4 0x6D48467B GT PUSH2 0x1AB JUMPI DUP1 PUSH4 0xA8B9D240 GT PUSH2 0xF7 JUMPI DUP1 PUSH4 0xDD62ED3E GT PUSH2 0x95 JUMPI DUP1 PUSH4 0xF2FDE38B GT PUSH2 0x6F JUMPI DUP1 PUSH4 0xF2FDE38B EQ PUSH2 0x9E2 JUMPI DUP1 PUSH4 0xF474E636 EQ PUSH2 0xA02 JUMPI DUP1 PUSH4 0xFBCBC0F1 EQ PUSH2 0xA22 JUMPI DUP1 PUSH4 0xFFB2C479 EQ PUSH2 0xA42 JUMPI PUSH1 0x0 DUP1 REVERT JUMPDEST DUP1 PUSH4 0xDD62ED3E EQ PUSH2 0x967 JUMPI DUP1 PUSH4 0xE30443BC EQ PUSH2 0x9AD JUMPI DUP1 PUSH4 0xE7841EC0 EQ PUSH2 0x9CD JUMPI PUSH1 0x0 DUP1 REVERT JUMPDEST DUP1 PUSH4 0xB22F8A04 GT PUSH2 0xD1 JUMPI DUP1 PUSH4 0xB22F8A04 EQ PUSH2 0x8E7 JUMPI DUP1 PUSH4 0xBA079D49 EQ PUSH2 0x907 JUMPI DUP1 PUSH4 0xBC4C4B37 EQ PUSH2 0x927 JUMPI DUP1 PUSH4 0xD8032ED3 EQ PUSH2 0x947 JUMPI PUSH1 0x0 DUP1 REVERT JUMPDEST DUP1 PUSH4 0xA8B9D240 EQ PUSH2 0x871 JUMPI DUP1 PUSH4 0xA9059CBB EQ PUSH2 0x891 JUMPI DUP1 PUSH4 0xAAFD847A EQ PUSH2 0x8B1 JUMPI PUSH1 0x0 DUP1 REVERT JUMPDEST DUP1 PUSH4 0x8DA5CB5B GT PUSH2 0x164 JUMPI DUP1 PUSH4 0x9C3372EA GT PUSH2 0x13E JUMPI DUP1 PUSH4 0x9C3372EA EQ PUSH2 0x7EF JUMPI DUP1 PUSH4 0x9EEC101E EQ PUSH2 0x80F JUMPI DUP1 PUSH4 0xA4234069 EQ PUSH2 0x830 JUMPI DUP1 PUSH4 0xA457C2D7 EQ PUSH2 0x851 JUMPI PUSH1 0x0 DUP1 REVERT JUMPDEST DUP1 PUSH4 0x8DA5CB5B EQ PUSH2 0x79C JUMPI DUP1 PUSH4 0x91B89FBA EQ PUSH2 0x7BA JUMPI DUP1 PUSH4 0x95D89B41 EQ PUSH2 0x7DA JUMPI PUSH1 0x0 DUP1 REVERT JUMPDEST DUP1 PUSH4 0x6D48467B EQ PUSH2 0x6DB JUMPI DUP1 PUSH4 0x70A08231 EQ PUSH2 0x6FB JUMPI DUP1 PUSH4 0x715018A6 EQ PUSH2 0x731 JUMPI DUP1 PUSH4 0x74C13FDA EQ PUSH2 0x746 JUMPI DUP1 PUSH4 0x85A6B3AE EQ PUSH2 0x766 JUMPI DUP1 PUSH4 0x8BC1D639 EQ PUSH2 0x77C JUMPI PUSH1 0x0 DUP1 REVERT JUMPDEST DUP1 PUSH4 0x313CE567 GT PUSH2 0x26A JUMPI DUP1 PUSH4 0x4E7B827F GT PUSH2 0x223 JUMPI DUP1 PUSH4 0x5EBF4DB9 GT PUSH2 0x1FD JUMPI DUP1 PUSH4 0x5EBF4DB9 EQ PUSH2 0x656 JUMPI DUP1 PUSH4 0x65B8DBC0 EQ PUSH2 0x676 JUMPI DUP1 PUSH4 0x6A474002 EQ PUSH2 0x696 JUMPI DUP1 PUSH4 0x6B69163B EQ PUSH2 0x6AB JUMPI PUSH1 0x0 DUP1 REVERT JUMPDEST DUP1 PUSH4 0x4E7B827F EQ PUSH2 0x5AF JUMPI DUP1 PUSH4 0x5183D6FD EQ PUSH2 0x5DF JUMPI DUP1 PUSH4 0x5A84C5EB EQ PUSH2 0x636 JUMPI PUSH1 0x0 DUP1 REVERT JUMPDEST DUP1 PUSH4 0x313CE567 EQ PUSH2 0x4F2 JUMPI DUP1 PUSH4 0x31E79DB0 EQ PUSH2 0x50E JUMPI DUP1 PUSH4 0x3599BB17 EQ PUSH2 0x52E JUMPI DUP1 PUSH4 0x39509351 EQ PUSH2 0x54E JUMPI DUP1 PUSH4 0x40FFDD80 EQ PUSH2 0x56E JUMPI DUP1 PUSH4 0x41808904 EQ PUSH2 0x58E JUMPI PUSH1 0x0 DUP1 REVERT JUMPDEST DUP1 PUSH4 0x18160DDD GT PUSH2 0x2D7 JUMPI DUP1 PUSH4 0x23B872DD GT PUSH2 0x2B1 JUMPI DUP1 PUSH4 0x23B872DD EQ PUSH2 0x47E JUMPI DUP1 PUSH4 0x25CD3598 EQ PUSH2 0x49E JUMPI DUP1 PUSH4 0x27CE0147 EQ PUSH2 0x4BC JUMPI DUP1 PUSH4 0x3009A609 EQ PUSH2 0x4DC JUMPI PUSH1 0x0 DUP1 REVERT JUMPDEST DUP1 PUSH4 0x18160DDD EQ PUSH2 0x40C JUMPI DUP1 PUSH4 0x1D4FF89A EQ PUSH2 0x421 JUMPI DUP1 PUSH4 0x226CFA3D EQ PUSH2 0x451 JUMPI PUSH1 0x0 DUP1 REVERT JUMPDEST DUP1 PUSH4 0x3C83302 EQ PUSH2 0x332 JUMPI DUP1 PUSH4 0x6FDDE03 EQ PUSH2 0x33A JUMPI DUP1 PUSH4 0x9288471 EQ PUSH2 0x365 JUMPI DUP1 PUSH4 0x95EA7B3 EQ PUSH2 0x385 JUMPI DUP1 PUSH4 0x9BBEDDE EQ PUSH2 0x3B5 JUMPI DUP1 PUSH4 0x1694505E EQ PUSH2 0x3D4 JUMPI PUSH1 0x0 DUP1 REVERT JUMPDEST CALLDATASIZE PUSH2 0x32D JUMPI PUSH2 0x32B PUSH2 0xA7D JUMP JUMPDEST STOP JUMPDEST PUSH1 0x0 DUP1 REVERT JUMPDEST PUSH2 0x32B PUSH2 0xA7D JUMP JUMPDEST CALLVALUE DUP1 ISZERO PUSH2 0x346 JUMPI PUSH1 0x0 DUP1 REVERT JUMPDEST POP PUSH2 0x34F PUSH2 0xB10 JUMP JUMPDEST PUSH1 0x40 MLOAD PUSH2 0x35C SWAP2 SWAP1 PUSH2 0x27C0 JUMP JUMPDEST PUSH1 0x40 MLOAD DUP1 SWAP2 SUB SWAP1 RETURN JUMPDEST CALLVALUE DUP1 ISZERO PUSH2 0x371 JUMPI PUSH1 0x0 DUP1 REVERT JUMPDEST POP PUSH2 0x32B PUSH2 0x380 CALLDATASIZE PUSH1 0x4 PUSH2 0x282D JUMP JUMPDEST PUSH2 0xBA2 JUMP JUMPDEST CALLVALUE DUP1 ISZERO PUSH2 0x391 JUMPI PUSH1 0x0 DUP1 REVERT JUMPDEST POP PUSH2 0x3A5 PUSH2 0x3A0 CALLDATASIZE PUSH1 0x4 PUSH2 0x284A JUMP JUMPDEST PUSH2 0xBF6 JUMP JUMPDEST PUSH1 0x40 MLOAD SWAP1 ISZERO ISZERO DUP2 MSTORE PUSH1 0x20 ADD PUSH2 0x35C JUMP JUMPDEST CALLVALUE DUP1 ISZERO PUSH2 0x3C1 JUMPI PUSH1 0x0 DUP1 REVERT JUMPDEST POP PUSH1 0xA SLOAD JUMPDEST PUSH1 0x40 MLOAD SWAP1 DUP2 MSTORE PUSH1 0x20 ADD PUSH2 0x35C JUMP JUMPDEST CALLVALUE DUP1 ISZERO PUSH2 0x3E0 JUMPI PUSH1 0x0 DUP1 REVERT JUMPDEST POP PUSH1 0x15 SLOAD PUSH2 0x3F4 SWAP1 PUSH1 0x1 PUSH1 0x1 PUSH1 0xA0 SHL SUB AND DUP2 JUMP JUMPDEST PUSH1 0x40 MLOAD PUSH1 0x1 PUSH1 0x1 PUSH1 0xA0 SHL SUB SWAP1 SWAP2 AND DUP2 MSTORE PUSH1 0x20 ADD PUSH2 0x35C JUMP JUMPDEST CALLVALUE DUP1 ISZERO PUSH2 0x418 JUMPI PUSH1 0x0 DUP1 REVERT JUMPDEST POP PUSH1 0x2 SLOAD PUSH2 0x3C6 JUMP JUMPDEST CALLVALUE DUP1 ISZERO PUSH2 0x42D JUMPI PUSH1 0x0 DUP1 REVERT JUMPDEST POP PUSH2 0x3A5 PUSH2 0x43C CALLDATASIZE PUSH1 0x4 PUSH2 0x282D JUMP JUMPDEST PUSH1 0x11 PUSH1 0x20 MSTORE PUSH1 0x0 SWAP1 DUP2 MSTORE PUSH1 0x40 SWAP1 KECCAK256 SLOAD PUSH1 0xFF AND DUP2 JUMP JUMPDEST CALLVALUE DUP1 ISZERO PUSH2 0x45D JUMPI PUSH1 0x0 DUP1 REVERT JUMPDEST POP PUSH2 0x3C6 PUSH2 0x46C CALLDATASIZE PUSH1 0x4 PUSH2 0x282D JUMP JUMPDEST PUSH1 0x17 PUSH1 0x20 MSTORE PUSH1 0x0 SWAP1 DUP2 MSTORE PUSH1 0x40 SWAP1 KECCAK256 SLOAD DUP2 JUMP JUMPDEST CALLVALUE DUP1 ISZERO PUSH2 0x48A JUMPI PUSH1 0x0 DUP1 REVERT JUMPDEST POP PUSH2 0x3A5 PUSH2 0x499 CALLDATASIZE PUSH1 0x4 PUSH2 0x2876 JUMP JUMPDEST PUSH2 0xC0D JUMP JUMPDEST CALLVALUE DUP1 ISZERO PUSH2 0x4AA JUMPI PUSH1 0x0 DUP1 REVERT JUMPDEST POP PUSH1 0x12 SLOAD PUSH1 0x1 PUSH1 0x1 PUSH1 0xA0 SHL SUB AND PUSH2 0x3F4 JUMP JUMPDEST CALLVALUE DUP1 ISZERO PUSH2 0x4C8 JUMPI PUSH1 0x0 DUP1 REVERT JUMPDEST POP PUSH2 0x3C6 PUSH2 0x4D7 CALLDATASIZE PUSH1 0x4 PUSH2 0x282D JUMP JUMPDEST PUSH2 0xC76 JUMP JUMPDEST CALLVALUE DUP1 ISZERO PUSH2 0x4E8 JUMPI PUSH1 0x0 DUP1 REVERT JUMPDEST POP PUSH2 0x3C6 PUSH1 0xE SLOAD DUP2 JUMP JUMPDEST CALLVALUE DUP1 ISZERO PUSH2 0x4FE JUMPI PUSH1 0x0 DUP1 REVERT JUMPDEST POP PUSH1 0x40 MLOAD PUSH1 0x12 DUP2 MSTORE PUSH1 0x20 ADD PUSH2 0x35C JUMP JUMPDEST CALLVALUE DUP1 ISZERO PUSH2 0x51A JUMPI PUSH1 0x0 DUP1 REVERT JUMPDEST POP PUSH2 0x32B PUSH2 0x529 CALLDATASIZE PUSH1 0x4 PUSH2 0x282D JUMP JUMPDEST PUSH2 0xCD2 JUMP JUMPDEST CALLVALUE DUP1 ISZERO PUSH2 0x53A JUMPI PUSH1 0x0 DUP1 REVERT JUMPDEST POP PUSH2 0x32B PUSH2 0x549 CALLDATASIZE PUSH1 0x4 PUSH2 0x28C5 JUMP JUMPDEST PUSH2 0xD6C JUMP JUMPDEST CALLVALUE DUP1 ISZERO PUSH2 0x55A JUMPI PUSH1 0x0 DUP1 REVERT JUMPDEST POP PUSH2 0x3A5 PUSH2 0x569 CALLDATASIZE PUSH1 0x4 PUSH2 0x284A JUMP JUMPDEST PUSH2 0xE0D JUMP JUMPDEST CALLVALUE DUP1 ISZERO PUSH2 0x57A JUMPI PUSH1 0x0 DUP1 REVERT JUMPDEST POP PUSH2 0x32B PUSH2 0x589 CALLDATASIZE PUSH1 0x4 PUSH2 0x28C5 JUMP JUMPDEST PUSH2 0xE43 JUMP JUMPDEST CALLVALUE DUP1 ISZERO PUSH2 0x59A JUMPI PUSH1 0x0 DUP1 REVERT JUMPDEST POP PUSH1 0x12 SLOAD PUSH2 0x3A5 SWAP1 PUSH1 0x1 PUSH1 0xA8 SHL SWAP1 DIV PUSH1 0xFF AND DUP2 JUMP JUMPDEST CALLVALUE DUP1 ISZERO PUSH2 0x5BB JUMPI PUSH1 0x0 DUP1 REVERT JUMPDEST POP PUSH2 0x3A5 PUSH2 0x5CA CALLDATASIZE PUSH1 0x4 PUSH2 0x282D JUMP JUMPDEST PUSH1 0xF PUSH1 0x20 MSTORE PUSH1 0x0 SWAP1 DUP2 MSTORE PUSH1 0x40 SWAP1 KECCAK256 SLOAD PUSH1 0xFF AND DUP2 JUMP JUMPDEST CALLVALUE DUP1 ISZERO PUSH2 0x5EB JUMPI PUSH1 0x0 DUP1 REVERT JUMPDEST POP PUSH2 0x5FF PUSH2 0x5FA CALLDATASIZE PUSH1 0x4 PUSH2 0x28E2 JUMP JUMPDEST PUSH2 0xED9 JUMP JUMPDEST PUSH1 0x40 DUP1 MLOAD PUSH1 0x1 PUSH1 0x1 PUSH1 0xA0 SHL SUB SWAP1 SWAP8 AND DUP8 MSTORE PUSH1 0x20 DUP8 ADD SWAP6 SWAP1 SWAP6 MSTORE SWAP4 DUP6 ADD SWAP3 SWAP1 SWAP3 MSTORE PUSH1 0x60 DUP5 ADD MSTORE PUSH1 0x80 DUP4 ADD MSTORE PUSH1 0xA0 DUP3 ADD MSTORE PUSH1 0xC0 ADD PUSH2 0x35C JUMP JUMPDEST CALLVALUE DUP1 ISZERO PUSH2 0x642 JUMPI PUSH1 0x0 DUP1 REVERT JUMPDEST POP PUSH2 0x32B PUSH2 0x651 CALLDATASIZE PUSH1 0x4 PUSH2 0x28E2 JUMP JUMPDEST PUSH2 0xF39 JUMP JUMPDEST CALLVALUE DUP1 ISZERO PUSH2 0x662 JUMPI PUSH1 0x0 DUP1 REVERT JUMPDEST POP PUSH2 0x32B PUSH2 0x671 CALLDATASIZE PUSH1 0x4 PUSH2 0x28E2 JUMP JUMPDEST PUSH2 0xF7B JUMP JUMPDEST CALLVALUE DUP1 ISZERO PUSH2 0x682 JUMPI PUSH1 0x0 DUP1 REVERT JUMPDEST POP PUSH2 0x32B PUSH2 0x691 CALLDATASIZE PUSH1 0x4 PUSH2 0x282D JUMP JUMPDEST PUSH2 0xFBD JUMP JUMPDEST CALLVALUE DUP1 ISZERO PUSH2 0x6A2 JUMPI PUSH1 0x0 DUP1 REVERT JUMPDEST POP PUSH2 0x32B PUSH2 0x1009 JUMP JUMPDEST CALLVALUE DUP1 ISZERO PUSH2 0x6B7 JUMPI PUSH1 0x0 DUP1 REVERT JUMPDEST POP PUSH2 0x3A5 PUSH2 0x6C6 CALLDATASIZE PUSH1 0x4 PUSH2 0x282D JUMP JUMPDEST PUSH1 0x10 PUSH1 0x20 MSTORE PUSH1 0x0 SWAP1 DUP2 MSTORE PUSH1 0x40 SWAP1 KECCAK256 SLOAD PUSH1 0xFF AND DUP2 JUMP JUMPDEST CALLVALUE DUP1 ISZERO PUSH2 0x6E7 JUMPI PUSH1 0x0 DUP1 REVERT JUMPDEST POP PUSH2 0x3A5 PUSH2 0x6F6 CALLDATASIZE PUSH1 0x4 PUSH2 0x282D JUMP JUMPDEST PUSH2 0x10AD JUMP JUMPDEST CALLVALUE DUP1 ISZERO PUSH2 0x707 JUMPI PUSH1 0x0 DUP1 REVERT JUMPDEST POP PUSH2 0x3C6 PUSH2 0x716 CALLDATASIZE PUSH1 0x4 PUSH2 0x282D JUMP JUMPDEST PUSH1 0x1 PUSH1 0x1 PUSH1 0xA0 SHL SUB AND PUSH1 0x0 SWAP1 DUP2 MSTORE PUSH1 0x20 DUP2 SWAP1 MSTORE PUSH1 0x40 SWAP1 KECCAK256 SLOAD SWAP1 JUMP JUMPDEST CALLVALUE DUP1 ISZERO PUSH2 0x73D JUMPI PUSH1 0x0 DUP1 REVERT JUMPDEST POP PUSH2 0x32B PUSH2 0x10F9 JUMP JUMPDEST CALLVALUE DUP1 ISZERO PUSH2 0x752 JUMPI PUSH1 0x0 DUP1 REVERT JUMPDEST POP PUSH1 0x12 SLOAD PUSH2 0x3F4 SWAP1 PUSH1 0x1 PUSH1 0x1 PUSH1 0xA0 SHL SUB AND DUP2 JUMP JUMPDEST CALLVALUE DUP1 ISZERO PUSH2 0x772 JUMPI PUSH1 0x0 DUP1 REVERT JUMPDEST POP PUSH2 0x3C6 PUSH1 0x8 SLOAD DUP2 JUMP JUMPDEST CALLVALUE DUP1 ISZERO PUSH2 0x788 JUMPI PUSH1 0x0 DUP1 REVERT JUMPDEST POP PUSH2 0x32B PUSH2 0x797 CALLDATASIZE PUSH1 0x4 PUSH2 0x28FB JUMP JUMPDEST PUSH2 0x116D JUMP JUMPDEST CALLVALUE DUP1 ISZERO PUSH2 0x7A8 JUMPI PUSH1 0x0 DUP1 REVERT JUMPDEST POP PUSH1 0x9 SLOAD PUSH1 0x1 PUSH1 0x1 PUSH1 0xA0 SHL SUB AND PUSH2 0x3F4 JUMP JUMPDEST CALLVALUE DUP1 ISZERO PUSH2 0x7C6 JUMPI PUSH1 0x0 DUP1 REVERT JUMPDEST POP PUSH2 0x3C6 PUSH2 0x7D5 CALLDATASIZE PUSH1 0x4 PUSH2 0x282D JUMP JUMPDEST PUSH2 0x11C2 JUMP JUMPDEST CALLVALUE DUP1 ISZERO PUSH2 0x7E6 JUMPI PUSH1 0x0 DUP1 REVERT JUMPDEST POP PUSH2 0x34F PUSH2 0x11CD JUMP JUMPDEST CALLVALUE DUP1 ISZERO PUSH2 0x7FB JUMPI PUSH1 0x0 DUP1 REVERT JUMPDEST POP PUSH2 0x32B PUSH2 0x80A CALLDATASIZE PUSH1 0x4 PUSH2 0x28C5 JUMP JUMPDEST PUSH2 0x11DC JUMP JUMPDEST CALLVALUE DUP1 ISZERO PUSH2 0x81B JUMPI PUSH1 0x0 DUP1 REVERT JUMPDEST POP PUSH1 0x12 SLOAD PUSH2 0x3A5 SWAP1 PUSH1 0x1 PUSH1 0xA0 SHL SWAP1 DIV PUSH1 0xFF AND DUP2 JUMP JUMPDEST CALLVALUE DUP1 ISZERO PUSH2 0x83C JUMPI PUSH1 0x0 DUP1 REVERT JUMPDEST POP PUSH1 0x12 SLOAD PUSH2 0x3A5 SWAP1 PUSH1 0x1 PUSH1 0xB0 SHL SWAP1 DIV PUSH1 0xFF AND DUP2 JUMP JUMPDEST CALLVALUE DUP1 ISZERO PUSH2 0x85D JUMPI PUSH1 0x0 DUP1 REVERT JUMPDEST POP PUSH2 0x3A5 PUSH2 0x86C CALLDATASIZE PUSH1 0x4 PUSH2 0x284A JUMP JUMPDEST PUSH2 0x1272 JUMP JUMPDEST CALLVALUE DUP1 ISZERO PUSH2 0x87D JUMPI PUSH1 0x0 DUP1 REVERT JUMPDEST POP PUSH2 0x3C6 PUSH2 0x88C CALLDATASIZE PUSH1 0x4 PUSH2 0x282D JUMP JUMPDEST PUSH2 0x12C1 JUMP JUMPDEST CALLVALUE DUP1 ISZERO PUSH2 0x89D JUMPI PUSH1 0x0 DUP1 REVERT JUMPDEST POP PUSH2 0x3A5 PUSH2 0x8AC CALLDATASIZE PUSH1 0x4 PUSH2 0x284A JUMP JUMPDEST PUSH2 0x12ED JUMP JUMPDEST CALLVALUE DUP1 ISZERO PUSH2 0x8BD JUMPI PUSH1 0x0 DUP1 REVERT JUMPDEST POP PUSH2 0x3C6 PUSH2 0x8CC CALLDATASIZE PUSH1 0x4 PUSH2 0x282D JUMP JUMPDEST PUSH1 0x1 PUSH1 0x1 PUSH1 0xA0 SHL SUB AND PUSH1 0x0 SWAP1 DUP2 MSTORE PUSH1 0x7 PUSH1 0x20 MSTORE PUSH1 0x40 SWAP1 KECCAK256 SLOAD SWAP1 JUMP JUMPDEST CALLVALUE DUP1 ISZERO PUSH2 0x8F3 JUMPI PUSH1 0x0 DUP1 REVERT JUMPDEST POP PUSH2 0x32B PUSH2 0x902 CALLDATASIZE PUSH1 0x4 PUSH2 0x28FB JUMP JUMPDEST PUSH2 0x12FA JUMP JUMPDEST CALLVALUE DUP1 ISZERO PUSH2 0x913 JUMPI PUSH1 0x0 DUP1 REVERT JUMPDEST POP PUSH2 0x3A5 PUSH2 0x922 CALLDATASIZE PUSH1 0x4 PUSH2 0x282D JUMP JUMPDEST PUSH2 0x134F JUMP JUMPDEST CALLVALUE DUP1 ISZERO PUSH2 0x933 JUMPI PUSH1 0x0 DUP1 REVERT JUMPDEST POP PUSH2 0x3A5 PUSH2 0x942 CALLDATASIZE PUSH1 0x4 PUSH2 0x28FB JUMP JUMPDEST PUSH2 0x139B JUMP JUMPDEST CALLVALUE DUP1 ISZERO PUSH2 0x953 JUMPI PUSH1 0x0 DUP1 REVERT JUMPDEST POP PUSH2 0x32B PUSH2 0x962 CALLDATASIZE PUSH1 0x4 PUSH2 0x282D JUMP JUMPDEST PUSH2 0x151C JUMP JUMPDEST CALLVALUE DUP1 ISZERO PUSH2 0x973 JUMPI PUSH1 0x0 DUP1 REVERT JUMPDEST POP PUSH2 0x3C6 PUSH2 0x982 CALLDATASIZE PUSH1 0x4 PUSH2 0x2934 JUMP JUMPDEST PUSH1 0x1 PUSH1 0x1 PUSH1 0xA0 SHL SUB SWAP2 DUP3 AND PUSH1 0x0 SWAP1 DUP2 MSTORE PUSH1 0x1 PUSH1 0x20 SWAP1 DUP2 MSTORE PUSH1 0x40 DUP1 DUP4 KECCAK256 SWAP4 SWAP1 SWAP5 AND DUP3 MSTORE SWAP2 SWAP1 SWAP2 MSTORE KECCAK256 SLOAD SWAP1 JUMP JUMPDEST CALLVALUE DUP1 ISZERO PUSH2 0x9B9 JUMPI PUSH1 0x0 DUP1 REVERT JUMPDEST POP PUSH2 0x32B PUSH2 0x9C8 CALLDATASIZE PUSH1 0x4 PUSH2 0x284A JUMP JUMPDEST PUSH2 0x1568 JUMP JUMPDEST CALLVALUE DUP1 ISZERO PUSH2 0x9D9 JUMPI PUSH1 0x0 DUP1 REVERT JUMPDEST POP PUSH1 0xE SLOAD PUSH2 0x3C6 JUMP JUMPDEST CALLVALUE DUP1 ISZERO PUSH2 0x9EE JUMPI PUSH1 0x0 DUP1 REVERT JUMPDEST POP PUSH2 0x32B PUSH2 0x9FD CALLDATASIZE PUSH1 0x4 PUSH2 0x282D JUMP JUMPDEST PUSH2 0x1600 JUMP JUMPDEST CALLVALUE DUP1 ISZERO PUSH2 0xA0E JUMPI PUSH1 0x0 DUP1 REVERT JUMPDEST POP PUSH1 0x16 SLOAD PUSH2 0x3F4 SWAP1 PUSH1 0x1 PUSH1 0x1 PUSH1 0xA0 SHL SUB AND DUP2 JUMP JUMPDEST CALLVALUE DUP1 ISZERO PUSH2 0xA2E JUMPI PUSH1 0x0 DUP1 REVERT JUMPDEST POP PUSH2 0x5FF PUSH2 0xA3D CALLDATASIZE PUSH1 0x4 PUSH2 0x282D JUMP JUMPDEST PUSH2 0x16EB JUMP JUMPDEST CALLVALUE DUP1 ISZERO PUSH2 0xA4E JUMPI PUSH1 0x0 DUP1 REVERT JUMPDEST POP PUSH2 0xA62 PUSH2 0xA5D CALLDATASIZE PUSH1 0x4 PUSH2 0x28E2 JUMP JUMPDEST PUSH2 0x179A JUMP JUMPDEST PUSH1 0x40 DUP1 MLOAD SWAP4 DUP5 MSTORE PUSH1 0x20 DUP5 ADD SWAP3 SWAP1 SWAP3 MSTORE SWAP1 DUP3 ADD MSTORE PUSH1 0x60 ADD PUSH2 0x35C JUMP JUMPDEST PUSH1 0x0 PUSH2 0xA88 PUSH1 0x2 SLOAD SWAP1 JUMP JUMPDEST GT PUSH2 0xA92 JUMPI PUSH1 0x0 DUP1 REVERT JUMPDEST CALLVALUE ISZERO PUSH2 0xB0E JUMPI PUSH2 0xAC5 PUSH2 0xAA4 PUSH1 0x2 SLOAD SWAP1 JUMP JUMPDEST PUSH2 0xAB2 CALLVALUE PUSH1 0x1 PUSH1 0x80 SHL PUSH2 0x18C0 JUMP JUMPDEST PUSH2 0xABC SWAP2 SWAP1 PUSH2 0x2978 JUMP JUMPDEST PUSH1 0x5 SLOAD SWAP1 PUSH2 0x1949 JUMP JUMPDEST PUSH1 0x5 SSTORE PUSH1 0x40 MLOAD CALLVALUE DUP2 MSTORE CALLER SWAP1 PUSH32 0xA493A9229478C3FCD73F66D2CDEB7F94FD0F341DA924D1054236D78454116511 SWAP1 PUSH1 0x20 ADD PUSH1 0x40 MLOAD DUP1 SWAP2 SUB SWAP1 LOG2 PUSH1 0x8 SLOAD PUSH2 0xB0A SWAP1 CALLVALUE PUSH2 0x1949 JUMP JUMPDEST PUSH1 0x8 SSTORE JUMPDEST JUMP JUMPDEST PUSH1 0x60 PUSH1 0x13 DUP1 SLOAD PUSH2 0xB1F SWAP1 PUSH2 0x299A JUMP JUMPDEST DUP1 PUSH1 0x1F ADD PUSH1 0x20 DUP1 SWAP2 DIV MUL PUSH1 0x20 ADD PUSH1 0x40 MLOAD SWAP1 DUP2 ADD PUSH1 0x40 MSTORE DUP1 SWAP3 SWAP2 SWAP1 DUP2 DUP2 MSTORE PUSH1 0x20 ADD DUP3 DUP1 SLOAD PUSH2 0xB4B SWAP1 PUSH2 0x299A JUMP JUMPDEST DUP1 ISZERO PUSH2 0xB98 JUMPI DUP1 PUSH1 0x1F LT PUSH2 0xB6D JUMPI PUSH2 0x100 DUP1 DUP4 SLOAD DIV MUL DUP4 MSTORE SWAP2 PUSH1 0x20 ADD SWAP2 PUSH2 0xB98 JUMP JUMPDEST DUP3 ADD SWAP2 SWAP1 PUSH1 0x0 MSTORE PUSH1 0x20 PUSH1 0x0 KECCAK256 SWAP1 JUMPDEST DUP2 SLOAD DUP2 MSTORE SWAP1 PUSH1 0x1 ADD SWAP1 PUSH1 0x20 ADD DUP1 DUP4 GT PUSH2 0xB7B JUMPI DUP3 SWAP1 SUB PUSH1 0x1F AND DUP3 ADD SWAP2 JUMPDEST POP POP POP POP POP SWAP1 POP SWAP1 JUMP JUMPDEST PUSH1 0x9 SLOAD PUSH1 0x1 PUSH1 0x1 PUSH1 0xA0 SHL SUB AND CALLER EQ PUSH2 0xBD5 JUMPI PUSH1 0x40 MLOAD PUSH3 0x461BCD PUSH1 0xE5 SHL DUP2 MSTORE PUSH1 0x4 ADD PUSH2 0xBCC SWAP1 PUSH2 0x29D4 JUMP JUMPDEST PUSH1 0x40 MLOAD DUP1 SWAP2 SUB SWAP1 REVERT JUMPDEST PUSH1 0x1 PUSH1 0x1 PUSH1 0xA0 SHL SUB AND PUSH1 0x0 SWAP1 DUP2 MSTORE PUSH1 0xF PUSH1 0x20 MSTORE PUSH1 0x40 SWAP1 KECCAK256 DUP1 SLOAD PUSH1 0xFF NOT AND SWAP1 SSTORE JUMP JUMPDEST PUSH1 0x0 PUSH2 0xC03 CALLER DUP5 DUP5 PUSH2 0x19A8 JUMP JUMPDEST POP PUSH1 0x1 JUMPDEST SWAP3 SWAP2 POP POP JUMP JUMPDEST PUSH1 0x0 PUSH2 0xC1A DUP5 DUP5 DUP5 PUSH2 0x1ACC JUMP JUMPDEST PUSH2 0xC6C DUP5 CALLER PUSH2 0xC67 DUP6 PUSH1 0x40 MLOAD DUP1 PUSH1 0x60 ADD PUSH1 0x40 MSTORE DUP1 PUSH1 0x28 DUP2 MSTORE PUSH1 0x20 ADD PUSH2 0x2C0B PUSH1 0x28 SWAP2 CODECOPY PUSH1 0x1 PUSH1 0x1 PUSH1 0xA0 SHL SUB DUP11 AND PUSH1 0x0 SWAP1 DUP2 MSTORE PUSH1 0x1 PUSH1 0x20 SWAP1 DUP2 MSTORE PUSH1 0x40 DUP1 DUP4 KECCAK256 CALLER DUP5 MSTORE SWAP1 SWAP2 MSTORE SWAP1 KECCAK256 SLOAD SWAP2 SWAP1 PUSH2 0x1B2E JUMP JUMPDEST PUSH2 0x19A8 JUMP JUMPDEST POP PUSH1 0x1 SWAP4 SWAP3 POP POP POP JUMP JUMPDEST PUSH1 0x1 PUSH1 0x1 PUSH1 0xA0 SHL SUB DUP2 AND PUSH1 0x0 SWAP1 DUP2 MSTORE PUSH1 0x6 PUSH1 0x20 SWAP1 DUP2 MSTORE PUSH1 0x40 DUP1 DUP4 KECCAK256 SLOAD SWAP2 DUP4 SWAP1 MSTORE DUP3 KECCAK256 SLOAD PUSH1 0x5 SLOAD PUSH1 0x1 PUSH1 0x80 SHL SWAP3 PUSH2 0xCC8 SWAP3 PUSH2 0xCC3 SWAP3 PUSH2 0xCBD SWAP2 PUSH2 0xCB8 SWAP2 SWAP1 PUSH2 0x18C0 JUMP JUMPDEST PUSH2 0x1B68 JUMP JUMPDEST SWAP1 PUSH2 0x1B78 JUMP JUMPDEST PUSH2 0x1BB6 JUMP JUMPDEST PUSH2 0xC07 SWAP2 SWAP1 PUSH2 0x2978 JUMP JUMPDEST PUSH1 0x9 SLOAD PUSH1 0x1 PUSH1 0x1 PUSH1 0xA0 SHL SUB AND CALLER EQ PUSH2 0xCFC JUMPI PUSH1 0x40 MLOAD PUSH3 0x461BCD PUSH1 0xE5 SHL DUP2 MSTORE PUSH1 0x4 ADD PUSH2 0xBCC SWAP1 PUSH2 0x29D4 JUMP JUMPDEST PUSH1 0x1 PUSH1 0x1 PUSH1 0xA0 SHL SUB DUP2 AND PUSH1 0x0 SWAP1 DUP2 MSTORE PUSH1 0xF PUSH1 0x20 MSTORE PUSH1 0x40 DUP2 KECCAK256 DUP1 SLOAD PUSH1 0xFF NOT AND PUSH1 0x1 OR SWAP1 SSTORE PUSH2 0xD2A SWAP1 DUP3 SWAP1 PUSH2 0x1BC9 JUMP JUMPDEST PUSH2 0xD35 PUSH1 0xA DUP3 PUSH2 0x1C28 JUMP JUMPDEST PUSH1 0x40 MLOAD PUSH1 0x1 PUSH1 0x1 PUSH1 0xA0 SHL SUB DUP3 AND SWAP1 PUSH32 0xA878B31040B2E6D0A9A3D3361209DB3908BA62014B0DCA52ADBAEE451D128B25 SWAP1 PUSH1 0x0 SWAP1 LOG2 POP JUMP JUMPDEST PUSH1 0x9 SLOAD PUSH1 0x1 PUSH1 0x1 PUSH1 0xA0 SHL SUB AND CALLER EQ PUSH2 0xD96 JUMPI PUSH1 0x40 MLOAD PUSH3 0x461BCD PUSH1 0xE5 SHL DUP2 MSTORE PUSH1 0x4 ADD PUSH2 0xBCC SWAP1 PUSH2 0x29D4 JUMP JUMPDEST DUP1 ISZERO ISZERO PUSH1 0x12 PUSH1 0x16 SWAP1 SLOAD SWAP1 PUSH2 0x100 EXP SWAP1 DIV PUSH1 0xFF AND ISZERO ISZERO SUB PUSH2 0xDB5 JUMPI PUSH1 0x0 DUP1 REVERT JUMPDEST PUSH1 0x12 DUP1 SLOAD DUP3 ISZERO ISZERO PUSH1 0x1 PUSH1 0xB0 SHL MUL PUSH1 0xFF PUSH1 0xB0 SHL NOT SWAP1 SWAP2 AND OR SWAP1 SSTORE PUSH1 0x40 MLOAD PUSH32 0x3DA2593F2C4724ACFBD754045321E852CAD26F3974834B1890045530F89C21B3 SWAP1 PUSH2 0xE02 SWAP1 DUP4 ISZERO ISZERO DUP2 MSTORE PUSH1 0x20 ADD SWAP1 JUMP JUMPDEST PUSH1 0x40 MLOAD DUP1 SWAP2 SUB SWAP1 LOG1 POP JUMP JUMPDEST CALLER PUSH1 0x0 DUP2 DUP2 MSTORE PUSH1 0x1 PUSH1 0x20 SWAP1 DUP2 MSTORE PUSH1 0x40 DUP1 DUP4 KECCAK256 PUSH1 0x1 PUSH1 0x1 PUSH1 0xA0 SHL SUB DUP8 AND DUP5 MSTORE SWAP1 SWAP2 MSTORE DUP2 KECCAK256 SLOAD SWAP1 SWAP2 PUSH2 0xC03 SWAP2 DUP6 SWAP1 PUSH2 0xC67 SWAP1 DUP7 PUSH2 0x1949 JUMP JUMPDEST PUSH1 0x9 SLOAD PUSH1 0x1 PUSH1 0x1 PUSH1 0xA0 SHL SUB AND CALLER EQ PUSH2 0xE6D JUMPI PUSH1 0x40 MLOAD PUSH3 0x461BCD PUSH1 0xE5 SHL DUP2 MSTORE PUSH1 0x4 ADD PUSH2 0xBCC SWAP1 PUSH2 0x29D4 JUMP JUMPDEST DUP1 ISZERO ISZERO PUSH1 0x12 PUSH1 0x15 SWAP1 SLOAD SWAP1 PUSH2 0x100 EXP SWAP1 DIV PUSH1 0xFF AND ISZERO ISZERO SUB PUSH2 0xE8C JUMPI PUSH1 0x0 DUP1 REVERT JUMPDEST PUSH1 0x12 DUP1 SLOAD DUP3 ISZERO ISZERO PUSH1 0x1 PUSH1 0xA8 SHL MUL PUSH1 0xFF PUSH1 0xA8 SHL NOT SWAP1 SWAP2 AND OR SWAP1 SSTORE PUSH1 0x40 MLOAD PUSH32 0xC138A28750B971696F46EA59731C471EF1E08E4015404AFDB139FD2E87DCA1BB SWAP1 PUSH2 0xE02 SWAP1 DUP4 ISZERO ISZERO DUP2 MSTORE PUSH1 0x20 ADD SWAP1 JUMP JUMPDEST PUSH1 0x0 DUP1 PUSH1 0x0 DUP1 PUSH1 0x0 DUP1 PUSH2 0xEEB PUSH1 0xA SLOAD SWAP1 JUMP JUMPDEST DUP8 LT PUSH2 0xF0A JUMPI POP PUSH1 0x0 SWAP5 POP PUSH1 0x0 NOT SWAP4 POP DUP4 SWAP3 POP DUP5 SWAP2 POP DUP2 SWAP1 POP DUP1 PUSH2 0xF30 JUMP JUMPDEST PUSH1 0x0 PUSH2 0xF17 PUSH1 0xA DUP10 PUSH2 0x1D63 JUMP JUMPDEST SWAP1 POP PUSH2 0xF22 DUP2 PUSH2 0x16EB JUMP JUMPDEST SWAP7 POP SWAP7 POP SWAP7 POP SWAP7 POP SWAP7 POP SWAP7 POP POP JUMPDEST SWAP2 SWAP4 SWAP6 POP SWAP2 SWAP4 SWAP6 JUMP JUMPDEST PUSH1 0x9 SLOAD PUSH1 0x1 PUSH1 0x1 PUSH1 0xA0 SHL SUB AND CALLER EQ PUSH2 0xF63 JUMPI PUSH1 0x40 MLOAD PUSH3 0x461BCD PUSH1 0xE5 SHL DUP2 MSTORE PUSH1 0x4 ADD PUSH2 0xBCC SWAP1 PUSH2 0x29D4 JUMP JUMPDEST PUSH2 0xF75 DUP2 PUSH8 0xDE0B6B3A7640000 PUSH2 0x2A09 JUMP JUMPDEST PUSH1 0x18 SSTORE POP JUMP JUMPDEST PUSH1 0x9 SLOAD PUSH1 0x1 PUSH1 0x1 PUSH1 0xA0 SHL SUB AND CALLER EQ PUSH2 0xFA5 JUMPI PUSH1 0x40 MLOAD PUSH3 0x461BCD PUSH1 0xE5 SHL DUP2 MSTORE PUSH1 0x4 ADD PUSH2 0xBCC SWAP1 PUSH2 0x29D4 JUMP JUMPDEST PUSH2 0xFB7 DUP2 PUSH8 0xDE0B6B3A7640000 PUSH2 0x2A09 JUMP JUMPDEST PUSH1 0x19 SSTORE POP JUMP JUMPDEST PUSH1 0x9 SLOAD PUSH1 0x1 PUSH1 0x1 PUSH1 0xA0 SHL SUB AND CALLER EQ PUSH2 0xFE7 JUMPI PUSH1 0x40 MLOAD PUSH3 0x461BCD PUSH1 0xE5 SHL DUP2 MSTORE PUSH1 0x4 ADD PUSH2 0xBCC SWAP1 PUSH2 0x29D4 JUMP JUMPDEST PUSH1 0x15 DUP1 SLOAD PUSH1 0x1 PUSH1 0x1 PUSH1 0xA0 SHL SUB NOT AND PUSH1 0x1 PUSH1 0x1 PUSH1 0xA0 SHL SUB SWAP3 SWAP1 SWAP3 AND SWAP2 SWAP1 SWAP2 OR SWAP1 SSTORE JUMP JUMPDEST PUSH1 0x40 MLOAD PUSH3 0x461BCD PUSH1 0xE5 SHL DUP2 MSTORE PUSH1 0x20 PUSH1 0x4 DUP3 ADD MSTORE PUSH1 0x67 PUSH1 0x24 DUP3 ADD MSTORE PUSH32 0x47425553445F4469766964656E645F547261636B65723A207769746864726177 PUSH1 0x44 DUP3 ADD MSTORE PUSH32 0x4469766964656E642064697361626C65642E20557365207468652027636C6169 PUSH1 0x64 DUP3 ADD MSTORE PUSH32 0x6D272066756E6374696F6E206F6E20746865206D61696E20474255534420636F PUSH1 0x84 DUP3 ADD MSTORE PUSH7 0x373A3930B1BA17 PUSH1 0xC9 SHL PUSH1 0xA4 DUP3 ADD MSTORE PUSH1 0xC4 ADD PUSH2 0xBCC JUMP JUMPDEST PUSH1 0x9 SLOAD PUSH1 0x0 SWAP1 PUSH1 0x1 PUSH1 0x1 PUSH1 0xA0 SHL SUB AND CALLER EQ PUSH2 0x10DA JUMPI PUSH1 0x40 MLOAD PUSH3 0x461BCD PUSH1 0xE5 SHL DUP2 MSTORE PUSH1 0x4 ADD PUSH2 0xBCC SWAP1 PUSH2 0x29D4 JUMP JUMPDEST POP PUSH1 0x1 PUSH1 0x1 PUSH1 0xA0 SHL SUB AND PUSH1 0x0 SWAP1 DUP2 MSTORE PUSH1 0x10 PUSH1 0x20 MSTORE PUSH1 0x40 SWAP1 KECCAK256 SLOAD PUSH1 0xFF AND SWAP1 JUMP JUMPDEST PUSH1 0x9 SLOAD PUSH1 0x1 PUSH1 0x1 PUSH1 0xA0 SHL SUB AND CALLER EQ PUSH2 0x1123 JUMPI PUSH1 0x40 MLOAD PUSH3 0x461BCD PUSH1 0xE5 SHL DUP2 MSTORE PUSH1 0x4 ADD PUSH2 0xBCC SWAP1 PUSH2 0x29D4 JUMP JUMPDEST PUSH1 0x9 SLOAD PUSH1 0x40 MLOAD PUSH1 0x0 SWAP2 PUSH1 0x1 PUSH1 0x1 PUSH1 0xA0 SHL SUB AND SWAP1 PUSH32 0x8BE0079C531659141344CD1FD0A4F28419497F9722A3DAAFE3B4186F6B6457E0 SWAP1 DUP4 SWAP1 LOG3 PUSH1 0x9 DUP1 SLOAD PUSH1 0x1 PUSH1 0x1 PUSH1 0xA0 SHL SUB NOT AND SWAP1 SSTORE JUMP JUMPDEST PUSH1 0x9 SLOAD PUSH1 0x1 PUSH1 0x1 PUSH1 0xA0 SHL SUB AND CALLER EQ PUSH2 0x1197 JUMPI PUSH1 0x40 MLOAD PUSH3 0x461BCD PUSH1 0xE5 SHL DUP2 MSTORE PUSH1 0x4 ADD PUSH2 0xBCC SWAP1 PUSH2 0x29D4 JUMP JUMPDEST PUSH1 0x1 PUSH1 0x1 PUSH1 0xA0 SHL SUB SWAP2 SWAP1 SWAP2 AND PUSH1 0x0 SWAP1 DUP2 MSTORE PUSH1 0x10 PUSH1 0x20 MSTORE PUSH1 0x40 SWAP1 KECCAK256 DUP1 SLOAD PUSH1 0xFF NOT AND SWAP2 ISZERO ISZERO SWAP2 SWAP1 SWAP2 OR SWAP1 SSTORE JUMP JUMPDEST PUSH1 0x0 PUSH2 0xC07 DUP3 PUSH2 0x12C1 JUMP JUMPDEST PUSH1 0x60 PUSH1 0x14 DUP1 SLOAD PUSH2 0xB1F SWAP1 PUSH2 0x299A JUMP JUMPDEST PUSH1 0x9 SLOAD PUSH1 0x1 PUSH1 0x1 PUSH1 0xA0 SHL SUB AND CALLER EQ PUSH2 0x1206 JUMPI PUSH1 0x40 MLOAD PUSH3 0x461BCD PUSH1 0xE5 SHL DUP2 MSTORE PUSH1 0x4 ADD PUSH2 0xBCC SWAP1 PUSH2 0x29D4 JUMP JUMPDEST DUP1 ISZERO ISZERO PUSH1 0x12 PUSH1 0x14 SWAP1 SLOAD SWAP1 PUSH2 0x100 EXP SWAP1 DIV PUSH1 0xFF AND ISZERO ISZERO SUB PUSH2 0x1225 JUMPI PUSH1 0x0 DUP1 REVERT JUMPDEST PUSH1 0x12 DUP1 SLOAD DUP3 ISZERO ISZERO PUSH1 0x1 PUSH1 0xA0 SHL MUL PUSH1 0xFF PUSH1 0xA0 SHL NOT SWAP1 SWAP2 AND OR SWAP1 SSTORE PUSH1 0x40 MLOAD PUSH32 0x8D34C313963017194ED726D050E868657D0E2D2C6748D13E358CD4B89D4EE7C8 SWAP1 PUSH2 0xE02 SWAP1 DUP4 ISZERO ISZERO DUP2 MSTORE PUSH1 0x20 ADD SWAP1 JUMP JUMPDEST PUSH1 0x0 PUSH2 0xC03 CALLER DUP5 PUSH2 0xC67 DUP6 PUSH1 0x40 MLOAD DUP1 PUSH1 0x60 ADD PUSH1 0x40 MSTORE DUP1 PUSH1 0x25 DUP2 MSTORE PUSH1 0x20 ADD PUSH2 0x2C33 PUSH1 0x25 SWAP2 CODECOPY CALLER PUSH1 0x0 SWAP1 DUP2 MSTORE PUSH1 0x1 PUSH1 0x20 SWAP1 DUP2 MSTORE PUSH1 0x40 DUP1 DUP4 KECCAK256 PUSH1 0x1 PUSH1 0x1 PUSH1 0xA0 SHL SUB DUP14 AND DUP5 MSTORE SWAP1 SWAP2 MSTORE SWAP1 KECCAK256 SLOAD SWAP2 SWAP1 PUSH2 0x1B2E JUMP JUMPDEST PUSH1 0x1 PUSH1 0x1 PUSH1 0xA0 SHL SUB DUP2 AND PUSH1 0x0 SWAP1 DUP2 MSTORE PUSH1 0x7 PUSH1 0x20 MSTORE PUSH1 0x40 DUP2 KECCAK256 SLOAD PUSH2 0xC07 SWAP1 PUSH2 0x12E7 DUP5 PUSH2 0xC76 JUMP JUMPDEST SWAP1 PUSH2 0x1D96 JUMP JUMPDEST PUSH1 0x0 PUSH2 0xC03 CALLER DUP5 DUP5 PUSH2 0x1ACC JUMP JUMPDEST PUSH1 0x9 SLOAD PUSH1 0x1 PUSH1 0x1 PUSH1 0xA0 SHL SUB AND CALLER EQ PUSH2 0x1324 JUMPI PUSH1 0x40 MLOAD PUSH3 0x461BCD PUSH1 0xE5 SHL DUP2 MSTORE PUSH1 0x4 ADD PUSH2 0xBCC SWAP1 PUSH2 0x29D4 JUMP JUMPDEST PUSH1 0x1 PUSH1 0x1 PUSH1 0xA0 SHL SUB SWAP2 SWAP1 SWAP2 AND PUSH1 0x0 SWAP1 DUP2 MSTORE PUSH1 0x11 PUSH1 0x20 MSTORE PUSH1 0x40 SWAP1 KECCAK256 DUP1 SLOAD PUSH1 0xFF NOT AND SWAP2 ISZERO ISZERO SWAP2 SWAP1 SWAP2 OR SWAP1 SSTORE JUMP JUMPDEST PUSH1 0x9 SLOAD PUSH1 0x0 SWAP1 PUSH1 0x1 PUSH1 0x1 PUSH1 0xA0 SHL SUB AND CALLER EQ PUSH2 0x137C JUMPI PUSH1 0x40 MLOAD PUSH3 0x461BCD PUSH1 0xE5 SHL DUP2 MSTORE PUSH1 0x4 ADD PUSH2 0xBCC SWAP1 PUSH2 0x29D4 JUMP JUMPDEST POP PUSH1 0x1 PUSH1 0x1 PUSH1 0xA0 SHL SUB AND PUSH1 0x0 SWAP1 DUP2 MSTORE PUSH1 0x11 PUSH1 0x20 MSTORE PUSH1 0x40 SWAP1 KECCAK256 SLOAD PUSH1 0xFF AND SWAP1 JUMP JUMPDEST PUSH1 0x9 SLOAD PUSH1 0x0 SWAP1 PUSH1 0x1 PUSH1 0x1 PUSH1 0xA0 SHL SUB AND CALLER EQ PUSH2 0x13C8 JUMPI PUSH1 0x40 MLOAD PUSH3 0x461BCD PUSH1 0xE5 SHL DUP2 MSTORE PUSH1 0x4 ADD PUSH2 0xBCC SWAP1 PUSH2 0x29D4 JUMP JUMPDEST PUSH1 0x12 SLOAD PUSH1 0x1 PUSH1 0xB0 SHL SWAP1 DIV PUSH1 0xFF AND ISZERO PUSH2 0x13E2 JUMPI POP PUSH1 0x0 PUSH2 0xC07 JUMP JUMPDEST PUSH1 0x1 PUSH1 0x1 PUSH1 0xA0 SHL SUB DUP4 AND PUSH1 0x0 SWAP1 DUP2 MSTORE PUSH1 0x11 PUSH1 0x20 MSTORE PUSH1 0x40 SWAP1 KECCAK256 SLOAD PUSH1 0xFF AND DUP3 DUP1 ISZERO PUSH2 0x1408 JUMPI POP DUP1 JUMPDEST DUP1 ISZERO PUSH2 0x141E JUMPI POP PUSH1 0x12 SLOAD PUSH1 0x1 PUSH1 0xA8 SHL SWAP1 DIV PUSH1 0xFF AND ISZERO JUMPDEST ISZERO PUSH2 0x142D JUMPI PUSH1 0x0 SWAP2 POP POP PUSH2 0xC07 JUMP JUMPDEST PUSH1 0x0 DUP2 PUSH2 0x1442 JUMPI PUSH2 0x143D DUP6 PUSH2 0x1DD8 JUMP JUMPDEST PUSH2 0x144B JUMP JUMPDEST PUSH2 0x144B DUP6 PUSH2 0x2091 JUMP JUMPDEST SWAP1 POP DUP1 ISZERO PUSH2 0x1511 JUMPI PUSH1 0x1 PUSH1 0x1 PUSH1 0xA0 SHL SUB DUP6 AND PUSH1 0x0 SWAP1 DUP2 MSTORE PUSH1 0x17 PUSH1 0x20 MSTORE PUSH1 0x40 SWAP1 KECCAK256 TIMESTAMP SWAP1 SSTORE DUP2 ISZERO PUSH2 0x14BF JUMPI DUP4 ISZERO ISZERO DUP6 PUSH1 0x1 PUSH1 0x1 PUSH1 0xA0 SHL SUB AND PUSH32 0xFBD928DD3806A2BDF802F3A28A2CC55205F95DBCD2C3ED313ABFCA278366F80C DUP4 PUSH1 0x40 MLOAD PUSH2 0x14B2 SWAP2 DUP2 MSTORE PUSH1 0x20 ADD SWAP1 JUMP JUMPDEST PUSH1 0x40 MLOAD DUP1 SWAP2 SUB SWAP1 LOG3 PUSH2 0x1506 JUMP JUMPDEST DUP4 ISZERO ISZERO DUP6 PUSH1 0x1 PUSH1 0x1 PUSH1 0xA0 SHL SUB AND PUSH32 0xA2C38E2D2FB7E3E1912D937FD1CA11ED6D51864DEE4CFA7A7BF02BECD7ACF092 DUP4 PUSH1 0x40 MLOAD PUSH2 0x14FD SWAP2 DUP2 MSTORE PUSH1 0x20 ADD SWAP1 JUMP JUMPDEST PUSH1 0x40 MLOAD DUP1 SWAP2 SUB SWAP1 LOG3 JUMPDEST PUSH1 0x1 SWAP3 POP POP POP PUSH2 0xC07 JUMP JUMPDEST POP PUSH1 0x0 SWAP5 SWAP4 POP POP POP POP JUMP JUMPDEST PUSH1 0x9 SLOAD PUSH1 0x1 PUSH1 0x1 PUSH1 0xA0 SHL SUB AND CALLER EQ PUSH2 0x1546 JUMPI PUSH1 0x40 MLOAD PUSH3 0x461BCD PUSH1 0xE5 SHL DUP2 MSTORE PUSH1 0x4 ADD PUSH2 0xBCC SWAP1 PUSH2 0x29D4 JUMP JUMPDEST PUSH1 0x12 DUP1 SLOAD PUSH1 0x1 PUSH1 0x1 PUSH1 0xA0 SHL SUB NOT AND PUSH1 0x1 PUSH1 0x1 PUSH1 0xA0 SHL SUB SWAP3 SWAP1 SWAP3 AND SWAP2 SWAP1 SWAP2 OR SWAP1 SSTORE JUMP JUMPDEST PUSH1 0x9 SLOAD PUSH1 0x1 PUSH1 0x1 PUSH1 0xA0 SHL SUB AND CALLER EQ PUSH2 0x1592 JUMPI PUSH1 0x40 MLOAD PUSH3 0x461BCD PUSH1 0xE5 SHL DUP2 MSTORE PUSH1 0x4 ADD PUSH2 0xBCC SWAP1 PUSH2 0x29D4 JUMP JUMPDEST PUSH1 0x1 PUSH1 0x1 PUSH1 0xA0 SHL SUB DUP3 AND PUSH1 0x0 SWAP1 DUP2 MSTORE PUSH1 0xF PUSH1 0x20 MSTORE PUSH1 0x40 SWAP1 KECCAK256 SLOAD PUSH1 0xFF AND PUSH2 0x15D2 JUMPI PUSH1 0x19 SLOAD DUP2 LT ISZERO PUSH2 0x15D6 JUMPI PUSH2 0x15C7 PUSH1 0xA DUP4 PUSH2 0x1C28 JUMP JUMPDEST PUSH2 0x15D2 DUP3 PUSH1 0x0 PUSH2 0x1BC9 JUMP JUMPDEST POP POP JUMP JUMPDEST PUSH2 0x15E0 DUP3 DUP3 PUSH2 0x1BC9 JUMP JUMPDEST PUSH1 0x18 SLOAD DUP2 LT PUSH2 0x15F5 JUMPI PUSH2 0x15D2 PUSH1 0xA DUP4 DUP4 PUSH2 0x2404 JUMP JUMPDEST PUSH2 0x15D2 PUSH1 0xA DUP4 PUSH2 0x1C28 JUMP JUMPDEST PUSH1 0x9 SLOAD PUSH1 0x1 PUSH1 0x1 PUSH1 0xA0 SHL SUB AND CALLER EQ PUSH2 0x162A JUMPI PUSH1 0x40 MLOAD PUSH3 0x461BCD PUSH1 0xE5 SHL DUP2 MSTORE PUSH1 0x4 ADD PUSH2 0xBCC SWAP1 PUSH2 0x29D4 JUMP JUMPDEST PUSH1 0x1 PUSH1 0x1 PUSH1 0xA0 SHL SUB DUP2 AND PUSH2 0x168F JUMPI PUSH1 0x40 MLOAD PUSH3 0x461BCD PUSH1 0xE5 SHL DUP2 MSTORE PUSH1 0x20 PUSH1 0x4 DUP3 ADD MSTORE PUSH1 0x26 PUSH1 0x24 DUP3 ADD MSTORE PUSH32 0x4F776E61626C653A206E6577206F776E657220697320746865207A65726F2061 PUSH1 0x44 DUP3 ADD MSTORE PUSH6 0x646472657373 PUSH1 0xD0 SHL PUSH1 0x64 DUP3 ADD MSTORE PUSH1 0x84 ADD PUSH2 0xBCC JUMP JUMPDEST PUSH1 0x9 SLOAD PUSH1 0x40 MLOAD PUSH1 0x1 PUSH1 0x1 PUSH1 0xA0 SHL SUB DUP1 DUP5 AND SWAP3 AND SWAP1 PUSH32 0x8BE0079C531659141344CD1FD0A4F28419497F9722A3DAAFE3B4186F6B6457E0 SWAP1 PUSH1 0x0 SWAP1 LOG3 PUSH1 0x9 DUP1 SLOAD PUSH1 0x1 PUSH1 0x1 PUSH1 0xA0 SHL SUB NOT AND PUSH1 0x1 PUSH1 0x1 PUSH1 0xA0 SHL SUB SWAP3 SWAP1 SWAP3 AND SWAP2 SWAP1 SWAP2 OR SWAP1 SSTORE JUMP JUMPDEST DUP1 PUSH1 0x0 DUP1 DUP1 DUP1 DUP1 PUSH2 0x16FD PUSH1 0xA DUP8 PUSH2 0x24AD JUMP JUMPDEST SWAP5 POP PUSH1 0x0 NOT SWAP4 POP PUSH1 0x0 DUP6 SLT PUSH2 0x175F JUMPI PUSH1 0xE SLOAD DUP6 GT ISZERO PUSH2 0x172B JUMPI PUSH1 0xE SLOAD PUSH2 0x1724 SWAP1 DUP7 SWAP1 PUSH2 0x24F8 JUMP JUMPDEST SWAP4 POP PUSH2 0x175F JUMP JUMPDEST PUSH1 0xE SLOAD PUSH1 0xA SLOAD PUSH1 0x0 SWAP2 LT PUSH2 0x1740 JUMPI PUSH1 0x0 PUSH2 0x174F JUMP JUMPDEST PUSH1 0xE SLOAD PUSH1 0xA SLOAD PUSH2 0x174F SWAP2 PUSH2 0x1D96 JUMP JUMPDEST SWAP1 POP PUSH2 0x175B DUP7 DUP3 PUSH2 0x1B78 JUMP JUMPDEST SWAP5 POP POP JUMPDEST PUSH2 0x1768 DUP7 PUSH2 0x12C1 JUMP JUMPDEST SWAP3 POP PUSH2 0x1773 DUP7 PUSH2 0xC76 JUMP JUMPDEST PUSH1 0x1 PUSH1 0x1 PUSH1 0xA0 SHL SUB DUP8 AND PUSH1 0x0 SWAP1 DUP2 MSTORE PUSH1 0x17 PUSH1 0x20 MSTORE PUSH1 0x40 SWAP1 KECCAK256 SLOAD SWAP7 SWAP9 SWAP6 SWAP8 POP SWAP4 SWAP6 SWAP3 SWAP5 SWAP2 POP POP JUMP JUMPDEST PUSH1 0xA SLOAD PUSH1 0x0 SWAP1 DUP2 SWAP1 DUP2 SWAP1 DUP1 ISZERO DUP1 PUSH2 0x17BA JUMPI POP PUSH1 0x12 SLOAD PUSH1 0x1 PUSH1 0xB0 SHL SWAP1 DIV PUSH1 0xFF AND JUMPDEST ISZERO PUSH2 0x17D0 JUMPI POP POP PUSH1 0xE SLOAD PUSH1 0x0 SWAP3 POP DUP3 SWAP2 POP PUSH2 0x18B9 JUMP JUMPDEST PUSH1 0xE SLOAD PUSH1 0x0 DUP1 GAS SWAP1 POP PUSH1 0x0 DUP1 JUMPDEST DUP10 DUP5 LT DUP1 ISZERO PUSH2 0x17EB JUMPI POP DUP6 DUP3 LT JUMPDEST ISZERO PUSH2 0x18A8 JUMPI DUP5 PUSH2 0x17FA DUP2 PUSH2 0x2A28 JUMP JUMPDEST SWAP6 POP POP DUP6 DUP6 LT PUSH2 0x1809 JUMPI PUSH1 0x0 SWAP5 POP JUMPDEST PUSH1 0x0 PUSH1 0xA PUSH1 0x0 ADD DUP7 DUP2 SLOAD DUP2 LT PUSH2 0x1821 JUMPI PUSH2 0x1821 PUSH2 0x2A41 JUMP JUMPDEST PUSH1 0x0 SWAP2 DUP3 MSTORE PUSH1 0x20 DUP1 DUP4 KECCAK256 SWAP1 SWAP2 ADD SLOAD PUSH1 0x1 PUSH1 0x1 PUSH1 0xA0 SHL SUB AND DUP1 DUP4 MSTORE PUSH1 0x10 SWAP1 SWAP2 MSTORE PUSH1 0x40 SWAP1 SWAP2 KECCAK256 SLOAD SWAP1 SWAP2 POP PUSH1 0xFF AND PUSH2 0x186E JUMPI PUSH2 0x185B DUP2 PUSH1 0x1 PUSH2 0x139B JUMP JUMPDEST ISZERO PUSH2 0x186E JUMPI DUP2 PUSH2 0x186A DUP2 PUSH2 0x2A28 JUMP JUMPDEST SWAP3 POP POP JUMPDEST DUP3 PUSH2 0x1878 DUP2 PUSH2 0x2A28 JUMP JUMPDEST SWAP4 POP POP PUSH1 0x0 GAS SWAP1 POP DUP1 DUP6 GT ISZERO PUSH2 0x189F JUMPI PUSH2 0x189C PUSH2 0x1895 DUP7 DUP4 PUSH2 0x1D96 JUMP JUMPDEST DUP8 SWAP1 PUSH2 0x1949 JUMP JUMPDEST SWAP6 POP JUMPDEST SWAP4 POP PUSH2 0x17DD SWAP1 POP JUMP JUMPDEST PUSH1 0xE DUP6 SWAP1 SSTORE SWAP1 SWAP8 POP SWAP6 POP SWAP2 SWAP4 POP POP POP POP JUMPDEST SWAP2 SWAP4 SWAP1 SWAP3 POP JUMP JUMPDEST PUSH1 0x0 DUP3 PUSH1 0x0 SUB PUSH2 0x18D2 JUMPI POP PUSH1 0x0 PUSH2 0xC07 JUMP JUMPDEST PUSH1 0x0 PUSH2 0x18DE DUP4 DUP6 PUSH2 0x2A09 JUMP JUMPDEST SWAP1 POP DUP3 PUSH2 0x18EB DUP6 DUP4 PUSH2 0x2978 JUMP JUMPDEST EQ PUSH2 0x1942 JUMPI PUSH1 0x40 MLOAD PUSH3 0x461BCD PUSH1 0xE5 SHL DUP2 MSTORE PUSH1 0x20 PUSH1 0x4 DUP3 ADD MSTORE PUSH1 0x21 PUSH1 0x24 DUP3 ADD MSTORE PUSH32 0x536166654D6174683A206D756C7469706C69636174696F6E206F766572666C6F PUSH1 0x44 DUP3 ADD MSTORE PUSH1 0x77 PUSH1 0xF8 SHL PUSH1 0x64 DUP3 ADD MSTORE PUSH1 0x84 ADD PUSH2 0xBCC JUMP JUMPDEST SWAP4 SWAP3 POP POP POP JUMP JUMPDEST PUSH1 0x0 DUP1 PUSH2 0x1956 DUP4 DUP6 PUSH2 0x2A57 JUMP JUMPDEST SWAP1 POP DUP4 DUP2 LT ISZERO PUSH2 0x1942 JUMPI PUSH1 0x40 MLOAD PUSH3 0x461BCD PUSH1 0xE5 SHL DUP2 MSTORE PUSH1 0x20 PUSH1 0x4 DUP3 ADD MSTORE PUSH1 0x1B PUSH1 0x24 DUP3 ADD MSTORE PUSH32 0x536166654D6174683A206164646974696F6E206F766572666C6F770000000000 PUSH1 0x44 DUP3 ADD MSTORE PUSH1 0x64 ADD PUSH2 0xBCC JUMP JUMPDEST PUSH1 0x1 PUSH1 0x1 PUSH1 0xA0 SHL SUB DUP4 AND PUSH2 0x1A0A JUMPI PUSH1 0x40 MLOAD PUSH3 0x461BCD PUSH1 0xE5 SHL DUP2 MSTORE PUSH1 0x20 PUSH1 0x4 DUP3 ADD MSTORE PUSH1 0x24 DUP1 DUP3 ADD MSTORE PUSH32 0x45524332303A20617070726F76652066726F6D20746865207A65726F20616464 PUSH1 0x44 DUP3 ADD MSTORE PUSH4 0x72657373 PUSH1 0xE0 SHL PUSH1 0x64 DUP3 ADD MSTORE PUSH1 0x84 ADD PUSH2 0xBCC JUMP JUMPDEST PUSH1 0x1 PUSH1 0x1 PUSH1 0xA0 SHL SUB DUP3 AND PUSH2 0x1A6B JUMPI PUSH1 0x40 MLOAD PUSH3 0x461BCD PUSH1 0xE5 SHL DUP2 MSTORE PUSH1 0x20 PUSH1 0x4 DUP3 ADD MSTORE PUSH1 0x22 PUSH1 0x24 DUP3 ADD MSTORE PUSH32 0x45524332303A20617070726F766520746F20746865207A65726F206164647265 PUSH1 0x44 DUP3 ADD MSTORE PUSH2 0x7373 PUSH1 0xF0 SHL PUSH1 0x64 DUP3 ADD MSTORE PUSH1 0x84 ADD PUSH2 0xBCC JUMP JUMPDEST PUSH1 0x1 PUSH1 0x1 PUSH1 0xA0 SHL SUB DUP4 DUP2 AND PUSH1 0x0 DUP2 DUP2 MSTORE PUSH1 0x1 PUSH1 0x20 SWAP1 DUP2 MSTORE PUSH1 0x40 DUP1 DUP4 KECCAK256 SWAP5 DUP8 AND DUP1 DUP5 MSTORE SWAP5 DUP3 MSTORE SWAP2 DUP3 SWAP1 KECCAK256 DUP6 SWAP1 SSTORE SWAP1 MLOAD DUP5 DUP2 MSTORE PUSH32 0x8C5BE1E5EBEC7D5BD14F71427D1E84F3DD0314C0F7B2291E5B200AC8C7C3B925 SWAP2 ADD PUSH1 0x40 MLOAD DUP1 SWAP2 SUB SWAP1 LOG3 POP POP POP JUMP JUMPDEST PUSH1 0x40 MLOAD PUSH3 0x461BCD PUSH1 0xE5 SHL DUP2 MSTORE PUSH1 0x20 PUSH1 0x4 DUP3 ADD MSTORE PUSH1 0x2C PUSH1 0x24 DUP3 ADD MSTORE PUSH32 0x47425553445F4469766964656E645F547261636B65723A204E6F207472616E73 PUSH1 0x44 DUP3 ADD MSTORE PUSH12 0x19995C9CC8185B1B1BDDD959 PUSH1 0xA2 SHL PUSH1 0x64 DUP3 ADD MSTORE PUSH1 0x84 ADD PUSH2 0xBCC JUMP JUMPDEST POP POP POP JUMP JUMPDEST PUSH1 0x0 DUP2 DUP5 DUP5 GT ISZERO PUSH2 0x1B52 JUMPI PUSH1 0x40 MLOAD PUSH3 0x461BCD PUSH1 0xE5 SHL DUP2 MSTORE PUSH1 0x4 ADD PUSH2 0xBCC SWAP2 SWAP1 PUSH2 0x27C0 JUMP JUMPDEST POP PUSH1 0x0 PUSH2 0x1B5F DUP5 DUP7 PUSH2 0x2A6F JUMP JUMPDEST SWAP6 SWAP5 POP POP POP POP POP JUMP JUMPDEST PUSH1 0x0 DUP2 DUP2 DUP2 SLT ISZERO PUSH2 0xC07 JUMPI PUSH1 0x0 DUP1 REVERT JUMPDEST PUSH1 0x0 DUP1 PUSH2 0x1B85 DUP4 DUP6 PUSH2 0x2A86 JUMP JUMPDEST SWAP1 POP PUSH1 0x0 DUP4 SLT ISZERO DUP1 ISZERO PUSH2 0x1B98 JUMPI POP DUP4 DUP2 SLT ISZERO JUMPDEST DUP1 PUSH2 0x1BAD JUMPI POP PUSH1 0x0 DUP4 SLT DUP1 ISZERO PUSH2 0x1BAD JUMPI POP DUP4 DUP2 SLT JUMPDEST PUSH2 0x1942 JUMPI PUSH1 0x0 DUP1 REVERT JUMPDEST PUSH1 0x0 DUP1 DUP3 SLT ISZERO PUSH2 0x1BC5 JUMPI PUSH1 0x0 DUP1 REVERT JUMPDEST POP SWAP1 JUMP JUMPDEST PUSH1 0x1 PUSH1 0x1 PUSH1 0xA0 SHL SUB DUP3 AND PUSH1 0x0 SWAP1 DUP2 MSTORE PUSH1 0x20 DUP2 SWAP1 MSTORE PUSH1 0x40 SWAP1 KECCAK256 SLOAD DUP1 DUP3 GT ISZERO PUSH2 0x1C08 JUMPI PUSH1 0x0 PUSH2 0x1BF6 DUP4 DUP4 PUSH2 0x1D96 JUMP JUMPDEST SWAP1 POP PUSH2 0x1C02 DUP5 DUP3 PUSH2 0x2535 JUMP JUMPDEST POP POP POP POP JUMP JUMPDEST DUP1 DUP3 LT ISZERO PUSH2 0x1B29 JUMPI PUSH1 0x0 PUSH2 0x1C1C DUP3 DUP5 PUSH2 0x1D96 JUMP JUMPDEST SWAP1 POP PUSH2 0x1C02 DUP5 DUP3 PUSH2 0x2599 JUMP JUMPDEST PUSH1 0x1 PUSH1 0x1 PUSH1 0xA0 SHL SUB DUP2 AND PUSH1 0x0 SWAP1 DUP2 MSTORE PUSH1 0x3 DUP4 ADD PUSH1 0x20 MSTORE PUSH1 0x40 SWAP1 KECCAK256 SLOAD PUSH1 0xFF AND PUSH2 0x1C4E JUMPI POP POP JUMP JUMPDEST PUSH1 0x1 PUSH1 0x1 PUSH1 0xA0 SHL SUB DUP2 AND PUSH1 0x0 SWAP1 DUP2 MSTORE PUSH1 0x3 DUP4 ADD PUSH1 0x20 SWAP1 DUP2 MSTORE PUSH1 0x40 DUP1 DUP4 KECCAK256 DUP1 SLOAD PUSH1 0xFF NOT AND SWAP1 SSTORE PUSH1 0x1 DUP1 DUP7 ADD DUP4 MSTORE DUP2 DUP5 KECCAK256 DUP5 SWAP1 SSTORE PUSH1 0x2 DUP7 ADD SWAP1 SWAP3 MSTORE DUP3 KECCAK256 SLOAD DUP5 SLOAD SWAP1 SWAP3 SWAP2 PUSH2 0x1C98 SWAP2 PUSH2 0x2A6F JUMP JUMPDEST SWAP1 POP PUSH1 0x0 DUP5 PUSH1 0x0 ADD DUP3 DUP2 SLOAD DUP2 LT PUSH2 0x1CB1 JUMPI PUSH2 0x1CB1 PUSH2 0x2A41 JUMP JUMPDEST PUSH1 0x0 SWAP2 DUP3 MSTORE PUSH1 0x20 DUP1 DUP4 KECCAK256 SWAP1 SWAP2 ADD SLOAD PUSH1 0x1 PUSH1 0x1 PUSH1 0xA0 SHL SUB SWAP1 DUP2 AND DUP1 DUP5 MSTORE PUSH1 0x2 DUP10 ADD SWAP1 SWAP3 MSTORE PUSH1 0x40 DUP1 DUP5 KECCAK256 DUP8 SWAP1 SSTORE SWAP1 DUP8 AND DUP4 MSTORE DUP3 KECCAK256 SWAP2 SWAP1 SWAP2 SSTORE DUP6 SLOAD SWAP1 SWAP2 POP DUP2 SWAP1 DUP7 SWAP1 DUP6 SWAP1 DUP2 LT PUSH2 0x1D00 JUMPI PUSH2 0x1D00 PUSH2 0x2A41 JUMP JUMPDEST PUSH1 0x0 SWAP2 DUP3 MSTORE PUSH1 0x20 SWAP1 SWAP2 KECCAK256 ADD DUP1 SLOAD PUSH1 0x1 PUSH1 0x1 PUSH1 0xA0 SHL SUB NOT AND PUSH1 0x1 PUSH1 0x1 PUSH1 0xA0 SHL SUB SWAP3 SWAP1 SWAP3 AND SWAP2 SWAP1 SWAP2 OR SWAP1 SSTORE DUP5 SLOAD DUP6 SWAP1 DUP1 PUSH2 0x1D3A JUMPI PUSH2 0x1D3A PUSH2 0x2AC7 JUMP JUMPDEST PUSH1 0x0 DUP3 DUP2 MSTORE PUSH1 0x20 SWAP1 KECCAK256 DUP2 ADD PUSH1 0x0 NOT SWAP1 DUP2 ADD DUP1 SLOAD PUSH1 0x1 PUSH1 0x1 PUSH1 0xA0 SHL SUB NOT AND SWAP1 SSTORE ADD SWAP1 SSTORE POP POP POP POP POP JUMP JUMPDEST PUSH1 0x0 DUP3 PUSH1 0x0 ADD DUP3 DUP2 SLOAD DUP2 LT PUSH2 0x1D7A JUMPI PUSH2 0x1D7A PUSH2 0x2A41 JUMP JUMPDEST PUSH1 0x0 SWAP2 DUP3 MSTORE PUSH1 0x20 SWAP1 SWAP2 KECCAK256 ADD SLOAD PUSH1 0x1 PUSH1 0x1 PUSH1 0xA0 SHL SUB AND SWAP4 SWAP3 POP POP POP JUMP JUMPDEST PUSH1 0x0 PUSH2 0x1942 DUP4 DUP4 PUSH1 0x40 MLOAD DUP1 PUSH1 0x40 ADD PUSH1 0x40 MSTORE DUP1 PUSH1 0x1E DUP2 MSTORE PUSH1 0x20 ADD PUSH32 0x536166654D6174683A207375627472616374696F6E206F766572666C6F770000 DUP2 MSTORE POP PUSH2 0x1B2E JUMP JUMPDEST PUSH1 0x0 DUP1 PUSH2 0x1DE4 DUP4 PUSH2 0x12C1 JUMP JUMPDEST SWAP1 POP DUP1 ISZERO PUSH2 0x2088 JUMPI PUSH1 0x1 PUSH1 0x1 PUSH1 0xA0 SHL SUB DUP4 AND PUSH1 0x0 SWAP1 DUP2 MSTORE PUSH1 0x7 PUSH1 0x20 MSTORE PUSH1 0x40 SWAP1 KECCAK256 SLOAD PUSH2 0x1E0F SWAP1 DUP3 PUSH2 0x1949 JUMP JUMPDEST PUSH1 0x1 PUSH1 0x1 PUSH1 0xA0 SHL SUB DUP1 DUP6 AND PUSH1 0x0 SWAP1 DUP2 MSTORE PUSH1 0x7 PUSH1 0x20 MSTORE PUSH1 0x40 DUP2 KECCAK256 SWAP3 SWAP1 SWAP3 SSTORE PUSH1 0x12 SLOAD AND SWAP1 DUP2 PUSH2 0x1E94 JUMPI PUSH1 0x40 MLOAD PUSH1 0x1 PUSH1 0x1 PUSH1 0xA0 SHL SUB DUP7 AND SWAP1 PUSH2 0xBB8 SWAP1 DUP6 SWAP1 PUSH1 0x0 DUP2 DUP2 DUP2 DUP6 DUP9 DUP9 CALL SWAP4 POP POP POP POP RETURNDATASIZE DUP1 PUSH1 0x0 DUP2 EQ PUSH2 0x1E84 JUMPI PUSH1 0x40 MLOAD SWAP2 POP PUSH1 0x1F NOT PUSH1 0x3F RETURNDATASIZE ADD AND DUP3 ADD PUSH1 0x40 MSTORE RETURNDATASIZE DUP3 MSTORE RETURNDATASIZE PUSH1 0x0 PUSH1 0x20 DUP5 ADD RETURNDATACOPY PUSH2 0x1E89 JUMP JUMPDEST PUSH1 0x60 SWAP2 POP JUMPDEST POP POP DUP1 SWAP2 POP POP PUSH2 0x1FEE JUMP JUMPDEST PUSH1 0x40 DUP1 MLOAD PUSH1 0x2 DUP1 DUP3 MSTORE PUSH1 0x60 DUP3 ADD DUP4 MSTORE PUSH1 0x0 SWAP3 PUSH1 0x20 DUP4 ADD SWAP1 DUP1 CALLDATASIZE DUP4 CALLDATACOPY POP POP PUSH1 0x15 SLOAD PUSH1 0x40 DUP1 MLOAD PUSH4 0x15AB88C9 PUSH1 0xE3 SHL DUP2 MSTORE SWAP1 MLOAD SWAP4 SWAP5 POP PUSH1 0x1 PUSH1 0x1 PUSH1 0xA0 SHL SUB SWAP1 SWAP2 AND SWAP3 PUSH4 0xAD5C4648 SWAP3 POP PUSH1 0x4 DUP1 DUP4 ADD SWAP3 PUSH1 0x20 SWAP3 SWAP2 SWAP1 DUP3 SWAP1 SUB ADD DUP2 DUP7 GAS STATICCALL ISZERO DUP1 ISZERO PUSH2 0x1EFE JUMPI RETURNDATASIZE PUSH1 0x0 DUP1 RETURNDATACOPY RETURNDATASIZE PUSH1 0x0 REVERT JUMPDEST POP POP POP POP PUSH1 0x40 MLOAD RETURNDATASIZE PUSH1 0x1F NOT PUSH1 0x1F DUP3 ADD AND DUP3 ADD DUP1 PUSH1 0x40 MSTORE POP DUP2 ADD SWAP1 PUSH2 0x1F22 SWAP2 SWAP1 PUSH2 0x2ADD JUMP JUMPDEST DUP2 PUSH1 0x0 DUP2 MLOAD DUP2 LT PUSH2 0x1F35 JUMPI PUSH2 0x1F35 PUSH2 0x2A41 JUMP JUMPDEST PUSH1 0x20 MUL PUSH1 0x20 ADD ADD SWAP1 PUSH1 0x1 PUSH1 0x1 PUSH1 0xA0 SHL SUB AND SWAP1 DUP2 PUSH1 0x1 PUSH1 0x1 PUSH1 0xA0 SHL SUB AND DUP2 MSTORE POP POP DUP3 DUP2 PUSH1 0x1 DUP2 MLOAD DUP2 LT PUSH2 0x1F69 JUMPI PUSH2 0x1F69 PUSH2 0x2A41 JUMP JUMPDEST PUSH1 0x1 PUSH1 0x1 PUSH1 0xA0 SHL SUB SWAP3 DUP4 AND PUSH1 0x20 SWAP2 DUP3 MUL SWAP3 SWAP1 SWAP3 ADD ADD MSTORE PUSH1 0x15 SLOAD PUSH1 0x40 MLOAD PUSH4 0xB6F9DE95 PUSH1 0xE0 SHL DUP2 MSTORE SWAP2 AND SWAP1 PUSH4 0xB6F9DE95 SWAP1 DUP7 SWAP1 PUSH2 0x1FAF SWAP1 PUSH1 0x0 SWAP1 DUP7 SWAP1 DUP13 SWAP1 TIMESTAMP SWAP1 PUSH1 0x4 ADD PUSH2 0x2B3E JUMP JUMPDEST PUSH1 0x0 PUSH1 0x40 MLOAD DUP1 DUP4 SUB DUP2 DUP6 DUP9 DUP1 EXTCODESIZE ISZERO DUP1 ISZERO PUSH2 0x1FC8 JUMPI PUSH1 0x0 DUP1 REVERT JUMPDEST POP GAS CALL SWAP4 POP POP POP POP DUP1 ISZERO PUSH2 0x1FDA JUMPI POP PUSH1 0x1 JUMPDEST PUSH2 0x1FE7 JUMPI PUSH1 0x0 SWAP2 POP PUSH2 0x1FEC JUMP JUMPDEST PUSH1 0x1 SWAP2 POP JUMPDEST POP JUMPDEST DUP1 PUSH2 0x203C JUMPI PUSH1 0x1 PUSH1 0x1 PUSH1 0xA0 SHL SUB DUP6 AND PUSH1 0x0 SWAP1 DUP2 MSTORE PUSH1 0x7 PUSH1 0x20 MSTORE PUSH1 0x40 SWAP1 KECCAK256 SLOAD PUSH2 0x2016 SWAP1 DUP5 PUSH2 0x1D96 JUMP JUMPDEST PUSH1 0x1 PUSH1 0x1 PUSH1 0xA0 SHL SUB SWAP1 SWAP6 AND PUSH1 0x0 SWAP1 DUP2 MSTORE PUSH1 0x7 PUSH1 0x20 MSTORE PUSH1 0x40 DUP2 KECCAK256 SWAP6 SWAP1 SWAP6 SSTORE POP SWAP3 SWAP4 SWAP3 POP POP POP JUMP JUMPDEST DUP5 PUSH1 0x1 PUSH1 0x1 PUSH1 0xA0 SHL SUB AND PUSH32 0xEE503BEE2BB6A87E57BC57DB795F98137327401A0E7B7CE42E37926CC1A9CA4D DUP5 PUSH1 0x40 MLOAD PUSH2 0x2077 SWAP2 DUP2 MSTORE PUSH1 0x20 ADD SWAP1 JUMP JUMPDEST PUSH1 0x40 MLOAD DUP1 SWAP2 SUB SWAP1 LOG2 POP SWAP1 SWAP4 SWAP3 POP POP POP JUMP JUMPDEST POP PUSH1 0x0 SWAP3 SWAP2 POP POP JUMP JUMPDEST PUSH1 0x0 DUP1 PUSH2 0x209D DUP4 PUSH2 0x12C1 JUMP JUMPDEST SWAP1 POP DUP1 ISZERO PUSH2 0x2088 JUMPI PUSH1 0x1 PUSH1 0x1 PUSH1 0xA0 SHL SUB DUP4 AND PUSH1 0x0 SWAP1 DUP2 MSTORE PUSH1 0x7 PUSH1 0x20 MSTORE PUSH1 0x40 DUP2 KECCAK256 SLOAD PUSH2 0x20C8 SWAP1 DUP4 PUSH2 0x1949 JUMP JUMPDEST PUSH1 0x1 PUSH1 0x1 PUSH1 0xA0 SHL SUB DUP6 AND PUSH1 0x0 SWAP1 DUP2 MSTORE PUSH1 0x7 PUSH1 0x20 MSTORE PUSH1 0x40 DUP1 DUP3 KECCAK256 SWAP3 SWAP1 SWAP3 SSTORE DUP2 MLOAD PUSH1 0x2 DUP1 DUP3 MSTORE PUSH1 0x60 DUP3 ADD SWAP1 SWAP4 MSTORE SWAP1 SWAP2 DUP2 PUSH1 0x20 ADD PUSH1 0x20 DUP3 MUL DUP1 CALLDATASIZE DUP4 CALLDATACOPY POP POP PUSH1 0x15 SLOAD PUSH1 0x40 DUP1 MLOAD PUSH4 0x15AB88C9 PUSH1 0xE3 SHL DUP2 MSTORE SWAP1 MLOAD SWAP4 SWAP5 POP PUSH1 0x1 PUSH1 0x1 PUSH1 0xA0 SHL SUB SWAP1 SWAP2 AND SWAP3 PUSH4 0xAD5C4648 SWAP3 POP PUSH1 0x4 DUP1 DUP4 ADD SWAP3 PUSH1 0x20 SWAP3 SWAP2 SWAP1 DUP3 SWAP1 SUB ADD DUP2 DUP7 GAS STATICCALL ISZERO DUP1 ISZERO PUSH2 0x2150 JUMPI RETURNDATASIZE PUSH1 0x0 DUP1 RETURNDATACOPY RETURNDATASIZE PUSH1 0x0 REVERT JUMPDEST POP POP POP POP PUSH1 0x40 MLOAD RETURNDATASIZE PUSH1 0x1F NOT PUSH1 0x1F DUP3 ADD AND DUP3 ADD DUP1 PUSH1 0x40 MSTORE POP DUP2 ADD SWAP1 PUSH2 0x2174 SWAP2 SWAP1 PUSH2 0x2ADD JUMP JUMPDEST DUP2 PUSH1 0x0 DUP2 MLOAD DUP2 LT PUSH2 0x2187 JUMPI PUSH2 0x2187 PUSH2 0x2A41 JUMP JUMPDEST PUSH1 0x1 PUSH1 0x1 PUSH1 0xA0 SHL SUB SWAP3 DUP4 AND PUSH1 0x20 SWAP2 DUP3 MUL SWAP3 SWAP1 SWAP3 ADD ADD MSTORE PUSH1 0x16 SLOAD DUP3 MLOAD SWAP2 AND SWAP1 DUP3 SWAP1 PUSH1 0x1 SWAP1 DUP2 LT PUSH2 0x21B8 JUMPI PUSH2 0x21B8 PUSH2 0x2A41 JUMP JUMPDEST PUSH1 0x1 PUSH1 0x1 PUSH1 0xA0 SHL SUB SWAP3 DUP4 AND PUSH1 0x20 SWAP2 DUP3 MUL SWAP3 SWAP1 SWAP3 ADD ADD MSTORE PUSH1 0x16 SLOAD PUSH1 0x40 MLOAD PUSH4 0x70A08231 PUSH1 0xE0 SHL DUP2 MSTORE ADDRESS PUSH1 0x4 DUP3 ADD MSTORE PUSH1 0x0 SWAP3 SWAP2 SWAP1 SWAP2 AND SWAP1 PUSH4 0x70A08231 SWAP1 PUSH1 0x24 ADD PUSH1 0x20 PUSH1 0x40 MLOAD DUP1 DUP4 SUB DUP2 DUP7 GAS STATICCALL ISZERO DUP1 ISZERO PUSH2 0x2212 JUMPI RETURNDATASIZE PUSH1 0x0 DUP1 RETURNDATACOPY RETURNDATASIZE PUSH1 0x0 REVERT JUMPDEST POP POP POP POP PUSH1 0x40 MLOAD RETURNDATASIZE PUSH1 0x1F NOT PUSH1 0x1F DUP3 ADD AND DUP3 ADD DUP1 PUSH1 0x40 MSTORE POP DUP2 ADD SWAP1 PUSH2 0x2236 SWAP2 SWAP1 PUSH2 0x2B73 JUMP JUMPDEST PUSH1 0x15 SLOAD PUSH1 0x40 MLOAD PUSH4 0xB6F9DE95 PUSH1 0xE0 SHL DUP2 MSTORE SWAP2 SWAP3 POP PUSH1 0x1 PUSH1 0x1 PUSH1 0xA0 SHL SUB AND SWAP1 PUSH4 0xB6F9DE95 SWAP1 DUP7 SWAP1 PUSH2 0x2270 SWAP1 PUSH1 0x0 SWAP1 DUP8 SWAP1 ADDRESS SWAP1 TIMESTAMP SWAP1 PUSH1 0x4 ADD PUSH2 0x2B3E JUMP JUMPDEST PUSH1 0x0 PUSH1 0x40 MLOAD DUP1 DUP4 SUB DUP2 DUP6 DUP9 DUP1 EXTCODESIZE ISZERO DUP1 ISZERO PUSH2 0x2289 JUMPI PUSH1 0x0 DUP1 REVERT JUMPDEST POP GAS CALL SWAP4 POP POP POP POP DUP1 ISZERO PUSH2 0x229B JUMPI POP PUSH1 0x1 JUMPDEST PUSH2 0x22A8 JUMPI PUSH1 0x0 SWAP3 POP PUSH2 0x23AB JUMP JUMPDEST PUSH1 0x16 SLOAD PUSH1 0x40 MLOAD PUSH4 0x70A08231 PUSH1 0xE0 SHL DUP2 MSTORE ADDRESS PUSH1 0x4 DUP3 ADD MSTORE PUSH1 0x0 SWAP2 PUSH2 0x231B SWAP2 DUP5 SWAP2 PUSH1 0x1 PUSH1 0x1 PUSH1 0xA0 SHL SUB AND SWAP1 PUSH4 0x70A08231 SWAP1 PUSH1 0x24 ADD PUSH1 0x20 PUSH1 0x40 MLOAD DUP1 DUP4 SUB DUP2 DUP7 GAS STATICCALL ISZERO DUP1 ISZERO PUSH2 0x22F7 JUMPI RETURNDATASIZE PUSH1 0x0 DUP1 RETURNDATACOPY RETURNDATASIZE PUSH1 0x0 REVERT JUMPDEST POP POP POP POP PUSH1 0x40 MLOAD RETURNDATASIZE PUSH1 0x1F NOT PUSH1 0x1F DUP3 ADD AND DUP3 ADD DUP1 PUSH1 0x40 MSTORE POP DUP2 ADD SWAP1 PUSH2 0x12E7 SWAP2 SWAP1 PUSH2 0x2B73 JUMP JUMPDEST SWAP1 POP DUP1 ISZERO PUSH2 0x23A4 JUMPI PUSH1 0x16 SLOAD PUSH1 0x40 MLOAD PUSH4 0xA9059CBB PUSH1 0xE0 SHL DUP2 MSTORE PUSH1 0x1 PUSH1 0x1 PUSH1 0xA0 SHL SUB DUP10 DUP2 AND PUSH1 0x4 DUP4 ADD MSTORE PUSH1 0x24 DUP3 ADD DUP5 SWAP1 MSTORE PUSH1 0x1 SWAP7 POP SWAP1 SWAP2 AND SWAP1 PUSH4 0xA9059CBB SWAP1 PUSH1 0x44 ADD PUSH1 0x20 PUSH1 0x40 MLOAD DUP1 DUP4 SUB DUP2 PUSH1 0x0 DUP8 GAS CALL ISZERO DUP1 ISZERO PUSH2 0x237A JUMPI RETURNDATASIZE PUSH1 0x0 DUP1 RETURNDATACOPY RETURNDATASIZE PUSH1 0x0 REVERT JUMPDEST POP POP POP POP PUSH1 0x40 MLOAD RETURNDATASIZE PUSH1 0x1F NOT PUSH1 0x1F DUP3 ADD AND DUP3 ADD DUP1 PUSH1 0x40 MSTORE POP DUP2 ADD SWAP1 PUSH2 0x239E SWAP2 SWAP1 PUSH2 0x2B8C JUMP JUMPDEST POP PUSH2 0x23A9 JUMP JUMPDEST PUSH1 0x0 SWAP4 POP JUMPDEST POP JUMPDEST DUP3 PUSH2 0x23FA JUMPI PUSH1 0x1 PUSH1 0x1 PUSH1 0xA0 SHL SUB DUP7 AND PUSH1 0x0 SWAP1 DUP2 MSTORE PUSH1 0x7 PUSH1 0x20 MSTORE PUSH1 0x40 SWAP1 KECCAK256 SLOAD PUSH2 0x23D3 SWAP1 DUP6 PUSH2 0x1D96 JUMP JUMPDEST PUSH1 0x1 PUSH1 0x1 PUSH1 0xA0 SHL SUB SWAP1 SWAP7 AND PUSH1 0x0 SWAP1 DUP2 MSTORE PUSH1 0x7 PUSH1 0x20 MSTORE PUSH1 0x40 DUP2 KECCAK256 SWAP7 SWAP1 SWAP7 SSTORE POP SWAP4 SWAP5 SWAP4 POP POP POP POP JUMP JUMPDEST POP SWAP2 SWAP5 SWAP4 POP POP POP POP JUMP JUMPDEST PUSH1 0x1 PUSH1 0x1 PUSH1 0xA0 SHL SUB DUP3 AND PUSH1 0x0 SWAP1 DUP2 MSTORE PUSH1 0x3 DUP5 ADD PUSH1 0x20 MSTORE PUSH1 0x40 SWAP1 KECCAK256 SLOAD PUSH1 0xFF AND ISZERO PUSH2 0x2449 JUMPI PUSH1 0x1 PUSH1 0x1 PUSH1 0xA0 SHL SUB DUP3 AND PUSH1 0x0 SWAP1 DUP2 MSTORE PUSH1 0x1 DUP5 ADD PUSH1 0x20 MSTORE PUSH1 0x40 SWAP1 KECCAK256 DUP2 SWAP1 SSTORE POP POP POP JUMP JUMPDEST PUSH1 0x1 PUSH1 0x1 PUSH1 0xA0 SHL SUB DUP3 AND PUSH1 0x0 DUP2 DUP2 MSTORE PUSH1 0x3 DUP6 ADD PUSH1 0x20 SWAP1 DUP2 MSTORE PUSH1 0x40 DUP1 DUP4 KECCAK256 DUP1 SLOAD PUSH1 0xFF NOT AND PUSH1 0x1 SWAP1 DUP2 OR SWAP1 SWAP2 SSTORE DUP8 DUP2 ADD DUP4 MSTORE DUP2 DUP5 KECCAK256 DUP7 SWAP1 SSTORE DUP8 SLOAD PUSH1 0x2 DUP10 ADD DUP5 MSTORE SWAP2 DUP5 KECCAK256 DUP3 SWAP1 SSTORE DUP2 ADD DUP8 SSTORE DUP7 DUP4 MSTORE SWAP2 KECCAK256 ADD DUP1 SLOAD PUSH1 0x1 PUSH1 0x1 PUSH1 0xA0 SHL SUB NOT AND SWAP1 SWAP2 OR SWAP1 SSTORE POP POP POP JUMP JUMPDEST PUSH1 0x1 PUSH1 0x1 PUSH1 0xA0 SHL SUB DUP2 AND PUSH1 0x0 SWAP1 DUP2 MSTORE PUSH1 0x3 DUP4 ADD PUSH1 0x20 MSTORE PUSH1 0x40 DUP2 KECCAK256 SLOAD PUSH1 0xFF AND PUSH2 0x24D8 JUMPI POP PUSH1 0x0 NOT PUSH2 0xC07 JUMP JUMPDEST POP PUSH1 0x1 PUSH1 0x1 PUSH1 0xA0 SHL SUB AND PUSH1 0x0 SWAP1 DUP2 MSTORE PUSH1 0x2 SWAP2 SWAP1 SWAP2 ADD PUSH1 0x20 MSTORE PUSH1 0x40 SWAP1 KECCAK256 SLOAD SWAP1 JUMP JUMPDEST PUSH1 0x0 DUP1 PUSH2 0x2505 DUP4 DUP6 PUSH2 0x2BA9 JUMP JUMPDEST SWAP1 POP PUSH1 0x0 DUP4 SLT ISZERO DUP1 ISZERO PUSH2 0x2518 JUMPI POP DUP4 DUP2 SGT ISZERO JUMPDEST DUP1 PUSH2 0x1BAD JUMPI POP PUSH1 0x0 DUP4 SLT DUP1 ISZERO PUSH2 0x1BAD JUMPI POP DUP4 DUP2 SGT PUSH2 0x1942 JUMPI PUSH1 0x0 DUP1 REVERT JUMPDEST PUSH2 0x253F DUP3 DUP3 PUSH2 0x25DD JUMP JUMPDEST PUSH2 0x2579 PUSH2 0x255A PUSH2 0xCB8 DUP4 PUSH1 0x5 SLOAD PUSH2 0x18C0 SWAP1 SWAP2 SWAP1 PUSH4 0xFFFFFFFF AND JUMP JUMPDEST PUSH1 0x1 PUSH1 0x1 PUSH1 0xA0 SHL SUB DUP5 AND PUSH1 0x0 SWAP1 DUP2 MSTORE PUSH1 0x6 PUSH1 0x20 MSTORE PUSH1 0x40 SWAP1 KECCAK256 SLOAD SWAP1 PUSH2 0x24F8 JUMP JUMPDEST PUSH1 0x1 PUSH1 0x1 PUSH1 0xA0 SHL SUB SWAP1 SWAP3 AND PUSH1 0x0 SWAP1 DUP2 MSTORE PUSH1 0x6 PUSH1 0x20 MSTORE PUSH1 0x40 SWAP1 KECCAK256 SWAP2 SWAP1 SWAP2 SSTORE POP JUMP JUMPDEST PUSH2 0x25A3 DUP3 DUP3 PUSH2 0x26BC JUMP JUMPDEST PUSH2 0x2579 PUSH2 0x25BE PUSH2 0xCB8 DUP4 PUSH1 0x5 SLOAD PUSH2 0x18C0 SWAP1 SWAP2 SWAP1 PUSH4 0xFFFFFFFF AND JUMP JUMPDEST PUSH1 0x1 PUSH1 0x1 PUSH1 0xA0 SHL SUB DUP5 AND PUSH1 0x0 SWAP1 DUP2 MSTORE PUSH1 0x6 PUSH1 0x20 MSTORE PUSH1 0x40 SWAP1 KECCAK256 SLOAD SWAP1 PUSH2 0x1B78 JUMP JUMPDEST PUSH1 0x1 PUSH1 0x1 PUSH1 0xA0 SHL SUB DUP3 AND PUSH2 0x2633 JUMPI PUSH1 0x40 MLOAD PUSH3 0x461BCD PUSH1 0xE5 SHL DUP2 MSTORE PUSH1 0x20 PUSH1 0x4 DUP3 ADD MSTORE PUSH1 0x1F PUSH1 0x24 DUP3 ADD MSTORE PUSH32 0x45524332303A206D696E7420746F20746865207A65726F206164647265737300 PUSH1 0x44 DUP3 ADD MSTORE PUSH1 0x64 ADD PUSH2 0xBCC JUMP JUMPDEST PUSH1 0x2 SLOAD PUSH2 0x2640 SWAP1 DUP3 PUSH2 0x1949 JUMP JUMPDEST PUSH1 0x2 SSTORE PUSH1 0x1 PUSH1 0x1 PUSH1 0xA0 SHL SUB DUP3 AND PUSH1 0x0 SWAP1 DUP2 MSTORE PUSH1 0x20 DUP2 SWAP1 MSTORE PUSH1 0x40 SWAP1 KECCAK256 SLOAD PUSH2 0x2666 SWAP1 DUP3 PUSH2 0x1949 JUMP JUMPDEST PUSH1 0x1 PUSH1 0x1 PUSH1 0xA0 SHL SUB DUP4 AND PUSH1 0x0 DUP2 DUP2 MSTORE PUSH1 0x20 DUP2 DUP2 MSTORE PUSH1 0x40 DUP1 DUP4 KECCAK256 SWAP5 SWAP1 SWAP5 SSTORE SWAP3 MLOAD DUP5 DUP2 MSTORE SWAP2 SWAP3 SWAP1 SWAP2 PUSH32 0xDDF252AD1BE2C89B69C2B068FC378DAA952BA7F163C4A11628F55A4DF523B3EF SWAP2 ADD JUMPDEST PUSH1 0x40 MLOAD DUP1 SWAP2 SUB SWAP1 LOG3 POP POP JUMP JUMPDEST PUSH1 0x1 PUSH1 0x1 PUSH1 0xA0 SHL SUB DUP3 AND PUSH2 0x271C JUMPI PUSH1 0x40 MLOAD PUSH3 0x461BCD PUSH1 0xE5 SHL DUP2 MSTORE PUSH1 0x20 PUSH1 0x4 DUP3 ADD MSTORE PUSH1 0x21 PUSH1 0x24 DUP3 ADD MSTORE PUSH32 0x45524332303A206275726E2066726F6D20746865207A65726F20616464726573 PUSH1 0x44 DUP3 ADD MSTORE PUSH1 0x73 PUSH1 0xF8 SHL PUSH1 0x64 DUP3 ADD MSTORE PUSH1 0x84 ADD PUSH2 0xBCC JUMP JUMPDEST PUSH2 0x2759 DUP2 PUSH1 0x40 MLOAD DUP1 PUSH1 0x60 ADD PUSH1 0x40 MSTORE DUP1 PUSH1 0x22 DUP2 MSTORE PUSH1 0x20 ADD PUSH2 0x2BE9 PUSH1 0x22 SWAP2 CODECOPY PUSH1 0x1 PUSH1 0x1 PUSH1 0xA0 SHL SUB DUP6 AND PUSH1 0x0 SWAP1 DUP2 MSTORE PUSH1 0x20 DUP2 SWAP1 MSTORE PUSH1 0x40 SWAP1 KECCAK256 SLOAD SWAP2 SWAP1 PUSH2 0x1B2E JUMP JUMPDEST PUSH1 0x1 PUSH1 0x1 PUSH1 0xA0 SHL SUB DUP4 AND PUSH1 0x0 SWAP1 DUP2 MSTORE PUSH1 0x20 DUP2 SWAP1 MSTORE PUSH1 0x40 SWAP1 KECCAK256 SSTORE PUSH1 0x2 SLOAD PUSH2 0x277F SWAP1 DUP3 PUSH2 0x1D96 JUMP JUMPDEST PUSH1 0x2 SSTORE PUSH1 0x40 MLOAD DUP2 DUP2 MSTORE PUSH1 0x0 SWAP1 PUSH1 0x1 PUSH1 0x1 PUSH1 0xA0 SHL SUB DUP5 AND SWAP1 PUSH32 0xDDF252AD1BE2C89B69C2B068FC378DAA952BA7F163C4A11628F55A4DF523B3EF SWAP1 PUSH1 0x20 ADD PUSH2 0x26B0 JUMP JUMPDEST PUSH1 0x0 PUSH1 0x20 DUP1 DUP4 MSTORE DUP4 MLOAD DUP1 DUP3 DUP6 ADD MSTORE PUSH1 0x0 JUMPDEST DUP2 DUP2 LT ISZERO PUSH2 0x27ED JUMPI DUP6 DUP2 ADD DUP4 ADD MLOAD DUP6 DUP3 ADD PUSH1 0x40 ADD MSTORE DUP3 ADD PUSH2 0x27D1 JUMP JUMPDEST DUP2 DUP2 GT ISZERO PUSH2 0x27FF JUMPI PUSH1 0x0 PUSH1 0x40 DUP4 DUP8 ADD ADD MSTORE JUMPDEST POP PUSH1 0x1F ADD PUSH1 0x1F NOT AND SWAP3 SWAP1 SWAP3 ADD PUSH1 0x40 ADD SWAP4 SWAP3 POP POP POP JUMP JUMPDEST PUSH1 0x1 PUSH1 0x1 PUSH1 0xA0 SHL SUB DUP2 AND DUP2 EQ PUSH2 0x282A JUMPI PUSH1 0x0 DUP1 REVERT JUMPDEST POP JUMP JUMPDEST PUSH1 0x0 PUSH1 0x20 DUP3 DUP5 SUB SLT ISZERO PUSH2 0x283F JUMPI PUSH1 0x0 DUP1 REVERT JUMPDEST DUP2 CALLDATALOAD PUSH2 0x1942 DUP2 PUSH2 0x2815 JUMP JUMPDEST PUSH1 0x0 DUP1 PUSH1 0x40 DUP4 DUP6 SUB SLT ISZERO PUSH2 0x285D JUMPI PUSH1 0x0 DUP1 REVERT JUMPDEST DUP3 CALLDATALOAD PUSH2 0x2868 DUP2 PUSH2 0x2815 JUMP JUMPDEST SWAP5 PUSH1 0x20 SWAP4 SWAP1 SWAP4 ADD CALLDATALOAD SWAP4 POP POP POP JUMP JUMPDEST PUSH1 0x0 DUP1 PUSH1 0x0 PUSH1 0x60 DUP5 DUP7 SUB SLT ISZERO PUSH2 0x288B JUMPI PUSH1 0x0 DUP1 REVERT JUMPDEST DUP4 CALLDATALOAD PUSH2 0x2896 DUP2 PUSH2 0x2815 JUMP JUMPDEST SWAP3 POP PUSH1 0x20 DUP5 ADD CALLDATALOAD PUSH2 0x28A6 DUP2 PUSH2 0x2815 JUMP JUMPDEST SWAP3 SWAP6 SWAP3 SWAP5 POP POP POP PUSH1 0x40 SWAP2 SWAP1 SWAP2 ADD CALLDATALOAD SWAP1 JUMP JUMPDEST DUP1 ISZERO ISZERO DUP2 EQ PUSH2 0x282A JUMPI PUSH1 0x0 DUP1 REVERT JUMPDEST PUSH1 0x0 PUSH1 0x20 DUP3 DUP5 SUB SLT ISZERO PUSH2 0x28D7 JUMPI PUSH1 0x0 DUP1 REVERT JUMPDEST DUP2 CALLDATALOAD PUSH2 0x1942 DUP2 PUSH2 0x28B7 JUMP JUMPDEST PUSH1 0x0 PUSH1 0x20 DUP3 DUP5 SUB SLT ISZERO PUSH2 0x28F4 JUMPI PUSH1 0x0 DUP1 REVERT JUMPDEST POP CALLDATALOAD SWAP2 SWAP1 POP JUMP JUMPDEST PUSH1 0x0 DUP1 PUSH1 0x40 DUP4 DUP6 SUB SLT ISZERO PUSH2 0x290E JUMPI PUSH1 0x0 DUP1 REVERT JUMPDEST DUP3 CALLDATALOAD PUSH2 0x2919 DUP2 PUSH2 0x2815 JUMP JUMPDEST SWAP2 POP PUSH1 0x20 DUP4 ADD CALLDATALOAD PUSH2 0x2929 DUP2 PUSH2 0x28B7 JUMP JUMPDEST DUP1 SWAP2 POP POP SWAP3 POP SWAP3 SWAP1 POP JUMP JUMPDEST PUSH1 0x0 DUP1 PUSH1 0x40 DUP4 DUP6 SUB SLT ISZERO PUSH2 0x2947 JUMPI PUSH1 0x0 DUP1 REVERT JUMPDEST DUP3 CALLDATALOAD PUSH2 0x2952 DUP2 PUSH2 0x2815 JUMP JUMPDEST SWAP2 POP PUSH1 0x20 DUP4 ADD CALLDATALOAD PUSH2 0x2929 DUP2 PUSH2 0x2815 JUMP JUMPDEST PUSH4 0x4E487B71 PUSH1 0xE0 SHL PUSH1 0x0 MSTORE PUSH1 0x11 PUSH1 0x4 MSTORE PUSH1 0x24 PUSH1 0x0 REVERT JUMPDEST PUSH1 0x0 DUP3 PUSH2 0x2995 JUMPI PUSH4 0x4E487B71 PUSH1 0xE0 SHL PUSH1 0x0 MSTORE PUSH1 0x12 PUSH1 0x4 MSTORE PUSH1 0x24 PUSH1 0x0 REVERT JUMPDEST POP DIV SWAP1 JUMP JUMPDEST PUSH1 0x1 DUP2 DUP2 SHR SWAP1 DUP3 AND DUP1 PUSH2 0x29AE JUMPI PUSH1 0x7F DUP3 AND SWAP2 POP JUMPDEST PUSH1 0x20 DUP3 LT DUP2 SUB PUSH2 0x29CE JUMPI PUSH4 0x4E487B71 PUSH1 0xE0 SHL PUSH1 0x0 MSTORE PUSH1 0x22 PUSH1 0x4 MSTORE PUSH1 0x24 PUSH1 0x0 REVERT JUMPDEST POP SWAP2 SWAP1 POP JUMP JUMPDEST PUSH1 0x20 DUP1 DUP3 MSTORE DUP2 DUP2 ADD MSTORE PUSH32 0x4F776E61626C653A2063616C6C6572206973206E6F7420746865206F776E6572 PUSH1 0x40 DUP3 ADD MSTORE PUSH1 0x60 ADD SWAP1 JUMP JUMPDEST PUSH1 0x0 DUP2 PUSH1 0x0 NOT DIV DUP4 GT DUP3 ISZERO ISZERO AND ISZERO PUSH2 0x2A23 JUMPI PUSH2 0x2A23 PUSH2 0x2962 JUMP JUMPDEST POP MUL SWAP1 JUMP JUMPDEST PUSH1 0x0 PUSH1 0x1 DUP3 ADD PUSH2 0x2A3A JUMPI PUSH2 0x2A3A PUSH2 0x2962 JUMP JUMPDEST POP PUSH1 0x1 ADD SWAP1 JUMP JUMPDEST PUSH4 0x4E487B71 PUSH1 0xE0 SHL PUSH1 0x0 MSTORE PUSH1 0x32 PUSH1 0x4 MSTORE PUSH1 0x24 PUSH1 0x0 REVERT JUMPDEST PUSH1 0x0 DUP3 NOT DUP3 GT ISZERO PUSH2 0x2A6A JUMPI PUSH2 0x2A6A PUSH2 0x2962 JUMP JUMPDEST POP ADD SWAP1 JUMP JUMPDEST PUSH1 0x0 DUP3 DUP3 LT ISZERO PUSH2 0x2A81 JUMPI PUSH2 0x2A81 PUSH2 0x2962 JUMP JUMPDEST POP SUB SWAP1 JUMP JUMPDEST PUSH1 0x0 DUP1 DUP3 SLT DUP1 ISZERO PUSH1 0x1 PUSH1 0x1 PUSH1 0xFF SHL SUB DUP5 SWAP1 SUB DUP6 SGT AND ISZERO PUSH2 0x2AA8 JUMPI PUSH2 0x2AA8 PUSH2 0x2962 JUMP JUMPDEST PUSH1 0x1 PUSH1 0xFF SHL DUP4 SWAP1 SUB DUP5 SLT DUP2 AND ISZERO PUSH2 0x2AC1 JUMPI PUSH2 0x2AC1 PUSH2 0x2962 JUMP JUMPDEST POP POP ADD SWAP1 JUMP JUMPDEST PUSH4 0x4E487B71 PUSH1 0xE0 SHL PUSH1 0x0 MSTORE PUSH1 0x31 PUSH1 0x4 MSTORE PUSH1 0x24 PUSH1 0x0 REVERT JUMPDEST PUSH1 0x0 PUSH1 0x20 DUP3 DUP5 SUB SLT ISZERO PUSH2 0x2AEF JUMPI PUSH1 0x0 DUP1 REVERT JUMPDEST DUP2 MLOAD PUSH2 0x1942 DUP2 PUSH2 0x2815 JUMP JUMPDEST PUSH1 0x0 DUP2 MLOAD DUP1 DUP5 MSTORE PUSH1 0x20 DUP1 DUP6 ADD SWAP5 POP DUP1 DUP5 ADD PUSH1 0x0 JUMPDEST DUP4 DUP2 LT ISZERO PUSH2 0x2B33 JUMPI DUP2 MLOAD PUSH1 0x1 PUSH1 0x1 PUSH1 0xA0 SHL SUB AND DUP8 MSTORE SWAP6 DUP3 ADD SWAP6 SWAP1 DUP3 ADD SWAP1 PUSH1 0x1 ADD PUSH2 0x2B0E JUMP JUMPDEST POP SWAP5 SWAP6 SWAP5 POP POP POP POP POP JUMP JUMPDEST DUP5 DUP2 MSTORE PUSH1 0x80 PUSH1 0x20 DUP3 ADD MSTORE PUSH1 0x0 PUSH2 0x2B57 PUSH1 0x80 DUP4 ADD DUP7 PUSH2 0x2AFA JUMP JUMPDEST PUSH1 0x1 PUSH1 0x1 PUSH1 0xA0 SHL SUB SWAP5 SWAP1 SWAP5 AND PUSH1 0x40 DUP4 ADD MSTORE POP PUSH1 0x60 ADD MSTORE SWAP3 SWAP2 POP POP JUMP JUMPDEST PUSH1 0x0 PUSH1 0x20 DUP3 DUP5 SUB SLT ISZERO PUSH2 0x2B85 JUMPI PUSH1 0x0 DUP1 REVERT JUMPDEST POP MLOAD SWAP2 SWAP1 POP JUMP JUMPDEST PUSH1 0x0 PUSH1 0x20 DUP3 DUP5 SUB SLT ISZERO PUSH2 0x2B9E JUMPI PUSH1 0x0 DUP1 REVERT JUMPDEST DUP2 MLOAD PUSH2 0x1942 DUP2 PUSH2 0x28B7 JUMP JUMPDEST PUSH1 0x0 DUP1 DUP4 SLT DUP1 ISZERO PUSH1 0x1 PUSH1 0xFF SHL DUP6 ADD DUP5 SLT AND ISZERO PUSH2 0x2BC7 JUMPI PUSH2 0x2BC7 PUSH2 0x2962 JUMP JUMPDEST PUSH1 0x1 PUSH1 0x1 PUSH1 0xFF SHL SUB DUP5 ADD DUP4 SGT DUP2 AND ISZERO PUSH2 0x2BE2 JUMPI PUSH2 0x2BE2 PUSH2 0x2962 JUMP JUMPDEST POP POP SUB SWAP1 JUMP INVALID GASLIMIT MSTORE NUMBER ORIGIN ADDRESS GASPRICE KECCAK256 PUSH3 0x75726E KECCAK256 PUSH2 0x6D6F PUSH22 0x6E7420657863656564732062616C616E636545524332 ADDRESS GASPRICE KECCAK256 PUSH21 0x72616E7366657220616D6F756E7420657863656564 PUSH20 0x20616C6C6F77616E636545524332303A20646563 PUSH19 0x656173656420616C6C6F77616E63652062656C PUSH16 0x77207A65726FA2646970667358221220 SWAP2 0xB2 SWAP13 PUSH30 0x43B4BABC558702D56DE8DDBC77AE2FF0478C164EC321EEC42824D7296473 PUSH16 0x6C634300080F00330000000000000000 "
		},
		"gasEstimates": {
			"creation": {
				"codeDepositCost": "2281000",
				"executionCost": "infinite",
				"totalCost": "infinite"
			},
			"external": {
				"GBUSDContract()": "2425",
				"accumulativeDividendOf(address)": "infinite",
				"allowAutoReinvest()": "2483",
				"allowCustomTokens()": "2416",
				"allowance(address,address)": "infinite",
				"approve(address,uint256)": "24704",
				"autoReinvest(address)": "2616",
				"balanceOf(address)": "2602",
				"decimals()": "223",
				"decreaseAllowance(address,uint256)": "infinite",
				"defaultToken()": "2449",
				"distributeDividends()": "infinite",
				"dividendOf(address)": "infinite",
				"dividendsPaused()": "2438",
				"excludeFromDividends(address)": "infinite",
				"excludedFromAutoClaim(address)": "2658",
				"excludedFromDividends(address)": "2593",
				"getAccount(address)": "infinite",
				"getAccountAtIndex(uint256)": "infinite",
				"getLastProcessedIndex()": "2403",
				"getNumberOfTokenHolders()": "2416",
				"getPayoutToken()": "2421",
				"includeFromDividends(address)": "26829",
				"increaseAllowance(address,uint256)": "27117",
				"isExcludedFromAutoClaim(address)": "4749",
				"isReinvest(address)": "4792",
				"lastClaimTimes(address)": "2626",
				"lastProcessedIndex()": "2429",
				"name()": "infinite",
				"owner()": "2399",
				"process(uint256)": "infinite",
				"processAccount(address,bool)": "infinite",
				"renounceOwnership()": "30252",
				"setAllowAutoReinvest(bool)": "30118",
				"setAllowCustomTokens(bool)": "30051",
				"setAutoClaim(address,bool)": "infinite",
				"setBalance(address,uint256)": "infinite",
				"setDividendsPaused(bool)": "30074",
				"setMinimumTokenBalanceForAutoDividends(uint256)": "24670",
				"setMinimumTokenBalanceForDividends(uint256)": "24625",
				"setReinvest(address,bool)": "infinite",
				"symbol()": "infinite",
				"totalDividendsDistributed()": "2429",
				"totalSupply()": "2361",
				"transfer(address,uint256)": "565",
				"transferFrom(address,address,uint256)": "infinite",
				"transferOwnership(address)": "30460",
				"uniswapV2Router()": "2494",
				"updatePayoutToken(address)": "26838",
				"updateUniswapV2Router(address)": "26794",
				"withdrawDividend()": "423",
				"withdrawableDividendOf(address)": "infinite",
				"withdrawnDividendOf(address)": "2643"
			},
			"internal": {
				"_reinvestDividendOfUser(address)": "infinite",
				"_transfer(address,address,uint256)": "infinite",
				"_withdrawDividendOfUser(address payable)": "infinite"
			}
		},
		"methodIdentifiers": {
			"GBUSDContract()": "f474e636",
			"accumulativeDividendOf(address)": "27ce0147",
			"allowAutoReinvest()": "41808904",
			"allowCustomTokens()": "9eec101e",
			"allowance(address,address)": "dd62ed3e",
			"approve(address,uint256)": "095ea7b3",
			"autoReinvest(address)": "1d4ff89a",
			"balanceOf(address)": "70a08231",
			"decimals()": "313ce567",
			"decreaseAllowance(address,uint256)": "a457c2d7",
			"defaultToken()": "74c13fda",
			"distributeDividends()": "03c83302",
			"dividendOf(address)": "91b89fba",
			"dividendsPaused()": "a4234069",
			"excludeFromDividends(address)": "31e79db0",
			"excludedFromAutoClaim(address)": "6b69163b",
			"excludedFromDividends(address)": "4e7b827f",
			"getAccount(address)": "fbcbc0f1",
			"getAccountAtIndex(uint256)": "5183d6fd",
			"getLastProcessedIndex()": "e7841ec0",
			"getNumberOfTokenHolders()": "09bbedde",
			"getPayoutToken()": "25cd3598",
			"includeFromDividends(address)": "09288471",
			"increaseAllowance(address,uint256)": "39509351",
			"isExcludedFromAutoClaim(address)": "6d48467b",
			"isReinvest(address)": "ba079d49",
			"lastClaimTimes(address)": "226cfa3d",
			"lastProcessedIndex()": "3009a609",
			"name()": "06fdde03",
			"owner()": "8da5cb5b",
			"process(uint256)": "ffb2c479",
			"processAccount(address,bool)": "bc4c4b37",
			"renounceOwnership()": "715018a6",
			"setAllowAutoReinvest(bool)": "40ffdd80",
			"setAllowCustomTokens(bool)": "9c3372ea",
			"setAutoClaim(address,bool)": "8bc1d639",
			"setBalance(address,uint256)": "e30443bc",
			"setDividendsPaused(bool)": "3599bb17",
			"setMinimumTokenBalanceForAutoDividends(uint256)": "5a84c5eb",
			"setMinimumTokenBalanceForDividends(uint256)": "5ebf4db9",
			"setReinvest(address,bool)": "b22f8a04",
			"symbol()": "95d89b41",
			"totalDividendsDistributed()": "85a6b3ae",
			"totalSupply()": "18160ddd",
			"transfer(address,uint256)": "a9059cbb",
			"transferFrom(address,address,uint256)": "23b872dd",
			"transferOwnership(address)": "f2fde38b",
			"uniswapV2Router()": "1694505e",
			"updatePayoutToken(address)": "d8032ed3",
			"updateUniswapV2Router(address)": "65b8dbc0",
			"withdrawDividend()": "6a474002",
			"withdrawableDividendOf(address)": "a8b9d240",
			"withdrawnDividendOf(address)": "aafd847a"
		}
	},
	"abi": [
		{
			"inputs": [
				{
					"internalType": "address payable",
					"name": "mainContract",
					"type": "address"
				},
				{
					"internalType": "address",
					"name": "router",
					"type": "address"
				},
				{
					"internalType": "address",
					"name": "token",
					"type": "address"
				},
				{
					"internalType": "string",
					"name": "_name",
					"type": "string"
				},
				{
					"internalType": "string",
					"name": "_ticker",
					"type": "string"
				}
			],
			"stateMutability": "nonpayable",
			"type": "constructor"
		},
		{
			"anonymous": false,
			"inputs": [
				{
					"indexed": true,
					"internalType": "address",
					"name": "owner",
					"type": "address"
				},
				{
					"indexed": true,
					"internalType": "address",
					"name": "spender",
					"type": "address"
				},
				{
					"indexed": false,
					"internalType": "uint256",
					"name": "value",
					"type": "uint256"
				}
			],
			"name": "Approval",
			"type": "event"
		},
		{
			"anonymous": false,
			"inputs": [
				{
					"indexed": true,
					"internalType": "address",
					"name": "account",
					"type": "address"
				},
				{
					"indexed": false,
					"internalType": "uint256",
					"name": "amount",
					"type": "uint256"
				},
				{
					"indexed": true,
					"internalType": "bool",
					"name": "automatic",
					"type": "bool"
				}
			],
			"name": "Claim",
			"type": "event"
		},
		{
			"anonymous": false,
			"inputs": [
				{
					"indexed": true,
					"internalType": "uint256",
					"name": "newValue",
					"type": "uint256"
				},
				{
					"indexed": true,
					"internalType": "uint256",
					"name": "oldValue",
					"type": "uint256"
				}
			],
			"name": "ClaimWaitUpdated",
			"type": "event"
		},
		{
			"anonymous": false,
			"inputs": [
				{
					"indexed": true,
					"internalType": "address",
					"name": "acount",
					"type": "address"
				},
				{
					"indexed": false,
					"internalType": "uint256",
					"name": "value",
					"type": "uint256"
				},
				{
					"indexed": true,
					"internalType": "bool",
					"name": "automatic",
					"type": "bool"
				}
			],
			"name": "DividendReinvested",
			"type": "event"
		},
		{
			"anonymous": false,
			"inputs": [
				{
					"indexed": true,
					"internalType": "address",
					"name": "to",
					"type": "address"
				},
				{
					"indexed": false,
					"internalType": "uint256",
					"name": "weiAmount",
					"type": "uint256"
				}
			],
			"name": "DividendWithdrawn",
			"type": "event"
		},
		{
			"anonymous": false,
			"inputs": [
				{
					"indexed": true,
					"internalType": "address",
					"name": "from",
					"type": "address"
				},
				{
					"indexed": false,
					"internalType": "uint256",
					"name": "weiAmount",
					"type": "uint256"
				}
			],
			"name": "DividendsDistributed",
			"type": "event"
		},
		{
			"anonymous": false,
			"inputs": [
				{
					"indexed": false,
					"internalType": "bool",
					"name": "paused",
					"type": "bool"
				}
			],
			"name": "DividendsPaused",
			"type": "event"
		},
		{
			"anonymous": false,
			"inputs": [
				{
					"indexed": true,
					"internalType": "address",
					"name": "account",
					"type": "address"
				}
			],
			"name": "ExcludeFromDividends",
			"type": "event"
		},
		{
			"anonymous": false,
			"inputs": [
				{
					"indexed": true,
					"internalType": "address",
					"name": "previousOwner",
					"type": "address"
				},
				{
					"indexed": true,
					"internalType": "address",
					"name": "newOwner",
					"type": "address"
				}
			],
			"name": "OwnershipTransferred",
			"type": "event"
		},
		{
			"anonymous": false,
			"inputs": [
				{
					"indexed": false,
					"internalType": "bool",
					"name": "allow",
					"type": "bool"
				}
			],
			"name": "SetAllowAutoReinvest",
			"type": "event"
		},
		{
			"anonymous": false,
			"inputs": [
				{
					"indexed": false,
					"internalType": "bool",
					"name": "allow",
					"type": "bool"
				}
			],
			"name": "SetAllowCustomTokens",
			"type": "event"
		},
		{
			"anonymous": false,
			"inputs": [
				{
					"indexed": true,
					"internalType": "address",
					"name": "from",
					"type": "address"
				},
				{
					"indexed": true,
					"internalType": "address",
					"name": "to",
					"type": "address"
				},
				{
					"indexed": false,
					"internalType": "uint256",
					"name": "value",
					"type": "uint256"
				}
			],
			"name": "Transfer",
			"type": "event"
		},
		{
			"inputs": [],
			"name": "GBUSDContract",
			"outputs": [
				{
					"internalType": "contract GBUSD",
					"name": "",
					"type": "address"
				}
			],
			"stateMutability": "view",
			"type": "function"
		},
		{
			"inputs": [
				{
					"internalType": "address",
					"name": "_owner",
					"type": "address"
				}
			],
			"name": "accumulativeDividendOf",
			"outputs": [
				{
					"internalType": "uint256",
					"name": "",
					"type": "uint256"
				}
			],
			"stateMutability": "view",
			"type": "function"
		},
		{
			"inputs": [],
			"name": "allowAutoReinvest",
			"outputs": [
				{
					"internalType": "bool",
					"name": "",
					"type": "bool"
				}
			],
			"stateMutability": "view",
			"type": "function"
		},
		{
			"inputs": [],
			"name": "allowCustomTokens",
			"outputs": [
				{
					"internalType": "bool",
					"name": "",
					"type": "bool"
				}
			],
			"stateMutability": "view",
			"type": "function"
		},
		{
			"inputs": [
				{
					"internalType": "address",
					"name": "owner",
					"type": "address"
				},
				{
					"internalType": "address",
					"name": "spender",
					"type": "address"
				}
			],
			"name": "allowance",
			"outputs": [
				{
					"internalType": "uint256",
					"name": "",
					"type": "uint256"
				}
			],
			"stateMutability": "view",
			"type": "function"
		},
		{
			"inputs": [
				{
					"internalType": "address",
					"name": "spender",
					"type": "address"
				},
				{
					"internalType": "uint256",
					"name": "amount",
					"type": "uint256"
				}
			],
			"name": "approve",
			"outputs": [
				{
					"internalType": "bool",
					"name": "",
					"type": "bool"
				}
			],
			"stateMutability": "nonpayable",
			"type": "function"
		},
		{
			"inputs": [
				{
					"internalType": "address",
					"name": "",
					"type": "address"
				}
			],
			"name": "autoReinvest",
			"outputs": [
				{
					"internalType": "bool",
					"name": "",
					"type": "bool"
				}
			],
			"stateMutability": "view",
			"type": "function"
		},
		{
			"inputs": [
				{
					"internalType": "address",
					"name": "account",
					"type": "address"
				}
			],
			"name": "balanceOf",
			"outputs": [
				{
					"internalType": "uint256",
					"name": "",
					"type": "uint256"
				}
			],
			"stateMutability": "view",
			"type": "function"
		},
		{
			"inputs": [],
			"name": "decimals",
			"outputs": [
				{
					"internalType": "uint8",
					"name": "",
					"type": "uint8"
				}
			],
			"stateMutability": "view",
			"type": "function"
		},
		{
			"inputs": [
				{
					"internalType": "address",
					"name": "spender",
					"type": "address"
				},
				{
					"internalType": "uint256",
					"name": "subtractedValue",
					"type": "uint256"
				}
			],
			"name": "decreaseAllowance",
			"outputs": [
				{
					"internalType": "bool",
					"name": "",
					"type": "bool"
				}
			],
			"stateMutability": "nonpayable",
			"type": "function"
		},
		{
			"inputs": [],
			"name": "defaultToken",
			"outputs": [
				{
					"internalType": "address",
					"name": "",
					"type": "address"
				}
			],
			"stateMutability": "view",
			"type": "function"
		},
		{
			"inputs": [],
			"name": "distributeDividends",
			"outputs": [],
			"stateMutability": "payable",
			"type": "function"
		},
		{
			"inputs": [
				{
					"internalType": "address",
					"name": "_owner",
					"type": "address"
				}
			],
			"name": "dividendOf",
			"outputs": [
				{
					"internalType": "uint256",
					"name": "",
					"type": "uint256"
				}
			],
			"stateMutability": "view",
			"type": "function"
		},
		{
			"inputs": [],
			"name": "dividendsPaused",
			"outputs": [
				{
					"internalType": "bool",
					"name": "",
					"type": "bool"
				}
			],
			"stateMutability": "view",
			"type": "function"
		},
		{
			"inputs": [
				{
					"internalType": "address",
					"name": "account",
					"type": "address"
				}
			],
			"name": "excludeFromDividends",
			"outputs": [],
			"stateMutability": "nonpayable",
			"type": "function"
		},
		{
			"inputs": [
				{
					"internalType": "address",
					"name": "",
					"type": "address"
				}
			],
			"name": "excludedFromAutoClaim",
			"outputs": [
				{
					"internalType": "bool",
					"name": "",
					"type": "bool"
				}
			],
			"stateMutability": "view",
			"type": "function"
		},
		{
			"inputs": [
				{
					"internalType": "address",
					"name": "",
					"type": "address"
				}
			],
			"name": "excludedFromDividends",
			"outputs": [
				{
					"internalType": "bool",
					"name": "",
					"type": "bool"
				}
			],
			"stateMutability": "view",
			"type": "function"
		},
		{
			"inputs": [
				{
					"internalType": "address",
					"name": "_account",
					"type": "address"
				}
			],
			"name": "getAccount",
			"outputs": [
				{
					"internalType": "address",
					"name": "account",
					"type": "address"
				},
				{
					"internalType": "int256",
					"name": "index",
					"type": "int256"
				},
				{
					"internalType": "int256",
					"name": "iterationsUntilProcessed",
					"type": "int256"
				},
				{
					"internalType": "uint256",
					"name": "withdrawableDividends",
					"type": "uint256"
				},
				{
					"internalType": "uint256",
					"name": "totalDividends",
					"type": "uint256"
				},
				{
					"internalType": "uint256",
					"name": "lastClaimTime",
					"type": "uint256"
				}
			],
			"stateMutability": "view",
			"type": "function"
		},
		{
			"inputs": [
				{
					"internalType": "uint256",
					"name": "index",
					"type": "uint256"
				}
			],
			"name": "getAccountAtIndex",
			"outputs": [
				{
					"internalType": "address",
					"name": "",
					"type": "address"
				},
				{
					"internalType": "int256",
					"name": "",
					"type": "int256"
				},
				{
					"internalType": "int256",
					"name": "",
					"type": "int256"
				},
				{
					"internalType": "uint256",
					"name": "",
					"type": "uint256"
				},
				{
					"internalType": "uint256",
					"name": "",
					"type": "uint256"
				},
				{
					"internalType": "uint256",
					"name": "",
					"type": "uint256"
				}
			],
			"stateMutability": "view",
			"type": "function"
		},
		{
			"inputs": [],
			"name": "getLastProcessedIndex",
			"outputs": [
				{
					"internalType": "uint256",
					"name": "",
					"type": "uint256"
				}
			],
			"stateMutability": "view",
			"type": "function"
		},
		{
			"inputs": [],
			"name": "getNumberOfTokenHolders",
			"outputs": [
				{
					"internalType": "uint256",
					"name": "",
					"type": "uint256"
				}
			],
			"stateMutability": "view",
			"type": "function"
		},
		{
			"inputs": [],
			"name": "getPayoutToken",
			"outputs": [
				{
					"internalType": "address",
					"name": "",
					"type": "address"
				}
			],
			"stateMutability": "view",
			"type": "function"
		},
		{
			"inputs": [
				{
					"internalType": "address",
					"name": "account",
					"type": "address"
				}
			],
			"name": "includeFromDividends",
			"outputs": [],
			"stateMutability": "nonpayable",
			"type": "function"
		},
		{
			"inputs": [
				{
					"internalType": "address",
					"name": "spender",
					"type": "address"
				},
				{
					"internalType": "uint256",
					"name": "addedValue",
					"type": "uint256"
				}
			],
			"name": "increaseAllowance",
			"outputs": [
				{
					"internalType": "bool",
					"name": "",
					"type": "bool"
				}
			],
			"stateMutability": "nonpayable",
			"type": "function"
		},
		{
			"inputs": [
				{
					"internalType": "address",
					"name": "account",
					"type": "address"
				}
			],
			"name": "isExcludedFromAutoClaim",
			"outputs": [
				{
					"internalType": "bool",
					"name": "",
					"type": "bool"
				}
			],
			"stateMutability": "view",
			"type": "function"
		},
		{
			"inputs": [
				{
					"internalType": "address",
					"name": "account",
					"type": "address"
				}
			],
			"name": "isReinvest",
			"outputs": [
				{
					"internalType": "bool",
					"name": "",
					"type": "bool"
				}
			],
			"stateMutability": "view",
			"type": "function"
		},
		{
			"inputs": [
				{
					"internalType": "address",
					"name": "",
					"type": "address"
				}
			],
			"name": "lastClaimTimes",
			"outputs": [
				{
					"internalType": "uint256",
					"name": "",
					"type": "uint256"
				}
			],
			"stateMutability": "view",
			"type": "function"
		},
		{
			"inputs": [],
			"name": "lastProcessedIndex",
			"outputs": [
				{
					"internalType": "uint256",
					"name": "",
					"type": "uint256"
				}
			],
			"stateMutability": "view",
			"type": "function"
		},
		{
			"inputs": [],
			"name": "name",
			"outputs": [
				{
					"internalType": "string",
					"name": "",
					"type": "string"
				}
			],
			"stateMutability": "view",
			"type": "function"
		},
		{
			"inputs": [],
			"name": "owner",
			"outputs": [
				{
					"internalType": "address",
					"name": "",
					"type": "address"
				}
			],
			"stateMutability": "view",
			"type": "function"
		},
		{
			"inputs": [
				{
					"internalType": "uint256",
					"name": "gas",
					"type": "uint256"
				}
			],
			"name": "process",
			"outputs": [
				{
					"internalType": "uint256",
					"name": "",
					"type": "uint256"
				},
				{
					"internalType": "uint256",
					"name": "",
					"type": "uint256"
				},
				{
					"internalType": "uint256",
					"name": "",
					"type": "uint256"
				}
			],
			"stateMutability": "nonpayable",
			"type": "function"
		},
		{
			"inputs": [
				{
					"internalType": "address payable",
					"name": "account",
					"type": "address"
				},
				{
					"internalType": "bool",
					"name": "automatic",
					"type": "bool"
				}
			],
			"name": "processAccount",
			"outputs": [
				{
					"internalType": "bool",
					"name": "",
					"type": "bool"
				}
			],
			"stateMutability": "nonpayable",
			"type": "function"
		},
		{
			"inputs": [],
			"name": "renounceOwnership",
			"outputs": [],
			"stateMutability": "nonpayable",
			"type": "function"
		},
		{
			"inputs": [
				{
					"internalType": "bool",
					"name": "allow",
					"type": "bool"
				}
			],
			"name": "setAllowAutoReinvest",
			"outputs": [],
			"stateMutability": "nonpayable",
			"type": "function"
		},
		{
			"inputs": [
				{
					"internalType": "bool",
					"name": "allow",
					"type": "bool"
				}
			],
			"name": "setAllowCustomTokens",
			"outputs": [],
			"stateMutability": "nonpayable",
			"type": "function"
		},
		{
			"inputs": [
				{
					"internalType": "address",
					"name": "account",
					"type": "address"
				},
				{
					"internalType": "bool",
					"name": "value",
					"type": "bool"
				}
			],
			"name": "setAutoClaim",
			"outputs": [],
			"stateMutability": "nonpayable",
			"type": "function"
		},
		{
			"inputs": [
				{
					"internalType": "address",
					"name": "account",
					"type": "address"
				},
				{
					"internalType": "uint256",
					"name": "newBalance",
					"type": "uint256"
				}
			],
			"name": "setBalance",
			"outputs": [],
			"stateMutability": "nonpayable",
			"type": "function"
		},
		{
			"inputs": [
				{
					"internalType": "bool",
					"name": "value",
					"type": "bool"
				}
			],
			"name": "setDividendsPaused",
			"outputs": [],
			"stateMutability": "nonpayable",
			"type": "function"
		},
		{
			"inputs": [
				{
					"internalType": "uint256",
					"name": "value",
					"type": "uint256"
				}
			],
			"name": "setMinimumTokenBalanceForAutoDividends",
			"outputs": [],
			"stateMutability": "nonpayable",
			"type": "function"
		},
		{
			"inputs": [
				{
					"internalType": "uint256",
					"name": "value",
					"type": "uint256"
				}
			],
			"name": "setMinimumTokenBalanceForDividends",
			"outputs": [],
			"stateMutability": "nonpayable",
			"type": "function"
		},
		{
			"inputs": [
				{
					"internalType": "address",
					"name": "account",
					"type": "address"
				},
				{
					"internalType": "bool",
					"name": "value",
					"type": "bool"
				}
			],
			"name": "setReinvest",
			"outputs": [],
			"stateMutability": "nonpayable",
			"type": "function"
		},
		{
			"inputs": [],
			"name": "symbol",
			"outputs": [
				{
					"internalType": "string",
					"name": "",
					"type": "string"
				}
			],
			"stateMutability": "view",
			"type": "function"
		},
		{
			"inputs": [],
			"name": "totalDividendsDistributed",
			"outputs": [
				{
					"internalType": "uint256",
					"name": "",
					"type": "uint256"
				}
			],
			"stateMutability": "view",
			"type": "function"
		},
		{
			"inputs": [],
			"name": "totalSupply",
			"outputs": [
				{
					"internalType": "uint256",
					"name": "",
					"type": "uint256"
				}
			],
			"stateMutability": "view",
			"type": "function"
		},
		{
			"inputs": [
				{
					"internalType": "address",
					"name": "recipient",
					"type": "address"
				},
				{
					"internalType": "uint256",
					"name": "amount",
					"type": "uint256"
				}
			],
			"name": "transfer",
			"outputs": [
				{
					"internalType": "bool",
					"name": "",
					"type": "bool"
				}
			],
			"stateMutability": "nonpayable",
			"type": "function"
		},
		{
			"inputs": [
				{
					"internalType": "address",
					"name": "sender",
					"type": "address"
				},
				{
					"internalType": "address",
					"name": "recipient",
					"type": "address"
				},
				{
					"internalType": "uint256",
					"name": "amount",
					"type": "uint256"
				}
			],
			"name": "transferFrom",
			"outputs": [
				{
					"internalType": "bool",
					"name": "",
					"type": "bool"
				}
			],
			"stateMutability": "nonpayable",
			"type": "function"
		},
		{
			"inputs": [
				{
					"internalType": "address",
					"name": "newOwner",
					"type": "address"
				}
			],
			"name": "transferOwnership",
			"outputs": [],
			"stateMutability": "nonpayable",
			"type": "function"
		},
		{
			"inputs": [],
			"name": "uniswapV2Router",
			"outputs": [
				{
					"internalType": "contract IUniswapV2Router02",
					"name": "",
					"type": "address"
				}
			],
			"stateMutability": "view",
			"type": "function"
		},
		{
			"inputs": [
				{
					"internalType": "address",
					"name": "token",
					"type": "address"
				}
			],
			"name": "updatePayoutToken",
			"outputs": [],
			"stateMutability": "nonpayable",
			"type": "function"
		},
		{
			"inputs": [
				{
					"internalType": "address",
					"name": "newAddress",
					"type": "address"
				}
			],
			"name": "updateUniswapV2Router",
			"outputs": [],
			"stateMutability": "nonpayable",
			"type": "function"
		},
		{
			"inputs": [],
			"name": "withdrawDividend",
			"outputs": [],
			"stateMutability": "pure",
			"type": "function"
		},
		{
			"inputs": [
				{
					"internalType": "address",
					"name": "_owner",
					"type": "address"
				}
			],
			"name": "withdrawableDividendOf",
			"outputs": [
				{
					"internalType": "uint256",
					"name": "",
					"type": "uint256"
				}
			],
			"stateMutability": "view",
			"type": "function"
		},
		{
			"inputs": [
				{
					"internalType": "address",
					"name": "_owner",
					"type": "address"
				}
			],
			"name": "withdrawnDividendOf",
			"outputs": [
				{
					"internalType": "uint256",
					"name": "",
					"type": "uint256"
				}
			],
			"stateMutability": "view",
			"type": "function"
		},
		{
			"stateMutability": "payable",
			"type": "receive"
		}
	]
}