{
	"data": {
		"bytecode": {
			"linkReferences": {},
			"object": "60806040526103e8600f5560c860105560006011556000601255600060135560646014556103e860155560c86016556000601755600060185560006019556064601a556032601b556000601c55600060205560006021553480156200006357600080fd5b50604080518082018252600a81526950455045322e3042534360b01b6020808301919091528251808401845260048152635045504560e01b91810191909152600080546001600160a01b031916339081178255935173d99d1c33f9fc3444f8101754abc46c52416550d19473ed24fc36d5ee211ea25a80239fb8c4cfd80f12ee94939260129264174876e8009273a23134e9e27635965a69987bcd27e000813b469492731a58197081c3f8c06227bca1e8cbad145a60c37f928492839290918291907f8be0079c531659141344cd1fd0a4f28419497f9722a3daafe3b4186f6b6457e0908290a350600662000159898262000621565b50600762000168888262000621565b506008805460ff191660ff8816179055600c80546001600160a01b03199081166001600160a01b038c8116918217909355600b8054909216928d169283179091553060009081526002602090815260408083208584529091529081902060001990819055905163095ea7b360e01b8152600481019390935260248301528b9163095ea7b3906044016020604051808303816000875af115801562000210573d6000803e3d6000fd5b505050506040513d601f19601f82011682018060405250810190620002369190620006ed565b506000816001600160a01b031663c45a01556040518163ffffffff1660e01b8152600401602060405180830381865afa15801562000278573d6000803e3d6000fd5b505050506040513d601f19601f820116820180604052508101906200029e919062000718565b6040516364e329cb60e11b81523060048201526001600160a01b038d8116602483015291925060009183169063c9c65396906044016020604051808303816000875af1158015620002f3573d6000803e3d6000fd5b505050506040513d601f19601f8201168201806040525081019062000319919062000718565b6001600160a01b0381166000818152600d60205260408120805460ff19166001179055601f80546001600160a01b031916909217909155909150620003608a600a62000858565b6200036c908a62000869565b600a8190556001600160a01b0386166000818152600160205260408082208490555192935090917fddf252ad1be2c89b69c2b068fc378daa952ba7f163c4a11628f55a4df523b3ef90620003c39085815260200190565b60405180910390a3600380546001600160a01b03808b166001600160a01b03199283168117909355600480548b83169084168117909155600580548b8416941684179055600093845260096020526040808520805460ff199081166001908117909255928652818620805484168217905593855280852080548316851790558983168552808520805483168517905530855280852080548316851790559188168452818420805482168417905533845281842080548216841790557fec8156718a8372b1db44bb411437d0870f3e3790d4a08526d024ce1b0b668f6b805482168417905561dead9093527f960b1051749987b45b5679007fff577a1c2f763ec21c15a6c5eb1930750037858054909316909117909155518d90620004e7906200056e565b6001600160a01b039091168152602001604051809103906000f08015801562000514573d6000803e3d6000fd5b50600e80546001600160a01b039290921661010002610100600160a81b0319909216919091179055620005498a600a62000858565b6200055690600062000869565b60225550620008839c50505050505050505050505050565b6103128062002ff183390190565b634e487b7160e01b600052604160045260246000fd5b600181811c90821680620005a757607f821691505b602082108103620005c857634e487b7160e01b600052602260045260246000fd5b50919050565b601f8211156200061c57600081815260208120601f850160051c81016020861015620005f75750805b601f850160051c820191505b81811015620006185782815560010162000603565b5050505b505050565b81516001600160401b038111156200063d576200063d6200057c565b62000655816200064e845462000592565b84620005ce565b602080601f8311600181146200068d5760008415620006745750858301515b600019600386901b1c1916600185901b17855562000618565b600085815260208120601f198616915b82811015620006be578886015182559484019460019091019084016200069d565b5085821015620006dd5787850151600019600388901b60f8161c191681555b5050505050600190811b01905550565b6000602082840312156200070057600080fd5b815180151581146200071157600080fd5b9392505050565b6000602082840312156200072b57600080fd5b81516001600160a01b03811681146200071157600080fd5b634e487b7160e01b600052601160045260246000fd5b600181815b808511156200079a5781600019048211156200077e576200077e62000743565b808516156200078c57918102915b93841c93908002906200075e565b509250929050565b600082620007b35750600162000852565b81620007c25750600062000852565b8160018114620007db5760028114620007e65762000806565b600191505062000852565b60ff841115620007fa57620007fa62000743565b50506001821b62000852565b5060208310610133831016604e8410600b84101617156200082b575081810a62000852565b62000837838362000759565b80600019048211156200084e576200084e62000743565b0290505b92915050565b60006200071160ff841683620007a2565b808202811582820484141762000852576200085262000743565b61275e80620008936000396000f3fe6080604052600436106102975760003560e01c80637abdc1ca1161015a578063b9ec2ec6116100c1578063d2c01fc41161007a578063d2c01fc414610770578063d83d414314610786578063dd62ed3e146107a6578063f2fde38b146107ec578063f40db8511461080c578063fcbd190b1461082257600080fd5b8063b9ec2ec6146106d8578063b9fbc49d146106ee578063c0600af314610704578063c38c682614610724578063cd8d263d1461073a578063ce0192f91461075a57600080fd5b8063a842486111610113578063a84248611461062c578063a9059cbb1461064c578063a925a6bd1461066c578063aa8b38d914610682578063adc7955d146106a2578063b2887bec146106b857600080fd5b80637abdc1ca1461058d57806385dc3004146105a35780638da5cb5b146105c35780638f02bb5b146105e157806395d89b41146106015780639bb853441461061657600080fd5b80633bfe62ca116101fe5780635ef01957116101b75780635ef01957146104e157806361769f95146104f75780636c5808011461050d57806370a0823114610522578063715018a614610558578063787595411461056d57600080fd5b80633bfe62ca146104315780633df9a8d2146104475780634188bf5a1461045d5780634672f7c51461049557806348bad3f5146104b5578063553193ca146104cb57600080fd5b806318160ddd1161025057806318160ddd1461037a5780631c99f6841461038f5780631f107a45146103af57806323b872dd146103cf578063313ce567146103ef578063349024541461041157600080fd5b806306fdde03146102a3578063095ea7b3146102ce5780630a607930146102fe5780630db5bde414610322578063125bfb6614610338578063153069321461035a57600080fd5b3661029e57005b600080fd5b3480156102af57600080fd5b506102b8610838565b6040516102c591906121e4565b60405180910390f35b3480156102da57600080fd5b506102ee6102e936600461224e565b6108ca565b60405190151581526020016102c5565b34801561030a57600080fd5b5061031460185481565b6040519081526020016102c5565b34801561032e57600080fd5b5061031460215481565b34801561034457600080fd5b50610358610353366004612278565b6108e1565b005b34801561036657600080fd5b506103586103753660046122b4565b610973565b34801561038657600080fd5b50600a54610314565b34801561039b57600080fd5b506103586103aa3660046122cd565b6109ab565b3480156103bb57600080fd5b506103586103ca3660046122b4565b610a91565b3480156103db57600080fd5b506102ee6103ea366004612278565b610ac0565b3480156103fb57600080fd5b5060085460405160ff90911681526020016102c5565b34801561041d57600080fd5b5061035861042c366004612319565b610b57565b34801561043d57600080fd5b5061031460155481565b34801561045357600080fd5b50610314601c5481565b34801561046957600080fd5b50601f5461047d906001600160a01b031681565b6040516001600160a01b0390911681526020016102c5565b3480156104a157600080fd5b506103586104b0366004612319565b610bbb565b3480156104c157600080fd5b5061031460115481565b3480156104d757600080fd5b50610314601e5481565b3480156104ed57600080fd5b5061031460205481565b34801561050357600080fd5b5061031460145481565b34801561051957600080fd5b50610358610c1f565b34801561052e57600080fd5b5061031461053d366004612319565b6001600160a01b031660009081526001602052604090205490565b34801561056457600080fd5b50610358610c89565b34801561057957600080fd5b50610358610588366004612278565b610cfd565b34801561059957600080fd5b50610314601b5481565b3480156105af57600080fd5b506103586105be366004612319565b610d8e565b3480156105cf57600080fd5b506000546001600160a01b031661047d565b3480156105ed57600080fd5b506103586105fc3660046122b4565b610df2565b34801561060d57600080fd5b506102b8610e21565b34801561062257600080fd5b50610314601d5481565b34801561063857600080fd5b50610358610647366004612354565b610e30565b34801561065857600080fd5b506102ee61066736600461224e565b610e85565b34801561067857600080fd5b5061031460125481565b34801561068e57600080fd5b5061035861069d36600461224e565b610e92565b3480156106ae57600080fd5b5061031460195481565b3480156106c457600080fd5b506103586106d33660046123a1565b610ee4565b3480156106e457600080fd5b5061031460165481565b3480156106fa57600080fd5b5061031460135481565b34801561071057600080fd5b5061035861071f366004612478565b610f75565b34801561073057600080fd5b5061031460105481565b34801561074657600080fd5b506103586107553660046122b4565b61104a565b34801561076657600080fd5b50610314600f5481565b34801561077c57600080fd5b5061031460225481565b34801561079257600080fd5b506103586107a1366004612354565b611079565b3480156107b257600080fd5b506103146107c13660046124bb565b6001600160a01b03918216600090815260026020908152604080832093909416825291909152205490565b3480156107f857600080fd5b50610358610807366004612319565b6110ce565b34801561081857600080fd5b50610314601a5481565b34801561082e57600080fd5b5061031460175481565b606060068054610847906124ee565b80601f0160208091040260200160405190810160405280929190818152602001828054610873906124ee565b80156108c05780601f10610895576101008083540402835291602001916108c0565b820191906000526020600020905b8154815290600101906020018083116108a357829003601f168201915b5050505050905090565b60006108d7338484611191565b5060015b92915050565b3360009081526009602052604090205460ff161561096e5760405163a9059cbb60e01b81526001600160a01b0383811660048301526024820183905284169063a9059cbb906044016020604051808303816000875af1158015610948573d6000803e3d6000fd5b505050506040513d601f19601f8201168201806040525081019061096c9190612528565b505b505050565b6000546001600160a01b031633146109a65760405162461bcd60e51b815260040161099d90612545565b60405180910390fd5b602155565b6000546001600160a01b031633146109d55760405162461bcd60e51b815260040161099d90612545565b600081838587896109e68c8e61257b565b6109f0919061257b565b6109fa919061257b565b610a04919061257b565b610a0e919061257b565b610a18919061257b565b90506019610a286127108361258e565b1115610a6d5760405162461bcd60e51b81526020600482015260146024820152732332b2b9902634b6b4ba1032bc31b2b2b232b21760611b604482015260640161099d565b50601596909655601694909455601792909255601855601955601b91909155601a55565b6000546001600160a01b03163314610abb5760405162461bcd60e51b815260040161099d90612545565b602255565b6000610acd8484846111f3565b6001600160a01b038416600090815260026020908152604080832033845290915290205460001914610b4d576001600160a01b0384166000908152600260209081526040808320338452909152902054610b289083906125b0565b6001600160a01b03851660009081526002602090815260408083203384529091529020555b5060019392505050565b6000546001600160a01b03163314610b815760405162461bcd60e51b815260040161099d90612545565b600580546001600160a01b039092166001600160a01b0319909216821790556000908152600960205260409020805460ff19166001179055565b6000546001600160a01b03163314610be55760405162461bcd60e51b815260040161099d90612545565b600480546001600160a01b039092166001600160a01b0319909216821790556000908152600960205260409020805460ff19166001179055565b6000546001600160a01b03163314610c495760405162461bcd60e51b815260040161099d90612545565b601e5415610c835760405162461bcd60e51b815260206004820152600760248201526674726164696e6760c81b604482015260640161099d565b43601e55565b6000546001600160a01b03163314610cb35760405162461bcd60e51b815260040161099d90612545565b600080546040516001600160a01b03909116907f8be0079c531659141344cd1fd0a4f28419497f9722a3daafe3b4186f6b6457e0908390a3600080546001600160a01b0319169055565b3360009081526009602052604090205460ff161561096e57600e5460405163092dfdb360e11b81526001600160a01b0385811660048301528481166024830152604482018490526101009092049091169063125bfb6690606401600060405180830381600087803b158015610d7157600080fd5b505af1158015610d85573d6000803e3d6000fd5b50505050505050565b6000546001600160a01b03163314610db85760405162461bcd60e51b815260040161099d90612545565b600380546001600160a01b039092166001600160a01b0319909216821790556000908152600960205260409020805460ff19166001179055565b6000546001600160a01b03163314610e1c5760405162461bcd60e51b815260040161099d90612545565b601c55565b606060078054610847906124ee565b6000546001600160a01b03163314610e5a5760405162461bcd60e51b815260040161099d90612545565b6001600160a01b03919091166000908152600d60205260409020805460ff1916911515919091179055565b60006108d73384846111f3565b3360009081526009602052604090205460ff1615610ee0576040516001600160a01b0383169082156108fc029083906000818181858888f1935050505015801561096e573d6000803e3d6000fd5b5050565b6000546001600160a01b03163314610f0e5760405162461bcd60e51b815260040161099d90612545565b60005b825181101561096e578160096000858481518110610f3157610f316125c3565b6020908102919091018101516001600160a01b03168252810191909152604001600020805460ff191691151591909117905580610f6d816125d9565b915050610f11565b6000546001600160a01b03163314610f9f5760405162461bcd60e51b815260040161099d90612545565b600081838587610faf8a8c61257b565b610fb9919061257b565b610fc3919061257b565b610fcd919061257b565b610fd7919061257b565b90506019610fe76127108361258e565b111561102c5760405162461bcd60e51b81526020600482015260146024820152732332b2b9902634b6b4ba1032bc31b2b2b232b21760611b604482015260640161099d565b50600f95909555601093909355601191909155601255601355601455565b6000546001600160a01b031633146110745760405162461bcd60e51b815260040161099d90612545565b602055565b6000546001600160a01b031633146110a35760405162461bcd60e51b815260040161099d90612545565b6001600160a01b03919091166000908152600960205260409020805460ff1916911515919091179055565b6000546001600160a01b031633146110f85760405162461bcd60e51b815260040161099d90612545565b6001600160a01b0381166111365760405162461bcd60e51b815260206004820152600560248201526406e657720360dc1b604482015260640161099d565b600080546040516001600160a01b03808516939216917f8be0079c531659141344cd1fd0a4f28419497f9722a3daafe3b4186f6b6457e091a3600080546001600160a01b0319166001600160a01b0392909216919091179055565b6001600160a01b0383811660008181526002602090815260408083209487168084529482529182902085905590518481527f8c5be1e5ebec7d5bd14f71427d1e84f3dd0314c0f7b2291e5b200ac8c7c3b92591015b60405180910390a3505050565b6001600160a01b0383166000908152600160205260409020548181101561124f5760405162461bcd60e51b815260206004820152601060248201526f0c4c2d8c2dcc6ca9cdee88adcdeeaced60831b604482015260640161099d565b6001600160a01b03841660009081526009602052604081205460ff1615801561129157506001600160a01b03841660009081526009602052604090205460ff16155b156112c7576000620186a06112a9846201869f6125f2565b6112b3919061258e565b9050808411156112c1578093505b60019150505b6001600160a01b0385166000908152600d6020526040812054819060ff168061130857506001600160a01b0386166000908152600d602052604090205460ff165b156114c157601d546000036113c1576001600160a01b03871660009081526009602052604090205460ff16801561134c5750601f546001600160a01b038781169116145b80156113b75750856001600160a01b03166318160ddd6040518163ffffffff1660e01b8152600401602060405180830381865afa158015611391573d6000803e3d6000fd5b505050506040513d601f19601f820116820180604052508101906113b59190612609565b155b156113c15743601d555b6001600160a01b03871660009081526009602052604090205460ff1615801561140357506001600160a01b03861660009081526009602052604090205460ff16155b156114bc576001600160a01b0387166000908152600d602052604090205460ff16156114385761143161150b565b9150611443565b61144061162e565b90505b601e5460000361149157601d54600010801561145c5750805b6114915760405162461bcd60e51b815260206004820152600660248201526521547261646560d01b604482015260640161099d565b601e5461149f90600361257b565b4310156114bc576114b38787876063611751565b610d85866117e2565b6114fd565b6001600160a01b0386166000908152600160205260409020541580156114e75750600085115b80156114fb57506001600160a01b03861615155b505b6114b3878787868686611899565b601f5460408051630240bc6b60e21b815290516000926001600160a01b031691839182918491630902f1ac916004808201926060929091908290030181865afa15801561155c573d6000803e3d6000fd5b505050506040513d601f19601f820116820180604052508101906115809190612639565b50600c546001600160701b039283169450911691506001600160a01b03166000308210156115af5750826115b2565b50815b6040516370a0823160e01b81526001600160a01b038681166004830152600091908416906370a0823190602401602060405180830381865afa1580156115fc573d6000803e3d6000fd5b505050506040513d601f19601f820116820180604052508101906116209190612609565b909110159695505050505050565b601f5460408051630240bc6b60e21b815290516000926001600160a01b031691839182918491630902f1ac916004808201926060929091908290030181865afa15801561167f573d6000803e3d6000fd5b505050506040513d601f19601f820116820180604052508101906116a39190612639565b50600c546001600160701b039283169450911691506001600160a01b03166000308210156116d25750826116d5565b50815b6040516370a0823160e01b81526001600160a01b038681166004830152600091908416906370a0823190602401602060405180830381865afa15801561171f573d6000803e3d6000fd5b505050506040513d601f19601f820116820180604052508101906117439190612609565b919091119695505050505050565b6001600160a01b0384166000908152600160205260409020546117759083906125b0565b6001600160a01b038516600090815260016020526040812091909155606461179d83856125f2565b6117a7919061258e565b905080156117c7576003546117c79086906001600160a01b031683611bc2565b6117db85856117d684876125b0565b611bc2565b5050505050565b600060225411801561180d57506001600160a01b0381166000908152600d602052604090205460ff16155b801561183257506001600160a01b03811660009081526009602052604090205460ff16155b15611896576001600160a01b03811660009081526001602052604090205460225410156118965760405162461bcd60e51b8152602060048201526012602482015271195e18d9595908131a5b5a5d105b5bdd5b9d60721b604482015260640161099d565b50565b6001600160a01b0386166000908152600160205260409020546118bd9085906125b0565b6001600160a01b0387166000908152600160205260408120919091558315611bb357821561192557612710602054866118f691906125f2565b611900919061258e565b90508015611920576003546119209088906001600160a01b031683611bc2565b611bb3565b811561193c57612710602154866118f691906125f2565b6001600160a01b0387166000908152600d602052604090205460ff1615611a11576000612710601354601254601154601054600f5461197b919061257b565b611985919061257b565b61198f919061257b565b611999919061257b565b6119a390886125f2565b6119ad919061258e565b905080156119cc576119bf818361257b565b91506119cc883083611bc2565b6000612710601454886119df91906125f2565b6119e9919061258e565b90508015611a0a576119fb818461257b565b9250611a0a8961dead83611bc2565b5050611bb3565b6001600160a01b0386166000908152600d602052604090205460ff1615611b78576000612710601954601854601754601654601554611a50919061257b565b611a5a919061257b565b611a64919061257b565b611a6e919061257b565b611a7890886125f2565b611a82919061258e565b90508015611aa157611a94818361257b565b9150611aa1883083611bc2565b6000612710601a5488611ab491906125f2565b611abe919061258e565b90508015611adf57611ad0818461257b565b9250611adf8961dead83611bc2565b6000612710601b5489611af291906125f2565b611afc919061258e565b90508015611b1d57611b0e818561257b565b9350611b1d8a61dead83611bc2565b600e5460ff16611b7057306000908152600160205260409020548015611b6e5760006032611b4c8660e66125f2565b611b56919061258e565b905081811115611b635750805b611b6c81611c3a565b505b505b505050611bb3565b612710601c5486611b8991906125f2565b611b93919061258e565b90508015611bb357600354611bb39088906001600160a01b031683611bc2565b610d8587876117d684896125b0565b6001600160a01b038216600090815260016020526040902054611be690829061257b565b6001600160a01b0380841660008181526001602052604090819020939093559151908516907fddf252ad1be2c89b69c2b068fc378daa952ba7f163c4a11628f55a4df523b3ef906111e69085815260200190565b600e805460ff1916600117905580156121d7576000601554600f54611c5f919061257b565b90506000601654601054611c73919061257b565b90506000601754601154611c87919061257b565b90506000601854601254611c9b919061257b565b90506000601954601354611caf919061257b565b90506000818385611cc0888a61257b565b611cca919061257b565b611cd4919061257b565b611cde919061257b565b9050611cea818061257b565b9050600081611cf9848a6125f2565b611d03919061258e565b9050611d0f83836125b0565b60408051600280825260608201835292945060009290916020830190803683375050600c5482519293506001600160a01b0316913091508390600090611d5757611d576125c3565b60200260200101906001600160a01b031690816001600160a01b0316815250508082600181518110611d8b57611d8b6125c3565b6001600160a01b039283166020918202929092010152600e54600b5461010090910482169116635c11d795611dc0868e6125b0565b60008685426040518663ffffffff1660e01b8152600401611de5959493929190612689565b600060405180830381600087803b158015611dff57600080fd5b505af1158015611e13573d6000803e3d6000fd5b50506040516370a0823160e01b81526001600160a01b038481166004830152859350600092508316906370a0823190602401602060405180830381865afa158015611e62573d6000803e3d6000fd5b505050506040513d601f19601f82011682018060405250810190611e869190612609565b6040516323b872dd60e01b81526001600160a01b03858116600483015230602483015260448201839052919250908316906323b872dd906064016020604051808303816000875af1158015611edf573d6000803e3d6000fd5b505050506040513d601f19601f82011682018060405250810190611f039190612528565b506000878d611f138460026125f2565b611f1d91906125f2565b611f27919061258e565b90508015611fa85760035460405163a9059cbb60e01b81526001600160a01b039182166004820152602481018390529084169063a9059cbb906044016020604051808303816000875af1158015611f82573d6000803e3d6000fd5b505050506040513d601f19601f82011682018060405250810190611fa69190612528565b505b6000888d611fb78560026125f2565b611fc191906125f2565b611fcb919061258e565b9050801561204e576004805460405163a9059cbb60e01b81526001600160a01b03918216928101929092526024820183905285169063a9059cbb906044016020604051808303816000875af1158015612028573d6000803e3d6000fd5b505050506040513d601f19601f8201168201806040525081019061204c9190612528565b505b6000898d61205d8660026125f2565b61206791906125f2565b612071919061258e565b905080156120f25760055460405163a9059cbb60e01b81526001600160a01b039182166004820152602481018390529086169063a9059cbb906044016020604051808303816000875af11580156120cc573d6000803e3d6000fd5b505050506040513d601f19601f820116820180604052508101906120f09190612528565b505b60008a6120ff8d876125f2565b612109919061258e565b905060008111801561211b575060008a115b156121c657600b5460035460405162e8e33760e81b81523060048201526001600160a01b038b81166024830152604482018e90526064820185905260006084830181905260a483015291821660c48201524260e482015291169063e8e3370090610104016060604051808303816000875af115801561219e573d6000803e3d6000fd5b505050506040513d601f19601f820116820180604052508101906121c291906126fa565b5050505b505050505050505050505050505050505b50600e805460ff19169055565b600060208083528351808285015260005b81811015612211578581018301518582016040015282016121f5565b506000604082860101526040601f19601f8301168501019250505092915050565b80356001600160a01b038116811461224957600080fd5b919050565b6000806040838503121561226157600080fd5b61226a83612232565b946020939093013593505050565b60008060006060848603121561228d57600080fd5b61229684612232565b92506122a460208501612232565b9150604084013590509250925092565b6000602082840312156122c657600080fd5b5035919050565b600080600080600080600060e0888a0312156122e857600080fd5b505085359760208701359750604087013596606081013596506080810135955060a0810135945060c0013592509050565b60006020828403121561232b57600080fd5b61233482612232565b9392505050565b801515811461189657600080fd5b80356122498161233b565b6000806040838503121561236757600080fd5b61237083612232565b915060208301356123808161233b565b809150509250929050565b634e487b7160e01b600052604160045260246000fd5b600080604083850312156123b457600080fd5b823567ffffffffffffffff808211156123cc57600080fd5b818501915085601f8301126123e057600080fd5b81356020828211156123f4576123f461238b565b8160051b604051601f19603f830116810181811086821117156124195761241961238b565b60405292835281830193508481018201928984111561243757600080fd5b948201945b8386101561245c5761244d86612232565b8552948201949382019361243c565b965061246b9050878201612349565b9450505050509250929050565b60008060008060008060c0878903121561249157600080fd5b505084359660208601359650604086013595606081013595506080810135945060a0013592509050565b600080604083850312156124ce57600080fd5b6124d783612232565b91506124e560208401612232565b90509250929050565b600181811c9082168061250257607f821691505b60208210810361252257634e487b7160e01b600052602260045260246000fd5b50919050565b60006020828403121561253a57600080fd5b81516123348161233b565b60208082526006908201526510b7bbb732b960d11b604082015260600190565b634e487b7160e01b600052601160045260246000fd5b808201808211156108db576108db612565565b6000826125ab57634e487b7160e01b600052601260045260246000fd5b500490565b818103818111156108db576108db612565565b634e487b7160e01b600052603260045260246000fd5b6000600182016125eb576125eb612565565b5060010190565b80820281158282048414176108db576108db612565565b60006020828403121561261b57600080fd5b5051919050565b80516001600160701b038116811461224957600080fd5b60008060006060848603121561264e57600080fd5b61265784612622565b925061266560208501612622565b9150604084015163ffffffff8116811461267e57600080fd5b809150509250925092565b600060a082018783526020878185015260a0604085015281875180845260c086019150828901935060005b818110156126d95784516001600160a01b0316835293830193918301916001016126b4565b50506001600160a01b03969096166060850152505050608001529392505050565b60008060006060848603121561270f57600080fd5b835192506020840151915060408401519050925092509256fea2646970667358221220e42f89bee84bbdfa3da10b609f05d7745234a0c333920420a8fd915a7f5ef32a64736f6c63430008110033608060405234801561001057600080fd5b5060405161031238038061031283398101604081905261002f916100bf565b600080546001600160a01b0319163390811790915560405163095ea7b360e01b8152600481019190915260001960248201526001600160a01b0382169063095ea7b3906044016020604051808303816000875af1158015610094573d6000803e3d6000fd5b505050506040513d601f19601f820116820180604052508101906100b891906100ef565b5050610111565b6000602082840312156100d157600080fd5b81516001600160a01b03811681146100e857600080fd5b9392505050565b60006020828403121561010157600080fd5b815180151581146100e857600080fd5b6101f2806101206000396000f3fe608060405234801561001057600080fd5b50600436106100365760003560e01c8063125bfb661461003b578063b2bdfa7b14610050575b600080fd5b61004e610049366004610157565b61007f565b005b600054610063906001600160a01b031681565b6040516001600160a01b03909116815260200160405180910390f35b6000546001600160a01b031633146100c25760405162461bcd60e51b8152602060048201526002602482015261216f60f01b604482015260640160405180910390fd5b60405163a9059cbb60e01b81526001600160a01b0383811660048301526024820183905284169063a9059cbb906044016020604051808303816000875af1158015610111573d6000803e3d6000fd5b505050506040513d601f19601f820116820180604052508101906101359190610193565b50505050565b80356001600160a01b038116811461015257600080fd5b919050565b60008060006060848603121561016c57600080fd5b6101758461013b565b92506101836020850161013b565b9150604084013590509250925092565b6000602082840312156101a557600080fd5b815180151581146101b557600080fd5b939250505056fea264697066735822122097b7e7927a1c1729a06589e579e093a1c52fc72747ff1ad6c08c52d9d7fbaad664736f6c63430008110033",
			"opcodes": "PUSH1 0x80 PUSH1 0x40 MSTORE PUSH2 0x3E8 PUSH1 0xF SSTORE PUSH1 0xC8 PUSH1 0x10 SSTORE PUSH1 0x0 PUSH1 0x11 SSTORE PUSH1 0x0 PUSH1 0x12 SSTORE PUSH1 0x0 PUSH1 0x13 SSTORE PUSH1 0x64 PUSH1 0x14 SSTORE PUSH2 0x3E8 PUSH1 0x15 SSTORE PUSH1 0xC8 PUSH1 0x16 SSTORE PUSH1 0x0 PUSH1 0x17 SSTORE PUSH1 0x0 PUSH1 0x18 SSTORE PUSH1 0x0 PUSH1 0x19 SSTORE PUSH1 0x64 PUSH1 0x1A SSTORE PUSH1 0x32 PUSH1 0x1B SSTORE PUSH1 0x0 PUSH1 0x1C SSTORE PUSH1 0x0 PUSH1 0x20 SSTORE PUSH1 0x0 PUSH1 0x21 SSTORE CALLVALUE DUP1 ISZERO PUSH3 0x63 JUMPI PUSH1 0x0 DUP1 REVERT JUMPDEST POP PUSH1 0x40 DUP1 MLOAD DUP1 DUP3 ADD DUP3 MSTORE PUSH1 0xA DUP2 MSTORE PUSH10 0x50455045322E30425343 PUSH1 0xB0 SHL PUSH1 0x20 DUP1 DUP4 ADD SWAP2 SWAP1 SWAP2 MSTORE DUP3 MLOAD DUP1 DUP5 ADD DUP5 MSTORE PUSH1 0x4 DUP2 MSTORE PUSH4 0x50455045 PUSH1 0xE0 SHL SWAP2 DUP2 ADD SWAP2 SWAP1 SWAP2 MSTORE PUSH1 0x0 DUP1 SLOAD PUSH1 0x1 PUSH1 0x1 PUSH1 0xA0 SHL SUB NOT AND CALLER SWAP1 DUP2 OR DUP3 SSTORE SWAP4 MLOAD PUSH20 0xD99D1C33F9FC3444F8101754ABC46C52416550D1 SWAP5 PUSH20 0xED24FC36D5EE211EA25A80239FB8C4CFD80F12EE SWAP5 SWAP4 SWAP3 PUSH1 0x12 SWAP3 PUSH5 0x174876E800 SWAP3 PUSH20 0xA23134E9E27635965A69987BCD27E000813B4694 SWAP3 PUSH20 0x1A58197081C3F8C06227BCA1E8CBAD145A60C37F SWAP3 DUP5 SWAP3 DUP4 SWAP3 SWAP1 SWAP2 DUP3 SWAP2 SWAP1 PUSH32 0x8BE0079C531659141344CD1FD0A4F28419497F9722A3DAAFE3B4186F6B6457E0 SWAP1 DUP3 SWAP1 LOG3 POP PUSH1 0x6 PUSH3 0x159 DUP10 DUP3 PUSH3 0x621 JUMP JUMPDEST POP PUSH1 0x7 PUSH3 0x168 DUP9 DUP3 PUSH3 0x621 JUMP JUMPDEST POP PUSH1 0x8 DUP1 SLOAD PUSH1 0xFF NOT AND PUSH1 0xFF DUP9 AND OR SWAP1 SSTORE PUSH1 0xC DUP1 SLOAD PUSH1 0x1 PUSH1 0x1 PUSH1 0xA0 SHL SUB NOT SWAP1 DUP2 AND PUSH1 0x1 PUSH1 0x1 PUSH1 0xA0 SHL SUB DUP13 DUP2 AND SWAP2 DUP3 OR SWAP1 SWAP4 SSTORE PUSH1 0xB DUP1 SLOAD SWAP1 SWAP3 AND SWAP3 DUP14 AND SWAP3 DUP4 OR SWAP1 SWAP2 SSTORE ADDRESS PUSH1 0x0 SWAP1 DUP2 MSTORE PUSH1 0x2 PUSH1 0x20 SWAP1 DUP2 MSTORE PUSH1 0x40 DUP1 DUP4 KECCAK256 DUP6 DUP5 MSTORE SWAP1 SWAP2 MSTORE SWAP1 DUP2 SWAP1 KECCAK256 PUSH1 0x0 NOT SWAP1 DUP2 SWAP1 SSTORE SWAP1 MLOAD PUSH4 0x95EA7B3 PUSH1 0xE0 SHL DUP2 MSTORE PUSH1 0x4 DUP2 ADD SWAP4 SWAP1 SWAP4 MSTORE PUSH1 0x24 DUP4 ADD MSTORE DUP12 SWAP2 PUSH4 0x95EA7B3 SWAP1 PUSH1 0x44 ADD PUSH1 0x20 PUSH1 0x40 MLOAD DUP1 DUP4 SUB DUP2 PUSH1 0x0 DUP8 GAS CALL ISZERO DUP1 ISZERO PUSH3 0x210 JUMPI RETURNDATASIZE PUSH1 0x0 DUP1 RETURNDATACOPY RETURNDATASIZE PUSH1 0x0 REVERT JUMPDEST POP POP POP POP PUSH1 0x40 MLOAD RETURNDATASIZE PUSH1 0x1F NOT PUSH1 0x1F DUP3 ADD AND DUP3 ADD DUP1 PUSH1 0x40 MSTORE POP DUP2 ADD SWAP1 PUSH3 0x236 SWAP2 SWAP1 PUSH3 0x6ED JUMP JUMPDEST POP PUSH1 0x0 DUP2 PUSH1 0x1 PUSH1 0x1 PUSH1 0xA0 SHL SUB AND PUSH4 0xC45A0155 PUSH1 0x40 MLOAD DUP2 PUSH4 0xFFFFFFFF AND PUSH1 0xE0 SHL DUP2 MSTORE PUSH1 0x4 ADD PUSH1 0x20 PUSH1 0x40 MLOAD DUP1 DUP4 SUB DUP2 DUP7 GAS STATICCALL ISZERO DUP1 ISZERO PUSH3 0x278 JUMPI RETURNDATASIZE PUSH1 0x0 DUP1 RETURNDATACOPY RETURNDATASIZE PUSH1 0x0 REVERT JUMPDEST POP POP POP POP PUSH1 0x40 MLOAD RETURNDATASIZE PUSH1 0x1F NOT PUSH1 0x1F DUP3 ADD AND DUP3 ADD DUP1 PUSH1 0x40 MSTORE POP DUP2 ADD SWAP1 PUSH3 0x29E SWAP2 SWAP1 PUSH3 0x718 JUMP JUMPDEST PUSH1 0x40 MLOAD PUSH4 0x64E329CB PUSH1 0xE1 SHL DUP2 MSTORE ADDRESS PUSH1 0x4 DUP3 ADD MSTORE PUSH1 0x1 PUSH1 0x1 PUSH1 0xA0 SHL SUB DUP14 DUP2 AND PUSH1 0x24 DUP4 ADD MSTORE SWAP2 SWAP3 POP PUSH1 0x0 SWAP2 DUP4 AND SWAP1 PUSH4 0xC9C65396 SWAP1 PUSH1 0x44 ADD PUSH1 0x20 PUSH1 0x40 MLOAD DUP1 DUP4 SUB DUP2 PUSH1 0x0 DUP8 GAS CALL ISZERO DUP1 ISZERO PUSH3 0x2F3 JUMPI RETURNDATASIZE PUSH1 0x0 DUP1 RETURNDATACOPY RETURNDATASIZE PUSH1 0x0 REVERT JUMPDEST POP POP POP POP PUSH1 0x40 MLOAD RETURNDATASIZE PUSH1 0x1F NOT PUSH1 0x1F DUP3 ADD AND DUP3 ADD DUP1 PUSH1 0x40 MSTORE POP DUP2 ADD SWAP1 PUSH3 0x319 SWAP2 SWAP1 PUSH3 0x718 JUMP JUMPDEST PUSH1 0x1 PUSH1 0x1 PUSH1 0xA0 SHL SUB DUP2 AND PUSH1 0x0 DUP2 DUP2 MSTORE PUSH1 0xD PUSH1 0x20 MSTORE PUSH1 0x40 DUP2 KECCAK256 DUP1 SLOAD PUSH1 0xFF NOT AND PUSH1 0x1 OR SWAP1 SSTORE PUSH1 0x1F DUP1 SLOAD PUSH1 0x1 PUSH1 0x1 PUSH1 0xA0 SHL SUB NOT AND SWAP1 SWAP3 OR SWAP1 SWAP2 SSTORE SWAP1 SWAP2 POP PUSH3 0x360 DUP11 PUSH1 0xA PUSH3 0x858 JUMP JUMPDEST PUSH3 0x36C SWAP1 DUP11 PUSH3 0x869 JUMP JUMPDEST PUSH1 0xA DUP2 SWAP1 SSTORE PUSH1 0x1 PUSH1 0x1 PUSH1 0xA0 SHL SUB DUP7 AND PUSH1 0x0 DUP2 DUP2 MSTORE PUSH1 0x1 PUSH1 0x20 MSTORE PUSH1 0x40 DUP1 DUP3 KECCAK256 DUP5 SWAP1 SSTORE MLOAD SWAP3 SWAP4 POP SWAP1 SWAP2 PUSH32 0xDDF252AD1BE2C89B69C2B068FC378DAA952BA7F163C4A11628F55A4DF523B3EF SWAP1 PUSH3 0x3C3 SWAP1 DUP6 DUP2 MSTORE PUSH1 0x20 ADD SWAP1 JUMP JUMPDEST PUSH1 0x40 MLOAD DUP1 SWAP2 SUB SWAP1 LOG3 PUSH1 0x3 DUP1 SLOAD PUSH1 0x1 PUSH1 0x1 PUSH1 0xA0 SHL SUB DUP1 DUP12 AND PUSH1 0x1 PUSH1 0x1 PUSH1 0xA0 SHL SUB NOT SWAP3 DUP4 AND DUP2 OR SWAP1 SWAP4 SSTORE PUSH1 0x4 DUP1 SLOAD DUP12 DUP4 AND SWAP1 DUP5 AND DUP2 OR SWAP1 SWAP2 SSTORE PUSH1 0x5 DUP1 SLOAD DUP12 DUP5 AND SWAP5 AND DUP5 OR SWAP1 SSTORE PUSH1 0x0 SWAP4 DUP5 MSTORE PUSH1 0x9 PUSH1 0x20 MSTORE PUSH1 0x40 DUP1 DUP6 KECCAK256 DUP1 SLOAD PUSH1 0xFF NOT SWAP1 DUP2 AND PUSH1 0x1 SWAP1 DUP2 OR SWAP1 SWAP3 SSTORE SWAP3 DUP7 MSTORE DUP2 DUP7 KECCAK256 DUP1 SLOAD DUP5 AND DUP3 OR SWAP1 SSTORE SWAP4 DUP6 MSTORE DUP1 DUP6 KECCAK256 DUP1 SLOAD DUP4 AND DUP6 OR SWAP1 SSTORE DUP10 DUP4 AND DUP6 MSTORE DUP1 DUP6 KECCAK256 DUP1 SLOAD DUP4 AND DUP6 OR SWAP1 SSTORE ADDRESS DUP6 MSTORE DUP1 DUP6 KECCAK256 DUP1 SLOAD DUP4 AND DUP6 OR SWAP1 SSTORE SWAP2 DUP9 AND DUP5 MSTORE DUP2 DUP5 KECCAK256 DUP1 SLOAD DUP3 AND DUP5 OR SWAP1 SSTORE CALLER DUP5 MSTORE DUP2 DUP5 KECCAK256 DUP1 SLOAD DUP3 AND DUP5 OR SWAP1 SSTORE PUSH32 0xEC8156718A8372B1DB44BB411437D0870F3E3790D4A08526D024CE1B0B668F6B DUP1 SLOAD DUP3 AND DUP5 OR SWAP1 SSTORE PUSH2 0xDEAD SWAP1 SWAP4 MSTORE PUSH32 0x960B1051749987B45B5679007FFF577A1C2F763EC21C15A6C5EB193075003785 DUP1 SLOAD SWAP1 SWAP4 AND SWAP1 SWAP2 OR SWAP1 SWAP2 SSTORE MLOAD DUP14 SWAP1 PUSH3 0x4E7 SWAP1 PUSH3 0x56E JUMP JUMPDEST PUSH1 0x1 PUSH1 0x1 PUSH1 0xA0 SHL SUB SWAP1 SWAP2 AND DUP2 MSTORE PUSH1 0x20 ADD PUSH1 0x40 MLOAD DUP1 SWAP2 SUB SWAP1 PUSH1 0x0 CREATE DUP1 ISZERO DUP1 ISZERO PUSH3 0x514 JUMPI RETURNDATASIZE PUSH1 0x0 DUP1 RETURNDATACOPY RETURNDATASIZE PUSH1 0x0 REVERT JUMPDEST POP PUSH1 0xE DUP1 SLOAD PUSH1 0x1 PUSH1 0x1 PUSH1 0xA0 SHL SUB SWAP3 SWAP1 SWAP3 AND PUSH2 0x100 MUL PUSH2 0x100 PUSH1 0x1 PUSH1 0xA8 SHL SUB NOT SWAP1 SWAP3 AND SWAP2 SWAP1 SWAP2 OR SWAP1 SSTORE PUSH3 0x549 DUP11 PUSH1 0xA PUSH3 0x858 JUMP JUMPDEST PUSH3 0x556 SWAP1 PUSH1 0x0 PUSH3 0x869 JUMP JUMPDEST PUSH1 0x22 SSTORE POP PUSH3 0x883 SWAP13 POP POP POP POP POP POP POP POP POP POP POP POP POP JUMP JUMPDEST PUSH2 0x312 DUP1 PUSH3 0x2FF1 DUP4 CODECOPY ADD SWAP1 JUMP JUMPDEST PUSH4 0x4E487B71 PUSH1 0xE0 SHL PUSH1 0x0 MSTORE PUSH1 0x41 PUSH1 0x4 MSTORE PUSH1 0x24 PUSH1 0x0 REVERT JUMPDEST PUSH1 0x1 DUP2 DUP2 SHR SWAP1 DUP3 AND DUP1 PUSH3 0x5A7 JUMPI PUSH1 0x7F DUP3 AND SWAP2 POP JUMPDEST PUSH1 0x20 DUP3 LT DUP2 SUB PUSH3 0x5C8 JUMPI PUSH4 0x4E487B71 PUSH1 0xE0 SHL PUSH1 0x0 MSTORE PUSH1 0x22 PUSH1 0x4 MSTORE PUSH1 0x24 PUSH1 0x0 REVERT JUMPDEST POP SWAP2 SWAP1 POP JUMP JUMPDEST PUSH1 0x1F DUP3 GT ISZERO PUSH3 0x61C JUMPI PUSH1 0x0 DUP2 DUP2 MSTORE PUSH1 0x20 DUP2 KECCAK256 PUSH1 0x1F DUP6 ADD PUSH1 0x5 SHR DUP2 ADD PUSH1 0x20 DUP7 LT ISZERO PUSH3 0x5F7 JUMPI POP DUP1 JUMPDEST PUSH1 0x1F DUP6 ADD PUSH1 0x5 SHR DUP3 ADD SWAP2 POP JUMPDEST DUP2 DUP2 LT ISZERO PUSH3 0x618 JUMPI DUP3 DUP2 SSTORE PUSH1 0x1 ADD PUSH3 0x603 JUMP JUMPDEST POP POP POP JUMPDEST POP POP POP JUMP JUMPDEST DUP2 MLOAD PUSH1 0x1 PUSH1 0x1 PUSH1 0x40 SHL SUB DUP2 GT ISZERO PUSH3 0x63D JUMPI PUSH3 0x63D PUSH3 0x57C JUMP JUMPDEST PUSH3 0x655 DUP2 PUSH3 0x64E DUP5 SLOAD PUSH3 0x592 JUMP JUMPDEST DUP5 PUSH3 0x5CE JUMP JUMPDEST PUSH1 0x20 DUP1 PUSH1 0x1F DUP4 GT PUSH1 0x1 DUP2 EQ PUSH3 0x68D JUMPI PUSH1 0x0 DUP5 ISZERO PUSH3 0x674 JUMPI POP DUP6 DUP4 ADD MLOAD JUMPDEST PUSH1 0x0 NOT PUSH1 0x3 DUP7 SWAP1 SHL SHR NOT AND PUSH1 0x1 DUP6 SWAP1 SHL OR DUP6 SSTORE PUSH3 0x618 JUMP JUMPDEST PUSH1 0x0 DUP6 DUP2 MSTORE PUSH1 0x20 DUP2 KECCAK256 PUSH1 0x1F NOT DUP7 AND SWAP2 JUMPDEST DUP3 DUP2 LT ISZERO PUSH3 0x6BE JUMPI DUP9 DUP7 ADD MLOAD DUP3 SSTORE SWAP5 DUP5 ADD SWAP5 PUSH1 0x1 SWAP1 SWAP2 ADD SWAP1 DUP5 ADD PUSH3 0x69D JUMP JUMPDEST POP DUP6 DUP3 LT ISZERO PUSH3 0x6DD JUMPI DUP8 DUP6 ADD MLOAD PUSH1 0x0 NOT PUSH1 0x3 DUP9 SWAP1 SHL PUSH1 0xF8 AND SHR NOT AND DUP2 SSTORE JUMPDEST POP POP POP POP POP PUSH1 0x1 SWAP1 DUP2 SHL ADD SWAP1 SSTORE POP JUMP JUMPDEST PUSH1 0x0 PUSH1 0x20 DUP3 DUP5 SUB SLT ISZERO PUSH3 0x700 JUMPI PUSH1 0x0 DUP1 REVERT JUMPDEST DUP2 MLOAD DUP1 ISZERO ISZERO DUP2 EQ PUSH3 0x711 JUMPI PUSH1 0x0 DUP1 REVERT JUMPDEST SWAP4 SWAP3 POP POP POP JUMP JUMPDEST PUSH1 0x0 PUSH1 0x20 DUP3 DUP5 SUB SLT ISZERO PUSH3 0x72B JUMPI PUSH1 0x0 DUP1 REVERT JUMPDEST DUP2 MLOAD PUSH1 0x1 PUSH1 0x1 PUSH1 0xA0 SHL SUB DUP2 AND DUP2 EQ PUSH3 0x711 JUMPI PUSH1 0x0 DUP1 REVERT JUMPDEST PUSH4 0x4E487B71 PUSH1 0xE0 SHL PUSH1 0x0 MSTORE PUSH1 0x11 PUSH1 0x4 MSTORE PUSH1 0x24 PUSH1 0x0 REVERT JUMPDEST PUSH1 0x1 DUP2 DUP2 JUMPDEST DUP1 DUP6 GT ISZERO PUSH3 0x79A JUMPI DUP2 PUSH1 0x0 NOT DIV DUP3 GT ISZERO PUSH3 0x77E JUMPI PUSH3 0x77E PUSH3 0x743 JUMP JUMPDEST DUP1 DUP6 AND ISZERO PUSH3 0x78C JUMPI SWAP2 DUP2 MUL SWAP2 JUMPDEST SWAP4 DUP5 SHR SWAP4 SWAP1 DUP1 MUL SWAP1 PUSH3 0x75E JUMP JUMPDEST POP SWAP3 POP SWAP3 SWAP1 POP JUMP JUMPDEST PUSH1 0x0 DUP3 PUSH3 0x7B3 JUMPI POP PUSH1 0x1 PUSH3 0x852 JUMP JUMPDEST DUP2 PUSH3 0x7C2 JUMPI POP PUSH1 0x0 PUSH3 0x852 JUMP JUMPDEST DUP2 PUSH1 0x1 DUP2 EQ PUSH3 0x7DB JUMPI PUSH1 0x2 DUP2 EQ PUSH3 0x7E6 JUMPI PUSH3 0x806 JUMP JUMPDEST PUSH1 0x1 SWAP2 POP POP PUSH3 0x852 JUMP JUMPDEST PUSH1 0xFF DUP5 GT ISZERO PUSH3 0x7FA JUMPI PUSH3 0x7FA PUSH3 0x743 JUMP JUMPDEST POP POP PUSH1 0x1 DUP3 SHL PUSH3 0x852 JUMP JUMPDEST POP PUSH1 0x20 DUP4 LT PUSH2 0x133 DUP4 LT AND PUSH1 0x4E DUP5 LT PUSH1 0xB DUP5 LT AND OR ISZERO PUSH3 0x82B JUMPI POP DUP2 DUP2 EXP PUSH3 0x852 JUMP JUMPDEST PUSH3 0x837 DUP4 DUP4 PUSH3 0x759 JUMP JUMPDEST DUP1 PUSH1 0x0 NOT DIV DUP3 GT ISZERO PUSH3 0x84E JUMPI PUSH3 0x84E PUSH3 0x743 JUMP JUMPDEST MUL SWAP1 POP JUMPDEST SWAP3 SWAP2 POP POP JUMP JUMPDEST PUSH1 0x0 PUSH3 0x711 PUSH1 0xFF DUP5 AND DUP4 PUSH3 0x7A2 JUMP JUMPDEST DUP1 DUP3 MUL DUP2 ISZERO DUP3 DUP3 DIV DUP5 EQ OR PUSH3 0x852 JUMPI PUSH3 0x852 PUSH3 0x743 JUMP JUMPDEST PUSH2 0x275E DUP1 PUSH3 0x893 PUSH1 0x0 CODECOPY PUSH1 0x0 RETURN INVALID PUSH1 0x80 PUSH1 0x40 MSTORE PUSH1 0x4 CALLDATASIZE LT PUSH2 0x297 JUMPI PUSH1 0x0 CALLDATALOAD PUSH1 0xE0 SHR DUP1 PUSH4 0x7ABDC1CA GT PUSH2 0x15A JUMPI DUP1 PUSH4 0xB9EC2EC6 GT PUSH2 0xC1 JUMPI DUP1 PUSH4 0xD2C01FC4 GT PUSH2 0x7A JUMPI DUP1 PUSH4 0xD2C01FC4 EQ PUSH2 0x770 JUMPI DUP1 PUSH4 0xD83D4143 EQ PUSH2 0x786 JUMPI DUP1 PUSH4 0xDD62ED3E EQ PUSH2 0x7A6 JUMPI DUP1 PUSH4 0xF2FDE38B EQ PUSH2 0x7EC JUMPI DUP1 PUSH4 0xF40DB851 EQ PUSH2 0x80C JUMPI DUP1 PUSH4 0xFCBD190B EQ PUSH2 0x822 JUMPI PUSH1 0x0 DUP1 REVERT JUMPDEST DUP1 PUSH4 0xB9EC2EC6 EQ PUSH2 0x6D8 JUMPI DUP1 PUSH4 0xB9FBC49D EQ PUSH2 0x6EE JUMPI DUP1 PUSH4 0xC0600AF3 EQ PUSH2 0x704 JUMPI DUP1 PUSH4 0xC38C6826 EQ PUSH2 0x724 JUMPI DUP1 PUSH4 0xCD8D263D EQ PUSH2 0x73A JUMPI DUP1 PUSH4 0xCE0192F9 EQ PUSH2 0x75A JUMPI PUSH1 0x0 DUP1 REVERT JUMPDEST DUP1 PUSH4 0xA8424861 GT PUSH2 0x113 JUMPI DUP1 PUSH4 0xA8424861 EQ PUSH2 0x62C JUMPI DUP1 PUSH4 0xA9059CBB EQ PUSH2 0x64C JUMPI DUP1 PUSH4 0xA925A6BD EQ PUSH2 0x66C JUMPI DUP1 PUSH4 0xAA8B38D9 EQ PUSH2 0x682 JUMPI DUP1 PUSH4 0xADC7955D EQ PUSH2 0x6A2 JUMPI DUP1 PUSH4 0xB2887BEC EQ PUSH2 0x6B8 JUMPI PUSH1 0x0 DUP1 REVERT JUMPDEST DUP1 PUSH4 0x7ABDC1CA EQ PUSH2 0x58D JUMPI DUP1 PUSH4 0x85DC3004 EQ PUSH2 0x5A3 JUMPI DUP1 PUSH4 0x8DA5CB5B EQ PUSH2 0x5C3 JUMPI DUP1 PUSH4 0x8F02BB5B EQ PUSH2 0x5E1 JUMPI DUP1 PUSH4 0x95D89B41 EQ PUSH2 0x601 JUMPI DUP1 PUSH4 0x9BB85344 EQ PUSH2 0x616 JUMPI PUSH1 0x0 DUP1 REVERT JUMPDEST DUP1 PUSH4 0x3BFE62CA GT PUSH2 0x1FE JUMPI DUP1 PUSH4 0x5EF01957 GT PUSH2 0x1B7 JUMPI DUP1 PUSH4 0x5EF01957 EQ PUSH2 0x4E1 JUMPI DUP1 PUSH4 0x61769F95 EQ PUSH2 0x4F7 JUMPI DUP1 PUSH4 0x6C580801 EQ PUSH2 0x50D JUMPI DUP1 PUSH4 0x70A08231 EQ PUSH2 0x522 JUMPI DUP1 PUSH4 0x715018A6 EQ PUSH2 0x558 JUMPI DUP1 PUSH4 0x78759541 EQ PUSH2 0x56D JUMPI PUSH1 0x0 DUP1 REVERT JUMPDEST DUP1 PUSH4 0x3BFE62CA EQ PUSH2 0x431 JUMPI DUP1 PUSH4 0x3DF9A8D2 EQ PUSH2 0x447 JUMPI DUP1 PUSH4 0x4188BF5A EQ PUSH2 0x45D JUMPI DUP1 PUSH4 0x4672F7C5 EQ PUSH2 0x495 JUMPI DUP1 PUSH4 0x48BAD3F5 EQ PUSH2 0x4B5 JUMPI DUP1 PUSH4 0x553193CA EQ PUSH2 0x4CB JUMPI PUSH1 0x0 DUP1 REVERT JUMPDEST DUP1 PUSH4 0x18160DDD GT PUSH2 0x250 JUMPI DUP1 PUSH4 0x18160DDD EQ PUSH2 0x37A JUMPI DUP1 PUSH4 0x1C99F684 EQ PUSH2 0x38F JUMPI DUP1 PUSH4 0x1F107A45 EQ PUSH2 0x3AF JUMPI DUP1 PUSH4 0x23B872DD EQ PUSH2 0x3CF JUMPI DUP1 PUSH4 0x313CE567 EQ PUSH2 0x3EF JUMPI DUP1 PUSH4 0x34902454 EQ PUSH2 0x411 JUMPI PUSH1 0x0 DUP1 REVERT JUMPDEST DUP1 PUSH4 0x6FDDE03 EQ PUSH2 0x2A3 JUMPI DUP1 PUSH4 0x95EA7B3 EQ PUSH2 0x2CE JUMPI DUP1 PUSH4 0xA607930 EQ PUSH2 0x2FE JUMPI DUP1 PUSH4 0xDB5BDE4 EQ PUSH2 0x322 JUMPI DUP1 PUSH4 0x125BFB66 EQ PUSH2 0x338 JUMPI DUP1 PUSH4 0x15306932 EQ PUSH2 0x35A JUMPI PUSH1 0x0 DUP1 REVERT JUMPDEST CALLDATASIZE PUSH2 0x29E JUMPI STOP JUMPDEST PUSH1 0x0 DUP1 REVERT JUMPDEST CALLVALUE DUP1 ISZERO PUSH2 0x2AF JUMPI PUSH1 0x0 DUP1 REVERT JUMPDEST POP PUSH2 0x2B8 PUSH2 0x838 JUMP JUMPDEST PUSH1 0x40 MLOAD PUSH2 0x2C5 SWAP2 SWAP1 PUSH2 0x21E4 JUMP JUMPDEST PUSH1 0x40 MLOAD DUP1 SWAP2 SUB SWAP1 RETURN JUMPDEST CALLVALUE DUP1 ISZERO PUSH2 0x2DA JUMPI PUSH1 0x0 DUP1 REVERT JUMPDEST POP PUSH2 0x2EE PUSH2 0x2E9 CALLDATASIZE PUSH1 0x4 PUSH2 0x224E JUMP JUMPDEST PUSH2 0x8CA JUMP JUMPDEST PUSH1 0x40 MLOAD SWAP1 ISZERO ISZERO DUP2 MSTORE PUSH1 0x20 ADD PUSH2 0x2C5 JUMP JUMPDEST CALLVALUE DUP1 ISZERO PUSH2 0x30A JUMPI PUSH1 0x0 DUP1 REVERT JUMPDEST POP PUSH2 0x314 PUSH1 0x18 SLOAD DUP2 JUMP JUMPDEST PUSH1 0x40 MLOAD SWAP1 DUP2 MSTORE PUSH1 0x20 ADD PUSH2 0x2C5 JUMP JUMPDEST CALLVALUE DUP1 ISZERO PUSH2 0x32E JUMPI PUSH1 0x0 DUP1 REVERT JUMPDEST POP PUSH2 0x314 PUSH1 0x21 SLOAD DUP2 JUMP JUMPDEST CALLVALUE DUP1 ISZERO PUSH2 0x344 JUMPI PUSH1 0x0 DUP1 REVERT JUMPDEST POP PUSH2 0x358 PUSH2 0x353 CALLDATASIZE PUSH1 0x4 PUSH2 0x2278 JUMP JUMPDEST PUSH2 0x8E1 JUMP JUMPDEST STOP JUMPDEST CALLVALUE DUP1 ISZERO PUSH2 0x366 JUMPI PUSH1 0x0 DUP1 REVERT JUMPDEST POP PUSH2 0x358 PUSH2 0x375 CALLDATASIZE PUSH1 0x4 PUSH2 0x22B4 JUMP JUMPDEST PUSH2 0x973 JUMP JUMPDEST CALLVALUE DUP1 ISZERO PUSH2 0x386 JUMPI PUSH1 0x0 DUP1 REVERT JUMPDEST POP PUSH1 0xA SLOAD PUSH2 0x314 JUMP JUMPDEST CALLVALUE DUP1 ISZERO PUSH2 0x39B JUMPI PUSH1 0x0 DUP1 REVERT JUMPDEST POP PUSH2 0x358 PUSH2 0x3AA CALLDATASIZE PUSH1 0x4 PUSH2 0x22CD JUMP JUMPDEST PUSH2 0x9AB JUMP JUMPDEST CALLVALUE DUP1 ISZERO PUSH2 0x3BB JUMPI PUSH1 0x0 DUP1 REVERT JUMPDEST POP PUSH2 0x358 PUSH2 0x3CA CALLDATASIZE PUSH1 0x4 PUSH2 0x22B4 JUMP JUMPDEST PUSH2 0xA91 JUMP JUMPDEST CALLVALUE DUP1 ISZERO PUSH2 0x3DB JUMPI PUSH1 0x0 DUP1 REVERT JUMPDEST POP PUSH2 0x2EE PUSH2 0x3EA CALLDATASIZE PUSH1 0x4 PUSH2 0x2278 JUMP JUMPDEST PUSH2 0xAC0 JUMP JUMPDEST CALLVALUE DUP1 ISZERO PUSH2 0x3FB JUMPI PUSH1 0x0 DUP1 REVERT JUMPDEST POP PUSH1 0x8 SLOAD PUSH1 0x40 MLOAD PUSH1 0xFF SWAP1 SWAP2 AND DUP2 MSTORE PUSH1 0x20 ADD PUSH2 0x2C5 JUMP JUMPDEST CALLVALUE DUP1 ISZERO PUSH2 0x41D JUMPI PUSH1 0x0 DUP1 REVERT JUMPDEST POP PUSH2 0x358 PUSH2 0x42C CALLDATASIZE PUSH1 0x4 PUSH2 0x2319 JUMP JUMPDEST PUSH2 0xB57 JUMP JUMPDEST CALLVALUE DUP1 ISZERO PUSH2 0x43D JUMPI PUSH1 0x0 DUP1 REVERT JUMPDEST POP PUSH2 0x314 PUSH1 0x15 SLOAD DUP2 JUMP JUMPDEST CALLVALUE DUP1 ISZERO PUSH2 0x453 JUMPI PUSH1 0x0 DUP1 REVERT JUMPDEST POP PUSH2 0x314 PUSH1 0x1C SLOAD DUP2 JUMP JUMPDEST CALLVALUE DUP1 ISZERO PUSH2 0x469 JUMPI PUSH1 0x0 DUP1 REVERT JUMPDEST POP PUSH1 0x1F SLOAD PUSH2 0x47D SWAP1 PUSH1 0x1 PUSH1 0x1 PUSH1 0xA0 SHL SUB AND DUP2 JUMP JUMPDEST PUSH1 0x40 MLOAD PUSH1 0x1 PUSH1 0x1 PUSH1 0xA0 SHL SUB SWAP1 SWAP2 AND DUP2 MSTORE PUSH1 0x20 ADD PUSH2 0x2C5 JUMP JUMPDEST CALLVALUE DUP1 ISZERO PUSH2 0x4A1 JUMPI PUSH1 0x0 DUP1 REVERT JUMPDEST POP PUSH2 0x358 PUSH2 0x4B0 CALLDATASIZE PUSH1 0x4 PUSH2 0x2319 JUMP JUMPDEST PUSH2 0xBBB JUMP JUMPDEST CALLVALUE DUP1 ISZERO PUSH2 0x4C1 JUMPI PUSH1 0x0 DUP1 REVERT JUMPDEST POP PUSH2 0x314 PUSH1 0x11 SLOAD DUP2 JUMP JUMPDEST CALLVALUE DUP1 ISZERO PUSH2 0x4D7 JUMPI PUSH1 0x0 DUP1 REVERT JUMPDEST POP PUSH2 0x314 PUSH1 0x1E SLOAD DUP2 JUMP JUMPDEST CALLVALUE DUP1 ISZERO PUSH2 0x4ED JUMPI PUSH1 0x0 DUP1 REVERT JUMPDEST POP PUSH2 0x314 PUSH1 0x20 SLOAD DUP2 JUMP JUMPDEST CALLVALUE DUP1 ISZERO PUSH2 0x503 JUMPI PUSH1 0x0 DUP1 REVERT JUMPDEST POP PUSH2 0x314 PUSH1 0x14 SLOAD DUP2 JUMP JUMPDEST CALLVALUE DUP1 ISZERO PUSH2 0x519 JUMPI PUSH1 0x0 DUP1 REVERT JUMPDEST POP PUSH2 0x358 PUSH2 0xC1F JUMP JUMPDEST CALLVALUE DUP1 ISZERO PUSH2 0x52E JUMPI PUSH1 0x0 DUP1 REVERT JUMPDEST POP PUSH2 0x314 PUSH2 0x53D CALLDATASIZE PUSH1 0x4 PUSH2 0x2319 JUMP JUMPDEST PUSH1 0x1 PUSH1 0x1 PUSH1 0xA0 SHL SUB AND PUSH1 0x0 SWAP1 DUP2 MSTORE PUSH1 0x1 PUSH1 0x20 MSTORE PUSH1 0x40 SWAP1 KECCAK256 SLOAD SWAP1 JUMP JUMPDEST CALLVALUE DUP1 ISZERO PUSH2 0x564 JUMPI PUSH1 0x0 DUP1 REVERT JUMPDEST POP PUSH2 0x358 PUSH2 0xC89 JUMP JUMPDEST CALLVALUE DUP1 ISZERO PUSH2 0x579 JUMPI PUSH1 0x0 DUP1 REVERT JUMPDEST POP PUSH2 0x358 PUSH2 0x588 CALLDATASIZE PUSH1 0x4 PUSH2 0x2278 JUMP JUMPDEST PUSH2 0xCFD JUMP JUMPDEST CALLVALUE DUP1 ISZERO PUSH2 0x599 JUMPI PUSH1 0x0 DUP1 REVERT JUMPDEST POP PUSH2 0x314 PUSH1 0x1B SLOAD DUP2 JUMP JUMPDEST CALLVALUE DUP1 ISZERO PUSH2 0x5AF JUMPI PUSH1 0x0 DUP1 REVERT JUMPDEST POP PUSH2 0x358 PUSH2 0x5BE CALLDATASIZE PUSH1 0x4 PUSH2 0x2319 JUMP JUMPDEST PUSH2 0xD8E JUMP JUMPDEST CALLVALUE DUP1 ISZERO PUSH2 0x5CF JUMPI PUSH1 0x0 DUP1 REVERT JUMPDEST POP PUSH1 0x0 SLOAD PUSH1 0x1 PUSH1 0x1 PUSH1 0xA0 SHL SUB AND PUSH2 0x47D JUMP JUMPDEST CALLVALUE DUP1 ISZERO PUSH2 0x5ED JUMPI PUSH1 0x0 DUP1 REVERT JUMPDEST POP PUSH2 0x358 PUSH2 0x5FC CALLDATASIZE PUSH1 0x4 PUSH2 0x22B4 JUMP JUMPDEST PUSH2 0xDF2 JUMP JUMPDEST CALLVALUE DUP1 ISZERO PUSH2 0x60D JUMPI PUSH1 0x0 DUP1 REVERT JUMPDEST POP PUSH2 0x2B8 PUSH2 0xE21 JUMP JUMPDEST CALLVALUE DUP1 ISZERO PUSH2 0x622 JUMPI PUSH1 0x0 DUP1 REVERT JUMPDEST POP PUSH2 0x314 PUSH1 0x1D SLOAD DUP2 JUMP JUMPDEST CALLVALUE DUP1 ISZERO PUSH2 0x638 JUMPI PUSH1 0x0 DUP1 REVERT JUMPDEST POP PUSH2 0x358 PUSH2 0x647 CALLDATASIZE PUSH1 0x4 PUSH2 0x2354 JUMP JUMPDEST PUSH2 0xE30 JUMP JUMPDEST CALLVALUE DUP1 ISZERO PUSH2 0x658 JUMPI PUSH1 0x0 DUP1 REVERT JUMPDEST POP PUSH2 0x2EE PUSH2 0x667 CALLDATASIZE PUSH1 0x4 PUSH2 0x224E JUMP JUMPDEST PUSH2 0xE85 JUMP JUMPDEST CALLVALUE DUP1 ISZERO PUSH2 0x678 JUMPI PUSH1 0x0 DUP1 REVERT JUMPDEST POP PUSH2 0x314 PUSH1 0x12 SLOAD DUP2 JUMP JUMPDEST CALLVALUE DUP1 ISZERO PUSH2 0x68E JUMPI PUSH1 0x0 DUP1 REVERT JUMPDEST POP PUSH2 0x358 PUSH2 0x69D CALLDATASIZE PUSH1 0x4 PUSH2 0x224E JUMP JUMPDEST PUSH2 0xE92 JUMP JUMPDEST CALLVALUE DUP1 ISZERO PUSH2 0x6AE JUMPI PUSH1 0x0 DUP1 REVERT JUMPDEST POP PUSH2 0x314 PUSH1 0x19 SLOAD DUP2 JUMP JUMPDEST CALLVALUE DUP1 ISZERO PUSH2 0x6C4 JUMPI PUSH1 0x0 DUP1 REVERT JUMPDEST POP PUSH2 0x358 PUSH2 0x6D3 CALLDATASIZE PUSH1 0x4 PUSH2 0x23A1 JUMP JUMPDEST PUSH2 0xEE4 JUMP JUMPDEST CALLVALUE DUP1 ISZERO PUSH2 0x6E4 JUMPI PUSH1 0x0 DUP1 REVERT JUMPDEST POP PUSH2 0x314 PUSH1 0x16 SLOAD DUP2 JUMP JUMPDEST CALLVALUE DUP1 ISZERO PUSH2 0x6FA JUMPI PUSH1 0x0 DUP1 REVERT JUMPDEST POP PUSH2 0x314 PUSH1 0x13 SLOAD DUP2 JUMP JUMPDEST CALLVALUE DUP1 ISZERO PUSH2 0x710 JUMPI PUSH1 0x0 DUP1 REVERT JUMPDEST POP PUSH2 0x358 PUSH2 0x71F CALLDATASIZE PUSH1 0x4 PUSH2 0x2478 JUMP JUMPDEST PUSH2 0xF75 JUMP JUMPDEST CALLVALUE DUP1 ISZERO PUSH2 0x730 JUMPI PUSH1 0x0 DUP1 REVERT JUMPDEST POP PUSH2 0x314 PUSH1 0x10 SLOAD DUP2 JUMP JUMPDEST CALLVALUE DUP1 ISZERO PUSH2 0x746 JUMPI PUSH1 0x0 DUP1 REVERT JUMPDEST POP PUSH2 0x358 PUSH2 0x755 CALLDATASIZE PUSH1 0x4 PUSH2 0x22B4 JUMP JUMPDEST PUSH2 0x104A JUMP JUMPDEST CALLVALUE DUP1 ISZERO PUSH2 0x766 JUMPI PUSH1 0x0 DUP1 REVERT JUMPDEST POP PUSH2 0x314 PUSH1 0xF SLOAD DUP2 JUMP JUMPDEST CALLVALUE DUP1 ISZERO PUSH2 0x77C JUMPI PUSH1 0x0 DUP1 REVERT JUMPDEST POP PUSH2 0x314 PUSH1 0x22 SLOAD DUP2 JUMP JUMPDEST CALLVALUE DUP1 ISZERO PUSH2 0x792 JUMPI PUSH1 0x0 DUP1 REVERT JUMPDEST POP PUSH2 0x358 PUSH2 0x7A1 CALLDATASIZE PUSH1 0x4 PUSH2 0x2354 JUMP JUMPDEST PUSH2 0x1079 JUMP JUMPDEST CALLVALUE DUP1 ISZERO PUSH2 0x7B2 JUMPI PUSH1 0x0 DUP1 REVERT JUMPDEST POP PUSH2 0x314 PUSH2 0x7C1 CALLDATASIZE PUSH1 0x4 PUSH2 0x24BB JUMP JUMPDEST PUSH1 0x1 PUSH1 0x1 PUSH1 0xA0 SHL SUB SWAP2 DUP3 AND PUSH1 0x0 SWAP1 DUP2 MSTORE PUSH1 0x2 PUSH1 0x20 SWAP1 DUP2 MSTORE PUSH1 0x40 DUP1 DUP4 KECCAK256 SWAP4 SWAP1 SWAP5 AND DUP3 MSTORE SWAP2 SWAP1 SWAP2 MSTORE KECCAK256 SLOAD SWAP1 JUMP JUMPDEST CALLVALUE DUP1 ISZERO PUSH2 0x7F8 JUMPI PUSH1 0x0 DUP1 REVERT JUMPDEST POP PUSH2 0x358 PUSH2 0x807 CALLDATASIZE PUSH1 0x4 PUSH2 0x2319 JUMP JUMPDEST PUSH2 0x10CE JUMP JUMPDEST CALLVALUE DUP1 ISZERO PUSH2 0x818 JUMPI PUSH1 0x0 DUP1 REVERT JUMPDEST POP PUSH2 0x314 PUSH1 0x1A SLOAD DUP2 JUMP JUMPDEST CALLVALUE DUP1 ISZERO PUSH2 0x82E JUMPI PUSH1 0x0 DUP1 REVERT JUMPDEST POP PUSH2 0x314 PUSH1 0x17 SLOAD DUP2 JUMP JUMPDEST PUSH1 0x60 PUSH1 0x6 DUP1 SLOAD PUSH2 0x847 SWAP1 PUSH2 0x24EE JUMP JUMPDEST DUP1 PUSH1 0x1F ADD PUSH1 0x20 DUP1 SWAP2 DIV MUL PUSH1 0x20 ADD PUSH1 0x40 MLOAD SWAP1 DUP2 ADD PUSH1 0x40 MSTORE DUP1 SWAP3 SWAP2 SWAP1 DUP2 DUP2 MSTORE PUSH1 0x20 ADD DUP3 DUP1 SLOAD PUSH2 0x873 SWAP1 PUSH2 0x24EE JUMP JUMPDEST DUP1 ISZERO PUSH2 0x8C0 JUMPI DUP1 PUSH1 0x1F LT PUSH2 0x895 JUMPI PUSH2 0x100 DUP1 DUP4 SLOAD DIV MUL DUP4 MSTORE SWAP2 PUSH1 0x20 ADD SWAP2 PUSH2 0x8C0 JUMP JUMPDEST DUP3 ADD SWAP2 SWAP1 PUSH1 0x0 MSTORE PUSH1 0x20 PUSH1 0x0 KECCAK256 SWAP1 JUMPDEST DUP2 SLOAD DUP2 MSTORE SWAP1 PUSH1 0x1 ADD SWAP1 PUSH1 0x20 ADD DUP1 DUP4 GT PUSH2 0x8A3 JUMPI DUP3 SWAP1 SUB PUSH1 0x1F AND DUP3 ADD SWAP2 JUMPDEST POP POP POP POP POP SWAP1 POP SWAP1 JUMP JUMPDEST PUSH1 0x0 PUSH2 0x8D7 CALLER DUP5 DUP5 PUSH2 0x1191 JUMP JUMPDEST POP PUSH1 0x1 JUMPDEST SWAP3 SWAP2 POP POP JUMP JUMPDEST CALLER PUSH1 0x0 SWAP1 DUP2 MSTORE PUSH1 0x9 PUSH1 0x20 MSTORE PUSH1 0x40 SWAP1 KECCAK256 SLOAD PUSH1 0xFF AND ISZERO PUSH2 0x96E JUMPI PUSH1 0x40 MLOAD PUSH4 0xA9059CBB PUSH1 0xE0 SHL DUP2 MSTORE PUSH1 0x1 PUSH1 0x1 PUSH1 0xA0 SHL SUB DUP4 DUP2 AND PUSH1 0x4 DUP4 ADD MSTORE PUSH1 0x24 DUP3 ADD DUP4 SWAP1 MSTORE DUP5 AND SWAP1 PUSH4 0xA9059CBB SWAP1 PUSH1 0x44 ADD PUSH1 0x20 PUSH1 0x40 MLOAD DUP1 DUP4 SUB DUP2 PUSH1 0x0 DUP8 GAS CALL ISZERO DUP1 ISZERO PUSH2 0x948 JUMPI RETURNDATASIZE PUSH1 0x0 DUP1 RETURNDATACOPY RETURNDATASIZE PUSH1 0x0 REVERT JUMPDEST POP POP POP POP PUSH1 0x40 MLOAD RETURNDATASIZE PUSH1 0x1F NOT PUSH1 0x1F DUP3 ADD AND DUP3 ADD DUP1 PUSH1 0x40 MSTORE POP DUP2 ADD SWAP1 PUSH2 0x96C SWAP2 SWAP1 PUSH2 0x2528 JUMP JUMPDEST POP JUMPDEST POP POP POP JUMP JUMPDEST PUSH1 0x0 SLOAD PUSH1 0x1 PUSH1 0x1 PUSH1 0xA0 SHL SUB AND CALLER EQ PUSH2 0x9A6 JUMPI PUSH1 0x40 MLOAD PUSH3 0x461BCD PUSH1 0xE5 SHL DUP2 MSTORE PUSH1 0x4 ADD PUSH2 0x99D SWAP1 PUSH2 0x2545 JUMP JUMPDEST PUSH1 0x40 MLOAD DUP1 SWAP2 SUB SWAP1 REVERT JUMPDEST PUSH1 0x21 SSTORE JUMP JUMPDEST PUSH1 0x0 SLOAD PUSH1 0x1 PUSH1 0x1 PUSH1 0xA0 SHL SUB AND CALLER EQ PUSH2 0x9D5 JUMPI PUSH1 0x40 MLOAD PUSH3 0x461BCD PUSH1 0xE5 SHL DUP2 MSTORE PUSH1 0x4 ADD PUSH2 0x99D SWAP1 PUSH2 0x2545 JUMP JUMPDEST PUSH1 0x0 DUP2 DUP4 DUP6 DUP8 DUP10 PUSH2 0x9E6 DUP13 DUP15 PUSH2 0x257B JUMP JUMPDEST PUSH2 0x9F0 SWAP2 SWAP1 PUSH2 0x257B JUMP JUMPDEST PUSH2 0x9FA SWAP2 SWAP1 PUSH2 0x257B JUMP JUMPDEST PUSH2 0xA04 SWAP2 SWAP1 PUSH2 0x257B JUMP JUMPDEST PUSH2 0xA0E SWAP2 SWAP1 PUSH2 0x257B JUMP JUMPDEST PUSH2 0xA18 SWAP2 SWAP1 PUSH2 0x257B JUMP JUMPDEST SWAP1 POP PUSH1 0x19 PUSH2 0xA28 PUSH2 0x2710 DUP4 PUSH2 0x258E JUMP JUMPDEST GT ISZERO PUSH2 0xA6D JUMPI PUSH1 0x40 MLOAD PUSH3 0x461BCD PUSH1 0xE5 SHL DUP2 MSTORE PUSH1 0x20 PUSH1 0x4 DUP3 ADD MSTORE PUSH1 0x14 PUSH1 0x24 DUP3 ADD MSTORE PUSH20 0x2332B2B9902634B6B4BA1032BC31B2B2B232B217 PUSH1 0x61 SHL PUSH1 0x44 DUP3 ADD MSTORE PUSH1 0x64 ADD PUSH2 0x99D JUMP JUMPDEST POP PUSH1 0x15 SWAP7 SWAP1 SWAP7 SSTORE PUSH1 0x16 SWAP5 SWAP1 SWAP5 SSTORE PUSH1 0x17 SWAP3 SWAP1 SWAP3 SSTORE PUSH1 0x18 SSTORE PUSH1 0x19 SSTORE PUSH1 0x1B SWAP2 SWAP1 SWAP2 SSTORE PUSH1 0x1A SSTORE JUMP JUMPDEST PUSH1 0x0 SLOAD PUSH1 0x1 PUSH1 0x1 PUSH1 0xA0 SHL SUB AND CALLER EQ PUSH2 0xABB JUMPI PUSH1 0x40 MLOAD PUSH3 0x461BCD PUSH1 0xE5 SHL DUP2 MSTORE PUSH1 0x4 ADD PUSH2 0x99D SWAP1 PUSH2 0x2545 JUMP JUMPDEST PUSH1 0x22 SSTORE JUMP JUMPDEST PUSH1 0x0 PUSH2 0xACD DUP5 DUP5 DUP5 PUSH2 0x11F3 JUMP JUMPDEST PUSH1 0x1 PUSH1 0x1 PUSH1 0xA0 SHL SUB DUP5 AND PUSH1 0x0 SWAP1 DUP2 MSTORE PUSH1 0x2 PUSH1 0x20 SWAP1 DUP2 MSTORE PUSH1 0x40 DUP1 DUP4 KECCAK256 CALLER DUP5 MSTORE SWAP1 SWAP2 MSTORE SWAP1 KECCAK256 SLOAD PUSH1 0x0 NOT EQ PUSH2 0xB4D JUMPI PUSH1 0x1 PUSH1 0x1 PUSH1 0xA0 SHL SUB DUP5 AND PUSH1 0x0 SWAP1 DUP2 MSTORE PUSH1 0x2 PUSH1 0x20 SWAP1 DUP2 MSTORE PUSH1 0x40 DUP1 DUP4 KECCAK256 CALLER DUP5 MSTORE SWAP1 SWAP2 MSTORE SWAP1 KECCAK256 SLOAD PUSH2 0xB28 SWAP1 DUP4 SWAP1 PUSH2 0x25B0 JUMP JUMPDEST PUSH1 0x1 PUSH1 0x1 PUSH1 0xA0 SHL SUB DUP6 AND PUSH1 0x0 SWAP1 DUP2 MSTORE PUSH1 0x2 PUSH1 0x20 SWAP1 DUP2 MSTORE PUSH1 0x40 DUP1 DUP4 KECCAK256 CALLER DUP5 MSTORE SWAP1 SWAP2 MSTORE SWAP1 KECCAK256 SSTORE JUMPDEST POP PUSH1 0x1 SWAP4 SWAP3 POP POP POP JUMP JUMPDEST PUSH1 0x0 SLOAD PUSH1 0x1 PUSH1 0x1 PUSH1 0xA0 SHL SUB AND CALLER EQ PUSH2 0xB81 JUMPI PUSH1 0x40 MLOAD PUSH3 0x461BCD PUSH1 0xE5 SHL DUP2 MSTORE PUSH1 0x4 ADD PUSH2 0x99D SWAP1 PUSH2 0x2545 JUMP JUMPDEST PUSH1 0x5 DUP1 SLOAD PUSH1 0x1 PUSH1 0x1 PUSH1 0xA0 SHL SUB SWAP1 SWAP3 AND PUSH1 0x1 PUSH1 0x1 PUSH1 0xA0 SHL SUB NOT SWAP1 SWAP3 AND DUP3 OR SWAP1 SSTORE PUSH1 0x0 SWAP1 DUP2 MSTORE PUSH1 0x9 PUSH1 0x20 MSTORE PUSH1 0x40 SWAP1 KECCAK256 DUP1 SLOAD PUSH1 0xFF NOT AND PUSH1 0x1 OR SWAP1 SSTORE JUMP JUMPDEST PUSH1 0x0 SLOAD PUSH1 0x1 PUSH1 0x1 PUSH1 0xA0 SHL SUB AND CALLER EQ PUSH2 0xBE5 JUMPI PUSH1 0x40 MLOAD PUSH3 0x461BCD PUSH1 0xE5 SHL DUP2 MSTORE PUSH1 0x4 ADD PUSH2 0x99D SWAP1 PUSH2 0x2545 JUMP JUMPDEST PUSH1 0x4 DUP1 SLOAD PUSH1 0x1 PUSH1 0x1 PUSH1 0xA0 SHL SUB SWAP1 SWAP3 AND PUSH1 0x1 PUSH1 0x1 PUSH1 0xA0 SHL SUB NOT SWAP1 SWAP3 AND DUP3 OR SWAP1 SSTORE PUSH1 0x0 SWAP1 DUP2 MSTORE PUSH1 0x9 PUSH1 0x20 MSTORE PUSH1 0x40 SWAP1 KECCAK256 DUP1 SLOAD PUSH1 0xFF NOT AND PUSH1 0x1 OR SWAP1 SSTORE JUMP JUMPDEST PUSH1 0x0 SLOAD PUSH1 0x1 PUSH1 0x1 PUSH1 0xA0 SHL SUB AND CALLER EQ PUSH2 0xC49 JUMPI PUSH1 0x40 MLOAD PUSH3 0x461BCD PUSH1 0xE5 SHL DUP2 MSTORE PUSH1 0x4 ADD PUSH2 0x99D SWAP1 PUSH2 0x2545 JUMP JUMPDEST PUSH1 0x1E SLOAD ISZERO PUSH2 0xC83 JUMPI PUSH1 0x40 MLOAD PUSH3 0x461BCD PUSH1 0xE5 SHL DUP2 MSTORE PUSH1 0x20 PUSH1 0x4 DUP3 ADD MSTORE PUSH1 0x7 PUSH1 0x24 DUP3 ADD MSTORE PUSH7 0x74726164696E67 PUSH1 0xC8 SHL PUSH1 0x44 DUP3 ADD MSTORE PUSH1 0x64 ADD PUSH2 0x99D JUMP JUMPDEST NUMBER PUSH1 0x1E SSTORE JUMP JUMPDEST PUSH1 0x0 SLOAD PUSH1 0x1 PUSH1 0x1 PUSH1 0xA0 SHL SUB AND CALLER EQ PUSH2 0xCB3 JUMPI PUSH1 0x40 MLOAD PUSH3 0x461BCD PUSH1 0xE5 SHL DUP2 MSTORE PUSH1 0x4 ADD PUSH2 0x99D SWAP1 PUSH2 0x2545 JUMP JUMPDEST PUSH1 0x0 DUP1 SLOAD PUSH1 0x40 MLOAD PUSH1 0x1 PUSH1 0x1 PUSH1 0xA0 SHL SUB SWAP1 SWAP2 AND SWAP1 PUSH32 0x8BE0079C531659141344CD1FD0A4F28419497F9722A3DAAFE3B4186F6B6457E0 SWAP1 DUP4 SWAP1 LOG3 PUSH1 0x0 DUP1 SLOAD PUSH1 0x1 PUSH1 0x1 PUSH1 0xA0 SHL SUB NOT AND SWAP1 SSTORE JUMP JUMPDEST CALLER PUSH1 0x0 SWAP1 DUP2 MSTORE PUSH1 0x9 PUSH1 0x20 MSTORE PUSH1 0x40 SWAP1 KECCAK256 SLOAD PUSH1 0xFF AND ISZERO PUSH2 0x96E JUMPI PUSH1 0xE SLOAD PUSH1 0x40 MLOAD PUSH4 0x92DFDB3 PUSH1 0xE1 SHL DUP2 MSTORE PUSH1 0x1 PUSH1 0x1 PUSH1 0xA0 SHL SUB DUP6 DUP2 AND PUSH1 0x4 DUP4 ADD MSTORE DUP5 DUP2 AND PUSH1 0x24 DUP4 ADD MSTORE PUSH1 0x44 DUP3 ADD DUP5 SWAP1 MSTORE PUSH2 0x100 SWAP1 SWAP3 DIV SWAP1 SWAP2 AND SWAP1 PUSH4 0x125BFB66 SWAP1 PUSH1 0x64 ADD PUSH1 0x0 PUSH1 0x40 MLOAD DUP1 DUP4 SUB DUP2 PUSH1 0x0 DUP8 DUP1 EXTCODESIZE ISZERO DUP1 ISZERO PUSH2 0xD71 JUMPI PUSH1 0x0 DUP1 REVERT JUMPDEST POP GAS CALL ISZERO DUP1 ISZERO PUSH2 0xD85 JUMPI RETURNDATASIZE PUSH1 0x0 DUP1 RETURNDATACOPY RETURNDATASIZE PUSH1 0x0 REVERT JUMPDEST POP POP POP POP POP POP POP JUMP JUMPDEST PUSH1 0x0 SLOAD PUSH1 0x1 PUSH1 0x1 PUSH1 0xA0 SHL SUB AND CALLER EQ PUSH2 0xDB8 JUMPI PUSH1 0x40 MLOAD PUSH3 0x461BCD PUSH1 0xE5 SHL DUP2 MSTORE PUSH1 0x4 ADD PUSH2 0x99D SWAP1 PUSH2 0x2545 JUMP JUMPDEST PUSH1 0x3 DUP1 SLOAD PUSH1 0x1 PUSH1 0x1 PUSH1 0xA0 SHL SUB SWAP1 SWAP3 AND PUSH1 0x1 PUSH1 0x1 PUSH1 0xA0 SHL SUB NOT SWAP1 SWAP3 AND DUP3 OR SWAP1 SSTORE PUSH1 0x0 SWAP1 DUP2 MSTORE PUSH1 0x9 PUSH1 0x20 MSTORE PUSH1 0x40 SWAP1 KECCAK256 DUP1 SLOAD PUSH1 0xFF NOT AND PUSH1 0x1 OR SWAP1 SSTORE JUMP JUMPDEST PUSH1 0x0 SLOAD PUSH1 0x1 PUSH1 0x1 PUSH1 0xA0 SHL SUB AND CALLER EQ PUSH2 0xE1C JUMPI PUSH1 0x40 MLOAD PUSH3 0x461BCD PUSH1 0xE5 SHL DUP2 MSTORE PUSH1 0x4 ADD PUSH2 0x99D SWAP1 PUSH2 0x2545 JUMP JUMPDEST PUSH1 0x1C SSTORE JUMP JUMPDEST PUSH1 0x60 PUSH1 0x7 DUP1 SLOAD PUSH2 0x847 SWAP1 PUSH2 0x24EE JUMP JUMPDEST PUSH1 0x0 SLOAD PUSH1 0x1 PUSH1 0x1 PUSH1 0xA0 SHL SUB AND CALLER EQ PUSH2 0xE5A JUMPI PUSH1 0x40 MLOAD PUSH3 0x461BCD PUSH1 0xE5 SHL DUP2 MSTORE PUSH1 0x4 ADD PUSH2 0x99D SWAP1 PUSH2 0x2545 JUMP JUMPDEST PUSH1 0x1 PUSH1 0x1 PUSH1 0xA0 SHL SUB SWAP2 SWAP1 SWAP2 AND PUSH1 0x0 SWAP1 DUP2 MSTORE PUSH1 0xD PUSH1 0x20 MSTORE PUSH1 0x40 SWAP1 KECCAK256 DUP1 SLOAD PUSH1 0xFF NOT AND SWAP2 ISZERO ISZERO SWAP2 SWAP1 SWAP2 OR SWAP1 SSTORE JUMP JUMPDEST PUSH1 0x0 PUSH2 0x8D7 CALLER DUP5 DUP5 PUSH2 0x11F3 JUMP JUMPDEST CALLER PUSH1 0x0 SWAP1 DUP2 MSTORE PUSH1 0x9 PUSH1 0x20 MSTORE PUSH1 0x40 SWAP1 KECCAK256 SLOAD PUSH1 0xFF AND ISZERO PUSH2 0xEE0 JUMPI PUSH1 0x40 MLOAD PUSH1 0x1 PUSH1 0x1 PUSH1 0xA0 SHL SUB DUP4 AND SWAP1 DUP3 ISZERO PUSH2 0x8FC MUL SWAP1 DUP4 SWAP1 PUSH1 0x0 DUP2 DUP2 DUP2 DUP6 DUP9 DUP9 CALL SWAP4 POP POP POP POP ISZERO DUP1 ISZERO PUSH2 0x96E JUMPI RETURNDATASIZE PUSH1 0x0 DUP1 RETURNDATACOPY RETURNDATASIZE PUSH1 0x0 REVERT JUMPDEST POP POP JUMP JUMPDEST PUSH1 0x0 SLOAD PUSH1 0x1 PUSH1 0x1 PUSH1 0xA0 SHL SUB AND CALLER EQ PUSH2 0xF0E JUMPI PUSH1 0x40 MLOAD PUSH3 0x461BCD PUSH1 0xE5 SHL DUP2 MSTORE PUSH1 0x4 ADD PUSH2 0x99D SWAP1 PUSH2 0x2545 JUMP JUMPDEST PUSH1 0x0 JUMPDEST DUP3 MLOAD DUP2 LT ISZERO PUSH2 0x96E JUMPI DUP2 PUSH1 0x9 PUSH1 0x0 DUP6 DUP5 DUP2 MLOAD DUP2 LT PUSH2 0xF31 JUMPI PUSH2 0xF31 PUSH2 0x25C3 JUMP JUMPDEST PUSH1 0x20 SWAP1 DUP2 MUL SWAP2 SWAP1 SWAP2 ADD DUP2 ADD MLOAD PUSH1 0x1 PUSH1 0x1 PUSH1 0xA0 SHL SUB AND DUP3 MSTORE DUP2 ADD SWAP2 SWAP1 SWAP2 MSTORE PUSH1 0x40 ADD PUSH1 0x0 KECCAK256 DUP1 SLOAD PUSH1 0xFF NOT AND SWAP2 ISZERO ISZERO SWAP2 SWAP1 SWAP2 OR SWAP1 SSTORE DUP1 PUSH2 0xF6D DUP2 PUSH2 0x25D9 JUMP JUMPDEST SWAP2 POP POP PUSH2 0xF11 JUMP JUMPDEST PUSH1 0x0 SLOAD PUSH1 0x1 PUSH1 0x1 PUSH1 0xA0 SHL SUB AND CALLER EQ PUSH2 0xF9F JUMPI PUSH1 0x40 MLOAD PUSH3 0x461BCD PUSH1 0xE5 SHL DUP2 MSTORE PUSH1 0x4 ADD PUSH2 0x99D SWAP1 PUSH2 0x2545 JUMP JUMPDEST PUSH1 0x0 DUP2 DUP4 DUP6 DUP8 PUSH2 0xFAF DUP11 DUP13 PUSH2 0x257B JUMP JUMPDEST PUSH2 0xFB9 SWAP2 SWAP1 PUSH2 0x257B JUMP JUMPDEST PUSH2 0xFC3 SWAP2 SWAP1 PUSH2 0x257B JUMP JUMPDEST PUSH2 0xFCD SWAP2 SWAP1 PUSH2 0x257B JUMP JUMPDEST PUSH2 0xFD7 SWAP2 SWAP1 PUSH2 0x257B JUMP JUMPDEST SWAP1 POP PUSH1 0x19 PUSH2 0xFE7 PUSH2 0x2710 DUP4 PUSH2 0x258E JUMP JUMPDEST GT ISZERO PUSH2 0x102C JUMPI PUSH1 0x40 MLOAD PUSH3 0x461BCD PUSH1 0xE5 SHL DUP2 MSTORE PUSH1 0x20 PUSH1 0x4 DUP3 ADD MSTORE PUSH1 0x14 PUSH1 0x24 DUP3 ADD MSTORE PUSH20 0x2332B2B9902634B6B4BA1032BC31B2B2B232B217 PUSH1 0x61 SHL PUSH1 0x44 DUP3 ADD MSTORE PUSH1 0x64 ADD PUSH2 0x99D JUMP JUMPDEST POP PUSH1 0xF SWAP6 SWAP1 SWAP6 SSTORE PUSH1 0x10 SWAP4 SWAP1 SWAP4 SSTORE PUSH1 0x11 SWAP2 SWAP1 SWAP2 SSTORE PUSH1 0x12 SSTORE PUSH1 0x13 SSTORE PUSH1 0x14 SSTORE JUMP JUMPDEST PUSH1 0x0 SLOAD PUSH1 0x1 PUSH1 0x1 PUSH1 0xA0 SHL SUB AND CALLER EQ PUSH2 0x1074 JUMPI PUSH1 0x40 MLOAD PUSH3 0x461BCD PUSH1 0xE5 SHL DUP2 MSTORE PUSH1 0x4 ADD PUSH2 0x99D SWAP1 PUSH2 0x2545 JUMP JUMPDEST PUSH1 0x20 SSTORE JUMP JUMPDEST PUSH1 0x0 SLOAD PUSH1 0x1 PUSH1 0x1 PUSH1 0xA0 SHL SUB AND CALLER EQ PUSH2 0x10A3 JUMPI PUSH1 0x40 MLOAD PUSH3 0x461BCD PUSH1 0xE5 SHL DUP2 MSTORE PUSH1 0x4 ADD PUSH2 0x99D SWAP1 PUSH2 0x2545 JUMP JUMPDEST PUSH1 0x1 PUSH1 0x1 PUSH1 0xA0 SHL SUB SWAP2 SWAP1 SWAP2 AND PUSH1 0x0 SWAP1 DUP2 MSTORE PUSH1 0x9 PUSH1 0x20 MSTORE PUSH1 0x40 SWAP1 KECCAK256 DUP1 SLOAD PUSH1 0xFF NOT AND SWAP2 ISZERO ISZERO SWAP2 SWAP1 SWAP2 OR SWAP1 SSTORE JUMP JUMPDEST PUSH1 0x0 SLOAD PUSH1 0x1 PUSH1 0x1 PUSH1 0xA0 SHL SUB AND CALLER EQ PUSH2 0x10F8 JUMPI PUSH1 0x40 MLOAD PUSH3 0x461BCD PUSH1 0xE5 SHL DUP2 MSTORE PUSH1 0x4 ADD PUSH2 0x99D SWAP1 PUSH2 0x2545 JUMP JUMPDEST PUSH1 0x1 PUSH1 0x1 PUSH1 0xA0 SHL SUB DUP2 AND PUSH2 0x1136 JUMPI PUSH1 0x40 MLOAD PUSH3 0x461BCD PUSH1 0xE5 SHL DUP2 MSTORE PUSH1 0x20 PUSH1 0x4 DUP3 ADD MSTORE PUSH1 0x5 PUSH1 0x24 DUP3 ADD MSTORE PUSH5 0x6E6577203 PUSH1 0xDC SHL PUSH1 0x44 DUP3 ADD MSTORE PUSH1 0x64 ADD PUSH2 0x99D JUMP JUMPDEST PUSH1 0x0 DUP1 SLOAD PUSH1 0x40 MLOAD PUSH1 0x1 PUSH1 0x1 PUSH1 0xA0 SHL SUB DUP1 DUP6 AND SWAP4 SWAP3 AND SWAP2 PUSH32 0x8BE0079C531659141344CD1FD0A4F28419497F9722A3DAAFE3B4186F6B6457E0 SWAP2 LOG3 PUSH1 0x0 DUP1 SLOAD PUSH1 0x1 PUSH1 0x1 PUSH1 0xA0 SHL SUB NOT AND PUSH1 0x1 PUSH1 0x1 PUSH1 0xA0 SHL SUB SWAP3 SWAP1 SWAP3 AND SWAP2 SWAP1 SWAP2 OR SWAP1 SSTORE JUMP JUMPDEST PUSH1 0x1 PUSH1 0x1 PUSH1 0xA0 SHL SUB DUP4 DUP2 AND PUSH1 0x0 DUP2 DUP2 MSTORE PUSH1 0x2 PUSH1 0x20 SWAP1 DUP2 MSTORE PUSH1 0x40 DUP1 DUP4 KECCAK256 SWAP5 DUP8 AND DUP1 DUP5 MSTORE SWAP5 DUP3 MSTORE SWAP2 DUP3 SWAP1 KECCAK256 DUP6 SWAP1 SSTORE SWAP1 MLOAD DUP5 DUP2 MSTORE PUSH32 0x8C5BE1E5EBEC7D5BD14F71427D1E84F3DD0314C0F7B2291E5B200AC8C7C3B925 SWAP2 ADD JUMPDEST PUSH1 0x40 MLOAD DUP1 SWAP2 SUB SWAP1 LOG3 POP POP POP JUMP JUMPDEST PUSH1 0x1 PUSH1 0x1 PUSH1 0xA0 SHL SUB DUP4 AND PUSH1 0x0 SWAP1 DUP2 MSTORE PUSH1 0x1 PUSH1 0x20 MSTORE PUSH1 0x40 SWAP1 KECCAK256 SLOAD DUP2 DUP2 LT ISZERO PUSH2 0x124F JUMPI PUSH1 0x40 MLOAD PUSH3 0x461BCD PUSH1 0xE5 SHL DUP2 MSTORE PUSH1 0x20 PUSH1 0x4 DUP3 ADD MSTORE PUSH1 0x10 PUSH1 0x24 DUP3 ADD MSTORE PUSH16 0xC4C2D8C2DCC6CA9CDEE88ADCDEEACED PUSH1 0x83 SHL PUSH1 0x44 DUP3 ADD MSTORE PUSH1 0x64 ADD PUSH2 0x99D JUMP JUMPDEST PUSH1 0x1 PUSH1 0x1 PUSH1 0xA0 SHL SUB DUP5 AND PUSH1 0x0 SWAP1 DUP2 MSTORE PUSH1 0x9 PUSH1 0x20 MSTORE PUSH1 0x40 DUP2 KECCAK256 SLOAD PUSH1 0xFF AND ISZERO DUP1 ISZERO PUSH2 0x1291 JUMPI POP PUSH1 0x1 PUSH1 0x1 PUSH1 0xA0 SHL SUB DUP5 AND PUSH1 0x0 SWAP1 DUP2 MSTORE PUSH1 0x9 PUSH1 0x20 MSTORE PUSH1 0x40 SWAP1 KECCAK256 SLOAD PUSH1 0xFF AND ISZERO JUMPDEST ISZERO PUSH2 0x12C7 JUMPI PUSH1 0x0 PUSH3 0x186A0 PUSH2 0x12A9 DUP5 PUSH3 0x1869F PUSH2 0x25F2 JUMP JUMPDEST PUSH2 0x12B3 SWAP2 SWAP1 PUSH2 0x258E JUMP JUMPDEST SWAP1 POP DUP1 DUP5 GT ISZERO PUSH2 0x12C1 JUMPI DUP1 SWAP4 POP JUMPDEST PUSH1 0x1 SWAP2 POP POP JUMPDEST PUSH1 0x1 PUSH1 0x1 PUSH1 0xA0 SHL SUB DUP6 AND PUSH1 0x0 SWAP1 DUP2 MSTORE PUSH1 0xD PUSH1 0x20 MSTORE PUSH1 0x40 DUP2 KECCAK256 SLOAD DUP2 SWAP1 PUSH1 0xFF AND DUP1 PUSH2 0x1308 JUMPI POP PUSH1 0x1 PUSH1 0x1 PUSH1 0xA0 SHL SUB DUP7 AND PUSH1 0x0 SWAP1 DUP2 MSTORE PUSH1 0xD PUSH1 0x20 MSTORE PUSH1 0x40 SWAP1 KECCAK256 SLOAD PUSH1 0xFF AND JUMPDEST ISZERO PUSH2 0x14C1 JUMPI PUSH1 0x1D SLOAD PUSH1 0x0 SUB PUSH2 0x13C1 JUMPI PUSH1 0x1 PUSH1 0x1 PUSH1 0xA0 SHL SUB DUP8 AND PUSH1 0x0 SWAP1 DUP2 MSTORE PUSH1 0x9 PUSH1 0x20 MSTORE PUSH1 0x40 SWAP1 KECCAK256 SLOAD PUSH1 0xFF AND DUP1 ISZERO PUSH2 0x134C JUMPI POP PUSH1 0x1F SLOAD PUSH1 0x1 PUSH1 0x1 PUSH1 0xA0 SHL SUB DUP8 DUP2 AND SWAP2 AND EQ JUMPDEST DUP1 ISZERO PUSH2 0x13B7 JUMPI POP DUP6 PUSH1 0x1 PUSH1 0x1 PUSH1 0xA0 SHL SUB AND PUSH4 0x18160DDD PUSH1 0x40 MLOAD DUP2 PUSH4 0xFFFFFFFF AND PUSH1 0xE0 SHL DUP2 MSTORE PUSH1 0x4 ADD PUSH1 0x20 PUSH1 0x40 MLOAD DUP1 DUP4 SUB DUP2 DUP7 GAS STATICCALL ISZERO DUP1 ISZERO PUSH2 0x1391 JUMPI RETURNDATASIZE PUSH1 0x0 DUP1 RETURNDATACOPY RETURNDATASIZE PUSH1 0x0 REVERT JUMPDEST POP POP POP POP PUSH1 0x40 MLOAD RETURNDATASIZE PUSH1 0x1F NOT PUSH1 0x1F DUP3 ADD AND DUP3 ADD DUP1 PUSH1 0x40 MSTORE POP DUP2 ADD SWAP1 PUSH2 0x13B5 SWAP2 SWAP1 PUSH2 0x2609 JUMP JUMPDEST ISZERO JUMPDEST ISZERO PUSH2 0x13C1 JUMPI NUMBER PUSH1 0x1D SSTORE JUMPDEST PUSH1 0x1 PUSH1 0x1 PUSH1 0xA0 SHL SUB DUP8 AND PUSH1 0x0 SWAP1 DUP2 MSTORE PUSH1 0x9 PUSH1 0x20 MSTORE PUSH1 0x40 SWAP1 KECCAK256 SLOAD PUSH1 0xFF AND ISZERO DUP1 ISZERO PUSH2 0x1403 JUMPI POP PUSH1 0x1 PUSH1 0x1 PUSH1 0xA0 SHL SUB DUP7 AND PUSH1 0x0 SWAP1 DUP2 MSTORE PUSH1 0x9 PUSH1 0x20 MSTORE PUSH1 0x40 SWAP1 KECCAK256 SLOAD PUSH1 0xFF AND ISZERO JUMPDEST ISZERO PUSH2 0x14BC JUMPI PUSH1 0x1 PUSH1 0x1 PUSH1 0xA0 SHL SUB DUP8 AND PUSH1 0x0 SWAP1 DUP2 MSTORE PUSH1 0xD PUSH1 0x20 MSTORE PUSH1 0x40 SWAP1 KECCAK256 SLOAD PUSH1 0xFF AND ISZERO PUSH2 0x1438 JUMPI PUSH2 0x1431 PUSH2 0x150B JUMP JUMPDEST SWAP2 POP PUSH2 0x1443 JUMP JUMPDEST PUSH2 0x1440 PUSH2 0x162E JUMP JUMPDEST SWAP1 POP JUMPDEST PUSH1 0x1E SLOAD PUSH1 0x0 SUB PUSH2 0x1491 JUMPI PUSH1 0x1D SLOAD PUSH1 0x0 LT DUP1 ISZERO PUSH2 0x145C JUMPI POP DUP1 JUMPDEST PUSH2 0x1491 JUMPI PUSH1 0x40 MLOAD PUSH3 0x461BCD PUSH1 0xE5 SHL DUP2 MSTORE PUSH1 0x20 PUSH1 0x4 DUP3 ADD MSTORE PUSH1 0x6 PUSH1 0x24 DUP3 ADD MSTORE PUSH6 0x215472616465 PUSH1 0xD0 SHL PUSH1 0x44 DUP3 ADD MSTORE PUSH1 0x64 ADD PUSH2 0x99D JUMP JUMPDEST PUSH1 0x1E SLOAD PUSH2 0x149F SWAP1 PUSH1 0x3 PUSH2 0x257B JUMP JUMPDEST NUMBER LT ISZERO PUSH2 0x14BC JUMPI PUSH2 0x14B3 DUP8 DUP8 DUP8 PUSH1 0x63 PUSH2 0x1751 JUMP JUMPDEST PUSH2 0xD85 DUP7 PUSH2 0x17E2 JUMP JUMPDEST PUSH2 0x14FD JUMP JUMPDEST PUSH1 0x1 PUSH1 0x1 PUSH1 0xA0 SHL SUB DUP7 AND PUSH1 0x0 SWAP1 DUP2 MSTORE PUSH1 0x1 PUSH1 0x20 MSTORE PUSH1 0x40 SWAP1 KECCAK256 SLOAD ISZERO DUP1 ISZERO PUSH2 0x14E7 JUMPI POP PUSH1 0x0 DUP6 GT JUMPDEST DUP1 ISZERO PUSH2 0x14FB JUMPI POP PUSH1 0x1 PUSH1 0x1 PUSH1 0xA0 SHL SUB DUP7 AND ISZERO ISZERO JUMPDEST POP JUMPDEST PUSH2 0x14B3 DUP8 DUP8 DUP8 DUP7 DUP7 DUP7 PUSH2 0x1899 JUMP JUMPDEST PUSH1 0x1F SLOAD PUSH1 0x40 DUP1 MLOAD PUSH4 0x240BC6B PUSH1 0xE2 SHL DUP2 MSTORE SWAP1 MLOAD PUSH1 0x0 SWAP3 PUSH1 0x1 PUSH1 0x1 PUSH1 0xA0 SHL SUB AND SWAP2 DUP4 SWAP2 DUP3 SWAP2 DUP5 SWAP2 PUSH4 0x902F1AC SWAP2 PUSH1 0x4 DUP1 DUP3 ADD SWAP3 PUSH1 0x60 SWAP3 SWAP1 SWAP2 SWAP1 DUP3 SWAP1 SUB ADD DUP2 DUP7 GAS STATICCALL ISZERO DUP1 ISZERO PUSH2 0x155C JUMPI RETURNDATASIZE PUSH1 0x0 DUP1 RETURNDATACOPY RETURNDATASIZE PUSH1 0x0 REVERT JUMPDEST POP POP POP POP PUSH1 0x40 MLOAD RETURNDATASIZE PUSH1 0x1F NOT PUSH1 0x1F DUP3 ADD AND DUP3 ADD DUP1 PUSH1 0x40 MSTORE POP DUP2 ADD SWAP1 PUSH2 0x1580 SWAP2 SWAP1 PUSH2 0x2639 JUMP JUMPDEST POP PUSH1 0xC SLOAD PUSH1 0x1 PUSH1 0x1 PUSH1 0x70 SHL SUB SWAP3 DUP4 AND SWAP5 POP SWAP2 AND SWAP2 POP PUSH1 0x1 PUSH1 0x1 PUSH1 0xA0 SHL SUB AND PUSH1 0x0 ADDRESS DUP3 LT ISZERO PUSH2 0x15AF JUMPI POP DUP3 PUSH2 0x15B2 JUMP JUMPDEST POP DUP2 JUMPDEST PUSH1 0x40 MLOAD PUSH4 0x70A08231 PUSH1 0xE0 SHL DUP2 MSTORE PUSH1 0x1 PUSH1 0x1 PUSH1 0xA0 SHL SUB DUP7 DUP2 AND PUSH1 0x4 DUP4 ADD MSTORE PUSH1 0x0 SWAP2 SWAP1 DUP5 AND SWAP1 PUSH4 0x70A08231 SWAP1 PUSH1 0x24 ADD PUSH1 0x20 PUSH1 0x40 MLOAD DUP1 DUP4 SUB DUP2 DUP7 GAS STATICCALL ISZERO DUP1 ISZERO PUSH2 0x15FC JUMPI RETURNDATASIZE PUSH1 0x0 DUP1 RETURNDATACOPY RETURNDATASIZE PUSH1 0x0 REVERT JUMPDEST POP POP POP POP PUSH1 0x40 MLOAD RETURNDATASIZE PUSH1 0x1F NOT PUSH1 0x1F DUP3 ADD AND DUP3 ADD DUP1 PUSH1 0x40 MSTORE POP DUP2 ADD SWAP1 PUSH2 0x1620 SWAP2 SWAP1 PUSH2 0x2609 JUMP JUMPDEST SWAP1 SWAP2 LT ISZERO SWAP7 SWAP6 POP POP POP POP POP POP JUMP JUMPDEST PUSH1 0x1F SLOAD PUSH1 0x40 DUP1 MLOAD PUSH4 0x240BC6B PUSH1 0xE2 SHL DUP2 MSTORE SWAP1 MLOAD PUSH1 0x0 SWAP3 PUSH1 0x1 PUSH1 0x1 PUSH1 0xA0 SHL SUB AND SWAP2 DUP4 SWAP2 DUP3 SWAP2 DUP5 SWAP2 PUSH4 0x902F1AC SWAP2 PUSH1 0x4 DUP1 DUP3 ADD SWAP3 PUSH1 0x60 SWAP3 SWAP1 SWAP2 SWAP1 DUP3 SWAP1 SUB ADD DUP2 DUP7 GAS STATICCALL ISZERO DUP1 ISZERO PUSH2 0x167F JUMPI RETURNDATASIZE PUSH1 0x0 DUP1 RETURNDATACOPY RETURNDATASIZE PUSH1 0x0 REVERT JUMPDEST POP POP POP POP PUSH1 0x40 MLOAD RETURNDATASIZE PUSH1 0x1F NOT PUSH1 0x1F DUP3 ADD AND DUP3 ADD DUP1 PUSH1 0x40 MSTORE POP DUP2 ADD SWAP1 PUSH2 0x16A3 SWAP2 SWAP1 PUSH2 0x2639 JUMP JUMPDEST POP PUSH1 0xC SLOAD PUSH1 0x1 PUSH1 0x1 PUSH1 0x70 SHL SUB SWAP3 DUP4 AND SWAP5 POP SWAP2 AND SWAP2 POP PUSH1 0x1 PUSH1 0x1 PUSH1 0xA0 SHL SUB AND PUSH1 0x0 ADDRESS DUP3 LT ISZERO PUSH2 0x16D2 JUMPI POP DUP3 PUSH2 0x16D5 JUMP JUMPDEST POP DUP2 JUMPDEST PUSH1 0x40 MLOAD PUSH4 0x70A08231 PUSH1 0xE0 SHL DUP2 MSTORE PUSH1 0x1 PUSH1 0x1 PUSH1 0xA0 SHL SUB DUP7 DUP2 AND PUSH1 0x4 DUP4 ADD MSTORE PUSH1 0x0 SWAP2 SWAP1 DUP5 AND SWAP1 PUSH4 0x70A08231 SWAP1 PUSH1 0x24 ADD PUSH1 0x20 PUSH1 0x40 MLOAD DUP1 DUP4 SUB DUP2 DUP7 GAS STATICCALL ISZERO DUP1 ISZERO PUSH2 0x171F JUMPI RETURNDATASIZE PUSH1 0x0 DUP1 RETURNDATACOPY RETURNDATASIZE PUSH1 0x0 REVERT JUMPDEST POP POP POP POP PUSH1 0x40 MLOAD RETURNDATASIZE PUSH1 0x1F NOT PUSH1 0x1F DUP3 ADD AND DUP3 ADD DUP1 PUSH1 0x40 MSTORE POP DUP2 ADD SWAP1 PUSH2 0x1743 SWAP2 SWAP1 PUSH2 0x2609 JUMP JUMPDEST SWAP2 SWAP1 SWAP2 GT SWAP7 SWAP6 POP POP POP POP POP POP JUMP JUMPDEST PUSH1 0x1 PUSH1 0x1 PUSH1 0xA0 SHL SUB DUP5 AND PUSH1 0x0 SWAP1 DUP2 MSTORE PUSH1 0x1 PUSH1 0x20 MSTORE PUSH1 0x40 SWAP1 KECCAK256 SLOAD PUSH2 0x1775 SWAP1 DUP4 SWAP1 PUSH2 0x25B0 JUMP JUMPDEST PUSH1 0x1 PUSH1 0x1 PUSH1 0xA0 SHL SUB DUP6 AND PUSH1 0x0 SWAP1 DUP2 MSTORE PUSH1 0x1 PUSH1 0x20 MSTORE PUSH1 0x40 DUP2 KECCAK256 SWAP2 SWAP1 SWAP2 SSTORE PUSH1 0x64 PUSH2 0x179D DUP4 DUP6 PUSH2 0x25F2 JUMP JUMPDEST PUSH2 0x17A7 SWAP2 SWAP1 PUSH2 0x258E JUMP JUMPDEST SWAP1 POP DUP1 ISZERO PUSH2 0x17C7 JUMPI PUSH1 0x3 SLOAD PUSH2 0x17C7 SWAP1 DUP7 SWAP1 PUSH1 0x1 PUSH1 0x1 PUSH1 0xA0 SHL SUB AND DUP4 PUSH2 0x1BC2 JUMP JUMPDEST PUSH2 0x17DB DUP6 DUP6 PUSH2 0x17D6 DUP5 DUP8 PUSH2 0x25B0 JUMP JUMPDEST PUSH2 0x1BC2 JUMP JUMPDEST POP POP POP POP POP JUMP JUMPDEST PUSH1 0x0 PUSH1 0x22 SLOAD GT DUP1 ISZERO PUSH2 0x180D JUMPI POP PUSH1 0x1 PUSH1 0x1 PUSH1 0xA0 SHL SUB DUP2 AND PUSH1 0x0 SWAP1 DUP2 MSTORE PUSH1 0xD PUSH1 0x20 MSTORE PUSH1 0x40 SWAP1 KECCAK256 SLOAD PUSH1 0xFF AND ISZERO JUMPDEST DUP1 ISZERO PUSH2 0x1832 JUMPI POP PUSH1 0x1 PUSH1 0x1 PUSH1 0xA0 SHL SUB DUP2 AND PUSH1 0x0 SWAP1 DUP2 MSTORE PUSH1 0x9 PUSH1 0x20 MSTORE PUSH1 0x40 SWAP1 KECCAK256 SLOAD PUSH1 0xFF AND ISZERO JUMPDEST ISZERO PUSH2 0x1896 JUMPI PUSH1 0x1 PUSH1 0x1 PUSH1 0xA0 SHL SUB DUP2 AND PUSH1 0x0 SWAP1 DUP2 MSTORE PUSH1 0x1 PUSH1 0x20 MSTORE PUSH1 0x40 SWAP1 KECCAK256 SLOAD PUSH1 0x22 SLOAD LT ISZERO PUSH2 0x1896 JUMPI PUSH1 0x40 MLOAD PUSH3 0x461BCD PUSH1 0xE5 SHL DUP2 MSTORE PUSH1 0x20 PUSH1 0x4 DUP3 ADD MSTORE PUSH1 0x12 PUSH1 0x24 DUP3 ADD MSTORE PUSH18 0x195E18D9595908131A5B5A5D105B5BDD5B9D PUSH1 0x72 SHL PUSH1 0x44 DUP3 ADD MSTORE PUSH1 0x64 ADD PUSH2 0x99D JUMP JUMPDEST POP JUMP JUMPDEST PUSH1 0x1 PUSH1 0x1 PUSH1 0xA0 SHL SUB DUP7 AND PUSH1 0x0 SWAP1 DUP2 MSTORE PUSH1 0x1 PUSH1 0x20 MSTORE PUSH1 0x40 SWAP1 KECCAK256 SLOAD PUSH2 0x18BD SWAP1 DUP6 SWAP1 PUSH2 0x25B0 JUMP JUMPDEST PUSH1 0x1 PUSH1 0x1 PUSH1 0xA0 SHL SUB DUP8 AND PUSH1 0x0 SWAP1 DUP2 MSTORE PUSH1 0x1 PUSH1 0x20 MSTORE PUSH1 0x40 DUP2 KECCAK256 SWAP2 SWAP1 SWAP2 SSTORE DUP4 ISZERO PUSH2 0x1BB3 JUMPI DUP3 ISZERO PUSH2 0x1925 JUMPI PUSH2 0x2710 PUSH1 0x20 SLOAD DUP7 PUSH2 0x18F6 SWAP2 SWAP1 PUSH2 0x25F2 JUMP JUMPDEST PUSH2 0x1900 SWAP2 SWAP1 PUSH2 0x258E JUMP JUMPDEST SWAP1 POP DUP1 ISZERO PUSH2 0x1920 JUMPI PUSH1 0x3 SLOAD PUSH2 0x1920 SWAP1 DUP9 SWAP1 PUSH1 0x1 PUSH1 0x1 PUSH1 0xA0 SHL SUB AND DUP4 PUSH2 0x1BC2 JUMP JUMPDEST PUSH2 0x1BB3 JUMP JUMPDEST DUP2 ISZERO PUSH2 0x193C JUMPI PUSH2 0x2710 PUSH1 0x21 SLOAD DUP7 PUSH2 0x18F6 SWAP2 SWAP1 PUSH2 0x25F2 JUMP JUMPDEST PUSH1 0x1 PUSH1 0x1 PUSH1 0xA0 SHL SUB DUP8 AND PUSH1 0x0 SWAP1 DUP2 MSTORE PUSH1 0xD PUSH1 0x20 MSTORE PUSH1 0x40 SWAP1 KECCAK256 SLOAD PUSH1 0xFF AND ISZERO PUSH2 0x1A11 JUMPI PUSH1 0x0 PUSH2 0x2710 PUSH1 0x13 SLOAD PUSH1 0x12 SLOAD PUSH1 0x11 SLOAD PUSH1 0x10 SLOAD PUSH1 0xF SLOAD PUSH2 0x197B SWAP2 SWAP1 PUSH2 0x257B JUMP JUMPDEST PUSH2 0x1985 SWAP2 SWAP1 PUSH2 0x257B JUMP JUMPDEST PUSH2 0x198F SWAP2 SWAP1 PUSH2 0x257B JUMP JUMPDEST PUSH2 0x1999 SWAP2 SWAP1 PUSH2 0x257B JUMP JUMPDEST PUSH2 0x19A3 SWAP1 DUP9 PUSH2 0x25F2 JUMP JUMPDEST PUSH2 0x19AD SWAP2 SWAP1 PUSH2 0x258E JUMP JUMPDEST SWAP1 POP DUP1 ISZERO PUSH2 0x19CC JUMPI PUSH2 0x19BF DUP2 DUP4 PUSH2 0x257B JUMP JUMPDEST SWAP2 POP PUSH2 0x19CC DUP9 ADDRESS DUP4 PUSH2 0x1BC2 JUMP JUMPDEST PUSH1 0x0 PUSH2 0x2710 PUSH1 0x14 SLOAD DUP9 PUSH2 0x19DF SWAP2 SWAP1 PUSH2 0x25F2 JUMP JUMPDEST PUSH2 0x19E9 SWAP2 SWAP1 PUSH2 0x258E JUMP JUMPDEST SWAP1 POP DUP1 ISZERO PUSH2 0x1A0A JUMPI PUSH2 0x19FB DUP2 DUP5 PUSH2 0x257B JUMP JUMPDEST SWAP3 POP PUSH2 0x1A0A DUP10 PUSH2 0xDEAD DUP4 PUSH2 0x1BC2 JUMP JUMPDEST POP POP PUSH2 0x1BB3 JUMP JUMPDEST PUSH1 0x1 PUSH1 0x1 PUSH1 0xA0 SHL SUB DUP7 AND PUSH1 0x0 SWAP1 DUP2 MSTORE PUSH1 0xD PUSH1 0x20 MSTORE PUSH1 0x40 SWAP1 KECCAK256 SLOAD PUSH1 0xFF AND ISZERO PUSH2 0x1B78 JUMPI PUSH1 0x0 PUSH2 0x2710 PUSH1 0x19 SLOAD PUSH1 0x18 SLOAD PUSH1 0x17 SLOAD PUSH1 0x16 SLOAD PUSH1 0x15 SLOAD PUSH2 0x1A50 SWAP2 SWAP1 PUSH2 0x257B JUMP JUMPDEST PUSH2 0x1A5A SWAP2 SWAP1 PUSH2 0x257B JUMP JUMPDEST PUSH2 0x1A64 SWAP2 SWAP1 PUSH2 0x257B JUMP JUMPDEST PUSH2 0x1A6E SWAP2 SWAP1 PUSH2 0x257B JUMP JUMPDEST PUSH2 0x1A78 SWAP1 DUP9 PUSH2 0x25F2 JUMP JUMPDEST PUSH2 0x1A82 SWAP2 SWAP1 PUSH2 0x258E JUMP JUMPDEST SWAP1 POP DUP1 ISZERO PUSH2 0x1AA1 JUMPI PUSH2 0x1A94 DUP2 DUP4 PUSH2 0x257B JUMP JUMPDEST SWAP2 POP PUSH2 0x1AA1 DUP9 ADDRESS DUP4 PUSH2 0x1BC2 JUMP JUMPDEST PUSH1 0x0 PUSH2 0x2710 PUSH1 0x1A SLOAD DUP9 PUSH2 0x1AB4 SWAP2 SWAP1 PUSH2 0x25F2 JUMP JUMPDEST PUSH2 0x1ABE SWAP2 SWAP1 PUSH2 0x258E JUMP JUMPDEST SWAP1 POP DUP1 ISZERO PUSH2 0x1ADF JUMPI PUSH2 0x1AD0 DUP2 DUP5 PUSH2 0x257B JUMP JUMPDEST SWAP3 POP PUSH2 0x1ADF DUP10 PUSH2 0xDEAD DUP4 PUSH2 0x1BC2 JUMP JUMPDEST PUSH1 0x0 PUSH2 0x2710 PUSH1 0x1B SLOAD DUP10 PUSH2 0x1AF2 SWAP2 SWAP1 PUSH2 0x25F2 JUMP JUMPDEST PUSH2 0x1AFC SWAP2 SWAP1 PUSH2 0x258E JUMP JUMPDEST SWAP1 POP DUP1 ISZERO PUSH2 0x1B1D JUMPI PUSH2 0x1B0E DUP2 DUP6 PUSH2 0x257B JUMP JUMPDEST SWAP4 POP PUSH2 0x1B1D DUP11 PUSH2 0xDEAD DUP4 PUSH2 0x1BC2 JUMP JUMPDEST PUSH1 0xE SLOAD PUSH1 0xFF AND PUSH2 0x1B70 JUMPI ADDRESS PUSH1 0x0 SWAP1 DUP2 MSTORE PUSH1 0x1 PUSH1 0x20 MSTORE PUSH1 0x40 SWAP1 KECCAK256 SLOAD DUP1 ISZERO PUSH2 0x1B6E JUMPI PUSH1 0x0 PUSH1 0x32 PUSH2 0x1B4C DUP7 PUSH1 0xE6 PUSH2 0x25F2 JUMP JUMPDEST PUSH2 0x1B56 SWAP2 SWAP1 PUSH2 0x258E JUMP JUMPDEST SWAP1 POP DUP2 DUP2 GT ISZERO PUSH2 0x1B63 JUMPI POP DUP1 JUMPDEST PUSH2 0x1B6C DUP2 PUSH2 0x1C3A JUMP JUMPDEST POP JUMPDEST POP JUMPDEST POP POP POP PUSH2 0x1BB3 JUMP JUMPDEST PUSH2 0x2710 PUSH1 0x1C SLOAD DUP7 PUSH2 0x1B89 SWAP2 SWAP1 PUSH2 0x25F2 JUMP JUMPDEST PUSH2 0x1B93 SWAP2 SWAP1 PUSH2 0x258E JUMP JUMPDEST SWAP1 POP DUP1 ISZERO PUSH2 0x1BB3 JUMPI PUSH1 0x3 SLOAD PUSH2 0x1BB3 SWAP1 DUP9 SWAP1 PUSH1 0x1 PUSH1 0x1 PUSH1 0xA0 SHL SUB AND DUP4 PUSH2 0x1BC2 JUMP JUMPDEST PUSH2 0xD85 DUP8 DUP8 PUSH2 0x17D6 DUP5 DUP10 PUSH2 0x25B0 JUMP JUMPDEST PUSH1 0x1 PUSH1 0x1 PUSH1 0xA0 SHL SUB DUP3 AND PUSH1 0x0 SWAP1 DUP2 MSTORE PUSH1 0x1 PUSH1 0x20 MSTORE PUSH1 0x40 SWAP1 KECCAK256 SLOAD PUSH2 0x1BE6 SWAP1 DUP3 SWAP1 PUSH2 0x257B JUMP JUMPDEST PUSH1 0x1 PUSH1 0x1 PUSH1 0xA0 SHL SUB DUP1 DUP5 AND PUSH1 0x0 DUP2 DUP2 MSTORE PUSH1 0x1 PUSH1 0x20 MSTORE PUSH1 0x40 SWAP1 DUP2 SWAP1 KECCAK256 SWAP4 SWAP1 SWAP4 SSTORE SWAP2 MLOAD SWAP1 DUP6 AND SWAP1 PUSH32 0xDDF252AD1BE2C89B69C2B068FC378DAA952BA7F163C4A11628F55A4DF523B3EF SWAP1 PUSH2 0x11E6 SWAP1 DUP6 DUP2 MSTORE PUSH1 0x20 ADD SWAP1 JUMP JUMPDEST PUSH1 0xE DUP1 SLOAD PUSH1 0xFF NOT AND PUSH1 0x1 OR SWAP1 SSTORE DUP1 ISZERO PUSH2 0x21D7 JUMPI PUSH1 0x0 PUSH1 0x15 SLOAD PUSH1 0xF SLOAD PUSH2 0x1C5F SWAP2 SWAP1 PUSH2 0x257B JUMP JUMPDEST SWAP1 POP PUSH1 0x0 PUSH1 0x16 SLOAD PUSH1 0x10 SLOAD PUSH2 0x1C73 SWAP2 SWAP1 PUSH2 0x257B JUMP JUMPDEST SWAP1 POP PUSH1 0x0 PUSH1 0x17 SLOAD PUSH1 0x11 SLOAD PUSH2 0x1C87 SWAP2 SWAP1 PUSH2 0x257B JUMP JUMPDEST SWAP1 POP PUSH1 0x0 PUSH1 0x18 SLOAD PUSH1 0x12 SLOAD PUSH2 0x1C9B SWAP2 SWAP1 PUSH2 0x257B JUMP JUMPDEST SWAP1 POP PUSH1 0x0 PUSH1 0x19 SLOAD PUSH1 0x13 SLOAD PUSH2 0x1CAF SWAP2 SWAP1 PUSH2 0x257B JUMP JUMPDEST SWAP1 POP PUSH1 0x0 DUP2 DUP4 DUP6 PUSH2 0x1CC0 DUP9 DUP11 PUSH2 0x257B JUMP JUMPDEST PUSH2 0x1CCA SWAP2 SWAP1 PUSH2 0x257B JUMP JUMPDEST PUSH2 0x1CD4 SWAP2 SWAP1 PUSH2 0x257B JUMP JUMPDEST PUSH2 0x1CDE SWAP2 SWAP1 PUSH2 0x257B JUMP JUMPDEST SWAP1 POP PUSH2 0x1CEA DUP2 DUP1 PUSH2 0x257B JUMP JUMPDEST SWAP1 POP PUSH1 0x0 DUP2 PUSH2 0x1CF9 DUP5 DUP11 PUSH2 0x25F2 JUMP JUMPDEST PUSH2 0x1D03 SWAP2 SWAP1 PUSH2 0x258E JUMP JUMPDEST SWAP1 POP PUSH2 0x1D0F DUP4 DUP4 PUSH2 0x25B0 JUMP JUMPDEST PUSH1 0x40 DUP1 MLOAD PUSH1 0x2 DUP1 DUP3 MSTORE PUSH1 0x60 DUP3 ADD DUP4 MSTORE SWAP3 SWAP5 POP PUSH1 0x0 SWAP3 SWAP1 SWAP2 PUSH1 0x20 DUP4 ADD SWAP1 DUP1 CALLDATASIZE DUP4 CALLDATACOPY POP POP PUSH1 0xC SLOAD DUP3 MLOAD SWAP3 SWAP4 POP PUSH1 0x1 PUSH1 0x1 PUSH1 0xA0 SHL SUB AND SWAP2 ADDRESS SWAP2 POP DUP4 SWAP1 PUSH1 0x0 SWAP1 PUSH2 0x1D57 JUMPI PUSH2 0x1D57 PUSH2 0x25C3 JUMP JUMPDEST PUSH1 0x20 MUL PUSH1 0x20 ADD ADD SWAP1 PUSH1 0x1 PUSH1 0x1 PUSH1 0xA0 SHL SUB AND SWAP1 DUP2 PUSH1 0x1 PUSH1 0x1 PUSH1 0xA0 SHL SUB AND DUP2 MSTORE POP POP DUP1 DUP3 PUSH1 0x1 DUP2 MLOAD DUP2 LT PUSH2 0x1D8B JUMPI PUSH2 0x1D8B PUSH2 0x25C3 JUMP JUMPDEST PUSH1 0x1 PUSH1 0x1 PUSH1 0xA0 SHL SUB SWAP3 DUP4 AND PUSH1 0x20 SWAP2 DUP3 MUL SWAP3 SWAP1 SWAP3 ADD ADD MSTORE PUSH1 0xE SLOAD PUSH1 0xB SLOAD PUSH2 0x100 SWAP1 SWAP2 DIV DUP3 AND SWAP2 AND PUSH4 0x5C11D795 PUSH2 0x1DC0 DUP7 DUP15 PUSH2 0x25B0 JUMP JUMPDEST PUSH1 0x0 DUP7 DUP6 TIMESTAMP PUSH1 0x40 MLOAD DUP7 PUSH4 0xFFFFFFFF AND PUSH1 0xE0 SHL DUP2 MSTORE PUSH1 0x4 ADD PUSH2 0x1DE5 SWAP6 SWAP5 SWAP4 SWAP3 SWAP2 SWAP1 PUSH2 0x2689 JUMP JUMPDEST PUSH1 0x0 PUSH1 0x40 MLOAD DUP1 DUP4 SUB DUP2 PUSH1 0x0 DUP8 DUP1 EXTCODESIZE ISZERO DUP1 ISZERO PUSH2 0x1DFF JUMPI PUSH1 0x0 DUP1 REVERT JUMPDEST POP GAS CALL ISZERO DUP1 ISZERO PUSH2 0x1E13 JUMPI RETURNDATASIZE PUSH1 0x0 DUP1 RETURNDATACOPY RETURNDATASIZE PUSH1 0x0 REVERT JUMPDEST POP POP PUSH1 0x40 MLOAD PUSH4 0x70A08231 PUSH1 0xE0 SHL DUP2 MSTORE PUSH1 0x1 PUSH1 0x1 PUSH1 0xA0 SHL SUB DUP5 DUP2 AND PUSH1 0x4 DUP4 ADD MSTORE DUP6 SWAP4 POP PUSH1 0x0 SWAP3 POP DUP4 AND SWAP1 PUSH4 0x70A08231 SWAP1 PUSH1 0x24 ADD PUSH1 0x20 PUSH1 0x40 MLOAD DUP1 DUP4 SUB DUP2 DUP7 GAS STATICCALL ISZERO DUP1 ISZERO PUSH2 0x1E62 JUMPI RETURNDATASIZE PUSH1 0x0 DUP1 RETURNDATACOPY RETURNDATASIZE PUSH1 0x0 REVERT JUMPDEST POP POP POP POP PUSH1 0x40 MLOAD RETURNDATASIZE PUSH1 0x1F NOT PUSH1 0x1F DUP3 ADD AND DUP3 ADD DUP1 PUSH1 0x40 MSTORE POP DUP2 ADD SWAP1 PUSH2 0x1E86 SWAP2 SWAP1 PUSH2 0x2609 JUMP JUMPDEST PUSH1 0x40 MLOAD PUSH4 0x23B872DD PUSH1 0xE0 SHL DUP2 MSTORE PUSH1 0x1 PUSH1 0x1 PUSH1 0xA0 SHL SUB DUP6 DUP2 AND PUSH1 0x4 DUP4 ADD MSTORE ADDRESS PUSH1 0x24 DUP4 ADD MSTORE PUSH1 0x44 DUP3 ADD DUP4 SWAP1 MSTORE SWAP2 SWAP3 POP SWAP1 DUP4 AND SWAP1 PUSH4 0x23B872DD SWAP1 PUSH1 0x64 ADD PUSH1 0x20 PUSH1 0x40 MLOAD DUP1 DUP4 SUB DUP2 PUSH1 0x0 DUP8 GAS CALL ISZERO DUP1 ISZERO PUSH2 0x1EDF JUMPI RETURNDATASIZE PUSH1 0x0 DUP1 RETURNDATACOPY RETURNDATASIZE PUSH1 0x0 REVERT JUMPDEST POP POP POP POP PUSH1 0x40 MLOAD RETURNDATASIZE PUSH1 0x1F NOT PUSH1 0x1F DUP3 ADD AND DUP3 ADD DUP1 PUSH1 0x40 MSTORE POP DUP2 ADD SWAP1 PUSH2 0x1F03 SWAP2 SWAP1 PUSH2 0x2528 JUMP JUMPDEST POP PUSH1 0x0 DUP8 DUP14 PUSH2 0x1F13 DUP5 PUSH1 0x2 PUSH2 0x25F2 JUMP JUMPDEST PUSH2 0x1F1D SWAP2 SWAP1 PUSH2 0x25F2 JUMP JUMPDEST PUSH2 0x1F27 SWAP2 SWAP1 PUSH2 0x258E JUMP JUMPDEST SWAP1 POP DUP1 ISZERO PUSH2 0x1FA8 JUMPI PUSH1 0x3 SLOAD PUSH1 0x40 MLOAD PUSH4 0xA9059CBB PUSH1 0xE0 SHL DUP2 MSTORE PUSH1 0x1 PUSH1 0x1 PUSH1 0xA0 SHL SUB SWAP2 DUP3 AND PUSH1 0x4 DUP3 ADD MSTORE PUSH1 0x24 DUP2 ADD DUP4 SWAP1 MSTORE SWAP1 DUP5 AND SWAP1 PUSH4 0xA9059CBB SWAP1 PUSH1 0x44 ADD PUSH1 0x20 PUSH1 0x40 MLOAD DUP1 DUP4 SUB DUP2 PUSH1 0x0 DUP8 GAS CALL ISZERO DUP1 ISZERO PUSH2 0x1F82 JUMPI RETURNDATASIZE PUSH1 0x0 DUP1 RETURNDATACOPY RETURNDATASIZE PUSH1 0x0 REVERT JUMPDEST POP POP POP POP PUSH1 0x40 MLOAD RETURNDATASIZE PUSH1 0x1F NOT PUSH1 0x1F DUP3 ADD AND DUP3 ADD DUP1 PUSH1 0x40 MSTORE POP DUP2 ADD SWAP1 PUSH2 0x1FA6 SWAP2 SWAP1 PUSH2 0x2528 JUMP JUMPDEST POP JUMPDEST PUSH1 0x0 DUP9 DUP14 PUSH2 0x1FB7 DUP6 PUSH1 0x2 PUSH2 0x25F2 JUMP JUMPDEST PUSH2 0x1FC1 SWAP2 SWAP1 PUSH2 0x25F2 JUMP JUMPDEST PUSH2 0x1FCB SWAP2 SWAP1 PUSH2 0x258E JUMP JUMPDEST SWAP1 POP DUP1 ISZERO PUSH2 0x204E JUMPI PUSH1 0x4 DUP1 SLOAD PUSH1 0x40 MLOAD PUSH4 0xA9059CBB PUSH1 0xE0 SHL DUP2 MSTORE PUSH1 0x1 PUSH1 0x1 PUSH1 0xA0 SHL SUB SWAP2 DUP3 AND SWAP3 DUP2 ADD SWAP3 SWAP1 SWAP3 MSTORE PUSH1 0x24 DUP3 ADD DUP4 SWAP1 MSTORE DUP6 AND SWAP1 PUSH4 0xA9059CBB SWAP1 PUSH1 0x44 ADD PUSH1 0x20 PUSH1 0x40 MLOAD DUP1 DUP4 SUB DUP2 PUSH1 0x0 DUP8 GAS CALL ISZERO DUP1 ISZERO PUSH2 0x2028 JUMPI RETURNDATASIZE PUSH1 0x0 DUP1 RETURNDATACOPY RETURNDATASIZE PUSH1 0x0 REVERT JUMPDEST POP POP POP POP PUSH1 0x40 MLOAD RETURNDATASIZE PUSH1 0x1F NOT PUSH1 0x1F DUP3 ADD AND DUP3 ADD DUP1 PUSH1 0x40 MSTORE POP DUP2 ADD SWAP1 PUSH2 0x204C SWAP2 SWAP1 PUSH2 0x2528 JUMP JUMPDEST POP JUMPDEST PUSH1 0x0 DUP10 DUP14 PUSH2 0x205D DUP7 PUSH1 0x2 PUSH2 0x25F2 JUMP JUMPDEST PUSH2 0x2067 SWAP2 SWAP1 PUSH2 0x25F2 JUMP JUMPDEST PUSH2 0x2071 SWAP2 SWAP1 PUSH2 0x258E JUMP JUMPDEST SWAP1 POP DUP1 ISZERO PUSH2 0x20F2 JUMPI PUSH1 0x5 SLOAD PUSH1 0x40 MLOAD PUSH4 0xA9059CBB PUSH1 0xE0 SHL DUP2 MSTORE PUSH1 0x1 PUSH1 0x1 PUSH1 0xA0 SHL SUB SWAP2 DUP3 AND PUSH1 0x4 DUP3 ADD MSTORE PUSH1 0x24 DUP2 ADD DUP4 SWAP1 MSTORE SWAP1 DUP7 AND SWAP1 PUSH4 0xA9059CBB SWAP1 PUSH1 0x44 ADD PUSH1 0x20 PUSH1 0x40 MLOAD DUP1 DUP4 SUB DUP2 PUSH1 0x0 DUP8 GAS CALL ISZERO DUP1 ISZERO PUSH2 0x20CC JUMPI RETURNDATASIZE PUSH1 0x0 DUP1 RETURNDATACOPY RETURNDATASIZE PUSH1 0x0 REVERT JUMPDEST POP POP POP POP PUSH1 0x40 MLOAD RETURNDATASIZE PUSH1 0x1F NOT PUSH1 0x1F DUP3 ADD AND DUP3 ADD DUP1 PUSH1 0x40 MSTORE POP DUP2 ADD SWAP1 PUSH2 0x20F0 SWAP2 SWAP1 PUSH2 0x2528 JUMP JUMPDEST POP JUMPDEST PUSH1 0x0 DUP11 PUSH2 0x20FF DUP14 DUP8 PUSH2 0x25F2 JUMP JUMPDEST PUSH2 0x2109 SWAP2 SWAP1 PUSH2 0x258E JUMP JUMPDEST SWAP1 POP PUSH1 0x0 DUP2 GT DUP1 ISZERO PUSH2 0x211B JUMPI POP PUSH1 0x0 DUP11 GT JUMPDEST ISZERO PUSH2 0x21C6 JUMPI PUSH1 0xB SLOAD PUSH1 0x3 SLOAD PUSH1 0x40 MLOAD PUSH3 0xE8E337 PUSH1 0xE8 SHL DUP2 MSTORE ADDRESS PUSH1 0x4 DUP3 ADD MSTORE PUSH1 0x1 PUSH1 0x1 PUSH1 0xA0 SHL SUB DUP12 DUP2 AND PUSH1 0x24 DUP4 ADD MSTORE PUSH1 0x44 DUP3 ADD DUP15 SWAP1 MSTORE PUSH1 0x64 DUP3 ADD DUP6 SWAP1 MSTORE PUSH1 0x0 PUSH1 0x84 DUP4 ADD DUP2 SWAP1 MSTORE PUSH1 0xA4 DUP4 ADD MSTORE SWAP2 DUP3 AND PUSH1 0xC4 DUP3 ADD MSTORE TIMESTAMP PUSH1 0xE4 DUP3 ADD MSTORE SWAP2 AND SWAP1 PUSH4 0xE8E33700 SWAP1 PUSH2 0x104 ADD PUSH1 0x60 PUSH1 0x40 MLOAD DUP1 DUP4 SUB DUP2 PUSH1 0x0 DUP8 GAS CALL ISZERO DUP1 ISZERO PUSH2 0x219E JUMPI RETURNDATASIZE PUSH1 0x0 DUP1 RETURNDATACOPY RETURNDATASIZE PUSH1 0x0 REVERT JUMPDEST POP POP POP POP PUSH1 0x40 MLOAD RETURNDATASIZE PUSH1 0x1F NOT PUSH1 0x1F DUP3 ADD AND DUP3 ADD DUP1 PUSH1 0x40 MSTORE POP DUP2 ADD SWAP1 PUSH2 0x21C2 SWAP2 SWAP1 PUSH2 0x26FA JUMP JUMPDEST POP POP POP JUMPDEST POP POP POP POP POP POP POP POP POP POP POP POP POP POP POP POP JUMPDEST POP PUSH1 0xE DUP1 SLOAD PUSH1 0xFF NOT AND SWAP1 SSTORE JUMP JUMPDEST PUSH1 0x0 PUSH1 0x20 DUP1 DUP4 MSTORE DUP4 MLOAD DUP1 DUP3 DUP6 ADD MSTORE PUSH1 0x0 JUMPDEST DUP2 DUP2 LT ISZERO PUSH2 0x2211 JUMPI DUP6 DUP2 ADD DUP4 ADD MLOAD DUP6 DUP3 ADD PUSH1 0x40 ADD MSTORE DUP3 ADD PUSH2 0x21F5 JUMP JUMPDEST POP PUSH1 0x0 PUSH1 0x40 DUP3 DUP7 ADD ADD MSTORE PUSH1 0x40 PUSH1 0x1F NOT PUSH1 0x1F DUP4 ADD AND DUP6 ADD ADD SWAP3 POP POP POP SWAP3 SWAP2 POP POP JUMP JUMPDEST DUP1 CALLDATALOAD PUSH1 0x1 PUSH1 0x1 PUSH1 0xA0 SHL SUB DUP2 AND DUP2 EQ PUSH2 0x2249 JUMPI PUSH1 0x0 DUP1 REVERT JUMPDEST SWAP2 SWAP1 POP JUMP JUMPDEST PUSH1 0x0 DUP1 PUSH1 0x40 DUP4 DUP6 SUB SLT ISZERO PUSH2 0x2261 JUMPI PUSH1 0x0 DUP1 REVERT JUMPDEST PUSH2 0x226A DUP4 PUSH2 0x2232 JUMP JUMPDEST SWAP5 PUSH1 0x20 SWAP4 SWAP1 SWAP4 ADD CALLDATALOAD SWAP4 POP POP POP JUMP JUMPDEST PUSH1 0x0 DUP1 PUSH1 0x0 PUSH1 0x60 DUP5 DUP7 SUB SLT ISZERO PUSH2 0x228D JUMPI PUSH1 0x0 DUP1 REVERT JUMPDEST PUSH2 0x2296 DUP5 PUSH2 0x2232 JUMP JUMPDEST SWAP3 POP PUSH2 0x22A4 PUSH1 0x20 DUP6 ADD PUSH2 0x2232 JUMP JUMPDEST SWAP2 POP PUSH1 0x40 DUP5 ADD CALLDATALOAD SWAP1 POP SWAP3 POP SWAP3 POP SWAP3 JUMP JUMPDEST PUSH1 0x0 PUSH1 0x20 DUP3 DUP5 SUB SLT ISZERO PUSH2 0x22C6 JUMPI PUSH1 0x0 DUP1 REVERT JUMPDEST POP CALLDATALOAD SWAP2 SWAP1 POP JUMP JUMPDEST PUSH1 0x0 DUP1 PUSH1 0x0 DUP1 PUSH1 0x0 DUP1 PUSH1 0x0 PUSH1 0xE0 DUP9 DUP11 SUB SLT ISZERO PUSH2 0x22E8 JUMPI PUSH1 0x0 DUP1 REVERT JUMPDEST POP POP DUP6 CALLDATALOAD SWAP8 PUSH1 0x20 DUP8 ADD CALLDATALOAD SWAP8 POP PUSH1 0x40 DUP8 ADD CALLDATALOAD SWAP7 PUSH1 0x60 DUP2 ADD CALLDATALOAD SWAP7 POP PUSH1 0x80 DUP2 ADD CALLDATALOAD SWAP6 POP PUSH1 0xA0 DUP2 ADD CALLDATALOAD SWAP5 POP PUSH1 0xC0 ADD CALLDATALOAD SWAP3 POP SWAP1 POP JUMP JUMPDEST PUSH1 0x0 PUSH1 0x20 DUP3 DUP5 SUB SLT ISZERO PUSH2 0x232B JUMPI PUSH1 0x0 DUP1 REVERT JUMPDEST PUSH2 0x2334 DUP3 PUSH2 0x2232 JUMP JUMPDEST SWAP4 SWAP3 POP POP POP JUMP JUMPDEST DUP1 ISZERO ISZERO DUP2 EQ PUSH2 0x1896 JUMPI PUSH1 0x0 DUP1 REVERT JUMPDEST DUP1 CALLDATALOAD PUSH2 0x2249 DUP2 PUSH2 0x233B JUMP JUMPDEST PUSH1 0x0 DUP1 PUSH1 0x40 DUP4 DUP6 SUB SLT ISZERO PUSH2 0x2367 JUMPI PUSH1 0x0 DUP1 REVERT JUMPDEST PUSH2 0x2370 DUP4 PUSH2 0x2232 JUMP JUMPDEST SWAP2 POP PUSH1 0x20 DUP4 ADD CALLDATALOAD PUSH2 0x2380 DUP2 PUSH2 0x233B JUMP JUMPDEST DUP1 SWAP2 POP POP SWAP3 POP SWAP3 SWAP1 POP JUMP JUMPDEST PUSH4 0x4E487B71 PUSH1 0xE0 SHL PUSH1 0x0 MSTORE PUSH1 0x41 PUSH1 0x4 MSTORE PUSH1 0x24 PUSH1 0x0 REVERT JUMPDEST PUSH1 0x0 DUP1 PUSH1 0x40 DUP4 DUP6 SUB SLT ISZERO PUSH2 0x23B4 JUMPI PUSH1 0x0 DUP1 REVERT JUMPDEST DUP3 CALLDATALOAD PUSH8 0xFFFFFFFFFFFFFFFF DUP1 DUP3 GT ISZERO PUSH2 0x23CC JUMPI PUSH1 0x0 DUP1 REVERT JUMPDEST DUP2 DUP6 ADD SWAP2 POP DUP6 PUSH1 0x1F DUP4 ADD SLT PUSH2 0x23E0 JUMPI PUSH1 0x0 DUP1 REVERT JUMPDEST DUP2 CALLDATALOAD PUSH1 0x20 DUP3 DUP3 GT ISZERO PUSH2 0x23F4 JUMPI PUSH2 0x23F4 PUSH2 0x238B JUMP JUMPDEST DUP2 PUSH1 0x5 SHL PUSH1 0x40 MLOAD PUSH1 0x1F NOT PUSH1 0x3F DUP4 ADD AND DUP2 ADD DUP2 DUP2 LT DUP7 DUP3 GT OR ISZERO PUSH2 0x2419 JUMPI PUSH2 0x2419 PUSH2 0x238B JUMP JUMPDEST PUSH1 0x40 MSTORE SWAP3 DUP4 MSTORE DUP2 DUP4 ADD SWAP4 POP DUP5 DUP2 ADD DUP3 ADD SWAP3 DUP10 DUP5 GT ISZERO PUSH2 0x2437 JUMPI PUSH1 0x0 DUP1 REVERT JUMPDEST SWAP5 DUP3 ADD SWAP5 JUMPDEST DUP4 DUP7 LT ISZERO PUSH2 0x245C JUMPI PUSH2 0x244D DUP7 PUSH2 0x2232 JUMP JUMPDEST DUP6 MSTORE SWAP5 DUP3 ADD SWAP5 SWAP4 DUP3 ADD SWAP4 PUSH2 0x243C JUMP JUMPDEST SWAP7 POP PUSH2 0x246B SWAP1 POP DUP8 DUP3 ADD PUSH2 0x2349 JUMP JUMPDEST SWAP5 POP POP POP POP POP SWAP3 POP SWAP3 SWAP1 POP JUMP JUMPDEST PUSH1 0x0 DUP1 PUSH1 0x0 DUP1 PUSH1 0x0 DUP1 PUSH1 0xC0 DUP8 DUP10 SUB SLT ISZERO PUSH2 0x2491 JUMPI PUSH1 0x0 DUP1 REVERT JUMPDEST POP POP DUP5 CALLDATALOAD SWAP7 PUSH1 0x20 DUP7 ADD CALLDATALOAD SWAP7 POP PUSH1 0x40 DUP7 ADD CALLDATALOAD SWAP6 PUSH1 0x60 DUP2 ADD CALLDATALOAD SWAP6 POP PUSH1 0x80 DUP2 ADD CALLDATALOAD SWAP5 POP PUSH1 0xA0 ADD CALLDATALOAD SWAP3 POP SWAP1 POP JUMP JUMPDEST PUSH1 0x0 DUP1 PUSH1 0x40 DUP4 DUP6 SUB SLT ISZERO PUSH2 0x24CE JUMPI PUSH1 0x0 DUP1 REVERT JUMPDEST PUSH2 0x24D7 DUP4 PUSH2 0x2232 JUMP JUMPDEST SWAP2 POP PUSH2 0x24E5 PUSH1 0x20 DUP5 ADD PUSH2 0x2232 JUMP JUMPDEST SWAP1 POP SWAP3 POP SWAP3 SWAP1 POP JUMP JUMPDEST PUSH1 0x1 DUP2 DUP2 SHR SWAP1 DUP3 AND DUP1 PUSH2 0x2502 JUMPI PUSH1 0x7F DUP3 AND SWAP2 POP JUMPDEST PUSH1 0x20 DUP3 LT DUP2 SUB PUSH2 0x2522 JUMPI PUSH4 0x4E487B71 PUSH1 0xE0 SHL PUSH1 0x0 MSTORE PUSH1 0x22 PUSH1 0x4 MSTORE PUSH1 0x24 PUSH1 0x0 REVERT JUMPDEST POP SWAP2 SWAP1 POP JUMP JUMPDEST PUSH1 0x0 PUSH1 0x20 DUP3 DUP5 SUB SLT ISZERO PUSH2 0x253A JUMPI PUSH1 0x0 DUP1 REVERT JUMPDEST DUP2 MLOAD PUSH2 0x2334 DUP2 PUSH2 0x233B JUMP JUMPDEST PUSH1 0x20 DUP1 DUP3 MSTORE PUSH1 0x6 SWAP1 DUP3 ADD MSTORE PUSH6 0x10B7BBB732B9 PUSH1 0xD1 SHL PUSH1 0x40 DUP3 ADD MSTORE PUSH1 0x60 ADD SWAP1 JUMP JUMPDEST PUSH4 0x4E487B71 PUSH1 0xE0 SHL PUSH1 0x0 MSTORE PUSH1 0x11 PUSH1 0x4 MSTORE PUSH1 0x24 PUSH1 0x0 REVERT JUMPDEST DUP1 DUP3 ADD DUP1 DUP3 GT ISZERO PUSH2 0x8DB JUMPI PUSH2 0x8DB PUSH2 0x2565 JUMP JUMPDEST PUSH1 0x0 DUP3 PUSH2 0x25AB JUMPI PUSH4 0x4E487B71 PUSH1 0xE0 SHL PUSH1 0x0 MSTORE PUSH1 0x12 PUSH1 0x4 MSTORE PUSH1 0x24 PUSH1 0x0 REVERT JUMPDEST POP DIV SWAP1 JUMP JUMPDEST DUP2 DUP2 SUB DUP2 DUP2 GT ISZERO PUSH2 0x8DB JUMPI PUSH2 0x8DB PUSH2 0x2565 JUMP JUMPDEST PUSH4 0x4E487B71 PUSH1 0xE0 SHL PUSH1 0x0 MSTORE PUSH1 0x32 PUSH1 0x4 MSTORE PUSH1 0x24 PUSH1 0x0 REVERT JUMPDEST PUSH1 0x0 PUSH1 0x1 DUP3 ADD PUSH2 0x25EB JUMPI PUSH2 0x25EB PUSH2 0x2565 JUMP JUMPDEST POP PUSH1 0x1 ADD SWAP1 JUMP JUMPDEST DUP1 DUP3 MUL DUP2 ISZERO DUP3 DUP3 DIV DUP5 EQ OR PUSH2 0x8DB JUMPI PUSH2 0x8DB PUSH2 0x2565 JUMP JUMPDEST PUSH1 0x0 PUSH1 0x20 DUP3 DUP5 SUB SLT ISZERO PUSH2 0x261B JUMPI PUSH1 0x0 DUP1 REVERT JUMPDEST POP MLOAD SWAP2 SWAP1 POP JUMP JUMPDEST DUP1 MLOAD PUSH1 0x1 PUSH1 0x1 PUSH1 0x70 SHL SUB DUP2 AND DUP2 EQ PUSH2 0x2249 JUMPI PUSH1 0x0 DUP1 REVERT JUMPDEST PUSH1 0x0 DUP1 PUSH1 0x0 PUSH1 0x60 DUP5 DUP7 SUB SLT ISZERO PUSH2 0x264E JUMPI PUSH1 0x0 DUP1 REVERT JUMPDEST PUSH2 0x2657 DUP5 PUSH2 0x2622 JUMP JUMPDEST SWAP3 POP PUSH2 0x2665 PUSH1 0x20 DUP6 ADD PUSH2 0x2622 JUMP JUMPDEST SWAP2 POP PUSH1 0x40 DUP5 ADD MLOAD PUSH4 0xFFFFFFFF DUP2 AND DUP2 EQ PUSH2 0x267E JUMPI PUSH1 0x0 DUP1 REVERT JUMPDEST DUP1 SWAP2 POP POP SWAP3 POP SWAP3 POP SWAP3 JUMP JUMPDEST PUSH1 0x0 PUSH1 0xA0 DUP3 ADD DUP8 DUP4 MSTORE PUSH1 0x20 DUP8 DUP2 DUP6 ADD MSTORE PUSH1 0xA0 PUSH1 0x40 DUP6 ADD MSTORE DUP2 DUP8 MLOAD DUP1 DUP5 MSTORE PUSH1 0xC0 DUP7 ADD SWAP2 POP DUP3 DUP10 ADD SWAP4 POP PUSH1 0x0 JUMPDEST DUP2 DUP2 LT ISZERO PUSH2 0x26D9 JUMPI DUP5 MLOAD PUSH1 0x1 PUSH1 0x1 PUSH1 0xA0 SHL SUB AND DUP4 MSTORE SWAP4 DUP4 ADD SWAP4 SWAP2 DUP4 ADD SWAP2 PUSH1 0x1 ADD PUSH2 0x26B4 JUMP JUMPDEST POP POP PUSH1 0x1 PUSH1 0x1 PUSH1 0xA0 SHL SUB SWAP7 SWAP1 SWAP7 AND PUSH1 0x60 DUP6 ADD MSTORE POP POP POP PUSH1 0x80 ADD MSTORE SWAP4 SWAP3 POP POP POP JUMP JUMPDEST PUSH1 0x0 DUP1 PUSH1 0x0 PUSH1 0x60 DUP5 DUP7 SUB SLT ISZERO PUSH2 0x270F JUMPI PUSH1 0x0 DUP1 REVERT JUMPDEST DUP4 MLOAD SWAP3 POP PUSH1 0x20 DUP5 ADD MLOAD SWAP2 POP PUSH1 0x40 DUP5 ADD MLOAD SWAP1 POP SWAP3 POP SWAP3 POP SWAP3 JUMP INVALID LOG2 PUSH5 0x6970667358 0x22 SLT KECCAK256 0xE4 0x2F DUP10 0xBE 0xE8 0x4B 0xBD STATICCALL RETURNDATASIZE LOG1 SIGNEXTEND PUSH1 0x9F SDIV 0xD7 PUSH21 0x5234A0C333920420A8FD915A7F5EF32A64736F6C63 NUMBER STOP ADDMOD GT STOP CALLER PUSH1 0x80 PUSH1 0x40 MSTORE CALLVALUE DUP1 ISZERO PUSH2 0x10 JUMPI PUSH1 0x0 DUP1 REVERT JUMPDEST POP PUSH1 0x40 MLOAD PUSH2 0x312 CODESIZE SUB DUP1 PUSH2 0x312 DUP4 CODECOPY DUP2 ADD PUSH1 0x40 DUP2 SWAP1 MSTORE PUSH2 0x2F SWAP2 PUSH2 0xBF JUMP JUMPDEST PUSH1 0x0 DUP1 SLOAD PUSH1 0x1 PUSH1 0x1 PUSH1 0xA0 SHL SUB NOT AND CALLER SWAP1 DUP2 OR SWAP1 SWAP2 SSTORE PUSH1 0x40 MLOAD PUSH4 0x95EA7B3 PUSH1 0xE0 SHL DUP2 MSTORE PUSH1 0x4 DUP2 ADD SWAP2 SWAP1 SWAP2 MSTORE PUSH1 0x0 NOT PUSH1 0x24 DUP3 ADD MSTORE PUSH1 0x1 PUSH1 0x1 PUSH1 0xA0 SHL SUB DUP3 AND SWAP1 PUSH4 0x95EA7B3 SWAP1 PUSH1 0x44 ADD PUSH1 0x20 PUSH1 0x40 MLOAD DUP1 DUP4 SUB DUP2 PUSH1 0x0 DUP8 GAS CALL ISZERO DUP1 ISZERO PUSH2 0x94 JUMPI RETURNDATASIZE PUSH1 0x0 DUP1 RETURNDATACOPY RETURNDATASIZE PUSH1 0x0 REVERT JUMPDEST POP POP POP POP PUSH1 0x40 MLOAD RETURNDATASIZE PUSH1 0x1F NOT PUSH1 0x1F DUP3 ADD AND DUP3 ADD DUP1 PUSH1 0x40 MSTORE POP DUP2 ADD SWAP1 PUSH2 0xB8 SWAP2 SWAP1 PUSH2 0xEF JUMP JUMPDEST POP POP PUSH2 0x111 JUMP JUMPDEST PUSH1 0x0 PUSH1 0x20 DUP3 DUP5 SUB SLT ISZERO PUSH2 0xD1 JUMPI PUSH1 0x0 DUP1 REVERT JUMPDEST DUP2 MLOAD PUSH1 0x1 PUSH1 0x1 PUSH1 0xA0 SHL SUB DUP2 AND DUP2 EQ PUSH2 0xE8 JUMPI PUSH1 0x0 DUP1 REVERT JUMPDEST SWAP4 SWAP3 POP POP POP JUMP JUMPDEST PUSH1 0x0 PUSH1 0x20 DUP3 DUP5 SUB SLT ISZERO PUSH2 0x101 JUMPI PUSH1 0x0 DUP1 REVERT JUMPDEST DUP2 MLOAD DUP1 ISZERO ISZERO DUP2 EQ PUSH2 0xE8 JUMPI PUSH1 0x0 DUP1 REVERT JUMPDEST PUSH2 0x1F2 DUP1 PUSH2 0x120 PUSH1 0x0 CODECOPY PUSH1 0x0 RETURN INVALID PUSH1 0x80 PUSH1 0x40 MSTORE CALLVALUE DUP1 ISZERO PUSH2 0x10 JUMPI PUSH1 0x0 DUP1 REVERT JUMPDEST POP PUSH1 0x4 CALLDATASIZE LT PUSH2 0x36 JUMPI PUSH1 0x0 CALLDATALOAD PUSH1 0xE0 SHR DUP1 PUSH4 0x125BFB66 EQ PUSH2 0x3B JUMPI DUP1 PUSH4 0xB2BDFA7B EQ PUSH2 0x50 JUMPI JUMPDEST PUSH1 0x0 DUP1 REVERT JUMPDEST PUSH2 0x4E PUSH2 0x49 CALLDATASIZE PUSH1 0x4 PUSH2 0x157 JUMP JUMPDEST PUSH2 0x7F JUMP JUMPDEST STOP JUMPDEST PUSH1 0x0 SLOAD PUSH2 0x63 SWAP1 PUSH1 0x1 PUSH1 0x1 PUSH1 0xA0 SHL SUB AND DUP2 JUMP JUMPDEST PUSH1 0x40 MLOAD PUSH1 0x1 PUSH1 0x1 PUSH1 0xA0 SHL SUB SWAP1 SWAP2 AND DUP2 MSTORE PUSH1 0x20 ADD PUSH1 0x40 MLOAD DUP1 SWAP2 SUB SWAP1 RETURN JUMPDEST PUSH1 0x0 SLOAD PUSH1 0x1 PUSH1 0x1 PUSH1 0xA0 SHL SUB AND CALLER EQ PUSH2 0xC2 JUMPI PUSH1 0x40 MLOAD PUSH3 0x461BCD PUSH1 0xE5 SHL DUP2 MSTORE PUSH1 0x20 PUSH1 0x4 DUP3 ADD MSTORE PUSH1 0x2 PUSH1 0x24 DUP3 ADD MSTORE PUSH2 0x216F PUSH1 0xF0 SHL PUSH1 0x44 DUP3 ADD MSTORE PUSH1 0x64 ADD PUSH1 0x40 MLOAD DUP1 SWAP2 SUB SWAP1 REVERT JUMPDEST PUSH1 0x40 MLOAD PUSH4 0xA9059CBB PUSH1 0xE0 SHL DUP2 MSTORE PUSH1 0x1 PUSH1 0x1 PUSH1 0xA0 SHL SUB DUP4 DUP2 AND PUSH1 0x4 DUP4 ADD MSTORE PUSH1 0x24 DUP3 ADD DUP4 SWAP1 MSTORE DUP5 AND SWAP1 PUSH4 0xA9059CBB SWAP1 PUSH1 0x44 ADD PUSH1 0x20 PUSH1 0x40 MLOAD DUP1 DUP4 SUB DUP2 PUSH1 0x0 DUP8 GAS CALL ISZERO DUP1 ISZERO PUSH2 0x111 JUMPI RETURNDATASIZE PUSH1 0x0 DUP1 RETURNDATACOPY RETURNDATASIZE PUSH1 0x0 REVERT JUMPDEST POP POP POP POP PUSH1 0x40 MLOAD RETURNDATASIZE PUSH1 0x1F NOT PUSH1 0x1F DUP3 ADD AND DUP3 ADD DUP1 PUSH1 0x40 MSTORE POP DUP2 ADD SWAP1 PUSH2 0x135 SWAP2 SWAP1 PUSH2 0x193 JUMP JUMPDEST POP POP POP POP JUMP JUMPDEST DUP1 CALLDATALOAD PUSH1 0x1 PUSH1 0x1 PUSH1 0xA0 SHL SUB DUP2 AND DUP2 EQ PUSH2 0x152 JUMPI PUSH1 0x0 DUP1 REVERT JUMPDEST SWAP2 SWAP1 POP JUMP JUMPDEST PUSH1 0x0 DUP1 PUSH1 0x0 PUSH1 0x60 DUP5 DUP7 SUB SLT ISZERO PUSH2 0x16C JUMPI PUSH1 0x0 DUP1 REVERT JUMPDEST PUSH2 0x175 DUP5 PUSH2 0x13B JUMP JUMPDEST SWAP3 POP PUSH2 0x183 PUSH1 0x20 DUP6 ADD PUSH2 0x13B JUMP JUMPDEST SWAP2 POP PUSH1 0x40 DUP5 ADD CALLDATALOAD SWAP1 POP SWAP3 POP SWAP3 POP SWAP3 JUMP JUMPDEST PUSH1 0x0 PUSH1 0x20 DUP3 DUP5 SUB SLT ISZERO PUSH2 0x1A5 JUMPI PUSH1 0x0 DUP1 REVERT JUMPDEST DUP2 MLOAD DUP1 ISZERO ISZERO DUP2 EQ PUSH2 0x1B5 JUMPI PUSH1 0x0 DUP1 REVERT JUMPDEST SWAP4 SWAP3 POP POP POP JUMP INVALID LOG2 PUSH5 0x6970667358 0x22 SLT KECCAK256 SWAP8 0xB7 0xE7 SWAP3 PUSH27 0x1C1729A06589E579E093A1C52FC72747FF1AD6C08C52D9D7FBAAD6 PUSH5 0x736F6C6343 STOP ADDMOD GT STOP CALLER "
		},
		"gasEstimates": {
			"creation": {
				"codeDepositCost": "2015600",
				"executionCost": "infinite",
				"totalCost": "infinite"
			},
			"external": {
				"_addLPFee()": "2408",
				"_buyBurnLPFee()": "2362",
				"_buyFundFee()": "2450",
				"_buyFundFee2()": "2406",
				"_buyFundFee3()": "2429",
				"_buyLPDividendFee()": "2384",
				"_buyLPFee()": "2362",
				"_limitAmount()": "2339",
				"_mainPair()": "2427",
				"_removeLPFee()": "2340",
				"_sellBurnFee()": "2341",
				"_sellBurnLPFee()": "2427",
				"_sellFundFee()": "2341",
				"_sellFundFee2()": "2340",
				"_sellFundFee3()": "2449",
				"_sellLPDividendFee()": "2386",
				"_sellLPFee()": "2428",
				"_transferFee()": "2363",
				"allowance(address,address)": "infinite",
				"approve(address,uint256)": "24597",
				"balanceOf(address)": "2648",
				"batchSetFeeWhiteList(address[],bool)": "infinite",
				"claimBalance(address,uint256)": "infinite",
				"claimContractToken(address,address,uint256)": "infinite",
				"claimToken(address,address,uint256)": "infinite",
				"decimals()": "2423",
				"name()": "infinite",
				"owner()": "2421",
				"renounceOwnership()": "30298",
				"setAddLPFee(uint256)": "24621",
				"setBuyFee(uint256,uint256,uint256,uint256,uint256,uint256)": "infinite",
				"setFeeWhiteList(address,bool)": "26929",
				"setFundAddress(address)": "51066",
				"setFundAddress2(address)": "51110",
				"setFundAddress3(address)": "51154",
				"setLimitAmount(uint256)": "24554",
				"setRemoveLPFee(uint256)": "24597",
				"setSellFee(uint256,uint256,uint256,uint256,uint256,uint256,uint256)": "infinite",
				"setSwapPairList(address,bool)": "26908",
				"setTransferFee(uint256)": "24576",
				"startAddLPBlock()": "2451",
				"startTrade()": "26598",
				"startTradeBlock()": "2451",
				"symbol()": "infinite",
				"totalSupply()": "2338",
				"transfer(address,uint256)": "infinite",
				"transferFrom(address,address,uint256)": "infinite",
				"transferOwnership(address)": "30510"
			}
		},
		"methodIdentifiers": {
			"_addLPFee()": "0db5bde4",
			"_buyBurnLPFee()": "61769f95",
			"_buyFundFee()": "ce0192f9",
			"_buyFundFee2()": "c38c6826",
			"_buyFundFee3()": "48bad3f5",
			"_buyLPDividendFee()": "a925a6bd",
			"_buyLPFee()": "b9fbc49d",
			"_limitAmount()": "d2c01fc4",
			"_mainPair()": "4188bf5a",
			"_removeLPFee()": "5ef01957",
			"_sellBurnFee()": "7abdc1ca",
			"_sellBurnLPFee()": "f40db851",
			"_sellFundFee()": "3bfe62ca",
			"_sellFundFee2()": "b9ec2ec6",
			"_sellFundFee3()": "fcbd190b",
			"_sellLPDividendFee()": "0a607930",
			"_sellLPFee()": "adc7955d",
			"_transferFee()": "3df9a8d2",
			"allowance(address,address)": "dd62ed3e",
			"approve(address,uint256)": "095ea7b3",
			"balanceOf(address)": "70a08231",
			"batchSetFeeWhiteList(address[],bool)": "b2887bec",
			"claimBalance(address,uint256)": "aa8b38d9",
			"claimContractToken(address,address,uint256)": "78759541",
			"claimToken(address,address,uint256)": "125bfb66",
			"decimals()": "313ce567",
			"name()": "06fdde03",
			"owner()": "8da5cb5b",
			"renounceOwnership()": "715018a6",
			"setAddLPFee(uint256)": "15306932",
			"setBuyFee(uint256,uint256,uint256,uint256,uint256,uint256)": "c0600af3",
			"setFeeWhiteList(address,bool)": "d83d4143",
			"setFundAddress(address)": "85dc3004",
			"setFundAddress2(address)": "4672f7c5",
			"setFundAddress3(address)": "34902454",
			"setLimitAmount(uint256)": "1f107a45",
			"setRemoveLPFee(uint256)": "cd8d263d",
			"setSellFee(uint256,uint256,uint256,uint256,uint256,uint256,uint256)": "1c99f684",
			"setSwapPairList(address,bool)": "a8424861",
			"setTransferFee(uint256)": "8f02bb5b",
			"startAddLPBlock()": "9bb85344",
			"startTrade()": "6c580801",
			"startTradeBlock()": "553193ca",
			"symbol()": "95d89b41",
			"totalSupply()": "18160ddd",
			"transfer(address,uint256)": "a9059cbb",
			"transferFrom(address,address,uint256)": "23b872dd",
			"transferOwnership(address)": "f2fde38b"
		}
	},
	"abi": [
		{
			"inputs": [],
			"stateMutability": "nonpayable",
			"type": "constructor"
		},
		{
			"anonymous": false,
			"inputs": [
				{
					"indexed": true,
					"internalType": "address",
					"name": "owner",
					"type": "address"
				},
				{
					"indexed": true,
					"internalType": "address",
					"name": "spender",
					"type": "address"
				},
				{
					"indexed": false,
					"internalType": "uint256",
					"name": "value",
					"type": "uint256"
				}
			],
			"name": "Approval",
			"type": "event"
		},
		{
			"anonymous": false,
			"inputs": [
				{
					"indexed": true,
					"internalType": "address",
					"name": "previousOwner",
					"type": "address"
				},
				{
					"indexed": true,
					"internalType": "address",
					"name": "newOwner",
					"type": "address"
				}
			],
			"name": "OwnershipTransferred",
			"type": "event"
		},
		{
			"anonymous": false,
			"inputs": [
				{
					"indexed": true,
					"internalType": "address",
					"name": "from",
					"type": "address"
				},
				{
					"indexed": true,
					"internalType": "address",
					"name": "to",
					"type": "address"
				},
				{
					"indexed": false,
					"internalType": "uint256",
					"name": "value",
					"type": "uint256"
				}
			],
			"name": "Transfer",
			"type": "event"
		},
		{
			"inputs": [],
			"name": "_addLPFee",
			"outputs": [
				{
					"internalType": "uint256",
					"name": "",
					"type": "uint256"
				}
			],
			"stateMutability": "view",
			"type": "function"
		},
		{
			"inputs": [],
			"name": "_buyBurnLPFee",
			"outputs": [
				{
					"internalType": "uint256",
					"name": "",
					"type": "uint256"
				}
			],
			"stateMutability": "view",
			"type": "function"
		},
		{
			"inputs": [],
			"name": "_buyFundFee",
			"outputs": [
				{
					"internalType": "uint256",
					"name": "",
					"type": "uint256"
				}
			],
			"stateMutability": "view",
			"type": "function"
		},
		{
			"inputs": [],
			"name": "_buyFundFee2",
			"outputs": [
				{
					"internalType": "uint256",
					"name": "",
					"type": "uint256"
				}
			],
			"stateMutability": "view",
			"type": "function"
		},
		{
			"inputs": [],
			"name": "_buyFundFee3",
			"outputs": [
				{
					"internalType": "uint256",
					"name": "",
					"type": "uint256"
				}
			],
			"stateMutability": "view",
			"type": "function"
		},
		{
			"inputs": [],
			"name": "_buyLPDividendFee",
			"outputs": [
				{
					"internalType": "uint256",
					"name": "",
					"type": "uint256"
				}
			],
			"stateMutability": "view",
			"type": "function"
		},
		{
			"inputs": [],
			"name": "_buyLPFee",
			"outputs": [
				{
					"internalType": "uint256",
					"name": "",
					"type": "uint256"
				}
			],
			"stateMutability": "view",
			"type": "function"
		},
		{
			"inputs": [],
			"name": "_limitAmount",
			"outputs": [
				{
					"internalType": "uint256",
					"name": "",
					"type": "uint256"
				}
			],
			"stateMutability": "view",
			"type": "function"
		},
		{
			"inputs": [],
			"name": "_mainPair",
			"outputs": [
				{
					"internalType": "address",
					"name": "",
					"type": "address"
				}
			],
			"stateMutability": "view",
			"type": "function"
		},
		{
			"inputs": [],
			"name": "_removeLPFee",
			"outputs": [
				{
					"internalType": "uint256",
					"name": "",
					"type": "uint256"
				}
			],
			"stateMutability": "view",
			"type": "function"
		},
		{
			"inputs": [],
			"name": "_sellBurnFee",
			"outputs": [
				{
					"internalType": "uint256",
					"name": "",
					"type": "uint256"
				}
			],
			"stateMutability": "view",
			"type": "function"
		},
		{
			"inputs": [],
			"name": "_sellBurnLPFee",
			"outputs": [
				{
					"internalType": "uint256",
					"name": "",
					"type": "uint256"
				}
			],
			"stateMutability": "view",
			"type": "function"
		},
		{
			"inputs": [],
			"name": "_sellFundFee",
			"outputs": [
				{
					"internalType": "uint256",
					"name": "",
					"type": "uint256"
				}
			],
			"stateMutability": "view",
			"type": "function"
		},
		{
			"inputs": [],
			"name": "_sellFundFee2",
			"outputs": [
				{
					"internalType": "uint256",
					"name": "",
					"type": "uint256"
				}
			],
			"stateMutability": "view",
			"type": "function"
		},
		{
			"inputs": [],
			"name": "_sellFundFee3",
			"outputs": [
				{
					"internalType": "uint256",
					"name": "",
					"type": "uint256"
				}
			],
			"stateMutability": "view",
			"type": "function"
		},
		{
			"inputs": [],
			"name": "_sellLPDividendFee",
			"outputs": [
				{
					"internalType": "uint256",
					"name": "",
					"type": "uint256"
				}
			],
			"stateMutability": "view",
			"type": "function"
		},
		{
			"inputs": [],
			"name": "_sellLPFee",
			"outputs": [
				{
					"internalType": "uint256",
					"name": "",
					"type": "uint256"
				}
			],
			"stateMutability": "view",
			"type": "function"
		},
		{
			"inputs": [],
			"name": "_transferFee",
			"outputs": [
				{
					"internalType": "uint256",
					"name": "",
					"type": "uint256"
				}
			],
			"stateMutability": "view",
			"type": "function"
		},
		{
			"inputs": [
				{
					"internalType": "address",
					"name": "owner",
					"type": "address"
				},
				{
					"internalType": "address",
					"name": "spender",
					"type": "address"
				}
			],
			"name": "allowance",
			"outputs": [
				{
					"internalType": "uint256",
					"name": "",
					"type": "uint256"
				}
			],
			"stateMutability": "view",
			"type": "function"
		},
		{
			"inputs": [
				{
					"internalType": "address",
					"name": "spender",
					"type": "address"
				},
				{
					"internalType": "uint256",
					"name": "amount",
					"type": "uint256"
				}
			],
			"name": "approve",
			"outputs": [
				{
					"internalType": "bool",
					"name": "",
					"type": "bool"
				}
			],
			"stateMutability": "nonpayable",
			"type": "function"
		},
		{
			"inputs": [
				{
					"internalType": "address",
					"name": "account",
					"type": "address"
				}
			],
			"name": "balanceOf",
			"outputs": [
				{
					"internalType": "uint256",
					"name": "",
					"type": "uint256"
				}
			],
			"stateMutability": "view",
			"type": "function"
		},
		{
			"inputs": [
				{
					"internalType": "address[]",
					"name": "addr",
					"type": "address[]"
				},
				{
					"internalType": "bool",
					"name": "enable",
					"type": "bool"
				}
			],
			"name": "batchSetFeeWhiteList",
			"outputs": [],
			"stateMutability": "nonpayable",
			"type": "function"
		},
		{
			"inputs": [
				{
					"internalType": "address",
					"name": "to",
					"type": "address"
				},
				{
					"internalType": "uint256",
					"name": "amount",
					"type": "uint256"
				}
			],
			"name": "claimBalance",
			"outputs": [],
			"stateMutability": "nonpayable",
			"type": "function"
		},
		{
			"inputs": [
				{
					"internalType": "address",
					"name": "token",
					"type": "address"
				},
				{
					"internalType": "address",
					"name": "to",
					"type": "address"
				},
				{
					"internalType": "uint256",
					"name": "amount",
					"type": "uint256"
				}
			],
			"name": "claimContractToken",
			"outputs": [],
			"stateMutability": "nonpayable",
			"type": "function"
		},
		{
			"inputs": [
				{
					"internalType": "address",
					"name": "token",
					"type": "address"
				},
				{
					"internalType": "address",
					"name": "to",
					"type": "address"
				},
				{
					"internalType": "uint256",
					"name": "amount",
					"type": "uint256"
				}
			],
			"name": "claimToken",
			"outputs": [],
			"stateMutability": "nonpayable",
			"type": "function"
		},
		{
			"inputs": [],
			"name": "decimals",
			"outputs": [
				{
					"internalType": "uint8",
					"name": "",
					"type": "uint8"
				}
			],
			"stateMutability": "view",
			"type": "function"
		},
		{
			"inputs": [],
			"name": "name",
			"outputs": [
				{
					"internalType": "string",
					"name": "",
					"type": "string"
				}
			],
			"stateMutability": "view",
			"type": "function"
		},
		{
			"inputs": [],
			"name": "owner",
			"outputs": [
				{
					"internalType": "address",
					"name": "",
					"type": "address"
				}
			],
			"stateMutability": "view",
			"type": "function"
		},
		{
			"inputs": [],
			"name": "renounceOwnership",
			"outputs": [],
			"stateMutability": "nonpayable",
			"type": "function"
		},
		{
			"inputs": [
				{
					"internalType": "uint256",
					"name": "fee",
					"type": "uint256"
				}
			],
			"name": "setAddLPFee",
			"outputs": [],
			"stateMutability": "nonpayable",
			"type": "function"
		},
		{
			"inputs": [
				{
					"internalType": "uint256",
					"name": "fundFee",
					"type": "uint256"
				},
				{
					"internalType": "uint256",
					"name": "fundFee2",
					"type": "uint256"
				},
				{
					"internalType": "uint256",
					"name": "fundFee3",
					"type": "uint256"
				},
				{
					"internalType": "uint256",
					"name": "lpDividendFee",
					"type": "uint256"
				},
				{
					"internalType": "uint256",
					"name": "lpFee",
					"type": "uint256"
				},
				{
					"internalType": "uint256",
					"name": "burnLPFee",
					"type": "uint256"
				}
			],
			"name": "setBuyFee",
			"outputs": [],
			"stateMutability": "nonpayable",
			"type": "function"
		},
		{
			"inputs": [
				{
					"internalType": "address",
					"name": "addr",
					"type": "address"
				},
				{
					"internalType": "bool",
					"name": "enable",
					"type": "bool"
				}
			],
			"name": "setFeeWhiteList",
			"outputs": [],
			"stateMutability": "nonpayable",
			"type": "function"
		},
		{
			"inputs": [
				{
					"internalType": "address",
					"name": "addr",
					"type": "address"
				}
			],
			"name": "setFundAddress",
			"outputs": [],
			"stateMutability": "nonpayable",
			"type": "function"
		},
		{
			"inputs": [
				{
					"internalType": "address",
					"name": "addr",
					"type": "address"
				}
			],
			"name": "setFundAddress2",
			"outputs": [],
			"stateMutability": "nonpayable",
			"type": "function"
		},
		{
			"inputs": [
				{
					"internalType": "address",
					"name": "addr",
					"type": "address"
				}
			],
			"name": "setFundAddress3",
			"outputs": [],
			"stateMutability": "nonpayable",
			"type": "function"
		},
		{
			"inputs": [
				{
					"internalType": "uint256",
					"name": "amount",
					"type": "uint256"
				}
			],
			"name": "setLimitAmount",
			"outputs": [],
			"stateMutability": "nonpayable",
			"type": "function"
		},
		{
			"inputs": [
				{
					"internalType": "uint256",
					"name": "fee",
					"type": "uint256"
				}
			],
			"name": "setRemoveLPFee",
			"outputs": [],
			"stateMutability": "nonpayable",
			"type": "function"
		},
		{
			"inputs": [
				{
					"internalType": "uint256",
					"name": "sellFundFee",
					"type": "uint256"
				},
				{
					"internalType": "uint256",
					"name": "sellFundFee2",
					"type": "uint256"
				},
				{
					"internalType": "uint256",
					"name": "sellFundFee3",
					"type": "uint256"
				},
				{
					"internalType": "uint256",
					"name": "lpDividendFee",
					"type": "uint256"
				},
				{
					"internalType": "uint256",
					"name": "lpFee",
					"type": "uint256"
				},
				{
					"internalType": "uint256",
					"name": "burnLPFee",
					"type": "uint256"
				},
				{
					"internalType": "uint256",
					"name": "burnFee",
					"type": "uint256"
				}
			],
			"name": "setSellFee",
			"outputs": [],
			"stateMutability": "nonpayable",
			"type": "function"
		},
		{
			"inputs": [
				{
					"internalType": "address",
					"name": "addr",
					"type": "address"
				},
				{
					"internalType": "bool",
					"name": "enable",
					"type": "bool"
				}
			],
			"name": "setSwapPairList",
			"outputs": [],
			"stateMutability": "nonpayable",
			"type": "function"
		},
		{
			"inputs": [
				{
					"internalType": "uint256",
					"name": "fee",
					"type": "uint256"
				}
			],
			"name": "setTransferFee",
			"outputs": [],
			"stateMutability": "nonpayable",
			"type": "function"
		},
		{
			"inputs": [],
			"name": "startAddLPBlock",
			"outputs": [
				{
					"internalType": "uint256",
					"name": "",
					"type": "uint256"
				}
			],
			"stateMutability": "view",
			"type": "function"
		},
		{
			"inputs": [],
			"name": "startTrade",
			"outputs": [],
			"stateMutability": "nonpayable",
			"type": "function"
		},
		{
			"inputs": [],
			"name": "startTradeBlock",
			"outputs": [
				{
					"internalType": "uint256",
					"name": "",
					"type": "uint256"
				}
			],
			"stateMutability": "view",
			"type": "function"
		},
		{
			"inputs": [],
			"name": "symbol",
			"outputs": [
				{
					"internalType": "string",
					"name": "",
					"type": "string"
				}
			],
			"stateMutability": "view",
			"type": "function"
		},
		{
			"inputs": [],
			"name": "totalSupply",
			"outputs": [
				{
					"internalType": "uint256",
					"name": "",
					"type": "uint256"
				}
			],
			"stateMutability": "view",
			"type": "function"
		},
		{
			"inputs": [
				{
					"internalType": "address",
					"name": "recipient",
					"type": "address"
				},
				{
					"internalType": "uint256",
					"name": "amount",
					"type": "uint256"
				}
			],
			"name": "transfer",
			"outputs": [
				{
					"internalType": "bool",
					"name": "",
					"type": "bool"
				}
			],
			"stateMutability": "nonpayable",
			"type": "function"
		},
		{
			"inputs": [
				{
					"internalType": "address",
					"name": "sender",
					"type": "address"
				},
				{
					"internalType": "address",
					"name": "recipient",
					"type": "address"
				},
				{
					"internalType": "uint256",
					"name": "amount",
					"type": "uint256"
				}
			],
			"name": "transferFrom",
			"outputs": [
				{
					"internalType": "bool",
					"name": "",
					"type": "bool"
				}
			],
			"stateMutability": "nonpayable",
			"type": "function"
		},
		{
			"inputs": [
				{
					"internalType": "address",
					"name": "newOwner",
					"type": "address"
				}
			],
			"name": "transferOwnership",
			"outputs": [],
			"stateMutability": "nonpayable",
			"type": "function"
		},
		{
			"stateMutability": "payable",
			"type": "receive"
		}
	]
}